{
  "contractName": "BalanceHolder",
  "abi": [
    {
      "constant": false,
      "inputs": [
        {
          "name": "_roles2Library",
          "type": "address"
        }
      ],
      "name": "setRoles2Library",
      "outputs": [
        {
          "name": "",
          "type": "uint256"
        }
      ],
      "payable": false,
      "stateMutability": "nonpayable",
      "type": "function"
    },
    {
      "inputs": [
        {
          "name": "_roles2Library",
          "type": "address"
        }
      ],
      "payable": false,
      "stateMutability": "nonpayable",
      "type": "constructor"
    },
    {
      "payable": true,
      "stateMutability": "payable",
      "type": "fallback"
    },
    {
      "anonymous": false,
      "inputs": [
        {
          "indexed": false,
          "name": "code",
          "type": "address"
        },
        {
          "indexed": false,
          "name": "sender",
          "type": "address"
        },
        {
          "indexed": false,
          "name": "sig",
          "type": "bytes4"
        }
      ],
      "name": "AuthFailedError",
      "type": "event"
    },
    {
      "constant": false,
      "inputs": [
        {
          "name": "_from",
          "type": "address"
        },
        {
          "name": "_value",
          "type": "uint256"
        },
        {
          "name": "_contract",
          "type": "address"
        }
      ],
      "name": "deposit",
      "outputs": [
        {
          "name": "",
          "type": "bool"
        }
      ],
      "payable": false,
      "stateMutability": "nonpayable",
      "type": "function"
    },
    {
      "constant": false,
      "inputs": [
        {
          "name": "_to",
          "type": "address"
        },
        {
          "name": "_value",
          "type": "uint256"
        },
        {
          "name": "_contract",
          "type": "address"
        }
      ],
      "name": "withdraw",
      "outputs": [
        {
          "name": "",
          "type": "bool"
        }
      ],
      "payable": false,
      "stateMutability": "nonpayable",
      "type": "function"
    },
    {
      "constant": false,
      "inputs": [
        {
          "name": "_to",
          "type": "address"
        },
        {
          "name": "_amount",
          "type": "uint256"
        }
      ],
      "name": "withdrawETH",
      "outputs": [
        {
          "name": "",
          "type": "bool"
        }
      ],
      "payable": false,
      "stateMutability": "nonpayable",
      "type": "function"
    }
  ],
  "bytecode": "0x6060604052341561000f57600080fd5b6040516020806105ed8339810160405280805160008054600160a060020a03909216600160a060020a03199092169190911790555050610599806100546000396000f3006060604052600436106100485763ffffffff60e060020a6000350416632637cd7d811461004a5780634782f7791461007b57806369328dec146100b1578063f45346dc146100da575b005b341561005557600080fd5b610069600160a060020a0360043516610103565b60405190815260200160405180910390f35b341561008657600080fd5b61009d600160a060020a03600435166024356101af565b604051901515815260200160405180910390f35b34156100bc57600080fd5b61009d600160a060020a036004358116906024359060443516610294565b34156100e557600080fd5b61009d600160a060020a036004358116906024359060443516610390565b600061011b33600035600160e060020a031916610475565b151561017e5760008051602061054e8339815191523033600035600160e060020a031916604051600160a060020a039384168152919092166020820152600160e060020a03199091166040808301919091526060909101905180910390a16101aa565b506000805473ffffffffffffffffffffffffffffffffffffffff1916600160a060020a03831617905560015b919050565b60006101c733600035600160e060020a031916610475565b151561022a5760008051602061054e8339815191523033600035600160e060020a031916604051600160a060020a039384168152919092166020820152600160e060020a03199091166040808301919091526060909101905180910390a161028e565b600160a060020a038316151561023f57600080fd5b30600160a060020a0316318211156102595750600061028e565b600160a060020a03831682156108fc0283604051600060405180830381858888f19350505050151561028a57600080fd5b5060015b92915050565b60006102ac33600035600160e060020a031916610475565b151561030f5760008051602061054e8339815191523033600035600160e060020a031916604051600160a060020a039384168152919092166020820152600160e060020a03199091166040808301919091526060909101905180910390a1610389565b81600160a060020a031663a9059cbb858560006040516020015260405160e060020a63ffffffff8516028152600160a060020a0390921660048301526024820152604401602060405180830381600087803b151561036c57600080fd5b6102c65a03f1151561037d57600080fd5b50505060405180519150505b9392505050565b60006103a833600035600160e060020a031916610475565b151561040b5760008051602061054e8339815191523033600035600160e060020a031916604051600160a060020a039384168152919092166020820152600160e060020a03199091166040808301919091526060909101905180910390a1610389565b81600160a060020a03166323b872dd85308660006040516020015260405160e060020a63ffffffff8616028152600160a060020a0393841660048201529190921660248201526044810191909152606401602060405180830381600087803b151561036c57600080fd5b600030600160a060020a031683600160a060020a031614156104995750600161028e565b600054600160a060020a031615156104b35750600061028e565b60008054600160a060020a03169063b7009613908590309086906040516020015260405160e060020a63ffffffff8616028152600160a060020a039384166004820152919092166024820152600160e060020a03199091166044820152606401602060405180830381600087803b151561052c57600080fd5b6102c65a03f1151561053d57600080fd5b505050604051805194935050505056005133a133185f1023427a2e90f18506b27db994977ce0c0faafd514a7dd109ae0a165627a7a72305820d5c6bc494c2e8470397076a0e7729e36e723728d62d826cde95a65d33571b9300029",
  "source": "/**\n * Copyright 2017–2018, LaborX PTY\n * Licensed under the AGPL Version 3 license.\n */\n\npragma solidity ^0.4.18;\n\n\nimport './adapters/Roles2LibraryAdapter.sol';\nimport './base/ERC20Interface.sol';\n\ncontract BalanceHolder is Roles2LibraryAdapter {\n\n    function BalanceHolder(address _roles2Library)\n    Roles2LibraryAdapter(_roles2Library)\n    public\n    {\n    }\n\n    function deposit(address _from, uint _value, ERC20Interface _contract)\n    external\n    auth\n    returns (bool)\n    {\n        return _contract.transferFrom(_from, this, _value);\n    }\n\n    function withdraw(address _to, uint _value, ERC20Interface _contract)\n    external\n    auth\n    returns (bool)\n    {\n        return _contract.transfer(_to, _value);\n    }\n\n    function withdrawETH(address _to, uint _amount)\n    external\n    auth\n    returns (bool)\n    {\n        require(_to != address(0));\n\n        if(_amount > this.balance) {\n            return false;\n        }\n\n        _to.transfer(_amount);\n        return true;\n    }\n\n    function ()\n    public\n    payable\n    {        \n    }\n}\n",
  "sourcePath": "/Users/alesanro/Documents/Projects/ChronoBank/LX-SC/contracts/BalanceHolder.sol",
  "compiler": {
    "name": "solc",
    "version": "0.4.19+commit.c4cbbb05.Emscripten.clang"
  },
  "schemaVersion": "2.0.0",
  "updatedAt": "2018-06-05T15:16:40.414Z"
}