{
  "contractName": "BalanceHolder",
  "abi": [
    {
      "constant": false,
      "inputs": [
        {
          "name": "_roles2Library",
          "type": "address"
        }
      ],
      "name": "setRoles2Library",
      "outputs": [
        {
          "name": "",
          "type": "uint256"
        }
      ],
      "payable": false,
      "stateMutability": "nonpayable",
      "type": "function"
    },
    {
      "inputs": [
        {
          "name": "_roles2Library",
          "type": "address"
        }
      ],
      "payable": false,
      "stateMutability": "nonpayable",
      "type": "constructor"
    },
    {
      "anonymous": false,
      "inputs": [
        {
          "indexed": false,
          "name": "code",
          "type": "address"
        },
        {
          "indexed": false,
          "name": "sender",
          "type": "address"
        },
        {
          "indexed": false,
          "name": "sig",
          "type": "bytes4"
        }
      ],
      "name": "AuthFailedError",
      "type": "event"
    },
    {
      "constant": false,
      "inputs": [
        {
          "name": "_from",
          "type": "address"
        },
        {
          "name": "_value",
          "type": "uint256"
        },
        {
          "name": "_contract",
          "type": "address"
        }
      ],
      "name": "deposit",
      "outputs": [
        {
          "name": "",
          "type": "bool"
        }
      ],
      "payable": false,
      "stateMutability": "nonpayable",
      "type": "function"
    },
    {
      "constant": false,
      "inputs": [
        {
          "name": "_to",
          "type": "address"
        },
        {
          "name": "_value",
          "type": "uint256"
        },
        {
          "name": "_contract",
          "type": "address"
        }
      ],
      "name": "withdraw",
      "outputs": [
        {
          "name": "",
          "type": "bool"
        }
      ],
      "payable": false,
      "stateMutability": "nonpayable",
      "type": "function"
    }
  ],
  "bytecode": "0x6060604052341561000f57600080fd5b6040516020806104f68339810160405280805160008054600160a060020a03909216600160a060020a031990921691909117905550506104a2806100546000396000f30060606040526004361061003d5763ffffffff60e060020a6000350416632637cd7d811461004257806369328dec14610073578063f45346dc146100b0575b600080fd5b341561004d57600080fd5b610061600160a060020a03600435166100d9565b60405190815260200160405180910390f35b341561007e57600080fd5b61009c600160a060020a036004358116906024359060443516610197565b604051901515815260200160405180910390f35b34156100bb57600080fd5b61009c600160a060020a0360043581169060243590604435166102a5565b60006100f133600035600160e060020a03191661039c565b1515610166577f5133a133185f1023427a2e90f18506b27db994977ce0c0faafd514a7dd109ae03033600035600160e060020a031916604051600160a060020a039384168152919092166020820152600160e060020a03199091166040808301919091526060909101905180910390a1610192565b506000805473ffffffffffffffffffffffffffffffffffffffff1916600160a060020a03831617905560015b919050565b60006101af33600035600160e060020a03191661039c565b1515610224577f5133a133185f1023427a2e90f18506b27db994977ce0c0faafd514a7dd109ae03033600035600160e060020a031916604051600160a060020a039384168152919092166020820152600160e060020a03199091166040808301919091526060909101905180910390a161029e565b81600160a060020a031663a9059cbb858560006040516020015260405160e060020a63ffffffff8516028152600160a060020a0390921660048301526024820152604401602060405180830381600087803b151561028157600080fd5b6102c65a03f1151561029257600080fd5b50505060405180519150505b9392505050565b60006102bd33600035600160e060020a03191661039c565b1515610332577f5133a133185f1023427a2e90f18506b27db994977ce0c0faafd514a7dd109ae03033600035600160e060020a031916604051600160a060020a039384168152919092166020820152600160e060020a03199091166040808301919091526060909101905180910390a161029e565b81600160a060020a03166323b872dd85308660006040516020015260405160e060020a63ffffffff8616028152600160a060020a0393841660048201529190921660248201526044810191909152606401602060405180830381600087803b151561028157600080fd5b600030600160a060020a031683600160a060020a031614156103c057506001610470565b600054600160a060020a031615156103da57506000610470565b60008054600160a060020a03169063b7009613908590309086906040516020015260405160e060020a63ffffffff8616028152600160a060020a039384166004820152919092166024820152600160e060020a03199091166044820152606401602060405180830381600087803b151561045357600080fd5b6102c65a03f1151561046457600080fd5b50505060405180519150505b929150505600a165627a7a72305820c1ebd3846052ea9c362477b18b01ad333dc01ff478187393cfc4002b43317b820029",
  "source": "/**\n * Copyright 2017–2018, LaborX PTY\n * Licensed under the AGPL Version 3 license.\n */\n\npragma solidity ^0.4.18;\n\n\nimport './adapters/Roles2LibraryAdapter.sol';\nimport './base/ERC20Interface.sol';\n\n\ncontract BalanceHolder is Roles2LibraryAdapter {\n\n    function BalanceHolder(address _roles2Library) Roles2LibraryAdapter(_roles2Library) public {\n\n    }\n\n    function deposit(address _from, uint _value, ERC20Interface _contract) auth external returns (bool) {\n        return _contract.transferFrom(_from, this, _value);\n    }\n\n    function withdraw(address _to, uint _value, ERC20Interface _contract) auth external returns (bool) {\n        return _contract.transfer(_to, _value);\n    }\n}\n",
  "sourcePath": "/Users/ahiatsevich/Development/chronobank/LX-SC/contracts/BalanceHolder.sol",
  "compiler": {
    "name": "solc",
    "version": "0.4.19+commit.c4cbbb05.Emscripten.clang"
  },
  "schemaVersion": "2.0.0",
  "updatedAt": "2018-05-10T14:36:15.301Z"
}