{
  "contractName": "BoardController",
  "abi": [
    {
      "constant": false,
      "inputs": [
        {
          "name": "_roles2Library",
          "type": "address"
        }
      ],
      "name": "setRoles2Library",
      "outputs": [
        {
          "name": "",
          "type": "uint256"
        }
      ],
      "payable": false,
      "stateMutability": "nonpayable",
      "type": "function"
    },
    {
      "constant": false,
      "inputs": [
        {
          "name": "_errorCode",
          "type": "uint256"
        }
      ],
      "name": "emitErrorCode",
      "outputs": [],
      "payable": false,
      "stateMutability": "nonpayable",
      "type": "function"
    },
    {
      "constant": false,
      "inputs": [
        {
          "name": "_msg",
          "type": "bytes32"
        }
      ],
      "name": "emitError",
      "outputs": [],
      "payable": false,
      "stateMutability": "nonpayable",
      "type": "function"
    },
    {
      "constant": true,
      "inputs": [],
      "name": "getEventsHistory",
      "outputs": [
        {
          "name": "",
          "type": "address"
        }
      ],
      "payable": false,
      "stateMutability": "view",
      "type": "function"
    },
    {
      "inputs": [
        {
          "name": "_store",
          "type": "address"
        },
        {
          "name": "_crate",
          "type": "bytes32"
        },
        {
          "name": "_roles2Library",
          "type": "address"
        }
      ],
      "payable": false,
      "stateMutability": "nonpayable",
      "type": "constructor"
    },
    {
      "anonymous": false,
      "inputs": [
        {
          "indexed": true,
          "name": "self",
          "type": "address"
        },
        {
          "indexed": true,
          "name": "boardId",
          "type": "uint256"
        },
        {
          "indexed": false,
          "name": "name",
          "type": "bytes32"
        },
        {
          "indexed": false,
          "name": "boardDescription",
          "type": "bytes32"
        },
        {
          "indexed": false,
          "name": "creator",
          "type": "address"
        },
        {
          "indexed": false,
          "name": "boardTags",
          "type": "uint256"
        },
        {
          "indexed": false,
          "name": "boardTagsArea",
          "type": "uint256"
        },
        {
          "indexed": false,
          "name": "boardTagsCategory",
          "type": "uint256"
        },
        {
          "indexed": false,
          "name": "boardIpfsHash",
          "type": "bytes32"
        },
        {
          "indexed": false,
          "name": "status",
          "type": "bool"
        }
      ],
      "name": "BoardCreated",
      "type": "event"
    },
    {
      "anonymous": false,
      "inputs": [
        {
          "indexed": true,
          "name": "self",
          "type": "address"
        },
        {
          "indexed": true,
          "name": "boardId",
          "type": "uint256"
        },
        {
          "indexed": false,
          "name": "jobId",
          "type": "uint256"
        },
        {
          "indexed": false,
          "name": "status",
          "type": "bool"
        }
      ],
      "name": "JobBinded",
      "type": "event"
    },
    {
      "anonymous": false,
      "inputs": [
        {
          "indexed": true,
          "name": "self",
          "type": "address"
        },
        {
          "indexed": true,
          "name": "boardId",
          "type": "uint256"
        },
        {
          "indexed": false,
          "name": "user",
          "type": "address"
        },
        {
          "indexed": false,
          "name": "status",
          "type": "bool"
        }
      ],
      "name": "UserBinded",
      "type": "event"
    },
    {
      "anonymous": false,
      "inputs": [
        {
          "indexed": true,
          "name": "self",
          "type": "address"
        },
        {
          "indexed": true,
          "name": "boardId",
          "type": "uint256"
        },
        {
          "indexed": false,
          "name": "status",
          "type": "bool"
        }
      ],
      "name": "BoardClosed",
      "type": "event"
    },
    {
      "anonymous": false,
      "inputs": [
        {
          "indexed": false,
          "name": "code",
          "type": "address"
        },
        {
          "indexed": false,
          "name": "sender",
          "type": "address"
        },
        {
          "indexed": false,
          "name": "sig",
          "type": "bytes4"
        }
      ],
      "name": "AuthFailedError",
      "type": "event"
    },
    {
      "anonymous": false,
      "inputs": [
        {
          "indexed": true,
          "name": "self",
          "type": "address"
        },
        {
          "indexed": false,
          "name": "msg",
          "type": "bytes32"
        }
      ],
      "name": "Error",
      "type": "event"
    },
    {
      "anonymous": false,
      "inputs": [
        {
          "indexed": true,
          "name": "self",
          "type": "address"
        },
        {
          "indexed": false,
          "name": "errorCode",
          "type": "uint256"
        }
      ],
      "name": "ErrorCode",
      "type": "event"
    },
    {
      "constant": false,
      "inputs": [
        {
          "name": "_eventsHistory",
          "type": "address"
        }
      ],
      "name": "setupEventsHistory",
      "outputs": [
        {
          "name": "",
          "type": "uint256"
        }
      ],
      "payable": false,
      "stateMutability": "nonpayable",
      "type": "function"
    },
    {
      "constant": true,
      "inputs": [],
      "name": "getBoardsCount",
      "outputs": [
        {
          "name": "",
          "type": "uint256"
        }
      ],
      "payable": false,
      "stateMutability": "view",
      "type": "function"
    },
    {
      "constant": true,
      "inputs": [
        {
          "name": "_boardId",
          "type": "uint256"
        }
      ],
      "name": "getBoardStatus",
      "outputs": [
        {
          "name": "",
          "type": "bool"
        }
      ],
      "payable": false,
      "stateMutability": "view",
      "type": "function"
    },
    {
      "constant": true,
      "inputs": [
        {
          "name": "_boardId",
          "type": "uint256"
        },
        {
          "name": "_jobId",
          "type": "uint256"
        }
      ],
      "name": "getJobStatus",
      "outputs": [
        {
          "name": "",
          "type": "bool"
        }
      ],
      "payable": false,
      "stateMutability": "view",
      "type": "function"
    },
    {
      "constant": true,
      "inputs": [
        {
          "name": "_boardId",
          "type": "uint256"
        },
        {
          "name": "_user",
          "type": "address"
        }
      ],
      "name": "getUserStatus",
      "outputs": [
        {
          "name": "",
          "type": "bool"
        }
      ],
      "payable": false,
      "stateMutability": "view",
      "type": "function"
    },
    {
      "constant": true,
      "inputs": [
        {
          "name": "_jobId",
          "type": "uint256"
        }
      ],
      "name": "getJobsBoard",
      "outputs": [
        {
          "name": "",
          "type": "uint256"
        }
      ],
      "payable": false,
      "stateMutability": "view",
      "type": "function"
    },
    {
      "constant": true,
      "inputs": [
        {
          "name": "_jobId",
          "type": "uint256"
        }
      ],
      "name": "getJobsIpfsHash",
      "outputs": [
        {
          "name": "",
          "type": "bytes32"
        }
      ],
      "payable": false,
      "stateMutability": "view",
      "type": "function"
    },
    {
      "constant": true,
      "inputs": [
        {
          "name": "_fromId",
          "type": "uint256"
        },
        {
          "name": "_maxLen",
          "type": "uint256"
        },
        {
          "name": "_bindedUser",
          "type": "address"
        }
      ],
      "name": "getBoards",
      "outputs": [
        {
          "name": "ids",
          "type": "uint256[]"
        },
        {
          "name": "names",
          "type": "bytes32[]"
        },
        {
          "name": "descriptions",
          "type": "bytes32[]"
        },
        {
          "name": "tags",
          "type": "uint256[]"
        },
        {
          "name": "tagsAreas",
          "type": "uint256[]"
        },
        {
          "name": "tagsCategories",
          "type": "uint256[]"
        },
        {
          "name": "status",
          "type": "bool[]"
        }
      ],
      "payable": false,
      "stateMutability": "view",
      "type": "function"
    },
    {
      "constant": false,
      "inputs": [
        {
          "name": "_name",
          "type": "bytes32"
        },
        {
          "name": "_boardDescription",
          "type": "bytes32"
        },
        {
          "name": "_tags",
          "type": "uint256"
        },
        {
          "name": "_tagsArea",
          "type": "uint256"
        },
        {
          "name": "_tagsCategory",
          "type": "uint256"
        },
        {
          "name": "_ipfsHash",
          "type": "bytes32"
        }
      ],
      "name": "createBoard",
      "outputs": [
        {
          "name": "",
          "type": "uint256"
        }
      ],
      "payable": false,
      "stateMutability": "nonpayable",
      "type": "function"
    },
    {
      "constant": false,
      "inputs": [
        {
          "name": "_boardId",
          "type": "uint256"
        },
        {
          "name": "_jobId",
          "type": "uint256"
        }
      ],
      "name": "bindJobWithBoard",
      "outputs": [
        {
          "name": "",
          "type": "uint256"
        }
      ],
      "payable": false,
      "stateMutability": "nonpayable",
      "type": "function"
    },
    {
      "constant": false,
      "inputs": [
        {
          "name": "_boardId",
          "type": "uint256"
        },
        {
          "name": "_user",
          "type": "address"
        }
      ],
      "name": "bindUserWithBoard",
      "outputs": [
        {
          "name": "",
          "type": "uint256"
        }
      ],
      "payable": false,
      "stateMutability": "nonpayable",
      "type": "function"
    },
    {
      "constant": false,
      "inputs": [
        {
          "name": "_boardId",
          "type": "uint256"
        }
      ],
      "name": "closeBoard",
      "outputs": [
        {
          "name": "",
          "type": "uint256"
        }
      ],
      "payable": false,
      "stateMutability": "nonpayable",
      "type": "function"
    },
    {
      "constant": false,
      "inputs": [
        {
          "name": "_boardId",
          "type": "uint256"
        },
        {
          "name": "_name",
          "type": "bytes32"
        },
        {
          "name": "_boardDescription",
          "type": "bytes32"
        },
        {
          "name": "_creator",
          "type": "address"
        },
        {
          "name": "_tags",
          "type": "uint256"
        },
        {
          "name": "_tagsArea",
          "type": "uint256"
        },
        {
          "name": "_tagsCategory",
          "type": "uint256"
        },
        {
          "name": "_ipfsHash",
          "type": "bytes32"
        },
        {
          "name": "_boardStatus",
          "type": "bool"
        }
      ],
      "name": "emitBoardCreated",
      "outputs": [],
      "payable": false,
      "stateMutability": "nonpayable",
      "type": "function"
    },
    {
      "constant": false,
      "inputs": [
        {
          "name": "_boardId",
          "type": "uint256"
        },
        {
          "name": "_jobId",
          "type": "uint256"
        },
        {
          "name": "_status",
          "type": "bool"
        }
      ],
      "name": "emitJobBinded",
      "outputs": [],
      "payable": false,
      "stateMutability": "nonpayable",
      "type": "function"
    },
    {
      "constant": false,
      "inputs": [
        {
          "name": "_boardId",
          "type": "uint256"
        },
        {
          "name": "_user",
          "type": "address"
        },
        {
          "name": "_status",
          "type": "bool"
        }
      ],
      "name": "emitUserBinded",
      "outputs": [],
      "payable": false,
      "stateMutability": "nonpayable",
      "type": "function"
    },
    {
      "constant": false,
      "inputs": [
        {
          "name": "_boardId",
          "type": "uint256"
        },
        {
          "name": "_status",
          "type": "bool"
        }
      ],
      "name": "emitBoardClosed",
      "outputs": [],
      "payable": false,
      "stateMutability": "nonpayable",
      "type": "function"
    }
  ],
  "bytecode": "0x606060405234156200001057600080fd5b60405160608062001b70833981016040528080519190602001805191906020018051915081905083836200005560008383640100000000620016af6200034482021704565b505060038054600160a060020a031916600160a060020a0392909216919091179055620000b260047f626f61726473436f756e740000000000000000000000000000000000000000006401000000006200036a8102620016e21704565b620000ed60067f626f6172644465736372697074696f6e00000000000000000000000000000000640100000000620016f26200038a82021704565b6200012860057f626f61726443726561746f720000000000000000000000000000000000000000640100000000620016f26200038a82021704565b6200016360087f626f6172644e616d650000000000000000000000000000000000000000000000640100000000620016f26200038a82021704565b6200019e60097f626f617264546167734172656100000000000000000000000000000000000000640100000000620016f26200038a82021704565b620001d9600a7f626f6172645461677343617465676f7279000000000000000000000000000000640100000000620016f26200038a82021704565b62000214600b7f626f617264546167730000000000000000000000000000000000000000000000640100000000620016f26200038a82021704565b6200024f600d7f6a6f6242696e64696e6700000000000000000000000000000000000000000000640100000000620016f26200038a82021704565b6200028a600e7f6a6f6273426f6172640000000000000000000000000000000000000000000000640100000000620016f26200038a82021704565b620002c5600f7f7573657242696e64696e67000000000000000000000000000000000000000000640100000000620016f26200038a82021704565b62000300600c7f626f617264537461747573000000000000000000000000000000000000000000640100000000620016f26200038a82021704565b6200033b60077f626f617264497066734861736800000000000000000000000000000000000000640100000000620016f26200038a82021704565b505050620003c0565b8254600160a060020a031916600160a060020a0392909216919091178255600190910155565b815462000386908264010000000062001732620003a882021704565b9055565b620003a48282640100000000620016e26200036a82021704565b5050565b81151580620003b5575080155b15620003a457600080fd5b6117a080620003d06000396000f3006060604052600436106100f85763ffffffff60e060020a60003504166302927d2081146100fd57806317f5efd21461012e57806318caa85714610345578063210c1f29146103655780632637cd7d1461037b5780633e7d081a1461039a5780635e070cd1146103b55780636166a0b3146103ef57806366c31f12146104055780636aa084d71461042c5780638834277e14610456578063a0425f1a1461046c578063a2dcb5d414610491578063b1bf0510146104b3578063bde842ac146104c9578063c4e9311b146104e2578063e575df72146104fb578063e90459f81461051d578063f4d44b7214610533578063fff10aba14610546575b600080fd5b341561010857600080fd5b61011c600160a060020a0360043516610575565b60405190815260200160405180910390f35b341561013957600080fd5b610153600435602435600160a060020a0360443516610619565b604051808060200180602001806020018060200180602001806020018060200188810388528f818151815260200191508051906020019060200280838360005b838110156101ab578082015183820152602001610193565b5050505090500188810387528e818151815260200191508051906020019060200280838360005b838110156101ea5780820151838201526020016101d2565b5050505090500188810386528d818151815260200191508051906020019060200280838360005b83811015610229578082015183820152602001610211565b5050505090500188810385528c818151815260200191508051906020019060200280838360005b83811015610268578082015183820152602001610250565b5050505090500188810384528b818151815260200191508051906020019060200280838360005b838110156102a757808201518382015260200161028f565b5050505090500188810383528a818151815260200191508051906020019060200280838360005b838110156102e65780820151838201526020016102ce565b50505050905001888103825289818151815260200191508051906020019060200280838360005b8381101561032557808201518382015260200161030d565b505050509050019e50505050505050505050505050505060405180910390f35b341561035057600080fd5b61036360043560243560443515156108c8565b005b341561037057600080fd5b61011c60043561091b565b341561038657600080fd5b61011c600160a060020a03600435166109f1565b34156103a557600080fd5b6103636004356024351515610a9e565b34156103c057600080fd5b610363600435602435604435600160a060020a036064351660843560a43560c43560e435610104351515610ae9565b34156103fa57600080fd5b61011c600435610b83565b341561041057600080fd5b610363600435600160a060020a03602435166044351515610b9d565b341561043757600080fd5b610442600435610bfa565b604051901515815260200160405180910390f35b341561046157600080fd5b610363600435610c0e565b341561047757600080fd5b61011c60043560243560443560643560843560a435610c55565b341561049c57600080fd5b61011c600435600160a060020a0360243516610e1d565b34156104be57600080fd5b61011c600435610ea0565b34156104d457600080fd5b610442600435602435610eb4565b34156104ed57600080fd5b61011c600435602435610ed0565b341561050657600080fd5b610442600435600160a060020a0360243516610f53565b341561052857600080fd5b610363600435610f68565b341561053e57600080fd5b61011c610faf565b341561055157600080fd5b610559610fc7565b604051600160a060020a03909116815260200160405180910390f35b600061058d33600035600160e060020a031916610fd6565b15156105f0576000805160206117558339815191523033600035600160e060020a031916604051600160a060020a039384168152919092166020820152600160e060020a03199091166040808301919091526060909101905180910390a1610614565b600160a060020a038216151561060557600080fd5b61060e826110aa565b50600190505b919050565b61062161169d565b61062961169d565b61063161169d565b61063961169d565b61064161169d565b61064961169d565b61065161169d565b6000808a6040518059106106625750595b908082528060200260200182016040525098508a6040518059106106835750595b908082528060200260200182016040525097508a6002026040518059106106a75750595b908082528060200260200182016040525096508a6040518059106106c85750595b908082528060200260200182016040525095508a6040518059106106e95750595b908082528060200260200182016040525094508a60405180591061070a5750595b908082528060200260200182016040525093508a60405180591061072b5750595b90808252806020026020018201604052509250600091508b90505b8a8c018110156108b957600160a060020a038a16158061076b575061076b818b610f53565b156108b1578089838151811061077d57fe5b6020908102909101015261079a600060088363ffffffff6110db16565b8883815181106107a657fe5b602090810290910101526107c3600060068363ffffffff6110db16565b8783600202815181106107d257fe5b602090810290910101526107ef600060078363ffffffff6110db16565b87836002026001018151811061080157fe5b6020908102909101015261081e6000600b8363ffffffff6110db16565b86838151811061082a57fe5b60209081029091010152610847600060098363ffffffff6110db16565b85838151811061085357fe5b602090810290910101526108706000600a8363ffffffff6110db16565b84838151811061087c57fe5b6020908102909101015261088f81610bfa565b83838151811061089b57fe5b9115156020928302909101909101526001909101905b600101610746565b50509397509397509397909450565b826108d16110f0565b600160a060020a03167f0d7a6068901e5d084e217c5d1cb95a043d68ba086fb08b63cf78a444ad53c3c08484604051918252151560208201526040908101905180910390a3505050565b600061093333600035600160e060020a031916610fd6565b1515610996576000805160206117558339815191523033600035600160e060020a031916604051600160a060020a039384168152919092166020820152600160e060020a03199091166040808301919091526060909101905180910390a1610614565b8160006109ab81600c8463ffffffff6110f416565b15156109c8576109bc612afb611109565b90508060005260206000f35b6109dc6000600c868263ffffffff61117216565b6109e784600061118c565b5060019392505050565b6000610a0933600035600160e060020a031916610fd6565b1515610a6c576000805160206117558339815191523033600035600160e060020a031916604051600160a060020a039384168152919092166020820152600160e060020a03199091166040808301919091526060909101905180910390a1610614565b5060038054600160a060020a03831673ffffffffffffffffffffffffffffffffffffffff199091161790556001919050565b81610aa76110f0565b600160a060020a03167fd446dbede0f6a2859d1fee85f220959b0d3421ac2a84baf4f8ae9f3ad43369b683604051901515815260200160405180910390a35050565b88610af26110f0565b600160a060020a03167fc16ef7d9544f49c790bb7c3dbe5959524a6fefee99e934d9d5a123d7d50cebfa8a8a8a8a8a8a8a8a6040519788526020880196909652600160a060020a039094166040808801919091526060870193909352608086019190915260a085015260c084019190915290151560e0830152610100909101905180910390a3505050505050505050565b6000610b978160078463ffffffff6110db16565b92915050565b82610ba66110f0565b600160a060020a03167f59607a2b26de9cec195f2d07833fd103d142795d3d3b8eff92a531e1094e76a38484604051600160a060020a039092168252151560208201526040908101905180910390a3505050565b6000610b9781600c8463ffffffff6110f416565b610c166110f0565b600160a060020a03167f09e0713b45664e161c202b19bb4574ee83dfa056f9bfdee56847b3971d9682218260405190815260200160405180910390a250565b600080610c6e33600035600160e060020a031916610fd6565b1515610cd1576000805160206117558339815191523033600035600160e060020a031916604051600160a060020a039384168152919092166020820152600160e060020a03199091166040808301919091526060909101905180910390a1610e12565b84610cdb816111f9565b1580610ced5750610ceb81611210565b155b15610cf757610e10565b84610d01816111f9565b1580610d135750610d1181611210565b155b15610d1d57610e0e565b87801515610d2a57610e0c565b610d3c6000600463ffffffff61123616565b6001019350610d54600060048663ffffffff61129516565b610d6860006008868e63ffffffff61130e16565b610d7c60006005863363ffffffff61131a16565b610d9060006009868b63ffffffff61130e16565b610da46000600a868a63ffffffff61130e16565b610db86000600b868c63ffffffff61130e16565b610dcd6000600c86600163ffffffff61117216565b610de160006006868d63ffffffff61130e16565b610df560006007868963ffffffff61130e16565b610e07848c8c338d8d8d8d600161132f565b600194505b505b505b505b509695505050505050565b6000828282610e3581600f858563ffffffff6113e316565b151560011415610e4a576109bc612afa611109565b856000610e5f81600c8463ffffffff6110f416565b1515610e70576109bc612afb611109565b610e866000600f8a8a600163ffffffff61140616565b610e9288886001611424565b506001979650505050505050565b6000610b9781600e8463ffffffff6110db16565b6000610ec981600d858563ffffffff61148a16565b9392505050565b6000828282610ee781600e8463ffffffff6110db16565b15610ef7576109bc612af9611109565b856000610f0c81600c8463ffffffff6110f416565b1515610f1d576109bc612afb611109565b610f316000600e898b63ffffffff61130e16565b610f476000600d8a8a600163ffffffff61149b16565b610e92888860016114ab565b6000610ec981600f858563ffffffff6113e316565b610f706110f0565b600160a060020a03167fbb8f0c1d8804cd86e7873ec11cb00af945c8c0ebd061a68b28617034803464158260405190815260200160405180910390a250565b6000610fc281600463ffffffff61123616565b905090565b600254600160a060020a031690565b600030600160a060020a031683600160a060020a03161415610ffa57506001610b97565b600354600160a060020a0316151561101457506000610b97565b600354600160a060020a031663b700961384308560006040516020015260405160e060020a63ffffffff8616028152600160a060020a039384166004820152919092166024820152600160e060020a03199091166044820152606401602060405180830381600087803b151561108957600080fd5b6102c65a03f1151561109a57600080fd5b5050506040518051949350505050565b60028054600160a060020a03831673ffffffffffffffffffffffffffffffffffffffff199091161790556001919050565b60006110e8848484611509565b949350505050565b3390565b60006110e8611104858585611509565b6115a3565b6000611113610fc7565b600160a060020a0316638834277e8360405160e060020a63ffffffff84160281526004810191909152602401600060405180830381600087803b151561115857600080fd5b6102c65a03f1151561116957600080fd5b50929392505050565b611186848484611181856115a8565b6115c2565b50505050565b611194610fc7565b600160a060020a0316633e7d081a838360405160e060020a63ffffffff8516028152600481019290925215156024820152604401600060405180830381600087803b15156111e157600080fd5b6102c65a03f115156111f257600080fd5b5050505050565b60008115801590610b975750506000198101161590565b7faaaaaaaaaaaaaaaaaaaaaaaaaaaaaaaaaaaaaaaaaaaaaaaaaaaaaaaaaaaaaaaa161590565b815460018301548254600092600160a060020a0316916353aa3f5e91846040516020015260405160e060020a63ffffffff851602815260048101929092526024820152604401602060405180830381600087803b151561108957600080fd5b825460018401548354600160a060020a03909216916353e7168b91908460405160e060020a63ffffffff8616028152600481019390935260248301919091526044820152606401600060405180830381600087803b15156112f557600080fd5b6102c65a03f1151561130657600080fd5b505050505050565b611186848484846115c2565b611186848484600160a060020a0385166115c2565b611337610fc7565b600160a060020a0316635e070cd18a8a8a8a8a8a8a8a8a60405160e060020a63ffffffff8c16028152600481019990995260248901979097526044880195909552600160a060020a039093166064870152608486019190915260a485015260c484015260e4830152151561010482015261012401600060405180830381600087803b15156113c457600080fd5b6102c65a03f115156113d557600080fd5b505050505050505050505050565b60006113fd611104868686600160a060020a038716611654565b95945050505050565b6111f2858585600160a060020a03861661141f866115a8565b611679565b61142c610fc7565b600160a060020a03166366c31f1284848460405160e060020a63ffffffff86160281526004810193909352600160a060020a03909116602483015215156044820152606401600060405180830381600087803b15156112f557600080fd5b60006113fd61110486868686611654565b6111f28585858561141f866115a8565b6114b3610fc7565b600160a060020a03166318caa85784848460405160e060020a63ffffffff86160281526004810193909352602483019190915215156044820152606401600060405180830381600087803b15156112f557600080fd5b825460018401548354600092600160a060020a0316916337d9d7fc9185604051918252602082015260409081019051809103902060006040516020015260405160e060020a63ffffffff851602815260048101929092526024820152604401602060405180830381600087803b151561158157600080fd5b6102c65a03f1151561159257600080fd5b505050604051805195945050505050565b151590565b6000816115b65760006115b9565b60015b60ff1692915050565b835460018501548454600160a060020a039092169163a14ff85791908560405191825260208201526040908101905180910390208460405160e060020a63ffffffff8616028152600481019390935260248301919091526044820152606401600060405180830381600087803b151561163a57600080fd5b6102c65a03f1151561164b57600080fd5b50505050505050565b60006113fd858585856040519182526020820152604090810190518091039020611509565b6111f2858585856040519182526020820152604090810190518091039020846115c2565b60206040519081016040526000815290565b825473ffffffffffffffffffffffffffffffffffffffff1916600160a060020a0392909216919091178255600190910155565b81546116ee9082611732565b9055565b6116fc82826116e2565b5050565b6116fc82826116e2565b6116fc82826116e2565b6116fc82826116e2565b6116fc82826116e2565b6116fc82826116e2565b8115158061173e575080155b156116fc57600080fd5b81546116ee908261173256005133a133185f1023427a2e90f18506b27db994977ce0c0faafd514a7dd109ae0a165627a7a723058203582ce2a2c12ed66b491db17ee7033b3decbb302a214b90c663e3c3e4125295c0029",
  "source": "/**\n * Copyright 20172018, LaborX PTY\n * Licensed under the AGPL Version 3 license.\n */\n\npragma solidity ^0.4.18;\n\n\nimport './adapters/StorageAdapter.sol';\nimport './adapters/MultiEventsHistoryAdapter.sol';\nimport './adapters/Roles2LibraryAdapter.sol';\nimport './base/BitOps.sol';\n\n\ncontract BoardController is StorageAdapter, MultiEventsHistoryAdapter, Roles2LibraryAdapter, BitOps {\n\n    uint constant BOARD_CONTROLLER_SCOPE = 11000;\n    uint constant BOARD_CONTROLLER_JOB_IS_ALREADY_BINDED = BOARD_CONTROLLER_SCOPE + 1;\n    uint constant BOARD_CONTROLLER_USER_IS_ALREADY_BINDED = BOARD_CONTROLLER_SCOPE + 2;\n    uint constant BOARD_CONTROLLER_BOARD_IS_CLOSED = BOARD_CONTROLLER_SCOPE + 3;\n\n    /* struct Board {\n        uint boardId;\n        bytes32 name;\n        bytes32 boardDescription;\n        address creator;\n        uint boardTags;\n        uint boardTagsArea;\n        uint boardTagsCategory;\n        bool status;\n    } */\n\n    event BoardCreated(\n        address indexed self,\n        uint indexed boardId,\n        bytes32 name,\n        bytes32 boardDescription,\n        address creator,\n        uint boardTags,\n        uint boardTagsArea,\n        uint boardTagsCategory,\n        bytes32 boardIpfsHash,\n        bool status\n    );\n    event JobBinded(address indexed self, uint indexed boardId, uint jobId, bool status);\n    event UserBinded(address indexed self, uint indexed boardId, address user, bool status);\n    event BoardClosed(address indexed self, uint indexed boardId, bool status);\n\n    StorageInterface.UInt boardsCount;\n\n    StorageInterface.UIntAddressMapping boardCreator;\n    StorageInterface.UIntBytes32Mapping boardDescription;\n    StorageInterface.UIntBytes32Mapping boardIpfsHash;\n    StorageInterface.UIntBytes32Mapping boardName;\n\n    StorageInterface.UIntUIntMapping boardTagsArea;\n    StorageInterface.UIntUIntMapping boardTagsCategory;\n    StorageInterface.UIntUIntMapping boardTags;\n\n    StorageInterface.UIntBoolMapping boardStatus;\n    StorageInterface.UIntUIntBoolMapping jobBinding;\n    StorageInterface.UIntUIntMapping jobsBoard;\n    StorageInterface.UintAddressBoolMapping userBinding;\n\n    modifier notBindedJobYet(uint _boardId, uint _jobId) {\n        if (store.get(jobsBoard, _jobId) != 0) {\n            uint _resultCode = _emitErrorCode(BOARD_CONTROLLER_JOB_IS_ALREADY_BINDED);\n            assembly {\n                mstore(0, _resultCode)\n                return(0, 32)\n            }\n        }\n        _;\n    }\n\n    modifier notBindedUserYet(uint _boardId, address _user) {\n        if (store.get(userBinding, _boardId, _user) == true) {\n            uint _resultCode = _emitErrorCode(BOARD_CONTROLLER_USER_IS_ALREADY_BINDED);\n            assembly {\n                mstore(0, _resultCode)\n                return(0, 32)\n            }\n        }\n        _;\n    }\n\n    modifier notClosed(uint _boardId) {\n        if (store.get(boardStatus, _boardId) == false) {\n            uint _resultCode = _emitErrorCode(BOARD_CONTROLLER_BOARD_IS_CLOSED);\n            assembly {\n                mstore(0, _resultCode)\n                return(0, 32)\n            }\n        }\n        _;\n    }\n\n    function BoardController(\n        Storage _store,\n        bytes32 _crate,\n        address _roles2Library\n    )\n    StorageAdapter(_store, _crate)\n    Roles2LibraryAdapter(_roles2Library)\n    public\n    {\n        boardsCount.init('boardsCount');\n\n        boardDescription.init('boardDescription');\n        boardCreator.init('boardCreator');\n        boardName.init('boardName');\n\n        boardTagsArea.init('boardTagsArea');\n        boardTagsCategory.init('boardTagsCategory');\n        boardTags.init('boardTags');\n\n        jobBinding.init('jobBinding');\n        jobsBoard.init('jobsBoard');\n        userBinding.init('userBinding');\n        boardStatus.init('boardStatus');\n        boardIpfsHash.init(\"boardIpfsHash\");\n    }\n\n    function setupEventsHistory(address _eventsHistory) auth external returns (uint) {\n        require(_eventsHistory != 0x0);\n\n        _setEventsHistory(_eventsHistory);\n        return OK;\n    }\n\n    function getBoardsCount() public view returns (uint) {\n        return store.get(boardsCount);\n    }\n\n    function getBoardStatus(uint _boardId) public view returns (bool) {\n        return store.get(boardStatus, _boardId);\n    }\n\n    function getJobStatus(uint _boardId, uint _jobId) public view returns (bool) {\n        return store.get(jobBinding, _boardId, _jobId);\n    }\n\n    function getUserStatus(uint _boardId, address _user) public view returns (bool) {\n        return store.get(userBinding, _boardId, _user);\n    }\n\n    function getJobsBoard(uint _jobId) public view returns (uint) {\n        return store.get(jobsBoard, _jobId);\n    }\n\n    function getJobsIpfsHash(uint _jobId) public view returns (bytes32) {\n        return store.get(boardIpfsHash, _jobId);\n    }\n\n    /* function getBoards(uint _fromId, uint _maxLen, address _bindedUser)\n    public\n    view\n    returns (Board[] boards)\n    {\n        boards = new Board[](_maxLen);\n        for (uint _idx = _fromId; _idx < _fromId + _maxLen; ++_idx) {\n            if (_bindedUser == address(0) || getUserStatus(_idx, _bindedUser)) {\n                uint boardId = _idx;\n                boards[_idx] = Board(boardId,\n                                     store.get(boardName, boardId),\n                                     store.get(boardDescription, boardId),\n                                     store.get(boardCreator, boardId),\n                                     store.get(boardTags, boardId),\n                                     store.get(boardTagsArea, boardId),\n                                     store.get(boardTagsCategory, boardId),\n                                     getBoardStatus(boardId));\n            }\n        }\n    } */\n\n    function getBoards(uint _fromId, uint _maxLen, address _bindedUser)\n    public\n    view\n    returns (uint[] ids,\n        bytes32[] names,\n        bytes32[] descriptions,\n        uint[] tags,\n        uint[] tagsAreas,\n        uint[] tagsCategories,\n        bool[] status)\n    {\n        ids = new uint[](_maxLen);\n        names = new bytes32[](_maxLen);\n        descriptions = new bytes32[](_maxLen * 2);\n        tags = new uint[](_maxLen);\n        tagsAreas = new uint[](_maxLen);\n        tagsCategories = new uint[](_maxLen);\n        status = new bool[](_maxLen);\n\n        uint idx = 0;\n        for (uint _id = _fromId; _id < _fromId + _maxLen; ++_id) {\n            if (_bindedUser == address(0) || getUserStatus(_id, _bindedUser)) {\n                ids[idx] = _id;\n                names[idx] = store.get(boardName, _id);\n                descriptions[idx * 2] = store.get(boardDescription, _id);\n                descriptions[idx * 2 + 1] = store.get(boardIpfsHash, _id);\n                tags[idx] = store.get(boardTags, _id);\n                tagsAreas[idx] = store.get(boardTagsArea, _id);\n                tagsCategories[idx] = store.get(boardTagsCategory, _id);\n                status[idx] = getBoardStatus(_id);\n                idx++;\n            }\n        }\n    }\n\n    function createBoard(\n        bytes32 _name,\n        bytes32 _boardDescription,\n        uint _tags,\n        uint _tagsArea,\n        uint _tagsCategory,\n        bytes32 _ipfsHash\n    )\n    auth\n    singleOddFlag(_tagsArea)\n    singleOddFlag(_tagsCategory)\n    hasFlags(_tags)\n    external\n    returns (uint)\n    {\n        uint boardId = store.get(boardsCount) + 1;\n        store.set(boardsCount, boardId);\n        store.set(boardName, boardId, _name);\n        store.set(boardCreator, boardId, msg.sender);\n        store.set(boardTagsArea, boardId, _tagsArea);\n        store.set(boardTagsCategory, boardId, _tagsCategory);\n        store.set(boardTags, boardId, _tags);\n        store.set(boardStatus, boardId, true);\n        store.set(boardDescription, boardId, _boardDescription);\n        store.set(boardIpfsHash, boardId, _ipfsHash);\n        _emitBoardCreated(boardId, _name, _boardDescription, msg.sender, _tags, _tagsArea, _tagsCategory, _ipfsHash, true);\n        return OK;\n    }\n\n    function bindJobWithBoard(\n        uint _boardId,\n        uint _jobId\n    )\n    notBindedJobYet(_boardId, _jobId)\n    notClosed(_boardId)\n    public\n    returns (uint)\n    {\n        store.set(jobsBoard, _jobId, _boardId);\n        store.set(jobBinding, _boardId, _jobId, true);\n        _emitJobBinded(_boardId, _jobId, true);\n        return OK;\n    }\n\n    function bindUserWithBoard(\n        uint _boardId,\n        address _user\n    )\n    notBindedUserYet(_boardId, _user)\n    notClosed(_boardId)\n    public\n    returns (uint)\n    {\n        store.set(userBinding, _boardId, _user, true);\n        _emitUserBinded( _boardId, _user, true);\n        return OK;\n    }\n\n    function closeBoard(\n        uint _boardId\n    )\n    auth\n    notClosed(_boardId)\n    external\n    returns (uint)\n    {\n        store.set(boardStatus, _boardId, false);\n        _emitBoardClosed( _boardId, false);\n        return OK;\n    }\n\n    function _emitBoardCreated(\n        uint _boardId,\n        bytes32 _name,\n        bytes32 _boardDescription,\n        address _creator,\n        uint _tags,\n        uint _tagsArea,\n        uint _tagsCategory,\n        bytes32 _ipfsHash,\n        bool _boardStatus\n    )\n    internal\n    {\n        BoardController(getEventsHistory()).emitBoardCreated(\n            _boardId,\n            _name,\n            _boardDescription,\n            _creator,\n            _tags,\n            _tagsArea,\n            _tagsCategory,\n            _ipfsHash,\n            _boardStatus\n        );\n    }\n\n    function emitBoardCreated(\n        uint _boardId,\n        bytes32 _name,\n        bytes32 _boardDescription,\n        address _creator,\n        uint _tags,\n        uint _tagsArea,\n        uint _tagsCategory,\n        bytes32 _ipfsHash,\n        bool _boardStatus\n    )\n    public\n    {\n        BoardCreated(\n            _self(),\n            _boardId,\n            _name,\n            _boardDescription,\n            _creator,\n            _tags,\n            _tagsArea,\n            _tagsCategory,\n            _ipfsHash,\n            _boardStatus\n        );\n    }\n\n    function emitJobBinded(uint _boardId, uint _jobId, bool _status) public {\n        JobBinded(_self(), _boardId, _jobId, _status);\n    }\n\n    function emitUserBinded(uint _boardId, address _user, bool _status) public {\n        UserBinded(_self(), _boardId, _user, _status);\n    }\n\n    function emitBoardClosed(uint _boardId, bool _status) public {\n        BoardClosed(_self(), _boardId, _status);\n    }\n\n    /* INTERNAL */\n\n    function _emitJobBinded(uint _boardId, uint _jobId, bool _status) internal {\n        BoardController(getEventsHistory()).emitJobBinded(_boardId, _jobId, _status);\n    }\n\n    function _emitUserBinded(uint _boardId, address _user, bool _status) internal {\n        BoardController(getEventsHistory()).emitUserBinded(_boardId, _user, _status);\n    }\n\n    function _emitBoardClosed(uint _boardId, bool _status) internal {\n        BoardController(getEventsHistory()).emitBoardClosed(_boardId, _status);\n    }\n}\n",
  "sourcePath": "/Users/ahiatsevich/Development/chronobank/LX-SC/contracts/BoardController.sol",
  "compiler": {
    "name": "solc",
    "version": "0.4.19+commit.c4cbbb05.Emscripten.clang"
  },
  "schemaVersion": "2.0.0",
  "updatedAt": "2018-05-21T17:51:35.370Z"
}