{
  "contractName": "BoardController",
  "abi": [
    {
      "constant": false,
      "inputs": [
        {
          "name": "_roles2Library",
          "type": "address"
        }
      ],
      "name": "setRoles2Library",
      "outputs": [
        {
          "name": "",
          "type": "uint256"
        }
      ],
      "payable": false,
      "stateMutability": "nonpayable",
      "type": "function"
    },
    {
      "constant": false,
      "inputs": [
        {
          "name": "_erc20Library",
          "type": "address"
        }
      ],
      "name": "setERC20Library",
      "outputs": [
        {
          "name": "",
          "type": "uint256"
        }
      ],
      "payable": false,
      "stateMutability": "nonpayable",
      "type": "function"
    },
    {
      "constant": false,
      "inputs": [
        {
          "name": "_errorCode",
          "type": "uint256"
        }
      ],
      "name": "emitErrorCode",
      "outputs": [],
      "payable": false,
      "stateMutability": "nonpayable",
      "type": "function"
    },
    {
      "constant": false,
      "inputs": [
        {
          "name": "_msg",
          "type": "bytes32"
        }
      ],
      "name": "emitError",
      "outputs": [],
      "payable": false,
      "stateMutability": "nonpayable",
      "type": "function"
    },
    {
      "constant": true,
      "inputs": [],
      "name": "getEventsHistory",
      "outputs": [
        {
          "name": "",
          "type": "address"
        }
      ],
      "payable": false,
      "stateMutability": "view",
      "type": "function"
    },
    {
      "inputs": [
        {
          "name": "_store",
          "type": "address"
        },
        {
          "name": "_crate",
          "type": "bytes32"
        },
        {
          "name": "_roles2Library",
          "type": "address"
        },
        {
          "name": "_erc20Library",
          "type": "address"
        }
      ],
      "payable": false,
      "stateMutability": "nonpayable",
      "type": "constructor"
    },
    {
      "anonymous": false,
      "inputs": [
        {
          "indexed": true,
          "name": "self",
          "type": "address"
        },
        {
          "indexed": true,
          "name": "boardId",
          "type": "uint256"
        },
        {
          "indexed": false,
          "name": "name",
          "type": "bytes32"
        },
        {
          "indexed": false,
          "name": "boardDescription",
          "type": "bytes32"
        },
        {
          "indexed": false,
          "name": "creator",
          "type": "address"
        },
        {
          "indexed": false,
          "name": "boardTags",
          "type": "uint256"
        },
        {
          "indexed": false,
          "name": "boardTagsArea",
          "type": "uint256"
        },
        {
          "indexed": false,
          "name": "boardTagsCategory",
          "type": "uint256"
        },
        {
          "indexed": false,
          "name": "status",
          "type": "bool"
        }
      ],
      "name": "BoardCreated",
      "type": "event"
    },
    {
      "anonymous": false,
      "inputs": [
        {
          "indexed": true,
          "name": "self",
          "type": "address"
        },
        {
          "indexed": true,
          "name": "boardId",
          "type": "uint256"
        },
        {
          "indexed": false,
          "name": "jobId",
          "type": "uint256"
        },
        {
          "indexed": false,
          "name": "status",
          "type": "bool"
        }
      ],
      "name": "JobBinded",
      "type": "event"
    },
    {
      "anonymous": false,
      "inputs": [
        {
          "indexed": true,
          "name": "self",
          "type": "address"
        },
        {
          "indexed": true,
          "name": "boardId",
          "type": "uint256"
        },
        {
          "indexed": false,
          "name": "user",
          "type": "address"
        },
        {
          "indexed": false,
          "name": "status",
          "type": "bool"
        }
      ],
      "name": "UserBinded",
      "type": "event"
    },
    {
      "anonymous": false,
      "inputs": [
        {
          "indexed": true,
          "name": "self",
          "type": "address"
        },
        {
          "indexed": true,
          "name": "boardId",
          "type": "uint256"
        },
        {
          "indexed": false,
          "name": "status",
          "type": "bool"
        }
      ],
      "name": "BoardClosed",
      "type": "event"
    },
    {
      "anonymous": false,
      "inputs": [
        {
          "indexed": false,
          "name": "code",
          "type": "address"
        },
        {
          "indexed": false,
          "name": "sender",
          "type": "address"
        },
        {
          "indexed": false,
          "name": "sig",
          "type": "bytes4"
        }
      ],
      "name": "AuthFailedError",
      "type": "event"
    },
    {
      "anonymous": false,
      "inputs": [
        {
          "indexed": true,
          "name": "self",
          "type": "address"
        },
        {
          "indexed": false,
          "name": "msg",
          "type": "bytes32"
        }
      ],
      "name": "Error",
      "type": "event"
    },
    {
      "anonymous": false,
      "inputs": [
        {
          "indexed": true,
          "name": "self",
          "type": "address"
        },
        {
          "indexed": false,
          "name": "errorCode",
          "type": "uint256"
        }
      ],
      "name": "ErrorCode",
      "type": "event"
    },
    {
      "constant": false,
      "inputs": [
        {
          "name": "_eventsHistory",
          "type": "address"
        }
      ],
      "name": "setupEventsHistory",
      "outputs": [
        {
          "name": "",
          "type": "uint256"
        }
      ],
      "payable": false,
      "stateMutability": "nonpayable",
      "type": "function"
    },
    {
      "constant": true,
      "inputs": [],
      "name": "getBoardsCount",
      "outputs": [
        {
          "name": "",
          "type": "uint256"
        }
      ],
      "payable": false,
      "stateMutability": "view",
      "type": "function"
    },
    {
      "constant": true,
      "inputs": [
        {
          "name": "_boardId",
          "type": "uint256"
        }
      ],
      "name": "getBoardStatus",
      "outputs": [
        {
          "name": "",
          "type": "bool"
        }
      ],
      "payable": false,
      "stateMutability": "view",
      "type": "function"
    },
    {
      "constant": true,
      "inputs": [
        {
          "name": "_boardId",
          "type": "uint256"
        },
        {
          "name": "_jobId",
          "type": "uint256"
        }
      ],
      "name": "getJobStatus",
      "outputs": [
        {
          "name": "",
          "type": "bool"
        }
      ],
      "payable": false,
      "stateMutability": "view",
      "type": "function"
    },
    {
      "constant": true,
      "inputs": [
        {
          "name": "_boardId",
          "type": "uint256"
        },
        {
          "name": "_user",
          "type": "address"
        }
      ],
      "name": "getUserStatus",
      "outputs": [
        {
          "name": "",
          "type": "bool"
        }
      ],
      "payable": false,
      "stateMutability": "view",
      "type": "function"
    },
    {
      "constant": true,
      "inputs": [
        {
          "name": "_jobId",
          "type": "uint256"
        }
      ],
      "name": "getJobsBoard",
      "outputs": [
        {
          "name": "",
          "type": "uint256"
        }
      ],
      "payable": false,
      "stateMutability": "view",
      "type": "function"
    },
    {
      "constant": true,
      "inputs": [
        {
          "name": "_fromId",
          "type": "uint256"
        },
        {
          "name": "_maxLen",
          "type": "uint256"
        },
        {
          "name": "_bindedUser",
          "type": "address"
        }
      ],
      "name": "getBoards",
      "outputs": [
        {
          "name": "ids",
          "type": "uint256[]"
        },
        {
          "name": "names",
          "type": "bytes32[]"
        },
        {
          "name": "descriptions",
          "type": "bytes32[]"
        },
        {
          "name": "tags",
          "type": "uint256[]"
        },
        {
          "name": "tagsAreas",
          "type": "uint256[]"
        },
        {
          "name": "tagsCategories",
          "type": "uint256[]"
        },
        {
          "name": "status",
          "type": "bool[]"
        }
      ],
      "payable": false,
      "stateMutability": "view",
      "type": "function"
    },
    {
      "constant": false,
      "inputs": [
        {
          "name": "_name",
          "type": "bytes32"
        },
        {
          "name": "_boardDescription",
          "type": "bytes32"
        },
        {
          "name": "_tags",
          "type": "uint256"
        },
        {
          "name": "_tagsArea",
          "type": "uint256"
        },
        {
          "name": "_tagsCategory",
          "type": "uint256"
        }
      ],
      "name": "createBoard",
      "outputs": [
        {
          "name": "",
          "type": "uint256"
        }
      ],
      "payable": false,
      "stateMutability": "nonpayable",
      "type": "function"
    },
    {
      "constant": false,
      "inputs": [
        {
          "name": "_boardId",
          "type": "uint256"
        },
        {
          "name": "_jobId",
          "type": "uint256"
        }
      ],
      "name": "bindJobWithBoard",
      "outputs": [
        {
          "name": "",
          "type": "uint256"
        }
      ],
      "payable": false,
      "stateMutability": "nonpayable",
      "type": "function"
    },
    {
      "constant": false,
      "inputs": [
        {
          "name": "_boardId",
          "type": "uint256"
        },
        {
          "name": "_user",
          "type": "address"
        }
      ],
      "name": "bindUserWithBoard",
      "outputs": [
        {
          "name": "",
          "type": "uint256"
        }
      ],
      "payable": false,
      "stateMutability": "nonpayable",
      "type": "function"
    },
    {
      "constant": false,
      "inputs": [
        {
          "name": "_boardId",
          "type": "uint256"
        }
      ],
      "name": "closeBoard",
      "outputs": [
        {
          "name": "",
          "type": "uint256"
        }
      ],
      "payable": false,
      "stateMutability": "nonpayable",
      "type": "function"
    },
    {
      "constant": false,
      "inputs": [
        {
          "name": "_boardId",
          "type": "uint256"
        },
        {
          "name": "_name",
          "type": "bytes32"
        },
        {
          "name": "_boardDescription",
          "type": "bytes32"
        },
        {
          "name": "_creator",
          "type": "address"
        },
        {
          "name": "_tags",
          "type": "uint256"
        },
        {
          "name": "_tagsArea",
          "type": "uint256"
        },
        {
          "name": "_tagsCategory",
          "type": "uint256"
        },
        {
          "name": "_boardStatus",
          "type": "bool"
        }
      ],
      "name": "emitBoardCreated",
      "outputs": [],
      "payable": false,
      "stateMutability": "nonpayable",
      "type": "function"
    },
    {
      "constant": false,
      "inputs": [
        {
          "name": "_boardId",
          "type": "uint256"
        },
        {
          "name": "_jobId",
          "type": "uint256"
        },
        {
          "name": "_status",
          "type": "bool"
        }
      ],
      "name": "emitJobBinded",
      "outputs": [],
      "payable": false,
      "stateMutability": "nonpayable",
      "type": "function"
    },
    {
      "constant": false,
      "inputs": [
        {
          "name": "_boardId",
          "type": "uint256"
        },
        {
          "name": "_user",
          "type": "address"
        },
        {
          "name": "_status",
          "type": "bool"
        }
      ],
      "name": "emitUserBinded",
      "outputs": [],
      "payable": false,
      "stateMutability": "nonpayable",
      "type": "function"
    },
    {
      "constant": false,
      "inputs": [
        {
          "name": "_boardId",
          "type": "uint256"
        },
        {
          "name": "_status",
          "type": "bool"
        }
      ],
      "name": "emitBoardClosed",
      "outputs": [],
      "payable": false,
      "stateMutability": "nonpayable",
      "type": "function"
    }
  ],
  "bytecode": "0x606060405234156200001057600080fd5b60405160808062001b89833981016040528080519190602001805191906020018051919060200180519150829050818186866200005e60008383640100000000620016e96200032382021704565b505060038054600160a060020a03928316600160a060020a0319918216179091556004805493909216921691909117905550620000cb60057f626f61726473436f756e740000000000000000000000000000000000000000006401000000006200171c6200034982021704565b6200010660077f626f6172644465736372697074696f6e000000000000000000000000000000006401000000006200172c6200036982021704565b6200014160067f626f61726443726561746f7200000000000000000000000000000000000000006401000000006200172c6200036982021704565b6200017c60087f626f6172644e616d6500000000000000000000000000000000000000000000006401000000006200172c6200036982021704565b620001b760097f626f6172645461677341726561000000000000000000000000000000000000006401000000006200172c6200036982021704565b620001f2600a7f626f6172645461677343617465676f72790000000000000000000000000000006401000000006200172c6200036982021704565b6200022d600b7f626f6172645461677300000000000000000000000000000000000000000000006401000000006200172c6200036982021704565b62000268600d7f6a6f6242696e64696e67000000000000000000000000000000000000000000006401000000006200172c6200036982021704565b620002a3600e7f6a6f6273426f61726400000000000000000000000000000000000000000000006401000000006200172c6200036982021704565b620002de600f7f7573657242696e64696e670000000000000000000000000000000000000000006401000000006200172c6200036982021704565b62000319600c7f626f6172645374617475730000000000000000000000000000000000000000006401000000006200172c6200036982021704565b505050506200039f565b8254600160a060020a031916600160a060020a0392909216919091178255600190910155565b81546200036590826401000000006200176c6200038782021704565b9055565b6200038382826401000000006200171c6200034982021704565b5050565b8115158062000394575080155b156200038357600080fd5b6117da80620003af6000396000f3006060604052600436106100f85763ffffffff60e060020a60003504166302927d2081146100fd57806317f5efd21461012e57806318caa85714610345578063210c1f29146103655780632637cd7d1461037b5780633e7d081a1461039a57806345584c90146103b557806366c31f12146103d45780636aa084d7146103fb5780638834277e14610425578063a2dcb5d41461043b578063b1bf05101461045d578063bde842ac14610473578063c4e9311b1461048c578063c6969604146104a5578063d2afeeeb146104db578063e575df72146104fd578063e90459f81461051f578063f4d44b7214610535578063fff10aba14610548575b600080fd5b341561010857600080fd5b61011c600160a060020a0360043516610577565b60405190815260200160405180910390f35b341561013957600080fd5b610153600435602435600160a060020a036044351661061b565b604051808060200180602001806020018060200180602001806020018060200188810388528f818151815260200191508051906020019060200280838360005b838110156101ab578082015183820152602001610193565b5050505090500188810387528e818151815260200191508051906020019060200280838360005b838110156101ea5780820151838201526020016101d2565b5050505090500188810386528d818151815260200191508051906020019060200280838360005b83811015610229578082015183820152602001610211565b5050505090500188810385528c818151815260200191508051906020019060200280838360005b83811015610268578082015183820152602001610250565b5050505090500188810384528b818151815260200191508051906020019060200280838360005b838110156102a757808201518382015260200161028f565b5050505090500188810383528a818151815260200191508051906020019060200280838360005b838110156102e65780820151838201526020016102ce565b50505050905001888103825289818151815260200191508051906020019060200280838360005b8381101561032557808201518382015260200161030d565b505050509050019e50505050505050505050505050505060405180910390f35b341561035057600080fd5b6103636004356024356044351515610895565b005b341561037057600080fd5b61011c6004356108e8565b341561038657600080fd5b61011c600160a060020a03600435166109be565b34156103a557600080fd5b6103636004356024351515610a6b565b34156103c057600080fd5b61011c600160a060020a0360043516610ab6565b34156103df57600080fd5b610363600435600160a060020a03602435166044351515610b63565b341561040657600080fd5b610411600435610bc0565b604051901515815260200160405180910390f35b341561043057600080fd5b610363600435610bda565b341561044657600080fd5b61011c600435600160a060020a0360243516610c21565b341561046857600080fd5b61011c600435610ca4565b341561047e57600080fd5b610411600435602435610cb8565b341561049757600080fd5b61011c600435602435610cd4565b34156104b057600080fd5b610363600435602435604435600160a060020a036064351660843560a43560c43560e4351515610d57565b34156104e657600080fd5b61011c600435602435604435606435608435610de6565b341561050857600080fd5b610411600435600160a060020a0360243516610f98565b341561052a57600080fd5b610363600435610fad565b341561054057600080fd5b61011c610ff4565b341561055357600080fd5b61055b61100c565b604051600160a060020a03909116815260200160405180910390f35b600061058f33600035600160e060020a03191661101b565b15156105f25760008051602061178f8339815191523033600035600160e060020a031916604051600160a060020a039384168152919092166020820152600160e060020a03199091166040808301919091526060909101905180910390a1610616565b600160a060020a038216151561060757600080fd5b610610826110ef565b50600190505b919050565b6106236116d7565b61062b6116d7565b6106336116d7565b61063b6116d7565b6106436116d7565b61064b6116d7565b6106536116d7565b6000808a6040518059106106645750595b908082528060200260200182016040525098508a6040518059106106855750595b908082528060200260200182016040525097508a6040518059106106a65750595b908082528060200260200182016040525096508a6040518059106106c75750595b908082528060200260200182016040525095508a6040518059106106e85750595b908082528060200260200182016040525094508a6040518059106107095750595b908082528060200260200182016040525093508a60405180591061072a5750595b90808252806020026020018201604052509250600091508b90505b8a8c0181101561088657600160a060020a038a16158061076a575061076a818b610f98565b1561087e578089838151811061077c57fe5b60209081029091010152610799600060088363ffffffff61112016565b8883815181106107a557fe5b602090810290910101526107c2600060078363ffffffff61112016565b8783815181106107ce57fe5b602090810290910101526107eb6000600b8363ffffffff61112016565b8683815181106107f757fe5b60209081029091010152610814600060098363ffffffff61112016565b85838151811061082057fe5b6020908102909101015261083d6000600a8363ffffffff61112016565b84838151811061084957fe5b6020908102909101015261085c81610bc0565b83838151811061086857fe5b9115156020928302909101909101526001909101905b600101610745565b50509397509397509397909450565b8261089e611135565b600160a060020a03167f0d7a6068901e5d084e217c5d1cb95a043d68ba086fb08b63cf78a444ad53c3c08484604051918252151560208201526040908101905180910390a3505050565b600061090033600035600160e060020a03191661101b565b15156109635760008051602061178f8339815191523033600035600160e060020a031916604051600160a060020a039384168152919092166020820152600160e060020a03199091166040808301919091526060909101905180910390a1610616565b81600061097881600c8463ffffffff61113916565b151561099557610989612afb61114e565b90508060005260206000f35b6109a96000600c868263ffffffff6111b716565b6109b48460006111d1565b5060019392505050565b60006109d633600035600160e060020a03191661101b565b1515610a395760008051602061178f8339815191523033600035600160e060020a031916604051600160a060020a039384168152919092166020820152600160e060020a03199091166040808301919091526060909101905180910390a1610616565b5060038054600160a060020a03831673ffffffffffffffffffffffffffffffffffffffff199091161790556001919050565b81610a74611135565b600160a060020a03167fd446dbede0f6a2859d1fee85f220959b0d3421ac2a84baf4f8ae9f3ad43369b683604051901515815260200160405180910390a35050565b6000610ace33600035600160e060020a03191661101b565b1515610b315760008051602061178f8339815191523033600035600160e060020a031916604051600160a060020a039384168152919092166020820152600160e060020a03199091166040808301919091526060909101905180910390a1610616565b5060048054600160a060020a03831673ffffffffffffffffffffffffffffffffffffffff199091161790556001919050565b82610b6c611135565b600160a060020a03167f59607a2b26de9cec195f2d07833fd103d142795d3d3b8eff92a531e1094e76a38484604051600160a060020a039092168252151560208201526040908101905180910390a3505050565b6000610bd481600c8463ffffffff61113916565b92915050565b610be2611135565b600160a060020a03167f09e0713b45664e161c202b19bb4574ee83dfa056f9bfdee56847b3971d9682218260405190815260200160405180910390a250565b6000828282610c3981600f858563ffffffff61123e16565b151560011415610c4e57610989612afa61114e565b856000610c6381600c8463ffffffff61113916565b1515610c7457610989612afb61114e565b610c8a6000600f8a8a600163ffffffff61126116565b610c968888600161127f565b506001979650505050505050565b6000610bd481600e8463ffffffff61112016565b6000610ccd81600d858563ffffffff6112fe16565b9392505050565b6000828282610ceb81600e8463ffffffff61112016565b15610cfb57610989612af961114e565b856000610d1081600c8463ffffffff61113916565b1515610d2157610989612afb61114e565b610d356000600e898b63ffffffff61130f16565b610d4b6000600d8a8a600163ffffffff61131b16565b610c968888600161132b565b87610d60611135565b600160a060020a03167ff1ceee94b1a7729ec826309a33db35e4f2f292c268f9116b9c282cd57e3a4f0a898989898989896040519687526020870195909552600160a060020a039093166040808701919091526060860192909252608085015260a084019190915290151560c083015260e0909101905180910390a35050505050505050565b600080610dff33600035600160e060020a03191661101b565b1515610e625760008051602061178f8339815191523033600035600160e060020a031916604051600160a060020a039384168152919092166020820152600160e060020a03199091166040808301919091526060909101905180910390a1610f8e565b83610e6c81611389565b1580610e7e5750610e7c816113a0565b155b15610e8857610f8c565b83610e9281611389565b1580610ea45750610ea2816113a0565b155b15610eae57610f8a565b86801515610ebb57610f88565b610ecd6000600563ffffffff6113c616565b6001019350610ee5600060058663ffffffff61142516565b610ef960006008868d63ffffffff61130f16565b610f0d60006006863363ffffffff61148516565b610f2160006009868a63ffffffff61130f16565b610f356000600a868963ffffffff61130f16565b610f496000600b868b63ffffffff61130f16565b610f5e6000600c86600163ffffffff6111b716565b610f7260006007868c63ffffffff61130f16565b610f83848b8b338c8c8c600161149a565b600194505b505b505b505b5095945050505050565b6000610ccd81600f858563ffffffff61123e16565b610fb5611135565b600160a060020a03167fbb8f0c1d8804cd86e7873ec11cb00af945c8c0ebd061a68b28617034803464158260405190815260200160405180910390a250565b600061100781600563ffffffff6113c616565b905090565b600254600160a060020a031690565b600030600160a060020a031683600160a060020a0316141561103f57506001610bd4565b600354600160a060020a0316151561105957506000610bd4565b600354600160a060020a031663b700961384308560006040516020015260405160e060020a63ffffffff8616028152600160a060020a039384166004820152919092166024820152600160e060020a03199091166044820152606401602060405180830381600087803b15156110ce57600080fd5b6102c65a03f115156110df57600080fd5b5050506040518051949350505050565b60028054600160a060020a03831673ffffffffffffffffffffffffffffffffffffffff199091161790556001919050565b600061112d848484611543565b949350505050565b3390565b600061112d611149858585611543565b6115dd565b600061115861100c565b600160a060020a0316638834277e8360405160e060020a63ffffffff84160281526004810191909152602401600060405180830381600087803b151561119d57600080fd5b6102c65a03f115156111ae57600080fd5b50929392505050565b6111cb8484846111c6856115e2565b6115fc565b50505050565b6111d961100c565b600160a060020a0316633e7d081a838360405160e060020a63ffffffff8516028152600481019290925215156024820152604401600060405180830381600087803b151561122657600080fd5b6102c65a03f1151561123757600080fd5b5050505050565b6000611258611149868686600160a060020a03871661168e565b95945050505050565b611237858585600160a060020a03861661127a866115e2565b6116b3565b61128761100c565b600160a060020a03166366c31f1284848460405160e060020a63ffffffff86160281526004810193909352600160a060020a03909116602483015215156044820152606401600060405180830381600087803b15156112e557600080fd5b6102c65a03f115156112f657600080fd5b505050505050565b60006112586111498686868661168e565b6111cb848484846115fc565b6112378585858561127a866115e2565b61133361100c565b600160a060020a03166318caa85784848460405160e060020a63ffffffff86160281526004810193909352602483019190915215156044820152606401600060405180830381600087803b15156112e557600080fd5b60008115801590610bd45750506000198101161590565b7faaaaaaaaaaaaaaaaaaaaaaaaaaaaaaaaaaaaaaaaaaaaaaaaaaaaaaaaaaaaaaaa161590565b815460018301548254600092600160a060020a0316916353aa3f5e91846040516020015260405160e060020a63ffffffff851602815260048101929092526024820152604401602060405180830381600087803b15156110ce57600080fd5b825460018401548354600160a060020a03909216916353e7168b91908460405160e060020a63ffffffff8616028152600481019390935260248301919091526044820152606401600060405180830381600087803b15156112e557600080fd5b6111cb848484600160a060020a0385166115fc565b6114a261100c565b600160a060020a031663c6969604898989898989898960405160e060020a63ffffffff8b16028152600481019890985260248801969096526044870194909452600160a060020a039092166064860152608485015260a484015260c4830152151560e482015261010401600060405180830381600087803b151561152557600080fd5b6102c65a03f1151561153657600080fd5b5050505050505050505050565b825460018401548354600092600160a060020a0316916337d9d7fc9185604051918252602082015260409081019051809103902060006040516020015260405160e060020a63ffffffff851602815260048101929092526024820152604401602060405180830381600087803b15156115bb57600080fd5b6102c65a03f115156115cc57600080fd5b505050604051805195945050505050565b151590565b6000816115f05760006115f3565b60015b60ff1692915050565b835460018501548454600160a060020a039092169163a14ff85791908560405191825260208201526040908101905180910390208460405160e060020a63ffffffff8616028152600481019390935260248301919091526044820152606401600060405180830381600087803b151561167457600080fd5b6102c65a03f1151561168557600080fd5b50505050505050565b6000611258858585856040519182526020820152604090810190518091039020611543565b611237858585856040519182526020820152604090810190518091039020846115fc565b60206040519081016040526000815290565b825473ffffffffffffffffffffffffffffffffffffffff1916600160a060020a0392909216919091178255600190910155565b8154611728908261176c565b9055565b611736828261171c565b5050565b611736828261171c565b611736828261171c565b611736828261171c565b611736828261171c565b611736828261171c565b81151580611778575080155b1561173657600080fd5b8154611728908261176c56005133a133185f1023427a2e90f18506b27db994977ce0c0faafd514a7dd109ae0a165627a7a72305820c750a7ad529feb717cd7b181de93b19a6b0996e8010e53d0ed876df70988f8980029",
  "source": "/**\n * Copyright 20172018, LaborX PTY\n * Licensed under the AGPL Version 3 license.\n */\n\npragma solidity ^0.4.18;\n\n\nimport './adapters/StorageAdapter.sol';\nimport './adapters/MultiEventsHistoryAdapter.sol';\nimport './adapters/Roles2LibraryAndERC20LibraryAdapter.sol';\nimport './base/BitOps.sol';\n\n\ncontract BoardController is StorageAdapter, MultiEventsHistoryAdapter, Roles2LibraryAndERC20LibraryAdapter, BitOps {\n\n    uint constant BOARD_CONTROLLER_SCOPE = 11000;\n    uint constant BOARD_CONTROLLER_JOB_IS_ALREADY_BINDED = BOARD_CONTROLLER_SCOPE + 1;\n    uint constant BOARD_CONTROLLER_USER_IS_ALREADY_BINDED = BOARD_CONTROLLER_SCOPE + 2;\n    uint constant BOARD_CONTROLLER_BOARD_IS_CLOSED = BOARD_CONTROLLER_SCOPE + 3;\n\n    /* struct Board {\n        uint boardId;\n        bytes32 name;\n        bytes32 boardDescription;\n        address creator;\n        uint boardTags;\n        uint boardTagsArea;\n        uint boardTagsCategory;\n        bool status;\n    } */\n\n    event BoardCreated(\n        address indexed self,\n        uint indexed boardId,\n        bytes32 name,\n        bytes32 boardDescription,\n        address creator,\n        uint boardTags,\n        uint boardTagsArea,\n        uint boardTagsCategory,\n        bool status\n    );\n    event JobBinded(address indexed self, uint indexed boardId, uint jobId, bool status);\n    event UserBinded(address indexed self, uint indexed boardId, address user, bool status);\n    event BoardClosed(address indexed self, uint indexed boardId, bool status);\n\n    StorageInterface.UInt boardsCount;\n\n    StorageInterface.UIntAddressMapping boardCreator;\n    StorageInterface.UIntBytes32Mapping boardDescription;\n    StorageInterface.UIntBytes32Mapping boardName;\n\n    StorageInterface.UIntUIntMapping boardTagsArea;\n    StorageInterface.UIntUIntMapping boardTagsCategory;\n    StorageInterface.UIntUIntMapping boardTags;\n\n    StorageInterface.UIntBoolMapping boardStatus;\n    StorageInterface.UIntUIntBoolMapping jobBinding;\n    StorageInterface.UIntUIntMapping jobsBoard;\n    StorageInterface.UintAddressBoolMapping userBinding;\n\n    modifier notBindedJobYet(uint _boardId, uint _jobId) {\n        if (store.get(jobsBoard, _jobId) != 0) {\n            uint _resultCode = _emitErrorCode(BOARD_CONTROLLER_JOB_IS_ALREADY_BINDED);\n            assembly {\n                mstore(0, _resultCode)\n                return(0, 32)\n            }\n        }\n        _;\n    }\n\n    modifier notBindedUserYet(uint _boardId, address _user) {\n        if (store.get(userBinding, _boardId, _user) == true) {\n            uint _resultCode = _emitErrorCode(BOARD_CONTROLLER_USER_IS_ALREADY_BINDED);\n            assembly {\n                mstore(0, _resultCode)\n                return(0, 32)\n            }\n        }\n        _;\n    }\n\n    modifier notClosed(uint _boardId) {\n        if (store.get(boardStatus, _boardId) == false) {\n            uint _resultCode = _emitErrorCode(BOARD_CONTROLLER_BOARD_IS_CLOSED);\n            assembly {\n                mstore(0, _resultCode)\n                return(0, 32)\n            }\n        }\n        _;\n    }\n\n    function BoardController(\n        Storage _store,\n        bytes32 _crate,\n        address _roles2Library,\n        address _erc20Library\n    )\n    StorageAdapter(_store, _crate)\n    Roles2LibraryAndERC20LibraryAdapter(_roles2Library, _erc20Library)\n    public\n    {\n        boardsCount.init('boardsCount');\n\n        boardDescription.init('boardDescription');\n        boardCreator.init('boardCreator');\n        boardName.init('boardName');\n\n        boardTagsArea.init('boardTagsArea');\n        boardTagsCategory.init('boardTagsCategory');\n        boardTags.init('boardTags');\n\n        jobBinding.init('jobBinding');\n        jobsBoard.init('jobsBoard');\n        userBinding.init('userBinding');\n        boardStatus.init('boardStatus');\n    }\n\n    function setupEventsHistory(address _eventsHistory) auth external returns (uint) {\n        require(_eventsHistory != 0x0);\n\n        _setEventsHistory(_eventsHistory);\n        return OK;\n    }\n\n    function getBoardsCount() public view returns (uint) {\n        return store.get(boardsCount);\n    }\n\n    function getBoardStatus(uint _boardId) public view returns (bool) {\n        return store.get(boardStatus, _boardId);\n    }\n\n    function getJobStatus(uint _boardId, uint _jobId) public view returns (bool) {\n        return store.get(jobBinding, _boardId, _jobId);\n    }\n\n    function getUserStatus(uint _boardId, address _user) public view returns (bool) {\n        return store.get(userBinding, _boardId, _user);\n    }\n\n    function getJobsBoard(uint _jobId) public view returns (uint) {\n        return store.get(jobsBoard, _jobId);\n    }\n\n    /* function getBoards(uint _fromId, uint _maxLen, address _bindedUser)\n    public\n    view\n    returns (Board[] boards)\n    {\n        boards = new Board[](_maxLen);\n        for (uint _idx = _fromId; _idx < _fromId + _maxLen; ++_idx) {\n            if (_bindedUser == address(0) || getUserStatus(_idx, _bindedUser)) {\n                uint boardId = _idx;\n                boards[_idx] = Board(boardId,\n                                     store.get(boardName, boardId),\n                                     store.get(boardDescription, boardId),\n                                     store.get(boardCreator, boardId),\n                                     store.get(boardTags, boardId),\n                                     store.get(boardTagsArea, boardId),\n                                     store.get(boardTagsCategory, boardId),\n                                     getBoardStatus(boardId));\n            }\n        }\n    } */\n\n    function getBoards(uint _fromId, uint _maxLen, address _bindedUser)\n    public\n    view\n    returns (uint[] ids,\n        bytes32[] names,\n        bytes32[] descriptions,\n        uint[] tags,\n        uint[] tagsAreas,\n        uint[] tagsCategories,\n        bool[] status)\n    {\n        ids = new uint[](_maxLen);\n        names = new bytes32[](_maxLen);\n        descriptions = new bytes32[](_maxLen);\n        tags = new uint[](_maxLen);\n        tagsAreas = new uint[](_maxLen);\n        tagsCategories = new uint[](_maxLen);\n        status = new bool[](_maxLen);\n\n        uint idx = 0;\n        for (uint _id = _fromId; _id < _fromId + _maxLen; ++_id) {\n            if (_bindedUser == address(0) || getUserStatus(_id, _bindedUser)) {\n                ids[idx] = _id;\n                names[idx] = store.get(boardName, _id);\n                descriptions[idx] = store.get(boardDescription, _id);\n                tags[idx] = store.get(boardTags, _id);\n                tagsAreas[idx] = store.get(boardTagsArea, _id);\n                tagsCategories[idx] = store.get(boardTagsCategory, _id);\n                status[idx] = getBoardStatus(_id);\n                idx++;\n            }\n        }\n    }\n\n    function createBoard(\n        bytes32 _name,\n        bytes32 _boardDescription,\n        uint _tags,\n        uint _tagsArea,\n        uint _tagsCategory\n    )\n    auth\n    singleOddFlag(_tagsArea)\n    singleOddFlag(_tagsCategory)\n    hasFlags(_tags)\n    external\n    returns (uint)\n    {\n        uint boardId = store.get(boardsCount) + 1;\n        store.set(boardsCount, boardId);\n        store.set(boardName, boardId, _name);\n        store.set(boardCreator, boardId, msg.sender);\n        store.set(boardTagsArea, boardId, _tagsArea);\n        store.set(boardTagsCategory, boardId, _tagsCategory);\n        store.set(boardTags, boardId, _tags);\n        store.set(boardStatus, boardId, true);\n        store.set(boardDescription, boardId, _boardDescription);\n        _emitBoardCreated(boardId, _name, _boardDescription, msg.sender, _tags, _tagsArea, _tagsCategory, true);\n        return OK;\n    }\n\n    function bindJobWithBoard(\n        uint _boardId,\n        uint _jobId\n    )\n    notBindedJobYet(_boardId, _jobId)\n    notClosed(_boardId)\n    public\n    returns (uint)\n    {\n        store.set(jobsBoard, _jobId, _boardId);\n        store.set(jobBinding, _boardId, _jobId, true);\n        _emitJobBinded(_boardId, _jobId, true);\n        return OK;\n    }\n\n    function bindUserWithBoard(\n        uint _boardId,\n        address _user\n    )\n    notBindedUserYet(_boardId, _user)\n    notClosed(_boardId)\n    public\n    returns (uint)\n    {\n        store.set(userBinding, _boardId, _user, true);\n        _emitUserBinded( _boardId, _user, true);\n        return OK;\n    }\n\n    function closeBoard(\n        uint _boardId\n    )\n    auth\n    notClosed(_boardId)\n    external\n    returns (uint)\n    {\n        store.set(boardStatus, _boardId, false);\n        _emitBoardClosed( _boardId, false);\n        return OK;\n    }\n\n    function _emitBoardCreated(\n        uint _boardId,\n        bytes32 _name,\n        bytes32 _boardDescription,\n        address _creator,\n        uint _tags,\n        uint _tagsArea,\n        uint _tagsCategory,\n        bool _boardStatus\n    )\n    internal\n    {\n        BoardController(getEventsHistory()).emitBoardCreated(\n            _boardId,\n            _name,\n            _boardDescription,\n            _creator,\n            _tags,\n            _tagsArea,\n            _tagsCategory,\n            _boardStatus\n        );\n    }\n\n    function emitBoardCreated(\n        uint _boardId,\n        bytes32 _name,\n        bytes32 _boardDescription,\n        address _creator,\n        uint _tags,\n        uint _tagsArea,\n        uint _tagsCategory,\n        bool _boardStatus\n    )\n    public\n    {\n        BoardCreated(\n            _self(),\n            _boardId,\n            _name,\n            _boardDescription,\n            _creator,\n            _tags,\n            _tagsArea,\n            _tagsCategory,\n            _boardStatus\n        );\n    }\n\n    function emitJobBinded(uint _boardId, uint _jobId, bool _status) public {\n        JobBinded(_self(), _boardId, _jobId, _status);\n    }\n\n    function emitUserBinded(uint _boardId, address _user, bool _status) public {\n        UserBinded(_self(), _boardId, _user, _status);\n    }\n\n    function emitBoardClosed(uint _boardId, bool _status) public {\n        BoardClosed(_self(), _boardId, _status);\n    }\n\n    /* INTERNAL */\n\n    function _emitJobBinded(uint _boardId, uint _jobId, bool _status) internal {\n        BoardController(getEventsHistory()).emitJobBinded(_boardId, _jobId, _status);\n    }\n\n    function _emitUserBinded(uint _boardId, address _user, bool _status) internal {\n        BoardController(getEventsHistory()).emitUserBinded(_boardId, _user, _status);\n    }\n\n    function _emitBoardClosed(uint _boardId, bool _status) internal {\n        BoardController(getEventsHistory()).emitBoardClosed(_boardId, _status);\n    }\n}\n",
  "sourcePath": "/Users/ahiatsevich/Development/chronobank/LX-SC/contracts/BoardController.sol",
  "compiler": {
    "name": "solc",
    "version": "0.4.19+commit.c4cbbb05.Emscripten.clang"
  },
  "schemaVersion": "2.0.0",
  "updatedAt": "2018-05-16T09:28:10.987Z"
}