{
  "contractName": "BoardController",
  "abi": [
    {
      "constant": false,
      "inputs": [
        {
          "name": "_roles2Library",
          "type": "address"
        }
      ],
      "name": "setRoles2Library",
      "outputs": [
        {
          "name": "",
          "type": "uint256"
        }
      ],
      "payable": false,
      "stateMutability": "nonpayable",
      "type": "function"
    },
    {
      "constant": false,
      "inputs": [
        {
          "name": "_erc20Library",
          "type": "address"
        }
      ],
      "name": "setERC20Library",
      "outputs": [
        {
          "name": "",
          "type": "uint256"
        }
      ],
      "payable": false,
      "stateMutability": "nonpayable",
      "type": "function"
    },
    {
      "constant": false,
      "inputs": [
        {
          "name": "_errorCode",
          "type": "uint256"
        }
      ],
      "name": "emitErrorCode",
      "outputs": [],
      "payable": false,
      "stateMutability": "nonpayable",
      "type": "function"
    },
    {
      "constant": false,
      "inputs": [
        {
          "name": "_msg",
          "type": "bytes32"
        }
      ],
      "name": "emitError",
      "outputs": [],
      "payable": false,
      "stateMutability": "nonpayable",
      "type": "function"
    },
    {
      "constant": true,
      "inputs": [],
      "name": "getEventsHistory",
      "outputs": [
        {
          "name": "",
          "type": "address"
        }
      ],
      "payable": false,
      "stateMutability": "view",
      "type": "function"
    },
    {
      "inputs": [
        {
          "name": "_store",
          "type": "address"
        },
        {
          "name": "_crate",
          "type": "bytes32"
        },
        {
          "name": "_roles2Library",
          "type": "address"
        },
        {
          "name": "_erc20Library",
          "type": "address"
        }
      ],
      "payable": false,
      "stateMutability": "nonpayable",
      "type": "constructor"
    },
    {
      "anonymous": false,
      "inputs": [
        {
          "indexed": true,
          "name": "self",
          "type": "address"
        },
        {
          "indexed": true,
          "name": "boardId",
          "type": "uint256"
        },
        {
          "indexed": false,
          "name": "name",
          "type": "bytes32"
        },
        {
          "indexed": false,
          "name": "boardDescription",
          "type": "bytes32"
        },
        {
          "indexed": false,
          "name": "creator",
          "type": "address"
        },
        {
          "indexed": false,
          "name": "boardTags",
          "type": "uint256"
        },
        {
          "indexed": false,
          "name": "boardTagsArea",
          "type": "uint256"
        },
        {
          "indexed": false,
          "name": "boardTagsCategory",
          "type": "uint256"
        },
        {
          "indexed": false,
          "name": "status",
          "type": "bool"
        }
      ],
      "name": "BoardCreated",
      "type": "event"
    },
    {
      "anonymous": false,
      "inputs": [
        {
          "indexed": true,
          "name": "self",
          "type": "address"
        },
        {
          "indexed": true,
          "name": "boardId",
          "type": "uint256"
        },
        {
          "indexed": false,
          "name": "jobId",
          "type": "uint256"
        },
        {
          "indexed": false,
          "name": "status",
          "type": "bool"
        }
      ],
      "name": "JobBinded",
      "type": "event"
    },
    {
      "anonymous": false,
      "inputs": [
        {
          "indexed": true,
          "name": "self",
          "type": "address"
        },
        {
          "indexed": true,
          "name": "boardId",
          "type": "uint256"
        },
        {
          "indexed": false,
          "name": "user",
          "type": "address"
        },
        {
          "indexed": false,
          "name": "status",
          "type": "bool"
        }
      ],
      "name": "UserBinded",
      "type": "event"
    },
    {
      "anonymous": false,
      "inputs": [
        {
          "indexed": true,
          "name": "self",
          "type": "address"
        },
        {
          "indexed": true,
          "name": "boardId",
          "type": "uint256"
        },
        {
          "indexed": false,
          "name": "status",
          "type": "bool"
        }
      ],
      "name": "BoardClosed",
      "type": "event"
    },
    {
      "anonymous": false,
      "inputs": [
        {
          "indexed": false,
          "name": "code",
          "type": "address"
        },
        {
          "indexed": false,
          "name": "sender",
          "type": "address"
        },
        {
          "indexed": false,
          "name": "sig",
          "type": "bytes4"
        }
      ],
      "name": "AuthFailedError",
      "type": "event"
    },
    {
      "anonymous": false,
      "inputs": [
        {
          "indexed": true,
          "name": "self",
          "type": "address"
        },
        {
          "indexed": false,
          "name": "msg",
          "type": "bytes32"
        }
      ],
      "name": "Error",
      "type": "event"
    },
    {
      "anonymous": false,
      "inputs": [
        {
          "indexed": true,
          "name": "self",
          "type": "address"
        },
        {
          "indexed": false,
          "name": "errorCode",
          "type": "uint256"
        }
      ],
      "name": "ErrorCode",
      "type": "event"
    },
    {
      "constant": false,
      "inputs": [
        {
          "name": "_eventsHistory",
          "type": "address"
        }
      ],
      "name": "setupEventsHistory",
      "outputs": [
        {
          "name": "",
          "type": "uint256"
        }
      ],
      "payable": false,
      "stateMutability": "nonpayable",
      "type": "function"
    },
    {
      "constant": true,
      "inputs": [],
      "name": "getBoardsCount",
      "outputs": [
        {
          "name": "",
          "type": "uint256"
        }
      ],
      "payable": false,
      "stateMutability": "view",
      "type": "function"
    },
    {
      "constant": true,
      "inputs": [
        {
          "name": "_boardId",
          "type": "uint256"
        }
      ],
      "name": "getBoardStatus",
      "outputs": [
        {
          "name": "",
          "type": "bool"
        }
      ],
      "payable": false,
      "stateMutability": "view",
      "type": "function"
    },
    {
      "constant": true,
      "inputs": [
        {
          "name": "_boardId",
          "type": "uint256"
        },
        {
          "name": "_jobId",
          "type": "uint256"
        }
      ],
      "name": "getJobStatus",
      "outputs": [
        {
          "name": "",
          "type": "bool"
        }
      ],
      "payable": false,
      "stateMutability": "view",
      "type": "function"
    },
    {
      "constant": true,
      "inputs": [
        {
          "name": "_boardId",
          "type": "uint256"
        },
        {
          "name": "_user",
          "type": "address"
        }
      ],
      "name": "getUserStatus",
      "outputs": [
        {
          "name": "",
          "type": "bool"
        }
      ],
      "payable": false,
      "stateMutability": "view",
      "type": "function"
    },
    {
      "constant": true,
      "inputs": [
        {
          "name": "_jobId",
          "type": "uint256"
        }
      ],
      "name": "getJobsBoard",
      "outputs": [
        {
          "name": "",
          "type": "uint256"
        }
      ],
      "payable": false,
      "stateMutability": "view",
      "type": "function"
    },
    {
      "constant": false,
      "inputs": [
        {
          "name": "_name",
          "type": "bytes32"
        },
        {
          "name": "_boardDescription",
          "type": "bytes32"
        },
        {
          "name": "_tags",
          "type": "uint256"
        },
        {
          "name": "_tagsArea",
          "type": "uint256"
        },
        {
          "name": "_tagsCategory",
          "type": "uint256"
        }
      ],
      "name": "createBoard",
      "outputs": [
        {
          "name": "",
          "type": "uint256"
        }
      ],
      "payable": false,
      "stateMutability": "nonpayable",
      "type": "function"
    },
    {
      "constant": false,
      "inputs": [
        {
          "name": "_boardId",
          "type": "uint256"
        },
        {
          "name": "_jobId",
          "type": "uint256"
        }
      ],
      "name": "bindJobWithBoard",
      "outputs": [
        {
          "name": "",
          "type": "uint256"
        }
      ],
      "payable": false,
      "stateMutability": "nonpayable",
      "type": "function"
    },
    {
      "constant": false,
      "inputs": [
        {
          "name": "_boardId",
          "type": "uint256"
        },
        {
          "name": "_user",
          "type": "address"
        }
      ],
      "name": "bindUserWithBoard",
      "outputs": [
        {
          "name": "",
          "type": "uint256"
        }
      ],
      "payable": false,
      "stateMutability": "nonpayable",
      "type": "function"
    },
    {
      "constant": false,
      "inputs": [
        {
          "name": "_boardId",
          "type": "uint256"
        }
      ],
      "name": "closeBoard",
      "outputs": [
        {
          "name": "",
          "type": "uint256"
        }
      ],
      "payable": false,
      "stateMutability": "nonpayable",
      "type": "function"
    },
    {
      "constant": false,
      "inputs": [
        {
          "name": "_boardId",
          "type": "uint256"
        },
        {
          "name": "_name",
          "type": "bytes32"
        },
        {
          "name": "_boardDescription",
          "type": "bytes32"
        },
        {
          "name": "_creator",
          "type": "address"
        },
        {
          "name": "_tags",
          "type": "uint256"
        },
        {
          "name": "_tagsArea",
          "type": "uint256"
        },
        {
          "name": "_tagsCategory",
          "type": "uint256"
        },
        {
          "name": "_boardStatus",
          "type": "bool"
        }
      ],
      "name": "emitBoardCreated",
      "outputs": [],
      "payable": false,
      "stateMutability": "nonpayable",
      "type": "function"
    },
    {
      "constant": false,
      "inputs": [
        {
          "name": "_boardId",
          "type": "uint256"
        },
        {
          "name": "_jobId",
          "type": "uint256"
        },
        {
          "name": "_status",
          "type": "bool"
        }
      ],
      "name": "emitJobBinded",
      "outputs": [],
      "payable": false,
      "stateMutability": "nonpayable",
      "type": "function"
    },
    {
      "constant": false,
      "inputs": [
        {
          "name": "_boardId",
          "type": "uint256"
        },
        {
          "name": "_user",
          "type": "address"
        },
        {
          "name": "_status",
          "type": "bool"
        }
      ],
      "name": "emitUserBinded",
      "outputs": [],
      "payable": false,
      "stateMutability": "nonpayable",
      "type": "function"
    },
    {
      "constant": false,
      "inputs": [
        {
          "name": "_boardId",
          "type": "uint256"
        },
        {
          "name": "_status",
          "type": "bool"
        }
      ],
      "name": "emitBoardClosed",
      "outputs": [],
      "payable": false,
      "stateMutability": "nonpayable",
      "type": "function"
    }
  ],
  "bytecode": "0x606060405234156200001057600080fd5b604051608080620016db833981016040528080519190602001805191906020018051919060200180519150829050818186866200005e600083836401000000006200123b6200032382021704565b505060038054600160a060020a03928316600160a060020a0319918216179091556004805493909216921691909117905550620000cb60057f626f61726473436f756e740000000000000000000000000000000000000000006401000000006200126e6200034982021704565b6200010660077f626f6172644465736372697074696f6e000000000000000000000000000000006401000000006200127e6200036982021704565b6200014160067f626f61726443726561746f7200000000000000000000000000000000000000006401000000006200127e6200036982021704565b6200017c60087f626f6172644e616d6500000000000000000000000000000000000000000000006401000000006200127e6200036982021704565b620001b760097f626f6172645461677341726561000000000000000000000000000000000000006401000000006200127e6200036982021704565b620001f2600a7f626f6172645461677343617465676f72790000000000000000000000000000006401000000006200127e6200036982021704565b6200022d600b7f626f6172645461677300000000000000000000000000000000000000000000006401000000006200127e6200036982021704565b62000268600d7f6a6f6242696e64696e67000000000000000000000000000000000000000000006401000000006200127e6200036982021704565b620002a3600e7f6a6f6273426f61726400000000000000000000000000000000000000000000006401000000006200127e6200036982021704565b620002de600f7f7573657242696e64696e670000000000000000000000000000000000000000006401000000006200127e6200036982021704565b62000319600c7f626f6172645374617475730000000000000000000000000000000000000000006401000000006200127e6200036982021704565b505050506200039f565b8254600160a060020a031916600160a060020a0392909216919091178255600190910155565b8154620003659082640100000000620012be6200038782021704565b9055565b6200038382826401000000006200126e6200034982021704565b5050565b8115158062000394575080155b156200038357600080fd5b61132c80620003af6000396000f3006060604052600436106100ed5763ffffffff60e060020a60003504166302927d2081146100f257806318caa85714610123578063210c1f29146101435780632637cd7d146101595780633e7d081a1461017857806345584c901461019357806366c31f12146101b25780636aa084d7146101d95780638834277e14610203578063a2dcb5d414610219578063b1bf05101461023b578063bde842ac14610251578063c4e9311b1461026a578063c696960414610283578063d2afeeeb146102b9578063e575df72146102db578063e90459f8146102fd578063f4d44b7214610313578063fff10aba14610326575b600080fd5b34156100fd57600080fd5b610111600160a060020a0360043516610355565b60405190815260200160405180910390f35b341561012e57600080fd5b61014160043560243560443515156103f9565b005b341561014e57600080fd5b61011160043561044c565b341561016457600080fd5b610111600160a060020a0360043516610522565b341561018357600080fd5b61014160043560243515156105cf565b341561019e57600080fd5b610111600160a060020a036004351661061a565b34156101bd57600080fd5b610141600435600160a060020a036024351660443515156106c7565b34156101e457600080fd5b6101ef600435610724565b604051901515815260200160405180910390f35b341561020e57600080fd5b61014160043561073e565b341561022457600080fd5b610111600435600160a060020a0360243516610785565b341561024657600080fd5b610111600435610808565b341561025c57600080fd5b6101ef60043560243561081c565b341561027557600080fd5b610111600435602435610838565b341561028e57600080fd5b610141600435602435604435600160a060020a036064351660843560a43560c43560e43515156108bb565b34156102c457600080fd5b61011160043560243560443560643560843561094a565b34156102e657600080fd5b6101ef600435600160a060020a0360243516610afc565b341561030857600080fd5b610141600435610b11565b341561031e57600080fd5b610111610b58565b341561033157600080fd5b610339610b70565b604051600160a060020a03909116815260200160405180910390f35b600061036d33600035600160e060020a031916610b7f565b15156103d0576000805160206112e18339815191523033600035600160e060020a031916604051600160a060020a039384168152919092166020820152600160e060020a03199091166040808301919091526060909101905180910390a16103f4565b600160a060020a03821615156103e557600080fd5b6103ee82610c53565b50600190505b919050565b82610402610c84565b600160a060020a03167f0d7a6068901e5d084e217c5d1cb95a043d68ba086fb08b63cf78a444ad53c3c08484604051918252151560208201526040908101905180910390a3505050565b600061046433600035600160e060020a031916610b7f565b15156104c7576000805160206112e18339815191523033600035600160e060020a031916604051600160a060020a039384168152919092166020820152600160e060020a03199091166040808301919091526060909101905180910390a16103f4565b8160006104dc81600c8463ffffffff610c8816565b15156104f9576104ed612afb610ca5565b90508060005260206000f35b61050d6000600c868263ffffffff610d0e16565b610518846000610d28565b5060019392505050565b600061053a33600035600160e060020a031916610b7f565b151561059d576000805160206112e18339815191523033600035600160e060020a031916604051600160a060020a039384168152919092166020820152600160e060020a03199091166040808301919091526060909101905180910390a16103f4565b5060038054600160a060020a03831673ffffffffffffffffffffffffffffffffffffffff199091161790556001919050565b816105d8610c84565b600160a060020a03167fd446dbede0f6a2859d1fee85f220959b0d3421ac2a84baf4f8ae9f3ad43369b683604051901515815260200160405180910390a35050565b600061063233600035600160e060020a031916610b7f565b1515610695576000805160206112e18339815191523033600035600160e060020a031916604051600160a060020a039384168152919092166020820152600160e060020a03199091166040808301919091526060909101905180910390a16103f4565b5060048054600160a060020a03831673ffffffffffffffffffffffffffffffffffffffff199091161790556001919050565b826106d0610c84565b600160a060020a03167f59607a2b26de9cec195f2d07833fd103d142795d3d3b8eff92a531e1094e76a38484604051600160a060020a039092168252151560208201526040908101905180910390a3505050565b600061073881600c8463ffffffff610c8816565b92915050565b610746610c84565b600160a060020a03167f09e0713b45664e161c202b19bb4574ee83dfa056f9bfdee56847b3971d9682218260405190815260200160405180910390a250565b600082828261079d81600f858563ffffffff610d9516565b1515600114156107b2576104ed612afa610ca5565b8560006107c781600c8463ffffffff610c8816565b15156107d8576104ed612afb610ca5565b6107ee6000600f8a8a600163ffffffff610db816565b6107fa88886001610dd6565b506001979650505050505050565b600061073881600e8463ffffffff610e5516565b600061083181600d858563ffffffff610e6216565b9392505050565b600082828261084f81600e8463ffffffff610e5516565b1561085f576104ed612af9610ca5565b85600061087481600c8463ffffffff610c8816565b1515610885576104ed612afb610ca5565b6108996000600e898b63ffffffff610e7316565b6108af6000600d8a8a600163ffffffff610e7f16565b6107fa88886001610e8f565b876108c4610c84565b600160a060020a03167ff1ceee94b1a7729ec826309a33db35e4f2f292c268f9116b9c282cd57e3a4f0a898989898989896040519687526020870195909552600160a060020a039093166040808701919091526060860192909252608085015260a084019190915290151560c083015260e0909101905180910390a35050505050505050565b60008061096333600035600160e060020a031916610b7f565b15156109c6576000805160206112e18339815191523033600035600160e060020a031916604051600160a060020a039384168152919092166020820152600160e060020a03199091166040808301919091526060909101905180910390a1610af2565b836109d081610eed565b15806109e257506109e081610f04565b155b156109ec57610af0565b836109f681610eed565b1580610a085750610a0681610f04565b155b15610a1257610aee565b86801515610a1f57610aec565b610a316000600563ffffffff610f2a16565b6001019350610a49600060058663ffffffff610f8916565b610a5d60006008868d63ffffffff610e7316565b610a7160006006863363ffffffff610fe916565b610a8560006009868a63ffffffff610e7316565b610a996000600a868963ffffffff610e7316565b610aad6000600b868b63ffffffff610e7316565b610ac26000600c86600163ffffffff610d0e16565b610ad660006007868c63ffffffff610e7316565b610ae7848b8b338c8c8c6001610ffe565b600194505b505b505b505b5095945050505050565b600061083181600f858563ffffffff610d9516565b610b19610c84565b600160a060020a03167fbb8f0c1d8804cd86e7873ec11cb00af945c8c0ebd061a68b28617034803464158260405190815260200160405180910390a250565b6000610b6b81600563ffffffff610f2a16565b905090565b600254600160a060020a031690565b600030600160a060020a031683600160a060020a03161415610ba357506001610738565b600354600160a060020a03161515610bbd57506000610738565b600354600160a060020a031663b700961384308560006040516020015260405160e060020a63ffffffff8616028152600160a060020a039384166004820152919092166024820152600160e060020a03199091166044820152606401602060405180830381600087803b1515610c3257600080fd5b6102c65a03f11515610c4357600080fd5b5050506040518051949350505050565b60028054600160a060020a03831673ffffffffffffffffffffffffffffffffffffffff199091161790556001919050565b3390565b6000610c9d610c988585856110a7565b611141565b949350505050565b6000610caf610b70565b600160a060020a0316638834277e8360405160e060020a63ffffffff84160281526004810191909152602401600060405180830381600087803b1515610cf457600080fd5b6102c65a03f11515610d0557600080fd5b50929392505050565b610d22848484610d1d85611146565b611160565b50505050565b610d30610b70565b600160a060020a0316633e7d081a838360405160e060020a63ffffffff8516028152600481019290925215156024820152604401600060405180830381600087803b1515610d7d57600080fd5b6102c65a03f11515610d8e57600080fd5b5050505050565b6000610daf610c98868686600160a060020a0387166111f2565b95945050505050565b610d8e858585600160a060020a038616610dd186611146565b611217565b610dde610b70565b600160a060020a03166366c31f1284848460405160e060020a63ffffffff86160281526004810193909352600160a060020a03909116602483015215156044820152606401600060405180830381600087803b1515610e3c57600080fd5b6102c65a03f11515610e4d57600080fd5b505050505050565b6000610c9d8484846110a7565b6000610daf610c98868686866111f2565b610d2284848484611160565b610d8e85858585610dd186611146565b610e97610b70565b600160a060020a03166318caa85784848460405160e060020a63ffffffff86160281526004810193909352602483019190915215156044820152606401600060405180830381600087803b1515610e3c57600080fd5b600081158015906107385750506000198101161590565b7faaaaaaaaaaaaaaaaaaaaaaaaaaaaaaaaaaaaaaaaaaaaaaaaaaaaaaaaaaaaaaaa161590565b815460018301548254600092600160a060020a0316916353aa3f5e91846040516020015260405160e060020a63ffffffff851602815260048101929092526024820152604401602060405180830381600087803b1515610c3257600080fd5b825460018401548354600160a060020a03909216916353e7168b91908460405160e060020a63ffffffff8616028152600481019390935260248301919091526044820152606401600060405180830381600087803b1515610e3c57600080fd5b610d22848484600160a060020a038516611160565b611006610b70565b600160a060020a031663c6969604898989898989898960405160e060020a63ffffffff8b16028152600481019890985260248801969096526044870194909452600160a060020a039092166064860152608485015260a484015260c4830152151560e482015261010401600060405180830381600087803b151561108957600080fd5b6102c65a03f1151561109a57600080fd5b5050505050505050505050565b825460018401548354600092600160a060020a0316916337d9d7fc9185604051918252602082015260409081019051809103902060006040516020015260405160e060020a63ffffffff851602815260048101929092526024820152604401602060405180830381600087803b151561111f57600080fd5b6102c65a03f1151561113057600080fd5b505050604051805195945050505050565b151590565b600081611154576000611157565b60015b60ff1692915050565b835460018501548454600160a060020a039092169163a14ff85791908560405191825260208201526040908101905180910390208460405160e060020a63ffffffff8616028152600481019390935260248301919091526044820152606401600060405180830381600087803b15156111d857600080fd5b6102c65a03f115156111e957600080fd5b50505050505050565b6000610daf8585858560405191825260208201526040908101905180910390206110a7565b610d8e85858585604051918252602082015260409081019051809103902084611160565b825473ffffffffffffffffffffffffffffffffffffffff1916600160a060020a0392909216919091178255600190910155565b815461127a90826112be565b9055565b611288828261126e565b5050565b611288828261126e565b611288828261126e565b611288828261126e565b611288828261126e565b611288828261126e565b811515806112ca575080155b1561128857600080fd5b815461127a90826112be56005133a133185f1023427a2e90f18506b27db994977ce0c0faafd514a7dd109ae0a165627a7a72305820bcd56915c299fe24587b453277436a19ecf1413d3092c723121e86e33c074fd50029",
  "source": "/**\n * Copyright 2017–2018, LaborX PTY\n * Licensed under the AGPL Version 3 license.\n */\n\npragma solidity ^0.4.18;\n\n\nimport './adapters/StorageAdapter.sol';\nimport './adapters/MultiEventsHistoryAdapter.sol';\nimport './adapters/Roles2LibraryAndERC20LibraryAdapter.sol';\nimport './base/BitOps.sol';\n\n\ncontract BoardController is StorageAdapter, MultiEventsHistoryAdapter, Roles2LibraryAndERC20LibraryAdapter, BitOps {\n\n    uint constant BOARD_CONTROLLER_SCOPE = 11000;\n    uint constant BOARD_CONTROLLER_JOB_IS_ALREADY_BINDED = BOARD_CONTROLLER_SCOPE + 1;\n    uint constant BOARD_CONTROLLER_USER_IS_ALREADY_BINDED = BOARD_CONTROLLER_SCOPE + 2;\n    uint constant BOARD_CONTROLLER_BOARD_IS_CLOSED = BOARD_CONTROLLER_SCOPE + 3;\n\n    event BoardCreated(\n        address indexed self,\n        uint indexed boardId,\n        bytes32 name,\n        bytes32 boardDescription,\n        address creator,\n        uint boardTags,\n        uint boardTagsArea,\n        uint boardTagsCategory,\n        bool status\n    );\n    event JobBinded(address indexed self, uint indexed boardId, uint jobId, bool status);\n    event UserBinded(address indexed self, uint indexed boardId, address user, bool status);\n    event BoardClosed(address indexed self, uint indexed boardId, bool status);\n\n    StorageInterface.UInt boardsCount;\n\n    StorageInterface.UIntAddressMapping boardCreator;\n    StorageInterface.UIntBytes32Mapping boardDescription;\n    StorageInterface.UIntBytes32Mapping boardName;\n\n    StorageInterface.UIntUIntMapping boardTagsArea;\n    StorageInterface.UIntUIntMapping boardTagsCategory;\n    StorageInterface.UIntUIntMapping boardTags;\n\n    StorageInterface.UIntBoolMapping boardStatus;\n    StorageInterface.UIntUIntBoolMapping jobBinding;\n    StorageInterface.UIntUIntMapping jobsBoard;\n    StorageInterface.UintAddressBoolMapping userBinding;\n\n    modifier notBindedJobYet(uint _boardId, uint _jobId) {\n        if (store.get(jobsBoard, _jobId) != 0) {\n            uint _resultCode = _emitErrorCode(BOARD_CONTROLLER_JOB_IS_ALREADY_BINDED);\n            assembly {\n                mstore(0, _resultCode)\n                return(0, 32)\n            }\n        }\n        _;\n    }\n\n    modifier notBindedUserYet(uint _boardId, address _user) {\n        if (store.get(userBinding, _boardId, _user) == true) {\n            uint _resultCode = _emitErrorCode(BOARD_CONTROLLER_USER_IS_ALREADY_BINDED);\n            assembly {\n                mstore(0, _resultCode)\n                return(0, 32)\n            }\n        }\n        _;\n    }\n\n    modifier notClosed(uint _boardId) {\n        if (store.get(boardStatus, _boardId) == false) {\n            uint _resultCode = _emitErrorCode(BOARD_CONTROLLER_BOARD_IS_CLOSED);\n            assembly {\n                mstore(0, _resultCode)\n                return(0, 32)\n            }\n        }\n        _;\n    }\n\n    function BoardController(\n        Storage _store,\n        bytes32 _crate,\n        address _roles2Library,\n        address _erc20Library\n    )\n    StorageAdapter(_store, _crate)\n    Roles2LibraryAndERC20LibraryAdapter(_roles2Library, _erc20Library)\n    public\n    {\n        boardsCount.init('boardsCount');\n\n        boardDescription.init('boardDescription');\n        boardCreator.init('boardCreator');\n        boardName.init('boardName');\n\n        boardTagsArea.init('boardTagsArea');\n        boardTagsCategory.init('boardTagsCategory');\n        boardTags.init('boardTags');\n\n        jobBinding.init('jobBinding');\n        jobsBoard.init('jobsBoard');\n        userBinding.init('userBinding');\n        boardStatus.init('boardStatus');\n    }\n\n    function setupEventsHistory(address _eventsHistory) auth external returns (uint) {\n        require(_eventsHistory != 0x0);\n\n        _setEventsHistory(_eventsHistory);\n        return OK;\n    }\n\n    function getBoardsCount() public view returns (uint) {\n        return store.get(boardsCount);\n    }\n\n    function getBoardStatus(uint _boardId) public view returns (bool) {\n        return store.get(boardStatus, _boardId);\n    }\n\n    function getJobStatus(uint _boardId, uint _jobId) public view returns (bool) {\n        return store.get(jobBinding, _boardId, _jobId);\n    }\n\n    function getUserStatus(uint _boardId, address _user) public view returns (bool) {\n        return store.get(userBinding, _boardId, _user);\n    }\n\n    function getJobsBoard(uint _jobId) public view returns (uint) {\n        return store.get(jobsBoard, _jobId);\n    }\n\n    function createBoard(\n        bytes32 _name,\n        bytes32 _boardDescription,\n        uint _tags,\n        uint _tagsArea,\n        uint _tagsCategory\n    )\n    auth\n    singleOddFlag(_tagsArea)\n    singleOddFlag(_tagsCategory)\n    hasFlags(_tags)\n    external\n    returns (uint)\n    {\n        uint boardId = store.get(boardsCount) + 1;\n        store.set(boardsCount, boardId);\n        store.set(boardName, boardId, _name);\n        store.set(boardCreator, boardId, msg.sender);\n        store.set(boardTagsArea, boardId, _tagsArea);\n        store.set(boardTagsCategory, boardId, _tagsCategory);\n        store.set(boardTags, boardId, _tags);\n        store.set(boardStatus, boardId, true);\n        store.set(boardDescription, boardId, _boardDescription);\n        _emitBoardCreated(boardId, _name, _boardDescription, msg.sender, _tags, _tagsArea, _tagsCategory, true);\n        return OK;\n    }\n\n    function bindJobWithBoard(\n        uint _boardId,\n        uint _jobId\n    )\n    notBindedJobYet(_boardId, _jobId)\n    notClosed(_boardId)\n    public\n    returns (uint)\n    {\n        store.set(jobsBoard, _jobId, _boardId);\n        store.set(jobBinding, _boardId, _jobId, true);\n        _emitJobBinded(_boardId, _jobId, true);\n        return OK;\n    }\n\n    function bindUserWithBoard(\n        uint _boardId,\n        address _user\n    )\n    notBindedUserYet(_boardId, _user)\n    notClosed(_boardId)\n    public\n    returns (uint)\n    {\n        store.set(userBinding, _boardId, _user, true);\n        _emitUserBinded( _boardId, _user, true);\n        return OK;\n    }\n\n    function closeBoard(\n        uint _boardId\n    )\n    auth\n    notClosed(_boardId)\n    external\n    returns (uint)\n    {\n        store.set(boardStatus, _boardId, false);\n        _emitBoardClosed( _boardId, false);\n        return OK;\n    }\n\n    function _emitBoardCreated(\n        uint _boardId,\n        bytes32 _name,\n        bytes32 _boardDescription,\n        address _creator,\n        uint _tags,\n        uint _tagsArea,\n        uint _tagsCategory,\n        bool _boardStatus\n    )\n    internal\n    {\n        BoardController(getEventsHistory()).emitBoardCreated(\n            _boardId,\n            _name,\n            _boardDescription,\n            _creator,\n            _tags,\n            _tagsArea,\n            _tagsCategory,\n            _boardStatus\n        );\n    }\n\n    function emitBoardCreated(\n        uint _boardId,\n        bytes32 _name,\n        bytes32 _boardDescription,\n        address _creator,\n        uint _tags,\n        uint _tagsArea,\n        uint _tagsCategory,\n        bool _boardStatus\n    )\n    public\n    {\n        BoardCreated(\n            _self(),\n            _boardId,\n            _name,\n            _boardDescription,\n            _creator,\n            _tags,\n            _tagsArea,\n            _tagsCategory,\n            _boardStatus\n        );\n    }\n\n    function emitJobBinded(uint _boardId, uint _jobId, bool _status) public {\n        JobBinded(_self(), _boardId, _jobId, _status);\n    }\n\n    function emitUserBinded(uint _boardId, address _user, bool _status) public {\n        UserBinded(_self(), _boardId, _user, _status);\n    }\n\n    function emitBoardClosed(uint _boardId, bool _status) public {\n        BoardClosed(_self(), _boardId, _status);\n    }\n\n    /* INTERNAL */\n\n    function _emitJobBinded(uint _boardId, uint _jobId, bool _status) internal {\n        BoardController(getEventsHistory()).emitJobBinded(_boardId, _jobId, _status);\n    }\n\n    function _emitUserBinded(uint _boardId, address _user, bool _status) internal {\n        BoardController(getEventsHistory()).emitUserBinded(_boardId, _user, _status);\n    }\n\n    function _emitBoardClosed(uint _boardId, bool _status) internal {\n        BoardController(getEventsHistory()).emitBoardClosed(_boardId, _status);\n    }\n}\n",
  "sourcePath": "/Users/ahiatsevich/Development/chronobank/LX-SC/contracts/BoardController.sol",
  "compiler": {
    "name": "solc",
    "version": "0.4.19+commit.c4cbbb05.Emscripten.clang"
  },
  "schemaVersion": "2.0.0",
  "updatedAt": "2018-05-08T10:34:05.533Z"
}