{
  "contractName": "BoardController",
  "abi": [
    {
      "constant": false,
      "inputs": [
        {
          "name": "_roles2Library",
          "type": "address"
        }
      ],
      "name": "setRoles2Library",
      "outputs": [
        {
          "name": "",
          "type": "uint256"
        }
      ],
      "payable": false,
      "stateMutability": "nonpayable",
      "type": "function"
    },
    {
      "constant": false,
      "inputs": [
        {
          "name": "_errorCode",
          "type": "uint256"
        }
      ],
      "name": "emitErrorCode",
      "outputs": [],
      "payable": false,
      "stateMutability": "nonpayable",
      "type": "function"
    },
    {
      "constant": false,
      "inputs": [
        {
          "name": "_msg",
          "type": "bytes32"
        }
      ],
      "name": "emitError",
      "outputs": [],
      "payable": false,
      "stateMutability": "nonpayable",
      "type": "function"
    },
    {
      "constant": true,
      "inputs": [],
      "name": "getEventsHistory",
      "outputs": [
        {
          "name": "",
          "type": "address"
        }
      ],
      "payable": false,
      "stateMutability": "view",
      "type": "function"
    },
    {
      "inputs": [
        {
          "name": "_store",
          "type": "address"
        },
        {
          "name": "_crate",
          "type": "bytes32"
        },
        {
          "name": "_roles2Library",
          "type": "address"
        }
      ],
      "payable": false,
      "stateMutability": "nonpayable",
      "type": "constructor"
    },
    {
      "anonymous": false,
      "inputs": [
        {
          "indexed": true,
          "name": "self",
          "type": "address"
        },
        {
          "indexed": true,
          "name": "boardId",
          "type": "uint256"
        },
        {
          "indexed": false,
          "name": "creator",
          "type": "address"
        },
        {
          "indexed": false,
          "name": "boardTags",
          "type": "uint256"
        },
        {
          "indexed": false,
          "name": "boardTagsArea",
          "type": "uint256"
        },
        {
          "indexed": false,
          "name": "boardTagsCategory",
          "type": "uint256"
        },
        {
          "indexed": false,
          "name": "boardIpfsHash",
          "type": "bytes32"
        },
        {
          "indexed": false,
          "name": "status",
          "type": "bool"
        }
      ],
      "name": "BoardCreated",
      "type": "event"
    },
    {
      "anonymous": false,
      "inputs": [
        {
          "indexed": true,
          "name": "self",
          "type": "address"
        },
        {
          "indexed": true,
          "name": "boardId",
          "type": "uint256"
        },
        {
          "indexed": false,
          "name": "jobId",
          "type": "uint256"
        },
        {
          "indexed": false,
          "name": "status",
          "type": "bool"
        }
      ],
      "name": "JobBinded",
      "type": "event"
    },
    {
      "anonymous": false,
      "inputs": [
        {
          "indexed": true,
          "name": "self",
          "type": "address"
        },
        {
          "indexed": true,
          "name": "boardId",
          "type": "uint256"
        },
        {
          "indexed": false,
          "name": "user",
          "type": "address"
        },
        {
          "indexed": false,
          "name": "status",
          "type": "bool"
        }
      ],
      "name": "UserBinded",
      "type": "event"
    },
    {
      "anonymous": false,
      "inputs": [
        {
          "indexed": true,
          "name": "self",
          "type": "address"
        },
        {
          "indexed": true,
          "name": "boardId",
          "type": "uint256"
        },
        {
          "indexed": false,
          "name": "status",
          "type": "bool"
        }
      ],
      "name": "BoardClosed",
      "type": "event"
    },
    {
      "anonymous": false,
      "inputs": [
        {
          "indexed": false,
          "name": "code",
          "type": "address"
        },
        {
          "indexed": false,
          "name": "sender",
          "type": "address"
        },
        {
          "indexed": false,
          "name": "sig",
          "type": "bytes4"
        }
      ],
      "name": "AuthFailedError",
      "type": "event"
    },
    {
      "anonymous": false,
      "inputs": [
        {
          "indexed": true,
          "name": "self",
          "type": "address"
        },
        {
          "indexed": false,
          "name": "msg",
          "type": "bytes32"
        }
      ],
      "name": "Error",
      "type": "event"
    },
    {
      "anonymous": false,
      "inputs": [
        {
          "indexed": true,
          "name": "self",
          "type": "address"
        },
        {
          "indexed": false,
          "name": "errorCode",
          "type": "uint256"
        }
      ],
      "name": "ErrorCode",
      "type": "event"
    },
    {
      "constant": false,
      "inputs": [
        {
          "name": "_jobsDataProvider",
          "type": "address"
        }
      ],
      "name": "setJobsDataProvider",
      "outputs": [
        {
          "name": "",
          "type": "uint256"
        }
      ],
      "payable": false,
      "stateMutability": "nonpayable",
      "type": "function"
    },
    {
      "constant": false,
      "inputs": [
        {
          "name": "_eventsHistory",
          "type": "address"
        }
      ],
      "name": "setupEventsHistory",
      "outputs": [
        {
          "name": "",
          "type": "uint256"
        }
      ],
      "payable": false,
      "stateMutability": "nonpayable",
      "type": "function"
    },
    {
      "constant": true,
      "inputs": [],
      "name": "getBoardsCount",
      "outputs": [
        {
          "name": "",
          "type": "uint256"
        }
      ],
      "payable": false,
      "stateMutability": "view",
      "type": "function"
    },
    {
      "constant": true,
      "inputs": [
        {
          "name": "_boardId",
          "type": "uint256"
        }
      ],
      "name": "getBoardStatus",
      "outputs": [
        {
          "name": "",
          "type": "bool"
        }
      ],
      "payable": false,
      "stateMutability": "view",
      "type": "function"
    },
    {
      "constant": true,
      "inputs": [
        {
          "name": "_boardId",
          "type": "uint256"
        },
        {
          "name": "_jobId",
          "type": "uint256"
        }
      ],
      "name": "getJobStatus",
      "outputs": [
        {
          "name": "",
          "type": "bool"
        }
      ],
      "payable": false,
      "stateMutability": "view",
      "type": "function"
    },
    {
      "constant": true,
      "inputs": [
        {
          "name": "_boardId",
          "type": "uint256"
        },
        {
          "name": "_user",
          "type": "address"
        }
      ],
      "name": "getUserStatus",
      "outputs": [
        {
          "name": "",
          "type": "bool"
        }
      ],
      "payable": false,
      "stateMutability": "view",
      "type": "function"
    },
    {
      "constant": true,
      "inputs": [
        {
          "name": "_jobId",
          "type": "uint256"
        }
      ],
      "name": "getJobsBoard",
      "outputs": [
        {
          "name": "",
          "type": "uint256"
        }
      ],
      "payable": false,
      "stateMutability": "view",
      "type": "function"
    },
    {
      "constant": true,
      "inputs": [
        {
          "name": "_jobId",
          "type": "uint256"
        }
      ],
      "name": "getBoardIpfsHash",
      "outputs": [
        {
          "name": "",
          "type": "bytes32"
        }
      ],
      "payable": false,
      "stateMutability": "view",
      "type": "function"
    },
    {
      "constant": true,
      "inputs": [
        {
          "name": "_ids",
          "type": "uint256[]"
        }
      ],
      "name": "getBoardsByIds",
      "outputs": [
        {
          "name": "_gotIds",
          "type": "uint256[]"
        },
        {
          "name": "_creators",
          "type": "address[]"
        },
        {
          "name": "_ipfs",
          "type": "bytes32[]"
        },
        {
          "name": "_tags",
          "type": "uint256[]"
        },
        {
          "name": "_tagsAreas",
          "type": "uint256[]"
        },
        {
          "name": "_tagsCategories",
          "type": "uint256[]"
        },
        {
          "name": "_status",
          "type": "bool[]"
        }
      ],
      "payable": false,
      "stateMutability": "view",
      "type": "function"
    },
    {
      "constant": true,
      "inputs": [
        {
          "name": "_tags",
          "type": "uint256"
        },
        {
          "name": "_tagsArea",
          "type": "uint256"
        },
        {
          "name": "_tagsCategory",
          "type": "uint256"
        },
        {
          "name": "_fromId",
          "type": "uint256"
        },
        {
          "name": "_maxLen",
          "type": "uint256"
        }
      ],
      "name": "getBoards",
      "outputs": [
        {
          "name": "_ids",
          "type": "uint256[]"
        }
      ],
      "payable": false,
      "stateMutability": "view",
      "type": "function"
    },
    {
      "constant": true,
      "inputs": [
        {
          "name": "_user",
          "type": "address"
        },
        {
          "name": "_tags",
          "type": "uint256"
        },
        {
          "name": "_tagsArea",
          "type": "uint256"
        },
        {
          "name": "_tagsCategory",
          "type": "uint256"
        }
      ],
      "name": "getBoardsForUser",
      "outputs": [
        {
          "name": "_ids",
          "type": "uint256[]"
        }
      ],
      "payable": false,
      "stateMutability": "view",
      "type": "function"
    },
    {
      "constant": true,
      "inputs": [
        {
          "name": "_boardId",
          "type": "uint256"
        }
      ],
      "name": "getJobsInBoardCount",
      "outputs": [
        {
          "name": "",
          "type": "uint256"
        }
      ],
      "payable": false,
      "stateMutability": "view",
      "type": "function"
    },
    {
      "constant": true,
      "inputs": [
        {
          "name": "_boardId",
          "type": "uint256"
        },
        {
          "name": "_jobState",
          "type": "uint256"
        },
        {
          "name": "_fromIdx",
          "type": "uint256"
        },
        {
          "name": "_maxLen",
          "type": "uint256"
        }
      ],
      "name": "getJobsInBoard",
      "outputs": [
        {
          "name": "_ids",
          "type": "uint256[]"
        }
      ],
      "payable": false,
      "stateMutability": "view",
      "type": "function"
    },
    {
      "constant": false,
      "inputs": [
        {
          "name": "_tags",
          "type": "uint256"
        },
        {
          "name": "_tagsArea",
          "type": "uint256"
        },
        {
          "name": "_tagsCategory",
          "type": "uint256"
        },
        {
          "name": "_ipfsHash",
          "type": "bytes32"
        }
      ],
      "name": "createBoard",
      "outputs": [
        {
          "name": "",
          "type": "uint256"
        }
      ],
      "payable": false,
      "stateMutability": "nonpayable",
      "type": "function"
    },
    {
      "constant": false,
      "inputs": [
        {
          "name": "_boardId",
          "type": "uint256"
        },
        {
          "name": "_jobId",
          "type": "uint256"
        }
      ],
      "name": "bindJobWithBoard",
      "outputs": [
        {
          "name": "",
          "type": "uint256"
        }
      ],
      "payable": false,
      "stateMutability": "nonpayable",
      "type": "function"
    },
    {
      "constant": false,
      "inputs": [
        {
          "name": "_boardId",
          "type": "uint256"
        },
        {
          "name": "_user",
          "type": "address"
        }
      ],
      "name": "bindUserWithBoard",
      "outputs": [
        {
          "name": "",
          "type": "uint256"
        }
      ],
      "payable": false,
      "stateMutability": "nonpayable",
      "type": "function"
    },
    {
      "constant": false,
      "inputs": [
        {
          "name": "_boardId",
          "type": "uint256"
        },
        {
          "name": "_user",
          "type": "address"
        }
      ],
      "name": "unbindUserFromBoard",
      "outputs": [
        {
          "name": "",
          "type": "uint256"
        }
      ],
      "payable": false,
      "stateMutability": "nonpayable",
      "type": "function"
    },
    {
      "constant": false,
      "inputs": [
        {
          "name": "_boardId",
          "type": "uint256"
        }
      ],
      "name": "closeBoard",
      "outputs": [
        {
          "name": "",
          "type": "uint256"
        }
      ],
      "payable": false,
      "stateMutability": "nonpayable",
      "type": "function"
    },
    {
      "constant": false,
      "inputs": [
        {
          "name": "_boardId",
          "type": "uint256"
        },
        {
          "name": "_creator",
          "type": "address"
        },
        {
          "name": "_tags",
          "type": "uint256"
        },
        {
          "name": "_tagsArea",
          "type": "uint256"
        },
        {
          "name": "_tagsCategory",
          "type": "uint256"
        },
        {
          "name": "_ipfsHash",
          "type": "bytes32"
        },
        {
          "name": "_boardStatus",
          "type": "bool"
        }
      ],
      "name": "emitBoardCreated",
      "outputs": [],
      "payable": false,
      "stateMutability": "nonpayable",
      "type": "function"
    },
    {
      "constant": false,
      "inputs": [
        {
          "name": "_boardId",
          "type": "uint256"
        },
        {
          "name": "_jobId",
          "type": "uint256"
        },
        {
          "name": "_status",
          "type": "bool"
        }
      ],
      "name": "emitJobBinded",
      "outputs": [],
      "payable": false,
      "stateMutability": "nonpayable",
      "type": "function"
    },
    {
      "constant": false,
      "inputs": [
        {
          "name": "_boardId",
          "type": "uint256"
        },
        {
          "name": "_user",
          "type": "address"
        },
        {
          "name": "_status",
          "type": "bool"
        }
      ],
      "name": "emitUserBinded",
      "outputs": [],
      "payable": false,
      "stateMutability": "nonpayable",
      "type": "function"
    },
    {
      "constant": false,
      "inputs": [
        {
          "name": "_boardId",
          "type": "uint256"
        },
        {
          "name": "_status",
          "type": "bool"
        }
      ],
      "name": "emitBoardClosed",
      "outputs": [],
      "payable": false,
      "stateMutability": "nonpayable",
      "type": "function"
    }
  ],
  "bytecode": "0x606060405234156200001057600080fd5b6040516060806200250e83398101604052808051919060200180519190602001805191508190508383620000556000838364010000000062001e786200030982021704565b505060038054600160a060020a031916600160a060020a0392909216919091179055620000b260047f6a6f62734461746150726f7669646572000000000000000000000000000000006401000000006200032f810262001eab1704565b620000ed60057f626f61726473436f756e7400000000000000000000000000000000000000000064010000000062001eab6200032f82021704565b6200012860067f626f61726443726561746f72000000000000000000000000000000000000000064010000000062001ec76200034f82021704565b6200016360087f626f61726454616773417265610000000000000000000000000000000000000064010000000062001ec76200034f82021704565b6200019e60097f626f6172645461677343617465676f727900000000000000000000000000000064010000000062001ec76200034f82021704565b620001d9600a7f626f61726454616773000000000000000000000000000000000000000000000064010000000062001ec76200034f82021704565b62000214600c7f6a6f6273426f617264000000000000000000000000000000000000000000000064010000000062001ec76200034f82021704565b6200024f600b7f626f61726453746174757300000000000000000000000000000000000000000064010000000062001ec76200034f82021704565b6200028a60077f626f61726449706673486173680000000000000000000000000000000000000064010000000062001ec76200034f82021704565b620002c5600d7f75736572426f617264730000000000000000000000000000000000000000000064010000000062001ef36200036d82021704565b6200030060107f626f756e644a6f6273496e426f6172640000000000000000000000000000000064010000000062001ef36200036d82021704565b505050620004c4565b8254600160a060020a031916600160a060020a0392909216919091178255600190910155565b81546200034b908264010000000062001efd6200038782021704565b9055565b62000369828264010000000062001eab6200032f82021704565b5050565b62000369828264010000000062001f1f6200039f82021704565b8115158062000394575080155b156200036957600080fd5b62000369828264010000000062001f25620003b982021704565b6200041082826040519081527f636f756e74000000000000000000000000000000000000000000000000000000602082015260250160405180910390206200032f6401000000000262001eab176401000000009004565b6200046a82600101826040519081527f696e646578657300000000000000000000000000000000000000000000000000602082015260270160405180910390206200032f6401000000000262001eab176401000000009004565b6200036982600201826040519081527f76616c7565730000000000000000000000000000000000000000000000000000602082015260260160405180910390206200032f6401000000000262001eab176401000000009004565b61203a80620004d46000396000f30060606040526004361061013a5763ffffffff60e060020a60003504166302927d20811461013f57806318caa857146101705780631d13270214610190578063210c1f29146101af5780632637cd7d146101c55780633e7d081a146101e45780635d1a1be8146101ff57806366c31f121461027a5780636aa084d7146102a15780637db83ae4146102cb5780638834277e146102fe5780638c0ec2ac14610314578063a2dcb5d414610333578063ad61ebea14610355578063b1852c721461036b578063b1bf051014610381578063bde842ac14610397578063c4e9311b146103b0578063cf62dd61146103c9578063dd2b7493146103eb578063e575df721461040a578063e90459f81461042c578063e92c58a214610442578063f4d44b7214610683578063f69191b214610696578063fff10aba146106b8575b600080fd5b341561014a57600080fd5b61015e600160a060020a03600435166106e7565b60405190815260200160405180910390f35b341561017b57600080fd5b61018e600435602435604435151561078b565b005b341561019b57600080fd5b61015e6004356024356044356064356107de565b34156101ba57600080fd5b61015e60043561097a565b34156101d057600080fd5b61015e600160a060020a0360043516610a50565b34156101ef57600080fd5b61018e6004356024351515610afd565b341561020a57600080fd5b610227600160a060020a0360043516602435604435606435610b48565b60405160208082528190810183818151815260200191508051906020019060200280838360005b8381101561026657808201518382015260200161024e565b505050509050019250505060405180910390f35b341561028557600080fd5b61018e600435600160a060020a03602435166044351515610bfd565b34156102ac57600080fd5b6102b7600435610c5a565b604051901515815260200160405180910390f35b34156102d657600080fd5b61018e600435600160a060020a036024351660443560643560843560a43560c4351515610c74565b341561030957600080fd5b61018e600435610cf8565b341561031f57600080fd5b610227600435602435604435606435610d3f565b341561033e57600080fd5b61015e600435600160a060020a0360243516610e98565b341561036057600080fd5b61015e600435610f1a565b341561037657600080fd5b61015e600435610f2e565b341561038c57600080fd5b61015e600435610f42565b34156103a257600080fd5b6102b7600435602435610f56565b34156103bb57600080fd5b61015e600435602435610f72565b34156103d457600080fd5b61015e600435600160a060020a0360243516610ff3565b34156103f657600080fd5b61015e600160a060020a0360043516611049565b341561041557600080fd5b6102b7600435600160a060020a03602435166110df565b341561043757600080fd5b61018e6004356110fd565b341561044d57600080fd5b610491600460248135818101908301358060208181020160405190810160405280939291908181526020018383602002808284375094965061114495505050505050565b604051808060200180602001806020018060200180602001806020018060200188810388528f818151815260200191508051906020019060200280838360005b838110156104e95780820151838201526020016104d1565b5050505090500188810387528e818151815260200191508051906020019060200280838360005b83811015610528578082015183820152602001610510565b5050505090500188810386528d818151815260200191508051906020019060200280838360005b8381101561056757808201518382015260200161054f565b5050505090500188810385528c818151815260200191508051906020019060200280838360005b838110156105a657808201518382015260200161058e565b5050505090500188810384528b818151815260200191508051906020019060200280838360005b838110156105e55780820151838201526020016105cd565b5050505090500188810383528a818151815260200191508051906020019060200280838360005b8381101561062457808201518382015260200161060c565b50505050905001888103825289818151815260200191508051906020019060200280838360005b8381101561066357808201518382015260200161064b565b505050509050019e50505050505050505050505050505060405180910390f35b341561068e57600080fd5b61015e61138a565b34156106a157600080fd5b6102276004356024356044356064356084356113a2565b34156106c357600080fd5b6106cb611423565b604051600160a060020a03909116815260200160405180910390f35b60006106ff33600035600160e060020a031916611432565b151561076257600080516020611fef8339815191523033600035600160e060020a031916604051600160a060020a039384168152919092166020820152600160e060020a03199091166040808301919091526060909101905180910390a1610786565b600160a060020a038216151561077757600080fd5b61078082611506565b50600190505b919050565b82610794611537565b600160a060020a03167f0d7a6068901e5d084e217c5d1cb95a043d68ba086fb08b63cf78a444ad53c3c08484604051918252151560208201526040908101905180910390a3505050565b6000806107f733600035600160e060020a031916611432565b151561085a57600080516020611fef8339815191523033600035600160e060020a031916604051600160a060020a039384168152919092166020820152600160e060020a03199091166040808301919091526060909101905180910390a1610971565b846108648161153b565b1580610876575061087481611552565b155b156108805761096f565b8461088a8161153b565b158061089c575061089a81611552565b155b156108a65761096d565b878015156108b35761096b565b6108c56000600563ffffffff61157816565b60010193506108dd600060058663ffffffff6115d716565b6108f160006006863363ffffffff61165016565b61090560006008868b63ffffffff61166b16565b61091960006009868a63ffffffff61166b16565b61092d6000600a868c63ffffffff61166b16565b6109426000600b86600163ffffffff61167716565b61095660006007868963ffffffff61166b16565b61096684338b8b8b8b600161168b565b600194505b505b505b505b50949350505050565b600061099233600035600160e060020a031916611432565b15156109f557600080516020611fef8339815191523033600035600160e060020a031916604051600160a060020a039384168152919092166020820152600160e060020a03199091166040808301919091526060909101905180910390a1610786565b816000610a0a81600b8463ffffffff61172c16565b1515610a2757610a1b612afc611749565b90508060005260206000f35b610a3b6000600b868263ffffffff61167716565b610a468460006117b2565b5060019392505050565b6000610a6833600035600160e060020a031916611432565b1515610acb57600080516020611fef8339815191523033600035600160e060020a031916604051600160a060020a039384168152919092166020820152600160e060020a03199091166040808301919091526060909101905180910390a1610786565b5060038054600160a060020a03831673ffffffffffffffffffffffffffffffffffffffff199091161790556001919050565b81610b06611537565b600160a060020a03167fd446dbede0f6a2859d1fee85f220959b0d3421ac2a84baf4f8ae9f3ad43369b683604051901515815260200160405180910390a35050565b610b50611e66565b6000808080610b7081600d600160a060020a038c1663ffffffff61181f16565b935083604051805910610b805750595b9080825280602002602001820160405250945060009250600091505b83821161096b57610bc06000600d600160a060020a038c168563ffffffff61182c16565b9050610bce81898989611843565b15610bf25780858481518110610be057fe5b60209081029091010152600192909201915b816001019150610b9c565b82610c06611537565b600160a060020a03167f59607a2b26de9cec195f2d07833fd103d142795d3d3b8eff92a531e1094e76a38484604051600160a060020a039092168252151560208201526040908101905180910390a3505050565b6000610c6e81600b8463ffffffff61172c16565b92915050565b86610c7d611537565b600160a060020a03167f6d8832dbab0e20cb68b282a7823d527b4fa6c776574a29acb36d50ce70cd52e0888888888888604051600160a060020a03909616865260208601949094526040808601939093526060850191909152608084015290151560a083015260c0909101905180910390a350505050505050565b610d00611537565b600160a060020a03167f09e0713b45664e161c202b19bb4574ee83dfa056f9bfdee56847b3971d9682218260405190815260200160405180910390a250565b610d47611e66565b600080808080610d5f8160108c63ffffffff61181f16565b9450848810610d6d57600080fd5b8487890110610d7e57878503610d80565b865b9650610d946000600463ffffffff6118a616565b935086604051805910610da45750595b90808252806020026020018201604052509550600092508791505b8787018211610e8b57610ddc600060108c8563ffffffff61182c16565b9050600160a060020a0384161580610e5c57508884600160a060020a03166353bc1c128360006040516020015260405160e060020a63ffffffff84160281526004810191909152602401602060405180830381600087803b1515610e3f57600080fd5b6102c65a03f11515610e5057600080fd5b50505060405180519050145b15610e805780868481518110610e6e57fe5b60209081029091010152600192909201915b816001019150610dbf565b5050505050949350505050565b600082826000610ea883836110df565b151560011415610ebd57610a1b612afa611749565b856000610ed281600b8463ffffffff61172c16565b1515610ee357610a1b612afc611749565b610f006000600d600160a060020a038a168b63ffffffff61190516565b610f0c88886001611911565b506001979650505050505050565b6000610c6e8160078463ffffffff61197716565b6000610c6e8160108463ffffffff61181f16565b6000610c6e81600c8463ffffffff61197716565b6000610f6b816010858563ffffffff61198416565b9392505050565b6000828282610f8981600c8463ffffffff61197716565b15610f9957610a1b612af9611749565b856000610fae81600b8463ffffffff61172c16565b1515610fbf57610a1b612afc611749565b610fd36000600c898b63ffffffff61166b16565b610fe7600060108a8a63ffffffff61190516565b610f0c88886001611992565b60008282600061100383836110df565b151561101457610a1b612afb611749565b6110316000600d600160a060020a0388168963ffffffff6119f016565b61103d86866000611911565b50600195945050505050565b600061106133600035600160e060020a031916611432565b15156110c457600080516020611fef8339815191523033600035600160e060020a031916604051600160a060020a039384168152919092166020820152600160e060020a03199091166040808301919091526060909101905180910390a1610786565b6110d7600060048463ffffffff6119fc16565b506001919050565b6000610f6b81600d600160a060020a0385168663ffffffff61198416565b611105611537565b600160a060020a03167fbb8f0c1d8804cd86e7873ec11cb00af945c8c0ebd061a68b28617034803464158260405190815260200160405180910390a250565b61114c611e66565b611154611e66565b61115c611e66565b611164611e66565b61116c611e66565b611174611e66565b61117c611e66565b60008089985089516040518059106111915750595b9080825280602002602001820160405250975089516040518059106111b35750595b9080825280602002602001820160405250965089516040518059106111d55750595b9080825280602002602001820160405250955089516040518059106111f75750595b9080825280602002602001820160405250945089516040518059106112195750595b90808252806020026020018201604052509350895160405180591061123b5750595b90808252806020026020018201604052509250600091505b895182101561137d5789828151811061126857fe5b906020019060200201519050611287600060068363ffffffff61197716565b88838151811061129357fe5b600160a060020a039092166020928302909101909101526112bd600060078363ffffffff61197716565b8783815181106112c957fe5b602090810290910101526112e66000600a8363ffffffff61197716565b8683815181106112f257fe5b6020908102909101015261130f600060088363ffffffff61197716565b85838151811061131b57fe5b60209081029091010152611338600060098363ffffffff61197716565b84838151811061134457fe5b6020908102909101015261135781610c5a565b83838151811061136357fe5b911515602092830290910190910152600190910190611253565b5050919395979092949650565b600061139d81600563ffffffff61157816565b905090565b6113aa611e66565b600080836040518059106113bb5750595b90808252806020026020018201604052509250600091508490505b838501811015611418576113ec81898989611843565b1561141057808383815181106113fe57fe5b60209081029091010152600191909101905b6001016113d6565b505095945050505050565b600254600160a060020a031690565b600030600160a060020a031683600160a060020a0316141561145657506001610c6e565b600354600160a060020a0316151561147057506000610c6e565b600354600160a060020a031663b700961384308560006040516020015260405160e060020a63ffffffff8616028152600160a060020a039384166004820152919092166024820152600160e060020a03199091166044820152606401602060405180830381600087803b15156114e557600080fd5b6102c65a03f115156114f657600080fd5b5050506040518051949350505050565b60028054600160a060020a03831673ffffffffffffffffffffffffffffffffffffffff199091161790556001919050565b3390565b60008115801590610c6e5750506000198101161590565b7faaaaaaaaaaaaaaaaaaaaaaaaaaaaaaaaaaaaaaaaaaaaaaaaaaaaaaaaaaaaaaaa161590565b815460018301548254600092600160a060020a0316916353aa3f5e91846040516020015260405160e060020a63ffffffff851602815260048101929092526024820152604401602060405180830381600087803b15156114e557600080fd5b825460018401548354600160a060020a03909216916353e7168b91908460405160e060020a63ffffffff8616028152600481019390935260248301919091526044820152606401600060405180830381600087803b151561163757600080fd5b6102c65a03f1151561164857600080fd5b505050505050565b611665848484600160a060020a038516611a65565b50505050565b61166584848484611a65565b61166584848461168685611af7565b611a65565b611693611423565b600160a060020a0316637db83ae48888888888888860405160e060020a63ffffffff8a160281526004810197909752600160a060020a03909516602487015260448601939093526064850191909152608484015260a4830152151560c482015260e401600060405180830381600087803b151561170f57600080fd5b6102c65a03f1151561172057600080fd5b50505050505050505050565b600061174161173c858585611b11565b611bab565b949350505050565b6000611753611423565b600160a060020a0316638834277e8360405160e060020a63ffffffff84160281526004810191909152602401600060405180830381600087803b151561179857600080fd5b6102c65a03f115156117a957600080fd5b50929392505050565b6117ba611423565b600160a060020a0316633e7d081a838360405160e060020a63ffffffff8516028152600481019290925215156024820152604401600060405180830381600087803b151561180757600080fd5b6102c65a03f1151561181857600080fd5b5050505050565b6000611741848484611bb0565b600061183a85858585611bbd565b95945050505050565b600061186061185a82600a8863ffffffff61197716565b85611bcb565b8015611883575061188361187d600060088863ffffffff61197716565b84611bcb565b801561183a575061183a6118a0600060098863ffffffff61197716565b83611bcb565b815460018301548254600092600160a060020a03169163d3a3968691846040516020015260405160e060020a63ffffffff851602815260048101929092526024820152604401602060405180830381600087803b15156114e557600080fd5b61166584848484611bd1565b611919611423565b600160a060020a03166366c31f1284848460405160e060020a63ffffffff86160281526004810193909352600160a060020a03909116602483015215156044820152606401600060405180830381600087803b151561163757600080fd5b6000611741848484611b11565b600061183a85858585611bdd565b61199a611423565b600160a060020a03166318caa85784848460405160e060020a63ffffffff86160281526004810193909352602483019190915215156044820152606401600060405180830381600087803b151561163757600080fd5b61166584848484611beb565b825460018401548354600160a060020a03909216916379a7cfee91908460405160e060020a63ffffffff861602815260048101939093526024830191909152600160a060020a03166044820152606401600060405180830381600087803b151561163757600080fd5b835460018501548454600160a060020a039092169163a14ff85791908560405191825260208201526040908101905180910390208460405160e060020a63ffffffff8616028152600481019390935260248301919091526044820152606401600060405180830381600087803b1515611add57600080fd5b6102c65a03f11515611aee57600080fd5b50505050505050565b600081611b05576000611b08565b60015b60ff1692915050565b825460018401548354600092600160a060020a0316916337d9d7fc9185604051918252602082015260409081019051809103902060006040516020015260405160e060020a63ffffffff851602815260048101929092526024820152604401602060405180830381600087803b1515611b8957600080fd5b6102c65a03f11515611b9a57600080fd5b505050604051805195945050505050565b151590565b6000611741848484611bf7565b600061183a85858585611c04565b16151590565b61166584848484611c18565b600061183a85858585611c6c565b61166584848484611c88565b6000611741848484611d2d565b600061183a85600286018560018601611da5565b6000611c2685858585611c6c565b15611c3057611818565b611c3b858585611bf7565b6001019050611c508560028601858486611dca565b611c608560018601858585611dca565b61181885858584611dee565b6000611c7d85856001018585611da5565b151595945050505050565b6000806000611c9987878787611c6c565b1515611ca457611aee565b611caf878787611bf7565b9250611cc087600288018786611da5565b9150611cd187876001018787611da5565b905082811015611cfb57611ceb8760018801878585611dca565b611cfb8760028801878486611dca565b611d0c876001880187876000611dca565b611d1d876002880187866000611dca565b611aee8787876000198701611dee565b825460018401548354600092600160a060020a0316916353aa3f5e9185604051918252602082015260409081019051809103902060006040516020015260405160e060020a63ffffffff851602815260048101929092526024820152604401602060405180830381600087803b1515611b8957600080fd5b600061183a858585856040519182526020820152604090810190518091039020611b11565b61181885858585604051918252602082015260409081019051809103902084611a65565b835460018501548454600160a060020a03909216916353e7168b91908560405191825260208201526040908101905180910390208460405160e060020a63ffffffff8616028152600481019390935260248301919091526044820152606401600060405180830381600087803b1515611add57600080fd5b60206040519081016040526000815290565b825473ffffffffffffffffffffffffffffffffffffffff1916600160a060020a0392909216919091178255600190910155565b8154611eb79082611efd565b9055565b8154611eb79082611efd565b611ed18282611eab565b5050565b611ed18282611eab565b611ed18282611eab565b611ed18282611eab565b611ed18282611f1f565b81151580611f09575080155b15611ed157600080fd5b8154611eb79082611efd565b611ed182825b611f6682826040519081527f636f756e7400000000000000000000000000000000000000000000000000000060208201526025016040518091039020611eab565b611faa82600101826040519081527f696e64657865730000000000000000000000000000000000000000000000000060208201526027016040518091039020611eab565b611ed182600201826040519081527f76616c756573000000000000000000000000000000000000000000000000000060208201526026016040518091039020611eab56005133a133185f1023427a2e90f18506b27db994977ce0c0faafd514a7dd109ae0a165627a7a723058205e81b578095d748862fc973e519e19ec21b3ea8a95fe4bc120088321a024afd10029",
  "source": "/**\n * Copyright 20172018, LaborX PTY\n * Licensed under the AGPL Version 3 license.\n */\n\npragma solidity ^0.4.18;\n\n\nimport './adapters/StorageAdapter.sol';\nimport './adapters/MultiEventsHistoryAdapter.sol';\nimport './adapters/Roles2LibraryAdapter.sol';\nimport './base/BitOps.sol';\nimport \"./JobsDataProvider.sol\";\n\n\ncontract BoardController is StorageAdapter, MultiEventsHistoryAdapter, Roles2LibraryAdapter, BitOps {\n\n    uint constant BOARD_CONTROLLER_SCOPE = 11000;\n    uint constant BOARD_CONTROLLER_JOB_IS_ALREADY_BINDED = BOARD_CONTROLLER_SCOPE + 1;\n    uint constant BOARD_CONTROLLER_USER_IS_ALREADY_BINDED = BOARD_CONTROLLER_SCOPE + 2;\n    uint constant BOARD_CONTROLLER_USER_IS_NOT_BINDED = BOARD_CONTROLLER_SCOPE + 3;\n    uint constant BOARD_CONTROLLER_BOARD_IS_CLOSED = BOARD_CONTROLLER_SCOPE + 4;\n\n    event BoardCreated(\n        address indexed self,\n        uint indexed boardId,\n        address creator,\n        uint boardTags,\n        uint boardTagsArea,\n        uint boardTagsCategory,\n        bytes32 boardIpfsHash,\n        bool status\n    );\n    event JobBinded(address indexed self, uint indexed boardId, uint jobId, bool status);\n    event UserBinded(address indexed self, uint indexed boardId, address user, bool status);\n    event BoardClosed(address indexed self, uint indexed boardId, bool status);\n\n    /// @dev Jobs Data Provider address. Read-only!\n    StorageInterface.Address jobsDataProvider;\n    StorageInterface.UInt boardsCount;\n\n    StorageInterface.UIntAddressMapping boardCreator;\n    StorageInterface.UIntBytes32Mapping boardIpfsHash;\n\n    StorageInterface.UIntUIntMapping boardTagsArea;\n    StorageInterface.UIntUIntMapping boardTagsCategory;\n    StorageInterface.UIntUIntMapping boardTags;\n\n    StorageInterface.UIntBoolMapping boardStatus;\n    StorageInterface.UIntUIntMapping jobsBoard;\n    \n    /// @dev mapping(user address => set(board ids))\n    StorageInterface.UIntSetMapping userBoards;\n    /// @dev mapping(board id => set(job ids))\n    StorageInterface.UIntSetMapping boundJobsInBoard;\n\n    modifier notBindedJobYet(uint _boardId, uint _jobId) {\n        if (store.get(jobsBoard, _jobId) != 0) {\n            uint _resultCode = _emitErrorCode(BOARD_CONTROLLER_JOB_IS_ALREADY_BINDED);\n            assembly {\n                mstore(0, _resultCode)\n                return(0, 32)\n            }\n        }\n        _;\n    }\n\n    modifier notBindedUserYet(uint _boardId, address _user) {\n        if (getUserStatus(_boardId, _user) == true) {\n            uint _resultCode = _emitErrorCode(BOARD_CONTROLLER_USER_IS_ALREADY_BINDED);\n            assembly {\n                mstore(0, _resultCode)\n                return(0, 32)\n            }\n        }\n        _;\n    }\n\n    modifier onlyBoundUser(uint _boardId, address _user) {\n        if (getUserStatus(_boardId, _user) == false) {\n            uint _resultCode = _emitErrorCode(BOARD_CONTROLLER_USER_IS_NOT_BINDED);\n            assembly {\n                mstore(0, _resultCode)\n                return(0, 32)\n            }\n        }\n        _;\n    }\n\n    modifier notClosed(uint _boardId) {\n        if (store.get(boardStatus, _boardId) == false) {\n            uint _resultCode = _emitErrorCode(BOARD_CONTROLLER_BOARD_IS_CLOSED);\n            assembly {\n                mstore(0, _resultCode)\n                return(0, 32)\n            }\n        }\n        _;\n    }\n\n    function BoardController(\n        Storage _store,\n        bytes32 _crate,\n        address _roles2Library\n    )\n    StorageAdapter(_store, _crate)\n    Roles2LibraryAdapter(_roles2Library)\n    public\n    {\n        jobsDataProvider.init(\"jobsDataProvider\");\n        \n        boardsCount.init(\"boardsCount\");\n\n        boardCreator.init(\"boardCreator\");\n\n        boardTagsArea.init(\"boardTagsArea\");\n        boardTagsCategory.init(\"boardTagsCategory\");\n        boardTags.init(\"boardTags\");\n\n        jobsBoard.init(\"jobsBoard\");\n        boardStatus.init(\"boardStatus\");\n\n        boardIpfsHash.init(\"boardIpfsHash\");\n        \n        userBoards.init(\"userBoards\");\n        boundJobsInBoard.init(\"boundJobsInBoard\");\n    }\n\n    function setJobsDataProvider(address _jobsDataProvider) auth external returns (uint) {\n        store.set(jobsDataProvider, _jobsDataProvider);\n        return OK;\n    }\n\n    function setupEventsHistory(address _eventsHistory) auth external returns (uint) {\n        require(_eventsHistory != 0x0);\n\n        _setEventsHistory(_eventsHistory);\n        return OK;\n    }\n\n    function getBoardsCount() public view returns (uint) {\n        return store.get(boardsCount);\n    }\n\n    function getBoardStatus(uint _boardId) public view returns (bool) {\n        return store.get(boardStatus, _boardId);\n    }\n\n    function getJobStatus(uint _boardId, uint _jobId) public view returns (bool) {\n        return store.includes(boundJobsInBoard, bytes32(_boardId), _jobId);\n    }\n\n    function getUserStatus(uint _boardId, address _user) public view returns (bool) {\n        return store.includes(userBoards, bytes32(_user), _boardId);\n    }\n\n    function getJobsBoard(uint _jobId) public view returns (uint) {\n        return store.get(jobsBoard, _jobId);\n    }\n\n    function getBoardIpfsHash(uint _jobId) public view returns (bytes32) {\n        return store.get(boardIpfsHash, _jobId);\n    }\n\n    function getBoardsByIds(uint[] _ids)\n    public\n    view \n    returns (\n        uint[] _gotIds,\n        address[] _creators,\n        bytes32[] _ipfs,\n        uint[] _tags,\n        uint[] _tagsAreas,\n        uint[] _tagsCategories,\n        bool[] _status\n    ) {\n        _gotIds = _ids;\n        _creators = new address[](_ids.length);\n        _ipfs = new bytes32[](_ids.length);\n        _tags = new uint[](_ids.length);\n        _tagsAreas = new uint[](_ids.length);\n        _tagsCategories = new uint[](_ids.length);\n        _status = new bool[](_ids.length);\n\n        for (uint _idIdx = 0; _idIdx < _ids.length; ++_idIdx) {\n            uint _id = _ids[_idIdx];\n            _creators[_idIdx] = store.get(boardCreator, _id);\n            _ipfs[_idIdx] = store.get(boardIpfsHash, _id);\n            _tags[_idIdx] = store.get(boardTags, _id);\n            _tagsAreas[_idIdx] = store.get(boardTagsArea, _id);\n            _tagsCategories[_idIdx] = store.get(boardTagsCategory, _id);\n            _status[_idIdx] = getBoardStatus(_id);\n        }\n    }\n\n    /// @notice Gets filtered list of boards' ids in paginated way across all created boards\n    function getBoards(\n        uint _tags, \n        uint _tagsArea, \n        uint _tagsCategory, \n        uint _fromId, \n        uint _maxLen\n    ) \n    public \n    view \n    returns (uint[] _ids) \n    {\n        _ids = new uint[](_maxLen);\n        uint _pointer = 0;\n        for (uint _id = _fromId; _id < _fromId + _maxLen; ++_id) {\n            if (_filterBoard(_id, _tags, _tagsArea, _tagsCategory)) {\n                _ids[_pointer] = _id;\n                _pointer += 1;\n            }\n        }\n    }\n\n    /// @notice Gets filtered boards for bound user \n    /// where boards have provided properties (tags, \n    /// tags area, tags category)\n    function getBoardsForUser(\n        address _user, \n        uint _tags, \n        uint _tagsArea, \n        uint _tagsCategory\n    )  \n    public \n    view \n    returns (uint[] _ids) \n    {\n        uint _count = store.count(userBoards, bytes32(_user));\n        _ids = new uint[](_count);\n        uint _pointer = 0;\n        for (uint _boardIdx = 0; _boardIdx <= _count; ++_boardIdx) {\n            uint _boardId = store.get(userBoards, bytes32(_user), _boardIdx);\n            if (_filterBoard(_boardId, _tags, _tagsArea, _tagsCategory)) {\n                _ids[_pointer] = _boardId;\n                _pointer += 1;\n            }\n        }\n    }\n\n    function _filterBoard(\n        uint _boardId,\n        uint _tags, \n        uint _tagsArea, \n        uint _tagsCategory \n    ) \n    private \n    view \n    returns (bool) \n    {\n        return _hasFlag(store.get(boardTags, _boardId), _tags) &&\n            _hasFlag(store.get(boardTagsArea, _boardId), _tagsArea) &&\n            _hasFlag(store.get(boardTagsCategory, _boardId), _tagsCategory);   \n    }\n    \n    function getJobsInBoardCount(uint _boardId) public view returns (uint) {\n        return store.count(boundJobsInBoard, bytes32(_boardId));\n    }\n\n    /// @notice Gets jobs ids that a binded with a provided board\n    /// in a paginated way\n    function getJobsInBoard(\n        uint _boardId, \n        uint _jobState, \n        uint _fromIdx, \n        uint _maxLen\n    )\n    public\n    view\n    returns (uint[] _ids) {\n        uint _count = store.count(boundJobsInBoard, bytes32(_boardId));\n        require(_fromIdx < _count);\n        _maxLen = (_fromIdx + _maxLen < _count) ? _maxLen : (_count - _fromIdx);\n        JobsDataProvider _jobsDataProvider = JobsDataProvider(store.get(jobsDataProvider));\n        _ids = new uint[](_maxLen);\n        uint _pointer = 0;\n        for (uint _jobIdx = _fromIdx; _jobIdx <= _fromIdx + _maxLen; ++_jobIdx) {\n            uint _jobId = store.get(boundJobsInBoard, bytes32(_boardId), _jobIdx);\n            if (address(_jobsDataProvider) == 0x0 || \n                _jobsDataProvider.getJobState(_jobId) == _jobState\n            ) {\n                _ids[_pointer] = _jobId;\n                _pointer += 1;\n            }\n        }\n    }\n\n    function createBoard(\n        uint _tags,\n        uint _tagsArea,\n        uint _tagsCategory,\n        bytes32 _ipfsHash\n    )\n    auth\n    singleOddFlag(_tagsArea)\n    singleOddFlag(_tagsCategory)\n    hasFlags(_tags)\n    external\n    returns (uint)\n    {\n        uint boardId = store.get(boardsCount) + 1;\n        store.set(boardsCount, boardId);\n        store.set(boardCreator, boardId, msg.sender);\n        store.set(boardTagsArea, boardId, _tagsArea);\n        store.set(boardTagsCategory, boardId, _tagsCategory);\n        store.set(boardTags, boardId, _tags);\n        store.set(boardStatus, boardId, true);\n        store.set(boardIpfsHash, boardId, _ipfsHash);\n        _emitBoardCreated(boardId, msg.sender, _tags, _tagsArea, _tagsCategory, _ipfsHash, true);\n        return OK;\n    }\n\n    function bindJobWithBoard(\n        uint _boardId,\n        uint _jobId\n    )\n    notBindedJobYet(_boardId, _jobId)\n    notClosed(_boardId)\n    public\n    returns (uint)\n    {\n        store.set(jobsBoard, _jobId, _boardId);\n        store.add(boundJobsInBoard, bytes32(_boardId), _jobId);\n        _emitJobBinded(_boardId, _jobId, true);\n        return OK;\n    }\n\n    function bindUserWithBoard(\n        uint _boardId,\n        address _user\n    )\n    notBindedUserYet(_boardId, _user)\n    notClosed(_boardId)\n    public\n    returns (uint)\n    {\n        store.add(userBoards, bytes32(_user), _boardId);\n        _emitUserBinded(_boardId, _user, true);\n        return OK;\n    }\n\n    function unbindUserFromBoard(\n        uint _boardId,\n        address _user\n    )\n    onlyBoundUser(_boardId, _user)\n    public \n    returns (uint) \n    {\n        store.remove(userBoards, bytes32(_user), _boardId);\n        _emitUserBinded(_boardId, _user, false);\n        return OK;\n    }\n\n    function closeBoard(\n        uint _boardId\n    )\n    auth\n    notClosed(_boardId)\n    external\n    returns (uint)\n    {\n        store.set(boardStatus, _boardId, false);\n        _emitBoardClosed(_boardId, false);\n        return OK;\n    }\n\n    function _emitBoardCreated(\n        uint _boardId,\n        address _creator,\n        uint _tags,\n        uint _tagsArea,\n        uint _tagsCategory,\n        bytes32 _ipfsHash,\n        bool _boardStatus\n    )\n    internal\n    {\n        BoardController(getEventsHistory()).emitBoardCreated(\n            _boardId,\n            _creator,\n            _tags,\n            _tagsArea,\n            _tagsCategory,\n            _ipfsHash,\n            _boardStatus\n        );\n    }\n\n    function emitBoardCreated(\n        uint _boardId,\n        address _creator,\n        uint _tags,\n        uint _tagsArea,\n        uint _tagsCategory,\n        bytes32 _ipfsHash,\n        bool _boardStatus\n    )\n    public\n    {\n        BoardCreated(\n            _self(),\n            _boardId,\n            _creator,\n            _tags,\n            _tagsArea,\n            _tagsCategory,\n            _ipfsHash,\n            _boardStatus\n        );\n    }\n\n    function emitJobBinded(uint _boardId, uint _jobId, bool _status) public {\n        JobBinded(_self(), _boardId, _jobId, _status);\n    }\n\n    function emitUserBinded(uint _boardId, address _user, bool _status) public {\n        UserBinded(_self(), _boardId, _user, _status);\n    }\n\n    function emitBoardClosed(uint _boardId, bool _status) public {\n        BoardClosed(_self(), _boardId, _status);\n    }\n\n    /* INTERNAL */\n\n    function _emitJobBinded(uint _boardId, uint _jobId, bool _status) internal {\n        BoardController(getEventsHistory()).emitJobBinded(_boardId, _jobId, _status);\n    }\n\n    function _emitUserBinded(uint _boardId, address _user, bool _status) internal {\n        BoardController(getEventsHistory()).emitUserBinded(_boardId, _user, _status);\n    }\n\n    function _emitBoardClosed(uint _boardId, bool _status) internal {\n        BoardController(getEventsHistory()).emitBoardClosed(_boardId, _status);\n    }\n}\n",
  "sourcePath": "/Users/alesanro/Documents/Projects/ChronoBank/LX-SC/contracts/BoardController.sol",
  "compiler": {
    "name": "solc",
    "version": "0.4.19+commit.c4cbbb05.Emscripten.clang"
  },
  "schemaVersion": "2.0.0",
  "updatedAt": "2018-06-05T15:27:15.730Z"
}