{
  "contractName": "BoardController",
  "abi": [
    {
      "constant": false,
      "inputs": [
        {
          "name": "_roles2Library",
          "type": "address"
        }
      ],
      "name": "setRoles2Library",
      "outputs": [
        {
          "name": "",
          "type": "uint256"
        }
      ],
      "payable": false,
      "stateMutability": "nonpayable",
      "type": "function"
    },
    {
      "constant": false,
      "inputs": [
        {
          "name": "_errorCode",
          "type": "uint256"
        }
      ],
      "name": "emitErrorCode",
      "outputs": [],
      "payable": false,
      "stateMutability": "nonpayable",
      "type": "function"
    },
    {
      "constant": false,
      "inputs": [
        {
          "name": "_msg",
          "type": "bytes32"
        }
      ],
      "name": "emitError",
      "outputs": [],
      "payable": false,
      "stateMutability": "nonpayable",
      "type": "function"
    },
    {
      "constant": true,
      "inputs": [],
      "name": "getEventsHistory",
      "outputs": [
        {
          "name": "",
          "type": "address"
        }
      ],
      "payable": false,
      "stateMutability": "view",
      "type": "function"
    },
    {
      "inputs": [
        {
          "name": "_store",
          "type": "address"
        },
        {
          "name": "_crate",
          "type": "bytes32"
        },
        {
          "name": "_roles2Library",
          "type": "address"
        }
      ],
      "payable": false,
      "stateMutability": "nonpayable",
      "type": "constructor"
    },
    {
      "anonymous": false,
      "inputs": [
        {
          "indexed": true,
          "name": "self",
          "type": "address"
        },
        {
          "indexed": true,
          "name": "boardId",
          "type": "uint256"
        },
        {
          "indexed": false,
          "name": "creator",
          "type": "address"
        },
        {
          "indexed": false,
          "name": "boardTags",
          "type": "uint256"
        },
        {
          "indexed": false,
          "name": "boardTagsArea",
          "type": "uint256"
        },
        {
          "indexed": false,
          "name": "boardTagsCategory",
          "type": "uint256"
        },
        {
          "indexed": false,
          "name": "boardIpfsHash",
          "type": "bytes32"
        },
        {
          "indexed": false,
          "name": "status",
          "type": "bool"
        }
      ],
      "name": "BoardCreated",
      "type": "event"
    },
    {
      "anonymous": false,
      "inputs": [
        {
          "indexed": true,
          "name": "self",
          "type": "address"
        },
        {
          "indexed": true,
          "name": "boardId",
          "type": "uint256"
        },
        {
          "indexed": false,
          "name": "jobId",
          "type": "uint256"
        },
        {
          "indexed": false,
          "name": "status",
          "type": "bool"
        }
      ],
      "name": "JobBinded",
      "type": "event"
    },
    {
      "anonymous": false,
      "inputs": [
        {
          "indexed": true,
          "name": "self",
          "type": "address"
        },
        {
          "indexed": true,
          "name": "boardId",
          "type": "uint256"
        },
        {
          "indexed": false,
          "name": "user",
          "type": "address"
        },
        {
          "indexed": false,
          "name": "status",
          "type": "bool"
        }
      ],
      "name": "UserBinded",
      "type": "event"
    },
    {
      "anonymous": false,
      "inputs": [
        {
          "indexed": true,
          "name": "self",
          "type": "address"
        },
        {
          "indexed": true,
          "name": "boardId",
          "type": "uint256"
        },
        {
          "indexed": false,
          "name": "status",
          "type": "bool"
        }
      ],
      "name": "BoardClosed",
      "type": "event"
    },
    {
      "anonymous": false,
      "inputs": [
        {
          "indexed": false,
          "name": "code",
          "type": "address"
        },
        {
          "indexed": false,
          "name": "sender",
          "type": "address"
        },
        {
          "indexed": false,
          "name": "sig",
          "type": "bytes4"
        }
      ],
      "name": "AuthFailedError",
      "type": "event"
    },
    {
      "anonymous": false,
      "inputs": [
        {
          "indexed": true,
          "name": "self",
          "type": "address"
        },
        {
          "indexed": false,
          "name": "msg",
          "type": "bytes32"
        }
      ],
      "name": "Error",
      "type": "event"
    },
    {
      "anonymous": false,
      "inputs": [
        {
          "indexed": true,
          "name": "self",
          "type": "address"
        },
        {
          "indexed": false,
          "name": "errorCode",
          "type": "uint256"
        }
      ],
      "name": "ErrorCode",
      "type": "event"
    },
    {
      "constant": false,
      "inputs": [
        {
          "name": "_jobController",
          "type": "address"
        }
      ],
      "name": "setJobController",
      "outputs": [
        {
          "name": "",
          "type": "uint256"
        }
      ],
      "payable": false,
      "stateMutability": "nonpayable",
      "type": "function"
    },
    {
      "constant": false,
      "inputs": [
        {
          "name": "_eventsHistory",
          "type": "address"
        }
      ],
      "name": "setupEventsHistory",
      "outputs": [
        {
          "name": "",
          "type": "uint256"
        }
      ],
      "payable": false,
      "stateMutability": "nonpayable",
      "type": "function"
    },
    {
      "constant": true,
      "inputs": [],
      "name": "getBoardsCount",
      "outputs": [
        {
          "name": "",
          "type": "uint256"
        }
      ],
      "payable": false,
      "stateMutability": "view",
      "type": "function"
    },
    {
      "constant": true,
      "inputs": [
        {
          "name": "_boardId",
          "type": "uint256"
        }
      ],
      "name": "getBoardStatus",
      "outputs": [
        {
          "name": "",
          "type": "bool"
        }
      ],
      "payable": false,
      "stateMutability": "view",
      "type": "function"
    },
    {
      "constant": true,
      "inputs": [
        {
          "name": "_boardId",
          "type": "uint256"
        },
        {
          "name": "_jobId",
          "type": "uint256"
        }
      ],
      "name": "getJobStatus",
      "outputs": [
        {
          "name": "",
          "type": "bool"
        }
      ],
      "payable": false,
      "stateMutability": "view",
      "type": "function"
    },
    {
      "constant": true,
      "inputs": [
        {
          "name": "_boardId",
          "type": "uint256"
        },
        {
          "name": "_user",
          "type": "address"
        }
      ],
      "name": "getUserStatus",
      "outputs": [
        {
          "name": "",
          "type": "bool"
        }
      ],
      "payable": false,
      "stateMutability": "view",
      "type": "function"
    },
    {
      "constant": true,
      "inputs": [
        {
          "name": "_jobId",
          "type": "uint256"
        }
      ],
      "name": "getJobsBoard",
      "outputs": [
        {
          "name": "",
          "type": "uint256"
        }
      ],
      "payable": false,
      "stateMutability": "view",
      "type": "function"
    },
    {
      "constant": true,
      "inputs": [
        {
          "name": "_jobId",
          "type": "uint256"
        }
      ],
      "name": "getBoardIpfsHash",
      "outputs": [
        {
          "name": "",
          "type": "bytes32"
        }
      ],
      "payable": false,
      "stateMutability": "view",
      "type": "function"
    },
    {
      "constant": true,
      "inputs": [
        {
          "name": "_ids",
          "type": "uint256[]"
        }
      ],
      "name": "getBoardsByIds",
      "outputs": [
        {
          "name": "_gotIds",
          "type": "uint256[]"
        },
        {
          "name": "_creators",
          "type": "address[]"
        },
        {
          "name": "_ipfs",
          "type": "bytes32[]"
        },
        {
          "name": "_tags",
          "type": "uint256[]"
        },
        {
          "name": "_tagsAreas",
          "type": "uint256[]"
        },
        {
          "name": "_tagsCategories",
          "type": "uint256[]"
        },
        {
          "name": "_status",
          "type": "bool[]"
        }
      ],
      "payable": false,
      "stateMutability": "view",
      "type": "function"
    },
    {
      "constant": true,
      "inputs": [
        {
          "name": "_tags",
          "type": "uint256"
        },
        {
          "name": "_tagsArea",
          "type": "uint256"
        },
        {
          "name": "_tagsCategory",
          "type": "uint256"
        },
        {
          "name": "_fromId",
          "type": "uint256"
        },
        {
          "name": "_maxLen",
          "type": "uint256"
        }
      ],
      "name": "getBoards",
      "outputs": [
        {
          "name": "_ids",
          "type": "uint256[]"
        }
      ],
      "payable": false,
      "stateMutability": "view",
      "type": "function"
    },
    {
      "constant": true,
      "inputs": [
        {
          "name": "_user",
          "type": "address"
        },
        {
          "name": "_tags",
          "type": "uint256"
        },
        {
          "name": "_tagsArea",
          "type": "uint256"
        },
        {
          "name": "_tagsCategory",
          "type": "uint256"
        }
      ],
      "name": "getBoardsForUser",
      "outputs": [
        {
          "name": "_ids",
          "type": "uint256[]"
        }
      ],
      "payable": false,
      "stateMutability": "view",
      "type": "function"
    },
    {
      "constant": true,
      "inputs": [
        {
          "name": "_boardId",
          "type": "uint256"
        }
      ],
      "name": "getJobsInBoardCount",
      "outputs": [
        {
          "name": "",
          "type": "uint256"
        }
      ],
      "payable": false,
      "stateMutability": "view",
      "type": "function"
    },
    {
      "constant": true,
      "inputs": [
        {
          "name": "_boardId",
          "type": "uint256"
        },
        {
          "name": "_jobState",
          "type": "uint256"
        },
        {
          "name": "_fromIdx",
          "type": "uint256"
        },
        {
          "name": "_maxLen",
          "type": "uint256"
        }
      ],
      "name": "getJobsInBoard",
      "outputs": [
        {
          "name": "_ids",
          "type": "uint256[]"
        }
      ],
      "payable": false,
      "stateMutability": "view",
      "type": "function"
    },
    {
      "constant": false,
      "inputs": [
        {
          "name": "_tags",
          "type": "uint256"
        },
        {
          "name": "_tagsArea",
          "type": "uint256"
        },
        {
          "name": "_tagsCategory",
          "type": "uint256"
        },
        {
          "name": "_ipfsHash",
          "type": "bytes32"
        }
      ],
      "name": "createBoard",
      "outputs": [
        {
          "name": "",
          "type": "uint256"
        }
      ],
      "payable": false,
      "stateMutability": "nonpayable",
      "type": "function"
    },
    {
      "constant": false,
      "inputs": [
        {
          "name": "_boardId",
          "type": "uint256"
        },
        {
          "name": "_jobId",
          "type": "uint256"
        }
      ],
      "name": "bindJobWithBoard",
      "outputs": [
        {
          "name": "",
          "type": "uint256"
        }
      ],
      "payable": false,
      "stateMutability": "nonpayable",
      "type": "function"
    },
    {
      "constant": false,
      "inputs": [
        {
          "name": "_boardId",
          "type": "uint256"
        },
        {
          "name": "_user",
          "type": "address"
        }
      ],
      "name": "bindUserWithBoard",
      "outputs": [
        {
          "name": "",
          "type": "uint256"
        }
      ],
      "payable": false,
      "stateMutability": "nonpayable",
      "type": "function"
    },
    {
      "constant": false,
      "inputs": [
        {
          "name": "_boardId",
          "type": "uint256"
        }
      ],
      "name": "closeBoard",
      "outputs": [
        {
          "name": "",
          "type": "uint256"
        }
      ],
      "payable": false,
      "stateMutability": "nonpayable",
      "type": "function"
    },
    {
      "constant": false,
      "inputs": [
        {
          "name": "_boardId",
          "type": "uint256"
        },
        {
          "name": "_creator",
          "type": "address"
        },
        {
          "name": "_tags",
          "type": "uint256"
        },
        {
          "name": "_tagsArea",
          "type": "uint256"
        },
        {
          "name": "_tagsCategory",
          "type": "uint256"
        },
        {
          "name": "_ipfsHash",
          "type": "bytes32"
        },
        {
          "name": "_boardStatus",
          "type": "bool"
        }
      ],
      "name": "emitBoardCreated",
      "outputs": [],
      "payable": false,
      "stateMutability": "nonpayable",
      "type": "function"
    },
    {
      "constant": false,
      "inputs": [
        {
          "name": "_boardId",
          "type": "uint256"
        },
        {
          "name": "_jobId",
          "type": "uint256"
        },
        {
          "name": "_status",
          "type": "bool"
        }
      ],
      "name": "emitJobBinded",
      "outputs": [],
      "payable": false,
      "stateMutability": "nonpayable",
      "type": "function"
    },
    {
      "constant": false,
      "inputs": [
        {
          "name": "_boardId",
          "type": "uint256"
        },
        {
          "name": "_user",
          "type": "address"
        },
        {
          "name": "_status",
          "type": "bool"
        }
      ],
      "name": "emitUserBinded",
      "outputs": [],
      "payable": false,
      "stateMutability": "nonpayable",
      "type": "function"
    },
    {
      "constant": false,
      "inputs": [
        {
          "name": "_boardId",
          "type": "uint256"
        },
        {
          "name": "_status",
          "type": "bool"
        }
      ],
      "name": "emitBoardClosed",
      "outputs": [],
      "payable": false,
      "stateMutability": "nonpayable",
      "type": "function"
    }
  ],
  "bytecode": "0x606060405234156200001057600080fd5b6040516060806200238783398101604052808051919060200180519190602001805191508190508383620000556000838364010000000062001d38620002ce82021704565b505060038054600160a060020a031916600160a060020a0392909216919091179055620000b260057f626f61726473436f756e74000000000000000000000000000000000000000000640100000000620002f4810262001d6b1704565b620000ed60067f626f61726443726561746f72000000000000000000000000000000000000000064010000000062001d7b6200031482021704565b6200012860087f626f61726454616773417265610000000000000000000000000000000000000064010000000062001d7b6200031482021704565b6200016360097f626f6172645461677343617465676f727900000000000000000000000000000064010000000062001d7b6200031482021704565b6200019e600a7f626f61726454616773000000000000000000000000000000000000000000000064010000000062001d7b6200031482021704565b620001d9600c7f6a6f6273426f617264000000000000000000000000000000000000000000000064010000000062001d7b6200031482021704565b62000214600b7f626f61726453746174757300000000000000000000000000000000000000000064010000000062001d7b6200031482021704565b6200024f60077f626f61726449706673486173680000000000000000000000000000000000000064010000000062001d7b6200031482021704565b6200028a600d7f75736572426f617264730000000000000000000000000000000000000000000064010000000062001da76200033282021704565b620002c560107f626f756e644a6f6273496e426f6172640000000000000000000000000000000064010000000062001da76200033282021704565b50505062000489565b8254600160a060020a031916600160a060020a0392909216919091178255600190910155565b815462000310908264010000000062001db16200034c82021704565b9055565b6200032e828264010000000062001d6b620002f482021704565b5050565b6200032e828264010000000062001dd36200036482021704565b8115158062000359575080155b156200032e57600080fd5b6200032e828264010000000062001dd96200037e82021704565b620003d582826040519081527f636f756e7400000000000000000000000000000000000000000000000000000060208201526025016040518091039020620002f46401000000000262001d6b176401000000009004565b6200042f82600101826040519081527f696e64657865730000000000000000000000000000000000000000000000000060208201526027016040518091039020620002f46401000000000262001d6b176401000000009004565b6200032e82600201826040519081527f76616c756573000000000000000000000000000000000000000000000000000060208201526026016040518091039020620002f46401000000000262001d6b176401000000009004565b611eee80620004996000396000f30060606040526004361061012f5763ffffffff60e060020a60003504166302927d20811461013457806318caa857146101655780631d13270214610185578063210c1f29146101a45780632637cd7d146101ba5780633e7d081a146101d95780635d1a1be8146101f457806366c31f121461026f5780636aa084d7146102965780637db83ae4146102c05780638834277e146102f35780638c0ec2ac14610309578063a2dcb5d414610328578063ad61ebea1461034a578063b1852c7214610360578063b1bf051014610376578063bde842ac1461038c578063c4e9311b146103a5578063cc494291146103be578063e575df72146103dd578063e90459f8146103ff578063e92c58a214610415578063f4d44b7214610656578063f69191b214610669578063fff10aba1461068b575b600080fd5b341561013f57600080fd5b610153600160a060020a03600435166106ba565b60405190815260200160405180910390f35b341561017057600080fd5b610183600435602435604435151561075e565b005b341561019057600080fd5b6101536004356024356044356064356107b1565b34156101af57600080fd5b61015360043561094d565b34156101c557600080fd5b610153600160a060020a0360043516610a23565b34156101e457600080fd5b6101836004356024351515610ad0565b34156101ff57600080fd5b61021c600160a060020a0360043516602435604435606435610b1b565b60405160208082528190810183818151815260200191508051906020019060200280838360005b8381101561025b578082015183820152602001610243565b505050509050019250505060405180910390f35b341561027a57600080fd5b610183600435600160a060020a03602435166044351515610bd0565b34156102a157600080fd5b6102ac600435610c2d565b604051901515815260200160405180910390f35b34156102cb57600080fd5b610183600435600160a060020a036024351660443560643560843560a43560c4351515610c47565b34156102fe57600080fd5b610183600435610ccb565b341561031457600080fd5b61021c600435602435604435606435610d12565b341561033357600080fd5b610153600435600160a060020a0360243516610e6b565b341561035557600080fd5b610153600435610eed565b341561036b57600080fd5b610153600435610f01565b341561038157600080fd5b610153600435610f15565b341561039757600080fd5b6102ac600435602435610f29565b34156103b057600080fd5b610153600435602435610f45565b34156103c957600080fd5b610153600160a060020a0360043516610fc6565b34156103e857600080fd5b6102ac600435600160a060020a036024351661105c565b341561040a57600080fd5b61018360043561107a565b341561042057600080fd5b61046460046024813581810190830135806020818102016040519081016040528093929190818152602001838360200280828437509496506110c195505050505050565b604051808060200180602001806020018060200180602001806020018060200188810388528f818151815260200191508051906020019060200280838360005b838110156104bc5780820151838201526020016104a4565b5050505090500188810387528e818151815260200191508051906020019060200280838360005b838110156104fb5780820151838201526020016104e3565b5050505090500188810386528d818151815260200191508051906020019060200280838360005b8381101561053a578082015183820152602001610522565b5050505090500188810385528c818151815260200191508051906020019060200280838360005b83811015610579578082015183820152602001610561565b5050505090500188810384528b818151815260200191508051906020019060200280838360005b838110156105b85780820151838201526020016105a0565b5050505090500188810383528a818151815260200191508051906020019060200280838360005b838110156105f75780820151838201526020016105df565b50505050905001888103825289818151815260200191508051906020019060200280838360005b8381101561063657808201518382015260200161061e565b505050509050019e50505050505050505050505050505060405180910390f35b341561066157600080fd5b610153611307565b341561067457600080fd5b61021c60043560243560443560643560843561131f565b341561069657600080fd5b61069e6113a0565b604051600160a060020a03909116815260200160405180910390f35b60006106d233600035600160e060020a0319166113af565b151561073557600080516020611ea38339815191523033600035600160e060020a031916604051600160a060020a039384168152919092166020820152600160e060020a03199091166040808301919091526060909101905180910390a1610759565b600160a060020a038216151561074a57600080fd5b61075382611483565b50600190505b919050565b826107676114b4565b600160a060020a03167f0d7a6068901e5d084e217c5d1cb95a043d68ba086fb08b63cf78a444ad53c3c08484604051918252151560208201526040908101905180910390a3505050565b6000806107ca33600035600160e060020a0319166113af565b151561082d57600080516020611ea38339815191523033600035600160e060020a031916604051600160a060020a039384168152919092166020820152600160e060020a03199091166040808301919091526060909101905180910390a1610944565b84610837816114b8565b15806108495750610847816114cf565b155b1561085357610942565b8461085d816114b8565b158061086f575061086d816114cf565b155b1561087957610940565b878015156108865761093e565b6108986000600563ffffffff6114f516565b60010193506108b0600060058663ffffffff61155416565b6108c460006006863363ffffffff6115cd16565b6108d860006008868b63ffffffff6115e816565b6108ec60006009868a63ffffffff6115e816565b6109006000600a868c63ffffffff6115e816565b6109156000600b86600163ffffffff6115f416565b61092960006007868963ffffffff6115e816565b61093984338b8b8b8b6001611608565b600194505b505b505b505b50949350505050565b600061096533600035600160e060020a0319166113af565b15156109c857600080516020611ea38339815191523033600035600160e060020a031916604051600160a060020a039384168152919092166020820152600160e060020a03199091166040808301919091526060909101905180910390a1610759565b8160006109dd81600b8463ffffffff6116a916565b15156109fa576109ee612afb6116c6565b90508060005260206000f35b610a0e6000600b868263ffffffff6115f416565b610a1984600061172f565b5060019392505050565b6000610a3b33600035600160e060020a0319166113af565b1515610a9e57600080516020611ea38339815191523033600035600160e060020a031916604051600160a060020a039384168152919092166020820152600160e060020a03199091166040808301919091526060909101905180910390a1610759565b5060038054600160a060020a03831673ffffffffffffffffffffffffffffffffffffffff199091161790556001919050565b81610ad96114b4565b600160a060020a03167fd446dbede0f6a2859d1fee85f220959b0d3421ac2a84baf4f8ae9f3ad43369b683604051901515815260200160405180910390a35050565b610b23611d26565b6000808080610b4381600d600160a060020a038c1663ffffffff61179c16565b935083604051805910610b535750595b9080825280602002602001820160405250945060009250600091505b83821161093e57610b936000600d600160a060020a038c168563ffffffff6117a916565b9050610ba1818989896117c0565b15610bc55780858481518110610bb357fe5b60209081029091010152600192909201915b816001019150610b6f565b82610bd96114b4565b600160a060020a03167f59607a2b26de9cec195f2d07833fd103d142795d3d3b8eff92a531e1094e76a38484604051600160a060020a039092168252151560208201526040908101905180910390a3505050565b6000610c4181600b8463ffffffff6116a916565b92915050565b86610c506114b4565b600160a060020a03167f6d8832dbab0e20cb68b282a7823d527b4fa6c776574a29acb36d50ce70cd52e0888888888888604051600160a060020a03909616865260208601949094526040808601939093526060850191909152608084015290151560a083015260c0909101905180910390a350505050505050565b610cd36114b4565b600160a060020a03167f09e0713b45664e161c202b19bb4574ee83dfa056f9bfdee56847b3971d9682218260405190815260200160405180910390a250565b610d1a611d26565b600080808080610d328160108c63ffffffff61179c16565b9450848810610d4057600080fd5b8487890110610d5157878503610d53565b865b9650610d676000600463ffffffff61182316565b935086604051805910610d775750595b90808252806020026020018201604052509550600092508791505b8787018211610e5e57610daf600060108c8563ffffffff6117a916565b9050600160a060020a0384161580610e2f57508884600160a060020a03166353bc1c128360006040516020015260405160e060020a63ffffffff84160281526004810191909152602401602060405180830381600087803b1515610e1257600080fd5b6102c65a03f11515610e2357600080fd5b50505060405180519050145b15610e535780868481518110610e4157fe5b60209081029091010152600192909201915b816001019150610d92565b5050505050949350505050565b600082826000610e7b838361105c565b151560011415610e90576109ee612afa6116c6565b856000610ea581600b8463ffffffff6116a916565b1515610eb6576109ee612afb6116c6565b610ed36000600d600160a060020a038a168b63ffffffff61188216565b610edf8888600161188e565b506001979650505050505050565b6000610c418160078463ffffffff6118f416565b6000610c418160108463ffffffff61179c16565b6000610c4181600c8463ffffffff6118f416565b6000610f3e816010858563ffffffff61190116565b9392505050565b6000828282610f5c81600c8463ffffffff6118f416565b15610f6c576109ee612af96116c6565b856000610f8181600b8463ffffffff6116a916565b1515610f92576109ee612afb6116c6565b610fa66000600c898b63ffffffff6115e816565b610fba600060108a8a63ffffffff61188216565b610edf8888600161190f565b6000610fde33600035600160e060020a0319166113af565b151561104157600080516020611ea38339815191523033600035600160e060020a031916604051600160a060020a039384168152919092166020820152600160e060020a03199091166040808301919091526060909101905180910390a1610759565b611054600060048463ffffffff61196d16565b506001919050565b6000610f3e81600d600160a060020a0385168663ffffffff61190116565b6110826114b4565b600160a060020a03167fbb8f0c1d8804cd86e7873ec11cb00af945c8c0ebd061a68b28617034803464158260405190815260200160405180910390a250565b6110c9611d26565b6110d1611d26565b6110d9611d26565b6110e1611d26565b6110e9611d26565b6110f1611d26565b6110f9611d26565b600080899850895160405180591061110e5750595b9080825280602002602001820160405250975089516040518059106111305750595b9080825280602002602001820160405250965089516040518059106111525750595b9080825280602002602001820160405250955089516040518059106111745750595b9080825280602002602001820160405250945089516040518059106111965750595b9080825280602002602001820160405250935089516040518059106111b85750595b90808252806020026020018201604052509250600091505b89518210156112fa578982815181106111e557fe5b906020019060200201519050611204600060068363ffffffff6118f416565b88838151811061121057fe5b600160a060020a0390921660209283029091019091015261123a600060078363ffffffff6118f416565b87838151811061124657fe5b602090810290910101526112636000600a8363ffffffff6118f416565b86838151811061126f57fe5b6020908102909101015261128c600060088363ffffffff6118f416565b85838151811061129857fe5b602090810290910101526112b5600060098363ffffffff6118f416565b8483815181106112c157fe5b602090810290910101526112d481610c2d565b8383815181106112e057fe5b9115156020928302909101909101526001909101906111d0565b5050919395979092949650565b600061131a81600563ffffffff6114f516565b905090565b611327611d26565b600080836040518059106113385750595b90808252806020026020018201604052509250600091508490505b83850181101561139557611369818989896117c0565b1561138d578083838151811061137b57fe5b60209081029091010152600191909101905b600101611353565b505095945050505050565b600254600160a060020a031690565b600030600160a060020a031683600160a060020a031614156113d357506001610c41565b600354600160a060020a031615156113ed57506000610c41565b600354600160a060020a031663b700961384308560006040516020015260405160e060020a63ffffffff8616028152600160a060020a039384166004820152919092166024820152600160e060020a03199091166044820152606401602060405180830381600087803b151561146257600080fd5b6102c65a03f1151561147357600080fd5b5050506040518051949350505050565b60028054600160a060020a03831673ffffffffffffffffffffffffffffffffffffffff199091161790556001919050565b3390565b60008115801590610c415750506000198101161590565b7faaaaaaaaaaaaaaaaaaaaaaaaaaaaaaaaaaaaaaaaaaaaaaaaaaaaaaaaaaaaaaaa161590565b815460018301548254600092600160a060020a0316916353aa3f5e91846040516020015260405160e060020a63ffffffff851602815260048101929092526024820152604401602060405180830381600087803b151561146257600080fd5b825460018401548354600160a060020a03909216916353e7168b91908460405160e060020a63ffffffff8616028152600481019390935260248301919091526044820152606401600060405180830381600087803b15156115b457600080fd5b6102c65a03f115156115c557600080fd5b505050505050565b6115e2848484600160a060020a0385166119d6565b50505050565b6115e2848484846119d6565b6115e284848461160385611a68565b6119d6565b6116106113a0565b600160a060020a0316637db83ae48888888888888860405160e060020a63ffffffff8a160281526004810197909752600160a060020a03909516602487015260448601939093526064850191909152608484015260a4830152151560c482015260e401600060405180830381600087803b151561168c57600080fd5b6102c65a03f1151561169d57600080fd5b50505050505050505050565b60006116be6116b9858585611a82565b611b1c565b949350505050565b60006116d06113a0565b600160a060020a0316638834277e8360405160e060020a63ffffffff84160281526004810191909152602401600060405180830381600087803b151561171557600080fd5b6102c65a03f1151561172657600080fd5b50929392505050565b6117376113a0565b600160a060020a0316633e7d081a838360405160e060020a63ffffffff8516028152600481019290925215156024820152604401600060405180830381600087803b151561178457600080fd5b6102c65a03f1151561179557600080fd5b5050505050565b60006116be848484611b21565b60006117b785858585611b2e565b95945050505050565b60006117dd6117d782600a8863ffffffff6118f416565b85611b3c565b801561180057506118006117fa600060088863ffffffff6118f416565b84611b3c565b80156117b757506117b761181d600060098863ffffffff6118f416565b83611b3c565b815460018301548254600092600160a060020a03169163d3a3968691846040516020015260405160e060020a63ffffffff851602815260048101929092526024820152604401602060405180830381600087803b151561146257600080fd5b6115e284848484611b42565b6118966113a0565b600160a060020a03166366c31f1284848460405160e060020a63ffffffff86160281526004810193909352600160a060020a03909116602483015215156044820152606401600060405180830381600087803b15156115b457600080fd5b60006116be848484611a82565b60006117b785858585611b4e565b6119176113a0565b600160a060020a03166318caa85784848460405160e060020a63ffffffff86160281526004810193909352602483019190915215156044820152606401600060405180830381600087803b15156115b457600080fd5b825460018401548354600160a060020a03909216916379a7cfee91908460405160e060020a63ffffffff861602815260048101939093526024830191909152600160a060020a03166044820152606401600060405180830381600087803b15156115b457600080fd5b835460018501548454600160a060020a039092169163a14ff85791908560405191825260208201526040908101905180910390208460405160e060020a63ffffffff8616028152600481019390935260248301919091526044820152606401600060405180830381600087803b1515611a4e57600080fd5b6102c65a03f11515611a5f57600080fd5b50505050505050565b600081611a76576000611a79565b60015b60ff1692915050565b825460018401548354600092600160a060020a0316916337d9d7fc9185604051918252602082015260409081019051809103902060006040516020015260405160e060020a63ffffffff851602815260048101929092526024820152604401602060405180830381600087803b1515611afa57600080fd5b6102c65a03f11515611b0b57600080fd5b505050604051805195945050505050565b151590565b60006116be848484611b5c565b60006117b785858585611b69565b16151590565b6115e284848484611b7d565b60006117b785858585611bd1565b60006116be848484611bed565b60006117b785600286018560018601611c65565b6000611b8b85858585611bd1565b15611b9557611795565b611ba0858585611b5c565b6001019050611bb58560028601858486611c8a565b611bc58560018601858585611c8a565b61179585858584611cae565b6000611be285856001018585611c65565b151595945050505050565b825460018401548354600092600160a060020a0316916353aa3f5e9185604051918252602082015260409081019051809103902060006040516020015260405160e060020a63ffffffff851602815260048101929092526024820152604401602060405180830381600087803b1515611afa57600080fd5b60006117b7858585856040519182526020820152604090810190518091039020611a82565b611795858585856040519182526020820152604090810190518091039020846119d6565b835460018501548454600160a060020a03909216916353e7168b91908560405191825260208201526040908101905180910390208460405160e060020a63ffffffff8616028152600481019390935260248301919091526044820152606401600060405180830381600087803b1515611a4e57600080fd5b60206040519081016040526000815290565b825473ffffffffffffffffffffffffffffffffffffffff1916600160a060020a0392909216919091178255600190910155565b8154611d779082611db1565b9055565b611d858282611d6b565b5050565b611d858282611d6b565b611d858282611d6b565b611d858282611d6b565b611d858282611dd3565b81151580611dbd575080155b15611d8557600080fd5b8154611d779082611db1565b611d8582825b611e1a82826040519081527f636f756e7400000000000000000000000000000000000000000000000000000060208201526025016040518091039020611d6b565b611e5e82600101826040519081527f696e64657865730000000000000000000000000000000000000000000000000060208201526027016040518091039020611d6b565b611d8582600201826040519081527f76616c756573000000000000000000000000000000000000000000000000000060208201526026016040518091039020611d6b56005133a133185f1023427a2e90f18506b27db994977ce0c0faafd514a7dd109ae0a165627a7a723058203361f96d5605a6893f414c24446337c2df5e04d8ec2a2932d8377190dda7eaeb0029",
  "source": "/**\n * Copyright 20172018, LaborX PTY\n * Licensed under the AGPL Version 3 license.\n */\n\npragma solidity ^0.4.18;\n\n\nimport './adapters/StorageAdapter.sol';\nimport './adapters/MultiEventsHistoryAdapter.sol';\nimport './adapters/Roles2LibraryAdapter.sol';\nimport './base/BitOps.sol';\nimport \"./JobController.sol\";\n\n\ncontract BoardController is StorageAdapter, MultiEventsHistoryAdapter, Roles2LibraryAdapter, BitOps {\n\n    uint constant BOARD_CONTROLLER_SCOPE = 11000;\n    uint constant BOARD_CONTROLLER_JOB_IS_ALREADY_BINDED = BOARD_CONTROLLER_SCOPE + 1;\n    uint constant BOARD_CONTROLLER_USER_IS_ALREADY_BINDED = BOARD_CONTROLLER_SCOPE + 2;\n    uint constant BOARD_CONTROLLER_BOARD_IS_CLOSED = BOARD_CONTROLLER_SCOPE + 3;\n\n    event BoardCreated(\n        address indexed self,\n        uint indexed boardId,\n        address creator,\n        uint boardTags,\n        uint boardTagsArea,\n        uint boardTagsCategory,\n        bytes32 boardIpfsHash,\n        bool status\n    );\n    event JobBinded(address indexed self, uint indexed boardId, uint jobId, bool status);\n    event UserBinded(address indexed self, uint indexed boardId, address user, bool status);\n    event BoardClosed(address indexed self, uint indexed boardId, bool status);\n\n    /// @dev JobController address. Read-only!\n    StorageInterface.Address jobController;\n    StorageInterface.UInt boardsCount;\n\n    StorageInterface.UIntAddressMapping boardCreator;\n    StorageInterface.UIntBytes32Mapping boardIpfsHash;\n\n    StorageInterface.UIntUIntMapping boardTagsArea;\n    StorageInterface.UIntUIntMapping boardTagsCategory;\n    StorageInterface.UIntUIntMapping boardTags;\n\n    StorageInterface.UIntBoolMapping boardStatus;\n    StorageInterface.UIntUIntMapping jobsBoard;\n    \n    /// @dev mapping(user address => set(board ids))\n    StorageInterface.UIntSetMapping userBoards;\n    /// @dev mapping(board id => set(job ids))\n    StorageInterface.UIntSetMapping boundJobsInBoard;\n\n    modifier notBindedJobYet(uint _boardId, uint _jobId) {\n        if (store.get(jobsBoard, _jobId) != 0) {\n            uint _resultCode = _emitErrorCode(BOARD_CONTROLLER_JOB_IS_ALREADY_BINDED);\n            assembly {\n                mstore(0, _resultCode)\n                return(0, 32)\n            }\n        }\n        _;\n    }\n\n    modifier notBindedUserYet(uint _boardId, address _user) {\n        if (getUserStatus(_boardId, _user) == true) {\n            uint _resultCode = _emitErrorCode(BOARD_CONTROLLER_USER_IS_ALREADY_BINDED);\n            assembly {\n                mstore(0, _resultCode)\n                return(0, 32)\n            }\n        }\n        _;\n    }\n\n    modifier notClosed(uint _boardId) {\n        if (store.get(boardStatus, _boardId) == false) {\n            uint _resultCode = _emitErrorCode(BOARD_CONTROLLER_BOARD_IS_CLOSED);\n            assembly {\n                mstore(0, _resultCode)\n                return(0, 32)\n            }\n        }\n        _;\n    }\n\n    function BoardController(\n        Storage _store,\n        bytes32 _crate,\n        address _roles2Library\n    )\n    StorageAdapter(_store, _crate)\n    Roles2LibraryAdapter(_roles2Library)\n    public\n    {\n        boardsCount.init(\"boardsCount\");\n\n        boardCreator.init(\"boardCreator\");\n\n        boardTagsArea.init(\"boardTagsArea\");\n        boardTagsCategory.init(\"boardTagsCategory\");\n        boardTags.init(\"boardTags\");\n\n        jobsBoard.init(\"jobsBoard\");\n        boardStatus.init(\"boardStatus\");\n\n        boardIpfsHash.init(\"boardIpfsHash\");\n        \n        userBoards.init(\"userBoards\");\n        boundJobsInBoard.init(\"boundJobsInBoard\");\n    }\n\n    function setJobController(address _jobController) auth external returns (uint) {\n        store.set(jobController, _jobController);\n        return OK;\n    }\n\n    function setupEventsHistory(address _eventsHistory) auth external returns (uint) {\n        require(_eventsHistory != 0x0);\n\n        _setEventsHistory(_eventsHistory);\n        return OK;\n    }\n\n    function getBoardsCount() public view returns (uint) {\n        return store.get(boardsCount);\n    }\n\n    function getBoardStatus(uint _boardId) public view returns (bool) {\n        return store.get(boardStatus, _boardId);\n    }\n\n    function getJobStatus(uint _boardId, uint _jobId) public view returns (bool) {\n        return store.includes(boundJobsInBoard, bytes32(_boardId), _jobId);\n    }\n\n    function getUserStatus(uint _boardId, address _user) public view returns (bool) {\n        return store.includes(userBoards, bytes32(_user), _boardId);\n    }\n\n    function getJobsBoard(uint _jobId) public view returns (uint) {\n        return store.get(jobsBoard, _jobId);\n    }\n\n    function getBoardIpfsHash(uint _jobId) public view returns (bytes32) {\n        return store.get(boardIpfsHash, _jobId);\n    }\n\n    function getBoardsByIds(uint[] _ids)\n    public\n    view \n    returns (\n        uint[] _gotIds,\n        address[] _creators,\n        bytes32[] _ipfs,\n        uint[] _tags,\n        uint[] _tagsAreas,\n        uint[] _tagsCategories,\n        bool[] _status\n    ) {\n        _gotIds = _ids;\n        _creators = new address[](_ids.length);\n        _ipfs = new bytes32[](_ids.length);\n        _tags = new uint[](_ids.length);\n        _tagsAreas = new uint[](_ids.length);\n        _tagsCategories = new uint[](_ids.length);\n        _status = new bool[](_ids.length);\n\n        for (uint _idIdx = 0; _idIdx < _ids.length; ++_idIdx) {\n            uint _id = _ids[_idIdx];\n            _creators[_idIdx] = store.get(boardCreator, _id);\n            _ipfs[_idIdx] = store.get(boardIpfsHash, _id);\n            _tags[_idIdx] = store.get(boardTags, _id);\n            _tagsAreas[_idIdx] = store.get(boardTagsArea, _id);\n            _tagsCategories[_idIdx] = store.get(boardTagsCategory, _id);\n            _status[_idIdx] = getBoardStatus(_id);\n        }\n    }\n\n    /// @notice Gets filtered list of boards' ids in paginated way across all created boards\n    function getBoards(\n        uint _tags, \n        uint _tagsArea, \n        uint _tagsCategory, \n        uint _fromId, \n        uint _maxLen\n    ) \n    public \n    view \n    returns (uint[] _ids) \n    {\n        _ids = new uint[](_maxLen);\n        uint _pointer = 0;\n        for (uint _id = _fromId; _id < _fromId + _maxLen; ++_id) {\n            if (_filterBoard(_id, _tags, _tagsArea, _tagsCategory)) {\n                _ids[_pointer] = _id;\n                _pointer += 1;\n            }\n        }\n    }\n\n    /// @notice Gets filtered boards for bound user \n    /// where boards have provided properties (tags, \n    /// tags area, tags category)\n    function getBoardsForUser(\n        address _user, \n        uint _tags, \n        uint _tagsArea, \n        uint _tagsCategory\n    )  \n    public \n    view \n    returns (uint[] _ids) \n    {\n        uint _count = store.count(userBoards, bytes32(_user));\n        _ids = new uint[](_count);\n        uint _pointer = 0;\n        for (uint _boardIdx = 0; _boardIdx <= _count; ++_boardIdx) {\n            uint _boardId = store.get(userBoards, bytes32(_user), _boardIdx);\n            if (_filterBoard(_boardId, _tags, _tagsArea, _tagsCategory)) {\n                _ids[_pointer] = _boardId;\n                _pointer += 1;\n            }\n        }\n    }\n\n    function _filterBoard(\n        uint _boardId,\n        uint _tags, \n        uint _tagsArea, \n        uint _tagsCategory \n    ) \n    private \n    view \n    returns (bool) \n    {\n        return _hasFlag(store.get(boardTags, _boardId), _tags) &&\n            _hasFlag(store.get(boardTagsArea, _boardId), _tagsArea) &&\n            _hasFlag(store.get(boardTagsCategory, _boardId), _tagsCategory);   \n    }\n    \n    function getJobsInBoardCount(uint _boardId) public view returns (uint) {\n        return store.count(boundJobsInBoard, bytes32(_boardId));\n    }\n\n    /// @notice Gets jobs ids that a binded with a provided board\n    /// in a paginated way\n    function getJobsInBoard(\n        uint _boardId, \n        uint _jobState, \n        uint _fromIdx, \n        uint _maxLen\n    )\n    public\n    view\n    returns (uint[] _ids) {\n        uint _count = store.count(boundJobsInBoard, bytes32(_boardId));\n        require(_fromIdx < _count);\n        _maxLen = (_fromIdx + _maxLen < _count) ? _maxLen : (_count - _fromIdx);\n        JobController _jobController = JobController(store.get(jobController));\n        _ids = new uint[](_maxLen);\n        uint _pointer = 0;\n        for (uint _jobIdx = _fromIdx; _jobIdx <= _fromIdx + _maxLen; ++_jobIdx) {\n            uint _jobId = store.get(boundJobsInBoard, bytes32(_boardId), _jobIdx);\n            if (address(_jobController) == 0x0 || \n                _jobController.getJobState(_jobId) == _jobState\n            ) {\n                _ids[_pointer] = _jobId;\n                _pointer += 1;\n            }\n        }\n    }\n\n    function createBoard(\n        uint _tags,\n        uint _tagsArea,\n        uint _tagsCategory,\n        bytes32 _ipfsHash\n    )\n    auth\n    singleOddFlag(_tagsArea)\n    singleOddFlag(_tagsCategory)\n    hasFlags(_tags)\n    external\n    returns (uint)\n    {\n        uint boardId = store.get(boardsCount) + 1;\n        store.set(boardsCount, boardId);\n        store.set(boardCreator, boardId, msg.sender);\n        store.set(boardTagsArea, boardId, _tagsArea);\n        store.set(boardTagsCategory, boardId, _tagsCategory);\n        store.set(boardTags, boardId, _tags);\n        store.set(boardStatus, boardId, true);\n        store.set(boardIpfsHash, boardId, _ipfsHash);\n        _emitBoardCreated(boardId, msg.sender, _tags, _tagsArea, _tagsCategory, _ipfsHash, true);\n        return OK;\n    }\n\n    function bindJobWithBoard(\n        uint _boardId,\n        uint _jobId\n    )\n    notBindedJobYet(_boardId, _jobId)\n    notClosed(_boardId)\n    public\n    returns (uint)\n    {\n        store.set(jobsBoard, _jobId, _boardId);\n        store.add(boundJobsInBoard, bytes32(_boardId), _jobId);\n        _emitJobBinded(_boardId, _jobId, true);\n        return OK;\n    }\n\n    function bindUserWithBoard(\n        uint _boardId,\n        address _user\n    )\n    notBindedUserYet(_boardId, _user)\n    notClosed(_boardId)\n    public\n    returns (uint)\n    {\n        store.add(userBoards, bytes32(_user), _boardId);\n        _emitUserBinded(_boardId, _user, true);\n        return OK;\n    }\n\n    function closeBoard(\n        uint _boardId\n    )\n    auth\n    notClosed(_boardId)\n    external\n    returns (uint)\n    {\n        store.set(boardStatus, _boardId, false);\n        _emitBoardClosed(_boardId, false);\n        return OK;\n    }\n\n    function _emitBoardCreated(\n        uint _boardId,\n        address _creator,\n        uint _tags,\n        uint _tagsArea,\n        uint _tagsCategory,\n        bytes32 _ipfsHash,\n        bool _boardStatus\n    )\n    internal\n    {\n        BoardController(getEventsHistory()).emitBoardCreated(\n            _boardId,\n            _creator,\n            _tags,\n            _tagsArea,\n            _tagsCategory,\n            _ipfsHash,\n            _boardStatus\n        );\n    }\n\n    function emitBoardCreated(\n        uint _boardId,\n        address _creator,\n        uint _tags,\n        uint _tagsArea,\n        uint _tagsCategory,\n        bytes32 _ipfsHash,\n        bool _boardStatus\n    )\n    public\n    {\n        BoardCreated(\n            _self(),\n            _boardId,\n            _creator,\n            _tags,\n            _tagsArea,\n            _tagsCategory,\n            _ipfsHash,\n            _boardStatus\n        );\n    }\n\n    function emitJobBinded(uint _boardId, uint _jobId, bool _status) public {\n        JobBinded(_self(), _boardId, _jobId, _status);\n    }\n\n    function emitUserBinded(uint _boardId, address _user, bool _status) public {\n        UserBinded(_self(), _boardId, _user, _status);\n    }\n\n    function emitBoardClosed(uint _boardId, bool _status) public {\n        BoardClosed(_self(), _boardId, _status);\n    }\n\n    /* INTERNAL */\n\n    function _emitJobBinded(uint _boardId, uint _jobId, bool _status) internal {\n        BoardController(getEventsHistory()).emitJobBinded(_boardId, _jobId, _status);\n    }\n\n    function _emitUserBinded(uint _boardId, address _user, bool _status) internal {\n        BoardController(getEventsHistory()).emitUserBinded(_boardId, _user, _status);\n    }\n\n    function _emitBoardClosed(uint _boardId, bool _status) internal {\n        BoardController(getEventsHistory()).emitBoardClosed(_boardId, _status);\n    }\n}\n",
  "sourcePath": "/Users/ahiatsevich/Development/chronobank/LX-SC/contracts/BoardController.sol",
  "compiler": {
    "name": "solc",
    "version": "0.4.19+commit.c4cbbb05.Emscripten.clang"
  },
  "schemaVersion": "2.0.0",
  "updatedAt": "2018-05-22T13:02:40.246Z"
}