{
  "contractName": "ContractsManager",
  "abi": [
    {
      "constant": false,
      "inputs": [
        {
          "name": "_roles2Library",
          "type": "address"
        }
      ],
      "name": "setRoles2Library",
      "outputs": [
        {
          "name": "",
          "type": "uint256"
        }
      ],
      "payable": false,
      "stateMutability": "nonpayable",
      "type": "function"
    },
    {
      "constant": false,
      "inputs": [],
      "name": "claimContractOwnership",
      "outputs": [
        {
          "name": "",
          "type": "bool"
        }
      ],
      "payable": false,
      "stateMutability": "nonpayable",
      "type": "function"
    },
    {
      "constant": false,
      "inputs": [
        {
          "name": "_to",
          "type": "address"
        }
      ],
      "name": "changeContractOwnership",
      "outputs": [
        {
          "name": "",
          "type": "bool"
        }
      ],
      "payable": false,
      "stateMutability": "nonpayable",
      "type": "function"
    },
    {
      "constant": true,
      "inputs": [],
      "name": "pendingContractOwner",
      "outputs": [
        {
          "name": "",
          "type": "address"
        }
      ],
      "payable": false,
      "stateMutability": "view",
      "type": "function"
    },
    {
      "constant": false,
      "inputs": [
        {
          "name": "tokens",
          "type": "address[]"
        }
      ],
      "name": "withdrawTokens",
      "outputs": [],
      "payable": false,
      "stateMutability": "nonpayable",
      "type": "function"
    },
    {
      "constant": false,
      "inputs": [],
      "name": "withdrawEther",
      "outputs": [],
      "payable": false,
      "stateMutability": "nonpayable",
      "type": "function"
    },
    {
      "constant": true,
      "inputs": [],
      "name": "contractOwner",
      "outputs": [
        {
          "name": "",
          "type": "address"
        }
      ],
      "payable": false,
      "stateMutability": "view",
      "type": "function"
    },
    {
      "constant": false,
      "inputs": [
        {
          "name": "newOwner",
          "type": "address"
        }
      ],
      "name": "transferOwnership",
      "outputs": [
        {
          "name": "",
          "type": "bool"
        }
      ],
      "payable": false,
      "stateMutability": "nonpayable",
      "type": "function"
    },
    {
      "inputs": [
        {
          "name": "_store",
          "type": "address"
        },
        {
          "name": "_crate",
          "type": "bytes32"
        },
        {
          "name": "_roles2Library",
          "type": "address"
        }
      ],
      "payable": false,
      "stateMutability": "nonpayable",
      "type": "constructor"
    },
    {
      "payable": true,
      "stateMutability": "payable",
      "type": "fallback"
    },
    {
      "anonymous": false,
      "inputs": [
        {
          "indexed": true,
          "name": "contractAddress",
          "type": "address"
        },
        {
          "indexed": false,
          "name": "t",
          "type": "bytes32"
        }
      ],
      "name": "ContractsManagerAddContract",
      "type": "event"
    },
    {
      "anonymous": false,
      "inputs": [
        {
          "indexed": true,
          "name": "contractAddress",
          "type": "address"
        }
      ],
      "name": "ContractsManagerRemoveContract",
      "type": "event"
    },
    {
      "anonymous": false,
      "inputs": [
        {
          "indexed": true,
          "name": "self",
          "type": "address"
        },
        {
          "indexed": false,
          "name": "errorCode",
          "type": "uint256"
        }
      ],
      "name": "Error",
      "type": "event"
    },
    {
      "anonymous": false,
      "inputs": [
        {
          "indexed": false,
          "name": "code",
          "type": "address"
        },
        {
          "indexed": false,
          "name": "sender",
          "type": "address"
        },
        {
          "indexed": false,
          "name": "sig",
          "type": "bytes4"
        }
      ],
      "name": "AuthFailedError",
      "type": "event"
    },
    {
      "anonymous": false,
      "inputs": [
        {
          "indexed": true,
          "name": "previousOwner",
          "type": "address"
        },
        {
          "indexed": true,
          "name": "newOwner",
          "type": "address"
        }
      ],
      "name": "OwnershipTransferred",
      "type": "event"
    },
    {
      "constant": false,
      "inputs": [
        {
          "name": "_contract",
          "type": "address"
        },
        {
          "name": "_type",
          "type": "bytes32"
        }
      ],
      "name": "addContract",
      "outputs": [
        {
          "name": "",
          "type": "uint256"
        }
      ],
      "payable": false,
      "stateMutability": "nonpayable",
      "type": "function"
    },
    {
      "constant": false,
      "inputs": [
        {
          "name": "_contract",
          "type": "address"
        }
      ],
      "name": "removeContract",
      "outputs": [
        {
          "name": "",
          "type": "uint256"
        }
      ],
      "payable": false,
      "stateMutability": "nonpayable",
      "type": "function"
    },
    {
      "constant": true,
      "inputs": [],
      "name": "getContractAddresses",
      "outputs": [
        {
          "name": "",
          "type": "address[]"
        }
      ],
      "payable": false,
      "stateMutability": "view",
      "type": "function"
    },
    {
      "constant": true,
      "inputs": [
        {
          "name": "_type",
          "type": "bytes32"
        }
      ],
      "name": "getContractAddressByType",
      "outputs": [
        {
          "name": "contractAddress",
          "type": "address"
        }
      ],
      "payable": false,
      "stateMutability": "view",
      "type": "function"
    },
    {
      "constant": true,
      "inputs": [
        {
          "name": "_contract",
          "type": "address"
        }
      ],
      "name": "isExists",
      "outputs": [
        {
          "name": "",
          "type": "bool"
        }
      ],
      "payable": false,
      "stateMutability": "view",
      "type": "function"
    }
  ],
  "bytecode": "0x606060405234156200001057600080fd5b604051606080620013ef83398101604052808051919060200180519190602001805160008054600160a060020a03191633600160a060020a031617905591508190508383620000706002838364010000000062000111810262000fc31704565b505060048054600160a060020a031916600160a060020a0392909216919091179055620000cd60057f636f6e747261637473000000000000000000000000000000000000000000000064010000000062000137810262000ff61704565b6200010860087f636f6e7472616374547970657300000000000000000000000000000000000000640100000000620010046200015582021704565b505050620002b2565b8254600160a060020a031916600160a060020a0392909216919091178255600190910155565b6200015182826401000000006200100e6200016f82021704565b5050565b620001518282640100000000620010d36200027a82021704565b620001c682826040519081527f636f756e74000000000000000000000000000000000000000000000000000000602082015260250160405180910390206200027a64010000000002620010d3176401000000009004565b6200022082600101826040519081527f696e646578657300000000000000000000000000000000000000000000000000602082015260270160405180910390206200027a64010000000002620010d3176401000000009004565b6200015182600201826040519081527f76616c7565730000000000000000000000000000000000000000000000000000602082015260260160405180910390206200027a64010000000002620010d3176401000000009004565b8154620002969082640100000000620010eb6200029a82021704565b9055565b81151580620002a7575080155b156200015157600080fd5b61112d80620002c26000396000f3006060604052600436106100ab5763ffffffff60e060020a6000350416632637cd7d81146100b05780634592cd1d146100e1578063557f4bc9146101085780635aa77d3c146101275780635ecb16cd146101565780637362377b146101a7578063953874d2146101ba578063b7c46cd514610220578063bc65792714610242578063c375c2ef14610258578063ce606ee014610277578063e0d4f1c31461028a578063f2fde38b146102a9575b600080fd5b34156100bb57600080fd5b6100cf600160a060020a03600435166102c8565b60405190815260200160405180910390f35b34156100ec57600080fd5b6100f4610386565b604051901515815260200160405180910390f35b341561011357600080fd5b6100f4600160a060020a036004351661041d565b341561013257600080fd5b61013a61047d565b604051600160a060020a03909116815260200160405180910390f35b341561016157600080fd5b6101a5600460248135818101908301358060208181020160405190810160405280939291908181526020018383602002808284375094965061048c95505050505050565b005b34156101b257600080fd5b6101a56105b7565b34156101c557600080fd5b6101cd610618565b60405160208082528190810183818151815260200191508051906020019060200280838360005b8381101561020c5780820151838201526020016101f4565b505050509050019250505060405180910390f35b341561022b57600080fd5b6100cf600160a060020a0360043516602435610637565b341561024d57600080fd5b61013a600435610752565b341561026357600080fd5b6100cf600160a060020a0360043516610767565b341561028257600080fd5b61013a610866565b341561029557600080fd5b6100f4600160a060020a0360043516610875565b34156102b457600080fd5b6100f4600160a060020a036004351661088a565b60006102e033600035600160e060020a031916610928565b1515610355577f5133a133185f1023427a2e90f18506b27db994977ce0c0faafd514a7dd109ae03033600035600160e060020a031916604051600160a060020a039384168152919092166020820152600160e060020a03199091166040808301919091526060909101905180910390a1610381565b506004805473ffffffffffffffffffffffffffffffffffffffff1916600160a060020a03831617905560015b919050565b60015460009033600160a060020a039081169116146103a75750600061041a565b600154600054600160a060020a0391821691167f8be0079c531659141344cd1fd0a4f28419497f9722a3daafe3b4186f6b6457e060405160405180910390a350600180546000805473ffffffffffffffffffffffffffffffffffffffff19908116600160a060020a038416179091551681555b90565b6000805433600160a060020a039081169116141561038157600160a060020a038216151561044d57506000610381565b5060018054600160a060020a03831673ffffffffffffffffffffffffffffffffffffffff19909116178155919050565b600154600160a060020a031681565b600080548190819033600160a060020a03908116911614156105b157600092505b83518310156105b1578383815181106104c257fe5b90602001906020020151915081600160a060020a03166370a082313060405160e060020a63ffffffff8416028152600160a060020a039091166004820152602401602060405180830381600087803b151561051c57600080fd5b5af1151561052957600080fd5b505050604051805191505080156105a65781600160a060020a031663a9059cbb338360405160e060020a63ffffffff8516028152600160a060020a0390921660048301526024820152604401602060405180830381600087803b151561058e57600080fd5b5af1151561059b57600080fd5b505050604051805150505b6001909201916104ad565b50505050565b6000805433600160a060020a03908116911614156106155750600160a060020a03301631600081111561061557600160a060020a03331681156108fc0282604051600060405180830381858888f19350505050151561061557600080fd5b50565b610620610fb1565b6106326002600563ffffffff6109ef16565b905090565b600061064f33600035600160e060020a031916610928565b15156106c4577f5133a133185f1023427a2e90f18506b27db994977ce0c0faafd514a7dd109ae03033600035600160e060020a031916604051600160a060020a039384168152919092166020820152600160e060020a03199091166040808301919091526060909101905180910390a161074c565b6106cd83610875565b156106e4576106dd612710610a10565b905061074c565b6106f7600260058563ffffffff610a5316565b61070b60026008848663ffffffff610a6c16565b82600160a060020a03167ff42ffc9f05349eb942072e43a552548d1e4eb637b572f7dca6b587b765cde0cf8360405190815260200160405180910390a25060015b92915050565b600061074c600260088463ffffffff610a8116565b600061077f33600035600160e060020a031916610928565b15156107f4577f5133a133185f1023427a2e90f18506b27db994977ce0c0faafd514a7dd109ae03033600035600160e060020a031916604051600160a060020a039384168152919092166020820152600160e060020a03199091166040808301919091526060909101905180910390a1610381565b6107fd82610875565b15156108155761080e612711610a10565b9050610381565b610828600260058463ffffffff610a9616565b81600160a060020a03167f68a27b527d37d02ca3b29959f3a3adf9e3aa95c2b8670455f61c953c5ae722b360405160405180910390a2506001919050565b600054600160a060020a031681565b600061074c600260058463ffffffff610aaa16565b6000805433600160a060020a039081169116141561038157600160a060020a03821615156108ba57506000610381565b600054600160a060020a0380841691167f8be0079c531659141344cd1fd0a4f28419497f9722a3daafe3b4186f6b6457e060405160405180910390a35060008054600160a060020a03831673ffffffffffffffffffffffffffffffffffffffff199091161790556001919050565b600030600160a060020a031683600160a060020a0316141561094c5750600161074c565b600454600160a060020a031615156109665750600061074c565b600454600160a060020a031663b700961384308560405160e060020a63ffffffff8616028152600160a060020a039384166004820152919092166024820152600160e060020a03199091166044820152606401602060405180830381600087803b15156109d257600080fd5b5af115156109df57600080fd5b5050506040518051949350505050565b6109f7610fb1565b610a09610a048484610ac0565b610adc565b9392505050565b600033600160a060020a03167f9cf38cf2dbf9139f5c32639950507b10775fbbe0421f3e168bc2d1bb1ae3208c8360405190815260200160405180910390a25090565b610a678383600160a060020a038416610b66565b505050565b6105b1848484600160a060020a038516610b7b565b6000610a8e848484610c09565b949350505050565b610a678383600160a060020a038416610c96565b6000610a8e8484600160a060020a038516610cab565b610ac8610fb1565b610a09838360ea60020a621cd95d02610cc2565b610ae4610fb1565b610aec610fb1565b60008351604051805910610afd5750595b90808252806020026020018201604052509150600090505b8351811015610b5f57838181518110610b2a57fe5b90602001906020020151828281518110610b4057fe5b600160a060020a03909216602092830290910190910152600101610b15565b5092915050565b610a67838360ea60020a621cd95d0284610d3b565b835460018501548454600160a060020a039092169163a14ff85791908560405191825260208201526040908101905180910390208460405160e060020a63ffffffff8616028152600481019390935260248301919091526044820152606401600060405180830381600087803b1515610bf357600080fd5b5af11515610c0057600080fd5b50505050505050565b825460018401548354600092600160a060020a0316916337d9d7fc9185604051918252602082015260409081019051809103902060405160e060020a63ffffffff851602815260048101929092526024820152604401602060405180830381600087803b1515610c7857600080fd5b5af11515610c8557600080fd5b505050604051805195945050505050565b610a67838360ea60020a621cd95d0284610d96565b6000610a8e848460ea60020a621cd95d0285610e3b565b610cca610fb1565b600080610cd8868686610e57565b915081604051805910610ce85750595b90808252806020026020018201604052509250600090505b81811015610d3257610d1486868684610e64565b838281518110610d2057fe5b60209081029091010152600101610d00565b50509392505050565b6000610d4985858585610e3b565b15610d5357610d8f565b610d5e858585610e57565b6001019050610d738560028601858486610e81565b610d838560018601858585610e81565b610d8f85858584610ea5565b5050505050565b6000806000610da787878787610e3b565b1515610db257610c00565b610dbd878787610e57565b9250610dce87600288018786610f1d565b9150610ddf87876001018787610f1d565b905082811015610e0957610df98760018801878585610e81565b610e098760028801878486610e81565b610e1a876001880187876000610e81565b610e2b876002880187866000610e81565b610c008787876000198701610ea5565b6000610e4c85856001018585610f1d565b151595945050505050565b6000610a8e848484610f42565b6000610e7885600286018560018601610f1d565b95945050505050565b610d8f85858585604051918252602082015260409081019051809103902084610b7b565b835460018501548454600160a060020a03909216916353e7168b91908560405191825260208201526040908101905180910390208460405160e060020a63ffffffff8616028152600481019390935260248301919091526044820152606401600060405180830381600087803b1515610bf357600080fd5b6000610e78858585856040519182526020820152604090810190518091039020610c09565b825460018401548354600092600160a060020a0316916353aa3f5e9185604051918252602082015260409081019051809103902060405160e060020a63ffffffff851602815260048101929092526024820152604401602060405180830381600087803b1515610c7857600080fd5b60206040519081016040526000815290565b825473ffffffffffffffffffffffffffffffffffffffff1916600160a060020a0392909216919091178255600190910155565b611000828261100e565b5050565b61100082826110d3565b61104f82826040519081527f636f756e74000000000000000000000000000000000000000000000000000000602082015260250160405180910390206110d3565b61109382600101826040519081527f696e646578657300000000000000000000000000000000000000000000000000602082015260270160405180910390206110d3565b61100082600201826040519081527f76616c7565730000000000000000000000000000000000000000000000000000602082015260260160405180910390205b81546110df90826110eb565b9055565b81546110df90825b811515806110f7575080155b1561100057600080fd00a165627a7a723058207853d6e4b2054d5e47842c42178d41ca6bcbe933995f3c1bcaaf491fbf2fb8ca0029",
  "source": "/**\n* Copyright 2017–2018, LaborX PTY\n* Licensed under the AGPL Version 3 license.\n*/\n\npragma solidity ^0.4.21;\n\nimport \"solidity-shared-lib/contracts/Owned.sol\";\nimport \"solidity-storage-lib/contracts/StorageAdapter.sol\";\nimport \"./adapters/Roles2LibraryAdapter.sol\";\n\n/**\n*  @title ContractsManager\n*/\ncontract ContractsManager is Owned, StorageAdapter, Roles2LibraryAdapter {\n    uint constant OK = 1;\n    uint constant ERROR_CONTRACT_EXISTS = 10000;\n    uint constant ERROR_CONTRACT_NOT_EXISTS = 10001;\n\n    StorageInterface.AddressesSet contractsAddresses;\n    StorageInterface.Bytes32AddressMapping contractsTypes;\n\n    event ContractsManagerAddContract(address indexed contractAddress, bytes32 t);\n    event ContractsManagerRemoveContract(address indexed contractAddress);\n    event Error(address indexed self, uint errorCode);\n\n    /**\n    *  @notice Constructor that sets `storage` and `crate` to given values.\n    */\n    function ContractsManager(Storage _store, bytes32 _crate, address _roles2Library)\n    public\n    StorageAdapter(_store, _crate)\n    Roles2LibraryAdapter(_roles2Library)\n    {\n        contractsAddresses.init('contracts');\n        contractsTypes.init('contractTypes');\n    }\n\n    /**\n    *  @dev Allow owner to add new contract\n    *\n    *  @param _contract contacts address\n    *  @param _type contracts type\n    *\n    *  @return result code, 1 if success, otherwise error code\n    */\n    function addContract(address _contract, bytes32 _type)\n    public\n    auth()\n    returns (uint)\n    {\n        if (isExists(_contract)) {\n            return emitError(ERROR_CONTRACT_EXISTS);\n        }\n\n        store.add(contractsAddresses, _contract);\n        store.set(contractsTypes, _type, _contract);\n\n        emit ContractsManagerAddContract(_contract, _type);\n        return OK;\n    }\n\n    /**\n    *  @dev Allow owner to add new contract\n    *\n    *  @param _contract contacts address\n    *\n    *  @return result code, 1 if success, otherwise error code\n    */\n    function removeContract(address _contract)\n    public\n    auth()\n    returns (uint)\n    {\n        if (!isExists(_contract)) {\n            return emitError(ERROR_CONTRACT_NOT_EXISTS);\n        }\n\n        store.remove(contractsAddresses, _contract);\n        // TODO\n        //store.remove(contractsTypes, _type, _contract);\n\n        emit ContractsManagerRemoveContract(_contract);\n        return OK;\n    }\n\n    /**\n    *   @dev Returns an array containing all contracts addresses.\n    *   @return Array of token addresses.\n    */\n    function getContractAddresses()\n    public\n    view\n    returns (address[])\n    {\n        return store.get(contractsAddresses);\n    }\n\n    /**\n    *   @dev Returns a contracts address by given type.\n    *   @return contractAddress\n    */\n    function getContractAddressByType(bytes32 _type)\n    public\n    view\n    returns (address contractAddress)\n    {\n        return store.get(contractsTypes, _type);\n    }\n\n    /**\n    *  @dev Tells whether a contract wit a given address exists.\n    *\n    *  @return `true` if a contract has been registers, otherwise `false`\n    */\n    function isExists(address _contract)\n    public\n    view\n    returns (bool)\n    {\n        return store.includes(contractsAddresses, _contract);\n    }\n\n    /**\n    *  @dev Util function which throws error event with a given error\n    */\n    function emitError(uint e)\n    private\n    returns (uint)\n    {\n        emit Error(msg.sender, e);\n        return e;\n    }\n}\n",
  "sourcePath": "/Users/alesanro/Documents/Projects/ChronoBank/LX-SC/contracts/ContractsManager.sol",
  "compiler": {
    "name": "solc",
    "version": "0.4.21+commit.dfe3193c.Emscripten.clang"
  },
  "schemaVersion": "2.0.0",
  "updatedAt": "2018-06-20T11:53:20.557Z"
}