{
  "contractName": "ContractsManager",
  "abi": [
    {
      "constant": false,
      "inputs": [
        {
          "name": "_roles2Library",
          "type": "address"
        }
      ],
      "name": "setRoles2Library",
      "outputs": [
        {
          "name": "",
          "type": "uint256"
        }
      ],
      "payable": false,
      "stateMutability": "nonpayable",
      "type": "function"
    },
    {
      "constant": false,
      "inputs": [],
      "name": "claimContractOwnership",
      "outputs": [
        {
          "name": "",
          "type": "bool"
        }
      ],
      "payable": false,
      "stateMutability": "nonpayable",
      "type": "function"
    },
    {
      "constant": false,
      "inputs": [
        {
          "name": "_to",
          "type": "address"
        }
      ],
      "name": "changeContractOwnership",
      "outputs": [
        {
          "name": "",
          "type": "bool"
        }
      ],
      "payable": false,
      "stateMutability": "nonpayable",
      "type": "function"
    },
    {
      "constant": true,
      "inputs": [],
      "name": "pendingContractOwner",
      "outputs": [
        {
          "name": "",
          "type": "address"
        }
      ],
      "payable": false,
      "stateMutability": "view",
      "type": "function"
    },
    {
      "constant": false,
      "inputs": [
        {
          "name": "tokens",
          "type": "address[]"
        }
      ],
      "name": "withdrawTokens",
      "outputs": [],
      "payable": false,
      "stateMutability": "nonpayable",
      "type": "function"
    },
    {
      "constant": false,
      "inputs": [],
      "name": "withdrawEther",
      "outputs": [],
      "payable": false,
      "stateMutability": "nonpayable",
      "type": "function"
    },
    {
      "constant": true,
      "inputs": [],
      "name": "contractOwner",
      "outputs": [
        {
          "name": "",
          "type": "address"
        }
      ],
      "payable": false,
      "stateMutability": "view",
      "type": "function"
    },
    {
      "inputs": [
        {
          "name": "_store",
          "type": "address"
        },
        {
          "name": "_crate",
          "type": "bytes32"
        },
        {
          "name": "_roles2Library",
          "type": "address"
        }
      ],
      "payable": false,
      "stateMutability": "nonpayable",
      "type": "constructor"
    },
    {
      "anonymous": false,
      "inputs": [
        {
          "indexed": true,
          "name": "contractAddress",
          "type": "address"
        },
        {
          "indexed": false,
          "name": "t",
          "type": "bytes32"
        }
      ],
      "name": "ContractsManagerAddContract",
      "type": "event"
    },
    {
      "anonymous": false,
      "inputs": [
        {
          "indexed": true,
          "name": "contractAddress",
          "type": "address"
        }
      ],
      "name": "ContractsManagerRemoveContract",
      "type": "event"
    },
    {
      "anonymous": false,
      "inputs": [
        {
          "indexed": true,
          "name": "self",
          "type": "address"
        },
        {
          "indexed": false,
          "name": "errorCode",
          "type": "uint256"
        }
      ],
      "name": "Error",
      "type": "event"
    },
    {
      "anonymous": false,
      "inputs": [
        {
          "indexed": false,
          "name": "code",
          "type": "address"
        },
        {
          "indexed": false,
          "name": "sender",
          "type": "address"
        },
        {
          "indexed": false,
          "name": "sig",
          "type": "bytes4"
        }
      ],
      "name": "AuthFailedError",
      "type": "event"
    },
    {
      "constant": false,
      "inputs": [
        {
          "name": "_contract",
          "type": "address"
        },
        {
          "name": "_type",
          "type": "bytes32"
        }
      ],
      "name": "addContract",
      "outputs": [
        {
          "name": "",
          "type": "uint256"
        }
      ],
      "payable": false,
      "stateMutability": "nonpayable",
      "type": "function"
    },
    {
      "constant": false,
      "inputs": [
        {
          "name": "_contract",
          "type": "address"
        }
      ],
      "name": "removeContract",
      "outputs": [
        {
          "name": "",
          "type": "uint256"
        }
      ],
      "payable": false,
      "stateMutability": "nonpayable",
      "type": "function"
    },
    {
      "constant": true,
      "inputs": [],
      "name": "getContractAddresses",
      "outputs": [
        {
          "name": "",
          "type": "address[]"
        }
      ],
      "payable": false,
      "stateMutability": "view",
      "type": "function"
    },
    {
      "constant": true,
      "inputs": [
        {
          "name": "_type",
          "type": "bytes32"
        }
      ],
      "name": "getContractAddressByType",
      "outputs": [
        {
          "name": "contractAddress",
          "type": "address"
        }
      ],
      "payable": false,
      "stateMutability": "view",
      "type": "function"
    },
    {
      "constant": true,
      "inputs": [
        {
          "name": "_contract",
          "type": "address"
        }
      ],
      "name": "isExists",
      "outputs": [
        {
          "name": "",
          "type": "bool"
        }
      ],
      "payable": false,
      "stateMutability": "view",
      "type": "function"
    }
  ],
  "bytecode": "0x606060405234156200001057600080fd5b6040516060806200130583398101604052808051919060200180519190602001805160008054600160a060020a03191633600160a060020a031617905591508190508383620000706002838364010000000062000111810262000ed91704565b505060048054600160a060020a031916600160a060020a0392909216919091179055620000cd60057f636f6e747261637473000000000000000000000000000000000000000000000064010000000062000137810262000f0c1704565b6200010860087f636f6e747261637454797065730000000000000000000000000000000000000064010000000062000f1a6200015582021704565b505050620002b2565b8254600160a060020a031916600160a060020a0392909216919091178255600190910155565b62000151828264010000000062000f246200016f82021704565b5050565b62000151828264010000000062000fe96200027a82021704565b620001c682826040519081527f636f756e74000000000000000000000000000000000000000000000000000000602082015260250160405180910390206200027a6401000000000262000fe9176401000000009004565b6200022082600101826040519081527f696e646578657300000000000000000000000000000000000000000000000000602082015260270160405180910390206200027a6401000000000262000fe9176401000000009004565b6200015182600201826040519081527f76616c7565730000000000000000000000000000000000000000000000000000602082015260260160405180910390206200027a6401000000000262000fe9176401000000009004565b8154620002969082640100000000620010016200029a82021704565b9055565b81151580620002a7575080155b156200015157600080fd5b61104380620002c26000396000f3006060604052600436106100a05763ffffffff60e060020a6000350416632637cd7d81146100a55780634592cd1d146100d6578063557f4bc9146100fd5780635aa77d3c1461011c5780635ecb16cd1461014b5780637362377b1461016b578063953874d21461017e578063b7c46cd5146101e4578063bc65792714610206578063c375c2ef1461021c578063ce606ee01461023b578063e0d4f1c31461024e575b600080fd5b34156100b057600080fd5b6100c4600160a060020a036004351661026d565b60405190815260200160405180910390f35b34156100e157600080fd5b6100e961032b565b604051901515815260200160405180910390f35b341561010857600080fd5b6100e9600160a060020a0360043516610383565b341561012757600080fd5b61012f6103e3565b604051600160a060020a03909116815260200160405180910390f35b341561015657600080fd5b61016960048035602481019101356103f2565b005b341561017657600080fd5b61016961053d565b341561018957600080fd5b6101916105a6565b60405160208082528190810183818151815260200191508051906020019060200280838360005b838110156101d05780820151838201526020016101b8565b505050509050019250505060405180910390f35b34156101ef57600080fd5b6100c4600160a060020a03600435166024356105c5565b341561021157600080fd5b61012f6004356106e0565b341561022757600080fd5b6100c4600160a060020a03600435166106f5565b341561024657600080fd5b61012f6107f4565b341561025957600080fd5b6100e9600160a060020a0360043516610803565b600061028533600035600160e060020a031916610818565b15156102fa577f5133a133185f1023427a2e90f18506b27db994977ce0c0faafd514a7dd109ae03033600035600160e060020a031916604051600160a060020a039384168152919092166020820152600160e060020a03199091166040808301919091526060909101905180910390a1610326565b506004805473ffffffffffffffffffffffffffffffffffffffff1916600160a060020a03831617905560015b919050565b60015460009033600160a060020a0390811691161461034c57506000610380565b50600180546000805473ffffffffffffffffffffffffffffffffffffffff19908116600160a060020a038416179091551681555b90565b6000805433600160a060020a039081169116141561032657600160a060020a03821615156103b357506000610326565b5060018054600160a060020a03831673ffffffffffffffffffffffffffffffffffffffff19909116178155919050565b600154600160a060020a031681565b600080548190819033600160a060020a039081169116141561053657600092505b838310156105365784848481811061042757fe5b90506020020135600160a060020a0316915081600160a060020a03166370a082313060006040516020015260405160e060020a63ffffffff8416028152600160a060020a039091166004820152602401602060405180830381600087803b151561049057600080fd5b6102c65a03f115156104a157600080fd5b5050506040518051915050801561052b5781600160a060020a031663a9059cbb338360006040516020015260405160e060020a63ffffffff8516028152600160a060020a0390921660048301526024820152604401602060405180830381600087803b151561050f57600080fd5b6102c65a03f1151561052057600080fd5b505050604051805150505b600190920191610413565b5050505050565b60005433600160a060020a03908116911614156105a457600030600160a060020a03163111156105a45733600160a060020a03166108fc30600160a060020a0316319081150290604051600060405180830381858888f1935050505015156105a457600080fd5b565b6105ae610ec7565b6105c06002600563ffffffff6108ec16565b905090565b60006105dd33600035600160e060020a031916610818565b1515610652577f5133a133185f1023427a2e90f18506b27db994977ce0c0faafd514a7dd109ae03033600035600160e060020a031916604051600160a060020a039384168152919092166020820152600160e060020a03199091166040808301919091526060909101905180910390a16106da565b61065b83610803565b156106725761066b61271061090d565b90506106da565b610685600260058563ffffffff61095016565b61069960026008848663ffffffff61096916565b82600160a060020a03167ff42ffc9f05349eb942072e43a552548d1e4eb637b572f7dca6b587b765cde0cf8360405190815260200160405180910390a25060015b92915050565b60006106da600260088463ffffffff61098416565b600061070d33600035600160e060020a031916610818565b1515610782577f5133a133185f1023427a2e90f18506b27db994977ce0c0faafd514a7dd109ae03033600035600160e060020a031916604051600160a060020a039384168152919092166020820152600160e060020a03199091166040808301919091526060909101905180910390a1610326565b61078b82610803565b15156107a35761079c61271161090d565b9050610326565b6107b6600260058463ffffffff61099916565b81600160a060020a03167f68a27b527d37d02ca3b29959f3a3adf9e3aa95c2b8670455f61c953c5ae722b360405160405180910390a2506001919050565b600054600160a060020a031681565b60006106da600260058463ffffffff6109ad16565b600030600160a060020a031683600160a060020a0316141561083c575060016106da565b600454600160a060020a03161515610856575060006106da565b600454600160a060020a031663b700961384308560006040516020015260405160e060020a63ffffffff8616028152600160a060020a039384166004820152919092166024820152600160e060020a03199091166044820152606401602060405180830381600087803b15156108cb57600080fd5b6102c65a03f115156108dc57600080fd5b5050506040518051949350505050565b6108f4610ec7565b61090661090184846109c3565b6109df565b9392505050565b600033600160a060020a03167f9cf38cf2dbf9139f5c32639950507b10775fbbe0421f3e168bc2d1bb1ae3208c8360405190815260200160405180910390a25090565b6109648383600160a060020a038416610a69565b505050565b61097e848484600160a060020a038516610a7e565b50505050565b6000610991848484610b10565b949350505050565b6109648383600160a060020a038416610baa565b60006109918484600160a060020a038516610bbf565b6109cb610ec7565b610906838360ea60020a621cd95d02610bd6565b6109e7610ec7565b6109ef610ec7565b60008351604051805910610a005750595b90808252806020026020018201604052509150600090505b8351811015610a6257838181518110610a2d57fe5b90602001906020020151828281518110610a4357fe5b600160a060020a03909216602092830290910190910152600101610a18565b5092915050565b610964838360ea60020a621cd95d0284610c4f565b835460018501548454600160a060020a039092169163a14ff85791908560405191825260208201526040908101905180910390208460405160e060020a63ffffffff8616028152600481019390935260248301919091526044820152606401600060405180830381600087803b1515610af657600080fd5b6102c65a03f11515610b0757600080fd5b50505050505050565b825460018401548354600092600160a060020a0316916337d9d7fc9185604051918252602082015260409081019051809103902060006040516020015260405160e060020a63ffffffff851602815260048101929092526024820152604401602060405180830381600087803b1515610b8857600080fd5b6102c65a03f11515610b9957600080fd5b505050604051805195945050505050565b610964838360ea60020a621cd95d0284610ca3565b6000610991848460ea60020a621cd95d0285610d48565b610bde610ec7565b600080610bec868686610d64565b915081604051805910610bfc5750595b90808252806020026020018201604052509250600090505b81811015610c4657610c2886868684610d71565b838281518110610c3457fe5b60209081029091010152600101610c14565b50509392505050565b6000610c5d85858585610d48565b15610c6757610536565b610c72858585610d64565b6001019050610c878560028601858486610d8e565b610c978560018601858585610d8e565b61053685858584610db2565b6000806000610cb487878787610d48565b1515610cbf57610b07565b610cca878787610d64565b9250610cdb87600288018786610e2a565b9150610cec87876001018787610e2a565b905082811015610d1657610d068760018801878585610d8e565b610d168760028801878486610d8e565b610d27876001880187876000610d8e565b610d38876002880187866000610d8e565b610b078787876000198701610db2565b6000610d5985856001018585610e2a565b151595945050505050565b6000610991848484610e4f565b6000610d8585600286018560018601610e2a565b95945050505050565b61053685858585604051918252602082015260409081019051809103902084610a7e565b835460018501548454600160a060020a03909216916353e7168b91908560405191825260208201526040908101905180910390208460405160e060020a63ffffffff8616028152600481019390935260248301919091526044820152606401600060405180830381600087803b1515610af657600080fd5b6000610d85858585856040519182526020820152604090810190518091039020610b10565b825460018401548354600092600160a060020a0316916353aa3f5e9185604051918252602082015260409081019051809103902060006040516020015260405160e060020a63ffffffff851602815260048101929092526024820152604401602060405180830381600087803b1515610b8857600080fd5b60206040519081016040526000815290565b825473ffffffffffffffffffffffffffffffffffffffff1916600160a060020a0392909216919091178255600190910155565b610f168282610f24565b5050565b610f168282610fe9565b610f6582826040519081527f636f756e7400000000000000000000000000000000000000000000000000000060208201526025016040518091039020610fe9565b610fa982600101826040519081527f696e64657865730000000000000000000000000000000000000000000000000060208201526027016040518091039020610fe9565b610f1682600201826040519081527f76616c7565730000000000000000000000000000000000000000000000000000602082015260260160405180910390205b8154610ff59082611001565b9055565b8154610ff590825b8115158061100d575080155b15610f1657600080fd00a165627a7a72305820695fafdbc877ef50a54c8a9a6ff56b8895d75477ce8ae14a733035eedf66cbdc0029",
  "source": "/**\n* Copyright 2017–2018, LaborX PTY\n* Licensed under the AGPL Version 3 license.\n*/\n\npragma solidity ^0.4.11;\n\nimport \"./base/Owned.sol\";\nimport \"./adapters/StorageAdapter.sol\";\nimport \"./adapters/Roles2LibraryAdapter.sol\";\n\n/**\n*  @title ContractsManager\n*/\ncontract ContractsManager is Owned, StorageAdapter, Roles2LibraryAdapter {\n    uint constant OK = 1;\n    uint constant ERROR_CONTRACT_EXISTS = 10000;\n    uint constant ERROR_CONTRACT_NOT_EXISTS = 10001;\n\n    StorageInterface.AddressesSet contractsAddresses;\n    StorageInterface.Bytes32AddressMapping contractsTypes;\n\n    event ContractsManagerAddContract(address indexed contractAddress, bytes32 t);\n    event ContractsManagerRemoveContract(address indexed contractAddress);\n    event Error(address indexed self, uint errorCode);\n\n    /**\n    *  @notice Constructor that sets `storage` and `crate` to given values.\n    */\n    function ContractsManager(Storage _store, bytes32 _crate, address _roles2Library)\n    public\n    StorageAdapter(_store, _crate)\n    Roles2LibraryAdapter(_roles2Library)\n    {\n        contractsAddresses.init('contracts');\n        contractsTypes.init('contractTypes');\n    }\n\n    /**\n    *  @dev Allow owner to add new contract\n    *\n    *  @param _contract contacts address\n    *  @param _type contracts type\n    *\n    *  @return result code, 1 if success, otherwise error code\n    */\n    function addContract(address _contract, bytes32 _type)\n    public\n    auth()\n    returns (uint)\n    {\n        if (isExists(_contract)) {\n            return emitError(ERROR_CONTRACT_EXISTS);\n        }\n\n        store.add(contractsAddresses, _contract);\n        store.set(contractsTypes, _type, _contract);\n\n        ContractsManagerAddContract(_contract, _type);\n        return OK;\n    }\n\n    /**\n    *  @dev Allow owner to add new contract\n    *\n    *  @param _contract contacts address\n    *\n    *  @return result code, 1 if success, otherwise error code\n    */\n    function removeContract(address _contract)\n    public\n    auth()\n    returns (uint)\n    {\n        if (!isExists(_contract)) {\n            return emitError(ERROR_CONTRACT_NOT_EXISTS);\n        }\n\n        store.remove(contractsAddresses, _contract);\n        // TODO\n        //store.remove(contractsTypes, _type, _contract);\n\n        ContractsManagerRemoveContract(_contract);\n        return OK;\n    }\n\n    /**\n    *   @dev Returns an array containing all contracts addresses.\n    *   @return Array of token addresses.\n    */\n    function getContractAddresses()\n    public\n    view\n    returns (address[])\n    {\n        return store.get(contractsAddresses);\n    }\n\n    /**\n    *   @dev Returns a contracts address by given type.\n    *   @return contractAddress\n    */\n    function getContractAddressByType(bytes32 _type)\n    public\n    view\n    returns (address contractAddress)\n    {\n        return store.get(contractsTypes, _type);\n    }\n\n    /**\n    *  @dev Tells whether a contract wit a given address exists.\n    *\n    *  @return `true` if a contract has been registers, otherwise `false`\n    */\n    function isExists(address _contract)\n    public\n    view\n    returns (bool)\n    {\n        return store.includes(contractsAddresses, _contract);\n    }\n\n    /**\n    *  @dev Util function which throws error event with a given error\n    */\n    function emitError(uint e)\n    private\n    returns (uint)\n    {\n        Error(msg.sender, e);\n        return e;\n    }\n}\n",
  "sourcePath": "/Users/ahiatsevich/Development/chronobank/LX-SC/contracts/ContractsManager.sol",
  "compiler": {
    "name": "solc",
    "version": "0.4.19+commit.c4cbbb05.Emscripten.clang"
  },
  "schemaVersion": "2.0.0",
  "updatedAt": "2018-06-01T12:08:10.283Z"
}