{
  "contractName": "ERC20Library",
  "abi": [
    {
      "constant": false,
      "inputs": [
        {
          "name": "_roles2Library",
          "type": "address"
        }
      ],
      "name": "setRoles2Library",
      "outputs": [
        {
          "name": "",
          "type": "uint256"
        }
      ],
      "payable": false,
      "stateMutability": "nonpayable",
      "type": "function"
    },
    {
      "constant": false,
      "inputs": [
        {
          "name": "_errorCode",
          "type": "uint256"
        }
      ],
      "name": "emitErrorCode",
      "outputs": [],
      "payable": false,
      "stateMutability": "nonpayable",
      "type": "function"
    },
    {
      "constant": false,
      "inputs": [
        {
          "name": "_msg",
          "type": "bytes32"
        }
      ],
      "name": "emitError",
      "outputs": [],
      "payable": false,
      "stateMutability": "nonpayable",
      "type": "function"
    },
    {
      "constant": true,
      "inputs": [],
      "name": "getEventsHistory",
      "outputs": [
        {
          "name": "",
          "type": "address"
        }
      ],
      "payable": false,
      "stateMutability": "view",
      "type": "function"
    },
    {
      "inputs": [
        {
          "name": "_store",
          "type": "address"
        },
        {
          "name": "_crate",
          "type": "bytes32"
        },
        {
          "name": "_roles2Library",
          "type": "address"
        }
      ],
      "payable": false,
      "stateMutability": "nonpayable",
      "type": "constructor"
    },
    {
      "anonymous": false,
      "inputs": [
        {
          "indexed": true,
          "name": "self",
          "type": "address"
        },
        {
          "indexed": true,
          "name": "contractAddress",
          "type": "address"
        }
      ],
      "name": "ContractAdded",
      "type": "event"
    },
    {
      "anonymous": false,
      "inputs": [
        {
          "indexed": true,
          "name": "self",
          "type": "address"
        },
        {
          "indexed": true,
          "name": "contractAddress",
          "type": "address"
        }
      ],
      "name": "ContractRemoved",
      "type": "event"
    },
    {
      "anonymous": false,
      "inputs": [
        {
          "indexed": false,
          "name": "code",
          "type": "address"
        },
        {
          "indexed": false,
          "name": "sender",
          "type": "address"
        },
        {
          "indexed": false,
          "name": "sig",
          "type": "bytes4"
        }
      ],
      "name": "AuthFailedError",
      "type": "event"
    },
    {
      "anonymous": false,
      "inputs": [
        {
          "indexed": true,
          "name": "self",
          "type": "address"
        },
        {
          "indexed": false,
          "name": "msg",
          "type": "bytes32"
        }
      ],
      "name": "Error",
      "type": "event"
    },
    {
      "anonymous": false,
      "inputs": [
        {
          "indexed": true,
          "name": "self",
          "type": "address"
        },
        {
          "indexed": false,
          "name": "errorCode",
          "type": "uint256"
        }
      ],
      "name": "ErrorCode",
      "type": "event"
    },
    {
      "constant": false,
      "inputs": [
        {
          "name": "_eventsHistory",
          "type": "address"
        }
      ],
      "name": "setupEventsHistory",
      "outputs": [
        {
          "name": "",
          "type": "uint256"
        }
      ],
      "payable": false,
      "stateMutability": "nonpayable",
      "type": "function"
    },
    {
      "constant": true,
      "inputs": [],
      "name": "count",
      "outputs": [
        {
          "name": "",
          "type": "uint256"
        }
      ],
      "payable": false,
      "stateMutability": "view",
      "type": "function"
    },
    {
      "constant": true,
      "inputs": [
        {
          "name": "_contract",
          "type": "address"
        }
      ],
      "name": "includes",
      "outputs": [
        {
          "name": "",
          "type": "bool"
        }
      ],
      "payable": false,
      "stateMutability": "view",
      "type": "function"
    },
    {
      "constant": true,
      "inputs": [],
      "name": "getContracts",
      "outputs": [
        {
          "name": "",
          "type": "address[]"
        }
      ],
      "payable": false,
      "stateMutability": "view",
      "type": "function"
    },
    {
      "constant": true,
      "inputs": [
        {
          "name": "_index",
          "type": "uint256"
        }
      ],
      "name": "getContract",
      "outputs": [
        {
          "name": "",
          "type": "address"
        }
      ],
      "payable": false,
      "stateMutability": "view",
      "type": "function"
    },
    {
      "constant": false,
      "inputs": [
        {
          "name": "_address",
          "type": "address"
        }
      ],
      "name": "addContract",
      "outputs": [
        {
          "name": "",
          "type": "uint256"
        }
      ],
      "payable": false,
      "stateMutability": "nonpayable",
      "type": "function"
    },
    {
      "constant": false,
      "inputs": [
        {
          "name": "_address",
          "type": "address"
        }
      ],
      "name": "removeContract",
      "outputs": [
        {
          "name": "",
          "type": "uint256"
        }
      ],
      "payable": false,
      "stateMutability": "nonpayable",
      "type": "function"
    },
    {
      "constant": false,
      "inputs": [
        {
          "name": "_address",
          "type": "address"
        }
      ],
      "name": "emitContractAdded",
      "outputs": [],
      "payable": false,
      "stateMutability": "nonpayable",
      "type": "function"
    },
    {
      "constant": false,
      "inputs": [
        {
          "name": "_address",
          "type": "address"
        }
      ],
      "name": "emitContractRemoved",
      "outputs": [],
      "payable": false,
      "stateMutability": "nonpayable",
      "type": "function"
    }
  ],
  "bytecode": "0x606060405234156200001057600080fd5b604051606080620011bb83398101604052808051919060200180519190602001805191508190508383620000556000838364010000000062000de9620000bb82021704565b505060038054600160a060020a031916600160a060020a0392909216919091179055620000b260047f636f6e7472616374730000000000000000000000000000000000000000000000640100000000620000e1810262000e1c1704565b50505062000242565b8254600160a060020a031916600160a060020a0392909216919091178255600190910155565b620000fb828264010000000062000e2a620000ff82021704565b5050565b6200015682826040519081527f636f756e74000000000000000000000000000000000000000000000000000000602082015260250160405180910390206200020a6401000000000262000eef176401000000009004565b620001b082600101826040519081527f696e646578657300000000000000000000000000000000000000000000000000602082015260270160405180910390206200020a6401000000000262000eef176401000000009004565b620000fb82600201826040519081527f76616c7565730000000000000000000000000000000000000000000000000000602082015260260160405180910390206200020a6401000000000262000eef176401000000009004565b815462000226908264010000000062000f076200022a82021704565b9055565b8115158062000237575080155b15620000fb57600080fd5b610f6980620002526000396000f3006060604052600436106100ab5763ffffffff60e060020a60003504166302927d2081146100b057806306661abd146100e157806313f5b000146100f45780631aedefda146101155780632637cd7d14610148578063577d4d35146101675780635f539d69146101865780636ebc8c86146101a55780638834277e146101d7578063c375c2ef146101ed578063c3a2a93a1461020c578063e90459f814610272578063fff10aba14610288575b600080fd5b34156100bb57600080fd5b6100cf600160a060020a036004351661029b565b60405190815260200160405180910390f35b34156100ec57600080fd5b6100cf61033f565b34156100ff57600080fd5b610113600160a060020a0360043516610357565b005b341561012057600080fd5b610134600160a060020a03600435166103a1565b604051901515815260200160405180910390f35b341561015357600080fd5b6100cf600160a060020a03600435166103bb565b341561017257600080fd5b610113600160a060020a0360043516610468565b341561019157600080fd5b6100cf600160a060020a03600435166104b2565b34156101b057600080fd5b6101bb600435610571565b604051600160a060020a03909116815260200160405180910390f35b34156101e257600080fd5b610113600435610585565b34156101f857600080fd5b6100cf600160a060020a03600435166105cc565b341561021757600080fd5b61021f61067d565b60405160208082528190810183818151815260200191508051906020019060200280838360005b8381101561025e578082015183820152602001610246565b505050509050019250505060405180910390f35b341561027d57600080fd5b610113600435610697565b341561029357600080fd5b6101bb6106de565b60006102b333600035600160e060020a0319166106ed565b151561031657600080516020610f1e8339815191523033600035600160e060020a031916604051600160a060020a039384168152919092166020820152600160e060020a03199091166040808301919091526060909101905180910390a161033a565b600160a060020a038216151561032b57600080fd5b610334826107c1565b50600190505b919050565b600061035281600463ffffffff6107f216565b905090565b80600160a060020a0316610369610805565b600160a060020a03167f1de42a421eef953b12e8dffca9f7ba12e7962c982fc649e5e2c32ea0e7e3ca6460405160405180910390a350565b60006103b58160048463ffffffff61080916565b92915050565b60006103d333600035600160e060020a0319166106ed565b151561043657600080516020610f1e8339815191523033600035600160e060020a031916604051600160a060020a039384168152919092166020820152600160e060020a03199091166040808301919091526060909101905180910390a161033a565b5060038054600160a060020a03831673ffffffffffffffffffffffffffffffffffffffff199091161790556001919050565b80600160a060020a031661047a610805565b600160a060020a03167f309257c141a2c93f000e4b07bac1d05c8565f499f0efcbdcd6be77d0aac3352760405160405180910390a350565b60006104ca33600035600160e060020a0319166106ed565b151561052d57600080516020610f1e8339815191523033600035600160e060020a031916604051600160a060020a039384168152919092166020820152600160e060020a03199091166040808301919091526060909101905180910390a161033a565b610536826103a1565b1561054d57610546612ee1610827565b905061033a565b610560600060048463ffffffff61089016565b610569826108a9565b506001919050565b60006103b58160048463ffffffff61091516565b61058d610805565b600160a060020a03167f09e0713b45664e161c202b19bb4574ee83dfa056f9bfdee56847b3971d9682218260405190815260200160405180910390a250565b60006105e433600035600160e060020a0319166106ed565b151561064757600080516020610f1e8339815191523033600035600160e060020a031916604051600160a060020a039384168152919092166020820152600160e060020a03199091166040808301919091526060909101905180910390a161033a565b610650826103a1565b151561066157610546612ee2610827565b610674600060048463ffffffff61092216565b61056982610936565b610685610dd7565b6103526000600463ffffffff61098b16565b61069f610805565b600160a060020a03167fbb8f0c1d8804cd86e7873ec11cb00af945c8c0ebd061a68b28617034803464158260405190815260200160405180910390a250565b600254600160a060020a031690565b600030600160a060020a031683600160a060020a03161415610711575060016103b5565b600354600160a060020a0316151561072b575060006103b5565b600354600160a060020a031663b700961384308560006040516020015260405160e060020a63ffffffff8616028152600160a060020a039384166004820152919092166024820152600160e060020a03199091166044820152606401602060405180830381600087803b15156107a057600080fd5b6102c65a03f115156107b157600080fd5b5050506040518051949350505050565b60028054600160a060020a03831673ffffffffffffffffffffffffffffffffffffffff199091161790556001919050565b60006107fe83836109a5565b9392505050565b3390565b600061081f8484600160a060020a0385166109b1565b949350505050565b60006108316106de565b600160a060020a0316638834277e8360405160e060020a63ffffffff84160281526004810191909152602401600060405180830381600087803b151561087657600080fd5b6102c65a03f1151561088757600080fd5b50929392505050565b6108a48383600160a060020a0384166109cb565b505050565b6108b16106de565b600160a060020a031663577d4d358260405160e060020a63ffffffff8416028152600160a060020a039091166004820152602401600060405180830381600087803b15156108fe57600080fd5b6102c65a03f1151561090f57600080fd5b50505050565b600061081f848484610a1a565b6108a48383600160a060020a038416610a2d565b61093e6106de565b600160a060020a03166313f5b0008260405160e060020a63ffffffff8416028152600160a060020a039091166004820152602401600060405180830381600087803b15156108fe57600080fd5b610993610dd7565b6107fe6109a08484610ad1565b610b51565b60006107fe8383610bdb565b60006109c1848460010184610c3a565b1515949350505050565b60006109d88484846109b1565b156109e25761090f565b6109ec84846109a5565b6001019050610a0084600285018385610cd4565b610a0f84600185018484610cd4565b61090f848483610d66565b600061081f846002850160018501610c3a565b6000806000610a3d8686866109b1565b1515610a4857610ac9565b610a5286866109a5565b9250610a62866002870185610c3a565b9150610a72868660010186610c3a565b905082811015610a9a57610a8b86600187018484610cd4565b610a9a86600287018385610cd4565b610aaa8660018701866000610cd4565b610aba8660028701856000610cd4565b610ac986866000198601610d66565b505050505050565b610ad9610dd7565b6000610ae3610dd7565b6000610aef86866109a5565b925082604051805910610aff5750595b90808252806020026020018201604052509150600090505b82811015610b4857610b2a868683610a1a565b828281518110610b3657fe5b60209081029091010152600101610b17565b50949350505050565b610b59610dd7565b610b61610dd7565b60008351604051805910610b725750595b90808252806020026020018201604052509150600090505b8351811015610bd457838181518110610b9f57fe5b90602001906020020151828281518110610bb557fe5b600160a060020a03909216602092830290910190910152600101610b8a565b5092915050565b815460018301548254600092600160a060020a0316916353aa3f5e91846040516020015260405160e060020a63ffffffff851602815260048101929092526024820152604401602060405180830381600087803b15156107a057600080fd5b825460018401548354600092600160a060020a0316916337d9d7fc9185604051918252602082015260409081019051809103902060006040516020015260405160e060020a63ffffffff851602815260048101929092526024820152604401602060405180830381600087803b1515610cb257600080fd5b6102c65a03f11515610cc357600080fd5b505050604051805195945050505050565b835460018501548454600160a060020a039092169163a14ff85791908560405191825260208201526040908101905180910390208460405160e060020a63ffffffff8616028152600481019390935260248301919091526044820152606401600060405180830381600087803b1515610d4c57600080fd5b6102c65a03f11515610d5d57600080fd5b50505050505050565b825460018401548354600160a060020a03909216916353e7168b91908460405160e060020a63ffffffff8616028152600481019390935260248301919091526044820152606401600060405180830381600087803b1515610dc657600080fd5b6102c65a03f11515610ac957600080fd5b60206040519081016040526000815290565b825473ffffffffffffffffffffffffffffffffffffffff1916600160a060020a0392909216919091178255600190910155565b610e268282610e2a565b5050565b610e6b82826040519081527f636f756e7400000000000000000000000000000000000000000000000000000060208201526025016040518091039020610eef565b610eaf82600101826040519081527f696e64657865730000000000000000000000000000000000000000000000000060208201526027016040518091039020610eef565b610e2682600201826040519081527f76616c7565730000000000000000000000000000000000000000000000000000602082015260260160405180910390205b8154610efb9082610f07565b9055565b8154610efb90825b81151580610f13575080155b15610e2657600080fd005133a133185f1023427a2e90f18506b27db994977ce0c0faafd514a7dd109ae0a165627a7a7230582006c07a835f8936912099b431f93a6f1758eb1593e2a37362c75c29570367bd6e0029",
  "source": "/**\n * Copyright 2017–2018, LaborX PTY\n * Licensed under the AGPL Version 3 license.\n */\n\npragma solidity ^0.4.18;\n\n\nimport './adapters/MultiEventsHistoryAdapter.sol';\nimport './adapters/Roles2LibraryAdapter.sol';\nimport './adapters/StorageAdapter.sol';\n\n\ncontract ERC20Library is StorageAdapter, MultiEventsHistoryAdapter, Roles2LibraryAdapter {\n\n    event ContractAdded(address indexed self, address indexed contractAddress);\n    event ContractRemoved(address indexed self, address indexed contractAddress);\n\n    uint constant ERC20_LIBRARY_SCOPE = 12000;\n    uint constant ERC20_LIBRARY_CONTRACT_EXISTS = ERC20_LIBRARY_SCOPE + 1;\n    uint constant ERC20_LIBRARY_CONTRACT_DOES_NOT_EXIST = ERC20_LIBRARY_SCOPE + 2;\n\n    StorageInterface.AddressesSet contracts;\n\n    function ERC20Library(\n        Storage _store,\n        bytes32 _crate,\n        address _roles2Library\n    )\n    StorageAdapter(_store, _crate)\n    Roles2LibraryAdapter(_roles2Library)\n    public\n    {\n        contracts.init('contracts');\n    }\n\n    function setupEventsHistory(address _eventsHistory) auth external returns (uint) {\n        require(_eventsHistory != 0x0);\n\n        _setEventsHistory(_eventsHistory);\n        return OK;\n    }\n\n    function count() public view returns (uint) {\n        return store.count(contracts);\n    }\n\n    function includes(address _contract) public view returns (bool) {\n        return store.includes(contracts, _contract);\n    }\n\n    function getContracts() public view returns (address[]) {\n        return store.get(contracts);\n    }\n\n    function getContract(uint _index) public view returns (address) {\n        return store.get(contracts, _index);\n    }\n\n    function addContract(address _address) auth external returns (uint) {\n        if (includes(_address)) {\n            return _emitErrorCode(ERC20_LIBRARY_CONTRACT_EXISTS);\n        }\n        store.add(contracts, _address);\n        _emitContractAdded(_address);\n        return OK;\n    }\n\n    function removeContract(address _address) auth external returns (uint) {\n        if (!includes(_address)) {\n            return _emitErrorCode(ERC20_LIBRARY_CONTRACT_DOES_NOT_EXIST);\n        }\n        store.remove(contracts, _address);\n        _emitContractRemoved(_address);\n        return OK;\n    }\n\n    function emitContractAdded(address _address) public {\n        ContractAdded(_self(), _address);\n    }\n\n    function emitContractRemoved(address _address) public {\n        ContractRemoved(_self(), _address);\n    }\n\n    function _emitContractAdded(address _address) internal {\n        ERC20Library(getEventsHistory()).emitContractAdded(_address);\n    }\n\n    function _emitContractRemoved(address _address) internal {\n        ERC20Library(getEventsHistory()).emitContractRemoved(_address);\n    }\n}\n",
  "sourcePath": "/Users/ahiatsevich/Development/chronobank/LX-SC/contracts/ERC20Library.sol",
  "compiler": {
    "name": "solc",
    "version": "0.4.19+commit.c4cbbb05.Emscripten.clang"
  },
  "schemaVersion": "2.0.0",
  "updatedAt": "2018-05-10T14:36:15.311Z"
}