{
  "contractName": "FakeERC20Token",
  "abi": [
    {
      "constant": true,
      "inputs": [],
      "name": "name",
      "outputs": [
        {
          "name": "",
          "type": "string"
        }
      ],
      "payable": false,
      "stateMutability": "view",
      "type": "function"
    },
    {
      "constant": false,
      "inputs": [
        {
          "name": "_spender",
          "type": "address"
        },
        {
          "name": "_value",
          "type": "uint256"
        }
      ],
      "name": "approve",
      "outputs": [
        {
          "name": "",
          "type": "bool"
        }
      ],
      "payable": false,
      "stateMutability": "nonpayable",
      "type": "function"
    },
    {
      "constant": true,
      "inputs": [],
      "name": "totalSupply",
      "outputs": [
        {
          "name": "",
          "type": "uint256"
        }
      ],
      "payable": false,
      "stateMutability": "view",
      "type": "function"
    },
    {
      "constant": false,
      "inputs": [
        {
          "name": "_from",
          "type": "address"
        },
        {
          "name": "_to",
          "type": "address"
        },
        {
          "name": "_value",
          "type": "uint256"
        }
      ],
      "name": "transferFrom",
      "outputs": [
        {
          "name": "",
          "type": "bool"
        }
      ],
      "payable": false,
      "stateMutability": "nonpayable",
      "type": "function"
    },
    {
      "constant": true,
      "inputs": [],
      "name": "INITIAL_SUPPLY",
      "outputs": [
        {
          "name": "",
          "type": "uint256"
        }
      ],
      "payable": false,
      "stateMutability": "view",
      "type": "function"
    },
    {
      "constant": true,
      "inputs": [],
      "name": "decimals",
      "outputs": [
        {
          "name": "",
          "type": "uint8"
        }
      ],
      "payable": false,
      "stateMutability": "view",
      "type": "function"
    },
    {
      "constant": false,
      "inputs": [],
      "name": "unpause",
      "outputs": [],
      "payable": false,
      "stateMutability": "nonpayable",
      "type": "function"
    },
    {
      "constant": false,
      "inputs": [
        {
          "name": "_value",
          "type": "uint256"
        }
      ],
      "name": "burn",
      "outputs": [],
      "payable": false,
      "stateMutability": "nonpayable",
      "type": "function"
    },
    {
      "constant": true,
      "inputs": [],
      "name": "paused",
      "outputs": [
        {
          "name": "",
          "type": "bool"
        }
      ],
      "payable": false,
      "stateMutability": "view",
      "type": "function"
    },
    {
      "constant": false,
      "inputs": [
        {
          "name": "_spender",
          "type": "address"
        },
        {
          "name": "_subtractedValue",
          "type": "uint256"
        }
      ],
      "name": "decreaseApproval",
      "outputs": [
        {
          "name": "success",
          "type": "bool"
        }
      ],
      "payable": false,
      "stateMutability": "nonpayable",
      "type": "function"
    },
    {
      "constant": true,
      "inputs": [
        {
          "name": "_owner",
          "type": "address"
        }
      ],
      "name": "balanceOf",
      "outputs": [
        {
          "name": "balance",
          "type": "uint256"
        }
      ],
      "payable": false,
      "stateMutability": "view",
      "type": "function"
    },
    {
      "constant": false,
      "inputs": [],
      "name": "pause",
      "outputs": [],
      "payable": false,
      "stateMutability": "nonpayable",
      "type": "function"
    },
    {
      "constant": true,
      "inputs": [],
      "name": "owner",
      "outputs": [
        {
          "name": "",
          "type": "address"
        }
      ],
      "payable": false,
      "stateMutability": "view",
      "type": "function"
    },
    {
      "constant": true,
      "inputs": [],
      "name": "symbol",
      "outputs": [
        {
          "name": "",
          "type": "string"
        }
      ],
      "payable": false,
      "stateMutability": "view",
      "type": "function"
    },
    {
      "constant": false,
      "inputs": [
        {
          "name": "_to",
          "type": "address"
        },
        {
          "name": "_value",
          "type": "uint256"
        }
      ],
      "name": "transfer",
      "outputs": [
        {
          "name": "",
          "type": "bool"
        }
      ],
      "payable": false,
      "stateMutability": "nonpayable",
      "type": "function"
    },
    {
      "constant": false,
      "inputs": [
        {
          "name": "_spender",
          "type": "address"
        },
        {
          "name": "_addedValue",
          "type": "uint256"
        }
      ],
      "name": "increaseApproval",
      "outputs": [
        {
          "name": "success",
          "type": "bool"
        }
      ],
      "payable": false,
      "stateMutability": "nonpayable",
      "type": "function"
    },
    {
      "constant": true,
      "inputs": [
        {
          "name": "_owner",
          "type": "address"
        },
        {
          "name": "_spender",
          "type": "address"
        }
      ],
      "name": "allowance",
      "outputs": [
        {
          "name": "",
          "type": "uint256"
        }
      ],
      "payable": false,
      "stateMutability": "view",
      "type": "function"
    },
    {
      "constant": false,
      "inputs": [
        {
          "name": "newOwner",
          "type": "address"
        }
      ],
      "name": "transferOwnership",
      "outputs": [],
      "payable": false,
      "stateMutability": "nonpayable",
      "type": "function"
    },
    {
      "inputs": [],
      "payable": false,
      "stateMutability": "nonpayable",
      "type": "constructor"
    },
    {
      "anonymous": false,
      "inputs": [],
      "name": "Pause",
      "type": "event"
    },
    {
      "anonymous": false,
      "inputs": [],
      "name": "Unpause",
      "type": "event"
    },
    {
      "anonymous": false,
      "inputs": [
        {
          "indexed": true,
          "name": "previousOwner",
          "type": "address"
        },
        {
          "indexed": true,
          "name": "newOwner",
          "type": "address"
        }
      ],
      "name": "OwnershipTransferred",
      "type": "event"
    },
    {
      "anonymous": false,
      "inputs": [
        {
          "indexed": true,
          "name": "burner",
          "type": "address"
        },
        {
          "indexed": false,
          "name": "value",
          "type": "uint256"
        }
      ],
      "name": "Burn",
      "type": "event"
    },
    {
      "anonymous": false,
      "inputs": [
        {
          "indexed": true,
          "name": "owner",
          "type": "address"
        },
        {
          "indexed": true,
          "name": "spender",
          "type": "address"
        },
        {
          "indexed": false,
          "name": "value",
          "type": "uint256"
        }
      ],
      "name": "Approval",
      "type": "event"
    },
    {
      "anonymous": false,
      "inputs": [
        {
          "indexed": true,
          "name": "from",
          "type": "address"
        },
        {
          "indexed": true,
          "name": "to",
          "type": "address"
        },
        {
          "indexed": false,
          "name": "value",
          "type": "uint256"
        }
      ],
      "name": "Transfer",
      "type": "event"
    },
    {
      "constant": false,
      "inputs": [
        {
          "name": "_recipients",
          "type": "address[]"
        },
        {
          "name": "_amounts",
          "type": "uint256[]"
        }
      ],
      "name": "massTransfer",
      "outputs": [
        {
          "name": "",
          "type": "bool"
        }
      ],
      "payable": false,
      "stateMutability": "nonpayable",
      "type": "function"
    }
  ],
  "bytecode": "0x60606040526006805460a060020a60ff0219169055341561001f57600080fd5b604080519081016040908152600982527f4c485420546f6b656e000000000000000000000000000000000000000000000060208301528051908101604052600381527f4c4854000000000000000000000000000000000000000000000000000000000060208201526012600083805161009c929160200190610141565b5060018280516100b0929160200190610141565b506002805460ff191660ff92909216919091179055505060068054600160a060020a03191633600160a060020a03169081179091556b033b2e3c9fd0803ce8000000600481905560008281526003602052604080822083905590917fddf252ad1be2c89b69c2b068fc378daa952ba7f163c4a11628f55a4df523b3ef915190815260200160405180910390a36101dc565b828054600181600116156101000203166002900490600052602060002090601f016020900481019282601f1061018257805160ff19168380011785556101af565b828001600101855582156101af579182015b828111156101af578251825591602001919060010190610194565b506101bb9291506101bf565b5090565b6101d991905b808211156101bb57600081556001016101c5565b90565b610e09806101eb6000396000f3006060604052600436106101065763ffffffff7c010000000000000000000000000000000000000000000000000000000060003504166302af2095811461010b57806306fdde0314610149578063095ea7b3146101d357806318160ddd146101f557806323b872dd1461021a5780632ff2e9dc14610242578063313ce567146102555780633f4ba83a1461027e57806342966c68146102935780635c975abb146102a957806366188463146102bc57806370a08231146102de5780638456cb59146102fd5780638da5cb5b1461031057806395d89b411461033f578063a9059cbb14610352578063d73dd62314610374578063dd62ed3e14610396578063f2fde38b146103bb575b600080fd5b341561011657600080fd5b61013560246004803582810192908201359181359182019101356103da565b604051901515815260200160405180910390f35b341561015457600080fd5b61015c61044d565b60405160208082528190810183818151815260200191508051906020019080838360005b83811015610198578082015183820152602001610180565b50505050905090810190601f1680156101c55780820380516001836020036101000a031916815260200191505b509250505060405180910390f35b34156101de57600080fd5b610135600160a060020a03600435166024356104eb565b341561020057600080fd5b610208610516565b60405190815260200160405180910390f35b341561022557600080fd5b610135600160a060020a036004358116906024351660443561051c565b341561024d57600080fd5b610208610549565b341561026057600080fd5b610268610559565b60405160ff909116815260200160405180910390f35b341561028957600080fd5b610291610562565b005b341561029e57600080fd5b6102916004356105e1565b34156102b457600080fd5b6101356106da565b34156102c757600080fd5b610135600160a060020a03600435166024356106ea565b34156102e957600080fd5b610208600160a060020a036004351661070e565b341561030857600080fd5b610291610729565b341561031b57600080fd5b6103236107ad565b604051600160a060020a03909116815260200160405180910390f35b341561034a57600080fd5b61015c6107bc565b341561035d57600080fd5b610135600160a060020a0360043516602435610827565b341561037f57600080fd5b610135600160a060020a036004351660243561084b565b34156103a157600080fd5b610208600160a060020a036004358116906024351661086f565b34156103c657600080fd5b610291600160a060020a036004351661089a565b6000808483146103e957600080fd5b5060005b848110156104415761042e86868381811061040457fe5b90506020020135600160a060020a0316858584818110151561042257fe5b90506020020135610827565b151561043957600080fd5b6001016103ed565b50600195945050505050565b60008054600181600116156101000203166002900480601f0160208091040260200160405190810160405280929190818152602001828054600181600116156101000203166002900480156104e35780601f106104b8576101008083540402835291602001916104e3565b820191906000526020600020905b8154815290600101906020018083116104c657829003601f168201915b505050505081565b60065460009060a060020a900460ff161561050557600080fd5b61050f8383610935565b9392505050565b60045490565b60065460009060a060020a900460ff161561053657600080fd5b6105418484846109a1565b949350505050565b6b033b2e3c9fd0803ce800000081565b60025460ff1681565b60065433600160a060020a0390811691161461057d57600080fd5b60065460a060020a900460ff16151561059557600080fd5b6006805474ff0000000000000000000000000000000000000000191690557f7805862f689e2f13df9f062ff482ad3ad112aca9e0847911ed832e158c525b3360405160405180910390a1565b600160a060020a03331660009081526003602052604081205482111561060657600080fd5b5033600160a060020a03811660009081526003602052604090205461062b9083610b23565b600160a060020a038216600090815260036020526040902055600454610657908363ffffffff610b2316565b600455600160a060020a0381167fcc16f5dbb4873280815c1ee09dbd06736cffcc184412cf7a71a0fdb75d397ca58360405190815260200160405180910390a26000600160a060020a0382167fddf252ad1be2c89b69c2b068fc378daa952ba7f163c4a11628f55a4df523b3ef8460405190815260200160405180910390a35050565b60065460a060020a900460ff1681565b60065460009060a060020a900460ff161561070457600080fd5b61050f8383610b35565b600160a060020a031660009081526003602052604090205490565b60065433600160a060020a0390811691161461074457600080fd5b60065460a060020a900460ff161561075b57600080fd5b6006805474ff0000000000000000000000000000000000000000191660a060020a1790557f6985a02210a168e66602d3235cb6db0e70f92b3ba4d376a33c0f3d9434bff62560405160405180910390a1565b600654600160a060020a031681565b60018054600181600116156101000203166002900480601f0160208091040260200160405190810160405280929190818152602001828054600181600116156101000203166002900480156104e35780601f106104b8576101008083540402835291602001916104e3565b60065460009060a060020a900460ff161561084157600080fd5b61050f8383610c2f565b60065460009060a060020a900460ff161561086557600080fd5b61050f8383610d2a565b600160a060020a03918216600090815260056020908152604080832093909416825291909152205490565b60065433600160a060020a039081169116146108b557600080fd5b600160a060020a03811615156108ca57600080fd5b600654600160a060020a0380831691167f8be0079c531659141344cd1fd0a4f28419497f9722a3daafe3b4186f6b6457e060405160405180910390a36006805473ffffffffffffffffffffffffffffffffffffffff1916600160a060020a0392909216919091179055565b600160a060020a03338116600081815260056020908152604080832094871680845294909152808220859055909291907f8c5be1e5ebec7d5bd14f71427d1e84f3dd0314c0f7b2291e5b200ac8c7c3b9259085905190815260200160405180910390a350600192915050565b6000600160a060020a03831615156109b857600080fd5b600160a060020a0384166000908152600360205260409020548211156109dd57600080fd5b600160a060020a0380851660009081526005602090815260408083203390941683529290522054821115610a1057600080fd5b600160a060020a038416600090815260036020526040902054610a39908363ffffffff610b2316565b600160a060020a038086166000908152600360205260408082209390935590851681522054610a6e908363ffffffff610dce16565b600160a060020a03808516600090815260036020908152604080832094909455878316825260058152838220339093168252919091522054610ab6908363ffffffff610b2316565b600160a060020a03808616600081815260056020908152604080832033861684529091529081902093909355908516917fddf252ad1be2c89b69c2b068fc378daa952ba7f163c4a11628f55a4df523b3ef9085905190815260200160405180910390a35060019392505050565b600082821115610b2f57fe5b50900390565b600160a060020a03338116600090815260056020908152604080832093861683529290529081205480831115610b9257600160a060020a033381166000908152600560209081526040808320938816835292905290812055610bc9565b610ba2818463ffffffff610b2316565b600160a060020a033381166000908152600560209081526040808320938916835292905220555b600160a060020a0333811660008181526005602090815260408083209489168084529490915290819020547f8c5be1e5ebec7d5bd14f71427d1e84f3dd0314c0f7b2291e5b200ac8c7c3b925915190815260200160405180910390a35060019392505050565b6000600160a060020a0383161515610c4657600080fd5b600160a060020a033316600090815260036020526040902054821115610c6b57600080fd5b600160a060020a033316600090815260036020526040902054610c94908363ffffffff610b2316565b600160a060020a033381166000908152600360205260408082209390935590851681522054610cc9908363ffffffff610dce16565b600160a060020a0380851660008181526003602052604090819020939093559133909116907fddf252ad1be2c89b69c2b068fc378daa952ba7f163c4a11628f55a4df523b3ef9085905190815260200160405180910390a350600192915050565b600160a060020a033381166000908152600560209081526040808320938616835292905290812054610d62908363ffffffff610dce16565b600160a060020a0333811660008181526005602090815260408083209489168084529490915290819020849055919290917f8c5be1e5ebec7d5bd14f71427d1e84f3dd0314c0f7b2291e5b200ac8c7c3b92591905190815260200160405180910390a350600192915050565b60008282018381101561050f57fe00a165627a7a723058209d73dee0e8f3d2d27ae3d9a32e15013da2e858f6a6f64dcb27c267b76661a05c0029",
  "source": "pragma solidity ^0.4.17;\n\nimport \"openzeppelin-solidity/contracts/token/ERC20/DetailedERC20.sol\";\nimport \"openzeppelin-solidity/contracts/token/ERC20/BurnableToken.sol\";\nimport \"openzeppelin-solidity/contracts/token/ERC20/PausableToken.sol\";\nimport \"openzeppelin-solidity/contracts/math/SafeMath.sol\";\n\ncontract FakeERC20Token is DetailedERC20, BurnableToken, PausableToken {\n    using SafeMath for uint256;\n\n    uint public constant INITIAL_SUPPLY = 1000000000 * (10**18);\n\n    /**\n    * @dev Constructor\n    */\n    function FakeERC20Token() public\n    DetailedERC20(\"LHT Token\", \"LHT\", 18)\n    {\n        totalSupply_ = INITIAL_SUPPLY;\n\n        balances[msg.sender] = INITIAL_SUPPLY;\n        Transfer(0x0, msg.sender, INITIAL_SUPPLY);\n    }\n\n    function massTransfer(address[] _recipients, uint[] _amounts) external returns (bool) {\n        require(_recipients.length == _amounts.length);\n\n        for (uint i = 0; i < _recipients.length; i++) {\n            require(transfer(_recipients[i], _amounts[i]));\n        }\n\n        return true;\n    }\n}\n",
  "sourcePath": "/Users/ahiatsevich/Development/chronobank/LX-SC/contracts/helpers/FakeERC20Token.sol",
  "compiler": {
    "name": "solc",
    "version": "0.4.19+commit.c4cbbb05.Emscripten.clang"
  },
  "schemaVersion": "2.0.0",
  "updatedAt": "2018-05-16T09:28:25.396Z"
}