{
  "contractName": "FakeCoin",
  "abi": [
    {
      "constant": true,
      "inputs": [],
      "name": "maintenanceMode",
      "outputs": [
        {
          "name": "",
          "type": "bool"
        }
      ],
      "payable": false,
      "stateMutability": "view",
      "type": "function"
    },
    {
      "constant": true,
      "inputs": [],
      "name": "approvalMode",
      "outputs": [
        {
          "name": "",
          "type": "bool"
        }
      ],
      "payable": false,
      "stateMutability": "view",
      "type": "function"
    },
    {
      "constant": true,
      "inputs": [
        {
          "name": "",
          "type": "address"
        }
      ],
      "name": "balanceOf",
      "outputs": [
        {
          "name": "",
          "type": "uint256"
        }
      ],
      "payable": false,
      "stateMutability": "view",
      "type": "function"
    },
    {
      "constant": true,
      "inputs": [],
      "name": "fee",
      "outputs": [
        {
          "name": "",
          "type": "uint256"
        }
      ],
      "payable": false,
      "stateMutability": "view",
      "type": "function"
    },
    {
      "constant": true,
      "inputs": [],
      "name": "feeFromPayer",
      "outputs": [
        {
          "name": "",
          "type": "bool"
        }
      ],
      "payable": false,
      "stateMutability": "view",
      "type": "function"
    },
    {
      "constant": false,
      "inputs": [
        {
          "name": "_to",
          "type": "address"
        },
        {
          "name": "_value",
          "type": "uint256"
        }
      ],
      "name": "mint",
      "outputs": [],
      "payable": false,
      "stateMutability": "nonpayable",
      "type": "function"
    },
    {
      "constant": false,
      "inputs": [],
      "name": "enableApproval",
      "outputs": [],
      "payable": false,
      "stateMutability": "nonpayable",
      "type": "function"
    },
    {
      "constant": false,
      "inputs": [],
      "name": "disableApproval",
      "outputs": [],
      "payable": false,
      "stateMutability": "nonpayable",
      "type": "function"
    },
    {
      "constant": false,
      "inputs": [],
      "name": "enableMaintenance",
      "outputs": [],
      "payable": false,
      "stateMutability": "nonpayable",
      "type": "function"
    },
    {
      "constant": false,
      "inputs": [],
      "name": "disableMaintenance",
      "outputs": [],
      "payable": false,
      "stateMutability": "nonpayable",
      "type": "function"
    },
    {
      "constant": false,
      "inputs": [
        {
          "name": "_spender",
          "type": "address"
        },
        {
          "name": "_amount",
          "type": "uint256"
        }
      ],
      "name": "approve",
      "outputs": [
        {
          "name": "",
          "type": "bool"
        }
      ],
      "payable": false,
      "stateMutability": "nonpayable",
      "type": "function"
    },
    {
      "constant": false,
      "inputs": [
        {
          "name": "_to",
          "type": "address"
        },
        {
          "name": "_value",
          "type": "uint256"
        }
      ],
      "name": "transfer",
      "outputs": [
        {
          "name": "",
          "type": "bool"
        }
      ],
      "payable": false,
      "stateMutability": "nonpayable",
      "type": "function"
    },
    {
      "constant": false,
      "inputs": [
        {
          "name": "_from",
          "type": "address"
        },
        {
          "name": "_to",
          "type": "address"
        },
        {
          "name": "_value",
          "type": "uint256"
        }
      ],
      "name": "transferFrom",
      "outputs": [
        {
          "name": "",
          "type": "bool"
        }
      ],
      "payable": false,
      "stateMutability": "nonpayable",
      "type": "function"
    },
    {
      "constant": false,
      "inputs": [
        {
          "name": "_value",
          "type": "uint256"
        }
      ],
      "name": "setFee",
      "outputs": [],
      "payable": false,
      "stateMutability": "nonpayable",
      "type": "function"
    },
    {
      "constant": false,
      "inputs": [],
      "name": "setFeeFromPayer",
      "outputs": [],
      "payable": false,
      "stateMutability": "nonpayable",
      "type": "function"
    }
  ],
  "bytecode": "0x6060604052341561000f57600080fd5b6105868061001e6000396000f3006060604052600436106100da5763ffffffff7c0100000000000000000000000000000000000000000000000000000000600035041663095ea7b381146100df57806323b872dd1461011557806325dce0a61461013d578063269eb58c1461015057806340c10f1914610165578063521c6c1c1461018757806369fe0e2d1461019a57806370a08231146101b057806395eeb240146101e1578063a9059cbb146101f4578063bdc0ba8e14610216578063cc0e13e214610229578063cd5840451461023c578063ddca3f431461024f578063ea54a5e714610262575b600080fd5b34156100ea57600080fd5b610101600160a060020a0360043516602435610275565b604051901515815260200160405180910390f35b341561012057600080fd5b610101600160a060020a03600435811690602435166044356102a4565b341561014857600080fd5b610101610417565b341561015b57600080fd5b610163610426565b005b341561017057600080fd5b610163600160a060020a0360043516602435610435565b341561019257600080fd5b610101610457565b34156101a557600080fd5b610163600435610465565b34156101bb57600080fd5b6101cf600160a060020a036004351661046a565b60405190815260200160405180910390f35b34156101ec57600080fd5b61016361047c565b34156101ff57600080fd5b610101600160a060020a0360043516602435610489565b341561022157600080fd5b610163610519565b341561023457600080fd5b610163610527565b341561024757600080fd5b61016361053a565b341561025a57600080fd5b6101cf61054b565b341561026d57600080fd5b610101610551565b600160a060020a0333811660009081526020818152604080832093861683529290522081905560015b92915050565b60035460009062010000900460ff16156102bd57610410565b600354610100900460ff1615156103445760035460ff166102de57816102e4565b60025482015b600160a060020a0385166000908152600160205260409020805491909103905560035460ff1661031857600254820361031a565b815b600160a060020a038416600090815260016020819052604090912080549092019091559050610410565b60035460ff16610354578161035a565b60025482015b600160a060020a038086166000908152602081815260408083203390941683529290522054106104105760035460ff16610394578161039a565b60025482015b600160a060020a0385166000908152600160205260409020805491909103905560035460ff166103ca57816103d0565b60025482015b600160a060020a0380861660009081526020818152604080832033909416835292905220805491909103905560035460ff1661031857600254820361031a565b9392505050565b60035462010000900460ff1681565b6003805460ff19166001179055565b600160a060020a03909116600090815260016020526040902080549091019055565b600354610100900460ff1681565b600255565b60016020526000908152604090205481565b6003805461ff0019169055565b60035460009062010000900460ff16156104a25761029e565b60035460ff166104b257816104b8565b60025482015b600160a060020a0333166000908152600160205260409020805491909103905560035460ff166104ec5760025482036104ee565b815b600160a060020a03841660009081526001602081905260409091208054909201909155905092915050565b6003805462ff000019169055565b6003805462ff0000191662010000179055565b6003805461ff001916610100179055565b60025481565b60035460ff16815600a165627a7a72305820a198192bae961955bc2e52fb42b6543b196f7af73231ad87f84464528d487b710029",
  "source": "/**\n * Copyright 2017–2018, LaborX PTY\n * Licensed under the AGPL Version 3 license.\n */\n\npragma solidity ^0.4.18;\n\n// For testing purposes.\ncontract FakeCoin {\n\n    // Owner of account approves the transfer of an amount to another account\n    mapping (address => mapping (address => uint256)) allowed;\n    mapping (address => uint) public balanceOf;\n\n    uint public fee;\n    bool public feeFromPayer;\n    bool public approvalMode;\n    bool public maintenanceMode;\n\n    function mint(address _to, uint _value) external {\n        balanceOf[_to] += _value;\n    }\n\n    function enableApproval() public {\n        approvalMode = true;\n    }\n\n    function disableApproval() public {\n        approvalMode = false;\n    }\n\n    function enableMaintenance() public {\n        maintenanceMode = true;\n    }\n\n    function disableMaintenance() public {\n        maintenanceMode = false;\n    }\n\n    function approve(address _spender, uint _amount) external returns (bool) {\n        allowed[msg.sender][_spender] = _amount;\n        return true;\n    }\n\n    modifier maintenance() {\n        if (maintenanceMode) {\n            return;\n        }\n        _;\n    }\n\n    modifier enoughCoins(address _spender, uint _value) {\n        if (balanceOf[_spender] < (feeFromPayer ? _value + fee : _value)) {\n            return;\n        }\n        _;\n    }\n\n    function transfer(address _to, uint _value)\n    external\n    maintenance()\n        //enoughCoins(msg.sender, _value)\n    returns (bool) {\n        balanceOf[msg.sender] -= feeFromPayer ? _value + fee : _value;\n        balanceOf[_to] += feeFromPayer ? _value : _value - fee;\n        return true;\n    }\n\n    function transferFrom(address _from, address _to, uint _value)\n    external\n    maintenance()\n        //enoughCoins(_from, _value)\n    returns (bool) {\n        if (!approvalMode) {\n            balanceOf[_from] -= feeFromPayer ? _value + fee : _value;\n            balanceOf[_to] += feeFromPayer ? _value : _value - fee;\n            return true;\n        }\n        else {\n            if (allowed[_from][msg.sender] >= (feeFromPayer ? _value + fee : _value)) {\n                balanceOf[_from] -= feeFromPayer ? _value + fee : _value;\n                allowed[_from][msg.sender] -= feeFromPayer ? _value + fee : _value;\n                balanceOf[_to] += feeFromPayer ? _value : _value - fee;\n                return true;\n            }\n        }\n    }\n\n    function setFee(uint _value) external {\n        fee = _value;\n    }\n\n    function setFeeFromPayer() public {\n        feeFromPayer = true;\n    }\n}\n",
  "sourcePath": "/Users/ahiatsevich/Development/chronobank/LX-SC/contracts/helpers/FakeCoin.sol",
  "compiler": {
    "name": "solc",
    "version": "0.4.19+commit.c4cbbb05.Emscripten.clang"
  },
  "schemaVersion": "2.0.0",
  "updatedAt": "2018-05-16T09:14:42.221Z"
}