{
  "contractName": "IPFSLibrary",
  "abi": [
    {
      "constant": false,
      "inputs": [
        {
          "name": "_roles2Library",
          "type": "address"
        }
      ],
      "name": "setRoles2Library",
      "outputs": [
        {
          "name": "",
          "type": "uint256"
        }
      ],
      "payable": false,
      "stateMutability": "nonpayable",
      "type": "function"
    },
    {
      "constant": false,
      "inputs": [
        {
          "name": "_errorCode",
          "type": "uint256"
        }
      ],
      "name": "emitErrorCode",
      "outputs": [],
      "payable": false,
      "stateMutability": "nonpayable",
      "type": "function"
    },
    {
      "constant": false,
      "inputs": [
        {
          "name": "_msg",
          "type": "bytes32"
        }
      ],
      "name": "emitError",
      "outputs": [],
      "payable": false,
      "stateMutability": "nonpayable",
      "type": "function"
    },
    {
      "constant": true,
      "inputs": [],
      "name": "getEventsHistory",
      "outputs": [
        {
          "name": "",
          "type": "address"
        }
      ],
      "payable": false,
      "stateMutability": "view",
      "type": "function"
    },
    {
      "inputs": [
        {
          "name": "_store",
          "type": "address"
        },
        {
          "name": "_crate",
          "type": "bytes32"
        },
        {
          "name": "_roles2Library",
          "type": "address"
        }
      ],
      "payable": false,
      "stateMutability": "nonpayable",
      "type": "constructor"
    },
    {
      "anonymous": false,
      "inputs": [
        {
          "indexed": true,
          "name": "self",
          "type": "address"
        },
        {
          "indexed": true,
          "name": "setter",
          "type": "address"
        },
        {
          "indexed": true,
          "name": "key",
          "type": "bytes32"
        },
        {
          "indexed": false,
          "name": "hash",
          "type": "bytes32"
        }
      ],
      "name": "HashSet",
      "type": "event"
    },
    {
      "anonymous": false,
      "inputs": [
        {
          "indexed": false,
          "name": "code",
          "type": "address"
        },
        {
          "indexed": false,
          "name": "sender",
          "type": "address"
        },
        {
          "indexed": false,
          "name": "sig",
          "type": "bytes4"
        }
      ],
      "name": "AuthFailedError",
      "type": "event"
    },
    {
      "anonymous": false,
      "inputs": [
        {
          "indexed": true,
          "name": "self",
          "type": "address"
        },
        {
          "indexed": false,
          "name": "msg",
          "type": "bytes32"
        }
      ],
      "name": "Error",
      "type": "event"
    },
    {
      "anonymous": false,
      "inputs": [
        {
          "indexed": true,
          "name": "self",
          "type": "address"
        },
        {
          "indexed": false,
          "name": "errorCode",
          "type": "uint256"
        }
      ],
      "name": "ErrorCode",
      "type": "event"
    },
    {
      "constant": false,
      "inputs": [
        {
          "name": "_eventsHistory",
          "type": "address"
        }
      ],
      "name": "setupEventsHistory",
      "outputs": [
        {
          "name": "",
          "type": "uint256"
        }
      ],
      "payable": false,
      "stateMutability": "nonpayable",
      "type": "function"
    },
    {
      "constant": true,
      "inputs": [
        {
          "name": "_from",
          "type": "address"
        },
        {
          "name": "_itemName",
          "type": "bytes32"
        }
      ],
      "name": "getHash",
      "outputs": [
        {
          "name": "",
          "type": "bytes32"
        }
      ],
      "payable": false,
      "stateMutability": "view",
      "type": "function"
    },
    {
      "constant": false,
      "inputs": [
        {
          "name": "_itemName",
          "type": "bytes32"
        },
        {
          "name": "_itemHash",
          "type": "bytes32"
        }
      ],
      "name": "setHash",
      "outputs": [
        {
          "name": "",
          "type": "uint256"
        }
      ],
      "payable": false,
      "stateMutability": "nonpayable",
      "type": "function"
    },
    {
      "constant": false,
      "inputs": [
        {
          "name": "_from",
          "type": "address"
        },
        {
          "name": "_itemName",
          "type": "bytes32"
        },
        {
          "name": "_itemHash",
          "type": "bytes32"
        }
      ],
      "name": "emitHashSet",
      "outputs": [],
      "payable": false,
      "stateMutability": "nonpayable",
      "type": "function"
    }
  ],
  "bytecode": "0x6060604052341561000f57600080fd5b604051606080610934833981016040528080519190602001805191906020018051915081905083836100506000838364010000000061076c6100b282021704565b505060038054600160a060020a031916600160a060020a03929092169190911790556100aa60047f69706673486173686573000000000000000000000000000000000000000000006401000000006100d8810261079f1704565b505050610126565b8254600160a060020a031916600160a060020a0392909216919091178255600190910155565b6100ef82826401000000006107ad6100f382021704565b5050565b815461010c90826401000000006107bd61011082021704565b9055565b8115158061011c575080155b156100ef57600080fd5b6107ff806101356000396000f3006060604052600436106100745763ffffffff60e060020a60003504166302927d208114610079578063060f919b146100aa5780632637cd7d146100cc5780638834277e146100eb578063a8af6e0514610103578063d7fa100714610128578063e90459f814610141578063fff10aba14610157575b600080fd5b341561008457600080fd5b610098600160a060020a0360043516610186565b60405190815260200160405180910390f35b34156100b557600080fd5b610098600160a060020a036004351660243561023c565b34156100d757600080fd5b610098600160a060020a036004351661025a565b34156100f657600080fd5b610101600435610319565b005b341561010e57600080fd5b610101600160a060020a0360043516602435604435610360565b341561013357600080fd5b6100986004356024356103b4565b341561014c57600080fd5b6101016004356103de565b341561016257600080fd5b61016a610425565b604051600160a060020a03909116815260200160405180910390f35b600061019e33600035600160e060020a031916610434565b1515610213577f5133a133185f1023427a2e90f18506b27db994977ce0c0faafd514a7dd109ae03033600035600160e060020a031916604051600160a060020a039384168152919092166020820152600160e060020a03199091166040808301919091526060909101905180910390a1610237565b600160a060020a038216151561022857600080fd5b61023182610508565b50600190505b919050565b6000610251816004858563ffffffff61053916565b90505b92915050565b600061027233600035600160e060020a031916610434565b15156102e7577f5133a133185f1023427a2e90f18506b27db994977ce0c0faafd514a7dd109ae03033600035600160e060020a031916604051600160a060020a039384168152919092166020820152600160e060020a03199091166040808301919091526060909101905180910390a1610237565b5060038054600160a060020a03831673ffffffffffffffffffffffffffffffffffffffff199091161790556001919050565b610321610559565b600160a060020a03167f09e0713b45664e161c202b19bb4574ee83dfa056f9bfdee56847b3971d9682218260405190815260200160405180910390a250565b81600160a060020a038416610373610559565b600160a060020a03167f34935cf0eba24872804820d07214042d03d4807a8ad7fda0736f9084524e2d198460405190815260200160405180910390a4505050565b60006103ca81600433868663ffffffff61055d16565b6103d533848461057a565b50600192915050565b6103e6610559565b600160a060020a03167fbb8f0c1d8804cd86e7873ec11cb00af945c8c0ebd061a68b28617034803464158260405190815260200160405180910390a250565b600254600160a060020a031690565b600030600160a060020a031683600160a060020a0316141561045857506001610254565b600354600160a060020a0316151561047257506000610254565b600354600160a060020a031663b700961384308560006040516020015260405160e060020a63ffffffff8616028152600160a060020a039384166004820152919092166024820152600160e060020a03199091166044820152606401602060405180830381600087803b15156104e757600080fd5b6102c65a03f115156104f857600080fd5b5050506040518051949350505050565b60028054600160a060020a03831673ffffffffffffffffffffffffffffffffffffffff199091161790556001919050565b60006105508585600160a060020a038616856105f7565b95945050505050565b3390565b6105738585600160a060020a038616858561061c565b5050505050565b610582610425565b600160a060020a031663a8af6e0584848460405160e060020a63ffffffff8616028152600160a060020a03909316600484015260248301919091526044820152606401600060405180830381600087803b15156105de57600080fd5b6102c65a03f115156105ef57600080fd5b505050505050565b6000610550858585856040519182526020820152604090810190518091039020610640565b610573858585856040519182526020820152604090810190518091039020846106da565b825460018401548354600092600160a060020a0316916337d9d7fc9185604051918252602082015260409081019051809103902060006040516020015260405160e060020a63ffffffff851602815260048101929092526024820152604401602060405180830381600087803b15156106b857600080fd5b6102c65a03f115156106c957600080fd5b505050604051805195945050505050565b835460018501548454600160a060020a039092169163a14ff85791908560405191825260208201526040908101905180910390208460405160e060020a63ffffffff8616028152600481019390935260248301919091526044820152606401600060405180830381600087803b151561075257600080fd5b6102c65a03f1151561076357600080fd5b50505050505050565b825473ffffffffffffffffffffffffffffffffffffffff1916600160a060020a0392909216919091178255600190910155565b6107a982826107ad565b5050565b81546107b990826107bd565b9055565b811515806107c9575080155b156107a957600080fd00a165627a7a723058206c4c16423194b632f9413e86aebb44efa6ee11009bf7dd8366be15b14718eba50029",
  "source": "/**\n * Copyright 2017–2018, LaborX PTY\n * Licensed under the AGPL Version 3 license.\n */\n\npragma solidity ^0.4.18;\n\n\nimport './adapters/MultiEventsHistoryAdapter.sol';\nimport './adapters/Roles2LibraryAdapter.sol';\nimport './adapters/StorageAdapter.sol';\n\n\ncontract IPFSLibrary is StorageAdapter, MultiEventsHistoryAdapter, Roles2LibraryAdapter {\n\n    event HashSet(address indexed self, address indexed setter, bytes32 indexed key, bytes32 hash);\n\n    StorageInterface.AddressBytes32Bytes32Mapping ipfsHashes;\n\n    function IPFSLibrary(\n        Storage _store,\n        bytes32 _crate,\n        address _roles2Library\n    )\n    StorageAdapter(_store, _crate)\n    Roles2LibraryAdapter(_roles2Library)\n    public\n    {\n        ipfsHashes.init(\"ipfsHashes\");\n    }\n\n    function setupEventsHistory(address _eventsHistory) auth external returns (uint) {\n        require(_eventsHistory != 0x0);\n\n        _setEventsHistory(_eventsHistory);\n        return OK;\n    }\n\n    function getHash(address _from, bytes32 _itemName) public view returns(bytes32) {\n        return store.get(ipfsHashes, _from, _itemName);\n    }\n\n    function setHash(bytes32 _itemName, bytes32 _itemHash) public returns (uint) {\n        store.set(ipfsHashes, msg.sender, _itemName, _itemHash);\n        _emitHashSet(msg.sender, _itemName, _itemHash);\n        return OK;\n    }\n\n    function emitHashSet(address _from, bytes32 _itemName, bytes32 _itemHash) public {\n        HashSet(_self(), _from, _itemName, _itemHash);\n    }\n\n    function _emitHashSet(address _from, bytes32 _itemName, bytes32 _itemHash) internal {\n        IPFSLibrary(getEventsHistory()).emitHashSet(_from, _itemName, _itemHash);\n    }\n}\n",
  "sourcePath": "/Users/ahiatsevich/Development/chronobank/LX-SC/contracts/IPFSLibrary.sol",
  "compiler": {
    "name": "solc",
    "version": "0.4.19+commit.c4cbbb05.Emscripten.clang"
  },
  "schemaVersion": "2.0.0",
  "updatedAt": "2018-05-08T10:30:20.508Z"
}