{
  "contractName": "JobController",
  "abi": [
    {
      "constant": false,
      "inputs": [
        {
          "name": "_eventsHistory",
          "type": "address"
        }
      ],
      "name": "setupEventsHistory",
      "outputs": [
        {
          "name": "",
          "type": "uint256"
        }
      ],
      "payable": false,
      "stateMutability": "nonpayable",
      "type": "function"
    },
    {
      "constant": false,
      "inputs": [
        {
          "name": "_jobId",
          "type": "uint256"
        }
      ],
      "name": "startWork",
      "outputs": [
        {
          "name": "",
          "type": "uint256"
        }
      ],
      "payable": false,
      "stateMutability": "nonpayable",
      "type": "function"
    },
    {
      "constant": true,
      "inputs": [
        {
          "name": "worker",
          "type": "address"
        },
        {
          "name": "_jobId",
          "type": "uint256"
        }
      ],
      "name": "calculateLockAmountFor",
      "outputs": [
        {
          "name": "",
          "type": "uint256"
        }
      ],
      "payable": false,
      "stateMutability": "view",
      "type": "function"
    },
    {
      "constant": false,
      "inputs": [
        {
          "name": "_paymentProcessor",
          "type": "address"
        }
      ],
      "name": "setPaymentProcessor",
      "outputs": [
        {
          "name": "",
          "type": "uint256"
        }
      ],
      "payable": false,
      "stateMutability": "nonpayable",
      "type": "function"
    },
    {
      "constant": true,
      "inputs": [
        {
          "name": "_jobId",
          "type": "uint256"
        }
      ],
      "name": "getJobSkillsCategory",
      "outputs": [
        {
          "name": "",
          "type": "uint256"
        }
      ],
      "payable": false,
      "stateMutability": "view",
      "type": "function"
    },
    {
      "constant": true,
      "inputs": [
        {
          "name": "_jobId",
          "type": "uint256"
        }
      ],
      "name": "getJobSkillsArea",
      "outputs": [
        {
          "name": "",
          "type": "uint256"
        }
      ],
      "payable": false,
      "stateMutability": "view",
      "type": "function"
    },
    {
      "constant": true,
      "inputs": [
        {
          "name": "_jobId",
          "type": "uint256"
        }
      ],
      "name": "getJobClient",
      "outputs": [
        {
          "name": "",
          "type": "address"
        }
      ],
      "payable": false,
      "stateMutability": "view",
      "type": "function"
    },
    {
      "constant": false,
      "inputs": [
        {
          "name": "_jobId",
          "type": "uint256"
        },
        {
          "name": "_worker",
          "type": "address"
        },
        {
          "name": "_rate",
          "type": "uint256"
        },
        {
          "name": "_estimate",
          "type": "uint256"
        },
        {
          "name": "_ontop",
          "type": "uint256"
        }
      ],
      "name": "emitJobOfferPosted",
      "outputs": [],
      "payable": false,
      "stateMutability": "nonpayable",
      "type": "function"
    },
    {
      "constant": false,
      "inputs": [
        {
          "name": "_jobId",
          "type": "uint256"
        }
      ],
      "name": "cancelJob",
      "outputs": [
        {
          "name": "_resultCode",
          "type": "uint256"
        }
      ],
      "payable": false,
      "stateMutability": "nonpayable",
      "type": "function"
    },
    {
      "constant": false,
      "inputs": [
        {
          "name": "_roles2Library",
          "type": "address"
        }
      ],
      "name": "setRoles2Library",
      "outputs": [
        {
          "name": "",
          "type": "uint256"
        }
      ],
      "payable": false,
      "stateMutability": "nonpayable",
      "type": "function"
    },
    {
      "constant": true,
      "inputs": [
        {
          "name": "_jobId",
          "type": "uint256"
        }
      ],
      "name": "getJobDetailsIPFSHash",
      "outputs": [
        {
          "name": "",
          "type": "bytes32"
        }
      ],
      "payable": false,
      "stateMutability": "view",
      "type": "function"
    },
    {
      "constant": true,
      "inputs": [
        {
          "name": "_jobId",
          "type": "uint256"
        }
      ],
      "name": "getJobWorker",
      "outputs": [
        {
          "name": "",
          "type": "address"
        }
      ],
      "payable": false,
      "stateMutability": "view",
      "type": "function"
    },
    {
      "constant": false,
      "inputs": [
        {
          "name": "_jobId",
          "type": "uint256"
        }
      ],
      "name": "endWork",
      "outputs": [
        {
          "name": "",
          "type": "uint256"
        }
      ],
      "payable": false,
      "stateMutability": "nonpayable",
      "type": "function"
    },
    {
      "constant": false,
      "inputs": [
        {
          "name": "_area",
          "type": "uint256"
        },
        {
          "name": "_category",
          "type": "uint256"
        },
        {
          "name": "_skills",
          "type": "uint256"
        },
        {
          "name": "_detailsIPFSHash",
          "type": "bytes32"
        }
      ],
      "name": "postJob",
      "outputs": [
        {
          "name": "",
          "type": "uint256"
        }
      ],
      "payable": false,
      "stateMutability": "nonpayable",
      "type": "function"
    },
    {
      "constant": true,
      "inputs": [
        {
          "name": "_jobId",
          "type": "uint256"
        }
      ],
      "name": "getJobState",
      "outputs": [
        {
          "name": "",
          "type": "uint256"
        }
      ],
      "payable": false,
      "stateMutability": "view",
      "type": "function"
    },
    {
      "constant": false,
      "inputs": [
        {
          "name": "_jobId",
          "type": "uint256"
        },
        {
          "name": "_rate",
          "type": "uint256"
        },
        {
          "name": "_estimate",
          "type": "uint256"
        },
        {
          "name": "_ontop",
          "type": "uint256"
        }
      ],
      "name": "postJobOffer",
      "outputs": [
        {
          "name": "",
          "type": "uint256"
        }
      ],
      "payable": false,
      "stateMutability": "nonpayable",
      "type": "function"
    },
    {
      "constant": true,
      "inputs": [
        {
          "name": "_jobId",
          "type": "uint256"
        }
      ],
      "name": "calculateLockAmount",
      "outputs": [
        {
          "name": "",
          "type": "uint256"
        }
      ],
      "payable": false,
      "stateMutability": "view",
      "type": "function"
    },
    {
      "constant": false,
      "inputs": [
        {
          "name": "_jobId",
          "type": "uint256"
        },
        {
          "name": "_time",
          "type": "uint256"
        }
      ],
      "name": "emitTimeAdded",
      "outputs": [],
      "payable": false,
      "stateMutability": "nonpayable",
      "type": "function"
    },
    {
      "constant": false,
      "inputs": [
        {
          "name": "_jobId",
          "type": "uint256"
        },
        {
          "name": "_worker",
          "type": "address"
        }
      ],
      "name": "emitJobOfferAccepted",
      "outputs": [],
      "payable": false,
      "stateMutability": "nonpayable",
      "type": "function"
    },
    {
      "constant": false,
      "inputs": [
        {
          "name": "_errorCode",
          "type": "uint256"
        }
      ],
      "name": "emitErrorCode",
      "outputs": [],
      "payable": false,
      "stateMutability": "nonpayable",
      "type": "function"
    },
    {
      "constant": false,
      "inputs": [
        {
          "name": "_jobId",
          "type": "uint256"
        }
      ],
      "name": "releasePayment",
      "outputs": [
        {
          "name": "_resultCode",
          "type": "uint256"
        }
      ],
      "payable": false,
      "stateMutability": "nonpayable",
      "type": "function"
    },
    {
      "constant": true,
      "inputs": [
        {
          "name": "_jobId",
          "type": "uint256"
        }
      ],
      "name": "calculatePaycheck",
      "outputs": [
        {
          "name": "",
          "type": "uint256"
        }
      ],
      "payable": false,
      "stateMutability": "view",
      "type": "function"
    },
    {
      "constant": false,
      "inputs": [
        {
          "name": "_jobId",
          "type": "uint256"
        },
        {
          "name": "_worker",
          "type": "address"
        }
      ],
      "name": "acceptOffer",
      "outputs": [
        {
          "name": "_resultCode",
          "type": "uint256"
        }
      ],
      "payable": true,
      "stateMutability": "payable",
      "type": "function"
    },
    {
      "constant": false,
      "inputs": [
        {
          "name": "_jobId",
          "type": "uint256"
        }
      ],
      "name": "confirmStartWork",
      "outputs": [
        {
          "name": "",
          "type": "uint256"
        }
      ],
      "payable": false,
      "stateMutability": "nonpayable",
      "type": "function"
    },
    {
      "constant": false,
      "inputs": [
        {
          "name": "_jobId",
          "type": "uint256"
        }
      ],
      "name": "emitJobCanceled",
      "outputs": [],
      "payable": false,
      "stateMutability": "nonpayable",
      "type": "function"
    },
    {
      "constant": false,
      "inputs": [
        {
          "name": "_jobId",
          "type": "uint256"
        }
      ],
      "name": "confirmEndWork",
      "outputs": [
        {
          "name": "",
          "type": "uint256"
        }
      ],
      "payable": false,
      "stateMutability": "nonpayable",
      "type": "function"
    },
    {
      "constant": true,
      "inputs": [],
      "name": "userLibrary",
      "outputs": [
        {
          "name": "",
          "type": "address"
        }
      ],
      "payable": false,
      "stateMutability": "view",
      "type": "function"
    },
    {
      "constant": false,
      "inputs": [
        {
          "name": "_jobId",
          "type": "uint256"
        },
        {
          "name": "_at",
          "type": "uint256"
        }
      ],
      "name": "emitWorkResumed",
      "outputs": [],
      "payable": false,
      "stateMutability": "nonpayable",
      "type": "function"
    },
    {
      "constant": false,
      "inputs": [
        {
          "name": "_jobId",
          "type": "uint256"
        },
        {
          "name": "_at",
          "type": "uint256"
        }
      ],
      "name": "emitWorkStarted",
      "outputs": [],
      "payable": false,
      "stateMutability": "nonpayable",
      "type": "function"
    },
    {
      "constant": true,
      "inputs": [
        {
          "name": "worker",
          "type": "address"
        },
        {
          "name": "_jobId",
          "type": "uint256"
        },
        {
          "name": "_time",
          "type": "uint256"
        },
        {
          "name": "_onTop",
          "type": "uint256"
        }
      ],
      "name": "calculateLock",
      "outputs": [
        {
          "name": "",
          "type": "uint256"
        }
      ],
      "payable": false,
      "stateMutability": "view",
      "type": "function"
    },
    {
      "constant": false,
      "inputs": [
        {
          "name": "_jobId",
          "type": "uint256"
        },
        {
          "name": "_at",
          "type": "uint256"
        }
      ],
      "name": "emitWorkPaused",
      "outputs": [],
      "payable": false,
      "stateMutability": "nonpayable",
      "type": "function"
    },
    {
      "constant": true,
      "inputs": [
        {
          "name": "_jobId",
          "type": "uint256"
        }
      ],
      "name": "getFinalState",
      "outputs": [
        {
          "name": "",
          "type": "uint256"
        }
      ],
      "payable": false,
      "stateMutability": "view",
      "type": "function"
    },
    {
      "constant": true,
      "inputs": [],
      "name": "getJobsCount",
      "outputs": [
        {
          "name": "",
          "type": "uint256"
        }
      ],
      "payable": false,
      "stateMutability": "view",
      "type": "function"
    },
    {
      "constant": false,
      "inputs": [
        {
          "name": "_jobId",
          "type": "uint256"
        }
      ],
      "name": "emitPaymentReleased",
      "outputs": [],
      "payable": false,
      "stateMutability": "nonpayable",
      "type": "function"
    },
    {
      "constant": true,
      "inputs": [
        {
          "name": "_jobId",
          "type": "uint256"
        }
      ],
      "name": "getJobSkills",
      "outputs": [
        {
          "name": "",
          "type": "uint256"
        }
      ],
      "payable": false,
      "stateMutability": "view",
      "type": "function"
    },
    {
      "constant": false,
      "inputs": [
        {
          "name": "_jobId",
          "type": "uint256"
        },
        {
          "name": "_additionalTime",
          "type": "uint16"
        }
      ],
      "name": "addMoreTime",
      "outputs": [
        {
          "name": "",
          "type": "uint256"
        }
      ],
      "payable": true,
      "stateMutability": "payable",
      "type": "function"
    },
    {
      "constant": false,
      "inputs": [
        {
          "name": "_jobId",
          "type": "uint256"
        },
        {
          "name": "_client",
          "type": "address"
        },
        {
          "name": "_skillsArea",
          "type": "uint256"
        },
        {
          "name": "_skillsCategory",
          "type": "uint256"
        },
        {
          "name": "_skills",
          "type": "uint256"
        },
        {
          "name": "_detailsIPFSHash",
          "type": "bytes32"
        },
        {
          "name": "_bindStatus",
          "type": "bool"
        }
      ],
      "name": "emitJobPosted",
      "outputs": [],
      "payable": false,
      "stateMutability": "nonpayable",
      "type": "function"
    },
    {
      "constant": false,
      "inputs": [
        {
          "name": "_msg",
          "type": "bytes32"
        }
      ],
      "name": "emitError",
      "outputs": [],
      "payable": false,
      "stateMutability": "nonpayable",
      "type": "function"
    },
    {
      "constant": false,
      "inputs": [
        {
          "name": "_userLibrary",
          "type": "address"
        }
      ],
      "name": "setUserLibrary",
      "outputs": [
        {
          "name": "",
          "type": "uint256"
        }
      ],
      "payable": false,
      "stateMutability": "nonpayable",
      "type": "function"
    },
    {
      "constant": false,
      "inputs": [
        {
          "name": "_jobId",
          "type": "uint256"
        },
        {
          "name": "_at",
          "type": "uint256"
        }
      ],
      "name": "emitWorkFinished",
      "outputs": [],
      "payable": false,
      "stateMutability": "nonpayable",
      "type": "function"
    },
    {
      "constant": true,
      "inputs": [],
      "name": "paymentProcessor",
      "outputs": [
        {
          "name": "",
          "type": "address"
        }
      ],
      "payable": false,
      "stateMutability": "view",
      "type": "function"
    },
    {
      "constant": false,
      "inputs": [
        {
          "name": "_jobId",
          "type": "uint256"
        }
      ],
      "name": "pauseWork",
      "outputs": [
        {
          "name": "",
          "type": "uint256"
        }
      ],
      "payable": false,
      "stateMutability": "nonpayable",
      "type": "function"
    },
    {
      "constant": false,
      "inputs": [
        {
          "name": "_jobId",
          "type": "uint256"
        }
      ],
      "name": "resumeWork",
      "outputs": [
        {
          "name": "_resultCode",
          "type": "uint256"
        }
      ],
      "payable": false,
      "stateMutability": "nonpayable",
      "type": "function"
    },
    {
      "constant": true,
      "inputs": [],
      "name": "getEventsHistory",
      "outputs": [
        {
          "name": "",
          "type": "address"
        }
      ],
      "payable": false,
      "stateMutability": "view",
      "type": "function"
    },
    {
      "inputs": [
        {
          "name": "_store",
          "type": "address"
        },
        {
          "name": "_crate",
          "type": "bytes32"
        },
        {
          "name": "_roles2Library",
          "type": "address"
        }
      ],
      "payable": false,
      "stateMutability": "nonpayable",
      "type": "constructor"
    },
    {
      "anonymous": false,
      "inputs": [
        {
          "indexed": true,
          "name": "self",
          "type": "address"
        },
        {
          "indexed": true,
          "name": "jobId",
          "type": "uint256"
        },
        {
          "indexed": false,
          "name": "client",
          "type": "address"
        },
        {
          "indexed": false,
          "name": "skillsArea",
          "type": "uint256"
        },
        {
          "indexed": false,
          "name": "skillsCategory",
          "type": "uint256"
        },
        {
          "indexed": false,
          "name": "skills",
          "type": "uint256"
        },
        {
          "indexed": false,
          "name": "detailsIPFSHash",
          "type": "bytes32"
        },
        {
          "indexed": false,
          "name": "bindStatus",
          "type": "bool"
        }
      ],
      "name": "JobPosted",
      "type": "event"
    },
    {
      "anonymous": false,
      "inputs": [
        {
          "indexed": true,
          "name": "self",
          "type": "address"
        },
        {
          "indexed": true,
          "name": "jobId",
          "type": "uint256"
        },
        {
          "indexed": false,
          "name": "worker",
          "type": "address"
        },
        {
          "indexed": false,
          "name": "rate",
          "type": "uint256"
        },
        {
          "indexed": false,
          "name": "estimate",
          "type": "uint256"
        },
        {
          "indexed": false,
          "name": "ontop",
          "type": "uint256"
        }
      ],
      "name": "JobOfferPosted",
      "type": "event"
    },
    {
      "anonymous": false,
      "inputs": [
        {
          "indexed": true,
          "name": "self",
          "type": "address"
        },
        {
          "indexed": true,
          "name": "jobId",
          "type": "uint256"
        },
        {
          "indexed": false,
          "name": "worker",
          "type": "address"
        }
      ],
      "name": "JobOfferAccepted",
      "type": "event"
    },
    {
      "anonymous": false,
      "inputs": [
        {
          "indexed": true,
          "name": "self",
          "type": "address"
        },
        {
          "indexed": true,
          "name": "jobId",
          "type": "uint256"
        },
        {
          "indexed": false,
          "name": "at",
          "type": "uint256"
        }
      ],
      "name": "WorkStarted",
      "type": "event"
    },
    {
      "anonymous": false,
      "inputs": [
        {
          "indexed": true,
          "name": "self",
          "type": "address"
        },
        {
          "indexed": true,
          "name": "jobId",
          "type": "uint256"
        },
        {
          "indexed": false,
          "name": "time",
          "type": "uint256"
        }
      ],
      "name": "TimeAdded",
      "type": "event"
    },
    {
      "anonymous": false,
      "inputs": [
        {
          "indexed": true,
          "name": "self",
          "type": "address"
        },
        {
          "indexed": true,
          "name": "jobId",
          "type": "uint256"
        },
        {
          "indexed": false,
          "name": "at",
          "type": "uint256"
        }
      ],
      "name": "WorkPaused",
      "type": "event"
    },
    {
      "anonymous": false,
      "inputs": [
        {
          "indexed": true,
          "name": "self",
          "type": "address"
        },
        {
          "indexed": true,
          "name": "jobId",
          "type": "uint256"
        },
        {
          "indexed": false,
          "name": "at",
          "type": "uint256"
        }
      ],
      "name": "WorkResumed",
      "type": "event"
    },
    {
      "anonymous": false,
      "inputs": [
        {
          "indexed": true,
          "name": "self",
          "type": "address"
        },
        {
          "indexed": true,
          "name": "jobId",
          "type": "uint256"
        },
        {
          "indexed": false,
          "name": "at",
          "type": "uint256"
        }
      ],
      "name": "WorkFinished",
      "type": "event"
    },
    {
      "anonymous": false,
      "inputs": [
        {
          "indexed": true,
          "name": "self",
          "type": "address"
        },
        {
          "indexed": true,
          "name": "jobId",
          "type": "uint256"
        }
      ],
      "name": "PaymentReleased",
      "type": "event"
    },
    {
      "anonymous": false,
      "inputs": [
        {
          "indexed": true,
          "name": "self",
          "type": "address"
        },
        {
          "indexed": true,
          "name": "jobId",
          "type": "uint256"
        }
      ],
      "name": "JobCanceled",
      "type": "event"
    },
    {
      "anonymous": false,
      "inputs": [
        {
          "indexed": false,
          "name": "code",
          "type": "address"
        },
        {
          "indexed": false,
          "name": "sender",
          "type": "address"
        },
        {
          "indexed": false,
          "name": "sig",
          "type": "bytes4"
        }
      ],
      "name": "AuthFailedError",
      "type": "event"
    },
    {
      "anonymous": false,
      "inputs": [
        {
          "indexed": true,
          "name": "self",
          "type": "address"
        },
        {
          "indexed": false,
          "name": "msg",
          "type": "bytes32"
        }
      ],
      "name": "Error",
      "type": "event"
    },
    {
      "anonymous": false,
      "inputs": [
        {
          "indexed": true,
          "name": "self",
          "type": "address"
        },
        {
          "indexed": false,
          "name": "errorCode",
          "type": "uint256"
        }
      ],
      "name": "ErrorCode",
      "type": "event"
    }
  ],
  "bytecode": "0x606060405234156200001057600080fd5b60405160608062002bb68339810160405280805191906020018051919060200180519150819050838362000055600083836401000000006200259d620004a682021704565b505060038054600160a060020a031916600160a060020a0392909216919091179055620000b260067f6a6f6273436f756e740000000000000000000000000000000000000000000000640100000000620004cc8102620025d01704565b620000ed60077f6a6f625374617465000000000000000000000000000000000000000000000000640100000000620025e0620004ec82021704565b6200012860087f6a6f62436c69656e740000000000000000000000000000000000000000000000640100000000620025e0620004ec82021704565b6200016360097f6a6f62576f726b65720000000000000000000000000000000000000000000000640100000000620025e0620004ec82021704565b6200019e600a7f6a6f6244657461696c7349504653486173680000000000000000000000000000640100000000620025e0620004ec82021704565b620001d9600b7f6a6f62536b696c6c734172656100000000000000000000000000000000000000640100000000620025e0620004ec82021704565b62000214600c7f6a6f62536b696c6c7343617465676f7279000000000000000000000000000000640100000000620025e0620004ec82021704565b6200024f600d7f6a6f62536b696c6c730000000000000000000000000000000000000000000000640100000000620025e0620004ec82021704565b6200028a600e7f6a6f62537461727454696d650000000000000000000000000000000000000000640100000000620025e0620004ec82021704565b620002c5600f7f6a6f6246696e69736854696d6500000000000000000000000000000000000000640100000000620025e0620004ec82021704565b6200030060107f6a6f625061757365640000000000000000000000000000000000000000000000640100000000620025e0620004ec82021704565b6200033b60117f6a6f625061757365644174000000000000000000000000000000000000000000640100000000620025e0620004ec82021704565b6200037660127f6a6f62506175736564466f720000000000000000000000000000000000000000640100000000620025e0620004ec82021704565b620003b160137f6a6f624f66666572526174650000000000000000000000000000000000000000640100000000620025e0620004ec82021704565b620003ec60147f6a6f624f66666572457374696d61746500000000000000000000000000000000640100000000620025e0620004ec82021704565b6200042760157f6a6f624f666665724f6e746f7000000000000000000000000000000000000000640100000000620025e0620004ec82021704565b6200046260177f6a6f6246696e616c697a65644174000000000000000000000000000000000000640100000000620025e0620004ec82021704565b6200049d60167f62696e6453746174757300000000000000000000000000000000000000000000640100000000620025e0620004ec82021704565b50505062000522565b8254600160a060020a031916600160a060020a0392909216919091178255600190910155565b8154620004e89082640100000000620026166200050a82021704565b9055565b620005068282640100000000620025d0620004cc82021704565b5050565b8115158062000517575080155b156200050657600080fd5b61268480620005326000396000f3006060604052600436106102005763ffffffff60e060020a60003504166302927d20811461020557806303a250f9146102365780630419d0e41461024c578063088b0d751461026e5780630d9f28171461028d5780630e1a9e3f146102a357806314f60881146102b95780631972b464146102eb5780631dffa3dc146103185780632637cd7d1461032e57806332c514d51461034d57806336dd20a7146103635780633de035bf1461037957806342cfd7921461038f57806353bc1c12146103ae57806358b5f92a146103c4578063596fab6c146103e357806361f30408146103f95780638680e52d146104125780638834277e1461043457806388685cd91461044a57806389c29b6114610460578063918d407d14610476578063933610781461048d5780639c6e1d46146104a3578063aea1935b146104b9578063b3ec8cb8146104cf578063b633d272146104e2578063b7d8b1d9146104fb578063c04944f114610514578063c26d0c2c1461053c578063cb56dd7914610555578063d07e9f901461056b578063d64956761461057e578063dce722dd14610594578063e187eaf7146105aa578063e270398a146105bc578063e90459f8146105ef578063ec2b50bf14610605578063ef29a7e514610624578063f1c6bdf81461063d578063f839dc6214610650578063fd03d76214610666578063fff10aba1461067c575b600080fd5b341561021057600080fd5b610224600160a060020a036004351661068f565b60405190815260200160405180910390f35b341561024157600080fd5b610224600435610733565b341561025757600080fd5b610224600160a060020a03600435166024356107c0565b341561027957600080fd5b610224600160a060020a0360043516610804565b341561029857600080fd5b6102246004356108b1565b34156102ae57600080fd5b6102246004356108cb565b34156102c457600080fd5b6102cf6004356108df565b604051600160a060020a03909116815260200160405180910390f35b34156102f657600080fd5b610316600435600160a060020a03602435166044356064356084356108f3565b005b341561032357600080fd5b61022460043561096d565b341561033957600080fd5b610224600160a060020a0360043516610b04565b341561035857600080fd5b610224600435610bb1565b341561036e57600080fd5b6102cf600435610bc5565b341561038457600080fd5b610224600435610bd9565b341561039a57600080fd5b610224600435602435604435606435610c49565b34156103b957600080fd5b610224600435610d77565b34156103cf57600080fd5b610224600435602435604435606435610d8b565b34156103ee57600080fd5b610224600435610e7e565b341561040457600080fd5b610316600435602435610ea6565b341561041d57600080fd5b610316600435600160a060020a0360243516610eef565b341561043f57600080fd5b610316600435610f42565b341561045557600080fd5b610224600435610f89565b341561046b57600080fd5b6102246004356110ba565b610224600435600160a060020a036024351661126d565b341561049857600080fd5b6102246004356113c9565b34156104ae57600080fd5b61031660043561144d565b34156104c457600080fd5b61022460043561148e565b34156104da57600080fd5b6102cf611512565b34156104ed57600080fd5b610316600435602435611521565b341561050657600080fd5b61031660043560243561156a565b341561051f57600080fd5b610224600160a060020a03600435166024356044356064356115b3565b341561054757600080fd5b6103166004356024356115e0565b341561056057600080fd5b610224600435611629565b341561057657600080fd5b61022461163d565b341561058957600080fd5b610316600435611655565b341561059f57600080fd5b610224600435611696565b61022460043561ffff602435166116aa565b34156105c757600080fd5b610316600435600160a060020a036024351660443560643560843560a43560c4351515611736565b34156105fa57600080fd5b6103166004356117ba565b341561061057600080fd5b610224600160a060020a0360043516611801565b341561062f57600080fd5b6103166004356024356118ae565b341561064857600080fd5b6102cf6118f7565b341561065b57600080fd5b610224600435611906565b341561067157600080fd5b6102246004356119bc565b341561068757600080fd5b6102cf611a31565b60006106a733600035600160e060020a031916611a40565b151561070a576000805160206126398339815191523033600035600160e060020a031916604051600160a060020a039384168152919092166020820152600160e060020a03199091166040808301919091526060909101905180910390a161072e565b600160a060020a038216151561071f57600080fd5b61072882611b14565b50600190505b919050565b600081600160a060020a0333166107528360098463ffffffff611b4516565b600160a060020a031614610765576107ba565b8260028061077c600060078563ffffffff611b4516565b146107995761078c6132cb611b5a565b506132cb60005260206000f35b6107b260078660035b600092919063ffffffff611bc316565b600193505b50505b50919050565b6000806107d6816015858763ffffffff611bd516565b90506107fa84846107f160006014838563ffffffff611bd516565b603c01846115b3565b91505b5092915050565b600061081c33600035600160e060020a031916611a40565b151561087f576000805160206126398339815191523033600035600160e060020a031916604051600160a060020a039384168152919092166020820152600160e060020a03199091166040808301919091526060909101905180910390a161072e565b5060048054600160a060020a03831673ffffffffffffffffffffffffffffffffffffffff199091161790556001919050565b60006108c581600c8463ffffffff611b4516565b92915050565b60006108c581600b8463ffffffff611b4516565b60006108c58160088463ffffffff611b4516565b846108fc611bf5565b600160a060020a03167fa3bc0f53ddeedcb11a232f5b24300a8fe43af2c2dcc30b46dbc64476e762a186868686866040518085600160a060020a0316600160a060020a0316815260200184815260200183815260200182815260200194505050505060405180910390a35050505050565b600080808084600160a060020a03331661098f8360088463ffffffff611b4516565b600160a060020a0316146109a257610afb565b6109ab86610d77565b9350600284141580156109bf575060038414155b80156109cc575060048414155b80156109d9575060058414155b156109f0576109e96132cb611b5a565b9450610afb565b6109f9866110ba565b9250610a0e600060098863ffffffff611b4516565b600454909250600160a060020a03166355f0b76e878486610a38600060088563ffffffff611b4516565b886000806040516020015260405160e060020a63ffffffff89160281526004810196909652600160a060020a039485166024870152604486019390935292166064840152608483019190915260a482015260c401602060405180830381600087803b1515610aa557600080fd5b6102c65a03f11515610ab657600080fd5b505050604051805195505060018514610ad2576109e985611b5a565b610ae16017876107a289610d77565b610aed600787816107a2565b610af686611bf9565b600194505b50505050919050565b6000610b1c33600035600160e060020a031916611a40565b1515610b7f576000805160206126398339815191523033600035600160e060020a031916604051600160a060020a039384168152919092166020820152600160e060020a03199091166040808301919091526060909101905180910390a161072e565b5060038054600160a060020a03831673ffffffffffffffffffffffffffffffffffffffff199091161790556001919050565b60006108c581600a8463ffffffff611b4516565b60006108c58160098463ffffffff611b4516565b600081600160a060020a033316610bf88360098463ffffffff611b4516565b600160a060020a031614610c0b576107ba565b82600480610c22600060078563ffffffff611b4516565b14610c325761078c6132cb611b5a565b610c3b85611c57565b506107b260078660056107a2565b60008085610c5681611cdf565b1580610c685750610c6681611cf6565b155b15610c7257610d6d565b85610c7c81611cdf565b1580610c8e5750610c8c81611cf6565b155b15610c9857610d6b565b85801515610ca557610d69565b610cb76000600663ffffffff611d1c16565b6001019350610cd060006016868263ffffffff611d7b16565b610ce3600060068663ffffffff611d8f16565b610cf060078560016107a2565b610d0460006008863363ffffffff611e0816565b610d186000600b868c63ffffffff611bc316565b610d2c6000600c868b63ffffffff611bc316565b610d406000600d868a63ffffffff611bc316565b610d546000600a868963ffffffff611bc316565b610d6484338b8b8b8b6000611e1d565b600194505b505b505b5050949350505050565b60006108c58160078463ffffffff611b4516565b600084600160a060020a033316610daa8360088463ffffffff611b4516565b600160a060020a03161415610dbe57610e75565b85600180610dd5600060078563ffffffff611b4516565b14610de55761078c6132cb611b5a565b610df0878787611ebe565b1515610e0857610e016132c9611b5a565b9350610d6b565b610e1188611f27565b1515610e2257610e016132ca611b5a565b610e37600060138a338b63ffffffff611fed16565b610e4c600060148a338a63ffffffff611fed16565b610e61600060158a338963ffffffff611fed16565b610e6e883389898961200a565b6001935050505b50949350505050565b600080610e938160098563ffffffff611b4516565b9050610e9f81846107c0565b9392505050565b81610eaf611bf5565b600160a060020a03167fd4a20f0b641ef272f167d4b357afcf41234f55e836b7f4c2fe2df4714ac526088360405190815260200160405180910390a35050565b81610ef8611bf5565b600160a060020a03167fcd1a96dff5c14af15cc6cc02bc309e3abef75468ceced0d0435f20bef5a9db3a83604051600160a060020a03909116815260200160405180910390a35050565b610f4a611bf5565b600160a060020a03167f09e0713b45664e161c202b19bb4574ee83dfa056f9bfdee56847b3971d9682218260405190815260200160405180910390a250565b6000808083600680610fa4600060078563ffffffff611b4516565b14610fb45761078c6132cb611b5a565b610fbd866110ba565b9350610fd2600060098863ffffffff611b4516565b600454909350600160a060020a03166355f0b76e878587610ffc600060088563ffffffff611b4516565b896000806040516020015260405160e060020a63ffffffff89160281526004810196909652600160a060020a039485166024870152604486019390935292166064840152608483019190915260a482015260c401602060405180830381600087803b151561106957600080fd5b6102c65a03f1151561107a57600080fd5b505050604051805195505060018514611096576109e985611b5a565b6110a56017876107a289610d77565b6110b1600787816107a2565b610af686612098565b6000808080806110d28160098863ffffffff611b4516565b93506110dd86610d77565b925060068314156111fe576110fc60006014888763ffffffff611bd516565b603c9081019250611116600060128963ffffffff611b4516565b6111296000600e8a63ffffffff611b4516565b61113c6000600f8b63ffffffff611b4516565b030381151561114757fe5b049050603c8111801561115a5750818111155b156111915761117360006015888763ffffffff611bd516565b61118760006013898863ffffffff611bd516565b8202019450610afb565b818111156111cb576111ad60006015888763ffffffff611bd516565b6111c160006013898863ffffffff611bd516565b8302019450610afb565b6111df60006015888763ffffffff611bd516565b6111f360006013898863ffffffff611bd516565b603c02019450610afb565b600483148061120d5750600583145b156112455761122660006013888763ffffffff611bd516565b603c0261123d60006015898863ffffffff611bd516565b019450610afb565b60028314806112545750600383145b15610afb576109e960006015888763ffffffff611bd516565b600082600160a060020a03331661128c8360088463ffffffff611b4516565b600160a060020a03161461129f576107fd565b836001806112b6600060078563ffffffff611b4516565b146112c65761078c6132cb611b5a565b6112da60006013888863ffffffff611bd516565b15156112f2576112eb6132cc611b5a565b93506113c0565b61130660006009888863ffffffff611e0816565b61130f86610e7e565b341461131a57600080fd5b600454600160a060020a031663decfd51b34883360006040516020015260405160e060020a63ffffffff86160281526004810192909252600160a060020a031660248201526044016020604051808303818588803b151561137a57600080fd5b6125ee5a03f1151561138b57600080fd5b505050506040518051945050600184146113a457600080fd5b6113b160078760026107a2565b6113bb86866120e5565b600193505b50505092915050565b600081600160a060020a0333166113e88360088463ffffffff611b4516565b600160a060020a0316146113fb576107ba565b82600380611412600060078563ffffffff611b4516565b146114225761078c6132cb611b5a565b61142f60078660046107a2565b6114436000600e874263ffffffff611bc316565b6107b28542612152565b80611456611bf5565b600160a060020a03167fc81a87bb9e1f6f23054c21dd9959f8aa3b2f86077a49ccac452fadff6731304c60405160405180910390a350565b600081600160a060020a0333166114ad8360088463ffffffff611b4516565b600160a060020a0316146114c0576107ba565b826005806114d7600060078563ffffffff611b4516565b146114e75761078c6132cb611b5a565b6114f460078660066107a2565b6115086000600f874263ffffffff611bc316565b6107b285426121a5565b600554600160a060020a031681565b8161152a611bf5565b600160a060020a03167f799a32325be3cd39f977d4cc026272cc3dd97d9dd46c5751c7c9900d9f1ffcdf8360405190815260200160405180910390a35050565b81611573611bf5565b600160a060020a03167f63efc44d4747c4669c8be4f317453622684e7daab7cf5772795e6413a40c26dd8360405190815260200160405180910390a35050565b6000806115c9816013878963ffffffff611bd516565b9050600a600b858302850102049695505050505050565b816115e9611bf5565b600160a060020a03167f8cd445c80d0841aae8f229eddbed0de5befd5ff6fc2ca0510ee0621f5d6d5bef8360405190815260200160405180910390a35050565b60006108c58160178463ffffffff611b4516565b600061165081600663ffffffff611d1c16565b905090565b8061165e611bf5565b600160a060020a03167fdf20fd1e76bc69d672e4814fafb2c449bba3a5369d8359adf9e05e6fde87b05660405160405180910390a350565b60006108c581600d8463ffffffff611b4516565b600082600160a060020a0333166116c98360088463ffffffff611b4516565b600160a060020a0316146116dc576107fd565b836004806116f3600060078563ffffffff611b4516565b146117035761078c6132cb611b5a565b61ffff8516151561171357600080fd5b61171d86866121f8565b151561172857600080fd5b6113bb868661ffff166122fb565b8661173f611bf5565b600160a060020a03167f6e24f6319f952ae574b3c29eab4ac31223460e18e38fa3d3b4fd8dca48956725888888888888604051600160a060020a03909616865260208601949094526040808601939093526060850191909152608084015290151560a083015260c0909101905180910390a350505050505050565b6117c2611bf5565b600160a060020a03167fbb8f0c1d8804cd86e7873ec11cb00af945c8c0ebd061a68b28617034803464158260405190815260200160405180910390a250565b600061181933600035600160e060020a031916611a40565b151561187c576000805160206126398339815191523033600035600160e060020a031916604051600160a060020a039384168152919092166020820152600160e060020a03199091166040808301919091526060909101905180910390a161072e565b5060058054600160a060020a03831673ffffffffffffffffffffffffffffffffffffffff199091161790556001919050565b816118b7611bf5565b600160a060020a03167fca4a8dc0f20a95e32a83e0e73d9c75cbbdd5d691b99484161abb77f788d2f8d98360405190815260200160405180910390a35050565b600454600160a060020a031681565b600081600160a060020a0333166119258360098463ffffffff611b4516565b600160a060020a031614611938576107ba565b8260048061194f600060078563ffffffff611b4516565b1461195f5761078c6132cb611b5a565b611972600060108763ffffffff61234e16565b15611989576119826132cd611b5a565b93506107b7565b61199e6000601087600163ffffffff611d7b16565b6119b260006011874263ffffffff611bc316565b6107b28542612363565b600081600160a060020a0333166119db8360098463ffffffff611b4516565b600160a060020a0316146119ee576107ba565b82600480611a05600060078563ffffffff611b4516565b14611a155761078c6132cb611b5a565b611a1e85611c57565b9350600184146107b75761198284611b5a565b600254600160a060020a031690565b600030600160a060020a031683600160a060020a03161415611a64575060016108c5565b600354600160a060020a03161515611a7e575060006108c5565b600354600160a060020a031663b700961384308560006040516020015260405160e060020a63ffffffff8616028152600160a060020a039384166004820152919092166024820152600160e060020a03199091166044820152606401602060405180830381600087803b1515611af357600080fd5b6102c65a03f11515611b0457600080fd5b5050506040518051949350505050565b60028054600160a060020a03831673ffffffffffffffffffffffffffffffffffffffff199091161790556001919050565b6000611b528484846123b6565b949350505050565b6000611b64611a31565b600160a060020a0316638834277e8360405160e060020a63ffffffff84160281526004810191909152602401600060405180830381600087803b1515611ba957600080fd5b6102c65a03f11515611bba57600080fd5b50929392505050565b611bcf84848484612450565b50505050565b6000611bec858585600160a060020a0386166124e2565b95945050505050565b3390565b611c01611a31565b600160a060020a0316639c6e1d468260405160e060020a63ffffffff84160281526004810191909152602401600060405180830381600087803b1515611c4657600080fd5b6102c65a03f11515611bcf57600080fd5b6000611c6b8160108463ffffffff61234e16565b1515611c7a57506132ce61072e565b611cb9601283611c93600060118363ffffffff611b4516565b4203611ca8600060128863ffffffff611b4516565b60009392910163ffffffff611bc316565b611ccd60006010848263ffffffff611d7b16565b611cd78242612507565b506001919050565b600081158015906108c55750506000198101161590565b7faaaaaaaaaaaaaaaaaaaaaaaaaaaaaaaaaaaaaaaaaaaaaaaaaaaaaaaaaaaaaaaa161590565b815460018301548254600092600160a060020a0316916353aa3f5e91846040516020015260405160e060020a63ffffffff851602815260048101929092526024820152604401602060405180830381600087803b1515611af357600080fd5b611bcf848484611d8a8561255a565b612450565b825460018401548354600160a060020a03909216916353e7168b91908460405160e060020a63ffffffff8616028152600481019390935260248301919091526044820152606401600060405180830381600087803b1515611def57600080fd5b6102c65a03f11515611e0057600080fd5b505050505050565b611bcf848484600160a060020a038516612450565b611e25611a31565b600160a060020a031663e270398a8888888888888860405160e060020a63ffffffff8a160281526004810197909752600160a060020a03909516602487015260448601939093526064850191909152608484015260a4830152151560c482015260e401600060405180830381600087803b1515611ea157600080fd5b6102c65a03f11515611eb257600080fd5b50505050505050505050565b6000808080861580611ece575085155b15611edc5760009350611f1d565b60009250600191505b603c86018211611f0f575081860182811015611f045760009350611f1d565b915060010181611ee5565b82600a86820104600b021193505b5050509392505050565b600554600090600160a060020a0316631e0b8c8733611f4e84600b8763ffffffff611b4516565b611f616000600c8863ffffffff611b4516565b611f746000600d8963ffffffff611b4516565b60006040516020015260405160e060020a63ffffffff8716028152600160a060020a039094166004850152602484019290925260448301526064820152608401602060405180830381600087803b1515611fcd57600080fd5b6102c65a03f11515611fde57600080fd5b50505060405180519392505050565b612003858585600160a060020a03861685612574565b5050505050565b612012611a31565b600160a060020a0316631972b464868686868660405160e060020a63ffffffff88160281526004810195909552600160a060020a03909316602485015260448401919091526064830152608482015260a401600060405180830381600087803b151561207d57600080fd5b6102c65a03f1151561208e57600080fd5b5050505050505050565b6120a0611a31565b600160a060020a031663d64956768260405160e060020a63ffffffff84160281526004810191909152602401600060405180830381600087803b1515611c4657600080fd5b6120ed611a31565b600160a060020a0316638680e52d838360405160e060020a63ffffffff85160281526004810192909252600160a060020a03166024820152604401600060405180830381600087803b151561214157600080fd5b6102c65a03f1151561200357600080fd5b61215a611a31565b600160a060020a031663b7d8b1d9838360405160e060020a63ffffffff851602815260048101929092526024820152604401600060405180830381600087803b151561214157600080fd5b6121ad611a31565b600160a060020a031663ef29a7e5838360405160e060020a63ffffffff851602815260048101929092526024820152604401600060405180830381600087803b151561214157600080fd5b60008061220484610e7e565b905061225f60148561221f600060098363ffffffff611b4516565b61ffff871661224d60148a61223d600060098363ffffffff611b4516565b600092919063ffffffff611bd516565b6000949392910163ffffffff611fed16565b348161226a86610e7e565b031461227557600080fd5b600454600160a060020a031663decfd51b34863360006040516020015260405160e060020a63ffffffff86160281526004810192909252600160a060020a031660248201526044016020604051808303818588803b15156122d557600080fd5b6125ee5a03f115156122e657600080fd5b50505050604051805160011495945050505050565b612303611a31565b600160a060020a03166361f30408838360405160e060020a63ffffffff851602815260048101929092526024820152604401600060405180830381600087803b151561214157600080fd5b6000611b5261235e8585856123b6565b612598565b61236b611a31565b600160a060020a031663c26d0c2c838360405160e060020a63ffffffff851602815260048101929092526024820152604401600060405180830381600087803b151561214157600080fd5b825460018401548354600092600160a060020a0316916337d9d7fc9185604051918252602082015260409081019051809103902060006040516020015260405160e060020a63ffffffff851602815260048101929092526024820152604401602060405180830381600087803b151561242e57600080fd5b6102c65a03f1151561243f57600080fd5b505050604051805195945050505050565b835460018501548454600160a060020a039092169163a14ff85791908560405191825260208201526040908101905180910390208460405160e060020a63ffffffff8616028152600481019390935260248301919091526044820152606401600060405180830381600087803b15156124c857600080fd5b6102c65a03f115156124d957600080fd5b50505050505050565b6000611bec8585858560405191825260208201526040908101905180910390206123b6565b61250f611a31565b600160a060020a031663b633d272838360405160e060020a63ffffffff851602815260048101929092526024820152604401600060405180830381600087803b151561214157600080fd5b60008161256857600061256b565b60015b60ff1692915050565b61200385858585604051918252602082015260409081019051809103902084612450565b151590565b825473ffffffffffffffffffffffffffffffffffffffff1916600160a060020a0392909216919091178255600190910155565b81546125dc9082612616565b9055565b6125ea82826125d0565b5050565b6125ea82826125d0565b6125ea82826125d0565b6125ea82826125d0565b6125ea82826125d0565b81151580612622575080155b156125ea57600080fd5b81546125dc908261261656005133a133185f1023427a2e90f18506b27db994977ce0c0faafd514a7dd109ae0a165627a7a723058203d443bcde4109896730a7d8635ab85d6ec3bcb2f76644de66267e69cd05d32780029",
  "source": "/**\n * Copyright 20172018, LaborX PTY\n * Licensed under the AGPL Version 3 license.\n */\n\npragma solidity ^0.4.18;\n\n\nimport './adapters/MultiEventsHistoryAdapter.sol';\nimport './adapters/Roles2LibraryAdapter.sol';\nimport './adapters/StorageAdapter.sol';\nimport './base/BitOps.sol';\n\n\ncontract UserLibraryInterface {\n    function hasSkills(address _user, uint _area, uint _category, uint _skills) public view returns (bool);\n}\n\n\ncontract PaymentProcessorInterface {\n    function lockPayment(bytes32 _operationId, address _from) public payable returns (uint);\n    function releasePayment(bytes32 _operationId, address _to, uint _value, address _change, uint _feeFromValue, uint _additionalFee) public returns (uint);\n}\n\n\ncontract JobController is StorageAdapter, MultiEventsHistoryAdapter, Roles2LibraryAdapter, BitOps {\n\n    uint constant JOB_CONTROLLER_SCOPE = 13000;\n    uint constant JOB_CONTROLLER_INVALID_ESTIMATE = JOB_CONTROLLER_SCOPE + 1;\n    uint constant JOB_CONTROLLER_INVALID_SKILLS = JOB_CONTROLLER_SCOPE + 2;\n    uint constant JOB_CONTROLLER_INVALID_STATE = JOB_CONTROLLER_SCOPE + 3;\n    uint constant JOB_CONTROLLER_WORKER_RATE_NOT_SET = JOB_CONTROLLER_SCOPE + 4;\n    uint constant JOB_CONTROLLER_WORK_IS_ALREADY_PAUSED = JOB_CONTROLLER_SCOPE + 5;\n    uint constant JOB_CONTROLLER_WORK_IS_NOT_PAUSED = JOB_CONTROLLER_SCOPE + 6;\n\n    event JobPosted(address indexed self, uint indexed jobId, address client, uint skillsArea, uint skillsCategory, uint skills, bytes32 detailsIPFSHash, bool bindStatus);\n    event JobOfferPosted(address indexed self, uint indexed jobId, address worker, uint rate, uint estimate, uint ontop);\n    event JobOfferAccepted(address indexed self, uint indexed jobId, address worker);\n    event WorkStarted(address indexed self, uint indexed jobId, uint at);\n    event TimeAdded(address indexed self, uint indexed jobId, uint time);  // Additional `time` in minutes\n    event WorkPaused(address indexed self, uint indexed jobId, uint at);\n    event WorkResumed(address indexed self, uint indexed jobId, uint at);\n    event WorkFinished(address indexed self, uint indexed jobId, uint at);\n    event PaymentReleased(address indexed self, uint indexed jobId);\n    event JobCanceled(address indexed self, uint indexed jobId);\n\n    enum JobState { NOT_SET, CREATED, ACCEPTED, PENDING_START, STARTED, PENDING_FINISH, FINISHED, FINALIZED }\n\n    PaymentProcessorInterface public paymentProcessor;\n    UserLibraryInterface public userLibrary;\n\n    StorageInterface.UInt jobsCount;\n\n    StorageInterface.UIntUIntMapping jobState;\n    StorageInterface.UIntAddressMapping jobClient;  // jobId => jobClient\n    StorageInterface.UIntAddressMapping jobWorker;  // jobId => jobWorker\n    StorageInterface.UIntBytes32Mapping jobDetailsIPFSHash;\n\n    StorageInterface.UIntUIntMapping jobSkillsArea;  // jobId => jobSkillsArea\n    StorageInterface.UIntUIntMapping jobSkillsCategory;  // jobId => jobSkillsCategory\n    StorageInterface.UIntUIntMapping jobSkills;  // jobId => jobSkills\n\n    StorageInterface.UIntUIntMapping jobStartTime;\n    StorageInterface.UIntUIntMapping jobFinishTime;\n    StorageInterface.UIntBoolMapping jobPaused;\n    StorageInterface.UIntUIntMapping jobPausedAt;\n    StorageInterface.UIntUIntMapping jobPausedFor;\n\n    StorageInterface.UIntAddressUIntMapping jobOfferRate; // Per minute.\n    StorageInterface.UIntAddressUIntMapping jobOfferEstimate; // In minutes.\n    StorageInterface.UIntAddressUIntMapping jobOfferOntop; // Getting to the workplace, etc.\n\n    StorageInterface.UIntBoolMapping bindStatus;\n\n    // At which state job has been marked as FINALIZED\n    StorageInterface.UIntUIntMapping jobFinalizedAt;\n\n    modifier onlyClient(uint _jobId) {\n        if (store.get(jobClient, _jobId) != msg.sender) {\n            return;\n        }\n        _;\n    }\n\n    modifier onlyWorker(uint _jobId) {\n        if (store.get(jobWorker, _jobId) != msg.sender) {\n            return;\n        }\n        _;\n    }\n\n    modifier onlyNotClient(uint _jobId) {\n        if (store.get(jobClient, _jobId) == msg.sender) {\n            return;\n        }\n        _;\n    }\n\n    modifier onlyJobState(uint _jobId, JobState _jobState) {\n        if (store.get(jobState, _jobId) != uint(_jobState)) {\n            _emitErrorCode(JOB_CONTROLLER_INVALID_STATE);\n            assembly {\n                mstore(0, 13003) // JOB_CONTROLLER_INVALID_STATE\n                return(0, 32)\n            }\n        }\n        _;\n    }\n\n    function JobController(\n        Storage _store,\n        bytes32 _crate,\n        address _roles2Library\n    )\n    StorageAdapter(_store, _crate)\n    Roles2LibraryAdapter(_roles2Library)\n    public\n    {\n        jobsCount.init('jobsCount');\n\n        jobState.init('jobState');\n        jobClient.init('jobClient');\n        jobWorker.init('jobWorker');\n        jobDetailsIPFSHash.init('jobDetailsIPFSHash');\n\n        jobSkillsArea.init('jobSkillsArea');\n        jobSkillsCategory.init('jobSkillsCategory');\n        jobSkills.init('jobSkills');\n\n        jobStartTime.init('jobStartTime');\n        jobFinishTime.init('jobFinishTime');\n        jobPaused.init('jobPaused');\n        jobPausedAt.init('jobPausedAt');\n        jobPausedFor.init('jobPausedFor');\n\n        jobOfferRate.init('jobOfferRate');\n        jobOfferEstimate.init('jobOfferEstimate');\n        jobOfferOntop.init('jobOfferOntop');\n\n        jobFinalizedAt.init('jobFinalizedAt');\n\n        bindStatus.init('bindStatus');\n    }\n\n    function setupEventsHistory(address _eventsHistory) auth external returns (uint) {\n        require(_eventsHistory != 0x0);\n\n        _setEventsHistory(_eventsHistory);\n        return OK;\n    }\n\n    function setPaymentProcessor(PaymentProcessorInterface _paymentProcessor) auth external returns (uint) {\n        paymentProcessor = _paymentProcessor;\n        return OK;\n    }\n\n    function setUserLibrary(UserLibraryInterface _userLibrary) auth external returns (uint) {\n        userLibrary = _userLibrary;\n        return OK;\n    }\n\n    function calculateLock(address worker, uint _jobId, uint _time, uint _onTop) public view returns (uint) {\n        // Lock additional working hour + 10% of resulting amount\n        uint rate = store.get(jobOfferRate, _jobId, worker);\n        return ((rate * (_time) + _onTop) * 11) / 10;\n    }\n\n    function calculateLockAmount(uint _jobId) public view returns (uint) {\n        address worker = store.get(jobWorker, _jobId);\n        // Lock additional working hour + 10% of resulting amount\n        return calculateLockAmountFor(worker, _jobId);\n    }\n\n    function calculateLockAmountFor(address worker, uint _jobId) public view returns (uint) {\n        uint onTop = store.get(jobOfferOntop, _jobId, worker);\n        return calculateLock(worker, _jobId, store.get(jobOfferEstimate, _jobId, worker) + 60, onTop);\n    }\n\n    function calculatePaycheck(uint _jobId) public view returns (uint) {\n        address worker = store.get(jobWorker, _jobId);\n        uint _jobState = getJobState(_jobId);\n        if (_jobState == uint(JobState.FINISHED)) {\n            // Means that participants have agreed on job completion,\n            // reward should be calculated depending on worker's time spent.\n            uint maxEstimatedTime = store.get(jobOfferEstimate, _jobId, worker) + 60;\n            uint timeSpent = (store.get(jobFinishTime, _jobId) -\n                              store.get(jobStartTime, _jobId) -\n                              store.get(jobPausedFor, _jobId)) / 60;\n            if (timeSpent > 60 && timeSpent <= maxEstimatedTime) {\n                // Worker was doing the job for more than an hour, but less then\n                // maximum estimated working time. Release money for the time\n                // he has actually worked + \"on top\" expenses.\n                return timeSpent * store.get(jobOfferRate, _jobId, worker) +\n                       store.get(jobOfferOntop, _jobId, worker);\n\n            } else if (timeSpent > maxEstimatedTime) {\n                // Means worker has gone over maximum estimated time and hasnt't\n                // requested more time, which is his personal responsibility, since\n                // we're already giving workers additional working hour from start.\n                // So we release money for maximum estimated working time + \"on top\".\n                return maxEstimatedTime * store.get(jobOfferRate, _jobId, worker) +\n                       store.get(jobOfferOntop, _jobId, worker);\n\n            } else {\n                // Worker has completed the job within just an hour, so we\n                // release money for the minumum 1 working hour + \"on top\".\n                return 60 * store.get(jobOfferRate, _jobId, worker) +\n                       store.get(jobOfferOntop, _jobId, worker);\n            }\n        } else if (\n            _jobState == uint(JobState.STARTED) ||\n            _jobState == uint(JobState.PENDING_FINISH)\n        ) {\n            // Job has been canceled right after start or right before completion,\n            // minimum of 1 working hour + \"on top\" should be released.\n            return store.get(jobOfferOntop, _jobId, worker) +\n                   store.get(jobOfferRate, _jobId, worker) * 60;\n        } else if (\n            _jobState == uint(JobState.ACCEPTED) ||\n            _jobState == uint(JobState.PENDING_START)\n        ) {\n            // Job hasn't even started yet, but has been accepted,\n            // release just worker \"on top\" expenses.\n            return store.get(jobOfferOntop, _jobId, worker);\n        }\n    }\n\n    function postJob(\n        uint _area,\n        uint _category,\n        uint _skills,\n        bytes32 _detailsIPFSHash\n    )\n    singleOddFlag(_area)\n    singleOddFlag(_category)\n    hasFlags(_skills)\n    public\n    returns (uint)\n    {\n        uint jobId = store.get(jobsCount) + 1;\n        store.set(bindStatus, jobId, false);\n        store.set(jobsCount, jobId);\n        store.set(jobState, jobId, uint(JobState.CREATED));\n        store.set(jobClient, jobId, msg.sender);\n        store.set(jobSkillsArea, jobId, _area);\n        store.set(jobSkillsCategory, jobId, _category);\n        store.set(jobSkills, jobId, _skills);\n        store.set(jobDetailsIPFSHash, jobId, _detailsIPFSHash);\n\n        _emitJobPosted(jobId, msg.sender, _area, _category, _skills, _detailsIPFSHash, false);\n        return OK;\n    }\n\n    function postJobOffer(\n        uint _jobId,\n        uint _rate,\n        uint _estimate,\n        uint _ontop\n    )\n    onlyNotClient(_jobId)\n    onlyJobState(_jobId, JobState.CREATED)\n    public\n    returns (uint)\n    {\n        if (!_validEstimate(_rate, _estimate, _ontop)) {\n            return _emitErrorCode(JOB_CONTROLLER_INVALID_ESTIMATE);\n        }\n\n        if (!_hasSkillsCheck(_jobId)) {\n            return _emitErrorCode(JOB_CONTROLLER_INVALID_SKILLS);\n        }\n\n        store.set(jobOfferRate, _jobId, msg.sender, _rate);\n        store.set(jobOfferEstimate, _jobId, msg.sender, _estimate);\n        store.set(jobOfferOntop, _jobId, msg.sender, _ontop);\n\n        _emitJobOfferPosted(_jobId, msg.sender, _rate, _estimate, _ontop);\n        return OK;\n    }\n\n    function _validEstimate(uint _rate, uint _estimate, uint _ontop) internal pure returns (bool) {\n        if (_rate == 0 || _estimate == 0) {\n            return false;\n        }\n        uint prev = 0;\n        for (uint i = 1; i <= _estimate + 60; i++) {\n            uint curr = prev + _rate;\n            if (curr < prev) {\n                return false;\n            }\n            prev = curr;\n        }\n        return ((prev + _ontop) / 10) * 11 > prev;\n    }\n\n    function _hasSkillsCheck(uint _jobId) internal view returns (bool) {\n        return userLibrary.hasSkills(\n            msg.sender,\n            store.get(jobSkillsArea, _jobId),\n            store.get(jobSkillsCategory, _jobId),\n            store.get(jobSkills, _jobId)\n        );\n    }\n\n    function acceptOffer(\n        uint _jobId,\n        address _worker\n    )\n    onlyClient(_jobId)\n    onlyJobState(_jobId, JobState.CREATED)\n    external\n    payable\n    returns (uint _resultCode)\n    {\n        if (store.get(jobOfferRate, _jobId, _worker) == 0) {\n            return _emitErrorCode(JOB_CONTROLLER_WORKER_RATE_NOT_SET);\n        }\n\n        // Maybe incentivize by locking some money from worker?\n        store.set(jobWorker, _jobId, _worker);\n\n        require(msg.value == calculateLockAmount(_jobId));\n\n        _resultCode = paymentProcessor.lockPayment.value(msg.value)(bytes32(_jobId), msg.sender);\n        if (_resultCode != OK) {\n            revert();\n        }\n\n        store.set(jobState, _jobId, uint(JobState.ACCEPTED));\n\n        _emitJobOfferAccepted(_jobId, _worker);\n        return OK;\n    }\n\n    function startWork(\n        uint _jobId\n    )\n    onlyWorker(_jobId)\n    onlyJobState(_jobId, JobState.ACCEPTED)\n    external\n    returns (uint)\n    {\n        store.set(jobState, _jobId, uint(JobState.PENDING_START));\n        return OK;\n    }\n\n    function confirmStartWork(\n        uint _jobId\n    )\n    onlyClient(_jobId)\n    onlyJobState(_jobId, JobState.PENDING_START)\n    external\n    returns (uint)\n    {\n        store.set(jobState, _jobId, uint(JobState.STARTED));\n        store.set(jobStartTime, _jobId, now);\n\n        _emitWorkStarted(_jobId, now);\n        return OK;\n    }\n\n    function pauseWork(\n        uint _jobId\n    )\n    onlyWorker(_jobId)\n    onlyJobState(_jobId, JobState.STARTED)\n    external\n    returns (uint)\n    {\n        if (store.get(jobPaused, _jobId)) {\n            return _emitErrorCode(JOB_CONTROLLER_WORK_IS_ALREADY_PAUSED);\n        }\n\n        store.set(jobPaused, _jobId, true);\n        store.set(jobPausedAt, _jobId, now);\n\n        _emitWorkPaused(_jobId, now);\n        return OK;\n    }\n\n    function resumeWork(\n        uint _jobId\n    )\n    onlyWorker(_jobId)\n    onlyJobState(_jobId, JobState.STARTED)\n    external\n    returns (uint _resultCode)\n    {\n        _resultCode = _resumeWork(_jobId);\n        if (_resultCode != OK) {\n            return _emitErrorCode(_resultCode);\n        }\n    }\n\n    function _resumeWork(uint _jobId) internal returns (uint) {\n        if (!store.get(jobPaused, _jobId)) {\n            return JOB_CONTROLLER_WORK_IS_NOT_PAUSED;\n        }\n        store.set(jobPausedFor, _jobId, store.get(jobPausedFor, _jobId) + (now - store.get(jobPausedAt, _jobId)));\n        store.set(jobPaused, _jobId, false);\n\n        _emitWorkResumed(_jobId, now);\n        return OK;\n    }\n\n    function addMoreTime(\n        uint _jobId,\n        uint16 _additionalTime\n    )\n    onlyClient(_jobId)\n    onlyJobState(_jobId, JobState.STARTED)\n    external\n    payable\n    returns (uint)\n    {\n        require(_additionalTime != 0);\n\n        if (!_setNewEstimate(_jobId, _additionalTime)) {\n            revert();\n        }\n        _emitTimeAdded(_jobId, _additionalTime);\n        return OK;\n    }\n\n    function _setNewEstimate(uint _jobId, uint16 _additionalTime)\n    internal\n    returns (bool)\n    {\n        uint jobPaymentLocked = calculateLockAmount(_jobId);\n        store.set(\n            jobOfferEstimate,\n            _jobId,\n            store.get(jobWorker, _jobId),\n            store.get(jobOfferEstimate, _jobId, store.get(jobWorker, _jobId)) + _additionalTime\n        );\n\n        require(calculateLockAmount(_jobId) - jobPaymentLocked == msg.value);\n\n        return OK == paymentProcessor.lockPayment.value(msg.value)(bytes32(_jobId), msg.sender);\n    }\n\n    function endWork(\n        uint _jobId\n    )\n    onlyWorker(_jobId)\n    onlyJobState(_jobId, JobState.STARTED)\n    external\n    returns (uint)\n    {\n        _resumeWork(_jobId);  // In case worker have forgotten about paused timer\n        store.set(jobState, _jobId, uint(JobState.PENDING_FINISH));\n        return OK;\n    }\n\n    function confirmEndWork(\n        uint _jobId\n    )\n    onlyClient(_jobId)\n    onlyJobState(_jobId, JobState.PENDING_FINISH)\n    external\n    returns (uint)\n    {\n        store.set(jobState, _jobId, uint(JobState.FINISHED));\n        store.set(jobFinishTime, _jobId, now);\n\n        _emitWorkFinished(_jobId, now);\n        return OK;\n    }\n\n    function cancelJob(\n        uint _jobId\n    )\n    onlyClient(_jobId)\n    external\n    returns (uint _resultCode)\n    {\n        uint _jobState = getJobState(_jobId);\n        if (\n            _jobState != uint(JobState.ACCEPTED) &&\n            _jobState != uint(JobState.PENDING_START) &&\n            _jobState != uint(JobState.STARTED) &&\n            _jobState != uint(JobState.PENDING_FINISH)\n        ) {\n            return _emitErrorCode(JOB_CONTROLLER_INVALID_STATE);\n        }\n\n        uint payCheck = calculatePaycheck(_jobId);\n        address worker = store.get(jobWorker, _jobId);\n\n        _resultCode = paymentProcessor.releasePayment(\n            bytes32(_jobId),\n            worker,\n            payCheck,\n            store.get(jobClient, _jobId),\n            payCheck,\n            0\n        );\n        if (_resultCode != OK) {\n            return _emitErrorCode(_resultCode);\n        }\n\n        store.set(jobFinalizedAt, _jobId, getJobState(_jobId));\n        store.set(jobState, _jobId, uint(JobState.FINALIZED));\n\n        _emitJobCanceled(_jobId);\n        return OK;\n    }\n\n    function releasePayment(\n        uint _jobId\n    )\n    onlyJobState(_jobId, JobState.FINISHED)\n    public\n    returns (uint _resultCode)\n    {\n        uint payCheck = calculatePaycheck(_jobId);\n        address worker = store.get(jobWorker, _jobId);\n\n        _resultCode = paymentProcessor.releasePayment(\n            bytes32(_jobId),\n            worker,\n            payCheck,\n            store.get(jobClient, _jobId),\n            payCheck,\n            0\n        );\n        if (_resultCode != OK) {\n            return _emitErrorCode(_resultCode);\n        }\n\n        store.set(jobFinalizedAt, _jobId, getJobState(_jobId));\n        store.set(jobState, _jobId, uint(JobState.FINALIZED));\n\n        _emitPaymentReleased(_jobId);\n        return OK;\n    }\n\n    function getJobsCount() public view returns (uint) {\n        return store.get(jobsCount);\n    }\n\n    function getJobClient(uint _jobId) public view returns (address) {\n        return store.get(jobClient, _jobId);\n    }\n\n    function getJobWorker(uint _jobId) public view returns (address) {\n        return store.get(jobWorker, _jobId);\n    }\n\n    function getJobSkillsArea(uint _jobId) public view returns (uint) {\n        return store.get(jobSkillsArea, _jobId);\n    }\n\n    function getJobSkillsCategory(uint _jobId) public view returns (uint) {\n        return store.get(jobSkillsCategory, _jobId);\n    }\n\n    function getJobSkills(uint _jobId) public view returns (uint) {\n        return store.get(jobSkills, _jobId);\n    }\n\n    function getJobDetailsIPFSHash(uint _jobId) public view returns (bytes32) {\n        return store.get(jobDetailsIPFSHash, _jobId);\n    }\n\n    function getJobState(uint _jobId) public view returns (uint) {\n        return uint(store.get(jobState, _jobId));\n    }\n\n    function getFinalState(uint _jobId) public view returns (uint) {\n        return store.get(jobFinalizedAt, _jobId);\n    }\n\n    function emitJobPosted(\n        uint _jobId,\n        address _client,\n        uint _skillsArea,\n        uint _skillsCategory,\n        uint _skills,\n        bytes32 _detailsIPFSHash,\n        bool _bindStatus\n    )\n    public\n    {\n        JobPosted(_self(), _jobId, _client, _skillsArea, _skillsCategory, _skills, _detailsIPFSHash, _bindStatus);\n    }\n\n    function emitJobOfferPosted(uint _jobId, address _worker, uint _rate, uint _estimate, uint _ontop) public {\n        JobOfferPosted(_self(), _jobId, _worker, _rate, _estimate, _ontop);\n    }\n\n    function emitJobOfferAccepted(uint _jobId, address _worker) public {\n        JobOfferAccepted(_self(), _jobId, _worker);\n    }\n\n    function emitWorkStarted(uint _jobId, uint _at) public {\n        WorkStarted(_self(), _jobId, _at);\n    }\n\n    function emitWorkPaused(uint _jobId, uint _at) public {\n        WorkPaused(_self(), _jobId, _at);\n    }\n\n    function emitWorkResumed(uint _jobId, uint _at) public {\n        WorkResumed(_self(), _jobId, _at);\n    }\n\n    function emitTimeAdded(uint _jobId, uint _time) public {\n        TimeAdded(_self(), _jobId, _time);\n    }\n\n    function emitWorkFinished(uint _jobId, uint _at) public {\n        WorkFinished(_self(), _jobId, _at);\n    }\n\n    function emitPaymentReleased(uint _jobId) public {\n        PaymentReleased(_self(), _jobId);\n    }\n\n    function emitJobCanceled(uint _jobId) public {\n        JobCanceled(_self(), _jobId);\n    }\n\n    function _emitJobPosted(\n        uint _jobId,\n        address _client,\n        uint _skillsArea,\n        uint _skillsCategory,\n        uint _skills,\n        bytes32 _detailsIPFSHash,\n        bool _bindStatus\n    )\n    internal\n    {\n        JobController(getEventsHistory()).emitJobPosted(\n            _jobId,\n            _client,\n            _skillsArea,\n            _skillsCategory,\n            _skills,\n            _detailsIPFSHash,\n            _bindStatus\n        );\n    }\n\n    function _emitJobOfferPosted(\n        uint _jobId,\n        address _worker,\n        uint _rate,\n        uint _estimate,\n        uint _ontop\n    )\n    internal\n    {\n        JobController(getEventsHistory()).emitJobOfferPosted(\n            _jobId,\n            _worker,\n            _rate,\n            _estimate,\n            _ontop\n        );\n    }\n\n    function _emitJobOfferAccepted(uint _jobId, address _worker) internal {\n        JobController(getEventsHistory()).emitJobOfferAccepted(_jobId, _worker);\n    }\n\n    function _emitWorkStarted(uint _jobId, uint _at) internal {\n        JobController(getEventsHistory()).emitWorkStarted(_jobId, _at);\n    }\n\n    function _emitWorkPaused(uint _jobId, uint _at) internal {\n        JobController(getEventsHistory()).emitWorkPaused(_jobId, _at);\n    }\n\n    function _emitWorkResumed(uint _jobId, uint _at) internal {\n        JobController(getEventsHistory()).emitWorkResumed(_jobId, _at);\n    }\n\n    function _emitTimeAdded(uint _jobId, uint _time) internal {\n        JobController(getEventsHistory()).emitTimeAdded(_jobId, _time);\n    }\n\n    function _emitWorkFinished(uint _jobId, uint _at) internal {\n        JobController(getEventsHistory()).emitWorkFinished(_jobId, _at);\n    }\n\n    function _emitPaymentReleased(uint _jobId) internal {\n        JobController(getEventsHistory()).emitPaymentReleased(_jobId);\n    }\n\n    function _emitJobCanceled(uint _jobId) internal {\n        JobController(getEventsHistory()).emitJobCanceled(_jobId);\n    }\n}\n",
  "sourcePath": "/Users/ahiatsevich/Development/chronobank/LX-SC/contracts/JobController.sol",
  "compiler": {
    "name": "solc",
    "version": "0.4.19+commit.c4cbbb05.Emscripten.clang"
  },
  "schemaVersion": "2.0.0",
  "updatedAt": "2018-05-21T17:51:20.549Z"
}