{
  "contractName": "JobController",
  "abi": [
    {
      "constant": false,
      "inputs": [
        {
          "name": "_eventsHistory",
          "type": "address"
        }
      ],
      "name": "setupEventsHistory",
      "outputs": [
        {
          "name": "",
          "type": "uint256"
        }
      ],
      "payable": false,
      "stateMutability": "nonpayable",
      "type": "function"
    },
    {
      "constant": false,
      "inputs": [
        {
          "name": "_jobId",
          "type": "uint256"
        }
      ],
      "name": "startWork",
      "outputs": [
        {
          "name": "",
          "type": "uint256"
        }
      ],
      "payable": false,
      "stateMutability": "nonpayable",
      "type": "function"
    },
    {
      "constant": false,
      "inputs": [
        {
          "name": "_paymentProcessor",
          "type": "address"
        }
      ],
      "name": "setPaymentProcessor",
      "outputs": [
        {
          "name": "",
          "type": "uint256"
        }
      ],
      "payable": false,
      "stateMutability": "nonpayable",
      "type": "function"
    },
    {
      "constant": true,
      "inputs": [
        {
          "name": "_jobId",
          "type": "uint256"
        }
      ],
      "name": "getJobSkillsCategory",
      "outputs": [
        {
          "name": "",
          "type": "uint256"
        }
      ],
      "payable": false,
      "stateMutability": "view",
      "type": "function"
    },
    {
      "constant": true,
      "inputs": [
        {
          "name": "_jobId",
          "type": "uint256"
        }
      ],
      "name": "getJobSkillsArea",
      "outputs": [
        {
          "name": "",
          "type": "uint256"
        }
      ],
      "payable": false,
      "stateMutability": "view",
      "type": "function"
    },
    {
      "constant": true,
      "inputs": [
        {
          "name": "_jobId",
          "type": "uint256"
        }
      ],
      "name": "getJobClient",
      "outputs": [
        {
          "name": "",
          "type": "address"
        }
      ],
      "payable": false,
      "stateMutability": "view",
      "type": "function"
    },
    {
      "constant": false,
      "inputs": [
        {
          "name": "_jobId",
          "type": "uint256"
        },
        {
          "name": "_worker",
          "type": "address"
        },
        {
          "name": "_rate",
          "type": "uint256"
        },
        {
          "name": "_estimate",
          "type": "uint256"
        },
        {
          "name": "_ontop",
          "type": "uint256"
        }
      ],
      "name": "emitJobOfferPosted",
      "outputs": [],
      "payable": false,
      "stateMutability": "nonpayable",
      "type": "function"
    },
    {
      "constant": false,
      "inputs": [
        {
          "name": "_jobId",
          "type": "uint256"
        }
      ],
      "name": "cancelJob",
      "outputs": [
        {
          "name": "_resultCode",
          "type": "uint256"
        }
      ],
      "payable": false,
      "stateMutability": "nonpayable",
      "type": "function"
    },
    {
      "constant": false,
      "inputs": [
        {
          "name": "_roles2Library",
          "type": "address"
        }
      ],
      "name": "setRoles2Library",
      "outputs": [
        {
          "name": "",
          "type": "uint256"
        }
      ],
      "payable": false,
      "stateMutability": "nonpayable",
      "type": "function"
    },
    {
      "constant": true,
      "inputs": [
        {
          "name": "_jobId",
          "type": "uint256"
        }
      ],
      "name": "getJobDetailsIPFSHash",
      "outputs": [
        {
          "name": "",
          "type": "bytes32"
        }
      ],
      "payable": false,
      "stateMutability": "view",
      "type": "function"
    },
    {
      "constant": true,
      "inputs": [
        {
          "name": "_jobId",
          "type": "uint256"
        }
      ],
      "name": "getJobWorker",
      "outputs": [
        {
          "name": "",
          "type": "address"
        }
      ],
      "payable": false,
      "stateMutability": "view",
      "type": "function"
    },
    {
      "constant": false,
      "inputs": [
        {
          "name": "_jobId",
          "type": "uint256"
        }
      ],
      "name": "endWork",
      "outputs": [
        {
          "name": "",
          "type": "uint256"
        }
      ],
      "payable": false,
      "stateMutability": "nonpayable",
      "type": "function"
    },
    {
      "constant": false,
      "inputs": [
        {
          "name": "_area",
          "type": "uint256"
        },
        {
          "name": "_category",
          "type": "uint256"
        },
        {
          "name": "_skills",
          "type": "uint256"
        },
        {
          "name": "_detailsIPFSHash",
          "type": "bytes32"
        }
      ],
      "name": "postJob",
      "outputs": [
        {
          "name": "",
          "type": "uint256"
        }
      ],
      "payable": false,
      "stateMutability": "nonpayable",
      "type": "function"
    },
    {
      "constant": false,
      "inputs": [
        {
          "name": "_erc20Library",
          "type": "address"
        }
      ],
      "name": "setERC20Library",
      "outputs": [
        {
          "name": "",
          "type": "uint256"
        }
      ],
      "payable": false,
      "stateMutability": "nonpayable",
      "type": "function"
    },
    {
      "constant": true,
      "inputs": [
        {
          "name": "_jobId",
          "type": "uint256"
        }
      ],
      "name": "getJobState",
      "outputs": [
        {
          "name": "",
          "type": "uint256"
        }
      ],
      "payable": false,
      "stateMutability": "view",
      "type": "function"
    },
    {
      "constant": true,
      "inputs": [
        {
          "name": "_jobId",
          "type": "uint256"
        }
      ],
      "name": "calculateLockAmount",
      "outputs": [
        {
          "name": "",
          "type": "uint256"
        }
      ],
      "payable": false,
      "stateMutability": "view",
      "type": "function"
    },
    {
      "constant": false,
      "inputs": [
        {
          "name": "_jobId",
          "type": "uint256"
        },
        {
          "name": "_time",
          "type": "uint256"
        }
      ],
      "name": "emitTimeAdded",
      "outputs": [],
      "payable": false,
      "stateMutability": "nonpayable",
      "type": "function"
    },
    {
      "constant": false,
      "inputs": [
        {
          "name": "_jobId",
          "type": "uint256"
        },
        {
          "name": "_erc20Contract",
          "type": "address"
        },
        {
          "name": "_rate",
          "type": "uint256"
        },
        {
          "name": "_estimate",
          "type": "uint256"
        },
        {
          "name": "_ontop",
          "type": "uint256"
        }
      ],
      "name": "postJobOffer",
      "outputs": [
        {
          "name": "",
          "type": "uint256"
        }
      ],
      "payable": false,
      "stateMutability": "nonpayable",
      "type": "function"
    },
    {
      "constant": false,
      "inputs": [
        {
          "name": "_jobId",
          "type": "uint256"
        },
        {
          "name": "_worker",
          "type": "address"
        }
      ],
      "name": "emitJobOfferAccepted",
      "outputs": [],
      "payable": false,
      "stateMutability": "nonpayable",
      "type": "function"
    },
    {
      "constant": false,
      "inputs": [
        {
          "name": "_errorCode",
          "type": "uint256"
        }
      ],
      "name": "emitErrorCode",
      "outputs": [],
      "payable": false,
      "stateMutability": "nonpayable",
      "type": "function"
    },
    {
      "constant": false,
      "inputs": [
        {
          "name": "_jobId",
          "type": "uint256"
        }
      ],
      "name": "releasePayment",
      "outputs": [
        {
          "name": "_resultCode",
          "type": "uint256"
        }
      ],
      "payable": false,
      "stateMutability": "nonpayable",
      "type": "function"
    },
    {
      "constant": true,
      "inputs": [
        {
          "name": "_jobId",
          "type": "uint256"
        }
      ],
      "name": "calculatePaycheck",
      "outputs": [
        {
          "name": "",
          "type": "uint256"
        }
      ],
      "payable": false,
      "stateMutability": "view",
      "type": "function"
    },
    {
      "constant": false,
      "inputs": [
        {
          "name": "_jobId",
          "type": "uint256"
        },
        {
          "name": "_worker",
          "type": "address"
        }
      ],
      "name": "acceptOffer",
      "outputs": [
        {
          "name": "_resultCode",
          "type": "uint256"
        }
      ],
      "payable": false,
      "stateMutability": "nonpayable",
      "type": "function"
    },
    {
      "constant": false,
      "inputs": [
        {
          "name": "_jobId",
          "type": "uint256"
        }
      ],
      "name": "confirmStartWork",
      "outputs": [
        {
          "name": "",
          "type": "uint256"
        }
      ],
      "payable": false,
      "stateMutability": "nonpayable",
      "type": "function"
    },
    {
      "constant": false,
      "inputs": [
        {
          "name": "_jobId",
          "type": "uint256"
        }
      ],
      "name": "emitJobCanceled",
      "outputs": [],
      "payable": false,
      "stateMutability": "nonpayable",
      "type": "function"
    },
    {
      "constant": false,
      "inputs": [
        {
          "name": "_jobId",
          "type": "uint256"
        }
      ],
      "name": "confirmEndWork",
      "outputs": [
        {
          "name": "",
          "type": "uint256"
        }
      ],
      "payable": false,
      "stateMutability": "nonpayable",
      "type": "function"
    },
    {
      "constant": true,
      "inputs": [],
      "name": "userLibrary",
      "outputs": [
        {
          "name": "",
          "type": "address"
        }
      ],
      "payable": false,
      "stateMutability": "view",
      "type": "function"
    },
    {
      "constant": false,
      "inputs": [
        {
          "name": "_jobId",
          "type": "uint256"
        },
        {
          "name": "_at",
          "type": "uint256"
        }
      ],
      "name": "emitWorkResumed",
      "outputs": [],
      "payable": false,
      "stateMutability": "nonpayable",
      "type": "function"
    },
    {
      "constant": false,
      "inputs": [
        {
          "name": "_jobId",
          "type": "uint256"
        },
        {
          "name": "_at",
          "type": "uint256"
        }
      ],
      "name": "emitWorkStarted",
      "outputs": [],
      "payable": false,
      "stateMutability": "nonpayable",
      "type": "function"
    },
    {
      "constant": false,
      "inputs": [
        {
          "name": "_jobId",
          "type": "uint256"
        },
        {
          "name": "_at",
          "type": "uint256"
        }
      ],
      "name": "emitWorkPaused",
      "outputs": [],
      "payable": false,
      "stateMutability": "nonpayable",
      "type": "function"
    },
    {
      "constant": true,
      "inputs": [
        {
          "name": "_jobId",
          "type": "uint256"
        }
      ],
      "name": "getFinalState",
      "outputs": [
        {
          "name": "",
          "type": "uint256"
        }
      ],
      "payable": false,
      "stateMutability": "view",
      "type": "function"
    },
    {
      "constant": true,
      "inputs": [],
      "name": "getJobsCount",
      "outputs": [
        {
          "name": "",
          "type": "uint256"
        }
      ],
      "payable": false,
      "stateMutability": "view",
      "type": "function"
    },
    {
      "constant": false,
      "inputs": [
        {
          "name": "_jobId",
          "type": "uint256"
        }
      ],
      "name": "emitPaymentReleased",
      "outputs": [],
      "payable": false,
      "stateMutability": "nonpayable",
      "type": "function"
    },
    {
      "constant": true,
      "inputs": [
        {
          "name": "_jobId",
          "type": "uint256"
        }
      ],
      "name": "getJobSkills",
      "outputs": [
        {
          "name": "",
          "type": "uint256"
        }
      ],
      "payable": false,
      "stateMutability": "view",
      "type": "function"
    },
    {
      "constant": false,
      "inputs": [
        {
          "name": "_jobId",
          "type": "uint256"
        },
        {
          "name": "_additionalTime",
          "type": "uint16"
        }
      ],
      "name": "addMoreTime",
      "outputs": [
        {
          "name": "",
          "type": "uint256"
        }
      ],
      "payable": false,
      "stateMutability": "nonpayable",
      "type": "function"
    },
    {
      "constant": false,
      "inputs": [
        {
          "name": "_jobId",
          "type": "uint256"
        },
        {
          "name": "_client",
          "type": "address"
        },
        {
          "name": "_skillsArea",
          "type": "uint256"
        },
        {
          "name": "_skillsCategory",
          "type": "uint256"
        },
        {
          "name": "_skills",
          "type": "uint256"
        },
        {
          "name": "_detailsIPFSHash",
          "type": "bytes32"
        },
        {
          "name": "_bindStatus",
          "type": "bool"
        }
      ],
      "name": "emitJobPosted",
      "outputs": [],
      "payable": false,
      "stateMutability": "nonpayable",
      "type": "function"
    },
    {
      "constant": false,
      "inputs": [
        {
          "name": "_msg",
          "type": "bytes32"
        }
      ],
      "name": "emitError",
      "outputs": [],
      "payable": false,
      "stateMutability": "nonpayable",
      "type": "function"
    },
    {
      "constant": false,
      "inputs": [
        {
          "name": "_userLibrary",
          "type": "address"
        }
      ],
      "name": "setUserLibrary",
      "outputs": [
        {
          "name": "",
          "type": "uint256"
        }
      ],
      "payable": false,
      "stateMutability": "nonpayable",
      "type": "function"
    },
    {
      "constant": false,
      "inputs": [
        {
          "name": "_jobId",
          "type": "uint256"
        },
        {
          "name": "_at",
          "type": "uint256"
        }
      ],
      "name": "emitWorkFinished",
      "outputs": [],
      "payable": false,
      "stateMutability": "nonpayable",
      "type": "function"
    },
    {
      "constant": true,
      "inputs": [],
      "name": "paymentProcessor",
      "outputs": [
        {
          "name": "",
          "type": "address"
        }
      ],
      "payable": false,
      "stateMutability": "view",
      "type": "function"
    },
    {
      "constant": false,
      "inputs": [
        {
          "name": "_jobId",
          "type": "uint256"
        }
      ],
      "name": "pauseWork",
      "outputs": [
        {
          "name": "",
          "type": "uint256"
        }
      ],
      "payable": false,
      "stateMutability": "nonpayable",
      "type": "function"
    },
    {
      "constant": false,
      "inputs": [
        {
          "name": "_jobId",
          "type": "uint256"
        }
      ],
      "name": "resumeWork",
      "outputs": [
        {
          "name": "_resultCode",
          "type": "uint256"
        }
      ],
      "payable": false,
      "stateMutability": "nonpayable",
      "type": "function"
    },
    {
      "constant": true,
      "inputs": [],
      "name": "getEventsHistory",
      "outputs": [
        {
          "name": "",
          "type": "address"
        }
      ],
      "payable": false,
      "stateMutability": "view",
      "type": "function"
    },
    {
      "inputs": [
        {
          "name": "_store",
          "type": "address"
        },
        {
          "name": "_crate",
          "type": "bytes32"
        },
        {
          "name": "_roles2Library",
          "type": "address"
        },
        {
          "name": "_erc20Library",
          "type": "address"
        }
      ],
      "payable": false,
      "stateMutability": "nonpayable",
      "type": "constructor"
    },
    {
      "anonymous": false,
      "inputs": [
        {
          "indexed": true,
          "name": "self",
          "type": "address"
        },
        {
          "indexed": true,
          "name": "jobId",
          "type": "uint256"
        },
        {
          "indexed": false,
          "name": "client",
          "type": "address"
        },
        {
          "indexed": false,
          "name": "skillsArea",
          "type": "uint256"
        },
        {
          "indexed": false,
          "name": "skillsCategory",
          "type": "uint256"
        },
        {
          "indexed": false,
          "name": "skills",
          "type": "uint256"
        },
        {
          "indexed": false,
          "name": "detailsIPFSHash",
          "type": "bytes32"
        },
        {
          "indexed": false,
          "name": "bindStatus",
          "type": "bool"
        }
      ],
      "name": "JobPosted",
      "type": "event"
    },
    {
      "anonymous": false,
      "inputs": [
        {
          "indexed": true,
          "name": "self",
          "type": "address"
        },
        {
          "indexed": true,
          "name": "jobId",
          "type": "uint256"
        },
        {
          "indexed": false,
          "name": "worker",
          "type": "address"
        },
        {
          "indexed": false,
          "name": "rate",
          "type": "uint256"
        },
        {
          "indexed": false,
          "name": "estimate",
          "type": "uint256"
        },
        {
          "indexed": false,
          "name": "ontop",
          "type": "uint256"
        }
      ],
      "name": "JobOfferPosted",
      "type": "event"
    },
    {
      "anonymous": false,
      "inputs": [
        {
          "indexed": true,
          "name": "self",
          "type": "address"
        },
        {
          "indexed": true,
          "name": "jobId",
          "type": "uint256"
        },
        {
          "indexed": false,
          "name": "worker",
          "type": "address"
        }
      ],
      "name": "JobOfferAccepted",
      "type": "event"
    },
    {
      "anonymous": false,
      "inputs": [
        {
          "indexed": true,
          "name": "self",
          "type": "address"
        },
        {
          "indexed": true,
          "name": "jobId",
          "type": "uint256"
        },
        {
          "indexed": false,
          "name": "at",
          "type": "uint256"
        }
      ],
      "name": "WorkStarted",
      "type": "event"
    },
    {
      "anonymous": false,
      "inputs": [
        {
          "indexed": true,
          "name": "self",
          "type": "address"
        },
        {
          "indexed": true,
          "name": "jobId",
          "type": "uint256"
        },
        {
          "indexed": false,
          "name": "time",
          "type": "uint256"
        }
      ],
      "name": "TimeAdded",
      "type": "event"
    },
    {
      "anonymous": false,
      "inputs": [
        {
          "indexed": true,
          "name": "self",
          "type": "address"
        },
        {
          "indexed": true,
          "name": "jobId",
          "type": "uint256"
        },
        {
          "indexed": false,
          "name": "at",
          "type": "uint256"
        }
      ],
      "name": "WorkPaused",
      "type": "event"
    },
    {
      "anonymous": false,
      "inputs": [
        {
          "indexed": true,
          "name": "self",
          "type": "address"
        },
        {
          "indexed": true,
          "name": "jobId",
          "type": "uint256"
        },
        {
          "indexed": false,
          "name": "at",
          "type": "uint256"
        }
      ],
      "name": "WorkResumed",
      "type": "event"
    },
    {
      "anonymous": false,
      "inputs": [
        {
          "indexed": true,
          "name": "self",
          "type": "address"
        },
        {
          "indexed": true,
          "name": "jobId",
          "type": "uint256"
        },
        {
          "indexed": false,
          "name": "at",
          "type": "uint256"
        }
      ],
      "name": "WorkFinished",
      "type": "event"
    },
    {
      "anonymous": false,
      "inputs": [
        {
          "indexed": true,
          "name": "self",
          "type": "address"
        },
        {
          "indexed": true,
          "name": "jobId",
          "type": "uint256"
        }
      ],
      "name": "PaymentReleased",
      "type": "event"
    },
    {
      "anonymous": false,
      "inputs": [
        {
          "indexed": true,
          "name": "self",
          "type": "address"
        },
        {
          "indexed": true,
          "name": "jobId",
          "type": "uint256"
        }
      ],
      "name": "JobCanceled",
      "type": "event"
    },
    {
      "anonymous": false,
      "inputs": [
        {
          "indexed": false,
          "name": "code",
          "type": "address"
        },
        {
          "indexed": false,
          "name": "sender",
          "type": "address"
        },
        {
          "indexed": false,
          "name": "sig",
          "type": "bytes4"
        }
      ],
      "name": "AuthFailedError",
      "type": "event"
    },
    {
      "anonymous": false,
      "inputs": [
        {
          "indexed": true,
          "name": "self",
          "type": "address"
        },
        {
          "indexed": false,
          "name": "msg",
          "type": "bytes32"
        }
      ],
      "name": "Error",
      "type": "event"
    },
    {
      "anonymous": false,
      "inputs": [
        {
          "indexed": true,
          "name": "self",
          "type": "address"
        },
        {
          "indexed": false,
          "name": "errorCode",
          "type": "uint256"
        }
      ],
      "name": "ErrorCode",
      "type": "event"
    }
  ],
  "bytecode": "0x606060405234156200001057600080fd5b60405160808062002d63833981016040528080519190602001805191906020018051919060200180519150829050818186866200005e60008383640100000000620026f8620004fb82021704565b505060038054600160a060020a03928316600160a060020a0319918216179091556004805493909216921691909117905550620000cb60077f6a6f6273436f756e7400000000000000000000000000000000000000000000006401000000006200271e6200052182021704565b6200010660087f6a6f6253746174650000000000000000000000000000000000000000000000006401000000006200272e6200054182021704565b6200014160097f6a6f62436c69656e7400000000000000000000000000000000000000000000006401000000006200272e6200054182021704565b6200017c600a7f6a6f62576f726b657200000000000000000000000000000000000000000000006401000000006200272e6200054182021704565b620001b7600b7f6a6f6244657461696c73495046534861736800000000000000000000000000006401000000006200272e6200054182021704565b620001f2600c7f6a6f62536b696c6c7341726561000000000000000000000000000000000000006401000000006200272e6200054182021704565b6200022d600d7f6a6f62536b696c6c7343617465676f72790000000000000000000000000000006401000000006200272e6200054182021704565b62000268600e7f6a6f62536b696c6c7300000000000000000000000000000000000000000000006401000000006200272e6200054182021704565b620002a3600f7f6a6f62537461727454696d6500000000000000000000000000000000000000006401000000006200272e6200054182021704565b620002de60107f6a6f6246696e69736854696d65000000000000000000000000000000000000006401000000006200272e6200054182021704565b6200031960117f6a6f6250617573656400000000000000000000000000000000000000000000006401000000006200272e6200054182021704565b6200035460127f6a6f6250617573656441740000000000000000000000000000000000000000006401000000006200272e6200054182021704565b6200038f60137f6a6f62506175736564466f7200000000000000000000000000000000000000006401000000006200272e6200054182021704565b620003ca60147f6a6f624f666665724552433230436f6e747261637400000000000000000000006401000000006200272e6200054182021704565b6200040560157f6a6f624f666665725261746500000000000000000000000000000000000000006401000000006200272e6200054182021704565b6200044060167f6a6f624f66666572457374696d617465000000000000000000000000000000006401000000006200272e6200054182021704565b6200047b60177f6a6f624f666665724f6e746f70000000000000000000000000000000000000006401000000006200272e6200054182021704565b620004b660197f6a6f6246696e616c697a656441740000000000000000000000000000000000006401000000006200272e6200054182021704565b620004f160187f62696e64537461747573000000000000000000000000000000000000000000006401000000006200272e6200054182021704565b5050505062000577565b8254600160a060020a031916600160a060020a0392909216919091178255600190910155565b81546200053d90826401000000006200276e6200055f82021704565b9055565b6200055b82826401000000006200271e6200052182021704565b5050565b811515806200056c575080155b156200055b57600080fd5b6127dc80620005876000396000f3006060604052600436106101f55763ffffffff60e060020a60003504166302927d2081146101fa57806303a250f91461022b578063088b0d75146102415780630d9f2817146102605780630e1a9e3f1461027657806314f608811461028c5780631972b464146102be5780631dffa3dc146102eb5780632637cd7d1461030157806332c514d51461032057806336dd20a7146103365780633de035bf1461034c57806342cfd7921461036257806345584c901461038157806353bc1c12146103a0578063596fab6c146103b657806361f30408146103cc57806365aa96bd146103e55780638680e52d146104105780638834277e1461043257806388685cd91461044857806389c29b611461045e578063918d407d1461047457806393361078146104965780639c6e1d46146104ac578063aea1935b146104c2578063b3ec8cb8146104d8578063b633d272146104eb578063b7d8b1d914610504578063c26d0c2c1461051d578063cb56dd7914610536578063d07e9f901461054c578063d64956761461055f578063dce722dd14610575578063e187eaf71461058b578063e270398a146105a8578063e90459f8146105db578063ec2b50bf146105f1578063ef29a7e514610610578063f1c6bdf814610629578063f839dc621461063c578063fd03d76214610652578063fff10aba14610668575b600080fd5b341561020557600080fd5b610219600160a060020a036004351661067b565b60405190815260200160405180910390f35b341561023657600080fd5b61021960043561071f565b341561024c57600080fd5b610219600160a060020a03600435166107ac565b341561026b57600080fd5b61021960043561084c565b341561028157600080fd5b610219600435610866565b341561029757600080fd5b6102a260043561087a565b604051600160a060020a03909116815260200160405180910390f35b34156102c957600080fd5b6102e9600435600160a060020a036024351660443560643560843561088e565b005b34156102f657600080fd5b610219600435610908565b341561030c57600080fd5b610219600160a060020a0360043516610abe565b341561032b57600080fd5b610219600435610b5e565b341561034157600080fd5b6102a2600435610b72565b341561035757600080fd5b610219600435610b86565b341561036d57600080fd5b610219600435602435604435606435610bf6565b341561038c57600080fd5b610219600160a060020a0360043516610d24565b34156103ab57600080fd5b610219600435610dc4565b34156103c157600080fd5b610219600435610dd8565b34156103d757600080fd5b6102e9600435602435610e47565b34156103f057600080fd5b610219600435600160a060020a0360243516604435606435608435610e90565b341561041b57600080fd5b6102e9600435600160a060020a0360243516611023565b341561043d57600080fd5b6102e9600435611076565b341561045357600080fd5b6102196004356110bd565b341561046957600080fd5b61021960043561120d565b341561047f57600080fd5b610219600435600160a060020a03602435166113c0565b34156104a157600080fd5b610219600435611535565b34156104b757600080fd5b6102e96004356115b9565b34156104cd57600080fd5b6102196004356115fa565b34156104e357600080fd5b6102a261167e565b34156104f657600080fd5b6102e960043560243561168d565b341561050f57600080fd5b6102e96004356024356116d6565b341561052857600080fd5b6102e960043560243561171f565b341561054157600080fd5b610219600435611768565b341561055757600080fd5b61021961177c565b341561056a57600080fd5b6102e9600435611794565b341561058057600080fd5b6102196004356117d5565b341561059657600080fd5b61021960043561ffff602435166117e9565b34156105b357600080fd5b6102e9600435600160a060020a036024351660443560643560843560a43560c4351515611875565b34156105e657600080fd5b6102e96004356118f9565b34156105fc57600080fd5b610219600160a060020a0360043516611940565b341561061b57600080fd5b6102e96004356024356119e0565b341561063457600080fd5b6102a2611a29565b341561064757600080fd5b610219600435611a38565b341561065d57600080fd5b610219600435611aee565b341561067357600080fd5b6102a2611b63565b600061069333600035600160e060020a031916611b72565b15156106f6576000805160206127918339815191523033600035600160e060020a031916604051600160a060020a039384168152919092166020820152600160e060020a03199091166040808301919091526060909101905180910390a161071a565b600160a060020a038216151561070b57600080fd5b61071482611c46565b50600190505b919050565b600081600160a060020a03331661073e83600a8463ffffffff611c6a16565b600160a060020a031614610751576107a6565b82600280610768600060088563ffffffff611c6a16565b14610785576107786132cb611c7f565b506132cb60005260206000f35b61079e60088660035b600092919063ffffffff611ce816565b600193505b50505b50919050565b60006107c433600035600160e060020a031916611b72565b1515610827576000805160206127918339815191523033600035600160e060020a031916604051600160a060020a039384168152919092166020820152600160e060020a03199091166040808301919091526060909101905180910390a161071a565b5060058054600160a060020a038316600160a060020a03199091161790556001919050565b600061086081600d8463ffffffff611c6a16565b92915050565b600061086081600c8463ffffffff611c6a16565b60006108608160098463ffffffff611c6a16565b84610897611cfa565b600160a060020a03167fa3bc0f53ddeedcb11a232f5b24300a8fe43af2c2dcc30b46dbc64476e762a186868686866040518085600160a060020a0316600160a060020a0316815260200184815260200183815260200182815260200194505050505060405180910390a35050505050565b600080808084600160a060020a03331661092a8360098463ffffffff611c6a16565b600160a060020a03161461093d57610ab5565b61094686610dc4565b93506002841415801561095a575060038414155b8015610967575060048414155b8015610974575060058414155b1561098b576109846132cb611c7f565b9450610ab5565b6109948661120d565b92506109a96000600a8863ffffffff611c6a16565b600554909250600160a060020a031663a18dda198784866109d3600060098563ffffffff611c6a16565b8860006109ef60148f8c6000611cfe909392919063ffffffff16565b60006040516020015260405160e060020a63ffffffff8a160281526004810197909752600160a060020a03958616602488015260448701949094529184166064860152608485015260a48401521660c482015260e401602060405180830381600087803b1515610a5e57600080fd5b6102c65a03f11515610a6f57600080fd5b505050604051805195505060018514610a8b5761098485611c7f565b610a9a60198761078e89610dc4565b610aa7600887600761078e565b610ab086611d1e565b600194505b50505050919050565b6000610ad633600035600160e060020a031916611b72565b1515610b39576000805160206127918339815191523033600035600160e060020a031916604051600160a060020a039384168152919092166020820152600160e060020a03199091166040808301919091526060909101905180910390a161071a565b5060038054600160a060020a038316600160a060020a03199091161790556001919050565b600061086081600b8463ffffffff611c6a16565b600061086081600a8463ffffffff611c6a16565b600081600160a060020a033316610ba583600a8463ffffffff611c6a16565b600160a060020a031614610bb8576107a6565b82600480610bcf600060088563ffffffff611c6a16565b14610bdf576107786132cb611c7f565b610be885611d7c565b5061079e600886600561078e565b60008085610c0381611e04565b1580610c155750610c1381611e1b565b155b15610c1f57610d1a565b85610c2981611e04565b1580610c3b5750610c3981611e1b565b155b15610c4557610d18565b85801515610c5257610d16565b610c646000600763ffffffff611e4116565b6001019350610c7d60006018868263ffffffff611ea016565b610c90600060078663ffffffff611eb416565b610c9d600885600161078e565b610cb160006009863363ffffffff611f2d16565b610cc56000600c868c63ffffffff611ce816565b610cd96000600d868b63ffffffff611ce816565b610ced6000600e868a63ffffffff611ce816565b610d016000600b868963ffffffff611ce816565b610d1184338b8b8b8b6000611f42565b600194505b505b505b5050949350505050565b6000610d3c33600035600160e060020a031916611b72565b1515610d9f576000805160206127918339815191523033600035600160e060020a031916604051600160a060020a039384168152919092166020820152600160e060020a03199091166040808301919091526060909101905180910390a161071a565b5060048054600160a060020a038316600160a060020a03199091161790556001919050565b60006108608160088463ffffffff611c6a16565b600080610ded81600a8563ffffffff611c6a16565b9050600a610e0560006017868563ffffffff611cfe16565b610e1960006016878663ffffffff611cfe16565b603c01610e3060006015888763ffffffff611cfe16565b0201811515610e3b57fe5b04600b02915050919050565b81610e50611cfa565b600160a060020a03167fd4a20f0b641ef272f167d4b357afcf41234f55e836b7f4c2fe2df4714ac526088360405190815260200160405180910390a35050565b600085600160a060020a033316610eaf8360098463ffffffff611c6a16565b600160a060020a03161415610ec357611019565b86600180610eda600060088563ffffffff611c6a16565b14610eea576107786132cb611c7f565b6004548890600160a060020a0316631aedefda8260006040516020015260405160e060020a63ffffffff8416028152600160a060020a039091166004820152602401602060405180830381600087803b1515610f4557600080fd5b6102c65a03f11515610f5657600080fd5b505050604051805190501515610f72576136b160005260206000f35b610f7d888888611fe3565b1515610f9557610f8e6132c9611c7f565b9450611015565b610f9e8a61204c565b1515610faf57610f8e6132ca611c7f565b610fc4600060148c338d63ffffffff61211216565b610fd9600060158c338c63ffffffff61213216565b610fee600060168c338b63ffffffff61213216565b611003600060178c338a63ffffffff61213216565b6110108a338a8a8a612148565b600194505b5050505b5095945050505050565b8161102c611cfa565b600160a060020a03167fcd1a96dff5c14af15cc6cc02bc309e3abef75468ceced0d0435f20bef5a9db3a83604051600160a060020a03909116815260200160405180910390a35050565b61107e611cfa565b600160a060020a03167f09e0713b45664e161c202b19bb4574ee83dfa056f9bfdee56847b3971d9682218260405190815260200160405180910390a250565b60008080836006806110d8600060088563ffffffff611c6a16565b146110e8576107786132cb611c7f565b6110f18661120d565b93506111066000600a8863ffffffff611c6a16565b600554909350600160a060020a031663a18dda19878587611130600060098563ffffffff611c6a16565b89600061114c60148f8d6000611cfe909392919063ffffffff16565b60006040516020015260405160e060020a63ffffffff8a160281526004810197909752600160a060020a03958616602488015260448701949094529184166064860152608485015260a48401521660c482015260e401602060405180830381600087803b15156111bb57600080fd5b6102c65a03f115156111cc57600080fd5b5050506040518051955050600185146111e85761098485611c7f565b6111f760198761078e89610dc4565b611204600887600761078e565b610ab0866121d6565b60008080808061122581600a8863ffffffff611c6a16565b935061123086610dc4565b925060068314156113515761124f60006016888763ffffffff611cfe16565b603c9081019250611269600060138963ffffffff611c6a16565b61127c6000600f8a63ffffffff611c6a16565b61128f600060108b63ffffffff611c6a16565b030381151561129a57fe5b049050603c811180156112ad5750818111155b156112e4576112c660006017888763ffffffff611cfe16565b6112da60006015898863ffffffff611cfe16565b8202019450610ab5565b8181111561131e5761130060006017888763ffffffff611cfe16565b61131460006015898863ffffffff611cfe16565b8302019450610ab5565b61133260006017888763ffffffff611cfe16565b61134660006015898863ffffffff611cfe16565b603c02019450610ab5565b60048314806113605750600583145b156113985761137960006015888763ffffffff611cfe16565b603c0261139060006017898863ffffffff611cfe16565b019450610ab5565b60028314806113a75750600383145b15610ab55761098460006017888763ffffffff611cfe16565b600082600160a060020a0333166113df8360098463ffffffff611c6a16565b600160a060020a0316146113f25761152e565b83600180611409600060088563ffffffff611c6a16565b14611419576107786132cb611c7f565b61142d60006015888863ffffffff611cfe16565b15156114455761143e6132cc611c7f565b935061152b565b6114596000600a888863ffffffff611f2d16565b600554600160a060020a03166386bd4ef7873361147582610dd8565b611489600060148d8d63ffffffff611cfe16565b60006040516020015260405160e060020a63ffffffff87160281526004810194909452600160a060020a0392831660248501526044840191909152166064820152608401602060405180830381600087803b15156114e657600080fd5b6102c65a03f115156114f757600080fd5b50505060405180519450506001841461150f57600080fd5b61151c600887600261078e565b6115268686612223565b600193505b50505b5092915050565b600081600160a060020a0333166115548360098463ffffffff611c6a16565b600160a060020a031614611567576107a6565b8260038061157e600060088563ffffffff611c6a16565b1461158e576107786132cb611c7f565b61159b600886600461078e565b6115af6000600f874263ffffffff611ce816565b61079e8542612290565b806115c2611cfa565b600160a060020a03167fc81a87bb9e1f6f23054c21dd9959f8aa3b2f86077a49ccac452fadff6731304c60405160405180910390a350565b600081600160a060020a0333166116198360098463ffffffff611c6a16565b600160a060020a03161461162c576107a6565b82600580611643600060088563ffffffff611c6a16565b14611653576107786132cb611c7f565b611660600886600661078e565b61167460006010874263ffffffff611ce816565b61079e85426122e3565b600654600160a060020a031681565b81611696611cfa565b600160a060020a03167f799a32325be3cd39f977d4cc026272cc3dd97d9dd46c5751c7c9900d9f1ffcdf8360405190815260200160405180910390a35050565b816116df611cfa565b600160a060020a03167f63efc44d4747c4669c8be4f317453622684e7daab7cf5772795e6413a40c26dd8360405190815260200160405180910390a35050565b81611728611cfa565b600160a060020a03167f8cd445c80d0841aae8f229eddbed0de5befd5ff6fc2ca0510ee0621f5d6d5bef8360405190815260200160405180910390a35050565b60006108608160198463ffffffff611c6a16565b600061178f81600763ffffffff611e4116565b905090565b8061179d611cfa565b600160a060020a03167fdf20fd1e76bc69d672e4814fafb2c449bba3a5369d8359adf9e05e6fde87b05660405160405180910390a350565b600061086081600e8463ffffffff611c6a16565b600082600160a060020a0333166118088360098463ffffffff611c6a16565b600160a060020a03161461181b5761152e565b83600480611832600060088563ffffffff611c6a16565b14611842576107786132cb611c7f565b61ffff8516151561185257600080fd5b61185c8686612336565b151561186757600080fd5b611526868661ffff16612456565b8661187e611cfa565b600160a060020a03167f6e24f6319f952ae574b3c29eab4ac31223460e18e38fa3d3b4fd8dca48956725888888888888604051600160a060020a03909616865260208601949094526040808601939093526060850191909152608084015290151560a083015260c0909101905180910390a350505050505050565b611901611cfa565b600160a060020a03167fbb8f0c1d8804cd86e7873ec11cb00af945c8c0ebd061a68b28617034803464158260405190815260200160405180910390a250565b600061195833600035600160e060020a031916611b72565b15156119bb576000805160206127918339815191523033600035600160e060020a031916604051600160a060020a039384168152919092166020820152600160e060020a03199091166040808301919091526060909101905180910390a161071a565b5060068054600160a060020a038316600160a060020a03199091161790556001919050565b816119e9611cfa565b600160a060020a03167fca4a8dc0f20a95e32a83e0e73d9c75cbbdd5d691b99484161abb77f788d2f8d98360405190815260200160405180910390a35050565b600554600160a060020a031681565b600081600160a060020a033316611a5783600a8463ffffffff611c6a16565b600160a060020a031614611a6a576107a6565b82600480611a81600060088563ffffffff611c6a16565b14611a91576107786132cb611c7f565b611aa4600060118763ffffffff6124a916565b15611abb57611ab46132cd611c7f565b93506107a3565b611ad06000601187600163ffffffff611ea016565b611ae460006012874263ffffffff611ce816565b61079e85426124be565b600081600160a060020a033316611b0d83600a8463ffffffff611c6a16565b600160a060020a031614611b20576107a6565b82600480611b37600060088563ffffffff611c6a16565b14611b47576107786132cb611c7f565b611b5085611d7c565b9350600184146107a357611ab484611c7f565b600254600160a060020a031690565b600030600160a060020a031683600160a060020a03161415611b9657506001610860565b600354600160a060020a03161515611bb057506000610860565b600354600160a060020a031663b700961384308560006040516020015260405160e060020a63ffffffff8616028152600160a060020a039384166004820152919092166024820152600160e060020a03199091166044820152606401602060405180830381600087803b1515611c2557600080fd5b6102c65a03f11515611c3657600080fd5b5050506040518051949350505050565b60028054600160a060020a038316600160a060020a03199091161790556001919050565b6000611c77848484612511565b949350505050565b6000611c89611b63565b600160a060020a0316638834277e8360405160e060020a63ffffffff84160281526004810191909152602401600060405180830381600087803b1515611cce57600080fd5b6102c65a03f11515611cdf57600080fd5b50929392505050565b611cf4848484846125ab565b50505050565b3390565b6000611d15858585600160a060020a03861661263d565b95945050505050565b611d26611b63565b600160a060020a0316639c6e1d468260405160e060020a63ffffffff84160281526004810191909152602401600060405180830381600087803b1515611d6b57600080fd5b6102c65a03f11515611cf457600080fd5b6000611d908160118463ffffffff6124a916565b1515611d9f57506132ce61071a565b611dde601383611db8600060128363ffffffff611c6a16565b4203611dcd600060138863ffffffff611c6a16565b60009392910163ffffffff611ce816565b611df260006011848263ffffffff611ea016565b611dfc8242612662565b506001919050565b600081158015906108605750506000198101161590565b7faaaaaaaaaaaaaaaaaaaaaaaaaaaaaaaaaaaaaaaaaaaaaaaaaaaaaaaaaaaaaaaa161590565b815460018301548254600092600160a060020a0316916353aa3f5e91846040516020015260405160e060020a63ffffffff851602815260048101929092526024820152604401602060405180830381600087803b1515611c2557600080fd5b611cf4848484611eaf856126b5565b6125ab565b825460018401548354600160a060020a03909216916353e7168b91908460405160e060020a63ffffffff8616028152600481019390935260248301919091526044820152606401600060405180830381600087803b1515611f1457600080fd5b6102c65a03f11515611f2557600080fd5b505050505050565b611cf4848484600160a060020a0385166125ab565b611f4a611b63565b600160a060020a031663e270398a8888888888888860405160e060020a63ffffffff8a160281526004810197909752600160a060020a03909516602487015260448601939093526064850191909152608484015260a4830152151560c482015260e401600060405180830381600087803b1515611fc657600080fd5b6102c65a03f11515611fd757600080fd5b50505050505050505050565b6000808080861580611ff3575085155b156120015760009350612042565b60009250600191505b603c860182116120345750818601828110156120295760009350612042565b91506001018161200a565b82600a86820104600b021193505b5050509392505050565b600654600090600160a060020a0316631e0b8c873361207384600c8763ffffffff611c6a16565b6120866000600d8863ffffffff611c6a16565b6120996000600e8963ffffffff611c6a16565b60006040516020015260405160e060020a63ffffffff8716028152600160a060020a039094166004850152602484019290925260448301526064820152608401602060405180830381600087803b15156120f257600080fd5b6102c65a03f1151561210357600080fd5b50505060405180519392505050565b61212b858585600160a060020a038087169086166126cf565b5050505050565b61212b858585600160a060020a038616856126cf565b612150611b63565b600160a060020a0316631972b464868686868660405160e060020a63ffffffff88160281526004810195909552600160a060020a03909316602485015260448401919091526064830152608482015260a401600060405180830381600087803b15156121bb57600080fd5b6102c65a03f115156121cc57600080fd5b5050505050505050565b6121de611b63565b600160a060020a031663d64956768260405160e060020a63ffffffff84160281526004810191909152602401600060405180830381600087803b1515611d6b57600080fd5b61222b611b63565b600160a060020a0316638680e52d838360405160e060020a63ffffffff85160281526004810192909252600160a060020a03166024820152604401600060405180830381600087803b151561227f57600080fd5b6102c65a03f1151561212b57600080fd5b612298611b63565b600160a060020a031663b7d8b1d9838360405160e060020a63ffffffff851602815260048101929092526024820152604401600060405180830381600087803b151561227f57600080fd5b6122eb611b63565b600160a060020a031663ef29a7e5838360405160e060020a63ffffffff851602815260048101929092526024820152604401600060405180830381600087803b151561227f57600080fd5b60008061234284610dd8565b905061239d60168561235d6000600a8363ffffffff611c6a16565b61ffff871661238b60168a61237b6000600a8363ffffffff611c6a16565b600092919063ffffffff611cfe16565b6000949392910163ffffffff61213216565b600554600160a060020a03166386bd4ef78533846123ba83610dd8565b036123d460148a61237b6000600a8363ffffffff611c6a16565b60006040516020015260405160e060020a63ffffffff87160281526004810194909452600160a060020a0392831660248501526044840191909152166064820152608401602060405180830381600087803b151561243157600080fd5b6102c65a03f1151561244257600080fd5b505050604051805160011495945050505050565b61245e611b63565b600160a060020a03166361f30408838360405160e060020a63ffffffff851602815260048101929092526024820152604401600060405180830381600087803b151561227f57600080fd5b6000611c776124b9858585612511565b6126f3565b6124c6611b63565b600160a060020a031663c26d0c2c838360405160e060020a63ffffffff851602815260048101929092526024820152604401600060405180830381600087803b151561227f57600080fd5b825460018401548354600092600160a060020a0316916337d9d7fc9185604051918252602082015260409081019051809103902060006040516020015260405160e060020a63ffffffff851602815260048101929092526024820152604401602060405180830381600087803b151561258957600080fd5b6102c65a03f1151561259a57600080fd5b505050604051805195945050505050565b835460018501548454600160a060020a039092169163a14ff85791908560405191825260208201526040908101905180910390208460405160e060020a63ffffffff8616028152600481019390935260248301919091526044820152606401600060405180830381600087803b151561262357600080fd5b6102c65a03f1151561263457600080fd5b50505050505050565b6000611d15858585856040519182526020820152604090810190518091039020612511565b61266a611b63565b600160a060020a031663b633d272838360405160e060020a63ffffffff851602815260048101929092526024820152604401600060405180830381600087803b151561227f57600080fd5b6000816126c35760006126c6565b60015b60ff1692915050565b61212b858585856040519182526020820152604090810190518091039020846125ab565b151590565b8254600160a060020a031916600160a060020a0392909216919091178255600190910155565b815461272a908261276e565b9055565b612738828261271e565b5050565b612738828261271e565b612738828261271e565b612738828261271e565b612738828261271e565b612738828261271e565b8115158061277a575080155b1561273857600080fd5b815461272a908261276e56005133a133185f1023427a2e90f18506b27db994977ce0c0faafd514a7dd109ae0a165627a7a72305820b62e4b53c84455945f28bc3badfa63998497b3f7dc56b36eca6b16294df65f8e0029",
  "source": "/**\n * Copyright 20172018, LaborX PTY\n * Licensed under the AGPL Version 3 license.\n */\n\npragma solidity ^0.4.18;\n\n\nimport './adapters/MultiEventsHistoryAdapter.sol';\nimport './adapters/Roles2LibraryAndERC20LibraryAdapter.sol';\nimport './adapters/StorageAdapter.sol';\nimport './base/BitOps.sol';\n\n\ncontract UserLibraryInterface {\n    function hasSkills(address _user, uint _area, uint _category, uint _skills) public view returns (bool);\n}\n\n\ncontract PaymentProcessorInterface {\n    function lockPayment(bytes32 _operationId, address _from, uint _value, address _contract) public returns (uint);\n    function releasePayment(bytes32 _operationId, address _to, uint _value, address _change, uint _feeFromValue, uint _additionalFee, address _contract) public returns (uint);\n}\n\n\ncontract JobController is StorageAdapter, MultiEventsHistoryAdapter, Roles2LibraryAndERC20LibraryAdapter, BitOps {\n\n    uint constant JOB_CONTROLLER_SCOPE = 13000;\n    uint constant JOB_CONTROLLER_INVALID_ESTIMATE = JOB_CONTROLLER_SCOPE + 1;\n    uint constant JOB_CONTROLLER_INVALID_SKILLS = JOB_CONTROLLER_SCOPE + 2;\n    uint constant JOB_CONTROLLER_INVALID_STATE = JOB_CONTROLLER_SCOPE + 3;\n    uint constant JOB_CONTROLLER_WORKER_RATE_NOT_SET = JOB_CONTROLLER_SCOPE + 4;\n    uint constant JOB_CONTROLLER_WORK_IS_ALREADY_PAUSED = JOB_CONTROLLER_SCOPE + 5;\n    uint constant JOB_CONTROLLER_WORK_IS_NOT_PAUSED = JOB_CONTROLLER_SCOPE + 6;\n\n    event JobPosted(address indexed self, uint indexed jobId, address client, uint skillsArea, uint skillsCategory, uint skills, bytes32 detailsIPFSHash, bool bindStatus);\n    event JobOfferPosted(address indexed self, uint indexed jobId, address worker, uint rate, uint estimate, uint ontop);\n    event JobOfferAccepted(address indexed self, uint indexed jobId, address worker);\n    event WorkStarted(address indexed self, uint indexed jobId, uint at);\n    event TimeAdded(address indexed self, uint indexed jobId, uint time);  // Additional `time` in minutes\n    event WorkPaused(address indexed self, uint indexed jobId, uint at);\n    event WorkResumed(address indexed self, uint indexed jobId, uint at);\n    event WorkFinished(address indexed self, uint indexed jobId, uint at);\n    event PaymentReleased(address indexed self, uint indexed jobId);\n    event JobCanceled(address indexed self, uint indexed jobId);\n\n    enum JobState { NOT_SET, CREATED, ACCEPTED, PENDING_START, STARTED, PENDING_FINISH, FINISHED, FINALIZED }\n\n    PaymentProcessorInterface public paymentProcessor;\n    UserLibraryInterface public userLibrary;\n\n    StorageInterface.UInt jobsCount;\n\n    StorageInterface.UIntUIntMapping jobState;\n    StorageInterface.UIntAddressMapping jobClient;  // jobId => jobClient\n    StorageInterface.UIntAddressMapping jobWorker;  // jobId => jobWorker\n    StorageInterface.UIntBytes32Mapping jobDetailsIPFSHash;\n\n    StorageInterface.UIntUIntMapping jobSkillsArea;  // jobId => jobSkillsArea\n    StorageInterface.UIntUIntMapping jobSkillsCategory;  // jobId => jobSkillsCategory\n    StorageInterface.UIntUIntMapping jobSkills;  // jobId => jobSkills\n\n    StorageInterface.UIntUIntMapping jobStartTime;\n    StorageInterface.UIntUIntMapping jobFinishTime;\n    StorageInterface.UIntBoolMapping jobPaused;\n    StorageInterface.UIntUIntMapping jobPausedAt;\n    StorageInterface.UIntUIntMapping jobPausedFor;\n\n    StorageInterface.UIntAddressAddressMapping jobOfferERC20Contract; // Paid with.\n    StorageInterface.UIntAddressUIntMapping jobOfferRate; // Per minute.\n    StorageInterface.UIntAddressUIntMapping jobOfferEstimate; // In minutes.\n    StorageInterface.UIntAddressUIntMapping jobOfferOntop; // Getting to the workplace, etc.\n\n    StorageInterface.UIntBoolMapping bindStatus;\n\n    // At which state job has been marked as FINALIZED\n    StorageInterface.UIntUIntMapping jobFinalizedAt;\n\n    modifier onlyClient(uint _jobId) {\n        if (store.get(jobClient, _jobId) != msg.sender) {\n            return;\n        }\n        _;\n    }\n\n    modifier onlyWorker(uint _jobId) {\n        if (store.get(jobWorker, _jobId) != msg.sender) {\n            return;\n        }\n        _;\n    }\n\n    modifier onlyNotClient(uint _jobId) {\n        if (store.get(jobClient, _jobId) == msg.sender) {\n            return;\n        }\n        _;\n    }\n\n    modifier onlyJobState(uint _jobId, JobState _jobState) {\n        if (store.get(jobState, _jobId) != uint(_jobState)) {\n            _emitErrorCode(JOB_CONTROLLER_INVALID_STATE);\n            assembly {\n                mstore(0, 13003) // JOB_CONTROLLER_INVALID_STATE\n                return(0, 32)\n            }\n        }\n        _;\n    }\n\n    function JobController(\n        Storage _store,\n        bytes32 _crate,\n        address _roles2Library,\n        address _erc20Library\n    )\n    StorageAdapter(_store, _crate)\n    Roles2LibraryAndERC20LibraryAdapter(_roles2Library, _erc20Library)\n    public\n    {\n        jobsCount.init('jobsCount');\n\n        jobState.init('jobState');\n        jobClient.init('jobClient');\n        jobWorker.init('jobWorker');\n        jobDetailsIPFSHash.init('jobDetailsIPFSHash');\n\n        jobSkillsArea.init('jobSkillsArea');\n        jobSkillsCategory.init('jobSkillsCategory');\n        jobSkills.init('jobSkills');\n\n        jobStartTime.init('jobStartTime');\n        jobFinishTime.init('jobFinishTime');\n        jobPaused.init('jobPaused');\n        jobPausedAt.init('jobPausedAt');\n        jobPausedFor.init('jobPausedFor');\n\n        jobOfferERC20Contract.init('jobOfferERC20Contract');\n        jobOfferRate.init('jobOfferRate');\n        jobOfferEstimate.init('jobOfferEstimate');\n        jobOfferOntop.init('jobOfferOntop');\n\n        jobFinalizedAt.init('jobFinalizedAt');\n\n        bindStatus.init('bindStatus');\n    }\n\n    function setupEventsHistory(address _eventsHistory) auth external returns (uint) {\n        require(_eventsHistory != 0x0);\n\n        _setEventsHistory(_eventsHistory);\n        return OK;\n    }\n\n    function setPaymentProcessor(PaymentProcessorInterface _paymentProcessor) auth external returns (uint) {\n        paymentProcessor = _paymentProcessor;\n        return OK;\n    }\n\n    function setUserLibrary(UserLibraryInterface _userLibrary) auth external returns (uint) {\n        userLibrary = _userLibrary;\n        return OK;\n    }\n\n    function calculateLockAmount(uint _jobId) public view returns (uint) {\n        address worker = store.get(jobWorker, _jobId);\n        // Lock additional working hour + 10% of resulting amount\n        return (\n                   (\n                       store.get(jobOfferRate, _jobId, worker) * (60 + store.get(jobOfferEstimate, _jobId, worker)) +\n                       store.get(jobOfferOntop, _jobId, worker)\n                   ) / 10\n               ) * 11;\n    }\n\n    function calculatePaycheck(uint _jobId) public view returns (uint) {\n        address worker = store.get(jobWorker, _jobId);\n        uint _jobState = getJobState(_jobId);\n        if (_jobState == uint(JobState.FINISHED)) {\n            // Means that participants have agreed on job completion,\n            // reward should be calculated depending on worker's time spent.\n            uint maxEstimatedTime = store.get(jobOfferEstimate, _jobId, worker) + 60;\n            uint timeSpent = (store.get(jobFinishTime, _jobId) -\n                              store.get(jobStartTime, _jobId) -\n                              store.get(jobPausedFor, _jobId)) / 60;\n            if (timeSpent > 60 && timeSpent <= maxEstimatedTime) {\n                // Worker was doing the job for more than an hour, but less then\n                // maximum estimated working time. Release money for the time\n                // he has actually worked + \"on top\" expenses.\n                return timeSpent * store.get(jobOfferRate, _jobId, worker) +\n                       store.get(jobOfferOntop, _jobId, worker);\n\n            } else if (timeSpent > maxEstimatedTime) {\n                // Means worker has gone over maximum estimated time and hasnt't\n                // requested more time, which is his personal responsibility, since\n                // we're already giving workers additional working hour from start.\n                // So we release money for maximum estimated working time + \"on top\".\n                return maxEstimatedTime * store.get(jobOfferRate, _jobId, worker) +\n                       store.get(jobOfferOntop, _jobId, worker);\n\n            } else {\n                // Worker has completed the job within just an hour, so we\n                // release money for the minumum 1 working hour + \"on top\".\n                return 60 * store.get(jobOfferRate, _jobId, worker) +\n                       store.get(jobOfferOntop, _jobId, worker);\n            }\n        } else if (\n            _jobState == uint(JobState.STARTED) ||\n            _jobState == uint(JobState.PENDING_FINISH)\n        ) {\n            // Job has been canceled right after start or right before completion,\n            // minimum of 1 working hour + \"on top\" should be released.\n            return store.get(jobOfferOntop, _jobId, worker) +\n                   store.get(jobOfferRate, _jobId, worker) * 60;\n        } else if (\n            _jobState == uint(JobState.ACCEPTED) ||\n            _jobState == uint(JobState.PENDING_START)\n        ) {\n            // Job hasn't even started yet, but has been accepted,\n            // release just worker \"on top\" expenses.\n            return store.get(jobOfferOntop, _jobId, worker);\n        }\n    }\n\n    function postJob(\n        uint _area,\n        uint _category,\n        uint _skills,\n        bytes32 _detailsIPFSHash\n    )\n    singleOddFlag(_area)\n    singleOddFlag(_category)\n    hasFlags(_skills)\n    public\n    returns (uint)\n    {\n        uint jobId = store.get(jobsCount) + 1;\n        store.set(bindStatus, jobId, false);\n        store.set(jobsCount, jobId);\n        store.set(jobState, jobId, uint(JobState.CREATED));\n        store.set(jobClient, jobId, msg.sender);\n        store.set(jobSkillsArea, jobId, _area);\n        store.set(jobSkillsCategory, jobId, _category);\n        store.set(jobSkills, jobId, _skills);\n        store.set(jobDetailsIPFSHash, jobId, _detailsIPFSHash);\n\n        _emitJobPosted(jobId, msg.sender, _area, _category, _skills, _detailsIPFSHash, false);\n        return OK;\n    }\n\n    function postJobOffer(\n        uint _jobId,\n        address _erc20Contract,\n        uint _rate,\n        uint _estimate,\n        uint _ontop\n    )\n    onlyNotClient(_jobId)\n    onlyJobState(_jobId, JobState.CREATED)\n    onlySupportedContract(_erc20Contract)\n    public\n    returns (uint)\n    {\n        if (!_validEstimate(_rate, _estimate, _ontop)) {\n            return _emitErrorCode(JOB_CONTROLLER_INVALID_ESTIMATE);\n        }\n\n        if (!_hasSkillsCheck(_jobId)) {\n            return _emitErrorCode(JOB_CONTROLLER_INVALID_SKILLS);\n        }\n\n        store.set(jobOfferERC20Contract, _jobId, msg.sender, _erc20Contract);\n        store.set(jobOfferRate, _jobId, msg.sender, _rate);\n        store.set(jobOfferEstimate, _jobId, msg.sender, _estimate);\n        store.set(jobOfferOntop, _jobId, msg.sender, _ontop);\n\n        _emitJobOfferPosted(_jobId, msg.sender, _rate, _estimate, _ontop);\n        return OK;\n    }\n\n    function _validEstimate(uint _rate, uint _estimate, uint _ontop) internal pure returns (bool) {\n        if (_rate == 0 || _estimate == 0) {\n            return false;\n        }\n        uint prev = 0;\n        for (uint i = 1; i <= _estimate + 60; i++) {\n            uint curr = prev + _rate;\n            if (curr < prev) {\n                return false;\n            }\n            prev = curr;\n        }\n        return ((prev + _ontop) / 10) * 11 > prev;\n    }\n\n    function _hasSkillsCheck(uint _jobId) internal view returns (bool) {\n        return userLibrary.hasSkills(\n            msg.sender,\n            store.get(jobSkillsArea, _jobId),\n            store.get(jobSkillsCategory, _jobId),\n            store.get(jobSkills, _jobId)\n        );\n    }\n\n    function acceptOffer(\n        uint _jobId,\n        address _worker\n    )\n    onlyClient(_jobId)\n    onlyJobState(_jobId, JobState.CREATED)\n    external\n    returns (uint _resultCode)\n    {\n        if (store.get(jobOfferRate, _jobId, _worker) == 0) {\n            return _emitErrorCode(JOB_CONTROLLER_WORKER_RATE_NOT_SET);\n        }\n\n        // Maybe incentivize by locking some money from worker?\n        store.set(jobWorker, _jobId, _worker);\n\n        _resultCode = paymentProcessor.lockPayment(\n            bytes32(_jobId),\n            msg.sender,\n            calculateLockAmount(_jobId),\n            store.get(jobOfferERC20Contract, _jobId, _worker)\n        );\n        if (_resultCode != OK) {\n            revert();\n        }\n\n        store.set(jobState, _jobId, uint(JobState.ACCEPTED));\n\n        _emitJobOfferAccepted(_jobId, _worker);\n        return OK;\n    }\n\n    function startWork(\n        uint _jobId\n    )\n    onlyWorker(_jobId)\n    onlyJobState(_jobId, JobState.ACCEPTED)\n    external\n    returns (uint)\n    {\n        store.set(jobState, _jobId, uint(JobState.PENDING_START));\n        return OK;\n    }\n\n    function confirmStartWork(\n        uint _jobId\n    )\n    onlyClient(_jobId)\n    onlyJobState(_jobId, JobState.PENDING_START)\n    external\n    returns (uint)\n    {\n        store.set(jobState, _jobId, uint(JobState.STARTED));\n        store.set(jobStartTime, _jobId, now);\n\n        _emitWorkStarted(_jobId, now);\n        return OK;\n    }\n\n    function pauseWork(\n        uint _jobId\n    )\n    onlyWorker(_jobId)\n    onlyJobState(_jobId, JobState.STARTED)\n    external\n    returns (uint)\n    {\n        if (store.get(jobPaused, _jobId)) {\n            return _emitErrorCode(JOB_CONTROLLER_WORK_IS_ALREADY_PAUSED);\n        }\n\n        store.set(jobPaused, _jobId, true);\n        store.set(jobPausedAt, _jobId, now);\n\n        _emitWorkPaused(_jobId, now);\n        return OK;\n    }\n\n    function resumeWork(\n        uint _jobId\n    )\n    onlyWorker(_jobId)\n    onlyJobState(_jobId, JobState.STARTED)\n    external\n    returns (uint _resultCode)\n    {\n        _resultCode = _resumeWork(_jobId);\n        if (_resultCode != OK) {\n            return _emitErrorCode(_resultCode);\n        }\n    }\n\n    function _resumeWork(uint _jobId) internal returns (uint) {\n        if (!store.get(jobPaused, _jobId)) {\n            return JOB_CONTROLLER_WORK_IS_NOT_PAUSED;\n        }\n        store.set(jobPausedFor, _jobId, store.get(jobPausedFor, _jobId) + (now - store.get(jobPausedAt, _jobId)));\n        store.set(jobPaused, _jobId, false);\n\n        _emitWorkResumed(_jobId, now);\n        return OK;\n    }\n\n    function addMoreTime(\n        uint _jobId,\n        uint16 _additionalTime\n    )\n    onlyClient(_jobId)\n    onlyJobState(_jobId, JobState.STARTED)\n    external\n    returns (uint)\n    {\n        require(_additionalTime != 0);\n\n        if (!_setNewEstimate(_jobId, _additionalTime)) {\n            revert();\n        }\n        _emitTimeAdded(_jobId, _additionalTime);\n        return OK;\n    }\n\n    function _setNewEstimate(uint _jobId, uint16 _additionalTime) internal returns (bool) {\n        uint jobPaymentLocked = calculateLockAmount(_jobId);\n        store.set(\n            jobOfferEstimate,\n            _jobId,\n            store.get(jobWorker, _jobId),\n            store.get(jobOfferEstimate, _jobId, store.get(jobWorker, _jobId)) + _additionalTime\n        );\n        return OK == paymentProcessor.lockPayment(\n            bytes32(_jobId),\n            msg.sender,\n            calculateLockAmount(_jobId) - jobPaymentLocked,\n            store.get(jobOfferERC20Contract, _jobId, store.get(jobWorker, _jobId))\n        );\n    }\n\n    function endWork(\n        uint _jobId\n    )\n    onlyWorker(_jobId)\n    onlyJobState(_jobId, JobState.STARTED)\n    external\n    returns (uint)\n    {\n        _resumeWork(_jobId);  // In case worker have forgotten about paused timer\n        store.set(jobState, _jobId, uint(JobState.PENDING_FINISH));\n        return OK;\n    }\n\n    function confirmEndWork(\n        uint _jobId\n    )\n    onlyClient(_jobId)\n    onlyJobState(_jobId, JobState.PENDING_FINISH)\n    external\n    returns (uint)\n    {\n        store.set(jobState, _jobId, uint(JobState.FINISHED));\n        store.set(jobFinishTime, _jobId, now);\n\n        _emitWorkFinished(_jobId, now);\n        return OK;\n    }\n\n    function cancelJob(\n        uint _jobId\n    )\n    onlyClient(_jobId)\n    external\n    returns (uint _resultCode)\n    {\n        uint _jobState = getJobState(_jobId);\n        if (\n            _jobState != uint(JobState.ACCEPTED) &&\n            _jobState != uint(JobState.PENDING_START) &&\n            _jobState != uint(JobState.STARTED) &&\n            _jobState != uint(JobState.PENDING_FINISH)\n        ) {\n            return _emitErrorCode(JOB_CONTROLLER_INVALID_STATE);\n        }\n\n        uint payCheck = calculatePaycheck(_jobId);\n        address worker = store.get(jobWorker, _jobId);\n\n        _resultCode = paymentProcessor.releasePayment(\n            bytes32(_jobId),\n            worker,\n            payCheck,\n            store.get(jobClient, _jobId),\n            payCheck,\n            0,\n            store.get(jobOfferERC20Contract, _jobId, worker)\n        );\n        if (_resultCode != OK) {\n            return _emitErrorCode(_resultCode);\n        }\n\n        store.set(jobFinalizedAt, _jobId, getJobState(_jobId));\n        store.set(jobState, _jobId, uint(JobState.FINALIZED));\n\n        _emitJobCanceled(_jobId);\n        return OK;\n    }\n\n    function releasePayment(\n        uint _jobId\n    )\n    onlyJobState(_jobId, JobState.FINISHED)\n    public\n    returns (uint _resultCode)\n    {\n        uint payCheck = calculatePaycheck(_jobId);\n        address worker = store.get(jobWorker, _jobId);\n\n        _resultCode = paymentProcessor.releasePayment(\n            bytes32(_jobId),\n            worker,\n            payCheck,\n            store.get(jobClient, _jobId),\n            payCheck,\n            0,\n            store.get(jobOfferERC20Contract, _jobId, worker)\n        );\n        if (_resultCode != OK) {\n            return _emitErrorCode(_resultCode);\n        }\n\n        store.set(jobFinalizedAt, _jobId, getJobState(_jobId));\n        store.set(jobState, _jobId, uint(JobState.FINALIZED));\n\n        _emitPaymentReleased(_jobId);\n        return OK;\n    }\n\n    function getJobsCount() public view returns (uint) {\n        return store.get(jobsCount);\n    }\n\n    function getJobClient(uint _jobId) public view returns (address) {\n        return store.get(jobClient, _jobId);\n    }\n\n    function getJobWorker(uint _jobId) public view returns (address) {\n        return store.get(jobWorker, _jobId);\n    }\n\n    function getJobSkillsArea(uint _jobId) public view returns (uint) {\n        return store.get(jobSkillsArea, _jobId);\n    }\n\n    function getJobSkillsCategory(uint _jobId) public view returns (uint) {\n        return store.get(jobSkillsCategory, _jobId);\n    }\n\n    function getJobSkills(uint _jobId) public view returns (uint) {\n        return store.get(jobSkills, _jobId);\n    }\n\n    function getJobDetailsIPFSHash(uint _jobId) public view returns (bytes32) {\n        return store.get(jobDetailsIPFSHash, _jobId);\n    }\n\n    function getJobState(uint _jobId) public view returns (uint) {\n        return uint(store.get(jobState, _jobId));\n    }\n\n    function getFinalState(uint _jobId) public view returns (uint) {\n        return store.get(jobFinalizedAt, _jobId);\n    }\n\n    function emitJobPosted(\n        uint _jobId,\n        address _client,\n        uint _skillsArea,\n        uint _skillsCategory,\n        uint _skills,\n        bytes32 _detailsIPFSHash,\n        bool _bindStatus\n    )\n    public\n    {\n        JobPosted(_self(), _jobId, _client, _skillsArea, _skillsCategory, _skills, _detailsIPFSHash, _bindStatus);\n    }\n\n    function emitJobOfferPosted(uint _jobId, address _worker, uint _rate, uint _estimate, uint _ontop) public {\n        JobOfferPosted(_self(), _jobId, _worker, _rate, _estimate, _ontop);\n    }\n\n    function emitJobOfferAccepted(uint _jobId, address _worker) public {\n        JobOfferAccepted(_self(), _jobId, _worker);\n    }\n\n    function emitWorkStarted(uint _jobId, uint _at) public {\n        WorkStarted(_self(), _jobId, _at);\n    }\n\n    function emitWorkPaused(uint _jobId, uint _at) public {\n        WorkPaused(_self(), _jobId, _at);\n    }\n\n    function emitWorkResumed(uint _jobId, uint _at) public {\n        WorkResumed(_self(), _jobId, _at);\n    }\n\n    function emitTimeAdded(uint _jobId, uint _time) public {\n        TimeAdded(_self(), _jobId, _time);\n    }\n\n    function emitWorkFinished(uint _jobId, uint _at) public {\n        WorkFinished(_self(), _jobId, _at);\n    }\n\n    function emitPaymentReleased(uint _jobId) public {\n        PaymentReleased(_self(), _jobId);\n    }\n\n    function emitJobCanceled(uint _jobId) public {\n        JobCanceled(_self(), _jobId);\n    }\n\n    function _emitJobPosted(\n        uint _jobId,\n        address _client,\n        uint _skillsArea,\n        uint _skillsCategory,\n        uint _skills,\n        bytes32 _detailsIPFSHash,\n        bool _bindStatus\n    )\n    internal\n    {\n        JobController(getEventsHistory()).emitJobPosted(\n            _jobId,\n            _client,\n            _skillsArea,\n            _skillsCategory,\n            _skills,\n            _detailsIPFSHash,\n            _bindStatus\n        );\n    }\n\n    function _emitJobOfferPosted(\n        uint _jobId,\n        address _worker,\n        uint _rate,\n        uint _estimate,\n        uint _ontop\n    )\n    internal\n    {\n        JobController(getEventsHistory()).emitJobOfferPosted(\n            _jobId,\n            _worker,\n            _rate,\n            _estimate,\n            _ontop\n        );\n    }\n\n    function _emitJobOfferAccepted(uint _jobId, address _worker) internal {\n        JobController(getEventsHistory()).emitJobOfferAccepted(_jobId, _worker);\n    }\n\n    function _emitWorkStarted(uint _jobId, uint _at) internal {\n        JobController(getEventsHistory()).emitWorkStarted(_jobId, _at);\n    }\n\n    function _emitWorkPaused(uint _jobId, uint _at) internal {\n        JobController(getEventsHistory()).emitWorkPaused(_jobId, _at);\n    }\n\n    function _emitWorkResumed(uint _jobId, uint _at) internal {\n        JobController(getEventsHistory()).emitWorkResumed(_jobId, _at);\n    }\n\n    function _emitTimeAdded(uint _jobId, uint _time) internal {\n        JobController(getEventsHistory()).emitTimeAdded(_jobId, _time);\n    }\n\n    function _emitWorkFinished(uint _jobId, uint _at) internal {\n        JobController(getEventsHistory()).emitWorkFinished(_jobId, _at);\n    }\n\n    function _emitPaymentReleased(uint _jobId) internal {\n        JobController(getEventsHistory()).emitPaymentReleased(_jobId);\n    }\n\n    function _emitJobCanceled(uint _jobId) internal {\n        JobController(getEventsHistory()).emitJobCanceled(_jobId);\n    }\n}\n",
  "sourcePath": "/Users/ahiatsevich/Development/chronobank/LX-SC/contracts/JobController.sol",
  "compiler": {
    "name": "solc",
    "version": "0.4.19+commit.c4cbbb05.Emscripten.clang"
  },
  "schemaVersion": "2.0.0",
  "updatedAt": "2018-05-16T09:14:41.812Z"
}