{
  "contractName": "JobController",
  "abi": [
    {
      "constant": false,
      "inputs": [
        {
          "name": "_roles2Library",
          "type": "address"
        }
      ],
      "name": "setRoles2Library",
      "outputs": [
        {
          "name": "",
          "type": "uint256"
        }
      ],
      "payable": false,
      "stateMutability": "nonpayable",
      "type": "function"
    },
    {
      "constant": false,
      "inputs": [
        {
          "name": "_errorCode",
          "type": "uint256"
        }
      ],
      "name": "emitErrorCode",
      "outputs": [],
      "payable": false,
      "stateMutability": "nonpayable",
      "type": "function"
    },
    {
      "constant": true,
      "inputs": [],
      "name": "userLibrary",
      "outputs": [
        {
          "name": "",
          "type": "address"
        }
      ],
      "payable": false,
      "stateMutability": "view",
      "type": "function"
    },
    {
      "constant": false,
      "inputs": [
        {
          "name": "_msg",
          "type": "bytes32"
        }
      ],
      "name": "emitError",
      "outputs": [],
      "payable": false,
      "stateMutability": "nonpayable",
      "type": "function"
    },
    {
      "constant": true,
      "inputs": [],
      "name": "paymentProcessor",
      "outputs": [
        {
          "name": "",
          "type": "address"
        }
      ],
      "payable": false,
      "stateMutability": "view",
      "type": "function"
    },
    {
      "constant": true,
      "inputs": [],
      "name": "getEventsHistory",
      "outputs": [
        {
          "name": "",
          "type": "address"
        }
      ],
      "payable": false,
      "stateMutability": "view",
      "type": "function"
    },
    {
      "inputs": [
        {
          "name": "_store",
          "type": "address"
        },
        {
          "name": "_crate",
          "type": "bytes32"
        },
        {
          "name": "_roles2Library",
          "type": "address"
        }
      ],
      "payable": false,
      "stateMutability": "nonpayable",
      "type": "constructor"
    },
    {
      "anonymous": false,
      "inputs": [
        {
          "indexed": true,
          "name": "self",
          "type": "address"
        },
        {
          "indexed": true,
          "name": "jobId",
          "type": "uint256"
        },
        {
          "indexed": false,
          "name": "flowType",
          "type": "bytes32"
        },
        {
          "indexed": false,
          "name": "client",
          "type": "address"
        },
        {
          "indexed": false,
          "name": "skillsArea",
          "type": "uint256"
        },
        {
          "indexed": false,
          "name": "skillsCategory",
          "type": "uint256"
        },
        {
          "indexed": false,
          "name": "skills",
          "type": "uint256"
        },
        {
          "indexed": false,
          "name": "defaultPay",
          "type": "uint256"
        },
        {
          "indexed": false,
          "name": "detailsIPFSHash",
          "type": "bytes32"
        },
        {
          "indexed": false,
          "name": "bindStatus",
          "type": "bool"
        }
      ],
      "name": "JobPosted",
      "type": "event"
    },
    {
      "anonymous": false,
      "inputs": [
        {
          "indexed": true,
          "name": "self",
          "type": "address"
        },
        {
          "indexed": true,
          "name": "jobId",
          "type": "uint256"
        },
        {
          "indexed": false,
          "name": "worker",
          "type": "address"
        },
        {
          "indexed": false,
          "name": "rate",
          "type": "uint256"
        },
        {
          "indexed": false,
          "name": "estimate",
          "type": "uint256"
        },
        {
          "indexed": false,
          "name": "ontop",
          "type": "uint256"
        }
      ],
      "name": "JobOfferPosted",
      "type": "event"
    },
    {
      "anonymous": false,
      "inputs": [
        {
          "indexed": true,
          "name": "self",
          "type": "address"
        },
        {
          "indexed": true,
          "name": "jobId",
          "type": "uint256"
        },
        {
          "indexed": false,
          "name": "worker",
          "type": "address"
        },
        {
          "indexed": false,
          "name": "price",
          "type": "uint256"
        }
      ],
      "name": "JobOfferPosted",
      "type": "event"
    },
    {
      "anonymous": false,
      "inputs": [
        {
          "indexed": true,
          "name": "self",
          "type": "address"
        },
        {
          "indexed": true,
          "name": "jobId",
          "type": "uint256"
        },
        {
          "indexed": false,
          "name": "worker",
          "type": "address"
        }
      ],
      "name": "JobOfferAccepted",
      "type": "event"
    },
    {
      "anonymous": false,
      "inputs": [
        {
          "indexed": true,
          "name": "self",
          "type": "address"
        },
        {
          "indexed": true,
          "name": "jobId",
          "type": "uint256"
        },
        {
          "indexed": false,
          "name": "at",
          "type": "uint256"
        }
      ],
      "name": "WorkStarted",
      "type": "event"
    },
    {
      "anonymous": false,
      "inputs": [
        {
          "indexed": true,
          "name": "self",
          "type": "address"
        },
        {
          "indexed": true,
          "name": "jobId",
          "type": "uint256"
        },
        {
          "indexed": false,
          "name": "time",
          "type": "uint256"
        }
      ],
      "name": "TimeAdded",
      "type": "event"
    },
    {
      "anonymous": false,
      "inputs": [
        {
          "indexed": true,
          "name": "self",
          "type": "address"
        },
        {
          "indexed": true,
          "name": "jobId",
          "type": "uint256"
        },
        {
          "indexed": false,
          "name": "at",
          "type": "uint256"
        }
      ],
      "name": "WorkPaused",
      "type": "event"
    },
    {
      "anonymous": false,
      "inputs": [
        {
          "indexed": true,
          "name": "self",
          "type": "address"
        },
        {
          "indexed": true,
          "name": "jobId",
          "type": "uint256"
        },
        {
          "indexed": false,
          "name": "at",
          "type": "uint256"
        }
      ],
      "name": "WorkResumed",
      "type": "event"
    },
    {
      "anonymous": false,
      "inputs": [
        {
          "indexed": true,
          "name": "self",
          "type": "address"
        },
        {
          "indexed": true,
          "name": "jobId",
          "type": "uint256"
        },
        {
          "indexed": false,
          "name": "at",
          "type": "uint256"
        }
      ],
      "name": "WorkFinished",
      "type": "event"
    },
    {
      "anonymous": false,
      "inputs": [
        {
          "indexed": true,
          "name": "self",
          "type": "address"
        },
        {
          "indexed": true,
          "name": "jobId",
          "type": "uint256"
        },
        {
          "indexed": false,
          "name": "at",
          "type": "uint256"
        }
      ],
      "name": "WorkAccepted",
      "type": "event"
    },
    {
      "anonymous": false,
      "inputs": [
        {
          "indexed": true,
          "name": "self",
          "type": "address"
        },
        {
          "indexed": true,
          "name": "jobId",
          "type": "uint256"
        },
        {
          "indexed": false,
          "name": "at",
          "type": "uint256"
        }
      ],
      "name": "WorkRejected",
      "type": "event"
    },
    {
      "anonymous": false,
      "inputs": [
        {
          "indexed": true,
          "name": "self",
          "type": "address"
        },
        {
          "indexed": true,
          "name": "jobId",
          "type": "uint256"
        },
        {
          "indexed": false,
          "name": "at",
          "type": "uint256"
        }
      ],
      "name": "WorkDisputeResolved",
      "type": "event"
    },
    {
      "anonymous": false,
      "inputs": [
        {
          "indexed": true,
          "name": "self",
          "type": "address"
        },
        {
          "indexed": true,
          "name": "jobId",
          "type": "uint256"
        }
      ],
      "name": "PaymentReleased",
      "type": "event"
    },
    {
      "anonymous": false,
      "inputs": [
        {
          "indexed": true,
          "name": "self",
          "type": "address"
        },
        {
          "indexed": true,
          "name": "jobId",
          "type": "uint256"
        }
      ],
      "name": "JobCanceled",
      "type": "event"
    },
    {
      "anonymous": false,
      "inputs": [
        {
          "indexed": false,
          "name": "code",
          "type": "address"
        },
        {
          "indexed": false,
          "name": "sender",
          "type": "address"
        },
        {
          "indexed": false,
          "name": "sig",
          "type": "bytes4"
        }
      ],
      "name": "AuthFailedError",
      "type": "event"
    },
    {
      "anonymous": false,
      "inputs": [
        {
          "indexed": true,
          "name": "self",
          "type": "address"
        },
        {
          "indexed": false,
          "name": "msg",
          "type": "bytes32"
        }
      ],
      "name": "Error",
      "type": "event"
    },
    {
      "anonymous": false,
      "inputs": [
        {
          "indexed": true,
          "name": "self",
          "type": "address"
        },
        {
          "indexed": false,
          "name": "errorCode",
          "type": "uint256"
        }
      ],
      "name": "ErrorCode",
      "type": "event"
    },
    {
      "constant": false,
      "inputs": [],
      "name": "init",
      "outputs": [
        {
          "name": "",
          "type": "uint256"
        }
      ],
      "payable": false,
      "stateMutability": "nonpayable",
      "type": "function"
    },
    {
      "constant": false,
      "inputs": [
        {
          "name": "_eventsHistory",
          "type": "address"
        }
      ],
      "name": "setupEventsHistory",
      "outputs": [
        {
          "name": "",
          "type": "uint256"
        }
      ],
      "payable": false,
      "stateMutability": "nonpayable",
      "type": "function"
    },
    {
      "constant": false,
      "inputs": [
        {
          "name": "_boardController",
          "type": "address"
        }
      ],
      "name": "setBoardController",
      "outputs": [
        {
          "name": "",
          "type": "uint256"
        }
      ],
      "payable": false,
      "stateMutability": "nonpayable",
      "type": "function"
    },
    {
      "constant": false,
      "inputs": [
        {
          "name": "_paymentProcessor",
          "type": "address"
        }
      ],
      "name": "setPaymentProcessor",
      "outputs": [
        {
          "name": "",
          "type": "uint256"
        }
      ],
      "payable": false,
      "stateMutability": "nonpayable",
      "type": "function"
    },
    {
      "constant": false,
      "inputs": [
        {
          "name": "_userLibrary",
          "type": "address"
        }
      ],
      "name": "setUserLibrary",
      "outputs": [
        {
          "name": "",
          "type": "uint256"
        }
      ],
      "payable": false,
      "stateMutability": "nonpayable",
      "type": "function"
    },
    {
      "constant": true,
      "inputs": [
        {
          "name": "worker",
          "type": "address"
        },
        {
          "name": "_jobId",
          "type": "uint256"
        },
        {
          "name": "_time",
          "type": "uint256"
        },
        {
          "name": "_onTop",
          "type": "uint256"
        }
      ],
      "name": "calculateLock",
      "outputs": [
        {
          "name": "",
          "type": "uint256"
        }
      ],
      "payable": false,
      "stateMutability": "view",
      "type": "function"
    },
    {
      "constant": true,
      "inputs": [
        {
          "name": "_jobId",
          "type": "uint256"
        }
      ],
      "name": "calculateLockAmount",
      "outputs": [
        {
          "name": "",
          "type": "uint256"
        }
      ],
      "payable": false,
      "stateMutability": "view",
      "type": "function"
    },
    {
      "constant": true,
      "inputs": [
        {
          "name": "worker",
          "type": "address"
        },
        {
          "name": "_jobId",
          "type": "uint256"
        }
      ],
      "name": "calculateLockAmountFor",
      "outputs": [
        {
          "name": "",
          "type": "uint256"
        }
      ],
      "payable": false,
      "stateMutability": "view",
      "type": "function"
    },
    {
      "constant": true,
      "inputs": [
        {
          "name": "_jobId",
          "type": "uint256"
        }
      ],
      "name": "calculatePaycheck",
      "outputs": [
        {
          "name": "",
          "type": "uint256"
        }
      ],
      "payable": false,
      "stateMutability": "view",
      "type": "function"
    },
    {
      "constant": false,
      "inputs": [
        {
          "name": "_flowType",
          "type": "uint256"
        },
        {
          "name": "_area",
          "type": "uint256"
        },
        {
          "name": "_category",
          "type": "uint256"
        },
        {
          "name": "_skills",
          "type": "uint256"
        },
        {
          "name": "_defaultPay",
          "type": "uint256"
        },
        {
          "name": "_detailsIPFSHash",
          "type": "bytes32"
        }
      ],
      "name": "postJob",
      "outputs": [
        {
          "name": "",
          "type": "uint256"
        }
      ],
      "payable": false,
      "stateMutability": "nonpayable",
      "type": "function"
    },
    {
      "constant": false,
      "inputs": [
        {
          "name": "_jobId",
          "type": "uint256"
        },
        {
          "name": "_rate",
          "type": "uint256"
        },
        {
          "name": "_estimate",
          "type": "uint256"
        },
        {
          "name": "_ontop",
          "type": "uint256"
        }
      ],
      "name": "postJobOffer",
      "outputs": [
        {
          "name": "",
          "type": "uint256"
        }
      ],
      "payable": false,
      "stateMutability": "nonpayable",
      "type": "function"
    },
    {
      "constant": false,
      "inputs": [
        {
          "name": "_jobId",
          "type": "uint256"
        },
        {
          "name": "_price",
          "type": "uint256"
        }
      ],
      "name": "postJobOfferWithPrice",
      "outputs": [
        {
          "name": "",
          "type": "uint256"
        }
      ],
      "payable": false,
      "stateMutability": "nonpayable",
      "type": "function"
    },
    {
      "constant": false,
      "inputs": [
        {
          "name": "_jobId",
          "type": "uint256"
        },
        {
          "name": "_worker",
          "type": "address"
        }
      ],
      "name": "acceptOffer",
      "outputs": [
        {
          "name": "_resultCode",
          "type": "uint256"
        }
      ],
      "payable": true,
      "stateMutability": "payable",
      "type": "function"
    },
    {
      "constant": false,
      "inputs": [
        {
          "name": "_jobId",
          "type": "uint256"
        }
      ],
      "name": "startWork",
      "outputs": [
        {
          "name": "",
          "type": "uint256"
        }
      ],
      "payable": false,
      "stateMutability": "nonpayable",
      "type": "function"
    },
    {
      "constant": false,
      "inputs": [
        {
          "name": "_jobId",
          "type": "uint256"
        }
      ],
      "name": "confirmStartWork",
      "outputs": [
        {
          "name": "",
          "type": "uint256"
        }
      ],
      "payable": false,
      "stateMutability": "nonpayable",
      "type": "function"
    },
    {
      "constant": false,
      "inputs": [
        {
          "name": "_jobId",
          "type": "uint256"
        }
      ],
      "name": "pauseWork",
      "outputs": [
        {
          "name": "",
          "type": "uint256"
        }
      ],
      "payable": false,
      "stateMutability": "nonpayable",
      "type": "function"
    },
    {
      "constant": false,
      "inputs": [
        {
          "name": "_jobId",
          "type": "uint256"
        }
      ],
      "name": "resumeWork",
      "outputs": [
        {
          "name": "_resultCode",
          "type": "uint256"
        }
      ],
      "payable": false,
      "stateMutability": "nonpayable",
      "type": "function"
    },
    {
      "constant": false,
      "inputs": [
        {
          "name": "_jobId",
          "type": "uint256"
        },
        {
          "name": "_additionalTime",
          "type": "uint16"
        }
      ],
      "name": "addMoreTime",
      "outputs": [
        {
          "name": "",
          "type": "uint256"
        }
      ],
      "payable": true,
      "stateMutability": "payable",
      "type": "function"
    },
    {
      "constant": false,
      "inputs": [
        {
          "name": "_jobId",
          "type": "uint256"
        }
      ],
      "name": "endWork",
      "outputs": [
        {
          "name": "",
          "type": "uint256"
        }
      ],
      "payable": false,
      "stateMutability": "nonpayable",
      "type": "function"
    },
    {
      "constant": false,
      "inputs": [
        {
          "name": "_jobId",
          "type": "uint256"
        }
      ],
      "name": "confirmEndWork",
      "outputs": [
        {
          "name": "",
          "type": "uint256"
        }
      ],
      "payable": false,
      "stateMutability": "nonpayable",
      "type": "function"
    },
    {
      "constant": false,
      "inputs": [
        {
          "name": "_jobId",
          "type": "uint256"
        }
      ],
      "name": "cancelJob",
      "outputs": [
        {
          "name": "_resultCode",
          "type": "uint256"
        }
      ],
      "payable": false,
      "stateMutability": "nonpayable",
      "type": "function"
    },
    {
      "constant": false,
      "inputs": [
        {
          "name": "_jobId",
          "type": "uint256"
        }
      ],
      "name": "acceptWorkResults",
      "outputs": [
        {
          "name": "",
          "type": "uint256"
        }
      ],
      "payable": false,
      "stateMutability": "nonpayable",
      "type": "function"
    },
    {
      "constant": false,
      "inputs": [
        {
          "name": "_jobId",
          "type": "uint256"
        }
      ],
      "name": "rejectWorkResults",
      "outputs": [
        {
          "name": "_resultCode",
          "type": "uint256"
        }
      ],
      "payable": false,
      "stateMutability": "nonpayable",
      "type": "function"
    },
    {
      "constant": false,
      "inputs": [
        {
          "name": "_jobId",
          "type": "uint256"
        },
        {
          "name": "_workerPaycheck",
          "type": "uint256"
        },
        {
          "name": "_penaltyFee",
          "type": "uint256"
        }
      ],
      "name": "resolveWorkDispute",
      "outputs": [
        {
          "name": "_resultCode",
          "type": "uint256"
        }
      ],
      "payable": false,
      "stateMutability": "nonpayable",
      "type": "function"
    },
    {
      "constant": false,
      "inputs": [
        {
          "name": "_jobId",
          "type": "uint256"
        }
      ],
      "name": "releasePayment",
      "outputs": [
        {
          "name": "_resultCode",
          "type": "uint256"
        }
      ],
      "payable": false,
      "stateMutability": "nonpayable",
      "type": "function"
    },
    {
      "constant": false,
      "inputs": [
        {
          "name": "_jobId",
          "type": "uint256"
        },
        {
          "name": "_flowType",
          "type": "uint256"
        },
        {
          "name": "_client",
          "type": "address"
        },
        {
          "name": "_skillsArea",
          "type": "uint256"
        },
        {
          "name": "_skillsCategory",
          "type": "uint256"
        },
        {
          "name": "_skills",
          "type": "uint256"
        },
        {
          "name": "_defaultPay",
          "type": "uint256"
        },
        {
          "name": "_detailsIPFSHash",
          "type": "bytes32"
        },
        {
          "name": "_bindStatus",
          "type": "bool"
        }
      ],
      "name": "emitJobPosted",
      "outputs": [],
      "payable": false,
      "stateMutability": "nonpayable",
      "type": "function"
    },
    {
      "constant": false,
      "inputs": [
        {
          "name": "_jobId",
          "type": "uint256"
        },
        {
          "name": "_worker",
          "type": "address"
        },
        {
          "name": "_rate",
          "type": "uint256"
        },
        {
          "name": "_estimate",
          "type": "uint256"
        },
        {
          "name": "_ontop",
          "type": "uint256"
        }
      ],
      "name": "emitJobOfferPosted",
      "outputs": [],
      "payable": false,
      "stateMutability": "nonpayable",
      "type": "function"
    },
    {
      "constant": false,
      "inputs": [
        {
          "name": "_jobId",
          "type": "uint256"
        },
        {
          "name": "_worker",
          "type": "address"
        },
        {
          "name": "_price",
          "type": "uint256"
        }
      ],
      "name": "emitJobOfferPosted",
      "outputs": [],
      "payable": false,
      "stateMutability": "nonpayable",
      "type": "function"
    },
    {
      "constant": false,
      "inputs": [
        {
          "name": "_jobId",
          "type": "uint256"
        },
        {
          "name": "_worker",
          "type": "address"
        }
      ],
      "name": "emitJobOfferAccepted",
      "outputs": [],
      "payable": false,
      "stateMutability": "nonpayable",
      "type": "function"
    },
    {
      "constant": false,
      "inputs": [
        {
          "name": "_jobId",
          "type": "uint256"
        },
        {
          "name": "_at",
          "type": "uint256"
        }
      ],
      "name": "emitWorkStarted",
      "outputs": [],
      "payable": false,
      "stateMutability": "nonpayable",
      "type": "function"
    },
    {
      "constant": false,
      "inputs": [
        {
          "name": "_jobId",
          "type": "uint256"
        },
        {
          "name": "_at",
          "type": "uint256"
        }
      ],
      "name": "emitWorkPaused",
      "outputs": [],
      "payable": false,
      "stateMutability": "nonpayable",
      "type": "function"
    },
    {
      "constant": false,
      "inputs": [
        {
          "name": "_jobId",
          "type": "uint256"
        },
        {
          "name": "_at",
          "type": "uint256"
        }
      ],
      "name": "emitWorkResumed",
      "outputs": [],
      "payable": false,
      "stateMutability": "nonpayable",
      "type": "function"
    },
    {
      "constant": false,
      "inputs": [
        {
          "name": "_jobId",
          "type": "uint256"
        },
        {
          "name": "_time",
          "type": "uint256"
        }
      ],
      "name": "emitTimeAdded",
      "outputs": [],
      "payable": false,
      "stateMutability": "nonpayable",
      "type": "function"
    },
    {
      "constant": false,
      "inputs": [
        {
          "name": "_jobId",
          "type": "uint256"
        },
        {
          "name": "_at",
          "type": "uint256"
        }
      ],
      "name": "emitWorkFinished",
      "outputs": [],
      "payable": false,
      "stateMutability": "nonpayable",
      "type": "function"
    },
    {
      "constant": false,
      "inputs": [
        {
          "name": "_jobId",
          "type": "uint256"
        },
        {
          "name": "_at",
          "type": "uint256"
        }
      ],
      "name": "emitWorkAccepted",
      "outputs": [],
      "payable": false,
      "stateMutability": "nonpayable",
      "type": "function"
    },
    {
      "constant": false,
      "inputs": [
        {
          "name": "_jobId",
          "type": "uint256"
        },
        {
          "name": "_at",
          "type": "uint256"
        }
      ],
      "name": "emitWorkRejected",
      "outputs": [],
      "payable": false,
      "stateMutability": "nonpayable",
      "type": "function"
    },
    {
      "constant": false,
      "inputs": [
        {
          "name": "_jobId",
          "type": "uint256"
        },
        {
          "name": "_at",
          "type": "uint256"
        }
      ],
      "name": "emitWorkDistputeResolved",
      "outputs": [],
      "payable": false,
      "stateMutability": "nonpayable",
      "type": "function"
    },
    {
      "constant": false,
      "inputs": [
        {
          "name": "_jobId",
          "type": "uint256"
        }
      ],
      "name": "emitPaymentReleased",
      "outputs": [],
      "payable": false,
      "stateMutability": "nonpayable",
      "type": "function"
    },
    {
      "constant": false,
      "inputs": [
        {
          "name": "_jobId",
          "type": "uint256"
        }
      ],
      "name": "emitJobCanceled",
      "outputs": [],
      "payable": false,
      "stateMutability": "nonpayable",
      "type": "function"
    }
  ],
  "bytecode": "0x606060405234156200001057600080fd5b6040516060806200405b833981016040528080519190602001805191906020018051915081905083838181620000576000838364010000000062003f206200008682021704565b505060278054600160a060020a031916600160a060020a03949094169390931790925550620000ac9350505050565b8254600160a060020a031916600160a060020a0392909216919091178255600190910155565b613f9f80620000bc6000396000f30060606040526004361061020b5763ffffffff60e060020a60003504166302927d20811461021057806303a250f9146102415780630419d0e414610257578063088b0d75146102795780630a3d1ca4146102985780631972b464146102b35780631c62f853146102de5780631dffa3dc146103035780632637cd7d146103195780632caef765146103385780633de035bf14610357578063425654821461036d57806358b5f92a146103a7578063596fab6c146103c657806361f30408146103dc5780638680e52d146103f55780638834277e1461041757806388685cd91461042d57806389c29b61146104435780638db210dc146104595780638dfa95f414610472578063918d407d1461048b57806393361078146104a25780639c6e1d46146104b8578063aea1935b146104ce578063b3ec8cb8146104e4578063b44ccd3c14610513578063b633d2721461052f578063b7d8b1d914610548578063c04944f114610561578063c26d0c2c14610589578063c540fbb5146105a2578063d6495676146105b8578063d906be6e146105ce578063e187eaf7146105e4578063e1c7392a146105f6578063e90459f814610609578063ec2b50bf1461061f578063eca527671461063e578063ef29a7e514610663578063f1c6bdf81461067c578063f737acff1461068f578063f839dc62146106a8578063fd03d762146106be578063fff10aba146106d4575b600080fd5b341561021b57600080fd5b61022f600160a060020a03600435166106e7565b60405190815260200160405180910390f35b341561024c57600080fd5b61022f60043561078b565b341561026257600080fd5b61022f600160a060020a0360043516602435610828565b341561028457600080fd5b61022f600160a060020a03600435166108bd565b34156102a357600080fd5b6102b160043560243561096a565b005b34156102be57600080fd5b6102b1600435600160a060020a03602435166044356064356084356109b3565b34156102e957600080fd5b61022f60043560243560443560643560843560a435610a2d565b341561030e57600080fd5b61022f600435610bdd565b341561032457600080fd5b61022f600160a060020a0360043516610e00565b341561034357600080fd5b61022f600160a060020a0360043516610ead565b341561036257600080fd5b61022f600435610f43565b341561037857600080fd5b6102b1600435602435600160a060020a036044351660643560843560a43560c43560e435610104351515610fff565b34156103b257600080fd5b61022f600435602435604435606435611092565b34156103d157600080fd5b61022f6004356111bc565b34156103e757600080fd5b6102b16004356024356111e4565b341561040057600080fd5b6102b1600435600160a060020a036024351661122d565b341561042257600080fd5b6102b1600435611280565b341561043857600080fd5b61022f6004356112c7565b341561044e57600080fd5b61022f60043561147f565b341561046457600080fd5b6102b16004356024356114cf565b341561047d57600080fd5b6102b1600435602435611518565b61022f600435600160a060020a0360243516611561565b34156104ad57600080fd5b61022f600435611739565b34156104c357600080fd5b6102b1600435611839565b34156104d957600080fd5b61022f60043561187a565b34156104ef57600080fd5b6104f761197a565b604051600160a060020a03909116815260200160405180910390f35b341561051e57600080fd5b61022f600435602435604435611989565b341561053a57600080fd5b6102b1600435602435611c91565b341561055357600080fd5b6102b1600435602435611cda565b341561056c57600080fd5b61022f600160a060020a0360043516602435604435606435611d23565b341561059457600080fd5b6102b1600435602435611d50565b34156105ad57600080fd5b61022f600435611d99565b34156105c357600080fd5b6102b1600435611e99565b34156105d957600080fd5b61022f600435611eda565b61022f60043561ffff60243516611fda565b341561060157600080fd5b61022f61211b565b341561061457600080fd5b6102b16004356121a4565b341561062a57600080fd5b61022f600160a060020a03600435166121eb565b341561064957600080fd5b6102b1600435600160a060020a0360243516604435612298565b341561066e57600080fd5b6102b16004356024356122f3565b341561068757600080fd5b6104f761233c565b341561069a57600080fd5b61022f60043560243561234b565b34156106b357600080fd5b61022f6004356124a0565b34156106c957600080fd5b61022f6004356125dd565b34156106df57600080fd5b6104f7612674565b60006106ff33600035600160e060020a031916612683565b151561076257600080516020613f548339815191523033600035600160e060020a031916604051600160a060020a039384168152919092166020820152600160e060020a03199091166040808301919091526060909101905180910390a1610786565b600160a060020a038216151561077757600080fd5b6107808261274c565b50600190505b919050565b600081600160a060020a0333166107aa8360078463ffffffff61277d16565b600160a060020a0316146107bd57610822565b826002806107d4600060058563ffffffff61277d16565b146107f1576107e46132cb612792565b506132cb60005260206000f35b6108056000600e874263ffffffff6127f716565b61081a6000600587600463ffffffff6127f716565b600193505b50505b50919050565b6000808061083e8160158663ffffffff61277d16565b915061084b826001612809565b1561088f5761086460006019868863ffffffff61280f16565b9050610888858561087f60006018838563ffffffff61280f16565b603c0184611d23565b92506108b5565b61089a826002612809565b156108b35761088860006017868863ffffffff61280f16565bfe5b505092915050565b60006108d533600035600160e060020a031916612683565b151561093857600080516020613f548339815191523033600035600160e060020a031916604051600160a060020a039384168152919092166020820152600160e060020a03199091166040808301919091526060909101905180910390a1610786565b5060288054600160a060020a03831673ffffffffffffffffffffffffffffffffffffffff199091161790556001919050565b8161097361282f565b600160a060020a03167fe5358c187d063c360e67321606a0a2dd8d7fe426d9aa68bb9e853fcf2851d9388360405190815260200160405180910390a35050565b846109bc61282f565b600160a060020a03167fa3bc0f53ddeedcb11a232f5b24300a8fe43af2c2dcc30b46dbc64476e762a186868686866040518085600160a060020a0316600160a060020a0316815260200184815260200183815260200182815260200194505050505060405180910390a35050505050565b60008087610a3a81612833565b1515610a4c576132cf60005260206000f35b87610a56816128cc565b1580610a685750610a66816128e3565b155b15610a7257610bd0565b87610a7c816128cc565b1580610a8e5750610a8c816128e3565b155b15610a9857610bce565b87801515610aa557610bcc565b610ab76000600463ffffffff61290916565b6001019450610ad060006024878263ffffffff61296016565b610ae3600060048763ffffffff61296c16565b610af76000600c874263ffffffff6127f716565b610b0c6000600587600163ffffffff6127f716565b610b2060006015878f63ffffffff6127f716565b610b3460006006873363ffffffff6129e116565b610b4860006009878e63ffffffff6127f716565b610b5c6000600a878d63ffffffff6127f716565b610b706000600b878c63ffffffff6127f716565b610b8460006016878b63ffffffff6127f716565b610b9860006008878a63ffffffff6127f716565b610bb56000601a600160a060020a0333168863ffffffff6129f616565b610bc7858d338e8e8e8e8e6000612a02565b600195505b505b505b5050509695505050505050565b60008080808085600160a060020a033316610c008360068463ffffffff61277d16565b600160a060020a031614610c1357610df6565b866001610c32610c2c600060158563ffffffff61277d16565b82612809565b1515610c44576132cf60005260206000f35b610c4d89612ab2565b9650610c62600060158b63ffffffff61277d16565b9550610c6e8688612ac6565b1515610c8657610c7f6132cb612792565b9750610df3565b610c8f8961147f565b9450610ca4600060078b63ffffffff61277d16565b602854909450600160a060020a03166355f0b76e8a8688610cce600060068563ffffffff61277d16565b8a600060405160e060020a63ffffffff89160281526004810196909652600160a060020a039485166024870152604486019390935292166064840152608483019190915260a482015260c401602060405180830381600087803b1515610d3357600080fd5b5af11515610d4057600080fd5b505050604051805198505060018814610d5c57610c7f88612792565b610d7b60258a610d6b8c612ab2565b600092919063ffffffff6127f716565b610d91600060058b61010063ffffffff6127f716565b610d99612674565b600160a060020a0316639c6e1d468a60405160e060020a63ffffffff84160281526004810191909152602401600060405180830381600087803b1515610dde57600080fd5b5af11515610deb57600080fd5b505050600197505b50505b5050505050919050565b6000610e1833600035600160e060020a031916612683565b1515610e7b57600080516020613f548339815191523033600035600160e060020a031916604051600160a060020a039384168152919092166020820152600160e060020a03199091166040808301919091526060909101905180910390a1610786565b5060278054600160a060020a03831673ffffffffffffffffffffffffffffffffffffffff199091161790556001919050565b6000610ec533600035600160e060020a031916612683565b1515610f2857600080516020613f548339815191523033600035600160e060020a031916604051600160a060020a039384168152919092166020820152600160e060020a03199091166040808301919091526060909101905180910390a1610786565b610f3b600060028463ffffffff612b2516565b506001919050565b600081600160a060020a033316610f628360078463ffffffff61277d16565b600160a060020a031614610f7557610822565b82600080610f8b8160158563ffffffff61277d16565b9150610fa0600060058563ffffffff61277d16565b9050610fac8282612b8e565b1515610fbe576132cb60005260206000f35b610fc786612bda565b50610fdc60006010884263ffffffff6127f716565b610ff16000600588601063ffffffff6127f716565b600194505b50505050919050565b8861100861282f565b600160a060020a03167ebe90d46e792dd8139c7fa5fc3c5094a4617b29079275876030fafdfd99790a8a8a8a8a8a8a8a8a604051978852600160a060020a0390961660208801526040808801959095526060870193909352608086019190915260a085015260c084015290151560e0830152610100909101905180910390a3505050505050505050565b600084600160a060020a0333166110b18360068463ffffffff61277d16565b600160a060020a031614156110c5576111b3565b8560016110de610c2c600060158563ffffffff61277d16565b15156110f0576132cf60005260206000f35b87600180611107600060058563ffffffff61277d16565b14611117576107e46132cb612792565b611122898989612cbb565b151561113a576111336132c9612792565b95506111ae565b6111438a612d23565b1515611154576111336132ca612792565b611169600060178c338d63ffffffff612ddc16565b61117e600060188c338c63ffffffff612ddc16565b611193600060198c338b63ffffffff612ddc16565b61119c8a612df9565b6111a98a338b8b8b612e42565b600195505b505050505b50949350505050565b6000806111d18160078563ffffffff61277d16565b90506111dd8184610828565b9392505050565b816111ed61282f565b600160a060020a03167fd4a20f0b641ef272f167d4b357afcf41234f55e836b7f4c2fe2df4714ac526088360405190815260200160405180910390a35050565b8161123661282f565b600160a060020a03167fcd1a96dff5c14af15cc6cc02bc309e3abef75468ceced0d0435f20bef5a9db3a83604051600160a060020a03909116815260200160405180910390a35050565b61128861282f565b600160a060020a03167f09e0713b45664e161c202b19bb4574ee83dfa056f9bfdee56847b3971d9682218260405190815260200160405180910390a250565b600080808381806112e08160158563ffffffff61277d16565b91506112f5600060058563ffffffff61277d16565b90506113018282612ecc565b1515611313576132cb60005260206000f35b61131c8761147f565b9450611331600060078963ffffffff61277d16565b602854909450600160a060020a03166355f0b76e88868861135b600060068563ffffffff61277d16565b8a600060405160e060020a63ffffffff89160281526004810196909652600160a060020a039485166024870152604486019390935292166064840152608483019190915260a482015260c401602060405180830381600087803b15156113c057600080fd5b5af115156113cd57600080fd5b5050506040518051965050600186146113f0576113e986612792565b9550610df6565b6113ff602588610d6b8a612ab2565b611415600060058961010063ffffffff6127f716565b61141d612674565b600160a060020a031663d64956768860405160e060020a63ffffffff84160281526004810191909152602401600060405180830381600087803b151561146257600080fd5b5af1151561146f57600080fd5b5060019998505050505050505050565b6000806114948160158563ffffffff61277d16565b90506114a1816001612809565b156114b6576114af83612f5f565b9150610822565b6114c1816002612809565b156108b3576114af836131a6565b816114d861282f565b600160a060020a03167fd3395eea11df9ed3451acb381c8e8220231eaa3b2ebc7c2cd1e1ab6302f3314f8360405190815260200160405180910390a35050565b8161152161282f565b600160a060020a03167f572dddcf2d7a6a168606d76d97cac3799945fdd877c6710aa9f283fcd8a428668360405190815260200160405180910390a35050565b600082600160a060020a0333166115808360068463ffffffff61277d16565b600160a060020a03161461159357611732565b836001806115aa600060058563ffffffff61277d16565b146115ba576107e46132cb612792565b6115ce60006017888863ffffffff61280f16565b15156115e6576115df6132cc612792565b935061172f565b6115fa60006007888863ffffffff6129e116565b611603866111bc565b341461160e57600080fd5b602854600160a060020a031663decfd51b34883360405160e060020a63ffffffff86160281526004810192909252600160a060020a031660248201526044016020604051808303818588803b151561166557600080fd5b5af1151561167257600080fd5b5050505060405180519450506001841461168b57600080fd5b61169f6000600d884263ffffffff6127f716565b6116b46000600588600263ffffffff6127f716565b6116be86866131f0565b6116c6612674565b600160a060020a0316638680e52d878760405160e060020a63ffffffff85160281526004810192909252600160a060020a03166024820152604401600060405180830381600087803b151561171a57600080fd5b5af1151561172757600080fd5b505050600193505b50505b5092915050565b600081600160a060020a0333166117588360068463ffffffff61277d16565b600160a060020a03161461176b57610822565b826001611784610c2c600060158563ffffffff61277d16565b1515611796576132cf60005260206000f35b846004806117ad600060058563ffffffff61277d16565b146117bd576107e46132cb612792565b6117d26000600589600863ffffffff6127f716565b6117e66000600f894263ffffffff6127f716565b6117ee612674565b600160a060020a031663b7d8b1d9884260405160e060020a63ffffffff851602815260048101929092526024820152604401600060405180830381600087803b151561146257600080fd5b8061184261282f565b600160a060020a03167fc81a87bb9e1f6f23054c21dd9959f8aa3b2f86077a49ccac452fadff6731304c60405160405180910390a350565b600081600160a060020a0333166118998360068463ffffffff61277d16565b600160a060020a0316146118ac57610822565b8260016118c5610c2c600060158563ffffffff61277d16565b15156118d7576132cf60005260206000f35b846010806118ee600060058563ffffffff61277d16565b146118fe576107e46132cb612792565b61191260006011894263ffffffff6127f716565b6119276000600589602063ffffffff6127f716565b61192f612674565b600160a060020a031663ef29a7e5884260405160e060020a63ffffffff851602815260048101929092526024820152604401600060405180830381600087803b151561146257600080fd5b602954600160a060020a031681565b6000806000806119a533600035600160e060020a031916612683565b1515611a0857600080516020613f548339815191523033600035600160e060020a031916604051600160a060020a039384168152919092166020820152600160e060020a03199091166040808301919091526060909101905180910390a1611c87565b866002611a21610c2c600060158563ffffffff61277d16565b1515611a33576132cf60005260206000f35b88608080611a4a600060058563ffffffff61277d16565b14611a5a576107e46132cb612792565b611a6d600060078d63ffffffff61277d16565b9650611a83600060178d8a63ffffffff61280f16565b9550611a98600060068d63ffffffff61277d16565b945060008a1115611b5257602854600160a060020a03166355f0b76e8c898d8960008f60405160e060020a63ffffffff89160281526004810196909652600160a060020a039485166024870152604486019390935292166064840152608483019190915260a482015260c401602060405180830381600087803b1515611b1d57600080fd5b5af11515611b2a57600080fd5b505050604051805198505060018814611b4d57611b4688612792565b9750611c82565b611bf5565b602854600160a060020a03166355f0b76e8c87898160008f60405160e060020a63ffffffff89160281526004810196909652600160a060020a039485166024870152604486019390935292166064840152608483019190915260a482015260c401602060405180830381600087803b1515611bcc57600080fd5b5af11515611bd957600080fd5b505050604051805198505060018814611bf557611b4688612792565b611c0460258c610d6b8e612ab2565b611c1a600060058d61010063ffffffff6127f716565b611c22612674565b600160a060020a0316638dfa95f48c4260405160e060020a63ffffffff851602815260048101929092526024820152604401600060405180830381600087803b1515611c6d57600080fd5b5af11515611c7a57600080fd5b505050600197505b505050505b5050509392505050565b81611c9a61282f565b600160a060020a03167f799a32325be3cd39f977d4cc026272cc3dd97d9dd46c5751c7c9900d9f1ffcdf8360405190815260200160405180910390a35050565b81611ce361282f565b600160a060020a03167f63efc44d4747c4669c8be4f317453622684e7daab7cf5772795e6413a40c26dd8360405190815260200160405180910390a35050565b600080611d39816017878963ffffffff61280f16565b9050600a600b858302850102049695505050505050565b81611d5961282f565b600160a060020a03167f8cd445c80d0841aae8f229eddbed0de5befd5ff6fc2ca0510ee0621f5d6d5bef8360405190815260200160405180910390a35050565b600081600160a060020a033316611db88360068463ffffffff61277d16565b600160a060020a031614611dcb57610822565b826002611de4610c2c600060158563ffffffff61277d16565b1515611df6576132cf60005260206000f35b84601080611e0d600060058563ffffffff61277d16565b14611e1d576107e46132cb612792565b611e3160006011894263ffffffff6127f716565b611e466000600589604063ffffffff6127f716565b611e4e612674565b600160a060020a0316630a3d1ca4884260405160e060020a63ffffffff851602815260048101929092526024820152604401600060405180830381600087803b151561146257600080fd5b80611ea261282f565b600160a060020a03167fdf20fd1e76bc69d672e4814fafb2c449bba3a5369d8359adf9e05e6fde87b05660405160405180910390a350565b600081600160a060020a033316611ef98360068463ffffffff61277d16565b600160a060020a031614611f0c57610822565b826002611f25610c2c600060158563ffffffff61277d16565b1515611f37576132cf60005260206000f35b84601080611f4e600060058563ffffffff61277d16565b14611f5e576107e46132cb612792565b611f7260006011894263ffffffff6127f716565b611f876000600589608063ffffffff6127f716565b611f8f612674565b600160a060020a0316638db210dc884260405160e060020a63ffffffff851602815260048101929092526024820152604401600060405180830381600087803b151561146257600080fd5b600082600160a060020a033316611ff98360068463ffffffff61277d16565b600160a060020a03161461200c57611732565b836001612025610c2c600060158563ffffffff61277d16565b1515612037576132cf60005260206000f35b8560008061204d8160158563ffffffff61277d16565b9150612062600060058563ffffffff61277d16565b905061206e8282612b8e565b1515612080576132cb60005260206000f35b61ffff8816151561209057600080fd5b61209a8989613266565b15156120a557600080fd5b6120ad612674565b600160a060020a03166361f304088a8a60405160e060020a63ffffffff8516028152600481019290925261ffff166024820152604401600060405180830381600087803b15156120fc57600080fd5b5af1151561210957600080fd5b5060019b9a5050505050505050505050565b600061213333600035600160e060020a031916612683565b151561219657600080516020613f548339815191523033600035600160e060020a031916604051600160a060020a039384168152919092166020820152600160e060020a03199091166040808301919091526060909101905180910390a16121a1565b61219e61335c565b90505b90565b6121ac61282f565b600160a060020a03167fbb8f0c1d8804cd86e7873ec11cb00af945c8c0ebd061a68b28617034803464158260405190815260200160405180910390a250565b600061220333600035600160e060020a031916612683565b151561226657600080516020613f548339815191523033600035600160e060020a031916604051600160a060020a039384168152919092166020820152600160e060020a03199091166040808301919091526060909101905180910390a1610786565b5060298054600160a060020a03831673ffffffffffffffffffffffffffffffffffffffff199091161790556001919050565b826122a161282f565b600160a060020a03167f271fcf1e587075053a24de13909c1c666d6b58fae99f299cfbc3fb1696bc2c1a8484604051600160a060020a03909216825260208201526040908101905180910390a3505050565b816122fc61282f565b600160a060020a03167fca4a8dc0f20a95e32a83e0e73d9c75cbbdd5d691b99484161abb77f788d2f8d98360405190815260200160405180910390a35050565b602854600160a060020a031681565b600082600160a060020a03331661236a8360068463ffffffff61277d16565b600160a060020a0316141561237e57611732565b836002612397610c2c600060158563ffffffff61277d16565b15156123a9576132cf60005260206000f35b856001806123c0600060058563ffffffff61277d16565b146123d0576107e46132cb612792565b600087116123dd57600080fd5b6123e688612d23565b15156123fe576123f76132ca612792565b9550612495565b612413600060178a338b63ffffffff612ddc16565b61241c88612df9565b612424612674565b600160a060020a031663eca5276789338a60405160e060020a63ffffffff86160281526004810193909352600160a060020a0390911660248301526044820152606401600060405180830381600087803b151561248057600080fd5b5af1151561248d57600080fd5b505050600195505b505050505092915050565b600081600160a060020a0333166124bf8360078463ffffffff61277d16565b600160a060020a0316146124d257610822565b826000806124e88160158563ffffffff61277d16565b91506124fd600060058563ffffffff61277d16565b90506125098282612b8e565b151561251b576132cb60005260206000f35b61252e600060128863ffffffff61392216565b156125455761253e6132cd612792565b9450610ff6565b61255a6000601288600163ffffffff61296016565b61256e60006013884263ffffffff6127f716565b612576612674565b600160a060020a031663c26d0c2c874260405160e060020a63ffffffff851602815260048101929092526024820152604401600060405180830381600087803b15156125c157600080fd5b5af115156125ce57600080fd5b50600198975050505050505050565b600081600160a060020a0333166125fc8360078463ffffffff61277d16565b600160a060020a03161461260f57610822565b826000806126258160158563ffffffff61277d16565b915061263a600060058563ffffffff61277d16565b90506126468282612b8e565b1515612658576132cb60005260206000f35b61266186612bda565b945060018514610ff65761253e85612792565b602654600160a060020a031690565b600030600160a060020a031683600160a060020a031614156126a757506001612746565b602754600160a060020a031615156126c157506000612746565b602754600160a060020a031663b700961384308560405160e060020a63ffffffff8616028152600160a060020a039384166004820152919092166024820152600160e060020a03199091166044820152606401602060405180830381600087803b151561272d57600080fd5b5af1151561273a57600080fd5b50505060405180519150505b92915050565b60268054600160a060020a03831673ffffffffffffffffffffffffffffffffffffffff199091161790556001919050565b600061278a84848461392f565b949350505050565b600061279c612674565b600160a060020a0316638834277e8360405160e060020a63ffffffff84160281526004810191909152602401600060405180830381600087803b15156127e157600080fd5b5af115156127ee57600080fd5b50929392505050565b612803848484846139bc565b50505050565b16151590565b6000612826858585600160a060020a038616613a4a565b95945050505050565b3390565b60007f7fffffffffffffffffffffffffffffffffffffffffffffffffffffffffffffff821660ff60020a831682612869836128cc565b8015612876575060028311155b1515612885576000935061081f565b82600114801561289e575061289e60ff60020a83613a6f565b806128ba57508260021480156128ba57506128ba600083613a6f565b905080151561081a576000935061081f565b600081158015906127465750506000198101161590565b7faaaaaaaaaaaaaaaaaaaaaaaaaaaaaaaaaaaaaaaaaaaaaaaaaaaaaaaaaaaaaaaa161590565b815460018301548254600092600160a060020a0316916353aa3f5e9160405160e060020a63ffffffff851602815260048101929092526024820152604401602060405180830381600087803b151561272d57600080fd5b61280384848484613a76565b825460018401548354600160a060020a03909216916353e7168b91908460405160e060020a63ffffffff8616028152600481019390935260248301919091526044820152606401600060405180830381600087803b15156129cc57600080fd5b5af115156129d957600080fd5b505050505050565b612803848484600160a060020a0385166139bc565b61280384848484613af0565b612a0a612674565b600160a060020a031663425654828a8a8a8a8a8a8a8a8a60405160e060020a63ffffffff8c1602815260048101999099526024890197909752600160a060020a0390951660448801526064870193909352608486019190915260a485015260c484015260e4830152151561010482015261012401600060405180830381600087803b1515612a9757600080fd5b5af11515612aa457600080fd5b505050505050505050505050565b60006127468160058463ffffffff61277d16565b6000806002831415612adb5760019150611732565b6004831415612aed5760019150611732565b6008831415612aff5760019150611732565b5060ff60020a8316158015908190612b175750601083145b156117325760019150611732565b825460018401548354600160a060020a03909216916379a7cfee91908460405160e060020a63ffffffff861602815260048101939093526024830191909152600160a060020a03166044820152606401600060405180830381600087803b15156129cc57600080fd5b600060ff60020a8316158015908190612ba75750600883145b15612bb55760019150611732565b80158015612b1757506004831480612b17575060088314156117325760019150611732565b6000612bee8160128463ffffffff61392216565b1515612bfd57506132ce610786565b612c1160006012848263ffffffff61296016565b612c50601483612c2a600060138363ffffffff61277d16565b4203612c3f600060148863ffffffff61277d16565b60009392910163ffffffff6127f716565b612c58612674565b600160a060020a031663b633d272834260405160e060020a63ffffffff851602815260048101929092526024820152604401600060405180830381600087803b1515612ca357600080fd5b5af11515612cb057600080fd5b506001949350505050565b6000808080861580612ccb575085155b15612cd95760009350611c87565b60009250600191505b603c86018211612d0c575081860182811015612d015760009350611c87565b915060010181612ce2565b82600a86820104600b021193505050509392505050565b602954600090600160a060020a0316631e0b8c8733612d4a8460098763ffffffff61277d16565b612d5d6000600a8863ffffffff61277d16565b612d706000600b8963ffffffff61277d16565b60405160e060020a63ffffffff8716028152600160a060020a039094166004850152602484019290925260448301526064820152608401602060405180830381600087803b1515612dc057600080fd5b5af11515612dcd57600080fd5b50505060405180519392505050565b612df2858585600160a060020a03861685613afc565b5050505050565b612e166000601d600160a060020a0333168463ffffffff6129f616565b612e2a60006020833363ffffffff613b2016565b612e3f6000602383334263ffffffff612ddc16565b50565b612e4a612674565b600160a060020a0316631972b464868686868660405160e060020a63ffffffff88160281526004810195909552600160a060020a03909316602485015260448401919091526064830152608482015260a401600060405180830381600087803b1515612eb557600080fd5b5af11515612ec257600080fd5b5050505050505050565b600060ff60020a831615157f7fffffffffffffffffffffffffffffffffffffffffffffffffffffffffffffff84166001811415612f4457818015612f105750602084145b15612f1e57600192506108b5565b81158015612f3657506010841480612f365750602084145b15612f4457600192506108b5565b60028114156108b55760408414156108b557600192506108b5565b6000808080808080612f798160078a63ffffffff61277d16565b9550612f8488612ab2565b9450612f99600060158a63ffffffff61277d16565b935060ff60020a841615159250612fb08486612ecc565b1561310557612fc9600060188a8963ffffffff61280f16565b603c9081019250612fe3600060148b63ffffffff61277d16565b8461300057612ffb6000600e8c63ffffffff61277d16565b613013565b6130136000600f8c63ffffffff61277d16565b856130305761302b600060108d63ffffffff61277d16565b613043565b613043600060118d63ffffffff61277d16565b030381151561304e57fe5b049050603c811180156130615750818111155b156130985761307a600060198a8963ffffffff61280f16565b61308e600060178b8a63ffffffff61280f16565b820201965061319b565b818111156130d2576130b4600060198a8963ffffffff61280f16565b6130c8600060178b8a63ffffffff61280f16565b830201965061319b565b6130e6600060198a8963ffffffff61280f16565b6130fa600060178b8a63ffffffff61280f16565b603c0201965061319b565b600885148061311d57508215801561311d5750600485145b8061313057508280156131305750601085145b1561316857613149600060178a8963ffffffff61280f16565b603c02613160600060198b8a63ffffffff61280f16565b01965061319b565b600285148061317f575082801561317f5750600485145b1561319b57613198600060198a8963ffffffff61280f16565b96505b505050505050919050565b600080806131bc8160078663ffffffff61277d16565b91506131c784612ab2565b905060408114156131e9576131e660006017868563ffffffff61280f16565b92505b5050919050565b600080806132068160208763ffffffff613b3516565b9250600091505b82821015612df25761322960006020878563ffffffff613b4216565b9050600160a060020a038082169085161461325b5761325b6000601d600160a060020a0384168863ffffffff613b5016565b81600101915061320d565b600080613272846111bc565b90506132cd60188561328d600060078363ffffffff61277d16565b61ffff87166132bb60188a6132ab600060078363ffffffff61277d16565b600092919063ffffffff61280f16565b6000949392910163ffffffff612ddc16565b34816132d8866111bc565b03146132e357600080fd5b602854600160a060020a031663decfd51b34863360405160e060020a63ffffffff86160281526004810192909252600160a060020a031660248201526044016020604051808303818588803b151561333a57600080fd5b5af1151561334757600080fd5b50505050604051805160011495945050505050565b600061338f60027f626f617264436f6e74726f6c6c6572000000000000000000000000000000000063ffffffff613b5c16565b6133c060037f657363726f77416464726573730000000000000000000000000000000000000063ffffffff613b5c16565b6133f160047f6a6f6273436f756e74000000000000000000000000000000000000000000000063ffffffff613b5c16565b61342260057f6a6f62537461746500000000000000000000000000000000000000000000000063ffffffff613b6c16565b61345360067f6a6f62436c69656e74000000000000000000000000000000000000000000000063ffffffff613b6c16565b61348460077f6a6f62576f726b6572000000000000000000000000000000000000000000000063ffffffff613b6c16565b6134b560087f6a6f6244657461696c734950465348617368000000000000000000000000000063ffffffff613b6c16565b6134e660097f6a6f62536b696c6c73417265610000000000000000000000000000000000000063ffffffff613b6c16565b613517600a7f6a6f62536b696c6c7343617465676f727900000000000000000000000000000063ffffffff613b6c16565b613548600b7f6a6f62536b696c6c73000000000000000000000000000000000000000000000063ffffffff613b6c16565b613579600c7f6a6f62437265617465644174000000000000000000000000000000000000000063ffffffff613b6c16565b6135aa600d7f6a6f62416363657074656441740000000000000000000000000000000000000063ffffffff613b6c16565b6135db600e7f6a6f6250656e64696e675374617274417400000000000000000000000000000063ffffffff613b6c16565b61360c600f7f6a6f62537461727454696d65000000000000000000000000000000000000000063ffffffff613b6c16565b61363d60107f6a6f6250656e64696e6746696e6973684174000000000000000000000000000063ffffffff613b6c16565b61366e60117f6a6f6246696e69736854696d650000000000000000000000000000000000000063ffffffff613b6c16565b61369f60127f6a6f62506175736564000000000000000000000000000000000000000000000063ffffffff613b6c16565b6136d060137f6a6f62506175736564417400000000000000000000000000000000000000000063ffffffff613b6c16565b61370160147f6a6f62506175736564466f72000000000000000000000000000000000000000063ffffffff613b6c16565b61373260157f6a6f62576f726b666c6f7754797065000000000000000000000000000000000063ffffffff613b6c16565b61376360167f6a6f6244656661756c745061790000000000000000000000000000000000000063ffffffff613b6c16565b61379460177f6a6f624f6666657252617465000000000000000000000000000000000000000063ffffffff613b6c16565b6137c560187f6a6f624f66666572457374696d6174650000000000000000000000000000000063ffffffff613b6c16565b6137f660197f6a6f624f666665724f6e746f700000000000000000000000000000000000000063ffffffff613b6c16565b61382760257f6a6f6246696e616c697a6564417400000000000000000000000000000000000063ffffffff613b6c16565b613858601a7f636c69656e744a6f62730000000000000000000000000000000000000000000063ffffffff613b7a16565b613889601d7f776f726b65724a6f62730000000000000000000000000000000000000000000063ffffffff613b7a16565b6138ba60207f6a6f624f6666657273000000000000000000000000000000000000000000000063ffffffff613b7a16565b6138eb60237f6a6f624f66666572506f7374656441740000000000000000000000000000000063ffffffff613b6c16565b61391c60247f62696e645374617475730000000000000000000000000000000000000000000063ffffffff613b6c16565b50600190565b600061278a848484613b84565b825460018401548354600092600160a060020a0316916337d9d7fc9185604051918252602082015260409081019051809103902060405160e060020a63ffffffff851602815260048101929092526024820152604401602060405180830381600087803b151561399e57600080fd5b5af115156139ab57600080fd5b505050604051805195945050505050565b835460018501548454600160a060020a039092169163a14ff85791908560405191825260208201526040908101905180910390208460405160e060020a63ffffffff8616028152600481019390935260248301919091526044820152606401600060405180830381600087803b1515613a3457600080fd5b5af11515613a4157600080fd5b50505050505050565b600061282685858585604051918252602082015260409081019051809103902061392f565b9081161490565b835460018501548454600160a060020a039092169163f0f53ee491908560405191825260208201526040908101905180910390208460405160e060020a63ffffffff86160281526004810193909352602483019190915215156044820152606401600060405180830381600087803b1515613a3457600080fd5b61280384848484613bf3565b612df2858585856040519182526020820152604090810190518091039020846139bc565b612803848484600160a060020a038516613af0565b600061278a848484613c47565b600061282685858585613c54565b61280384848484613c62565b8154613b689082613c6e565b9055565b613b768282613b5c565b5050565b613b768282613c84565b825460018401548354600092600160a060020a0316916398eaf11c9185604051918252602082015260409081019051809103902060405160e060020a63ffffffff851602815260048101929092526024820152604401602060405180830381600087803b151561399e57600080fd5b6000613c0185858585613c8e565b15613c0b57612df2565b613c16858585613caa565b6001019050613c2b8560028601858486613afc565b613c3b8560018601858585613afc565b612df285858584613cb7565b600061278a848484613caa565b600061282685858585613d2f565b61280384848484613d43565b81151580613c7a575080155b15613b7657600080fd5b613b768282613de8565b6000613c9f85856001018585613a4a565b151595945050505050565b600061278a848484613eb1565b835460018501548454600160a060020a03909216916353e7168b91908560405191825260208201526040908101905180910390208460405160e060020a63ffffffff8616028152600481019390935260248301919091526044820152606401600060405180830381600087803b1515613a3457600080fd5b600061282685600286018560018601613a4a565b6000806000613d5487878787613c8e565b1515613d5f57613a41565b613d6a878787613caa565b9250613d7b87600288018786613a4a565b9150613d8c87876001018787613a4a565b905082811015613db657613da68760018801878585613afc565b613db68760028801878486613afc565b613dc7876001880187876000613afc565b613dd8876002880187866000613afc565b613a418787876000198701613cb7565b613e2982826040519081527f636f756e7400000000000000000000000000000000000000000000000000000060208201526025016040518091039020613b5c565b613e6d82600101826040519081527f696e64657865730000000000000000000000000000000000000000000000000060208201526027016040518091039020613b5c565b613b7682600201826040519081527f76616c756573000000000000000000000000000000000000000000000000000060208201526026016040518091039020613b5c565b825460018401548354600092600160a060020a0316916353aa3f5e9185604051918252602082015260409081019051809103902060405160e060020a63ffffffff851602815260048101929092526024820152604401602060405180830381600087803b151561399e57600080fd5b825473ffffffffffffffffffffffffffffffffffffffff1916600160a060020a039290921691909117825560019091015556005133a133185f1023427a2e90f18506b27db994977ce0c0faafd514a7dd109ae0a165627a7a723058206d8e82693fa0b54b39646f2d75abb3da1dab879288862c61eb220ff3af8682b40029",
  "source": "/**\n * Copyright 20172018, LaborX PTY\n * Licensed under the AGPL Version 3 license.\n */\n\npragma solidity ^0.4.21;\n\n\nimport \"solidity-storage-lib/contracts/StorageAdapter.sol\";\nimport \"./adapters/MultiEventsHistoryAdapter.sol\";\nimport \"./adapters/Roles2LibraryAdapter.sol\";\nimport \"./base/BitOps.sol\";\nimport \"./JobDataCore.sol\";\n\n\ncontract UserLibraryInterface {\n    function hasSkills(address _user, uint _area, uint _category, uint _skills) public view returns (bool);\n}\n\n\ncontract PaymentProcessorInterface {\n    function lockPayment(bytes32 _operationId, address _from) public payable returns (uint);\n    function releasePayment(bytes32 _operationId, address _to, uint _value, address _change, uint _feeFromValue, uint _additionalFee) public returns (uint);\n}\n\n\ncontract JobController is JobDataCore, MultiEventsHistoryAdapter, Roles2LibraryAdapter {\n\n    uint constant JOB_CONTROLLER_SCOPE = 13000;\n    uint constant JOB_CONTROLLER_INVALID_ESTIMATE = JOB_CONTROLLER_SCOPE + 1;\n    uint constant JOB_CONTROLLER_INVALID_SKILLS = JOB_CONTROLLER_SCOPE + 2;\n    uint constant JOB_CONTROLLER_INVALID_STATE = JOB_CONTROLLER_SCOPE + 3;\n    uint constant JOB_CONTROLLER_WORKER_RATE_NOT_SET = JOB_CONTROLLER_SCOPE + 4;\n    uint constant JOB_CONTROLLER_WORK_IS_ALREADY_PAUSED = JOB_CONTROLLER_SCOPE + 5;\n    uint constant JOB_CONTROLLER_WORK_IS_NOT_PAUSED = JOB_CONTROLLER_SCOPE + 6;\n    uint constant JOB_CONTROLLER_INVALID_WORKFLOW_TYPE = JOB_CONTROLLER_SCOPE + 7;\n\n    event JobPosted(address indexed self, uint indexed jobId, bytes32 flowType, address client, uint skillsArea, uint skillsCategory, uint skills, uint defaultPay, bytes32 detailsIPFSHash, bool bindStatus);\n    event JobOfferPosted(address indexed self, uint indexed jobId, address worker, uint rate, uint estimate, uint ontop);\n    event JobOfferPosted(address indexed self, uint indexed jobId, address worker, uint price);\n    event JobOfferAccepted(address indexed self, uint indexed jobId, address worker);\n    event WorkStarted(address indexed self, uint indexed jobId, uint at);\n    event TimeAdded(address indexed self, uint indexed jobId, uint time);  // Additional `time` in minutes\n    event WorkPaused(address indexed self, uint indexed jobId, uint at);\n    event WorkResumed(address indexed self, uint indexed jobId, uint at);\n    event WorkFinished(address indexed self, uint indexed jobId, uint at);\n    event WorkAccepted(address indexed self, uint indexed jobId, uint at);\n    event WorkRejected(address indexed self, uint indexed jobId, uint at);\n    event WorkDisputeResolved(address indexed self, uint indexed jobId, uint at);\n    event PaymentReleased(address indexed self, uint indexed jobId);\n    event JobCanceled(address indexed self, uint indexed jobId);\n\n    PaymentProcessorInterface public paymentProcessor;\n    UserLibraryInterface public userLibrary;\n\n    modifier onlyClient(uint _jobId) {\n        if (store.get(jobClient, _jobId) != msg.sender) {\n            return;\n        }\n        _;\n    }\n\n    modifier onlyWorker(uint _jobId) {\n        if (store.get(jobWorker, _jobId) != msg.sender) {\n            return;\n        }\n        _;\n    }\n\n    modifier onlyNotClient(uint _jobId) {\n        if (store.get(jobClient, _jobId) == msg.sender) {\n            return;\n        }\n        _;\n    }\n\n    modifier onlyJobState(uint _jobId, uint _jobState) {\n        if (store.get(jobState, _jobId) != _jobState) {\n            _emitErrorCode(JOB_CONTROLLER_INVALID_STATE);\n            assembly {\n                mstore(0, 13003) // JOB_CONTROLLER_INVALID_STATE\n                return(0, 32)\n            }\n        }\n        _;\n    }\n\n    modifier onlyValidWorkflow(uint _flowType) {\n        if (!_isValidFlow(_flowType)) {\n            assembly {\n                mstore(0, 13007) // JOB_CONTROLLER_INVALID_WORKFLOW_TYPE\n                return(0, 32)\n            }\n        }\n        _;\n    }\n\n    modifier onlyFlow(uint _jobId, uint _flowTypeGroup) {\n        _flowTypeGroup = _flowTypeGroup & ~WORKFLOW_FEATURE_FLAGS;\n        if (!_hasFlag(store.get(jobWorkflowType, _jobId), _flowTypeGroup)) {\n            assembly {\n                mstore(0, 13007) // JOB_CONTROLLER_INVALID_WORKFLOW_TYPE\n                return(0, 32)\n            }\n        }\n        _;\n    }\n\n    modifier onlyStartedState(uint _jobId) {\n        uint _flow = store.get(jobWorkflowType, _jobId);\n        uint _jobState = store.get(jobState, _jobId);\n        if (!_isStartedStateForFlow(_flow, _jobState)) {\n            assembly {\n                mstore(0, 13003) // JOB_CONTROLLER_INVALID_STATE\n                return(0, 32)\n            }\n        }\n\n        _;\n    }\n\n    modifier onlyFinishedState(uint _jobId) {\n        uint _flow = store.get(jobWorkflowType, _jobId);\n        uint _jobState = store.get(jobState, _jobId);\n        if (!_isFinishedStateForFlow(_flow, _jobState)) {\n            assembly {\n                mstore(0, 13003) // JOB_CONTROLLER_INVALID_STATE\n                return(0, 32)\n            }\n        }\n        _;\n    }\n\n    function JobController(\n        Storage _store,\n        bytes32 _crate,\n        address _roles2Library\n    )\n    JobDataCore(_store, _crate)\n    Roles2LibraryAdapter(_roles2Library)\n    public\n    {\n    }\n\n    function init() auth external returns (uint) {\n        return JobDataCore._init();\n    }\n\n    function setupEventsHistory(address _eventsHistory) auth external returns (uint) {\n        require(_eventsHistory != 0x0);\n\n        _setEventsHistory(_eventsHistory);\n        return OK;\n    }\n\n    /// @notice Sets contract address that satisfies BoardControllerAccessor interface\n    function setBoardController(address _boardController) auth external returns (uint) {\n        store.set(boardController, _boardController);\n        return OK;\n    }\n\n    function setPaymentProcessor(PaymentProcessorInterface _paymentProcessor) auth external returns (uint) {\n        paymentProcessor = _paymentProcessor;\n        return OK;\n    }\n\n    function setUserLibrary(UserLibraryInterface _userLibrary) auth external returns (uint) {\n        userLibrary = _userLibrary;\n        return OK;\n    }\n\n    function calculateLock(address worker, uint _jobId, uint _time, uint _onTop) public view returns (uint) {\n        // Lock additional working hour + 10% of resulting amount\n        uint rate = store.get(jobOfferRate, _jobId, worker);\n        return ((rate * (_time) + _onTop) * 11) / 10;\n    }\n\n    function calculateLockAmount(uint _jobId) public view returns (uint) {\n        address worker = store.get(jobWorker, _jobId);\n        // Lock additional working hour + 10% of resulting amount\n        return calculateLockAmountFor(worker, _jobId);\n    }\n\n    function calculateLockAmountFor(address worker, uint _jobId) public view returns (uint) {\n        uint _flow = store.get(jobWorkflowType, _jobId);\n        if (_hasFlag(_flow, WORKFLOW_TM)) {\n            uint onTop = store.get(jobOfferOntop, _jobId, worker);\n            return calculateLock(worker, _jobId, store.get(jobOfferEstimate, _jobId, worker) + 60, onTop);\n        } else if (_hasFlag(_flow, WORKFLOW_FIXED_PRICE)) {\n            return store.get(jobOfferRate, _jobId, worker);\n        }\n\n        assert(false); // NOTE: need to update; other types of workflow is not supported right now\n    }\n\n    function calculatePaycheck(uint _jobId) public view returns (uint) {\n        uint _flow = store.get(jobWorkflowType, _jobId);\n\n        if (_hasFlag(_flow, WORKFLOW_TM)) {\n            return _calculatePaycheckForTM(_jobId);\n        } else if (_hasFlag(_flow, WORKFLOW_FIXED_PRICE)) {\n            return _calculatePaycheckForFixedPrice(_jobId);\n        }\n\n        assert(false); /// NOTE: need to update; other types of workflow is not supported right now\n    }\n\n    function _calculatePaycheckForTM(uint _jobId) private view returns (uint) {\n        address worker = store.get(jobWorker, _jobId);\n        uint _jobState = _getJobState(_jobId);\n        uint _flow = store.get(jobWorkflowType, _jobId);\n        bool _needsConfirmation = (_flow & WORKFLOW_CONFIRMATION_NEEDED_FLAG) != 0;\n        if (_isFinishedStateForFlow(_flow, _jobState)) {\n            // Means that participants have agreed on job completion,\n            // reward should be calculated depending on worker's time spent.\n            uint maxEstimatedTime = store.get(jobOfferEstimate, _jobId, worker) + 60;\n            uint timeSpent = ((_needsConfirmation ? store.get(jobFinishTime, _jobId) : store.get(jobPendingFinishAt, _jobId)) -\n                            (_needsConfirmation ? store.get(jobStartTime, _jobId) : store.get(jobPendingStartAt, _jobId)) -\n                            store.get(jobPausedFor, _jobId)) / 60;\n            if (timeSpent > 60 && timeSpent <= maxEstimatedTime) {\n                // Worker was doing the job for more than an hour, but less then\n                // maximum estimated working time. Release money for the time\n                // he has actually worked + \"on top\" expenses.\n                return timeSpent * store.get(jobOfferRate, _jobId, worker) +\n                       store.get(jobOfferOntop, _jobId, worker);\n\n            } else if (timeSpent > maxEstimatedTime) {\n                // Means worker has gone over maximum estimated time and hasnt't\n                // requested more time, which is his personal responsibility, since\n                // we're already giving workers additional working hour from start.\n                // So we release money for maximum estimated working time + \"on top\".\n                return maxEstimatedTime * store.get(jobOfferRate, _jobId, worker) +\n                       store.get(jobOfferOntop, _jobId, worker);\n\n            } else {\n                // Worker has completed the job within just an hour, so we\n                // release money for the minumum 1 working hour + \"on top\".\n                return 60 * store.get(jobOfferRate, _jobId, worker) +\n                       store.get(jobOfferOntop, _jobId, worker);\n            }\n        } else if (\n            _jobState == JOB_STATE_STARTED ||\n            (!_needsConfirmation && _jobState == JOB_STATE_PENDING_START) ||\n            (_needsConfirmation && _jobState == JOB_STATE_PENDING_FINISH)\n        ) {\n            // Job has been canceled right after start or right before completion,\n            // minimum of 1 working hour + \"on top\" should be released.\n            return store.get(jobOfferOntop, _jobId, worker) +\n                   store.get(jobOfferRate, _jobId, worker) * 60;\n        } else if (\n            _jobState == JOB_STATE_OFFER_ACCEPTED ||\n            (_needsConfirmation && _jobState == JOB_STATE_PENDING_START)\n        ) {\n            // Job hasn't even started yet, but has been accepted,\n            // release just worker \"on top\" expenses.\n            return store.get(jobOfferOntop, _jobId, worker);\n        }\n    }\n\n    function _calculatePaycheckForFixedPrice(uint _jobId) private view returns (uint) {\n        address worker = store.get(jobWorker, _jobId);\n        uint _jobState = _getJobState(_jobId);\n\n        if (_jobState == JOB_STATE_WORK_ACCEPTED) {\n            return store.get(jobOfferRate, _jobId, worker);\n        }\n    }\n\n    function _isValidEstimate(uint _rate, uint _estimate, uint _ontop) internal pure returns (bool) {\n        if (_rate == 0 || _estimate == 0) {\n            return false;\n        }\n        uint prev = 0;\n        for (uint i = 1; i <= _estimate + 60; i++) {\n            uint curr = prev + _rate;\n            if (curr < prev) {\n                return false;\n            }\n            prev = curr;\n        }\n        return ((prev + _ontop) / 10) * 11 > prev;\n    }\n\n    /// @notice Creates and posts a new job to a job marketplace\n    /// @param _flowType see WorkflowType\n    function postJob(\n        uint _flowType,\n        uint _area,\n        uint _category,\n        uint _skills,\n        uint _defaultPay,\n        bytes32 _detailsIPFSHash\n    )\n    onlyValidWorkflow(_flowType)\n    singleOddFlag(_area)\n    singleOddFlag(_category)\n    hasFlags(_skills)\n    public\n    returns (uint)\n    {\n        uint jobId = store.get(jobsCount) + 1;\n        store.set(bindStatus, jobId, false);\n        store.set(jobsCount, jobId);\n        store.set(jobCreatedAt, jobId, now);\n        store.set(jobState, jobId, JOB_STATE_CREATED);\n        store.set(jobWorkflowType, jobId, _flowType);\n        store.set(jobClient, jobId, msg.sender);\n        store.set(jobSkillsArea, jobId, _area);\n        store.set(jobSkillsCategory, jobId, _category);\n        store.set(jobSkills, jobId, _skills);\n        store.set(jobDefaultPay, jobId, _defaultPay);\n        store.set(jobDetailsIPFSHash, jobId, _detailsIPFSHash);\n        store.add(clientJobs, bytes32(msg.sender), jobId);\n\n        _emitJobPosted(jobId, _flowType, msg.sender, _area, _category, _skills, _defaultPay, _detailsIPFSHash, false);\n        return OK;\n    }\n\n    function postJobOffer(\n        uint _jobId,\n        uint _rate,\n        uint _estimate,\n        uint _ontop\n    )\n    onlyNotClient(_jobId)\n    onlyFlow(_jobId, WORKFLOW_TM)\n    onlyJobState(_jobId, JOB_STATE_CREATED)\n    public\n    returns (uint)\n    {\n        if (!_isValidEstimate(_rate, _estimate, _ontop)) {\n            return _emitErrorCode(JOB_CONTROLLER_INVALID_ESTIMATE);\n        }\n\n        if (!_hasSkillsCheck(_jobId)) {\n            return _emitErrorCode(JOB_CONTROLLER_INVALID_SKILLS);\n        }\n\n        store.set(jobOfferRate, _jobId, msg.sender, _rate);\n        store.set(jobOfferEstimate, _jobId, msg.sender, _estimate);\n        store.set(jobOfferOntop, _jobId, msg.sender, _ontop);\n        _addJobOffer(_jobId);\n\n        _emitJobOfferPosted(_jobId, msg.sender, _rate, _estimate, _ontop);\n        return OK;\n    }\n\n    function postJobOfferWithPrice(\n        uint _jobId,\n        uint _price\n    )\n    onlyNotClient(_jobId)\n    onlyFlow(_jobId, WORKFLOW_FIXED_PRICE)\n    onlyJobState(_jobId, JOB_STATE_CREATED)\n    external\n    returns (uint) {\n        require(_price > 0);\n\n        if (!_hasSkillsCheck(_jobId)) {\n            return _emitErrorCode(JOB_CONTROLLER_INVALID_SKILLS);\n        }\n\n        store.set(jobOfferRate, _jobId, msg.sender, _price);\n        _addJobOffer(_jobId);\n\n        JobController(getEventsHistory()).emitJobOfferPosted(_jobId, msg.sender, _price);\n\n        return OK;\n    }\n\n    function _hasSkillsCheck(uint _jobId) internal view returns (bool) {\n        return userLibrary.hasSkills(\n            msg.sender,\n            store.get(jobSkillsArea, _jobId),\n            store.get(jobSkillsCategory, _jobId),\n            store.get(jobSkills, _jobId)\n        );\n    }\n\n    function _addJobOffer(uint _jobId) private {\n        store.add(workerJobs, bytes32(msg.sender), _jobId);\n        store.add(jobOffers, bytes32(_jobId), msg.sender);\n        store.set(jobOfferPostedAt, _jobId, msg.sender, now);\n    }\n\n    function acceptOffer(\n        uint _jobId,\n        address _worker\n    )\n    onlyClient(_jobId)\n    onlyJobState(_jobId, JOB_STATE_CREATED)\n    external\n    payable\n    returns (uint _resultCode)\n    {\n        if (store.get(jobOfferRate, _jobId, _worker) == 0) {\n            return _emitErrorCode(JOB_CONTROLLER_WORKER_RATE_NOT_SET);\n        }\n\n        // Maybe incentivize by locking some money from worker?\n        store.set(jobWorker, _jobId, _worker);\n\n        require(msg.value == calculateLockAmount(_jobId));\n\n        _resultCode = paymentProcessor.lockPayment.value(msg.value)(bytes32(_jobId), msg.sender);\n        if (_resultCode != OK) {\n            revert();\n        }\n\n        store.set(jobAcceptedAt, _jobId, now);\n        store.set(jobState, _jobId, JOB_STATE_OFFER_ACCEPTED);\n        _cleanupJobOffers(_jobId, _worker);\n\n        JobController(getEventsHistory()).emitJobOfferAccepted(_jobId, _worker);\n        return OK;\n    }\n\n    function _cleanupJobOffers(uint _jobId, address _acceptedOffer) private {\n        uint _offersCount = store.count(jobOffers, bytes32(_jobId));\n        for (uint _offerIdx = 0; _offerIdx < _offersCount; ++_offerIdx) {\n            address _offer = store.get(jobOffers, bytes32(_jobId), _offerIdx);\n            if (_offer != _acceptedOffer) {\n                store.remove(workerJobs, bytes32(_offer), _jobId);\n            }\n        }\n    }\n\n    function startWork(\n        uint _jobId\n    )\n    onlyWorker(_jobId)\n    onlyJobState(_jobId, JOB_STATE_OFFER_ACCEPTED)\n    external\n    returns (uint)\n    {\n        store.set(jobPendingStartAt, _jobId, now);\n        store.set(jobState, _jobId, JOB_STATE_PENDING_START);\n        return OK;\n    }\n\n    function confirmStartWork(\n        uint _jobId\n    )\n    onlyClient(_jobId)\n    onlyFlow(_jobId, WORKFLOW_TM)\n    onlyJobState(_jobId, JOB_STATE_PENDING_START)\n    external\n    returns (uint)\n    {\n        store.set(jobState, _jobId, JOB_STATE_STARTED);\n        store.set(jobStartTime, _jobId, now);\n\n        JobController(getEventsHistory()).emitWorkStarted(_jobId, now);\n        return OK;\n    }\n\n    function pauseWork(\n        uint _jobId\n    )\n    onlyWorker(_jobId)\n    onlyStartedState(_jobId)\n    external\n    returns (uint)\n    {\n        if (store.get(jobPaused, _jobId)) {\n            return _emitErrorCode(JOB_CONTROLLER_WORK_IS_ALREADY_PAUSED);\n        }\n\n        store.set(jobPaused, _jobId, true);\n        store.set(jobPausedAt, _jobId, now);\n\n        JobController(getEventsHistory()).emitWorkPaused(_jobId, now);\n        return OK;\n    }\n\n    function resumeWork(\n        uint _jobId\n    )\n    onlyWorker(_jobId)\n    onlyStartedState(_jobId)\n    external\n    returns (uint _resultCode)\n    {\n        _resultCode = _resumeWork(_jobId);\n        if (_resultCode != OK) {\n            return _emitErrorCode(_resultCode);\n        }\n    }\n\n    function _resumeWork(uint _jobId) internal returns (uint) {\n        if (!store.get(jobPaused, _jobId)) {\n            return JOB_CONTROLLER_WORK_IS_NOT_PAUSED;\n        }\n        store.set(jobPaused, _jobId, false);\n        store.set(jobPausedFor, _jobId, store.get(jobPausedFor, _jobId) + (now - store.get(jobPausedAt, _jobId)));\n\n        JobController(getEventsHistory()).emitWorkResumed(_jobId, now);\n        return OK;\n    }\n\n    function addMoreTime(\n        uint _jobId,\n        uint16 _additionalTime\n    )\n    onlyClient(_jobId)\n    onlyFlow(_jobId, WORKFLOW_TM)\n    onlyStartedState(_jobId)\n    external\n    payable\n    returns (uint)\n    {\n        require(_additionalTime != 0);\n\n        if (!_setNewEstimate(_jobId, _additionalTime)) {\n            revert();\n        }\n        JobController(getEventsHistory()).emitTimeAdded(_jobId, _additionalTime);\n        return OK;\n    }\n\n    function _setNewEstimate(uint _jobId, uint16 _additionalTime)\n    internal\n    returns (bool)\n    {\n        uint jobPaymentLocked = calculateLockAmount(_jobId);\n        store.set(\n            jobOfferEstimate,\n            _jobId,\n            store.get(jobWorker, _jobId),\n            store.get(jobOfferEstimate, _jobId, store.get(jobWorker, _jobId)) + _additionalTime\n        );\n\n        require(calculateLockAmount(_jobId) - jobPaymentLocked == msg.value);\n\n        return OK == paymentProcessor.lockPayment.value(msg.value)(bytes32(_jobId), msg.sender);\n    }\n\n    function endWork(\n        uint _jobId\n    )\n    onlyWorker(_jobId)\n    onlyStartedState(_jobId)\n    external\n    returns (uint)\n    {\n        _resumeWork(_jobId);  // In case worker have forgotten about paused timer\n        store.set(jobPendingFinishAt, _jobId, now);\n        store.set(jobState, _jobId, JOB_STATE_PENDING_FINISH);\n        return OK;\n    }\n\n    function confirmEndWork(\n        uint _jobId\n    )\n    onlyClient(_jobId)\n    onlyFlow(_jobId, WORKFLOW_TM)\n    onlyJobState(_jobId, JOB_STATE_PENDING_FINISH)\n    external\n    returns (uint)\n    {\n        store.set(jobFinishTime, _jobId, now);\n        store.set(jobState, _jobId, JOB_STATE_FINISHED);\n\n        JobController(getEventsHistory()).emitWorkFinished(_jobId, now);\n        return OK;\n    }\n\n    function cancelJob(\n        uint _jobId\n    )\n    onlyClient(_jobId)\n    onlyFlow(_jobId, WORKFLOW_TM)\n    external\n    returns (uint _resultCode)\n    {\n        uint _jobState = _getJobState(_jobId);\n        uint _flow = store.get(jobWorkflowType, _jobId);\n\n        if (!_isActiveStateForFlow(_flow, _jobState)) {\n            return _emitErrorCode(JOB_CONTROLLER_INVALID_STATE);\n        }\n\n        uint payCheck = calculatePaycheck(_jobId);\n        address worker = store.get(jobWorker, _jobId);\n\n        _resultCode = paymentProcessor.releasePayment(\n            bytes32(_jobId),\n            worker,\n            payCheck,\n            store.get(jobClient, _jobId),\n            payCheck,\n            0\n        );\n        if (_resultCode != OK) {\n            return _emitErrorCode(_resultCode);\n        }\n\n        store.set(jobFinalizedAt, _jobId, _getJobState(_jobId));\n        store.set(jobState, _jobId, JOB_STATE_FINALIZED);\n\n        JobController(getEventsHistory()).emitJobCanceled(_jobId);\n        return OK;\n    }\n\n    function acceptWorkResults(uint _jobId)\n    external\n    onlyClient(_jobId)\n    onlyFlow(_jobId, WORKFLOW_FIXED_PRICE)\n    onlyJobState(_jobId, JOB_STATE_PENDING_FINISH)\n    returns (uint) \n    {\n        store.set(jobFinishTime, _jobId, now);\n        store.set(jobState, _jobId, JOB_STATE_WORK_ACCEPTED);\n\n        JobController(getEventsHistory()).emitWorkAccepted(_jobId, now);\n        return OK;\n    }\n\n    function rejectWorkResults(uint _jobId)\n    external\n    onlyClient(_jobId)\n    onlyFlow(_jobId, WORKFLOW_FIXED_PRICE)\n    onlyJobState(_jobId, JOB_STATE_PENDING_FINISH)\n    returns (uint _resultCode) \n    {\n        store.set(jobFinishTime, _jobId, now);\n        store.set(jobState, _jobId, JOB_STATE_WORK_REJECTED);\n\n        JobController(getEventsHistory()).emitWorkRejected(_jobId, now);\n        return OK;\n    }\n\n    function resolveWorkDispute(\n        uint _jobId,\n        uint _workerPaycheck,\n        uint _penaltyFee\n    )\n    external\n    auth\n    onlyFlow(_jobId, WORKFLOW_FIXED_PRICE)\n    onlyJobState(_jobId, JOB_STATE_WORK_REJECTED)\n    returns (uint _resultCode) {\n        address worker = store.get(jobWorker, _jobId);\n        uint payCheck = store.get(jobOfferRate, _jobId, worker);\n        address client = store.get(jobClient, _jobId);\n        if (_workerPaycheck > 0) {\n            _resultCode = paymentProcessor.releasePayment(\n                bytes32(_jobId),\n                worker,\n                _workerPaycheck,\n                client,\n                0,\n                _penaltyFee\n            );\n            if (_resultCode != OK) {\n                return _emitErrorCode(_resultCode);\n            }\n        } else {\n            _resultCode = paymentProcessor.releasePayment(\n                bytes32(_jobId),\n                client,\n                payCheck,\n                client,\n                0,\n                _penaltyFee\n            );\n            if (_resultCode != OK) {\n                return _emitErrorCode(_resultCode);\n            }\n        }\n\n        store.set(jobFinalizedAt, _jobId, _getJobState(_jobId));\n        store.set(jobState, _jobId, JOB_STATE_FINALIZED);\n\n        JobController(getEventsHistory()).emitWorkDistputeResolved(_jobId, now);\n        return OK;\n    }\n\n    function releasePayment(\n        uint _jobId\n    )\n    onlyFinishedState(_jobId)\n    public\n    returns (uint _resultCode)\n    {\n        uint payCheck = calculatePaycheck(_jobId);\n        address worker = store.get(jobWorker, _jobId);\n\n        _resultCode = paymentProcessor.releasePayment(\n            bytes32(_jobId),\n            worker,\n            payCheck,\n            store.get(jobClient, _jobId),\n            payCheck,\n            0\n        );\n        if (_resultCode != OK) {\n            return _emitErrorCode(_resultCode);\n        }\n\n        store.set(jobFinalizedAt, _jobId, _getJobState(_jobId));\n        store.set(jobState, _jobId, JOB_STATE_FINALIZED);\n\n        JobController(getEventsHistory()).emitPaymentReleased(_jobId);\n        return OK;\n    }\n\n    function emitJobPosted(\n        uint _jobId,\n        uint _flowType,\n        address _client,\n        uint _skillsArea,\n        uint _skillsCategory,\n        uint _skills,\n        uint _defaultPay,\n        bytes32 _detailsIPFSHash,\n        bool _bindStatus\n    )\n    public\n    {\n        emit JobPosted(_self(), _jobId, bytes32(_flowType), _client, _skillsArea, _skillsCategory, _skills, _defaultPay, _detailsIPFSHash, _bindStatus);\n    }\n\n    function emitJobOfferPosted(uint _jobId, address _worker, uint _rate, uint _estimate, uint _ontop) public {\n        emit JobOfferPosted(_self(), _jobId, _worker, _rate, _estimate, _ontop);\n    }\n\n    function emitJobOfferPosted(uint _jobId, address _worker, uint _price) public {\n        emit JobOfferPosted(_self(), _jobId, _worker, _price);\n    }\n\n    function emitJobOfferAccepted(uint _jobId, address _worker) public {\n        emit JobOfferAccepted(_self(), _jobId, _worker);\n    }\n\n    function emitWorkStarted(uint _jobId, uint _at) public {\n        emit WorkStarted(_self(), _jobId, _at);\n    }\n\n    function emitWorkPaused(uint _jobId, uint _at) public {\n        emit WorkPaused(_self(), _jobId, _at);\n    }\n\n    function emitWorkResumed(uint _jobId, uint _at) public {\n        emit WorkResumed(_self(), _jobId, _at);\n    }\n\n    function emitTimeAdded(uint _jobId, uint _time) public {\n        emit TimeAdded(_self(), _jobId, _time);\n    }\n\n    function emitWorkFinished(uint _jobId, uint _at) public {\n        emit WorkFinished(_self(), _jobId, _at);\n    }\n\n    function emitWorkAccepted(uint _jobId, uint _at) public {\n        emit WorkAccepted(_self(), _jobId, _at);\n    }\n\n    function emitWorkRejected(uint _jobId, uint _at) public {\n        emit WorkRejected(_self(), _jobId, _at);\n    }\n\n    function emitWorkDistputeResolved(uint _jobId, uint _at) public {\n        emit WorkDisputeResolved(_self(), _jobId, _at);\n    }\n\n    function emitPaymentReleased(uint _jobId) public {\n        emit PaymentReleased(_self(), _jobId);\n    }\n\n    function emitJobCanceled(uint _jobId) public {\n        emit JobCanceled(_self(), _jobId);\n    }\n\n    function _getJobState(uint _jobId) private view returns (uint) {\n        return uint(store.get(jobState, _jobId));\n    }\n\n    function _isFinishedStateForFlow(uint _flow, uint _jobState) internal pure returns (bool) {\n        bool _needsConfirmation = (_flow & WORKFLOW_CONFIRMATION_NEEDED_FLAG) != 0;\n        uint _flowType = _flow & ~WORKFLOW_FEATURE_FLAGS;\n        if (_flowType == WORKFLOW_TM) {\n            if (_needsConfirmation && _jobState == JOB_STATE_FINISHED) {\n                return true;\n            }\n            \n            if (!_needsConfirmation &&\n                (_jobState == JOB_STATE_PENDING_FINISH || _jobState == JOB_STATE_FINISHED)\n            ) {\n                return true;\n            }\n        }\n\n        if (_flowType == WORKFLOW_FIXED_PRICE) {\n            if (_jobState == JOB_STATE_WORK_ACCEPTED) {\n                return true;\n            }\n        }\n    }\n\n    function _isStartedStateForFlow(uint _flow, uint _jobState) internal pure returns (bool) {\n        bool _needsConfirmation = (_flow & WORKFLOW_CONFIRMATION_NEEDED_FLAG) != 0;\n        if (_needsConfirmation && \n        _jobState == JOB_STATE_STARTED) {\n            return true;\n        }\n\n        if (!_needsConfirmation &&\n            (_jobState == JOB_STATE_PENDING_START || _jobState == JOB_STATE_STARTED)\n        ) {\n            return true;\n        }\n    }\n\n    function _isActiveStateForFlow(uint _flow, uint _jobState) internal pure returns (bool) {\n        if (_jobState == JOB_STATE_OFFER_ACCEPTED) {\n            return true;\n        }\n        \n        if (_jobState == JOB_STATE_PENDING_START) {\n            return true;\n        }\n\n        if (_jobState == JOB_STATE_STARTED) {\n            return true;\n        }\n\n        bool _needsConfirmation = (_flow & WORKFLOW_CONFIRMATION_NEEDED_FLAG) != 0;\n        if (_needsConfirmation && _jobState == JOB_STATE_PENDING_FINISH) {\n            return true;\n        }\n    }\n\n    function _emitJobPosted(\n        uint _jobId,\n        uint _flowType,\n        address _client,\n        uint _skillsArea,\n        uint _skillsCategory,\n        uint _skills,\n        uint _defaultPay,\n        bytes32 _detailsIPFSHash,\n        bool _bindStatus\n    )\n    internal\n    {\n        JobController(getEventsHistory()).emitJobPosted(\n            _jobId,\n            _flowType,\n            _client,\n            _skillsArea,\n            _skillsCategory,\n            _skills,\n            _defaultPay,\n            _detailsIPFSHash,\n            _bindStatus\n        );\n    }\n\n    function _emitJobOfferPosted(\n        uint _jobId,\n        address _worker,\n        uint _rate,\n        uint _estimate,\n        uint _ontop\n    )\n    internal\n    {\n        JobController(getEventsHistory()).emitJobOfferPosted(\n            _jobId,\n            _worker,\n            _rate,\n            _estimate,\n            _ontop\n        );\n    }\n}\n",
  "sourcePath": "/Users/alesanro/Documents/Projects/ChronoBank/LX-SC/contracts/JobController.sol",
  "compiler": {
    "name": "solc",
    "version": "0.4.21+commit.dfe3193c.Emscripten.clang"
  },
  "schemaVersion": "2.0.0",
  "updatedAt": "2018-06-20T11:53:20.839Z"
}