{
  "contractName": "JobController",
  "abi": [
    {
      "constant": false,
      "inputs": [
        {
          "name": "_eventsHistory",
          "type": "address"
        }
      ],
      "name": "setupEventsHistory",
      "outputs": [
        {
          "name": "",
          "type": "uint256"
        }
      ],
      "payable": false,
      "stateMutability": "nonpayable",
      "type": "function"
    },
    {
      "constant": false,
      "inputs": [
        {
          "name": "_jobId",
          "type": "uint256"
        }
      ],
      "name": "startWork",
      "outputs": [
        {
          "name": "",
          "type": "uint256"
        }
      ],
      "payable": false,
      "stateMutability": "nonpayable",
      "type": "function"
    },
    {
      "constant": true,
      "inputs": [
        {
          "name": "worker",
          "type": "address"
        },
        {
          "name": "_jobId",
          "type": "uint256"
        }
      ],
      "name": "calculateLockAmountFor",
      "outputs": [
        {
          "name": "",
          "type": "uint256"
        }
      ],
      "payable": false,
      "stateMutability": "view",
      "type": "function"
    },
    {
      "constant": false,
      "inputs": [
        {
          "name": "_paymentProcessor",
          "type": "address"
        }
      ],
      "name": "setPaymentProcessor",
      "outputs": [
        {
          "name": "",
          "type": "uint256"
        }
      ],
      "payable": false,
      "stateMutability": "nonpayable",
      "type": "function"
    },
    {
      "constant": true,
      "inputs": [
        {
          "name": "_jobId",
          "type": "uint256"
        }
      ],
      "name": "getJobSkillsCategory",
      "outputs": [
        {
          "name": "",
          "type": "uint256"
        }
      ],
      "payable": false,
      "stateMutability": "view",
      "type": "function"
    },
    {
      "constant": true,
      "inputs": [
        {
          "name": "_jobId",
          "type": "uint256"
        }
      ],
      "name": "getJobSkillsArea",
      "outputs": [
        {
          "name": "",
          "type": "uint256"
        }
      ],
      "payable": false,
      "stateMutability": "view",
      "type": "function"
    },
    {
      "constant": true,
      "inputs": [
        {
          "name": "_jobId",
          "type": "uint256"
        }
      ],
      "name": "getJobClient",
      "outputs": [
        {
          "name": "",
          "type": "address"
        }
      ],
      "payable": false,
      "stateMutability": "view",
      "type": "function"
    },
    {
      "constant": false,
      "inputs": [
        {
          "name": "_jobId",
          "type": "uint256"
        },
        {
          "name": "_worker",
          "type": "address"
        },
        {
          "name": "_rate",
          "type": "uint256"
        },
        {
          "name": "_estimate",
          "type": "uint256"
        },
        {
          "name": "_ontop",
          "type": "uint256"
        }
      ],
      "name": "emitJobOfferPosted",
      "outputs": [],
      "payable": false,
      "stateMutability": "nonpayable",
      "type": "function"
    },
    {
      "constant": false,
      "inputs": [
        {
          "name": "_jobId",
          "type": "uint256"
        }
      ],
      "name": "cancelJob",
      "outputs": [
        {
          "name": "_resultCode",
          "type": "uint256"
        }
      ],
      "payable": false,
      "stateMutability": "nonpayable",
      "type": "function"
    },
    {
      "constant": true,
      "inputs": [
        {
          "name": "_client",
          "type": "address"
        }
      ],
      "name": "getJobForClientCount",
      "outputs": [
        {
          "name": "",
          "type": "uint256"
        }
      ],
      "payable": false,
      "stateMutability": "view",
      "type": "function"
    },
    {
      "constant": false,
      "inputs": [
        {
          "name": "_roles2Library",
          "type": "address"
        }
      ],
      "name": "setRoles2Library",
      "outputs": [
        {
          "name": "",
          "type": "uint256"
        }
      ],
      "payable": false,
      "stateMutability": "nonpayable",
      "type": "function"
    },
    {
      "constant": false,
      "inputs": [
        {
          "name": "_boardController",
          "type": "address"
        }
      ],
      "name": "setBoardController",
      "outputs": [
        {
          "name": "",
          "type": "uint256"
        }
      ],
      "payable": false,
      "stateMutability": "nonpayable",
      "type": "function"
    },
    {
      "constant": true,
      "inputs": [
        {
          "name": "_jobId",
          "type": "uint256"
        }
      ],
      "name": "getJobDetailsIPFSHash",
      "outputs": [
        {
          "name": "",
          "type": "bytes32"
        }
      ],
      "payable": false,
      "stateMutability": "view",
      "type": "function"
    },
    {
      "constant": true,
      "inputs": [
        {
          "name": "_jobId",
          "type": "uint256"
        }
      ],
      "name": "getJobWorker",
      "outputs": [
        {
          "name": "",
          "type": "address"
        }
      ],
      "payable": false,
      "stateMutability": "view",
      "type": "function"
    },
    {
      "constant": false,
      "inputs": [
        {
          "name": "_jobId",
          "type": "uint256"
        }
      ],
      "name": "endWork",
      "outputs": [
        {
          "name": "",
          "type": "uint256"
        }
      ],
      "payable": false,
      "stateMutability": "nonpayable",
      "type": "function"
    },
    {
      "constant": false,
      "inputs": [
        {
          "name": "_area",
          "type": "uint256"
        },
        {
          "name": "_category",
          "type": "uint256"
        },
        {
          "name": "_skills",
          "type": "uint256"
        },
        {
          "name": "_detailsIPFSHash",
          "type": "bytes32"
        }
      ],
      "name": "postJob",
      "outputs": [
        {
          "name": "",
          "type": "uint256"
        }
      ],
      "payable": false,
      "stateMutability": "nonpayable",
      "type": "function"
    },
    {
      "constant": true,
      "inputs": [
        {
          "name": "_worker",
          "type": "address"
        },
        {
          "name": "_jobState",
          "type": "uint256"
        },
        {
          "name": "_skillsArea",
          "type": "uint256"
        },
        {
          "name": "_skillsCategory",
          "type": "uint256"
        },
        {
          "name": "_skills",
          "type": "uint256"
        },
        {
          "name": "_paused",
          "type": "bool"
        },
        {
          "name": "_fromIdx",
          "type": "uint256"
        },
        {
          "name": "_maxLen",
          "type": "uint256"
        }
      ],
      "name": "getJobForWorker",
      "outputs": [
        {
          "name": "_ids",
          "type": "uint256[]"
        }
      ],
      "payable": false,
      "stateMutability": "view",
      "type": "function"
    },
    {
      "constant": true,
      "inputs": [
        {
          "name": "_jobId",
          "type": "uint256"
        }
      ],
      "name": "getJobState",
      "outputs": [
        {
          "name": "",
          "type": "uint256"
        }
      ],
      "payable": false,
      "stateMutability": "view",
      "type": "function"
    },
    {
      "constant": false,
      "inputs": [
        {
          "name": "_jobId",
          "type": "uint256"
        },
        {
          "name": "_rate",
          "type": "uint256"
        },
        {
          "name": "_estimate",
          "type": "uint256"
        },
        {
          "name": "_ontop",
          "type": "uint256"
        }
      ],
      "name": "postJobOffer",
      "outputs": [
        {
          "name": "",
          "type": "uint256"
        }
      ],
      "payable": false,
      "stateMutability": "nonpayable",
      "type": "function"
    },
    {
      "constant": true,
      "inputs": [
        {
          "name": "_jobId",
          "type": "uint256"
        }
      ],
      "name": "calculateLockAmount",
      "outputs": [
        {
          "name": "",
          "type": "uint256"
        }
      ],
      "payable": false,
      "stateMutability": "view",
      "type": "function"
    },
    {
      "constant": false,
      "inputs": [
        {
          "name": "_jobId",
          "type": "uint256"
        },
        {
          "name": "_time",
          "type": "uint256"
        }
      ],
      "name": "emitTimeAdded",
      "outputs": [],
      "payable": false,
      "stateMutability": "nonpayable",
      "type": "function"
    },
    {
      "constant": false,
      "inputs": [
        {
          "name": "_jobId",
          "type": "uint256"
        },
        {
          "name": "_worker",
          "type": "address"
        }
      ],
      "name": "emitJobOfferAccepted",
      "outputs": [],
      "payable": false,
      "stateMutability": "nonpayable",
      "type": "function"
    },
    {
      "constant": true,
      "inputs": [
        {
          "name": "_worker",
          "type": "address"
        }
      ],
      "name": "getJobForWorkerCount",
      "outputs": [
        {
          "name": "",
          "type": "uint256"
        }
      ],
      "payable": false,
      "stateMutability": "view",
      "type": "function"
    },
    {
      "constant": false,
      "inputs": [
        {
          "name": "_errorCode",
          "type": "uint256"
        }
      ],
      "name": "emitErrorCode",
      "outputs": [],
      "payable": false,
      "stateMutability": "nonpayable",
      "type": "function"
    },
    {
      "constant": false,
      "inputs": [
        {
          "name": "_jobId",
          "type": "uint256"
        }
      ],
      "name": "releasePayment",
      "outputs": [
        {
          "name": "_resultCode",
          "type": "uint256"
        }
      ],
      "payable": false,
      "stateMutability": "nonpayable",
      "type": "function"
    },
    {
      "constant": true,
      "inputs": [
        {
          "name": "_jobId",
          "type": "uint256"
        }
      ],
      "name": "calculatePaycheck",
      "outputs": [
        {
          "name": "",
          "type": "uint256"
        }
      ],
      "payable": false,
      "stateMutability": "view",
      "type": "function"
    },
    {
      "constant": true,
      "inputs": [
        {
          "name": "_jobState",
          "type": "uint256"
        },
        {
          "name": "_skillsArea",
          "type": "uint256"
        },
        {
          "name": "_skillsCategory",
          "type": "uint256"
        },
        {
          "name": "_skills",
          "type": "uint256"
        },
        {
          "name": "_paused",
          "type": "bool"
        },
        {
          "name": "_fromId",
          "type": "uint256"
        },
        {
          "name": "_maxLen",
          "type": "uint256"
        }
      ],
      "name": "getJobs",
      "outputs": [
        {
          "name": "_ids",
          "type": "uint256[]"
        }
      ],
      "payable": false,
      "stateMutability": "view",
      "type": "function"
    },
    {
      "constant": false,
      "inputs": [
        {
          "name": "_jobId",
          "type": "uint256"
        },
        {
          "name": "_worker",
          "type": "address"
        }
      ],
      "name": "acceptOffer",
      "outputs": [
        {
          "name": "_resultCode",
          "type": "uint256"
        }
      ],
      "payable": true,
      "stateMutability": "payable",
      "type": "function"
    },
    {
      "constant": false,
      "inputs": [
        {
          "name": "_jobId",
          "type": "uint256"
        }
      ],
      "name": "confirmStartWork",
      "outputs": [
        {
          "name": "",
          "type": "uint256"
        }
      ],
      "payable": false,
      "stateMutability": "nonpayable",
      "type": "function"
    },
    {
      "constant": false,
      "inputs": [
        {
          "name": "_jobId",
          "type": "uint256"
        }
      ],
      "name": "emitJobCanceled",
      "outputs": [],
      "payable": false,
      "stateMutability": "nonpayable",
      "type": "function"
    },
    {
      "constant": false,
      "inputs": [
        {
          "name": "_jobId",
          "type": "uint256"
        }
      ],
      "name": "confirmEndWork",
      "outputs": [
        {
          "name": "",
          "type": "uint256"
        }
      ],
      "payable": false,
      "stateMutability": "nonpayable",
      "type": "function"
    },
    {
      "constant": true,
      "inputs": [
        {
          "name": "_jobIds",
          "type": "uint256[]"
        }
      ],
      "name": "getJobsByIds",
      "outputs": [
        {
          "name": "_results",
          "type": "bytes32[]"
        }
      ],
      "payable": false,
      "stateMutability": "view",
      "type": "function"
    },
    {
      "constant": true,
      "inputs": [],
      "name": "userLibrary",
      "outputs": [
        {
          "name": "",
          "type": "address"
        }
      ],
      "payable": false,
      "stateMutability": "view",
      "type": "function"
    },
    {
      "constant": false,
      "inputs": [
        {
          "name": "_jobId",
          "type": "uint256"
        },
        {
          "name": "_at",
          "type": "uint256"
        }
      ],
      "name": "emitWorkResumed",
      "outputs": [],
      "payable": false,
      "stateMutability": "nonpayable",
      "type": "function"
    },
    {
      "constant": false,
      "inputs": [
        {
          "name": "_jobId",
          "type": "uint256"
        },
        {
          "name": "_at",
          "type": "uint256"
        }
      ],
      "name": "emitWorkStarted",
      "outputs": [],
      "payable": false,
      "stateMutability": "nonpayable",
      "type": "function"
    },
    {
      "constant": true,
      "inputs": [
        {
          "name": "worker",
          "type": "address"
        },
        {
          "name": "_jobId",
          "type": "uint256"
        },
        {
          "name": "_time",
          "type": "uint256"
        },
        {
          "name": "_onTop",
          "type": "uint256"
        }
      ],
      "name": "calculateLock",
      "outputs": [
        {
          "name": "",
          "type": "uint256"
        }
      ],
      "payable": false,
      "stateMutability": "view",
      "type": "function"
    },
    {
      "constant": false,
      "inputs": [
        {
          "name": "_jobId",
          "type": "uint256"
        },
        {
          "name": "_at",
          "type": "uint256"
        }
      ],
      "name": "emitWorkPaused",
      "outputs": [],
      "payable": false,
      "stateMutability": "nonpayable",
      "type": "function"
    },
    {
      "constant": true,
      "inputs": [
        {
          "name": "_jobId",
          "type": "uint256"
        }
      ],
      "name": "getJobOffersCount",
      "outputs": [
        {
          "name": "",
          "type": "uint256"
        }
      ],
      "payable": false,
      "stateMutability": "view",
      "type": "function"
    },
    {
      "constant": true,
      "inputs": [
        {
          "name": "_client",
          "type": "address"
        },
        {
          "name": "_jobState",
          "type": "uint256"
        },
        {
          "name": "_skillsArea",
          "type": "uint256"
        },
        {
          "name": "_skillsCategory",
          "type": "uint256"
        },
        {
          "name": "_skills",
          "type": "uint256"
        },
        {
          "name": "_paused",
          "type": "bool"
        },
        {
          "name": "_fromIdx",
          "type": "uint256"
        },
        {
          "name": "_maxLen",
          "type": "uint256"
        }
      ],
      "name": "getJobsForClient",
      "outputs": [
        {
          "name": "_ids",
          "type": "uint256[]"
        }
      ],
      "payable": false,
      "stateMutability": "view",
      "type": "function"
    },
    {
      "constant": true,
      "inputs": [
        {
          "name": "_jobId",
          "type": "uint256"
        }
      ],
      "name": "getFinalState",
      "outputs": [
        {
          "name": "",
          "type": "uint256"
        }
      ],
      "payable": false,
      "stateMutability": "view",
      "type": "function"
    },
    {
      "constant": true,
      "inputs": [],
      "name": "getJobsCount",
      "outputs": [
        {
          "name": "",
          "type": "uint256"
        }
      ],
      "payable": false,
      "stateMutability": "view",
      "type": "function"
    },
    {
      "constant": false,
      "inputs": [
        {
          "name": "_jobId",
          "type": "uint256"
        }
      ],
      "name": "emitPaymentReleased",
      "outputs": [],
      "payable": false,
      "stateMutability": "nonpayable",
      "type": "function"
    },
    {
      "constant": true,
      "inputs": [
        {
          "name": "_jobId",
          "type": "uint256"
        }
      ],
      "name": "getJobSkills",
      "outputs": [
        {
          "name": "",
          "type": "uint256"
        }
      ],
      "payable": false,
      "stateMutability": "view",
      "type": "function"
    },
    {
      "constant": false,
      "inputs": [
        {
          "name": "_jobId",
          "type": "uint256"
        },
        {
          "name": "_additionalTime",
          "type": "uint16"
        }
      ],
      "name": "addMoreTime",
      "outputs": [
        {
          "name": "",
          "type": "uint256"
        }
      ],
      "payable": true,
      "stateMutability": "payable",
      "type": "function"
    },
    {
      "constant": false,
      "inputs": [],
      "name": "init",
      "outputs": [
        {
          "name": "",
          "type": "uint256"
        }
      ],
      "payable": false,
      "stateMutability": "nonpayable",
      "type": "function"
    },
    {
      "constant": false,
      "inputs": [
        {
          "name": "_jobId",
          "type": "uint256"
        },
        {
          "name": "_client",
          "type": "address"
        },
        {
          "name": "_skillsArea",
          "type": "uint256"
        },
        {
          "name": "_skillsCategory",
          "type": "uint256"
        },
        {
          "name": "_skills",
          "type": "uint256"
        },
        {
          "name": "_detailsIPFSHash",
          "type": "bytes32"
        },
        {
          "name": "_bindStatus",
          "type": "bool"
        }
      ],
      "name": "emitJobPosted",
      "outputs": [],
      "payable": false,
      "stateMutability": "nonpayable",
      "type": "function"
    },
    {
      "constant": false,
      "inputs": [
        {
          "name": "_msg",
          "type": "bytes32"
        }
      ],
      "name": "emitError",
      "outputs": [],
      "payable": false,
      "stateMutability": "nonpayable",
      "type": "function"
    },
    {
      "constant": false,
      "inputs": [
        {
          "name": "_userLibrary",
          "type": "address"
        }
      ],
      "name": "setUserLibrary",
      "outputs": [
        {
          "name": "",
          "type": "uint256"
        }
      ],
      "payable": false,
      "stateMutability": "nonpayable",
      "type": "function"
    },
    {
      "constant": false,
      "inputs": [
        {
          "name": "_jobId",
          "type": "uint256"
        },
        {
          "name": "_at",
          "type": "uint256"
        }
      ],
      "name": "emitWorkFinished",
      "outputs": [],
      "payable": false,
      "stateMutability": "nonpayable",
      "type": "function"
    },
    {
      "constant": true,
      "inputs": [],
      "name": "paymentProcessor",
      "outputs": [
        {
          "name": "",
          "type": "address"
        }
      ],
      "payable": false,
      "stateMutability": "view",
      "type": "function"
    },
    {
      "constant": false,
      "inputs": [
        {
          "name": "_jobId",
          "type": "uint256"
        }
      ],
      "name": "pauseWork",
      "outputs": [
        {
          "name": "",
          "type": "uint256"
        }
      ],
      "payable": false,
      "stateMutability": "nonpayable",
      "type": "function"
    },
    {
      "constant": true,
      "inputs": [
        {
          "name": "_jobId",
          "type": "uint256"
        },
        {
          "name": "_fromIdx",
          "type": "uint256"
        },
        {
          "name": "_maxLen",
          "type": "uint256"
        }
      ],
      "name": "getJobOffers",
      "outputs": [
        {
          "name": "_id",
          "type": "uint256"
        },
        {
          "name": "_workers",
          "type": "address[]"
        },
        {
          "name": "_rates",
          "type": "uint256[]"
        },
        {
          "name": "_estimates",
          "type": "uint256[]"
        },
        {
          "name": "_onTops",
          "type": "uint256[]"
        }
      ],
      "payable": false,
      "stateMutability": "view",
      "type": "function"
    },
    {
      "constant": false,
      "inputs": [
        {
          "name": "_jobId",
          "type": "uint256"
        }
      ],
      "name": "resumeWork",
      "outputs": [
        {
          "name": "_resultCode",
          "type": "uint256"
        }
      ],
      "payable": false,
      "stateMutability": "nonpayable",
      "type": "function"
    },
    {
      "constant": true,
      "inputs": [],
      "name": "getEventsHistory",
      "outputs": [
        {
          "name": "",
          "type": "address"
        }
      ],
      "payable": false,
      "stateMutability": "view",
      "type": "function"
    },
    {
      "inputs": [
        {
          "name": "_store",
          "type": "address"
        },
        {
          "name": "_crate",
          "type": "bytes32"
        },
        {
          "name": "_roles2Library",
          "type": "address"
        }
      ],
      "payable": false,
      "stateMutability": "nonpayable",
      "type": "constructor"
    },
    {
      "anonymous": false,
      "inputs": [
        {
          "indexed": true,
          "name": "self",
          "type": "address"
        },
        {
          "indexed": true,
          "name": "jobId",
          "type": "uint256"
        },
        {
          "indexed": false,
          "name": "client",
          "type": "address"
        },
        {
          "indexed": false,
          "name": "skillsArea",
          "type": "uint256"
        },
        {
          "indexed": false,
          "name": "skillsCategory",
          "type": "uint256"
        },
        {
          "indexed": false,
          "name": "skills",
          "type": "uint256"
        },
        {
          "indexed": false,
          "name": "detailsIPFSHash",
          "type": "bytes32"
        },
        {
          "indexed": false,
          "name": "bindStatus",
          "type": "bool"
        }
      ],
      "name": "JobPosted",
      "type": "event"
    },
    {
      "anonymous": false,
      "inputs": [
        {
          "indexed": true,
          "name": "self",
          "type": "address"
        },
        {
          "indexed": true,
          "name": "jobId",
          "type": "uint256"
        },
        {
          "indexed": false,
          "name": "worker",
          "type": "address"
        },
        {
          "indexed": false,
          "name": "rate",
          "type": "uint256"
        },
        {
          "indexed": false,
          "name": "estimate",
          "type": "uint256"
        },
        {
          "indexed": false,
          "name": "ontop",
          "type": "uint256"
        }
      ],
      "name": "JobOfferPosted",
      "type": "event"
    },
    {
      "anonymous": false,
      "inputs": [
        {
          "indexed": true,
          "name": "self",
          "type": "address"
        },
        {
          "indexed": true,
          "name": "jobId",
          "type": "uint256"
        },
        {
          "indexed": false,
          "name": "worker",
          "type": "address"
        }
      ],
      "name": "JobOfferAccepted",
      "type": "event"
    },
    {
      "anonymous": false,
      "inputs": [
        {
          "indexed": true,
          "name": "self",
          "type": "address"
        },
        {
          "indexed": true,
          "name": "jobId",
          "type": "uint256"
        },
        {
          "indexed": false,
          "name": "at",
          "type": "uint256"
        }
      ],
      "name": "WorkStarted",
      "type": "event"
    },
    {
      "anonymous": false,
      "inputs": [
        {
          "indexed": true,
          "name": "self",
          "type": "address"
        },
        {
          "indexed": true,
          "name": "jobId",
          "type": "uint256"
        },
        {
          "indexed": false,
          "name": "time",
          "type": "uint256"
        }
      ],
      "name": "TimeAdded",
      "type": "event"
    },
    {
      "anonymous": false,
      "inputs": [
        {
          "indexed": true,
          "name": "self",
          "type": "address"
        },
        {
          "indexed": true,
          "name": "jobId",
          "type": "uint256"
        },
        {
          "indexed": false,
          "name": "at",
          "type": "uint256"
        }
      ],
      "name": "WorkPaused",
      "type": "event"
    },
    {
      "anonymous": false,
      "inputs": [
        {
          "indexed": true,
          "name": "self",
          "type": "address"
        },
        {
          "indexed": true,
          "name": "jobId",
          "type": "uint256"
        },
        {
          "indexed": false,
          "name": "at",
          "type": "uint256"
        }
      ],
      "name": "WorkResumed",
      "type": "event"
    },
    {
      "anonymous": false,
      "inputs": [
        {
          "indexed": true,
          "name": "self",
          "type": "address"
        },
        {
          "indexed": true,
          "name": "jobId",
          "type": "uint256"
        },
        {
          "indexed": false,
          "name": "at",
          "type": "uint256"
        }
      ],
      "name": "WorkFinished",
      "type": "event"
    },
    {
      "anonymous": false,
      "inputs": [
        {
          "indexed": true,
          "name": "self",
          "type": "address"
        },
        {
          "indexed": true,
          "name": "jobId",
          "type": "uint256"
        }
      ],
      "name": "PaymentReleased",
      "type": "event"
    },
    {
      "anonymous": false,
      "inputs": [
        {
          "indexed": true,
          "name": "self",
          "type": "address"
        },
        {
          "indexed": true,
          "name": "jobId",
          "type": "uint256"
        }
      ],
      "name": "JobCanceled",
      "type": "event"
    },
    {
      "anonymous": false,
      "inputs": [
        {
          "indexed": false,
          "name": "code",
          "type": "address"
        },
        {
          "indexed": false,
          "name": "sender",
          "type": "address"
        },
        {
          "indexed": false,
          "name": "sig",
          "type": "bytes4"
        }
      ],
      "name": "AuthFailedError",
      "type": "event"
    },
    {
      "anonymous": false,
      "inputs": [
        {
          "indexed": true,
          "name": "self",
          "type": "address"
        },
        {
          "indexed": false,
          "name": "msg",
          "type": "bytes32"
        }
      ],
      "name": "Error",
      "type": "event"
    },
    {
      "anonymous": false,
      "inputs": [
        {
          "indexed": true,
          "name": "self",
          "type": "address"
        },
        {
          "indexed": false,
          "name": "errorCode",
          "type": "uint256"
        }
      ],
      "name": "ErrorCode",
      "type": "event"
    }
  ],
  "bytecode": "0x606060405234156200001057600080fd5b60405160608062003ec983398101604052808051919060200180519190602001805191508190508383620000556000838364010000000062003d936200008182021704565b505060038054600160a060020a031916600160a060020a039290921691909117905550620000a7915050565b8254600160a060020a031916600160a060020a0392909216919091178255600190910155565b613e1280620000b76000396000f30060606040526004361061026e5763ffffffff60e060020a60003504166302927d20811461027357806303a250f9146102a45780630419d0e4146102ba578063088b0d75146102dc5780630d9f2817146102fb5780630e1a9e3f1461031157806314f60881146103275780631972b464146103595780631dffa3dc1461038657806322d20bac1461039c5780632637cd7d146103bb5780632caef765146103da57806332c514d5146103f957806336dd20a71461040f5780633de035bf1461042557806342cfd7921461043b5780635336c8171461045a57806353bc1c12146104e357806358b5f92a146104f9578063596fab6c1461051857806361f304081461052e5780638680e52d1461054757806387c0e1ff146105695780638834277e1461058857806388685cd91461059e57806389c29b61146105b45780638d2db04b146105ca578063918d407d146105f4578063933610781461060b5780639c6e1d4614610621578063aea1935b14610637578063af405bfe1461064d578063b3ec8cb81461069c578063b633d272146106af578063b7d8b1d9146106c8578063c04944f1146106e1578063c26d0c2c14610709578063c63adb0a14610722578063c8c63ae914610738578063cb56dd791461076e578063d07e9f9014610784578063d649567614610797578063dce722dd146107ad578063e187eaf7146107c3578063e1c7392a146107d5578063e270398a146107e8578063e90459f81461081b578063ec2b50bf14610831578063ef29a7e514610850578063f1c6bdf814610869578063f839dc621461087c578063fb51a63814610892578063fd03d762146109d8578063fff10aba146109ee575b600080fd5b341561027e57600080fd5b610292600160a060020a0360043516610a01565b60405190815260200160405180910390f35b34156102af57600080fd5b610292600435610aa5565b34156102c557600080fd5b610292600160a060020a0360043516602435610b46565b34156102e757600080fd5b610292600160a060020a0360043516610b8a565b341561030657600080fd5b610292600435610c37565b341561031c57600080fd5b610292600435610c51565b341561033257600080fd5b61033d600435610c65565b604051600160a060020a03909116815260200160405180910390f35b341561036457600080fd5b610384600435600160a060020a0360243516604435606435608435610c79565b005b341561039157600080fd5b610292600435610cf3565b34156103a757600080fd5b610292600160a060020a0360043516610ee3565b34156103c657600080fd5b610292600160a060020a0360043516610f00565b34156103e557600080fd5b610292600160a060020a0360043516610fad565b341561040457600080fd5b610292600435611043565b341561041a57600080fd5b61033d600435611057565b341561043057600080fd5b61029260043561106b565b341561044657600080fd5b6102926004356024356044356064356110ef565b341561046557600080fd5b610490600160a060020a036004351660243560443560643560843560a435151560c43560e43561124e565b60405160208082528190810183818151815260200191508051906020019060200280838360005b838110156104cf5780820151838201526020016104b7565b505050509050019250505060405180910390f35b34156104ee57600080fd5b610292600435611346565b341561050457600080fd5b61029260043560243560443560643561135a565b341561052357600080fd5b61029260043561147e565b341561053957600080fd5b6103846004356024356114a6565b341561055257600080fd5b610384600435600160a060020a03602435166114ef565b341561057457600080fd5b610292600160a060020a0360043516611542565b341561059357600080fd5b61038460043561155f565b34156105a957600080fd5b6102926004356115a6565b34156105bf57600080fd5b61029260043561171c565b34156105d557600080fd5b610490600435602435604435606435608435151560a43560c4356118cf565b610292600435600160a060020a0360243516611950565b341561061657600080fd5b610292600435611b30565b341561062c57600080fd5b610384600435611c1c565b341561064257600080fd5b610292600435611c5d565b341561065857600080fd5b6104906004602481358181019083013580602081810201604051908101604052809392919081815260200183836020028082843750949650611d2a95505050505050565b34156106a757600080fd5b61033d612105565b34156106ba57600080fd5b610384600435602435612114565b34156106d357600080fd5b61038460043560243561215d565b34156106ec57600080fd5b610292600160a060020a03600435166024356044356064356121a6565b341561071457600080fd5b6103846004356024356121d3565b341561072d57600080fd5b61029260043561221c565b341561074357600080fd5b610490600160a060020a036004351660243560443560643560843560a435151560c43560e435612230565b341561077957600080fd5b610292600435612318565b341561078f57600080fd5b61029261232c565b34156107a257600080fd5b610384600435612345565b34156107b857600080fd5b610292600435612386565b61029260043561ffff6024351661239a565b34156107e057600080fd5b61029261246f565b34156107f357600080fd5b610384600435600160a060020a036024351660443560643560843560a43560c43515156129b9565b341561082657600080fd5b610384600435612a3d565b341561083c57600080fd5b610292600160a060020a0360043516612a84565b341561085b57600080fd5b610384600435602435612b31565b341561087457600080fd5b61033d612b7a565b341561088757600080fd5b610292600435612b89565b341561089d57600080fd5b6108ae600435602435604435612c88565b6040518086815260200180602001806020018060200180602001858103855289818151815260200191508051906020019060200280838360005b838110156109005780820151838201526020016108e8565b50505050905001858103845288818151815260200191508051906020019060200280838360005b8381101561093f578082015183820152602001610927565b50505050905001858103835287818151815260200191508051906020019060200280838360005b8381101561097e578082015183820152602001610966565b50505050905001858103825286818151815260200191508051906020019060200280838360005b838110156109bd5780820151838201526020016109a5565b50505050905001995050505050505050505060405180910390f35b34156109e357600080fd5b610292600435612e59565b34156109f957600080fd5b61033d612ece565b6000610a1933600035600160e060020a031916612edd565b1515610a7c57600080516020613dc78339815191523033600035600160e060020a031916604051600160a060020a039384168152919092166020820152600160e060020a03199091166040808301919091526060909101905180910390a1610aa0565b600160a060020a0382161515610a9157600080fd5b610a9a82612fb1565b50600190505b919050565b600081600160a060020a033316610ac483600a8463ffffffff612fe216565b600160a060020a031614610ad757610b40565b82600280610aee600060088563ffffffff612fe216565b14610b0b57610afe6132cb612ff7565b506132cb60005260206000f35b610b1f60006011874263ffffffff61306016565b610b3860088660035b600092919063ffffffff61306016565b600193505b50505b50919050565b600080610b5c81601a858763ffffffff61307216565b9050610b808484610b7760006019838563ffffffff61307216565b603c01846121a6565b91505b5092915050565b6000610ba233600035600160e060020a031916612edd565b1515610c0557600080516020613dc78339815191523033600035600160e060020a031916604051600160a060020a039384168152919092166020820152600160e060020a03199091166040808301919091526060909101905180910390a1610aa0565b5060048054600160a060020a03831673ffffffffffffffffffffffffffffffffffffffff199091161790556001919050565b6000610c4b81600d8463ffffffff612fe216565b92915050565b6000610c4b81600c8463ffffffff612fe216565b6000610c4b8160098463ffffffff612fe216565b84610c82613092565b600160a060020a03167fa3bc0f53ddeedcb11a232f5b24300a8fe43af2c2dcc30b46dbc64476e762a186868686866040518085600160a060020a0316600160a060020a0316815260200184815260200183815260200182815260200194505050505060405180910390a35050505050565b600080808084600160a060020a033316610d158360098463ffffffff612fe216565b600160a060020a031614610d2857610eda565b610d3186611346565b935060028414158015610d45575060038414155b8015610d52575060048414155b8015610d5f575060058414155b15610d7657610d6f6132cb612ff7565b9450610eda565b610d7f8661171c565b9250610d946000600a8863ffffffff612fe216565b600454909250600160a060020a03166355f0b76e878486610dbe600060098563ffffffff612fe216565b886000806040516020015260405160e060020a63ffffffff89160281526004810196909652600160a060020a039485166024870152604486019390935292166064840152608483019190915260a482015260c401602060405180830381600087803b1515610e2b57600080fd5b6102c65a03f11515610e3c57600080fd5b505050604051805195505060018514610e5857610d6f85612ff7565b610e67602587610b2889611346565b610e746008876007610b28565b610e7c612ece565b600160a060020a0316639c6e1d468760405160e060020a63ffffffff84160281526004810191909152602401600060405180830381600087803b1515610ec157600080fd5b6102c65a03f11515610ed257600080fd5b505050600194505b50505050919050565b6000610c4b81601b600160a060020a03851663ffffffff61309616565b6000610f1833600035600160e060020a031916612edd565b1515610f7b57600080516020613dc78339815191523033600035600160e060020a031916604051600160a060020a039384168152919092166020820152600160e060020a03199091166040808301919091526060909101905180910390a1610aa0565b5060038054600160a060020a03831673ffffffffffffffffffffffffffffffffffffffff199091161790556001919050565b6000610fc533600035600160e060020a031916612edd565b151561102857600080516020613dc78339815191523033600035600160e060020a031916604051600160a060020a039384168152919092166020820152600160e060020a03199091166040808301919091526060909101905180910390a1610aa0565b61103b600060068463ffffffff6130a316565b506001919050565b6000610c4b81600b8463ffffffff612fe216565b6000610c4b81600a8463ffffffff612fe216565b600081600160a060020a03331661108a83600a8463ffffffff612fe216565b600160a060020a03161461109d57610b40565b826004806110b4600060088563ffffffff612fe216565b146110c457610afe6132cb612ff7565b6110cd85613125565b506110e260006013874263ffffffff61306016565b610b386008866005610b28565b600080856110fc8161320a565b158061110e575061110c81613221565b155b1561111857611244565b856111228161320a565b1580611134575061113281613221565b155b1561113e57611242565b8580151561114b57611240565b61115d6000600763ffffffff61324716565b600101935061117660006024868263ffffffff6132a616565b611189600060078663ffffffff6132ba16565b61119d6000600f864263ffffffff61306016565b6111aa6008856001610b28565b6111be60006009863363ffffffff61331a16565b6111d26000600c868c63ffffffff61306016565b6111e66000600d868b63ffffffff61306016565b6111fa6000600e868a63ffffffff61306016565b61120e6000600b868963ffffffff61306016565b61122b6000601b600160a060020a0333168763ffffffff61332f16565b61123b84338b8b8b8b600061333b565b600194505b505b505b5050949350505050565b611256613d81565b60008060008061127f601e8e600160a060020a031660010260006130969092919063ffffffff16565b935083871061128d57600080fd5b83868801111561129f578684036112a1565b855b9550856040518059106112b15750595b908082528060200260200182016040525094508691505b858701821015611336576112f7601e8e600160a060020a03166001028460006133dc909392919063ffffffff16565b9050611307818d8d8d8d8d6133ea565b1561132b578085848151811061131957fe5b60209081029091010152600192909201915b8160010191506112c8565b5050505098975050505050505050565b6000610c4b8160088463ffffffff612fe216565b600084600160a060020a0333166113798360098463ffffffff612fe216565b600160a060020a0316141561138d57611475565b856001806113a4600060088563ffffffff612fe216565b146113b457610afe6132cb612ff7565b6113bf878787613495565b15156113d7576113d06132c9612ff7565b9350611242565b6113e0886134fe565b15156113f1576113d06132ca612ff7565b611406600060188a338b63ffffffff6135c416565b61141b600060198a338a63ffffffff6135c416565b6114306000601a8a338963ffffffff6135c416565b61144d6000601e600160a060020a0333168b63ffffffff61332f16565b611461600060218a3363ffffffff6135e116565b61146e88338989896135f6565b6001935050505b50949350505050565b60008061149381600a8563ffffffff612fe216565b905061149f8184610b46565b9392505050565b816114af613092565b600160a060020a03167fd4a20f0b641ef272f167d4b357afcf41234f55e836b7f4c2fe2df4714ac526088360405190815260200160405180910390a35050565b816114f8613092565b600160a060020a03167fcd1a96dff5c14af15cc6cc02bc309e3abef75468ceced0d0435f20bef5a9db3a83604051600160a060020a03909116815260200160405180910390a35050565b6000610c4b81601e600160a060020a03851663ffffffff61309616565b611567613092565b600160a060020a03167f09e0713b45664e161c202b19bb4574ee83dfa056f9bfdee56847b3971d9682218260405190815260200160405180910390a250565b60008080836006806115c1600060088563ffffffff612fe216565b146115d157610afe6132cb612ff7565b6115da8661171c565b93506115ef6000600a8863ffffffff612fe216565b600454909350600160a060020a03166355f0b76e878587611619600060098563ffffffff612fe216565b896000806040516020015260405160e060020a63ffffffff89160281526004810196909652600160a060020a039485166024870152604486019390935292166064840152608483019190915260a482015260c401602060405180830381600087803b151561168657600080fd5b6102c65a03f1151561169757600080fd5b5050506040518051955050600185146116b357610d6f85612ff7565b6116c2602587610b2889611346565b6116cf6008876007610b28565b6116d7612ece565b600160a060020a031663d64956768760405160e060020a63ffffffff84160281526004810191909152602401600060405180830381600087803b1515610ec157600080fd5b60008080808061173481600a8863ffffffff612fe216565b935061173f86611346565b925060068314156118605761175e60006019888763ffffffff61307216565b603c9081019250611778600060178963ffffffff612fe216565b61178b600060128a63ffffffff612fe216565b61179e600060148b63ffffffff612fe216565b03038115156117a957fe5b049050603c811180156117bc5750818111155b156117f3576117d56000601a888763ffffffff61307216565b6117e960006018898863ffffffff61307216565b8202019450610eda565b8181111561182d5761180f6000601a888763ffffffff61307216565b61182360006018898863ffffffff61307216565b8302019450610eda565b6118416000601a888763ffffffff61307216565b61185560006018898863ffffffff61307216565b603c02019450610eda565b600483148061186f5750600583145b156118a75761188860006018888763ffffffff61307216565b603c0261189f6000601a898863ffffffff61307216565b019450610eda565b60028314806118b65750600383145b15610eda57610d6f6000601a888763ffffffff61307216565b6118d7613d81565b600080836040518059106118e85750595b908082528060200260200182016040525092508490505b83850181101561194357611917818b8b8b8b8b6133ea565b1561193b578083838151811061192957fe5b60209081029091010152600191909101905b6001016118ff565b5050979650505050505050565b600082600160a060020a03331661196f8360098463ffffffff612fe216565b600160a060020a03161461198257610b83565b83600180611999600060088563ffffffff612fe216565b146119a957610afe6132cb612ff7565b6119bd60006018888863ffffffff61307216565b15156119d5576119ce6132cc612ff7565b9350611b27565b6119e96000600a888863ffffffff61331a16565b6119f28661147e565b34146119fd57600080fd5b600454600160a060020a031663decfd51b34883360006040516020015260405160e060020a63ffffffff86160281526004810192909252600160a060020a031660248201526044016020604051808303818588803b1515611a5d57600080fd5b6125ee5a03f11515611a6e57600080fd5b50505050604051805194505060018414611a8757600080fd5b611a9b60006010884263ffffffff61306016565b611aa86008876002610b28565b611ab28686613684565b611aba612ece565b600160a060020a0316638680e52d878760405160e060020a63ffffffff85160281526004810192909252600160a060020a03166024820152604401600060405180830381600087803b1515611b0e57600080fd5b6102c65a03f11515611b1f57600080fd5b505050600193505b50505092915050565b600081600160a060020a033316611b4f8360098463ffffffff612fe216565b600160a060020a031614611b6257610b40565b82600380611b79600060088563ffffffff612fe216565b14611b8957610afe6132cb612ff7565b611b966008866004610b28565b611baa60006012874263ffffffff61306016565b611bb2612ece565b600160a060020a031663b7d8b1d9864260405160e060020a63ffffffff851602815260048101929092526024820152604401600060405180830381600087803b1515611bfd57600080fd5b6102c65a03f11515611c0e57600080fd5b506001979650505050505050565b80611c25613092565b600160a060020a03167fc81a87bb9e1f6f23054c21dd9959f8aa3b2f86077a49ccac452fadff6731304c60405160405180910390a350565b600081600160a060020a033316611c7c8360098463ffffffff612fe216565b600160a060020a031614611c8f57610b40565b82600580611ca6600060088563ffffffff612fe216565b14611cb657610afe6132cb612ff7565b611cca60006014874263ffffffff61306016565b611cd76008866006610b28565b611cdf612ece565b600160a060020a031663ef29a7e5864260405160e060020a63ffffffff851602815260048101929092526024820152604401600060405180830381600087803b1515611bfd57600080fd5b611d32613d81565b600080611d4681600663ffffffff6136fa16565b91506010845102604051805910611d5a5750595b90808252806020026020018201604052509250600090505b83518110156120fe57838181518110611d8757fe5b90602001906020020151836010830281518110611da057fe5b60209081029091010152611dd46009858381518110611dbb57fe5b906020019060200201516000919063ffffffff612fe216565b600160a060020a0316836002601084020181518110611def57fe5b60209081029091010152611e0a600a858381518110611dbb57fe5b600160a060020a0316836003601084020181518110611e2557fe5b60209081029091010152611e40600c858381518110611dbb57fe5b836004601084020181518110611e5257fe5b60209081029091010152611e6d600d858381518110611dbb57fe5b836005601084020181518110611e7f57fe5b60209081029091010152611e9a600e858381518110611dbb57fe5b836006601084020181518110611eac57fe5b60209081029091010152611ec7600b858381518110611dbb57fe5b836007601084020181518110611ed957fe5b60209081029091010152611ef46008858381518110611dbb57fe5b836008601084020181518110611f0657fe5b60209081029091010152611f21600f858381518110611dbb57fe5b836009601084020181518110611f3357fe5b60209081029091010152611f4e6010858381518110611dbb57fe5b83600a601084020181518110611f6057fe5b60209081029091010152611f7b6011858381518110611dbb57fe5b83600b601084020181518110611f8d57fe5b60209081029091010152611fa86012858381518110611dbb57fe5b83600c601084020181518110611fba57fe5b60209081029091010152611fd56013858381518110611dbb57fe5b83600d601084020181518110611fe757fe5b602090810290910101526120026014858381518110611dbb57fe5b83600e60108402018151811061201457fe5b6020908102909101015261202f6025858381518110611dbb57fe5b83600f60108402018151811061204157fe5b60209081029091010152600160a060020a038216156120f65781600160a060020a031663b1bf051085838151811061207557fe5b9060200190602002015160006040516020015260405160e060020a63ffffffff84160281526004810191909152602401602060405180830381600087803b15156120be57600080fd5b6102c65a03f115156120cf57600080fd5b505050604051805190508360108302600101815181106120eb57fe5b602090810290910101525b600101611d72565b5050919050565b600554600160a060020a031681565b8161211d613092565b600160a060020a03167f799a32325be3cd39f977d4cc026272cc3dd97d9dd46c5751c7c9900d9f1ffcdf8360405190815260200160405180910390a35050565b81612166613092565b600160a060020a03167f63efc44d4747c4669c8be4f317453622684e7daab7cf5772795e6413a40c26dd8360405190815260200160405180910390a35050565b6000806121bc816018878963ffffffff61307216565b9050600a600b858302850102049695505050505050565b816121dc613092565b600160a060020a03167f8cd445c80d0841aae8f229eddbed0de5befd5ff6fc2ca0510ee0621f5d6d5bef8360405190815260200160405180910390a35050565b6000610c4b8160218463ffffffff61309616565b612238613d81565b600080600080612261601b8e600160a060020a031660010260006130969092919063ffffffff16565b935083871061226f57600080fd5b83868801111561228157868403612283565b855b9550856040518059106122935750595b908082528060200260200182016040525094508691505b858701821015611336576122d9601b8e600160a060020a03166001028460006133dc909392919063ffffffff16565b90506122e9818d8d8d8d8d6133ea565b1561230d57808584815181106122fb57fe5b60209081029091010152600192909201915b8160010191506122aa565b6000610c4b8160258463ffffffff612fe216565b600061233f81600763ffffffff61324716565b90505b90565b8061234e613092565b600160a060020a03167fdf20fd1e76bc69d672e4814fafb2c449bba3a5369d8359adf9e05e6fde87b05660405160405180910390a350565b6000610c4b81600e8463ffffffff612fe216565b600082600160a060020a0333166123b98360098463ffffffff612fe216565b600160a060020a0316146123cc57610b83565b836004806123e3600060088563ffffffff612fe216565b146123f357610afe6132cb612ff7565b61ffff8516151561240357600080fd5b61240d8686613759565b151561241857600080fd5b612420612ece565b600160a060020a03166361f30408878760405160e060020a63ffffffff8516028152600481019290925261ffff166024820152604401600060405180830381600087803b1515611b0e57600080fd5b600061248733600035600160e060020a031916612edd565b15156124ea57600080516020613dc78339815191523033600035600160e060020a031916604051600160a060020a039384168152919092166020820152600160e060020a03199091166040808301919091526060909101905180910390a1612342565b61251b60077f6a6f6273436f756e74000000000000000000000000000000000000000000000063ffffffff61385c16565b61254c60087f6a6f62537461746500000000000000000000000000000000000000000000000063ffffffff61386c16565b61257d60097f6a6f62436c69656e74000000000000000000000000000000000000000000000063ffffffff61386c16565b6125ae600a7f6a6f62576f726b6572000000000000000000000000000000000000000000000063ffffffff61386c16565b6125df600b7f6a6f6244657461696c734950465348617368000000000000000000000000000063ffffffff61386c16565b612610600c7f6a6f62536b696c6c73417265610000000000000000000000000000000000000063ffffffff61386c16565b612641600d7f6a6f62536b696c6c7343617465676f727900000000000000000000000000000063ffffffff61386c16565b612672600e7f6a6f62536b696c6c73000000000000000000000000000000000000000000000063ffffffff61386c16565b6126a3600f7f6a6f62437265617465644174000000000000000000000000000000000000000063ffffffff61386c16565b6126d460107f6a6f62416363657074656441740000000000000000000000000000000000000063ffffffff61386c16565b61270560117f6a6f6250656e64696e675374617274417400000000000000000000000000000063ffffffff61386c16565b61273660127f6a6f62537461727454696d65000000000000000000000000000000000000000063ffffffff61386c16565b61276760137f6a6f6250656e64696e6746696e6973684174000000000000000000000000000063ffffffff61386c16565b61279860147f6a6f6246696e69736854696d650000000000000000000000000000000000000063ffffffff61386c16565b6127c960157f6a6f62506175736564000000000000000000000000000000000000000000000063ffffffff61386c16565b6127fa60167f6a6f62506175736564417400000000000000000000000000000000000000000063ffffffff61386c16565b61282b60177f6a6f62506175736564466f72000000000000000000000000000000000000000063ffffffff61386c16565b61285c60187f6a6f624f6666657252617465000000000000000000000000000000000000000063ffffffff61386c16565b61288d60197f6a6f624f66666572457374696d6174650000000000000000000000000000000063ffffffff61386c16565b6128be601a7f6a6f624f666665724f6e746f700000000000000000000000000000000000000063ffffffff61386c16565b6128ef60257f6a6f6246696e616c697a6564417400000000000000000000000000000000000063ffffffff61386c16565b612920601b7f636c69656e744a6f62730000000000000000000000000000000000000000000063ffffffff61387a16565b612951601e7f776f726b65724a6f62730000000000000000000000000000000000000000000063ffffffff61387a16565b61298260217f6a6f624f6666657273000000000000000000000000000000000000000000000063ffffffff61387a16565b6129b360247f62696e645374617475730000000000000000000000000000000000000000000063ffffffff61386c16565b50600190565b866129c2613092565b600160a060020a03167f6e24f6319f952ae574b3c29eab4ac31223460e18e38fa3d3b4fd8dca48956725888888888888604051600160a060020a03909616865260208601949094526040808601939093526060850191909152608084015290151560a083015260c0909101905180910390a350505050505050565b612a45613092565b600160a060020a03167fbb8f0c1d8804cd86e7873ec11cb00af945c8c0ebd061a68b28617034803464158260405190815260200160405180910390a250565b6000612a9c33600035600160e060020a031916612edd565b1515612aff57600080516020613dc78339815191523033600035600160e060020a031916604051600160a060020a039384168152919092166020820152600160e060020a03199091166040808301919091526060909101905180910390a1610aa0565b5060058054600160a060020a03831673ffffffffffffffffffffffffffffffffffffffff199091161790556001919050565b81612b3a613092565b600160a060020a03167fca4a8dc0f20a95e32a83e0e73d9c75cbbdd5d691b99484161abb77f788d2f8d98360405190815260200160405180910390a35050565b600454600160a060020a031681565b600081600160a060020a033316612ba883600a8463ffffffff612fe216565b600160a060020a031614612bbb57610b40565b82600480612bd2600060088563ffffffff612fe216565b14612be257610afe6132cb612ff7565b612bf5600060158763ffffffff61388416565b15612c0c57612c056132cd612ff7565b9350610b3d565b612c216000601587600163ffffffff6132a616565b612c3560006016874263ffffffff61306016565b612c3d612ece565b600160a060020a031663c26d0c2c864260405160e060020a63ffffffff851602815260048101929092526024820152604401600060405180830381600087803b1515611bfd57600080fd5b6000612c92613d81565b612c9a613d81565b612ca2613d81565b612caa613d81565b6000806000612cb88b61221c565b9250828a1015612cc757612e4b565b82898b011115612cd957898303612cdb565b885b98508a975088604051805910612cee5750595b9080825280602002602001820160405250965088604051805910612d0f5750595b9080825280602002602001820160405250955088604051805910612d305750595b9080825280602002602001820160405250945088604051805910612d515750595b90808252806020026020018201604052509350600091508990505b888a01811015612e4b57612d8a600060218d8463ffffffff6133dc16565b878381518110612d9657fe5b600160a060020a03909216602092830290910190910152612dd960188c898581518110612dbf57fe5b90602001906020020151600092919063ffffffff61307216565b868381518110612de557fe5b60209081029091010152612e0160198c898581518110612dbf57fe5b858381518110612e0d57fe5b60209081029091010152612e29601a8c898581518110612dbf57fe5b848381518110612e3557fe5b6020908102909101015260019182019101612d6c565b505050939792965093509350565b600081600160a060020a033316612e7883600a8463ffffffff612fe216565b600160a060020a031614612e8b57610b40565b82600480612ea2600060088563ffffffff612fe216565b14612eb257610afe6132cb612ff7565b612ebb85613125565b935060018414610b3d57612c0584612ff7565b600254600160a060020a031690565b600030600160a060020a031683600160a060020a03161415612f0157506001610c4b565b600354600160a060020a03161515612f1b57506000610c4b565b600354600160a060020a031663b700961384308560006040516020015260405160e060020a63ffffffff8616028152600160a060020a039384166004820152919092166024820152600160e060020a03199091166044820152606401602060405180830381600087803b1515612f9057600080fd5b6102c65a03f11515612fa157600080fd5b5050506040518051949350505050565b60028054600160a060020a03831673ffffffffffffffffffffffffffffffffffffffff199091161790556001919050565b6000612fef848484613899565b949350505050565b6000613001612ece565b600160a060020a0316638834277e8360405160e060020a63ffffffff84160281526004810191909152602401600060405180830381600087803b151561304657600080fd5b6102c65a03f1151561305757600080fd5b50929392505050565b61306c84848484613933565b50505050565b6000613089858585600160a060020a0386166139c5565b95945050505050565b3390565b6000612fef8484846139ea565b825460018401548354600160a060020a03909216916379a7cfee91908460405160e060020a63ffffffff861602815260048101939093526024830191909152600160a060020a03166044820152606401600060405180830381600087803b151561310c57600080fd5b6102c65a03f1151561311d57600080fd5b505050505050565b60006131398160158463ffffffff61388416565b151561314857506132ce610aa0565b61315c60006015848263ffffffff6132a616565b61319b601783613175600060168363ffffffff612fe216565b420361318a600060178863ffffffff612fe216565b60009392910163ffffffff61306016565b6131a3612ece565b600160a060020a031663b633d272834260405160e060020a63ffffffff851602815260048101929092526024820152604401600060405180830381600087803b15156131ee57600080fd5b6102c65a03f115156131ff57600080fd5b506001949350505050565b60008115801590610c4b5750506000198101161590565b7faaaaaaaaaaaaaaaaaaaaaaaaaaaaaaaaaaaaaaaaaaaaaaaaaaaaaaaaaaaaaaaa161590565b815460018301548254600092600160a060020a0316916353aa3f5e91846040516020015260405160e060020a63ffffffff851602815260048101929092526024820152604401602060405180830381600087803b1515612f9057600080fd5b61306c8484846132b5856139f7565b613933565b825460018401548354600160a060020a03909216916353e7168b91908460405160e060020a63ffffffff8616028152600481019390935260248301919091526044820152606401600060405180830381600087803b151561310c57600080fd5b61306c848484600160a060020a038516613933565b61306c84848484613a11565b613343612ece565b600160a060020a031663e270398a8888888888888860405160e060020a63ffffffff8a160281526004810197909752600160a060020a03909516602487015260448601939093526064850191909152608484015260a4830152151560c482015260e401600060405180830381600087803b15156133bf57600080fd5b6102c65a03f115156133d057600080fd5b50505050505050505050565b600061308985858585613a1d565b60006133fe8160088963ffffffff612fe216565b86148015613421575061341a600060158963ffffffff61388416565b1515821515145b8015613444575061344461343e6000600c8a63ffffffff612fe216565b86613a2b565b801561346757506134676134616000600d8a63ffffffff612fe216565b85613a2b565b801561348a575061348a6134846000600e8a63ffffffff612fe216565b84613a2b565b979650505050505050565b60008080808615806134a5575085155b156134b357600093506134f4565b60009250600191505b603c860182116134e65750818601828110156134db57600093506134f4565b9150600101816134bc565b82600a86820104600b021193505b5050509392505050565b600554600090600160a060020a0316631e0b8c873361352584600c8763ffffffff612fe216565b6135386000600d8863ffffffff612fe216565b61354b6000600e8963ffffffff612fe216565b60006040516020015260405160e060020a63ffffffff8716028152600160a060020a039094166004850152602484019290925260448301526064820152608401602060405180830381600087803b15156135a457600080fd5b6102c65a03f115156135b557600080fd5b50505060405180519392505050565b6135da858585600160a060020a03861685613a31565b5050505050565b61306c848484600160a060020a038516613a11565b6135fe612ece565b600160a060020a0316631972b464868686868660405160e060020a63ffffffff88160281526004810195909552600160a060020a03909316602485015260448401919091526064830152608482015260a401600060405180830381600087803b151561366957600080fd5b6102c65a03f1151561367a57600080fd5b5050505050505050565b6000808061369a8160218763ffffffff61309616565b9250600091505b828210156135da576136bd60006021878563ffffffff6133dc16565b9050600160a060020a03808216908516146136ef576136ef6000601e600160a060020a0384168863ffffffff613a5516565b8160010191506136a1565b815460018301548254600092600160a060020a03169163d3a3968691846040516020015260405160e060020a63ffffffff851602815260048101929092526024820152604401602060405180830381600087803b1515612f9057600080fd5b6000806137658461147e565b90506137c06019856137806000600a8363ffffffff612fe216565b61ffff87166137ae60198a61379e6000600a8363ffffffff612fe216565b600092919063ffffffff61307216565b6000949392910163ffffffff6135c416565b34816137cb8661147e565b03146137d657600080fd5b600454600160a060020a031663decfd51b34863360006040516020015260405160e060020a63ffffffff86160281526004810192909252600160a060020a031660248201526044016020604051808303818588803b151561383657600080fd5b6125ee5a03f1151561384757600080fd5b50505050604051805160011495945050505050565b81546138689082613a61565b9055565b613876828261385c565b5050565b6138768282613a77565b6000612fef613894858585613899565b613a81565b825460018401548354600092600160a060020a0316916337d9d7fc9185604051918252602082015260409081019051809103902060006040516020015260405160e060020a63ffffffff851602815260048101929092526024820152604401602060405180830381600087803b151561391157600080fd5b6102c65a03f1151561392257600080fd5b505050604051805195945050505050565b835460018501548454600160a060020a039092169163a14ff85791908560405191825260208201526040908101905180910390208460405160e060020a63ffffffff8616028152600481019390935260248301919091526044820152606401600060405180830381600087803b15156139ab57600080fd5b6102c65a03f115156139bc57600080fd5b50505050505050565b6000613089858585856040519182526020820152604090810190518091039020613899565b6000612fef848484613a86565b600081613a05576000613a08565b60015b60ff1692915050565b61306c84848484613a93565b600061308985858585613ae7565b16151590565b6135da85858585604051918252602082015260409081019051809103902084613933565b61306c84848484613afb565b81151580613a6d575080155b1561387657600080fd5b6138768282613b07565b151590565b6000612fef848484613bd0565b6000613aa185858585613c48565b15613aab576135da565b613ab6858585613a86565b6001019050613acb8560028601858486613a31565b613adb8560018601858585613a31565b6135da85858584613c64565b6000613089856002860185600186016139c5565b61306c84848484613cdc565b613b4882826040519081527f636f756e740000000000000000000000000000000000000000000000000000006020820152602501604051809103902061385c565b613b8c82600101826040519081527f696e6465786573000000000000000000000000000000000000000000000000006020820152602701604051809103902061385c565b61387682600201826040519081527f76616c75657300000000000000000000000000000000000000000000000000006020820152602601604051809103902061385c565b825460018401548354600092600160a060020a0316916353aa3f5e9185604051918252602082015260409081019051809103902060006040516020015260405160e060020a63ffffffff851602815260048101929092526024820152604401602060405180830381600087803b151561391157600080fd5b6000613c59858560010185856139c5565b151595945050505050565b835460018501548454600160a060020a03909216916353e7168b91908560405191825260208201526040908101905180910390208460405160e060020a63ffffffff8616028152600481019390935260248301919091526044820152606401600060405180830381600087803b15156139ab57600080fd5b6000806000613ced87878787613c48565b1515613cf8576139bc565b613d03878787613a86565b9250613d14876002880187866139c5565b9150613d25878760010187876139c5565b905082811015613d4f57613d3f8760018801878585613a31565b613d4f8760028801878486613a31565b613d60876001880187876000613a31565b613d71876002880187866000613a31565b6139bc8787876000198701613c64565b60206040519081016040526000815290565b825473ffffffffffffffffffffffffffffffffffffffff1916600160a060020a039290921691909117825560019091015556005133a133185f1023427a2e90f18506b27db994977ce0c0faafd514a7dd109ae0a165627a7a7230582027ed68dc77d4c396496b20a3fe04306ec17f7205dccd673681c0fb8ec58d9f570029",
  "source": "/**\n * Copyright 20172018, LaborX PTY\n * Licensed under the AGPL Version 3 license.\n */\n\npragma solidity ^0.4.18;\n\n\nimport './adapters/MultiEventsHistoryAdapter.sol';\nimport './adapters/Roles2LibraryAdapter.sol';\nimport './adapters/StorageAdapter.sol';\nimport './base/BitOps.sol';\n\n\ninterface BoardControllerAccessor {\n    function getJobsBoard(uint _jobId) external view returns (uint);\n}\n\n\ncontract UserLibraryInterface {\n    function hasSkills(address _user, uint _area, uint _category, uint _skills) public view returns (bool);\n}\n\n\ncontract PaymentProcessorInterface {\n    function lockPayment(bytes32 _operationId, address _from) public payable returns (uint);\n    function releasePayment(bytes32 _operationId, address _to, uint _value, address _change, uint _feeFromValue, uint _additionalFee) public returns (uint);\n}\n\n\ncontract JobController is StorageAdapter, MultiEventsHistoryAdapter, Roles2LibraryAdapter, BitOps {\n\n    uint constant JOB_CONTROLLER_SCOPE = 13000;\n    uint constant JOB_CONTROLLER_INVALID_ESTIMATE = JOB_CONTROLLER_SCOPE + 1;\n    uint constant JOB_CONTROLLER_INVALID_SKILLS = JOB_CONTROLLER_SCOPE + 2;\n    uint constant JOB_CONTROLLER_INVALID_STATE = JOB_CONTROLLER_SCOPE + 3;\n    uint constant JOB_CONTROLLER_WORKER_RATE_NOT_SET = JOB_CONTROLLER_SCOPE + 4;\n    uint constant JOB_CONTROLLER_WORK_IS_ALREADY_PAUSED = JOB_CONTROLLER_SCOPE + 5;\n    uint constant JOB_CONTROLLER_WORK_IS_NOT_PAUSED = JOB_CONTROLLER_SCOPE + 6;\n\n    event JobPosted(address indexed self, uint indexed jobId, address client, uint skillsArea, uint skillsCategory, uint skills, bytes32 detailsIPFSHash, bool bindStatus);\n    event JobOfferPosted(address indexed self, uint indexed jobId, address worker, uint rate, uint estimate, uint ontop);\n    event JobOfferAccepted(address indexed self, uint indexed jobId, address worker);\n    event WorkStarted(address indexed self, uint indexed jobId, uint at);\n    event TimeAdded(address indexed self, uint indexed jobId, uint time);  // Additional `time` in minutes\n    event WorkPaused(address indexed self, uint indexed jobId, uint at);\n    event WorkResumed(address indexed self, uint indexed jobId, uint at);\n    event WorkFinished(address indexed self, uint indexed jobId, uint at);\n    event PaymentReleased(address indexed self, uint indexed jobId);\n    event JobCanceled(address indexed self, uint indexed jobId);\n\n    enum JobState { NOT_SET, CREATED, ACCEPTED, PENDING_START, STARTED, PENDING_FINISH, FINISHED, FINALIZED }\n\n    PaymentProcessorInterface public paymentProcessor;\n    UserLibraryInterface public userLibrary;\n\n    StorageInterface.Address boardController;\n\n    StorageInterface.UInt jobsCount;\n\n    StorageInterface.UIntUIntMapping jobState;\n    StorageInterface.UIntAddressMapping jobClient;  // jobId => jobClient\n    StorageInterface.UIntAddressMapping jobWorker;  // jobId => jobWorker\n    StorageInterface.UIntBytes32Mapping jobDetailsIPFSHash;\n\n    StorageInterface.UIntUIntMapping jobSkillsArea;  // jobId => jobSkillsArea\n    StorageInterface.UIntUIntMapping jobSkillsCategory;  // jobId => jobSkillsCategory\n    StorageInterface.UIntUIntMapping jobSkills;  // jobId => jobSkills\n\n    StorageInterface.UIntUIntMapping jobCreatedAt;\n    StorageInterface.UIntUIntMapping jobAcceptedAt;\n    StorageInterface.UIntUIntMapping jobPendingStartAt;\n    StorageInterface.UIntUIntMapping jobStartTime;\n    StorageInterface.UIntUIntMapping jobPendingFinishAt;\n    StorageInterface.UIntUIntMapping jobFinishTime;\n    StorageInterface.UIntBoolMapping jobPaused;\n    StorageInterface.UIntUIntMapping jobPausedAt;\n    StorageInterface.UIntUIntMapping jobPausedFor;\n\n    StorageInterface.UIntAddressUIntMapping jobOfferRate; // Per minute.\n    StorageInterface.UIntAddressUIntMapping jobOfferEstimate; // In minutes.\n    StorageInterface.UIntAddressUIntMapping jobOfferOntop; // Getting to the workplace, etc.\n\n    /// @dev mapping(client address => set(job ids))\n    StorageInterface.UIntSetMapping clientJobs;\n    /// @dev mapping(worker's address => set(job ids))\n    StorageInterface.UIntSetMapping workerJobs;\n    /// @dev mapping(posted offer job id => set(worker addresses))\n    StorageInterface.AddressesSetMapping jobOffers;\n\n    StorageInterface.UIntBoolMapping bindStatus;\n\n    // At which state job has been marked as FINALIZED\n    StorageInterface.UIntUIntMapping jobFinalizedAt;\n\n    modifier onlyClient(uint _jobId) {\n        if (store.get(jobClient, _jobId) != msg.sender) {\n            return;\n        }\n        _;\n    }\n\n    modifier onlyWorker(uint _jobId) {\n        if (store.get(jobWorker, _jobId) != msg.sender) {\n            return;\n        }\n        _;\n    }\n\n    modifier onlyNotClient(uint _jobId) {\n        if (store.get(jobClient, _jobId) == msg.sender) {\n            return;\n        }\n        _;\n    }\n\n    modifier onlyJobState(uint _jobId, JobState _jobState) {\n        if (store.get(jobState, _jobId) != uint(_jobState)) {\n            _emitErrorCode(JOB_CONTROLLER_INVALID_STATE);\n            assembly {\n                mstore(0, 13003) // JOB_CONTROLLER_INVALID_STATE\n                return(0, 32)\n            }\n        }\n        _;\n    }\n\n    function JobController(\n        Storage _store,\n        bytes32 _crate,\n        address _roles2Library\n    )\n    StorageAdapter(_store, _crate)\n    Roles2LibraryAdapter(_roles2Library)\n    public\n    {\n    }\n\n    function init() auth external returns (uint) {\n        jobsCount.init(\"jobsCount\");\n\n        jobState.init(\"jobState\");\n        jobClient.init(\"jobClient\");\n        jobWorker.init(\"jobWorker\");\n        jobDetailsIPFSHash.init(\"jobDetailsIPFSHash\");\n\n        jobSkillsArea.init(\"jobSkillsArea\");\n        jobSkillsCategory.init(\"jobSkillsCategory\");\n        jobSkills.init(\"jobSkills\");\n\n\n        jobCreatedAt.init(\"jobCreatedAt\");\n        jobAcceptedAt.init(\"jobAcceptedAt\");\n        jobPendingStartAt.init(\"jobPendingStartAt\");\n        jobStartTime.init(\"jobStartTime\");\n        jobPendingFinishAt.init(\"jobPendingFinishAt\");\n        jobFinishTime.init(\"jobFinishTime\");\n        jobPaused.init(\"jobPaused\");\n        jobPausedAt.init(\"jobPausedAt\");\n        jobPausedFor.init(\"jobPausedFor\");\n\n        jobOfferRate.init(\"jobOfferRate\");\n        jobOfferEstimate.init(\"jobOfferEstimate\");\n        jobOfferOntop.init(\"jobOfferOntop\");\n\n        jobFinalizedAt.init(\"jobFinalizedAt\");\n\n        clientJobs.init(\"clientJobs\");\n        workerJobs.init(\"workerJobs\");\n        jobOffers.init(\"jobOffers\");\n\n        bindStatus.init(\"bindStatus\");\n            \n        return OK;\n    }\n\n    function setupEventsHistory(address _eventsHistory) auth external returns (uint) {\n        require(_eventsHistory != 0x0);\n\n        _setEventsHistory(_eventsHistory);\n        return OK;\n    }\n\n    /// @notice Sets contract address that satisfies BoardControllerAccessor interface\n    function setBoardController(address _boardController) auth external returns (uint) {\n        store.set(boardController, _boardController);\n        return OK;\n    }\n\n    function setPaymentProcessor(PaymentProcessorInterface _paymentProcessor) auth external returns (uint) {\n        paymentProcessor = _paymentProcessor;\n        return OK;\n    }\n\n    function setUserLibrary(UserLibraryInterface _userLibrary) auth external returns (uint) {\n        userLibrary = _userLibrary;\n        return OK;\n    }\n\n    function calculateLock(address worker, uint _jobId, uint _time, uint _onTop) public view returns (uint) {\n        // Lock additional working hour + 10% of resulting amount\n        uint rate = store.get(jobOfferRate, _jobId, worker);\n        return ((rate * (_time) + _onTop) * 11) / 10;\n    }\n\n    function calculateLockAmount(uint _jobId) public view returns (uint) {\n        address worker = store.get(jobWorker, _jobId);\n        // Lock additional working hour + 10% of resulting amount\n        return calculateLockAmountFor(worker, _jobId);\n    }\n\n    function calculateLockAmountFor(address worker, uint _jobId) public view returns (uint) {\n        uint onTop = store.get(jobOfferOntop, _jobId, worker);\n        return calculateLock(worker, _jobId, store.get(jobOfferEstimate, _jobId, worker) + 60, onTop);\n    }\n\n    function calculatePaycheck(uint _jobId) public view returns (uint) {\n        address worker = store.get(jobWorker, _jobId);\n        uint _jobState = getJobState(_jobId);\n        if (_jobState == uint(JobState.FINISHED)) {\n            // Means that participants have agreed on job completion,\n            // reward should be calculated depending on worker's time spent.\n            uint maxEstimatedTime = store.get(jobOfferEstimate, _jobId, worker) + 60;\n            uint timeSpent = (store.get(jobFinishTime, _jobId) -\n                              store.get(jobStartTime, _jobId) -\n                              store.get(jobPausedFor, _jobId)) / 60;\n            if (timeSpent > 60 && timeSpent <= maxEstimatedTime) {\n                // Worker was doing the job for more than an hour, but less then\n                // maximum estimated working time. Release money for the time\n                // he has actually worked + \"on top\" expenses.\n                return timeSpent * store.get(jobOfferRate, _jobId, worker) +\n                       store.get(jobOfferOntop, _jobId, worker);\n\n            } else if (timeSpent > maxEstimatedTime) {\n                // Means worker has gone over maximum estimated time and hasnt't\n                // requested more time, which is his personal responsibility, since\n                // we're already giving workers additional working hour from start.\n                // So we release money for maximum estimated working time + \"on top\".\n                return maxEstimatedTime * store.get(jobOfferRate, _jobId, worker) +\n                       store.get(jobOfferOntop, _jobId, worker);\n\n            } else {\n                // Worker has completed the job within just an hour, so we\n                // release money for the minumum 1 working hour + \"on top\".\n                return 60 * store.get(jobOfferRate, _jobId, worker) +\n                       store.get(jobOfferOntop, _jobId, worker);\n            }\n        } else if (\n            _jobState == uint(JobState.STARTED) ||\n            _jobState == uint(JobState.PENDING_FINISH)\n        ) {\n            // Job has been canceled right after start or right before completion,\n            // minimum of 1 working hour + \"on top\" should be released.\n            return store.get(jobOfferOntop, _jobId, worker) +\n                   store.get(jobOfferRate, _jobId, worker) * 60;\n        } else if (\n            _jobState == uint(JobState.ACCEPTED) ||\n            _jobState == uint(JobState.PENDING_START)\n        ) {\n            // Job hasn't even started yet, but has been accepted,\n            // release just worker \"on top\" expenses.\n            return store.get(jobOfferOntop, _jobId, worker);\n        }\n    }\n\n    function postJob(\n        uint _area,\n        uint _category,\n        uint _skills,\n        bytes32 _detailsIPFSHash\n    )\n    singleOddFlag(_area)\n    singleOddFlag(_category)\n    hasFlags(_skills)\n    public\n    returns (uint)\n    {\n        uint jobId = store.get(jobsCount) + 1;\n        store.set(bindStatus, jobId, false);\n        store.set(jobsCount, jobId);\n        store.set(jobCreatedAt, jobId, now);\n        store.set(jobState, jobId, uint(JobState.CREATED));\n        store.set(jobClient, jobId, msg.sender);\n        store.set(jobSkillsArea, jobId, _area);\n        store.set(jobSkillsCategory, jobId, _category);\n        store.set(jobSkills, jobId, _skills);\n        store.set(jobDetailsIPFSHash, jobId, _detailsIPFSHash);\n        store.add(clientJobs, bytes32(msg.sender), jobId);\n\n        _emitJobPosted(jobId, msg.sender, _area, _category, _skills, _detailsIPFSHash, false);\n        return OK;\n    }\n\n    function postJobOffer(\n        uint _jobId,\n        uint _rate,\n        uint _estimate,\n        uint _ontop\n    )\n    onlyNotClient(_jobId)\n    onlyJobState(_jobId, JobState.CREATED)\n    public\n    returns (uint)\n    {\n        if (!_validEstimate(_rate, _estimate, _ontop)) {\n            return _emitErrorCode(JOB_CONTROLLER_INVALID_ESTIMATE);\n        }\n\n        if (!_hasSkillsCheck(_jobId)) {\n            return _emitErrorCode(JOB_CONTROLLER_INVALID_SKILLS);\n        }\n\n        store.set(jobOfferRate, _jobId, msg.sender, _rate);\n        store.set(jobOfferEstimate, _jobId, msg.sender, _estimate);\n        store.set(jobOfferOntop, _jobId, msg.sender, _ontop);\n        store.add(workerJobs, bytes32(msg.sender), _jobId);\n        store.add(jobOffers, bytes32(_jobId), msg.sender);\n\n        _emitJobOfferPosted(_jobId, msg.sender, _rate, _estimate, _ontop);\n        return OK;\n    }\n\n    function _validEstimate(uint _rate, uint _estimate, uint _ontop) internal pure returns (bool) {\n        if (_rate == 0 || _estimate == 0) {\n            return false;\n        }\n        uint prev = 0;\n        for (uint i = 1; i <= _estimate + 60; i++) {\n            uint curr = prev + _rate;\n            if (curr < prev) {\n                return false;\n            }\n            prev = curr;\n        }\n        return ((prev + _ontop) / 10) * 11 > prev;\n    }\n\n    function _hasSkillsCheck(uint _jobId) internal view returns (bool) {\n        return userLibrary.hasSkills(\n            msg.sender,\n            store.get(jobSkillsArea, _jobId),\n            store.get(jobSkillsCategory, _jobId),\n            store.get(jobSkills, _jobId)\n        );\n    }\n\n    function acceptOffer(\n        uint _jobId,\n        address _worker\n    )\n    onlyClient(_jobId)\n    onlyJobState(_jobId, JobState.CREATED)\n    external\n    payable\n    returns (uint _resultCode)\n    {\n        if (store.get(jobOfferRate, _jobId, _worker) == 0) {\n            return _emitErrorCode(JOB_CONTROLLER_WORKER_RATE_NOT_SET);\n        }\n\n        // Maybe incentivize by locking some money from worker?\n        store.set(jobWorker, _jobId, _worker);\n\n        require(msg.value == calculateLockAmount(_jobId));\n\n        _resultCode = paymentProcessor.lockPayment.value(msg.value)(bytes32(_jobId), msg.sender);\n        if (_resultCode != OK) {\n            revert();\n        }\n\n        store.set(jobAcceptedAt, _jobId, now);\n        store.set(jobState, _jobId, uint(JobState.ACCEPTED));\n        _cleanupJobOffers(_jobId, _worker);\n\n        JobController(getEventsHistory()).emitJobOfferAccepted(_jobId, _worker);\n        return OK;\n    }\n\n    function _cleanupJobOffers(uint _jobId, address _acceptedOffer) private {\n        uint _offersCount = store.count(jobOffers, bytes32(_jobId));\n        for (uint _offerIdx = 0; _offerIdx < _offersCount; ++_offerIdx) {\n            address _offer = store.get(jobOffers, bytes32(_jobId), _offerIdx);\n            if (_offer != _acceptedOffer) {\n                store.remove(workerJobs, bytes32(_offer), _jobId);\n            }\n        }\n    }\n\n    function startWork(\n        uint _jobId\n    )\n    onlyWorker(_jobId)\n    onlyJobState(_jobId, JobState.ACCEPTED)\n    external\n    returns (uint)\n    {\n        store.set(jobPendingStartAt, _jobId, now);\n        store.set(jobState, _jobId, uint(JobState.PENDING_START));\n        return OK;\n    }\n\n    function confirmStartWork(\n        uint _jobId\n    )\n    onlyClient(_jobId)\n    onlyJobState(_jobId, JobState.PENDING_START)\n    external\n    returns (uint)\n    {\n        store.set(jobState, _jobId, uint(JobState.STARTED));\n        store.set(jobStartTime, _jobId, now);\n\n        JobController(getEventsHistory()).emitWorkStarted(_jobId, now);\n        return OK;\n    }\n\n    function pauseWork(\n        uint _jobId\n    )\n    onlyWorker(_jobId)\n    onlyJobState(_jobId, JobState.STARTED)\n    external\n    returns (uint)\n    {\n        if (store.get(jobPaused, _jobId)) {\n            return _emitErrorCode(JOB_CONTROLLER_WORK_IS_ALREADY_PAUSED);\n        }\n\n        store.set(jobPaused, _jobId, true);\n        store.set(jobPausedAt, _jobId, now);\n\n        JobController(getEventsHistory()).emitWorkPaused(_jobId, now);\n        return OK;\n    }\n\n    function resumeWork(\n        uint _jobId\n    )\n    onlyWorker(_jobId)\n    onlyJobState(_jobId, JobState.STARTED)\n    external\n    returns (uint _resultCode)\n    {\n        _resultCode = _resumeWork(_jobId);\n        if (_resultCode != OK) {\n            return _emitErrorCode(_resultCode);\n        }\n    }\n\n    function _resumeWork(uint _jobId) internal returns (uint) {\n        if (!store.get(jobPaused, _jobId)) {\n            return JOB_CONTROLLER_WORK_IS_NOT_PAUSED;\n        }\n        store.set(jobPaused, _jobId, false);\n        store.set(jobPausedFor, _jobId, store.get(jobPausedFor, _jobId) + (now - store.get(jobPausedAt, _jobId)));\n\n        JobController(getEventsHistory()).emitWorkResumed(_jobId, now);\n        return OK;\n    }\n\n    function addMoreTime(\n        uint _jobId,\n        uint16 _additionalTime\n    )\n    onlyClient(_jobId)\n    onlyJobState(_jobId, JobState.STARTED)\n    external\n    payable\n    returns (uint)\n    {\n        require(_additionalTime != 0);\n\n        if (!_setNewEstimate(_jobId, _additionalTime)) {\n            revert();\n        }\n        JobController(getEventsHistory()).emitTimeAdded(_jobId, _additionalTime);\n        return OK;\n    }\n\n    function _setNewEstimate(uint _jobId, uint16 _additionalTime)\n    internal\n    returns (bool)\n    {\n        uint jobPaymentLocked = calculateLockAmount(_jobId);\n        store.set(\n            jobOfferEstimate,\n            _jobId,\n            store.get(jobWorker, _jobId),\n            store.get(jobOfferEstimate, _jobId, store.get(jobWorker, _jobId)) + _additionalTime\n        );\n\n        require(calculateLockAmount(_jobId) - jobPaymentLocked == msg.value);\n\n        return OK == paymentProcessor.lockPayment.value(msg.value)(bytes32(_jobId), msg.sender);\n    }\n\n    function endWork(\n        uint _jobId\n    )\n    onlyWorker(_jobId)\n    onlyJobState(_jobId, JobState.STARTED)\n    external\n    returns (uint)\n    {\n        _resumeWork(_jobId);  // In case worker have forgotten about paused timer\n        store.set(jobPendingFinishAt, _jobId, now);\n        store.set(jobState, _jobId, uint(JobState.PENDING_FINISH));\n        return OK;\n    }\n\n    function confirmEndWork(\n        uint _jobId\n    )\n    onlyClient(_jobId)\n    onlyJobState(_jobId, JobState.PENDING_FINISH)\n    external\n    returns (uint)\n    {\n        store.set(jobFinishTime, _jobId, now);\n        store.set(jobState, _jobId, uint(JobState.FINISHED));\n\n        JobController(getEventsHistory()).emitWorkFinished(_jobId, now);\n        return OK;\n    }\n\n    function cancelJob(\n        uint _jobId\n    )\n    onlyClient(_jobId)\n    external\n    returns (uint _resultCode)\n    {\n        uint _jobState = getJobState(_jobId);\n        if (\n            _jobState != uint(JobState.ACCEPTED) &&\n            _jobState != uint(JobState.PENDING_START) &&\n            _jobState != uint(JobState.STARTED) &&\n            _jobState != uint(JobState.PENDING_FINISH)\n        ) {\n            return _emitErrorCode(JOB_CONTROLLER_INVALID_STATE);\n        }\n\n        uint payCheck = calculatePaycheck(_jobId);\n        address worker = store.get(jobWorker, _jobId);\n\n        _resultCode = paymentProcessor.releasePayment(\n            bytes32(_jobId),\n            worker,\n            payCheck,\n            store.get(jobClient, _jobId),\n            payCheck,\n            0\n        );\n        if (_resultCode != OK) {\n            return _emitErrorCode(_resultCode);\n        }\n\n        store.set(jobFinalizedAt, _jobId, getJobState(_jobId));\n        store.set(jobState, _jobId, uint(JobState.FINALIZED));\n\n        JobController(getEventsHistory()).emitJobCanceled(_jobId);\n        return OK;\n    }\n\n    function releasePayment(\n        uint _jobId\n    )\n    onlyJobState(_jobId, JobState.FINISHED)\n    public\n    returns (uint _resultCode)\n    {\n        uint payCheck = calculatePaycheck(_jobId);\n        address worker = store.get(jobWorker, _jobId);\n\n        _resultCode = paymentProcessor.releasePayment(\n            bytes32(_jobId),\n            worker,\n            payCheck,\n            store.get(jobClient, _jobId),\n            payCheck,\n            0\n        );\n        if (_resultCode != OK) {\n            return _emitErrorCode(_resultCode);\n        }\n\n        store.set(jobFinalizedAt, _jobId, getJobState(_jobId));\n        store.set(jobState, _jobId, uint(JobState.FINALIZED));\n\n        JobController(getEventsHistory()).emitPaymentReleased(_jobId);\n        return OK;\n    }\n\n    /// @notice Gets filtered list of jobs ids that fulfill provided parameters\n    /// in a paginated way.\n    function getJobs(\n        uint _jobState,\n        uint _skillsArea,\n        uint _skillsCategory,\n        uint _skills,\n        bool _paused,\n        uint _fromId,\n        uint _maxLen\n    )\n    public\n    view\n    returns (uint[] _ids)\n    {\n        _ids = new uint[](_maxLen);\n        uint _pointer;\n        for (uint _jobId = _fromId; _jobId < _fromId + _maxLen; ++_jobId) {\n            if (_filterJob(_jobId, _jobState, _skillsArea, _skillsCategory, _skills, _paused)) {\n                _ids[_pointer] = _jobId;\n                _pointer += 1;\n            }\n        }\n    }\n\n    function getJobForClientCount(address _client) public view returns (uint) {\n        return store.count(clientJobs, bytes32(_client));\n    }\n\n    /// @notice Gets filtered jobs ids for a client where jobs have provided properties\n    /// (job state, skills area, skills category, skills, paused)\n    function getJobsForClient(\n        address _client,\n        uint _jobState,\n        uint _skillsArea,\n        uint _skillsCategory,\n        uint _skills,\n        bool _paused,\n        uint _fromIdx,\n        uint _maxLen\n    )\n    public\n    view\n    returns (uint[] _ids)\n    {\n        uint _count = store.count(clientJobs, bytes32(_client));\n        require(_fromIdx < _count);\n        _maxLen = (_fromIdx + _maxLen <= _count) ? _maxLen : (_count - _fromIdx);\n        _ids = new uint[](_maxLen);\n        uint _pointer;\n        for (uint _idx = _fromIdx; _idx < _fromIdx + _maxLen; ++_idx) {\n            uint _jobId = store.get(clientJobs, bytes32(_client), _idx);\n            if (_filterJob(_jobId, _jobState, _skillsArea, _skillsCategory, _skills, _paused)) {\n                _ids[_pointer] = _jobId;\n                _pointer += 1;\n            }\n        }\n    }\n\n    function getJobForWorkerCount(address _worker) public view returns (uint) {\n        return store.count(workerJobs, bytes32(_worker));\n    }\n\n    /// @notice Gets filtered jobs for a worker\n    /// Doesn't inlcude jobs for which a worker had posted an offer but\n    /// other worker got the job\n    function getJobForWorker(\n        address _worker,\n        uint _jobState,\n        uint _skillsArea,\n        uint _skillsCategory,\n        uint _skills,\n        bool _paused,\n        uint _fromIdx,\n        uint _maxLen\n    )\n    public\n    view\n    returns (uint[] _ids)\n    {\n        uint _count = store.count(workerJobs, bytes32(_worker));\n        require(_fromIdx < _count);\n        _maxLen = (_fromIdx + _maxLen <= _count) ? _maxLen : (_count - _fromIdx);\n        _ids = new uint[](_maxLen);\n        uint _pointer;\n        for (uint _idx = _fromIdx; _idx < _fromIdx + _maxLen; ++_idx) {\n            uint _jobId = store.get(workerJobs, bytes32(_worker), _idx);\n            if (_filterJob(_jobId, _jobState, _skillsArea, _skillsCategory, _skills, _paused)) {\n                _ids[_pointer] = _jobId;\n                _pointer += 1;\n            }\n        }\n    }\n\n    function _filterJob(\n        uint _jobId,\n        uint _jobState,\n        uint _skillsArea,\n        uint _skillsCategory,\n        uint _skills,\n        bool _paused\n    )\n    private\n    view\n    returns (bool)\n    {\n        return _jobState == store.get(jobState, _jobId) &&\n            _paused == store.get(jobPaused, _jobId) &&\n            _hasFlag(store.get(jobSkillsArea, _jobId), _skillsArea) &&\n            _hasFlag(store.get(jobSkillsCategory, _jobId), _skillsCategory) &&\n            _hasFlag(store.get(jobSkills, _jobId), _skills);\n    }\n\n    function getJobsCount() public view returns (uint) {\n        return store.get(jobsCount);\n    }\n\n    uint8 constant JOBS_RESULT_OFFSET = 16;\n\n    /// @notice Gets jobs details in a archived way (too little stack size\n    /// for such amount of return values)\n    /// @return {\n    ///     \"_gotIds\": \"`uint` identifier\",\n    ///     \"_boardId\": \"`uint` board identifier where job was pinned, '0' if no such board\",\n    ///     \"_client\": \"client's address\",\n    ///     \"_worker\": \"worker's address\",\n    ///     \"_skillsArea\": \"`uint` skills area mask\",\n    ///     \"_skillsCategory\": \"`uint` skills category mask\",\n    ///     \"_skills\": \"`uint` skills mask\",\n    ///     \"_detailsIpfs\": \"`bytes32` details hash\",\n    ///     \"_state\": \"`uint` job's state, see JobState\",\n    ///     \"_createdAt\": \"`uint` publishing (creation) timestamp\"\n    ///     \"_acceptedAt\": \"`uint` an offer has been accepted timestamp\"\n    ///     \"_pendingStartAt\": \"`uint` pending started timestamp\"\n    ///     \"_startedAt\": \"`uint` work started timestamp\"\n    ///     \"_pendingFinishAt\": \"`uint` pending finish timestamp\"\n    ///     \"_finishedAt\": \"`uint` work finished timestamp\"\n    ///     \"_finalizedAt\": \"`uint` paycheck finalized timestamp\"\n    /// }\n    function getJobsByIds(uint[] _jobIds) public view returns (\n        bytes32[] _results\n    ) {\n        BoardControllerAccessor _boardController = BoardControllerAccessor(store.get(boardController));\n        _results = new bytes32[](_jobIds.length * JOBS_RESULT_OFFSET);\n        for (uint _idx = 0; _idx < _jobIds.length; ++_idx) {\n            _results[_idx * JOBS_RESULT_OFFSET + 0] = bytes32(_jobIds[_idx]);\n            _results[_idx * JOBS_RESULT_OFFSET + 2] = bytes32(store.get(jobClient, _jobIds[_idx]));\n            _results[_idx * JOBS_RESULT_OFFSET + 3] = bytes32(store.get(jobWorker, _jobIds[_idx]));\n            _results[_idx * JOBS_RESULT_OFFSET + 4] = bytes32(store.get(jobSkillsArea, _jobIds[_idx]));\n            _results[_idx * JOBS_RESULT_OFFSET + 5] = bytes32(store.get(jobSkillsCategory, _jobIds[_idx]));\n            _results[_idx * JOBS_RESULT_OFFSET + 6] = bytes32(store.get(jobSkills, _jobIds[_idx]));\n            _results[_idx * JOBS_RESULT_OFFSET + 7] = store.get(jobDetailsIPFSHash, _jobIds[_idx]);\n            _results[_idx * JOBS_RESULT_OFFSET + 8] = bytes32(store.get(jobState, _jobIds[_idx]));\n            _results[_idx * JOBS_RESULT_OFFSET + 9] = bytes32(store.get(jobCreatedAt, _jobIds[_idx]));\n            _results[_idx * JOBS_RESULT_OFFSET + 10] = bytes32(store.get(jobAcceptedAt, _jobIds[_idx]));\n            _results[_idx * JOBS_RESULT_OFFSET + 11] = bytes32(store.get(jobPendingStartAt, _jobIds[_idx]));\n            _results[_idx * JOBS_RESULT_OFFSET + 12] = bytes32(store.get(jobStartTime, _jobIds[_idx]));\n            _results[_idx * JOBS_RESULT_OFFSET + 13] = bytes32(store.get(jobPendingFinishAt, _jobIds[_idx]));\n            _results[_idx * JOBS_RESULT_OFFSET + 14] = bytes32(store.get(jobFinishTime, _jobIds[_idx]));\n            _results[_idx * JOBS_RESULT_OFFSET + 15] = bytes32(store.get(jobFinalizedAt, _jobIds[_idx]));\n\n            if (address(_boardController) != 0x0) {\n                _results[_idx * JOBS_RESULT_OFFSET + 1] = bytes32(_boardController.getJobsBoard(_jobIds[_idx]));\n            }\n        }\n    }\n\n    function getJobOffersCount(uint _jobId) public view returns (uint) {\n        return store.count(jobOffers, bytes32(_jobId));\n    }\n\n    function getJobOffers(uint _jobId, uint _fromIdx, uint _maxLen) public view returns (\n        uint _id,\n        address[] _workers,\n        uint[] _rates,\n        uint[] _estimates,\n        uint[] _onTops\n    ) {\n        uint _offersCount = getJobOffersCount(_jobId);\n        if (_fromIdx < _offersCount) {\n            return;\n        }\n\n        _maxLen = (_fromIdx + _maxLen <= _offersCount) ? _maxLen : (_offersCount - _fromIdx);\n\n        _id = _jobId;\n        _workers = new address[](_maxLen);\n        _rates = new uint[](_maxLen);\n        _estimates = new uint[](_maxLen);\n        _onTops = new uint[](_maxLen);\n        uint _pointer = 0;\n\n        for (uint _offerIdx = _fromIdx; _offerIdx < _fromIdx + _maxLen; ++_offerIdx) {\n            _workers[_pointer] = store.get(jobOffers, bytes32(_jobId), _offerIdx);\n            _rates[_pointer] = store.get(jobOfferRate, _jobId, _workers[_pointer]);\n            _estimates[_pointer] = store.get(jobOfferEstimate, _jobId, _workers[_pointer]);\n            _onTops[_pointer] = store.get(jobOfferOntop, _jobId, _workers[_pointer]);\n            _pointer += 1;\n        }\n    }\n\n    function getJobClient(uint _jobId) public view returns (address) {\n        return store.get(jobClient, _jobId);\n    }\n\n    function getJobWorker(uint _jobId) public view returns (address) {\n        return store.get(jobWorker, _jobId);\n    }\n\n    function getJobSkillsArea(uint _jobId) public view returns (uint) {\n        return store.get(jobSkillsArea, _jobId);\n    }\n\n    function getJobSkillsCategory(uint _jobId) public view returns (uint) {\n        return store.get(jobSkillsCategory, _jobId);\n    }\n\n    function getJobSkills(uint _jobId) public view returns (uint) {\n        return store.get(jobSkills, _jobId);\n    }\n\n    function getJobDetailsIPFSHash(uint _jobId) public view returns (bytes32) {\n        return store.get(jobDetailsIPFSHash, _jobId);\n    }\n\n    function getJobState(uint _jobId) public view returns (uint) {\n        return uint(store.get(jobState, _jobId));\n    }\n\n    function getFinalState(uint _jobId) public view returns (uint) {\n        return store.get(jobFinalizedAt, _jobId);\n    }\n\n    function emitJobPosted(\n        uint _jobId,\n        address _client,\n        uint _skillsArea,\n        uint _skillsCategory,\n        uint _skills,\n        bytes32 _detailsIPFSHash,\n        bool _bindStatus\n    )\n    public\n    {\n        JobPosted(_self(), _jobId, _client, _skillsArea, _skillsCategory, _skills, _detailsIPFSHash, _bindStatus);\n    }\n\n    function emitJobOfferPosted(uint _jobId, address _worker, uint _rate, uint _estimate, uint _ontop) public {\n        JobOfferPosted(_self(), _jobId, _worker, _rate, _estimate, _ontop);\n    }\n\n    function emitJobOfferAccepted(uint _jobId, address _worker) public {\n        JobOfferAccepted(_self(), _jobId, _worker);\n    }\n\n    function emitWorkStarted(uint _jobId, uint _at) public {\n        WorkStarted(_self(), _jobId, _at);\n    }\n\n    function emitWorkPaused(uint _jobId, uint _at) public {\n        WorkPaused(_self(), _jobId, _at);\n    }\n\n    function emitWorkResumed(uint _jobId, uint _at) public {\n        WorkResumed(_self(), _jobId, _at);\n    }\n\n    function emitTimeAdded(uint _jobId, uint _time) public {\n        TimeAdded(_self(), _jobId, _time);\n    }\n\n    function emitWorkFinished(uint _jobId, uint _at) public {\n        WorkFinished(_self(), _jobId, _at);\n    }\n\n    function emitPaymentReleased(uint _jobId) public {\n        PaymentReleased(_self(), _jobId);\n    }\n\n    function emitJobCanceled(uint _jobId) public {\n        JobCanceled(_self(), _jobId);\n    }\n\n    function _emitJobPosted(\n        uint _jobId,\n        address _client,\n        uint _skillsArea,\n        uint _skillsCategory,\n        uint _skills,\n        bytes32 _detailsIPFSHash,\n        bool _bindStatus\n    )\n    internal\n    {\n        JobController(getEventsHistory()).emitJobPosted(\n            _jobId,\n            _client,\n            _skillsArea,\n            _skillsCategory,\n            _skills,\n            _detailsIPFSHash,\n            _bindStatus\n        );\n    }\n\n    function _emitJobOfferPosted(\n        uint _jobId,\n        address _worker,\n        uint _rate,\n        uint _estimate,\n        uint _ontop\n    )\n    internal\n    {\n        JobController(getEventsHistory()).emitJobOfferPosted(\n            _jobId,\n            _worker,\n            _rate,\n            _estimate,\n            _ontop\n        );\n    }\n}\n",
  "sourcePath": "/Users/ahiatsevich/Development/chronobank/LX-SC/contracts/JobController.sol",
  "compiler": {
    "name": "solc",
    "version": "0.4.19+commit.c4cbbb05.Emscripten.clang"
  },
  "schemaVersion": "2.0.0",
  "updatedAt": "2018-05-24T10:51:40.482Z"
}