{
  "contractName": "JobsDataProvider",
  "abi": [
    {
      "inputs": [
        {
          "name": "_store",
          "type": "address"
        },
        {
          "name": "_crate",
          "type": "bytes32"
        }
      ],
      "payable": false,
      "stateMutability": "nonpayable",
      "type": "constructor"
    },
    {
      "constant": true,
      "inputs": [
        {
          "name": "_jobState",
          "type": "uint256"
        },
        {
          "name": "_skillsArea",
          "type": "uint256"
        },
        {
          "name": "_skillsCategory",
          "type": "uint256"
        },
        {
          "name": "_skills",
          "type": "uint256"
        },
        {
          "name": "_paused",
          "type": "uint256"
        },
        {
          "name": "_fromId",
          "type": "uint256"
        },
        {
          "name": "_maxLen",
          "type": "uint256"
        }
      ],
      "name": "getJobs",
      "outputs": [
        {
          "name": "_ids",
          "type": "uint256[]"
        }
      ],
      "payable": false,
      "stateMutability": "view",
      "type": "function"
    },
    {
      "constant": true,
      "inputs": [
        {
          "name": "_client",
          "type": "address"
        }
      ],
      "name": "getJobForClientCount",
      "outputs": [
        {
          "name": "",
          "type": "uint256"
        }
      ],
      "payable": false,
      "stateMutability": "view",
      "type": "function"
    },
    {
      "constant": true,
      "inputs": [
        {
          "name": "_client",
          "type": "address"
        },
        {
          "name": "_jobState",
          "type": "uint256"
        },
        {
          "name": "_skillsArea",
          "type": "uint256"
        },
        {
          "name": "_skillsCategory",
          "type": "uint256"
        },
        {
          "name": "_skills",
          "type": "uint256"
        },
        {
          "name": "_paused",
          "type": "uint256"
        },
        {
          "name": "_fromIdx",
          "type": "uint256"
        },
        {
          "name": "_maxLen",
          "type": "uint256"
        }
      ],
      "name": "getJobsForClient",
      "outputs": [
        {
          "name": "_ids",
          "type": "uint256[]"
        }
      ],
      "payable": false,
      "stateMutability": "view",
      "type": "function"
    },
    {
      "constant": true,
      "inputs": [
        {
          "name": "_worker",
          "type": "address"
        }
      ],
      "name": "getJobForWorkerCount",
      "outputs": [
        {
          "name": "",
          "type": "uint256"
        }
      ],
      "payable": false,
      "stateMutability": "view",
      "type": "function"
    },
    {
      "constant": true,
      "inputs": [
        {
          "name": "_worker",
          "type": "address"
        },
        {
          "name": "_jobState",
          "type": "uint256"
        },
        {
          "name": "_skillsArea",
          "type": "uint256"
        },
        {
          "name": "_skillsCategory",
          "type": "uint256"
        },
        {
          "name": "_skills",
          "type": "uint256"
        },
        {
          "name": "_paused",
          "type": "uint256"
        },
        {
          "name": "_fromIdx",
          "type": "uint256"
        },
        {
          "name": "_maxLen",
          "type": "uint256"
        }
      ],
      "name": "getJobForWorker",
      "outputs": [
        {
          "name": "_ids",
          "type": "uint256[]"
        }
      ],
      "payable": false,
      "stateMutability": "view",
      "type": "function"
    },
    {
      "constant": true,
      "inputs": [],
      "name": "getJobsCount",
      "outputs": [
        {
          "name": "",
          "type": "uint256"
        }
      ],
      "payable": false,
      "stateMutability": "view",
      "type": "function"
    },
    {
      "constant": true,
      "inputs": [
        {
          "name": "_jobIds",
          "type": "uint256[]"
        }
      ],
      "name": "getJobsByIds",
      "outputs": [
        {
          "name": "_results",
          "type": "bytes32[]"
        }
      ],
      "payable": false,
      "stateMutability": "view",
      "type": "function"
    },
    {
      "constant": true,
      "inputs": [
        {
          "name": "_jobId",
          "type": "uint256"
        }
      ],
      "name": "getJobOffersCount",
      "outputs": [
        {
          "name": "",
          "type": "uint256"
        }
      ],
      "payable": false,
      "stateMutability": "view",
      "type": "function"
    },
    {
      "constant": true,
      "inputs": [
        {
          "name": "_jobId",
          "type": "uint256"
        },
        {
          "name": "_fromIdx",
          "type": "uint256"
        },
        {
          "name": "_maxLen",
          "type": "uint256"
        }
      ],
      "name": "getJobOffers",
      "outputs": [
        {
          "name": "_id",
          "type": "uint256"
        },
        {
          "name": "_workers",
          "type": "address[]"
        },
        {
          "name": "_rates",
          "type": "uint256[]"
        },
        {
          "name": "_estimates",
          "type": "uint256[]"
        },
        {
          "name": "_onTops",
          "type": "uint256[]"
        },
        {
          "name": "_offerPostedAt",
          "type": "uint256[]"
        }
      ],
      "payable": false,
      "stateMutability": "view",
      "type": "function"
    },
    {
      "constant": true,
      "inputs": [
        {
          "name": "_jobId",
          "type": "uint256"
        }
      ],
      "name": "getJobClient",
      "outputs": [
        {
          "name": "",
          "type": "address"
        }
      ],
      "payable": false,
      "stateMutability": "view",
      "type": "function"
    },
    {
      "constant": true,
      "inputs": [
        {
          "name": "_jobId",
          "type": "uint256"
        }
      ],
      "name": "getJobWorker",
      "outputs": [
        {
          "name": "",
          "type": "address"
        }
      ],
      "payable": false,
      "stateMutability": "view",
      "type": "function"
    },
    {
      "constant": true,
      "inputs": [
        {
          "name": "_jobId",
          "type": "uint256"
        },
        {
          "name": "_jobState",
          "type": "uint256"
        }
      ],
      "name": "isActivatedState",
      "outputs": [
        {
          "name": "",
          "type": "bool"
        }
      ],
      "payable": false,
      "stateMutability": "view",
      "type": "function"
    },
    {
      "constant": true,
      "inputs": [
        {
          "name": "_jobId",
          "type": "uint256"
        }
      ],
      "name": "getJobSkillsArea",
      "outputs": [
        {
          "name": "",
          "type": "uint256"
        }
      ],
      "payable": false,
      "stateMutability": "view",
      "type": "function"
    },
    {
      "constant": true,
      "inputs": [
        {
          "name": "_jobId",
          "type": "uint256"
        }
      ],
      "name": "getJobSkillsCategory",
      "outputs": [
        {
          "name": "",
          "type": "uint256"
        }
      ],
      "payable": false,
      "stateMutability": "view",
      "type": "function"
    },
    {
      "constant": true,
      "inputs": [
        {
          "name": "_jobId",
          "type": "uint256"
        }
      ],
      "name": "getJobSkills",
      "outputs": [
        {
          "name": "",
          "type": "uint256"
        }
      ],
      "payable": false,
      "stateMutability": "view",
      "type": "function"
    },
    {
      "constant": true,
      "inputs": [
        {
          "name": "_jobId",
          "type": "uint256"
        }
      ],
      "name": "getJobDetailsIPFSHash",
      "outputs": [
        {
          "name": "",
          "type": "bytes32"
        }
      ],
      "payable": false,
      "stateMutability": "view",
      "type": "function"
    },
    {
      "constant": true,
      "inputs": [
        {
          "name": "_jobId",
          "type": "uint256"
        }
      ],
      "name": "getJobDefaultPay",
      "outputs": [
        {
          "name": "",
          "type": "uint256"
        }
      ],
      "payable": false,
      "stateMutability": "view",
      "type": "function"
    },
    {
      "constant": true,
      "inputs": [
        {
          "name": "_jobId",
          "type": "uint256"
        }
      ],
      "name": "getJobState",
      "outputs": [
        {
          "name": "",
          "type": "uint256"
        }
      ],
      "payable": false,
      "stateMutability": "view",
      "type": "function"
    },
    {
      "constant": true,
      "inputs": [
        {
          "name": "_jobId",
          "type": "uint256"
        }
      ],
      "name": "getFinalState",
      "outputs": [
        {
          "name": "",
          "type": "uint256"
        }
      ],
      "payable": false,
      "stateMutability": "view",
      "type": "function"
    }
  ],
  "bytecode": "0x606060405234156200001057600080fd5b604051604080620024b5833981016040528080519190602001805191508290508181816200004f60008383640100000000620013ea6200008682021704565b5050505062000071620000ac640100000000026200141d176401000000009004565b6001146200007e57600080fd5b505062000933565b8254600160a060020a031916600160a060020a0392909216919091178255600190910155565b6000620000e960027f626f617264436f6e74726f6c6c65720000000000000000000000000000000000640100000000620019e36200079e82021704565b6200012460037f657363726f774164647265737300000000000000000000000000000000000000640100000000620019e36200079e82021704565b6200015f60047f6a6f6273436f756e740000000000000000000000000000000000000000000000640100000000620019e36200079e82021704565b6200019a60057f6a6f625374617465000000000000000000000000000000000000000000000000640100000000620019ff620007be82021704565b620001d560067f6a6f62436c69656e740000000000000000000000000000000000000000000000640100000000620019ff620007be82021704565b6200021060077f6a6f62576f726b65720000000000000000000000000000000000000000000000640100000000620019ff620007be82021704565b6200024b60087f6a6f6244657461696c7349504653486173680000000000000000000000000000640100000000620019ff620007be82021704565b6200028660097f6a6f62536b696c6c734172656100000000000000000000000000000000000000640100000000620019ff620007be82021704565b620002c1600a7f6a6f62536b696c6c7343617465676f7279000000000000000000000000000000640100000000620019ff620007be82021704565b620002fc600b7f6a6f62536b696c6c730000000000000000000000000000000000000000000000640100000000620019ff620007be82021704565b62000337600c7f6a6f624372656174656441740000000000000000000000000000000000000000640100000000620019ff620007be82021704565b62000372600d7f6a6f624163636570746564417400000000000000000000000000000000000000640100000000620019ff620007be82021704565b620003ad600e7f6a6f6250656e64696e6753746172744174000000000000000000000000000000640100000000620019ff620007be82021704565b620003e8600f7f6a6f62537461727454696d650000000000000000000000000000000000000000640100000000620019ff620007be82021704565b6200042360107f6a6f6250656e64696e6746696e69736841740000000000000000000000000000640100000000620019ff620007be82021704565b6200045e60117f6a6f6246696e69736854696d6500000000000000000000000000000000000000640100000000620019ff620007be82021704565b6200049960127f6a6f625061757365640000000000000000000000000000000000000000000000640100000000620019ff620007be82021704565b620004d460137f6a6f625061757365644174000000000000000000000000000000000000000000640100000000620019ff620007be82021704565b6200050f60147f6a6f62506175736564466f720000000000000000000000000000000000000000640100000000620019ff620007be82021704565b6200054a60157f6a6f62576f726b666c6f77547970650000000000000000000000000000000000640100000000620019ff620007be82021704565b6200058560167f6a6f6244656661756c7450617900000000000000000000000000000000000000640100000000620019ff620007be82021704565b620005c060177f6a6f624f66666572526174650000000000000000000000000000000000000000640100000000620019ff620007be82021704565b620005fb60187f6a6f624f66666572457374696d61746500000000000000000000000000000000640100000000620019ff620007be82021704565b6200063660197f6a6f624f666665724f6e746f7000000000000000000000000000000000000000640100000000620019ff620007be82021704565b6200067160257f6a6f6246696e616c697a65644174000000000000000000000000000000000000640100000000620019ff620007be82021704565b620006ac601a7f636c69656e744a6f62730000000000000000000000000000000000000000000064010000000062001a35620007dc82021704565b620006e7601d7f776f726b65724a6f62730000000000000000000000000000000000000000000064010000000062001a35620007dc82021704565b6200072260207f6a6f624f6666657273000000000000000000000000000000000000000000000064010000000062001a35620007dc82021704565b6200075d60237f6a6f624f66666572506f73746564417400000000000000000000000000000000640100000000620019ff620007be82021704565b6200079860247f62696e6453746174757300000000000000000000000000000000000000000000640100000000620019ff620007be82021704565b50600190565b8154620007ba908264010000000062001a49620007f682021704565b9055565b620007d88282640100000000620019e36200079e82021704565b5050565b620007d8828264010000000062001a776200080e82021704565b8115158062000803575080155b15620007d857600080fd5b620007d8828264010000000062001a7d6200082882021704565b6200087f82826040519081527f636f756e74000000000000000000000000000000000000000000000000000000602082015260250160405180910390206200079e64010000000002620019e3176401000000009004565b620008d982600101826040519081527f696e646578657300000000000000000000000000000000000000000000000000602082015260270160405180910390206200079e64010000000002620019e3176401000000009004565b620007d882600201826040519081527f76616c7565730000000000000000000000000000000000000000000000000000602082015260260160405180910390206200079e64010000000002620019e3176401000000009004565b611b7280620009436000396000f3006060604052600436106100ed5763ffffffff60e060020a6000350416630d9f281781146100f25780630e1a9e3f1461011a57806310fdf2171461013057806314f608811461014657806322d20bac14610178578063286ccd8b1461019757806332c514d51461021e57806336dd20a71461023457806340637ba71461024a57806353bc1c12146102775780637b6845841461028d57806387c0e1ff146102c1578063aa7862f5146102e0578063af405bfe14610308578063c63adb0a14610357578063cb56dd791461036d578063d07e9f9014610383578063dce722dd14610396578063fb51a638146103ac575b600080fd5b34156100fd57600080fd5b610108600435610537565b60405190815260200160405180910390f35b341561012557600080fd5b610108600435610551565b341561013b57600080fd5b610108600435610565565b341561015157600080fd5b61015c600435610579565b604051600160a060020a03909116815260200160405180910390f35b341561018357600080fd5b610108600160a060020a036004351661058d565b34156101a257600080fd5b6101cb600160a060020a036004351660243560443560643560843560a43560c43560e4356105aa565b60405160208082528190810183818151815260200191508051906020019060200280838360005b8381101561020a5780820151838201526020016101f2565b505050509050019250505060405180910390f35b341561022957600080fd5b610108600435610688565b341561023f57600080fd5b61015c60043561069c565b341561025557600080fd5b6102636004356024356106b0565b604051901515815260200160405180910390f35b341561028257600080fd5b61010860043561072c565b341561029857600080fd5b6101cb600160a060020a036004351660243560443560643560843560a43560c43560e435610740565b34156102cc57600080fd5b610108600160a060020a036004351661080e565b34156102eb57600080fd5b6101cb60043560243560443560643560843560a43560c43561082b565b341561031357600080fd5b6101cb60046024813581810190830135806020818102016040519081016040528093929190818152602001838360200280828437509496506108ac95505050505050565b341561036257600080fd5b610108600435610d85565b341561037857600080fd5b610108600435610d99565b341561038e57600080fd5b610108610dad565b34156103a157600080fd5b610108600435610dc5565b34156103b757600080fd5b6103c8600435602435604435610dd9565b60405180878152602001806020018060200180602001806020018060200186810386528b818151815260200191508051906020019060200280838360005b8381101561041e578082015183820152602001610406565b5050505090500186810385528a818151815260200191508051906020019060200280838360005b8381101561045d578082015183820152602001610445565b50505050905001868103845289818151815260200191508051906020019060200280838360005b8381101561049c578082015183820152602001610484565b50505050905001868103835288818151815260200191508051906020019060200280838360005b838110156104db5780820151838201526020016104c3565b50505050905001868103825287818151815260200191508051906020019060200280838360005b8381101561051a578082015183820152602001610502565b505050509050019b50505050505050505050505060405180910390f35b600061054b81600a8463ffffffff610ffc16565b92915050565b600061054b8160098463ffffffff610ffc16565b600061054b8160168463ffffffff610ffc16565b600061054b8160068463ffffffff610ffc16565b600061054b81601a600160a060020a03851663ffffffff61101116565b6105b26113d8565b6000806000806105c18d61080e565b93508387106105cf57600080fd5b8386880111156105e1578684036105e3565b855b9550856040518059106105f35750595b908082528060200260200182016040525094508691505b85870182101561067857610639601d8e600160a060020a031660010284600061101e909392919063ffffffff16565b9050610649818d8d8d8d8d611035565b1561066d578085848151811061065b57fe5b60209081029091010152600192909201915b81600101915061060a565b5050505098975050505050505050565b600061054b8160088463ffffffff610ffc16565b600061054b8160078463ffffffff610ffc16565b600080806106c68160158763ffffffff610ffc16565b9150507f800000000000000000000000000000000000000000000000000000000000000081161580159081906106fd575060088410155b1561070b5760019250610724565b8015801561071a575060048410155b1561072457600192505b505092915050565b600061054b8160058463ffffffff610ffc16565b6107486113d8565b6000806000806107578d61058d565b935083871061076557600080fd5b83868801111561077757868403610779565b855b9550856040518059106107895750595b908082528060200260200182016040525094508691505b858701821015610678576107cf601a8e600160a060020a031660010284600061101e909392919063ffffffff16565b90506107df818d8d8d8d8d611035565b1561080357808584815181106107f157fe5b60209081029091010152600192909201915b8160010191506107a0565b600061054b81601d600160a060020a03851663ffffffff61101116565b6108336113d8565b600080836040518059106108445750595b908082528060200260200182016040525092508490505b83850181101561089f57610873818b8b8b8b8b611035565b15610897578083838151811061088557fe5b60209081029091010152600191909101905b60010161085b565b5050979650505050505050565b6108b46113d8565b6000806108c881600263ffffffff6110fe16565b915060158451026040518059106108dc5750595b90808252806020026020018201604052509250600090505b8351811015610d7e5783818151811061090957fe5b9060200190602002015183601583028151811061092257fe5b60209081029091010152610956600685838151811061093d57fe5b906020019060200201516000919063ffffffff610ffc16565b600160a060020a031683600260158402018151811061097157fe5b6020908102909101015261098c600785838151811061093d57fe5b600160a060020a03168360036015840201815181106109a757fe5b602090810290910101526109c2600985838151811061093d57fe5b8360046015840201815181106109d457fe5b602090810290910101526109ef600a85838151811061093d57fe5b836005601584020181518110610a0157fe5b60209081029091010152610a1c600b85838151811061093d57fe5b836006601584020181518110610a2e57fe5b60209081029091010152610a49600885838151811061093d57fe5b836007601584020181518110610a5b57fe5b60209081029091010152610a76600585838151811061093d57fe5b836008601584020181518110610a8857fe5b60209081029091010152610aa3601585838151811061093d57fe5b836009601584020181518110610ab557fe5b60209081029091010152610ae96012858381518110610ad057fe5b906020019060200201516000919063ffffffff61117216565b610af4576000610af7565b60015b60ff1683600a601584020181518110610b0c57fe5b60209081029091010152610b27601685838151811061093d57fe5b83600b601584020181518110610b3957fe5b60209081029091010152610b54600c85838151811061093d57fe5b83600c601584020181518110610b6657fe5b60209081029091010152610b81600d85838151811061093d57fe5b83600d601584020181518110610b9357fe5b60209081029091010152610bae600e85838151811061093d57fe5b83600e601584020181518110610bc057fe5b60209081029091010152610bdb600f85838151811061093d57fe5b83600f601584020181518110610bed57fe5b60209081029091010152610c08601385838151811061093d57fe5b836010601584020181518110610c1a57fe5b60209081029091010152610c35601485838151811061093d57fe5b836011601584020181518110610c4757fe5b60209081029091010152610c62601085838151811061093d57fe5b836012601584020181518110610c7457fe5b60209081029091010152610c8f601185838151811061093d57fe5b836013601584020181518110610ca157fe5b60209081029091010152610cbc602585838151811061093d57fe5b836014601584020181518110610cce57fe5b60209081029091010152600160a060020a03821615610d765781600160a060020a031663b1bf0510858381518110610d0257fe5b9060200190602002015160405160e060020a63ffffffff84160281526004810191909152602401602060405180830381600087803b1515610d4257600080fd5b5af11515610d4f57600080fd5b50505060405180519050836015830260010181518110610d6b57fe5b602090810290910101525b6001016108f4565b5050919050565b600061054b8160208463ffffffff61101116565b600061054b8160258463ffffffff610ffc16565b6000610dc081600463ffffffff61117f16565b905090565b600061054b81600b8463ffffffff610ffc16565b6000610de36113d8565b610deb6113d8565b610df36113d8565b610dfb6113d8565b610e036113d8565b6000806000610e118c610d85565b9250828b1115610e2057610fed565b828a8c011115610e32578a8303610e34565b895b99508b985089604051805910610e475750595b9080825280602002602001820160405250975089604051805910610e685750595b9080825280602002602001820160405250965089604051805910610e895750595b9080825280602002602001820160405250955089604051805910610eaa5750595b9080825280602002602001820160405250945089604051805910610ecb5750595b90808252806020026020018201604052509350600091508a90505b898b01811015610fed57610f04600060208e8463ffffffff61101e16565b888381518110610f1057fe5b600160a060020a03909216602092830290910190910152610f5360178d8a8581518110610f3957fe5b90602001906020020151600092919063ffffffff6111d616565b878381518110610f5f57fe5b60209081029091010152610f7b60188d8a8581518110610f3957fe5b868381518110610f8757fe5b60209081029091010152610fa360198d8a8581518110610f3957fe5b858381518110610faf57fe5b60209081029091010152610fcb60238d8a8581518110610f3957fe5b848381518110610fd757fe5b6020908102909101015260019182019101610ee6565b50505093975093979195509350565b60006110098484846111ed565b949350505050565b600061100984848461127a565b600061102c85858585611287565b95945050505050565b600061105261104c8260058a63ffffffff610ffc16565b87611295565b801561108a57506001821161108757611074600060128963ffffffff61117216565b151561107f8361129b565b15151461108a565b60015b80156110ad57506110ad6110a7600060098a63ffffffff610ffc16565b86611295565b80156110d057506110d06110ca6000600a8a63ffffffff610ffc16565b85611295565b80156110f357506110f36110ed6000600b8a63ffffffff610ffc16565b84611295565b979650505050505050565b815460018301548254600092600160a060020a03169163d3a396869160405160e060020a63ffffffff851602815260048101929092526024820152604401602060405180830381600087803b151561115557600080fd5b5af1151561116257600080fd5b5050506040518051949350505050565b60006110098484846112b4565b815460018301548254600092600160a060020a0316916353aa3f5e9160405160e060020a63ffffffff851602815260048101929092526024820152604401602060405180830381600087803b151561115557600080fd5b600061102c858585600160a060020a038616611323565b825460018401548354600092600160a060020a0316916337d9d7fc9185604051918252602082015260409081019051809103902060405160e060020a63ffffffff851602815260048101929092526024820152604401602060405180830381600087803b151561125c57600080fd5b5af1151561126957600080fd5b505050604051805195945050505050565b6000611009848484611348565b600061102c85858585611355565b16151590565b6000816001146112ac57600061054b565b506001919050565b825460018401548354600092600160a060020a0316916398eaf11c9185604051918252602082015260409081019051809103902060405160e060020a63ffffffff851602815260048101929092526024820152604401602060405180830381600087803b151561125c57600080fd5b600061102c8585858560405191825260208201526040908101905180910390206111ed565b6000611009848484611369565b600061102c85600286018560018601611323565b825460018401548354600092600160a060020a0316916353aa3f5e9185604051918252602082015260409081019051809103902060405160e060020a63ffffffff851602815260048101929092526024820152604401602060405180830381600087803b151561125c57600080fd5b60206040519081016040526000815290565b825473ffffffffffffffffffffffffffffffffffffffff1916600160a060020a0392909216919091178255600190910155565b600061145060027f626f617264436f6e74726f6c6c6572000000000000000000000000000000000063ffffffff6119e316565b61148160037f657363726f77416464726573730000000000000000000000000000000000000063ffffffff6119e316565b6114b260047f6a6f6273436f756e74000000000000000000000000000000000000000000000063ffffffff6119e316565b6114e360057f6a6f62537461746500000000000000000000000000000000000000000000000063ffffffff6119ff16565b61151460067f6a6f62436c69656e74000000000000000000000000000000000000000000000063ffffffff6119ff16565b61154560077f6a6f62576f726b6572000000000000000000000000000000000000000000000063ffffffff6119ff16565b61157660087f6a6f6244657461696c734950465348617368000000000000000000000000000063ffffffff6119ff16565b6115a760097f6a6f62536b696c6c73417265610000000000000000000000000000000000000063ffffffff6119ff16565b6115d8600a7f6a6f62536b696c6c7343617465676f727900000000000000000000000000000063ffffffff6119ff16565b611609600b7f6a6f62536b696c6c73000000000000000000000000000000000000000000000063ffffffff6119ff16565b61163a600c7f6a6f62437265617465644174000000000000000000000000000000000000000063ffffffff6119ff16565b61166b600d7f6a6f62416363657074656441740000000000000000000000000000000000000063ffffffff6119ff16565b61169c600e7f6a6f6250656e64696e675374617274417400000000000000000000000000000063ffffffff6119ff16565b6116cd600f7f6a6f62537461727454696d65000000000000000000000000000000000000000063ffffffff6119ff16565b6116fe60107f6a6f6250656e64696e6746696e6973684174000000000000000000000000000063ffffffff6119ff16565b61172f60117f6a6f6246696e69736854696d650000000000000000000000000000000000000063ffffffff6119ff16565b61176060127f6a6f62506175736564000000000000000000000000000000000000000000000063ffffffff6119ff16565b61179160137f6a6f62506175736564417400000000000000000000000000000000000000000063ffffffff6119ff16565b6117c260147f6a6f62506175736564466f72000000000000000000000000000000000000000063ffffffff6119ff16565b6117f360157f6a6f62576f726b666c6f7754797065000000000000000000000000000000000063ffffffff6119ff16565b61182460167f6a6f6244656661756c745061790000000000000000000000000000000000000063ffffffff6119ff16565b61185560177f6a6f624f6666657252617465000000000000000000000000000000000000000063ffffffff6119ff16565b61188660187f6a6f624f66666572457374696d6174650000000000000000000000000000000063ffffffff6119ff16565b6118b760197f6a6f624f666665724f6e746f700000000000000000000000000000000000000063ffffffff6119ff16565b6118e860257f6a6f6246696e616c697a6564417400000000000000000000000000000000000063ffffffff6119ff16565b611919601a7f636c69656e744a6f62730000000000000000000000000000000000000000000063ffffffff611a3516565b61194a601d7f776f726b65724a6f62730000000000000000000000000000000000000000000063ffffffff611a3516565b61197b60207f6a6f624f6666657273000000000000000000000000000000000000000000000063ffffffff611a3516565b6119ac60237f6a6f624f66666572506f7374656441740000000000000000000000000000000063ffffffff6119ff16565b6119dd60247f62696e645374617475730000000000000000000000000000000000000000000063ffffffff6119ff16565b50600190565b81546119ef9082611a49565b9055565b81546119ef9082611a49565b611a0982826119e3565b5050565b611a0982826119e3565b611a0982826119e3565b611a0982826119e3565b611a0982826119e3565b611a098282611a77565b611a098282611a77565b81151580611a55575080155b15611a0957600080fd5b81546119ef9082611a49565b81546119ef9082611a49565b611a0982825b611abe82826040519081527f636f756e74000000000000000000000000000000000000000000000000000000602082015260250160405180910390206119e3565b611b0282600101826040519081527f696e646578657300000000000000000000000000000000000000000000000000602082015260270160405180910390206119e3565b611a0982600201826040519081527f76616c7565730000000000000000000000000000000000000000000000000000602082015260260160405180910390206119e35600a165627a7a72305820bc71367a39eeb8f742e12b774c5ce862214fba8ec88a01dec8768fa724467a9d0029",
  "source": "/**\n * Copyright 20172018, LaborX PTY\n * Licensed under the AGPL Version 3 license.\n */\n\npragma solidity ^0.4.18;\n\n\nimport \"./base/BitOps.sol\";\nimport \"./JobDataCore.sol\";\n\n\ninterface BoardControllerAccessor {\n    function getJobsBoard(uint _jobId) external view returns (uint);\n}\n\n\ncontract JobsDataProvider is JobDataCore {\n\n    function JobsDataProvider(\n        Storage _store,\n        bytes32 _crate\n    )\n    JobDataCore(_store, _crate)\n    public\n    {\n        require(OK == JobDataCore._init());\n    }\n\n    /// @notice Gets filtered list of jobs ids that fulfill provided parameters\n    /// in a paginated way.\n    function getJobs(\n        uint _jobState,\n        uint _skillsArea,\n        uint _skillsCategory,\n        uint _skills,\n        uint _paused,\n        uint _fromId,\n        uint _maxLen\n    )\n    public\n    view\n    returns (uint[] _ids)\n    {\n        _ids = new uint[](_maxLen);\n        uint _pointer;\n        for (uint _jobId = _fromId; _jobId < _fromId + _maxLen; ++_jobId) {\n            if (_filterJob(_jobId, _jobState, _skillsArea, _skillsCategory, _skills, _paused)) {\n                _ids[_pointer] = _jobId;\n                _pointer += 1;\n            }\n        }\n    }\n\n    function getJobForClientCount(address _client) public view returns (uint) {\n        return store.count(clientJobs, bytes32(_client));\n    }\n\n    /// @notice Gets filtered jobs ids for a client where jobs have provided properties\n    /// (job state, skills area, skills category, skills, paused)\n    function getJobsForClient(\n        address _client,\n        uint _jobState,\n        uint _skillsArea,\n        uint _skillsCategory,\n        uint _skills,\n        uint _paused,\n        uint _fromIdx,\n        uint _maxLen\n    )\n    public\n    view\n    returns (uint[] _ids)\n    {\n        uint _count = getJobForClientCount(_client);\n        require(_fromIdx < _count);\n        _maxLen = (_fromIdx + _maxLen <= _count) ? _maxLen : (_count - _fromIdx);\n        _ids = new uint[](_maxLen);\n        uint _pointer;\n        for (uint _idx = _fromIdx; _idx < _fromIdx + _maxLen; ++_idx) {\n            uint _jobId = store.get(clientJobs, bytes32(_client), _idx);\n            if (_filterJob(_jobId, _jobState, _skillsArea, _skillsCategory, _skills, _paused)) {\n                _ids[_pointer] = _jobId;\n                _pointer += 1;\n            }\n        }\n    }\n\n    function getJobForWorkerCount(address _worker) public view returns (uint) {\n        return store.count(workerJobs, bytes32(_worker));\n    }\n\n    /// @notice Gets filtered jobs for a worker\n    /// Doesn't inlcude jobs for which a worker had posted an offer but\n    /// other worker got the job\n    /// @param _jobState a bitmask, job's state; if INT.MAX then jobs with any state will be included in output\n    /// @param _paused if job should be paused or not, convertible to bool; if greater than '1' then output includes both states\n    function getJobForWorker(\n        address _worker,\n        uint _jobState,\n        uint _skillsArea,\n        uint _skillsCategory,\n        uint _skills,\n        uint _paused,\n        uint _fromIdx,\n        uint _maxLen\n    )\n    public\n    view\n    returns (uint[] _ids)\n    {\n        uint _count = getJobForWorkerCount(_worker);\n        require(_fromIdx < _count);\n        _maxLen = (_fromIdx + _maxLen <= _count) ? _maxLen : (_count - _fromIdx);\n        _ids = new uint[](_maxLen);\n        uint _pointer;\n        for (uint _idx = _fromIdx; _idx < _fromIdx + _maxLen; ++_idx) {\n            uint _jobId = store.get(workerJobs, bytes32(_worker), _idx);\n            if (_filterJob(_jobId, _jobState, _skillsArea, _skillsCategory, _skills, _paused)) {\n                _ids[_pointer] = _jobId;\n                _pointer += 1;\n            }\n        }\n    }\n\n    function _filterJob(\n        uint _jobId,\n        uint _jobState,\n        uint _skillsArea,\n        uint _skillsCategory,\n        uint _skills,\n        uint _paused\n    )\n    private\n    view\n    returns (bool)\n    {\n        return _hasFlag(store.get(jobState, _jobId), _jobState) &&\n            (_paused > 1 ? true : (_toBool(_paused) == store.get(jobPaused, _jobId))) &&\n            _hasFlag(store.get(jobSkillsArea, _jobId), _skillsArea) &&\n            _hasFlag(store.get(jobSkillsCategory, _jobId), _skillsCategory) &&\n            _hasFlag(store.get(jobSkills, _jobId), _skills);\n    }\n\n    function _toBool(uint _value) private pure returns (bool) {\n        return _value == 1 ? true : false;\n    }\n\n    function getJobsCount() public view returns (uint) {\n        return store.get(jobsCount);\n    }\n\n    uint8 constant JOBS_RESULT_OFFSET = 21;\n\n    /// @notice Gets jobs details in an archived way (too little stack size\n    /// for such amount of return values)\n    /// @return {\n    ///     \"_gotIds\": \"`uint` identifier\",\n    ///     \"_boardId\": \"`uint` board identifier where job was pinned, '0' if no such board\",\n    ///     \"_client\": \"client's address\",\n    ///     \"_worker\": \"worker's address\",\n    ///     \"_skillsArea\": \"`uint` skills area mask\",\n    ///     \"_skillsCategory\": \"`uint` skills category mask\",\n    ///     \"_skills\": \"`uint` skills mask\",\n    ///     \"_detailsIpfs\": \"`bytes32` details hash\",\n    ///     \"_state\": \"`uint` job's state, see JobState\",\n    ///     \"_flowType\": \"`uint` job's workflow type, see WorkflowType enum\",\n    ///     \"_paused\": \"`bool` paused or not, '1' - paused, '0' - running\",\n    ///     \"_defaultPay\": \"`uint` job's default pay size for job seekers\",\n    ///     \"_createdAt\": \"`uint` publishing (creation) timestamp\",\n    ///     \"_acceptedAt\": \"`uint` an offer has been accepted timestamp\",\n    ///     \"_pendingStartAt\": \"`uint` pending started timestamp\",\n    ///     \"_startedAt\": \"`uint` work started timestamp\",\n    ///     \"_pausedAt\": \"`uint` work's pause timestamp\",\n    ///     \"_pausedFor\": \"`uint` work's pause duration\",\n    ///     \"_pendingFinishAt\": \"`uint` pending finish timestamp\",\n    ///     \"_finishedAt\": \"`uint` work finished timestamp\",\n    ///     \"_finalizedAt\": \"`uint` paycheck finalized timestamp\"\n    /// }\n    function getJobsByIds(uint[] _jobIds) public view returns (\n        bytes32[] _results\n    ) {\n        BoardControllerAccessor _boardController = BoardControllerAccessor(store.get(boardController));\n        _results = new bytes32[](_jobIds.length * JOBS_RESULT_OFFSET);\n        for (uint _idx = 0; _idx < _jobIds.length; ++_idx) {\n            _results[_idx * JOBS_RESULT_OFFSET + 0] = bytes32(_jobIds[_idx]);\n            _results[_idx * JOBS_RESULT_OFFSET + 2] = bytes32(store.get(jobClient, _jobIds[_idx]));\n            _results[_idx * JOBS_RESULT_OFFSET + 3] = bytes32(store.get(jobWorker, _jobIds[_idx]));\n            _results[_idx * JOBS_RESULT_OFFSET + 4] = bytes32(store.get(jobSkillsArea, _jobIds[_idx]));\n            _results[_idx * JOBS_RESULT_OFFSET + 5] = bytes32(store.get(jobSkillsCategory, _jobIds[_idx]));\n            _results[_idx * JOBS_RESULT_OFFSET + 6] = bytes32(store.get(jobSkills, _jobIds[_idx]));\n            _results[_idx * JOBS_RESULT_OFFSET + 7] = store.get(jobDetailsIPFSHash, _jobIds[_idx]);\n            _results[_idx * JOBS_RESULT_OFFSET + 8] = bytes32(store.get(jobState, _jobIds[_idx]));\n            _results[_idx * JOBS_RESULT_OFFSET + 9] = bytes32(store.get(jobWorkflowType, _jobIds[_idx]));\n            _results[_idx * JOBS_RESULT_OFFSET + 10] = bytes32(store.get(jobPaused, _jobIds[_idx]) ? 1 : 0);\n            _results[_idx * JOBS_RESULT_OFFSET + 11] = bytes32(store.get(jobDefaultPay, _jobIds[_idx]));\n            _results[_idx * JOBS_RESULT_OFFSET + 12] = bytes32(store.get(jobCreatedAt, _jobIds[_idx]));\n            _results[_idx * JOBS_RESULT_OFFSET + 13] = bytes32(store.get(jobAcceptedAt, _jobIds[_idx]));\n            _results[_idx * JOBS_RESULT_OFFSET + 14] = bytes32(store.get(jobPendingStartAt, _jobIds[_idx]));\n            _results[_idx * JOBS_RESULT_OFFSET + 15] = bytes32(store.get(jobStartTime, _jobIds[_idx]));\n            _results[_idx * JOBS_RESULT_OFFSET + 16] = bytes32(store.get(jobPausedAt, _jobIds[_idx]));\n            _results[_idx * JOBS_RESULT_OFFSET + 17] = bytes32(store.get(jobPausedFor, _jobIds[_idx]));\n            _results[_idx * JOBS_RESULT_OFFSET + 18] = bytes32(store.get(jobPendingFinishAt, _jobIds[_idx]));\n            _results[_idx * JOBS_RESULT_OFFSET + 19] = bytes32(store.get(jobFinishTime, _jobIds[_idx]));\n            _results[_idx * JOBS_RESULT_OFFSET + 20] = bytes32(store.get(jobFinalizedAt, _jobIds[_idx]));\n\n            if (address(_boardController) != 0x0) {\n                _results[_idx * JOBS_RESULT_OFFSET + 1] = bytes32(_boardController.getJobsBoard(_jobIds[_idx]));\n            }\n        }\n    }\n\n    function getJobOffersCount(uint _jobId) public view returns (uint) {\n        return store.count(jobOffers, bytes32(_jobId));\n    }\n\n    function getJobOffers(uint _jobId, uint _fromIdx, uint _maxLen) public view returns (\n        uint _id,\n        address[] _workers,\n        uint[] _rates,\n        uint[] _estimates,\n        uint[] _onTops,\n        uint[] _offerPostedAt\n    ) {\n        uint _offersCount = getJobOffersCount(_jobId);\n        if (_fromIdx > _offersCount) {\n            return;\n        }\n\n        _maxLen = (_fromIdx + _maxLen <= _offersCount) ? _maxLen : (_offersCount - _fromIdx);\n\n        _id = _jobId;\n        _workers = new address[](_maxLen);\n        _rates = new uint[](_maxLen);\n        _estimates = new uint[](_maxLen);\n        _onTops = new uint[](_maxLen);\n        _offerPostedAt = new uint[](_maxLen);\n        uint _pointer = 0;\n\n        for (uint _offerIdx = _fromIdx; _offerIdx < _fromIdx + _maxLen; ++_offerIdx) {\n            _workers[_pointer] = store.get(jobOffers, bytes32(_jobId), _offerIdx);\n            _rates[_pointer] = store.get(jobOfferRate, _jobId, _workers[_pointer]);\n            _estimates[_pointer] = store.get(jobOfferEstimate, _jobId, _workers[_pointer]);\n            _onTops[_pointer] = store.get(jobOfferOntop, _jobId, _workers[_pointer]);\n            _offerPostedAt[_pointer] = store.get(jobOfferPostedAt, _jobId, _workers[_pointer]);\n            _pointer += 1;\n        }\n    }\n\n    function getJobClient(uint _jobId) public view returns (address) {\n        return store.get(jobClient, _jobId);\n    }\n\n    function getJobWorker(uint _jobId) public view returns (address) {\n        return store.get(jobWorker, _jobId);\n    }\n\n    function isActivatedState(uint _jobId, uint _jobState) public view returns (bool) {\n        uint _flow = store.get(jobWorkflowType, _jobId);\n        bool _needsConfirmation = (_flow & WORKFLOW_CONFIRMATION_NEEDED_FLAG) != 0;\n        if (_needsConfirmation && \n        _jobState >= JOB_STATE_STARTED\n        ) {\n            return true;\n        }\n\n        if (!_needsConfirmation &&\n            _jobState >= JOB_STATE_PENDING_START\n        ) {\n            return true;\n        }\n    }\n\n    function getJobSkillsArea(uint _jobId) public view returns (uint) {\n        return store.get(jobSkillsArea, _jobId);\n    }\n\n    function getJobSkillsCategory(uint _jobId) public view returns (uint) {\n        return store.get(jobSkillsCategory, _jobId);\n    }\n\n    function getJobSkills(uint _jobId) public view returns (uint) {\n        return store.get(jobSkills, _jobId);\n    }\n\n    function getJobDetailsIPFSHash(uint _jobId) public view returns (bytes32) {\n        return store.get(jobDetailsIPFSHash, _jobId);\n    }\n\n    function getJobDefaultPay(uint _jobId) public view returns (uint) {\n        return uint(store.get(jobDefaultPay, _jobId));\n    }\n\n    function getJobState(uint _jobId) public view returns (uint) {\n        return uint(store.get(jobState, _jobId));\n    }\n\n    function getFinalState(uint _jobId) public view returns (uint) {\n        return store.get(jobFinalizedAt, _jobId);\n    }\n}\n",
  "sourcePath": "/Users/alesanro/Documents/Projects/ChronoBank/LX-SC/contracts/JobsDataProvider.sol",
  "compiler": {
    "name": "solc",
    "version": "0.4.21+commit.dfe3193c.Emscripten.clang"
  },
  "schemaVersion": "2.0.0",
  "updatedAt": "2018-06-20T11:53:20.638Z"
}