{
  "contractName": "JobsDataProvider",
  "abi": [
    {
      "constant": true,
      "inputs": [
        {
          "name": "_jobId",
          "type": "uint256"
        }
      ],
      "name": "getJobSkillsCategory",
      "outputs": [
        {
          "name": "",
          "type": "uint256"
        }
      ],
      "payable": false,
      "stateMutability": "view",
      "type": "function"
    },
    {
      "constant": true,
      "inputs": [
        {
          "name": "_jobId",
          "type": "uint256"
        }
      ],
      "name": "getJobSkillsArea",
      "outputs": [
        {
          "name": "",
          "type": "uint256"
        }
      ],
      "payable": false,
      "stateMutability": "view",
      "type": "function"
    },
    {
      "constant": true,
      "inputs": [
        {
          "name": "_jobId",
          "type": "uint256"
        }
      ],
      "name": "getJobDefaultPay",
      "outputs": [
        {
          "name": "",
          "type": "uint256"
        }
      ],
      "payable": false,
      "stateMutability": "view",
      "type": "function"
    },
    {
      "constant": true,
      "inputs": [
        {
          "name": "_jobId",
          "type": "uint256"
        }
      ],
      "name": "getJobClient",
      "outputs": [
        {
          "name": "",
          "type": "address"
        }
      ],
      "payable": false,
      "stateMutability": "view",
      "type": "function"
    },
    {
      "constant": true,
      "inputs": [
        {
          "name": "_client",
          "type": "address"
        }
      ],
      "name": "getJobForClientCount",
      "outputs": [
        {
          "name": "",
          "type": "uint256"
        }
      ],
      "payable": false,
      "stateMutability": "view",
      "type": "function"
    },
    {
      "constant": true,
      "inputs": [
        {
          "name": "_jobId",
          "type": "uint256"
        }
      ],
      "name": "getJobDetailsIPFSHash",
      "outputs": [
        {
          "name": "",
          "type": "bytes32"
        }
      ],
      "payable": false,
      "stateMutability": "view",
      "type": "function"
    },
    {
      "constant": true,
      "inputs": [
        {
          "name": "_jobId",
          "type": "uint256"
        }
      ],
      "name": "getJobWorker",
      "outputs": [
        {
          "name": "",
          "type": "address"
        }
      ],
      "payable": false,
      "stateMutability": "view",
      "type": "function"
    },
    {
      "constant": true,
      "inputs": [
        {
          "name": "_worker",
          "type": "address"
        },
        {
          "name": "_jobState",
          "type": "uint256"
        },
        {
          "name": "_skillsArea",
          "type": "uint256"
        },
        {
          "name": "_skillsCategory",
          "type": "uint256"
        },
        {
          "name": "_skills",
          "type": "uint256"
        },
        {
          "name": "_paused",
          "type": "bool"
        },
        {
          "name": "_fromIdx",
          "type": "uint256"
        },
        {
          "name": "_maxLen",
          "type": "uint256"
        }
      ],
      "name": "getJobForWorker",
      "outputs": [
        {
          "name": "_ids",
          "type": "uint256[]"
        }
      ],
      "payable": false,
      "stateMutability": "view",
      "type": "function"
    },
    {
      "constant": true,
      "inputs": [
        {
          "name": "_jobId",
          "type": "uint256"
        }
      ],
      "name": "getJobState",
      "outputs": [
        {
          "name": "",
          "type": "uint256"
        }
      ],
      "payable": false,
      "stateMutability": "view",
      "type": "function"
    },
    {
      "constant": true,
      "inputs": [
        {
          "name": "_worker",
          "type": "address"
        }
      ],
      "name": "getJobForWorkerCount",
      "outputs": [
        {
          "name": "",
          "type": "uint256"
        }
      ],
      "payable": false,
      "stateMutability": "view",
      "type": "function"
    },
    {
      "constant": true,
      "inputs": [
        {
          "name": "_jobState",
          "type": "uint256"
        },
        {
          "name": "_skillsArea",
          "type": "uint256"
        },
        {
          "name": "_skillsCategory",
          "type": "uint256"
        },
        {
          "name": "_skills",
          "type": "uint256"
        },
        {
          "name": "_paused",
          "type": "bool"
        },
        {
          "name": "_fromId",
          "type": "uint256"
        },
        {
          "name": "_maxLen",
          "type": "uint256"
        }
      ],
      "name": "getJobs",
      "outputs": [
        {
          "name": "_ids",
          "type": "uint256[]"
        }
      ],
      "payable": false,
      "stateMutability": "view",
      "type": "function"
    },
    {
      "constant": true,
      "inputs": [
        {
          "name": "_jobIds",
          "type": "uint256[]"
        }
      ],
      "name": "getJobsByIds",
      "outputs": [
        {
          "name": "_results",
          "type": "bytes32[]"
        }
      ],
      "payable": false,
      "stateMutability": "view",
      "type": "function"
    },
    {
      "constant": true,
      "inputs": [
        {
          "name": "_jobId",
          "type": "uint256"
        }
      ],
      "name": "getJobOffersCount",
      "outputs": [
        {
          "name": "",
          "type": "uint256"
        }
      ],
      "payable": false,
      "stateMutability": "view",
      "type": "function"
    },
    {
      "constant": true,
      "inputs": [
        {
          "name": "_client",
          "type": "address"
        },
        {
          "name": "_jobState",
          "type": "uint256"
        },
        {
          "name": "_skillsArea",
          "type": "uint256"
        },
        {
          "name": "_skillsCategory",
          "type": "uint256"
        },
        {
          "name": "_skills",
          "type": "uint256"
        },
        {
          "name": "_paused",
          "type": "bool"
        },
        {
          "name": "_fromIdx",
          "type": "uint256"
        },
        {
          "name": "_maxLen",
          "type": "uint256"
        }
      ],
      "name": "getJobsForClient",
      "outputs": [
        {
          "name": "_ids",
          "type": "uint256[]"
        }
      ],
      "payable": false,
      "stateMutability": "view",
      "type": "function"
    },
    {
      "constant": true,
      "inputs": [
        {
          "name": "_jobId",
          "type": "uint256"
        }
      ],
      "name": "getFinalState",
      "outputs": [
        {
          "name": "",
          "type": "uint256"
        }
      ],
      "payable": false,
      "stateMutability": "view",
      "type": "function"
    },
    {
      "constant": true,
      "inputs": [],
      "name": "getJobsCount",
      "outputs": [
        {
          "name": "",
          "type": "uint256"
        }
      ],
      "payable": false,
      "stateMutability": "view",
      "type": "function"
    },
    {
      "constant": true,
      "inputs": [
        {
          "name": "_jobId",
          "type": "uint256"
        }
      ],
      "name": "getJobSkills",
      "outputs": [
        {
          "name": "",
          "type": "uint256"
        }
      ],
      "payable": false,
      "stateMutability": "view",
      "type": "function"
    },
    {
      "constant": true,
      "inputs": [
        {
          "name": "_jobId",
          "type": "uint256"
        },
        {
          "name": "_fromIdx",
          "type": "uint256"
        },
        {
          "name": "_maxLen",
          "type": "uint256"
        }
      ],
      "name": "getJobOffers",
      "outputs": [
        {
          "name": "_id",
          "type": "uint256"
        },
        {
          "name": "_workers",
          "type": "address[]"
        },
        {
          "name": "_rates",
          "type": "uint256[]"
        },
        {
          "name": "_estimates",
          "type": "uint256[]"
        },
        {
          "name": "_onTops",
          "type": "uint256[]"
        }
      ],
      "payable": false,
      "stateMutability": "view",
      "type": "function"
    },
    {
      "inputs": [
        {
          "name": "_store",
          "type": "address"
        },
        {
          "name": "_crate",
          "type": "bytes32"
        }
      ],
      "payable": false,
      "stateMutability": "nonpayable",
      "type": "constructor"
    }
  ],
  "bytecode": "0x606060405234156200001057600080fd5b604051604080620022ca833981016040528080519190602001805191508290508181816200004f60008383640100000000620012776200008682021704565b5050505062000071620000ac64010000000002620012aa176401000000009004565b6001146200007e57600080fd5b5050620008f8565b8254600160a060020a031916600160a060020a0392909216919091178255600190910155565b6000620000e960027f626f617264436f6e74726f6c6c657200000000000000000000000000000000006401000000006200183f6200076382021704565b6200012460037f657363726f7741646472657373000000000000000000000000000000000000006401000000006200183f6200076382021704565b6200015f60047f6a6f6273436f756e7400000000000000000000000000000000000000000000006401000000006200183f6200076382021704565b6200019a60057f6a6f6253746174650000000000000000000000000000000000000000000000006401000000006200185b6200078382021704565b620001d560067f6a6f62436c69656e7400000000000000000000000000000000000000000000006401000000006200185b6200078382021704565b6200021060077f6a6f62576f726b657200000000000000000000000000000000000000000000006401000000006200185b6200078382021704565b6200024b60087f6a6f6244657461696c73495046534861736800000000000000000000000000006401000000006200185b6200078382021704565b6200028660097f6a6f62536b696c6c7341726561000000000000000000000000000000000000006401000000006200185b6200078382021704565b620002c1600a7f6a6f62536b696c6c7343617465676f72790000000000000000000000000000006401000000006200185b6200078382021704565b620002fc600b7f6a6f62536b696c6c7300000000000000000000000000000000000000000000006401000000006200185b6200078382021704565b62000337600c7f6a6f6243726561746564417400000000000000000000000000000000000000006401000000006200185b6200078382021704565b62000372600d7f6a6f6241636365707465644174000000000000000000000000000000000000006401000000006200185b6200078382021704565b620003ad600e7f6a6f6250656e64696e67537461727441740000000000000000000000000000006401000000006200185b6200078382021704565b620003e8600f7f6a6f62537461727454696d6500000000000000000000000000000000000000006401000000006200185b6200078382021704565b6200042360107f6a6f6250656e64696e6746696e697368417400000000000000000000000000006401000000006200185b6200078382021704565b6200045e60117f6a6f6246696e69736854696d65000000000000000000000000000000000000006401000000006200185b6200078382021704565b6200049960127f6a6f6250617573656400000000000000000000000000000000000000000000006401000000006200185b6200078382021704565b620004d460137f6a6f6250617573656441740000000000000000000000000000000000000000006401000000006200185b6200078382021704565b6200050f60147f6a6f62506175736564466f7200000000000000000000000000000000000000006401000000006200185b6200078382021704565b6200054a60157f6a6f62576f726b666c6f775479706500000000000000000000000000000000006401000000006200185b6200078382021704565b6200058560167f6a6f6244656661756c74506179000000000000000000000000000000000000006401000000006200185b6200078382021704565b620005c060177f6a6f624f666665725261746500000000000000000000000000000000000000006401000000006200185b6200078382021704565b620005fb60187f6a6f624f66666572457374696d617465000000000000000000000000000000006401000000006200185b6200078382021704565b6200063660197f6a6f624f666665724f6e746f70000000000000000000000000000000000000006401000000006200185b6200078382021704565b6200067160247f6a6f6246696e616c697a656441740000000000000000000000000000000000006401000000006200185b6200078382021704565b620006ac601a7f636c69656e744a6f62730000000000000000000000000000000000000000000064010000000062001891620007a182021704565b620006e7601d7f776f726b65724a6f62730000000000000000000000000000000000000000000064010000000062001891620007a182021704565b6200072260207f6a6f624f6666657273000000000000000000000000000000000000000000000064010000000062001891620007a182021704565b6200075d60237f62696e64537461747573000000000000000000000000000000000000000000006401000000006200185b6200078382021704565b50600190565b81546200077f9082640100000000620018a5620007bb82021704565b9055565b6200079d82826401000000006200183f6200076382021704565b5050565b6200079d8282640100000000620018c7620007d382021704565b81151580620007c8575080155b156200079d57600080fd5b6200079d8282640100000000620018cd620007ed82021704565b6200084482826040519081527f636f756e740000000000000000000000000000000000000000000000000000006020820152602501604051809103902062000763640100000000026200183f176401000000009004565b6200089e82600101826040519081527f696e6465786573000000000000000000000000000000000000000000000000006020820152602701604051809103902062000763640100000000026200183f176401000000009004565b6200079d82600201826040519081527f76616c75657300000000000000000000000000000000000000000000000000006020820152602601604051809103902062000763640100000000026200183f176401000000009004565b6119c280620009086000396000f3006060604052600436106100e25763ffffffff60e060020a6000350416630d9f281781146100e75780630e1a9e3f1461010f57806310fdf2171461012557806314f608811461013b57806322d20bac1461016d57806332c514d51461018c57806336dd20a7146101a25780635336c817146101b857806353bc1c121461024157806387c0e1ff146102575780638d2db04b14610276578063af405bfe146102a0578063c63adb0a146102ef578063c8c63ae914610305578063cb56dd791461033b578063d07e9f9014610351578063dce722dd14610364578063fb51a6381461037a575b600080fd5b34156100f257600080fd5b6100fd6004356104c0565b60405190815260200160405180910390f35b341561011a57600080fd5b6100fd6004356104da565b341561013057600080fd5b6100fd6004356104ee565b341561014657600080fd5b610151600435610502565b604051600160a060020a03909116815260200160405180910390f35b341561017857600080fd5b6100fd600160a060020a0360043516610516565b341561019757600080fd5b6100fd600435610533565b34156101ad57600080fd5b610151600435610547565b34156101c357600080fd5b6101ee600160a060020a036004351660243560443560643560843560a435151560c43560e43561055b565b60405160208082528190810183818151815260200191508051906020019060200280838360005b8381101561022d578082015183820152602001610215565b505050509050019250505060405180910390f35b341561024c57600080fd5b6100fd600435610653565b341561026257600080fd5b6100fd600160a060020a0360043516610667565b341561028157600080fd5b6101ee600435602435604435606435608435151560a43560c435610684565b34156102ab57600080fd5b6101ee600460248135818101908301358060208181020160405190810160405280939291908181526020018383602002808284375094965061070595505050505050565b34156102fa57600080fd5b6100fd600435610beb565b341561031057600080fd5b6101ee600160a060020a036004351660243560443560643560843560a435151560c43560e435610bff565b341561034657600080fd5b6100fd600435610ce7565b341561035c57600080fd5b6100fd610cfb565b341561036f57600080fd5b6100fd600435610d13565b341561038557600080fd5b610396600435602435604435610d27565b6040518086815260200180602001806020018060200180602001858103855289818151815260200191508051906020019060200280838360005b838110156103e85780820151838201526020016103d0565b50505050905001858103845288818151815260200191508051906020019060200280838360005b8381101561042757808201518382015260200161040f565b50505050905001858103835287818151815260200191508051906020019060200280838360005b8381101561046657808201518382015260200161044e565b50505050905001858103825286818151815260200191508051906020019060200280838360005b838110156104a557808201518382015260200161048d565b50505050905001995050505050505050505060405180910390f35b60006104d481600a8463ffffffff610ef816565b92915050565b60006104d48160098463ffffffff610ef816565b60006104d48160168463ffffffff610ef816565b60006104d48160068463ffffffff610ef816565b60006104d481601a600160a060020a03851663ffffffff610f0d16565b60006104d48160088463ffffffff610ef816565b60006104d48160078463ffffffff610ef816565b610563611265565b60008060008061058c601d8e600160a060020a03166001026000610f0d9092919063ffffffff16565b935083871061059a57600080fd5b8386880111156105ac578684036105ae565b855b9550856040518059106105be5750595b908082528060200260200182016040525094508691505b85870182101561064357610604601d8e600160a060020a0316600102846000610f1a909392919063ffffffff16565b9050610614818d8d8d8d8d610f31565b15610638578085848151811061062657fe5b60209081029091010152600192909201915b8160010191506105d5565b5050505098975050505050505050565b60006104d48160058463ffffffff610ef816565b60006104d481601d600160a060020a03851663ffffffff610f0d16565b61068c611265565b6000808360405180591061069d5750595b908082528060200260200182016040525092508490505b8385018110156106f8576106cc818b8b8b8b8b610f31565b156106f057808383815181106106de57fe5b60209081029091010152600191909101905b6001016106b4565b5050979650505050505050565b61070d611265565b60008061072181600263ffffffff610fdc16565b915060158451026040518059106107355750595b90808252806020026020018201604052509250600090505b8351811015610be45783818151811061076257fe5b9060200190602002015183601583028151811061077b57fe5b602090810290910101526107af600685838151811061079657fe5b906020019060200201516000919063ffffffff610ef816565b600160a060020a03168360026015840201815181106107ca57fe5b602090810290910101526107e5600785838151811061079657fe5b600160a060020a031683600360158402018151811061080057fe5b6020908102909101015261081b600985838151811061079657fe5b83600460158402018151811061082d57fe5b60209081029091010152610848600a85838151811061079657fe5b83600560158402018151811061085a57fe5b60209081029091010152610875600b85838151811061079657fe5b83600660158402018151811061088757fe5b602090810290910101526108a2600885838151811061079657fe5b8360076015840201815181106108b457fe5b602090810290910101526108cf600585838151811061079657fe5b8360086015840201815181106108e157fe5b602090810290910101526108fc601585838151811061079657fe5b83600960158402018151811061090e57fe5b60209081029091010152610942601285838151811061092957fe5b906020019060200201516000919063ffffffff61105c16565b61094d576000610950565b60015b60ff1683600a60158402018151811061096557fe5b60209081029091010152610980601685838151811061079657fe5b83600b60158402018151811061099257fe5b602090810290910101526109ad600c85838151811061079657fe5b83600c6015840201815181106109bf57fe5b602090810290910101526109da600d85838151811061079657fe5b83600d6015840201815181106109ec57fe5b60209081029091010152610a07600e85838151811061079657fe5b83600e601584020181518110610a1957fe5b60209081029091010152610a34600f85838151811061079657fe5b83600f601584020181518110610a4657fe5b60209081029091010152610a61601385838151811061079657fe5b836010601584020181518110610a7357fe5b60209081029091010152610a8e601485838151811061079657fe5b836011601584020181518110610aa057fe5b60209081029091010152610abb601085838151811061079657fe5b836012601584020181518110610acd57fe5b60209081029091010152610ae8601185838151811061079657fe5b836013601584020181518110610afa57fe5b60209081029091010152610b15602485838151811061079657fe5b836014601584020181518110610b2757fe5b60209081029091010152600160a060020a03821615610bdc5781600160a060020a031663b1bf0510858381518110610b5b57fe5b9060200190602002015160006040516020015260405160e060020a63ffffffff84160281526004810191909152602401602060405180830381600087803b1515610ba457600080fd5b6102c65a03f11515610bb557600080fd5b50505060405180519050836015830260010181518110610bd157fe5b602090810290910101525b60010161074d565b5050919050565b60006104d48160208463ffffffff610f0d16565b610c07611265565b600080600080610c30601a8e600160a060020a03166001026000610f0d9092919063ffffffff16565b9350838710610c3e57600080fd5b838688011115610c5057868403610c52565b855b955085604051805910610c625750595b908082528060200260200182016040525094508691505b85870182101561064357610ca8601a8e600160a060020a0316600102846000610f1a909392919063ffffffff16565b9050610cb8818d8d8d8d8d610f31565b15610cdc5780858481518110610cca57fe5b60209081029091010152600192909201915b816001019150610c79565b60006104d48160248463ffffffff610ef816565b6000610d0e81600463ffffffff61107116565b905090565b60006104d481600b8463ffffffff610ef816565b6000610d31611265565b610d39611265565b610d41611265565b610d49611265565b6000806000610d578b610beb565b9250828a1115610d6657610eea565b82898b011115610d7857898303610d7a565b885b98508a975088604051805910610d8d5750595b9080825280602002602001820160405250965088604051805910610dae5750595b9080825280602002602001820160405250955088604051805910610dcf5750595b9080825280602002602001820160405250945088604051805910610df05750595b90808252806020026020018201604052509350600091508990505b888a01811015610eea57610e29600060208d8463ffffffff610f1a16565b878381518110610e3557fe5b600160a060020a03909216602092830290910190910152610e7860178c898581518110610e5e57fe5b90602001906020020151600092919063ffffffff6110d016565b868381518110610e8457fe5b60209081029091010152610ea060188c898581518110610e5e57fe5b858381518110610eac57fe5b60209081029091010152610ec860198c898581518110610e5e57fe5b848381518110610ed457fe5b6020908102909101015260019182019101610e0b565b505050939792965093509350565b6000610f058484846110e7565b949350505050565b6000610f05848484611181565b6000610f288585858561118e565b95945050505050565b6000610f458160058963ffffffff610ef816565b86148015610f685750610f61600060128963ffffffff61105c16565b1515821515145b8015610f8b5750610f8b610f85600060098a63ffffffff610ef816565b8661119c565b8015610fae5750610fae610fa86000600a8a63ffffffff610ef816565b8561119c565b8015610fd15750610fd1610fcb6000600b8a63ffffffff610ef816565b8461119c565b979650505050505050565b815460018301548254600092600160a060020a03169163d3a3968691846040516020015260405160e060020a63ffffffff851602815260048101929092526024820152604401602060405180830381600087803b151561103b57600080fd5b6102c65a03f1151561104c57600080fd5b5050506040518051949350505050565b6000610f0561106c8585856110e7565b6111a2565b815460018301548254600092600160a060020a0316916353aa3f5e91846040516020015260405160e060020a63ffffffff851602815260048101929092526024820152604401602060405180830381600087803b151561103b57600080fd5b6000610f28858585600160a060020a0386166111a7565b825460018401548354600092600160a060020a0316916337d9d7fc9185604051918252602082015260409081019051809103902060006040516020015260405160e060020a63ffffffff851602815260048101929092526024820152604401602060405180830381600087803b151561115f57600080fd5b6102c65a03f1151561117057600080fd5b505050604051805195945050505050565b6000610f058484846111cc565b6000610f28858585856111d9565b16151590565b151590565b6000610f288585858560405191825260208201526040908101905180910390206110e7565b6000610f058484846111ed565b6000610f28856002860185600186016111a7565b825460018401548354600092600160a060020a0316916353aa3f5e9185604051918252602082015260409081019051809103902060006040516020015260405160e060020a63ffffffff851602815260048101929092526024820152604401602060405180830381600087803b151561115f57600080fd5b60206040519081016040526000815290565b825473ffffffffffffffffffffffffffffffffffffffff1916600160a060020a0392909216919091178255600190910155565b60006112dd60027f626f617264436f6e74726f6c6c6572000000000000000000000000000000000063ffffffff61183f16565b61130e60037f657363726f77416464726573730000000000000000000000000000000000000063ffffffff61183f16565b61133f60047f6a6f6273436f756e74000000000000000000000000000000000000000000000063ffffffff61183f16565b61137060057f6a6f62537461746500000000000000000000000000000000000000000000000063ffffffff61185b16565b6113a160067f6a6f62436c69656e74000000000000000000000000000000000000000000000063ffffffff61185b16565b6113d260077f6a6f62576f726b6572000000000000000000000000000000000000000000000063ffffffff61185b16565b61140360087f6a6f6244657461696c734950465348617368000000000000000000000000000063ffffffff61185b16565b61143460097f6a6f62536b696c6c73417265610000000000000000000000000000000000000063ffffffff61185b16565b611465600a7f6a6f62536b696c6c7343617465676f727900000000000000000000000000000063ffffffff61185b16565b611496600b7f6a6f62536b696c6c73000000000000000000000000000000000000000000000063ffffffff61185b16565b6114c7600c7f6a6f62437265617465644174000000000000000000000000000000000000000063ffffffff61185b16565b6114f8600d7f6a6f62416363657074656441740000000000000000000000000000000000000063ffffffff61185b16565b611529600e7f6a6f6250656e64696e675374617274417400000000000000000000000000000063ffffffff61185b16565b61155a600f7f6a6f62537461727454696d65000000000000000000000000000000000000000063ffffffff61185b16565b61158b60107f6a6f6250656e64696e6746696e6973684174000000000000000000000000000063ffffffff61185b16565b6115bc60117f6a6f6246696e69736854696d650000000000000000000000000000000000000063ffffffff61185b16565b6115ed60127f6a6f62506175736564000000000000000000000000000000000000000000000063ffffffff61185b16565b61161e60137f6a6f62506175736564417400000000000000000000000000000000000000000063ffffffff61185b16565b61164f60147f6a6f62506175736564466f72000000000000000000000000000000000000000063ffffffff61185b16565b61168060157f6a6f62576f726b666c6f7754797065000000000000000000000000000000000063ffffffff61185b16565b6116b160167f6a6f6244656661756c745061790000000000000000000000000000000000000063ffffffff61185b16565b6116e260177f6a6f624f6666657252617465000000000000000000000000000000000000000063ffffffff61185b16565b61171360187f6a6f624f66666572457374696d6174650000000000000000000000000000000063ffffffff61185b16565b61174460197f6a6f624f666665724f6e746f700000000000000000000000000000000000000063ffffffff61185b16565b61177560247f6a6f6246696e616c697a6564417400000000000000000000000000000000000063ffffffff61185b16565b6117a6601a7f636c69656e744a6f62730000000000000000000000000000000000000000000063ffffffff61189116565b6117d7601d7f776f726b65724a6f62730000000000000000000000000000000000000000000063ffffffff61189116565b61180860207f6a6f624f6666657273000000000000000000000000000000000000000000000063ffffffff61189116565b61183960237f62696e645374617475730000000000000000000000000000000000000000000063ffffffff61185b16565b50600190565b815461184b90826118a5565b9055565b815461184b90826118a5565b611865828261183f565b5050565b611865828261183f565b611865828261183f565b611865828261183f565b611865828261183f565b61186582826118c7565b61186582826118c7565b811515806118b1575080155b1561186557600080fd5b815461184b90826118a5565b61186582825b61190e82826040519081527f636f756e740000000000000000000000000000000000000000000000000000006020820152602501604051809103902061183f565b61195282600101826040519081527f696e6465786573000000000000000000000000000000000000000000000000006020820152602701604051809103902061183f565b61186582600201826040519081527f76616c75657300000000000000000000000000000000000000000000000000006020820152602601604051809103902061183f5600a165627a7a72305820429f63b4ac04401915b28d4a36b3b70bfc7264e921aa1a37c46d7ae1cd1f35220029",
  "source": "/**\n * Copyright 20172018, LaborX PTY\n * Licensed under the AGPL Version 3 license.\n */\n\npragma solidity ^0.4.18;\n\n\nimport \"./base/BitOps.sol\";\nimport \"./JobDataCore.sol\";\n\n\ninterface BoardControllerAccessor {\n    function getJobsBoard(uint _jobId) external view returns (uint);\n}\n\n\ncontract JobsDataProvider is JobDataCore {\n\n    function JobsDataProvider(\n        Storage _store,\n        bytes32 _crate\n    )\n    JobDataCore(_store, _crate)\n    public\n    {\n        require(OK == JobDataCore._init());\n    }\n\n    /// @notice Gets filtered list of jobs ids that fulfill provided parameters\n    /// in a paginated way.\n    function getJobs(\n        uint _jobState,\n        uint _skillsArea,\n        uint _skillsCategory,\n        uint _skills,\n        bool _paused,\n        uint _fromId,\n        uint _maxLen\n    )\n    public\n    view\n    returns (uint[] _ids)\n    {\n        _ids = new uint[](_maxLen);\n        uint _pointer;\n        for (uint _jobId = _fromId; _jobId < _fromId + _maxLen; ++_jobId) {\n            if (_filterJob(_jobId, _jobState, _skillsArea, _skillsCategory, _skills, _paused)) {\n                _ids[_pointer] = _jobId;\n                _pointer += 1;\n            }\n        }\n    }\n\n    function getJobForClientCount(address _client) public view returns (uint) {\n        return store.count(clientJobs, bytes32(_client));\n    }\n\n    /// @notice Gets filtered jobs ids for a client where jobs have provided properties\n    /// (job state, skills area, skills category, skills, paused)\n    function getJobsForClient(\n        address _client,\n        uint _jobState,\n        uint _skillsArea,\n        uint _skillsCategory,\n        uint _skills,\n        bool _paused,\n        uint _fromIdx,\n        uint _maxLen\n    )\n    public\n    view\n    returns (uint[] _ids)\n    {\n        uint _count = store.count(clientJobs, bytes32(_client));\n        require(_fromIdx < _count);\n        _maxLen = (_fromIdx + _maxLen <= _count) ? _maxLen : (_count - _fromIdx);\n        _ids = new uint[](_maxLen);\n        uint _pointer;\n        for (uint _idx = _fromIdx; _idx < _fromIdx + _maxLen; ++_idx) {\n            uint _jobId = store.get(clientJobs, bytes32(_client), _idx);\n            if (_filterJob(_jobId, _jobState, _skillsArea, _skillsCategory, _skills, _paused)) {\n                _ids[_pointer] = _jobId;\n                _pointer += 1;\n            }\n        }\n    }\n\n    function getJobForWorkerCount(address _worker) public view returns (uint) {\n        return store.count(workerJobs, bytes32(_worker));\n    }\n\n    /// @notice Gets filtered jobs for a worker\n    /// Doesn't inlcude jobs for which a worker had posted an offer but\n    /// other worker got the job\n    function getJobForWorker(\n        address _worker,\n        uint _jobState,\n        uint _skillsArea,\n        uint _skillsCategory,\n        uint _skills,\n        bool _paused,\n        uint _fromIdx,\n        uint _maxLen\n    )\n    public\n    view\n    returns (uint[] _ids)\n    {\n        uint _count = store.count(workerJobs, bytes32(_worker));\n        require(_fromIdx < _count);\n        _maxLen = (_fromIdx + _maxLen <= _count) ? _maxLen : (_count - _fromIdx);\n        _ids = new uint[](_maxLen);\n        uint _pointer;\n        for (uint _idx = _fromIdx; _idx < _fromIdx + _maxLen; ++_idx) {\n            uint _jobId = store.get(workerJobs, bytes32(_worker), _idx);\n            if (_filterJob(_jobId, _jobState, _skillsArea, _skillsCategory, _skills, _paused)) {\n                _ids[_pointer] = _jobId;\n                _pointer += 1;\n            }\n        }\n    }\n\n    function _filterJob(\n        uint _jobId,\n        uint _jobState,\n        uint _skillsArea,\n        uint _skillsCategory,\n        uint _skills,\n        bool _paused\n    )\n    private\n    view\n    returns (bool)\n    {\n        return _jobState == store.get(jobState, _jobId) &&\n            _paused == store.get(jobPaused, _jobId) &&\n            _hasFlag(store.get(jobSkillsArea, _jobId), _skillsArea) &&\n            _hasFlag(store.get(jobSkillsCategory, _jobId), _skillsCategory) &&\n            _hasFlag(store.get(jobSkills, _jobId), _skills);\n    }\n\n    function getJobsCount() public view returns (uint) {\n        return store.get(jobsCount);\n    }\n\n    uint8 constant JOBS_RESULT_OFFSET = 21;\n\n    /// @notice Gets jobs details in an archived way (too little stack size\n    /// for such amount of return values)\n    /// @return {\n    ///     \"_gotIds\": \"`uint` identifier\",\n    ///     \"_boardId\": \"`uint` board identifier where job was pinned, '0' if no such board\",\n    ///     \"_client\": \"client's address\",\n    ///     \"_worker\": \"worker's address\",\n    ///     \"_skillsArea\": \"`uint` skills area mask\",\n    ///     \"_skillsCategory\": \"`uint` skills category mask\",\n    ///     \"_skills\": \"`uint` skills mask\",\n    ///     \"_detailsIpfs\": \"`bytes32` details hash\",\n    ///     \"_state\": \"`uint` job's state, see JobState\",\n    ///     \"_flowType\": \"`uint` job's workflow type, see WorkflowType enum\",\n    ///     \"_paused\": \"`bool` paused or not, '1' - paused, '0' - running\",\n    ///     \"_defaultPay\": \"`uint` job's default pay size for job seekers\",\n    ///     \"_createdAt\": \"`uint` publishing (creation) timestamp\",\n    ///     \"_acceptedAt\": \"`uint` an offer has been accepted timestamp\",\n    ///     \"_pendingStartAt\": \"`uint` pending started timestamp\",\n    ///     \"_startedAt\": \"`uint` work started timestamp\",\n    ///     \"_pausedAt\": \"`uint` work's pause timestamp\",\n    ///     \"_pausedFor\": \"`uint` work's pause duration\",\n    ///     \"_pendingFinishAt\": \"`uint` pending finish timestamp\",\n    ///     \"_finishedAt\": \"`uint` work finished timestamp\",\n    ///     \"_finalizedAt\": \"`uint` paycheck finalized timestamp\"\n    /// }\n    function getJobsByIds(uint[] _jobIds) public view returns (\n        bytes32[] _results\n    ) {\n        BoardControllerAccessor _boardController = BoardControllerAccessor(store.get(boardController));\n        _results = new bytes32[](_jobIds.length * JOBS_RESULT_OFFSET);\n        for (uint _idx = 0; _idx < _jobIds.length; ++_idx) {\n            _results[_idx * JOBS_RESULT_OFFSET + 0] = bytes32(_jobIds[_idx]);\n            _results[_idx * JOBS_RESULT_OFFSET + 2] = bytes32(store.get(jobClient, _jobIds[_idx]));\n            _results[_idx * JOBS_RESULT_OFFSET + 3] = bytes32(store.get(jobWorker, _jobIds[_idx]));\n            _results[_idx * JOBS_RESULT_OFFSET + 4] = bytes32(store.get(jobSkillsArea, _jobIds[_idx]));\n            _results[_idx * JOBS_RESULT_OFFSET + 5] = bytes32(store.get(jobSkillsCategory, _jobIds[_idx]));\n            _results[_idx * JOBS_RESULT_OFFSET + 6] = bytes32(store.get(jobSkills, _jobIds[_idx]));\n            _results[_idx * JOBS_RESULT_OFFSET + 7] = store.get(jobDetailsIPFSHash, _jobIds[_idx]);\n            _results[_idx * JOBS_RESULT_OFFSET + 8] = bytes32(store.get(jobState, _jobIds[_idx]));\n            _results[_idx * JOBS_RESULT_OFFSET + 9] = bytes32(store.get(jobWorkflowType, _jobIds[_idx]));\n            _results[_idx * JOBS_RESULT_OFFSET + 10] = bytes32(store.get(jobPaused, _jobIds[_idx]) ? 1 : 0);\n            _results[_idx * JOBS_RESULT_OFFSET + 11] = bytes32(store.get(jobDefaultPay, _jobIds[_idx]));\n            _results[_idx * JOBS_RESULT_OFFSET + 12] = bytes32(store.get(jobCreatedAt, _jobIds[_idx]));\n            _results[_idx * JOBS_RESULT_OFFSET + 13] = bytes32(store.get(jobAcceptedAt, _jobIds[_idx]));\n            _results[_idx * JOBS_RESULT_OFFSET + 14] = bytes32(store.get(jobPendingStartAt, _jobIds[_idx]));\n            _results[_idx * JOBS_RESULT_OFFSET + 15] = bytes32(store.get(jobStartTime, _jobIds[_idx]));\n            _results[_idx * JOBS_RESULT_OFFSET + 16] = bytes32(store.get(jobPausedAt, _jobIds[_idx]));\n            _results[_idx * JOBS_RESULT_OFFSET + 17] = bytes32(store.get(jobPausedFor, _jobIds[_idx]));\n            _results[_idx * JOBS_RESULT_OFFSET + 18] = bytes32(store.get(jobPendingFinishAt, _jobIds[_idx]));\n            _results[_idx * JOBS_RESULT_OFFSET + 19] = bytes32(store.get(jobFinishTime, _jobIds[_idx]));\n            _results[_idx * JOBS_RESULT_OFFSET + 20] = bytes32(store.get(jobFinalizedAt, _jobIds[_idx]));\n\n            if (address(_boardController) != 0x0) {\n                _results[_idx * JOBS_RESULT_OFFSET + 1] = bytes32(_boardController.getJobsBoard(_jobIds[_idx]));\n            }\n        }\n    }\n\n    function getJobOffersCount(uint _jobId) public view returns (uint) {\n        return store.count(jobOffers, bytes32(_jobId));\n    }\n\n    function getJobOffers(uint _jobId, uint _fromIdx, uint _maxLen) public view returns (\n        uint _id,\n        address[] _workers,\n        uint[] _rates,\n        uint[] _estimates,\n        uint[] _onTops\n    ) {\n        uint _offersCount = getJobOffersCount(_jobId);\n        if (_fromIdx > _offersCount) {\n            return;\n        }\n\n        _maxLen = (_fromIdx + _maxLen <= _offersCount) ? _maxLen : (_offersCount - _fromIdx);\n\n        _id = _jobId;\n        _workers = new address[](_maxLen);\n        _rates = new uint[](_maxLen);\n        _estimates = new uint[](_maxLen);\n        _onTops = new uint[](_maxLen);\n        uint _pointer = 0;\n\n        for (uint _offerIdx = _fromIdx; _offerIdx < _fromIdx + _maxLen; ++_offerIdx) {\n            _workers[_pointer] = store.get(jobOffers, bytes32(_jobId), _offerIdx);\n            _rates[_pointer] = store.get(jobOfferRate, _jobId, _workers[_pointer]);\n            _estimates[_pointer] = store.get(jobOfferEstimate, _jobId, _workers[_pointer]);\n            _onTops[_pointer] = store.get(jobOfferOntop, _jobId, _workers[_pointer]);\n            _pointer += 1;\n        }\n    }\n\n    function getJobClient(uint _jobId) public view returns (address) {\n        return store.get(jobClient, _jobId);\n    }\n\n    function getJobWorker(uint _jobId) public view returns (address) {\n        return store.get(jobWorker, _jobId);\n    }\n\n    function getJobSkillsArea(uint _jobId) public view returns (uint) {\n        return store.get(jobSkillsArea, _jobId);\n    }\n\n    function getJobSkillsCategory(uint _jobId) public view returns (uint) {\n        return store.get(jobSkillsCategory, _jobId);\n    }\n\n    function getJobSkills(uint _jobId) public view returns (uint) {\n        return store.get(jobSkills, _jobId);\n    }\n\n    function getJobDetailsIPFSHash(uint _jobId) public view returns (bytes32) {\n        return store.get(jobDetailsIPFSHash, _jobId);\n    }\n\n    function getJobDefaultPay(uint _jobId) public view returns (uint) {\n        return uint(store.get(jobDefaultPay, _jobId));\n    }\n\n    function getJobState(uint _jobId) public view returns (uint) {\n        return uint(store.get(jobState, _jobId));\n    }\n\n    function getFinalState(uint _jobId) public view returns (uint) {\n        return store.get(jobFinalizedAt, _jobId);\n    }\n}\n",
  "sourcePath": "/Users/alesanro/Documents/Projects/ChronoBank/LX-SC/contracts/JobsDataProvider.sol",
  "compiler": {
    "name": "solc",
    "version": "0.4.19+commit.c4cbbb05.Emscripten.clang"
  },
  "schemaVersion": "2.0.0",
  "updatedAt": "2018-06-05T15:27:15.694Z"
}