{
  "contractName": "ManagerMock",
  "abi": [
    {
      "constant": false,
      "inputs": [],
      "name": "deny",
      "outputs": [],
      "payable": false,
      "stateMutability": "nonpayable",
      "type": "function"
    },
    {
      "constant": false,
      "inputs": [
        {
          "name": "",
          "type": "address"
        },
        {
          "name": "",
          "type": "bytes32"
        }
      ],
      "name": "isAllowed",
      "outputs": [
        {
          "name": "",
          "type": "bool"
        }
      ],
      "payable": false,
      "stateMutability": "nonpayable",
      "type": "function"
    }
  ],
  "bytecode": "0x6060604052341561000f57600080fd5b60fe8061001d6000396000f30060606040526004361060485763ffffffff7c01000000000000000000000000000000000000000000000000000000006000350416635cb8dd098114604d578063a3fdfee314608d575b600080fd5b3415605757600080fd5b607973ffffffffffffffffffffffffffffffffffffffff60043516602435609f565b604051901515815260200160405180910390f35b3415609757600080fd5b609d60c3565b005b6000805460ff161560b957506000805460ff1916815560bd565b5060015b92915050565b6000805460ff191660011790555600a165627a7a723058200f7db324cc5be4f52fdcfe6d34f3351ad82e892fd6ad9d1e7c92fb94755b42c80029",
  "source": "/**\n * Copyright 2017–2018, LaborX PTY\n * Licensed under the AGPL Version 3 license.\n */\n\npragma solidity ^0.4.18;\n\ncontract ManagerMock {\n\n    bool denied;\n\n    function deny() public {\n        denied = true;\n    }\n\n    function isAllowed(address, bytes32) public returns(bool) {\n        if (denied) {\n            denied = false;\n            return false;\n        }\n        return true;\n    }\n}\n",
  "sourcePath": "/Users/ahiatsevich/Development/chronobank/LX-SC/contracts/helpers/ManagerMock.sol",
  "compiler": {
    "name": "solc",
    "version": "0.4.19+commit.c4cbbb05.Emscripten.clang"
  },
  "schemaVersion": "2.0.0",
  "updatedAt": "2018-05-16T09:14:42.230Z"
}