{
  "contractName": "Mock",
  "abi": [
    {
      "constant": true,
      "inputs": [],
      "name": "callsCount",
      "outputs": [
        {
          "name": "",
          "type": "uint256"
        }
      ],
      "payable": false,
      "stateMutability": "view",
      "type": "function"
    },
    {
      "constant": true,
      "inputs": [],
      "name": "expectationsCount",
      "outputs": [
        {
          "name": "",
          "type": "uint256"
        }
      ],
      "payable": false,
      "stateMutability": "view",
      "type": "function"
    },
    {
      "constant": true,
      "inputs": [],
      "name": "nextExpectation",
      "outputs": [
        {
          "name": "",
          "type": "uint256"
        }
      ],
      "payable": false,
      "stateMutability": "view",
      "type": "function"
    },
    {
      "constant": true,
      "inputs": [
        {
          "name": "",
          "type": "bytes4"
        }
      ],
      "name": "ignores",
      "outputs": [
        {
          "name": "",
          "type": "bool"
        }
      ],
      "payable": false,
      "stateMutability": "view",
      "type": "function"
    },
    {
      "constant": true,
      "inputs": [
        {
          "name": "",
          "type": "uint256"
        }
      ],
      "name": "expectations",
      "outputs": [
        {
          "name": "callHash",
          "type": "bytes32"
        },
        {
          "name": "callReturn",
          "type": "bytes32"
        }
      ],
      "payable": false,
      "stateMutability": "view",
      "type": "function"
    },
    {
      "payable": true,
      "stateMutability": "payable",
      "type": "fallback"
    },
    {
      "anonymous": false,
      "inputs": [
        {
          "indexed": false,
          "name": "index",
          "type": "uint256"
        },
        {
          "indexed": false,
          "name": "from",
          "type": "address"
        },
        {
          "indexed": false,
          "name": "value",
          "type": "uint256"
        },
        {
          "indexed": false,
          "name": "input",
          "type": "bytes"
        },
        {
          "indexed": false,
          "name": "callHash",
          "type": "bytes32"
        }
      ],
      "name": "UnexpectedCall",
      "type": "event"
    },
    {
      "constant": false,
      "inputs": [
        {
          "name": "_sig",
          "type": "bytes4"
        },
        {
          "name": "_enabled",
          "type": "bool"
        }
      ],
      "name": "ignore",
      "outputs": [],
      "payable": false,
      "stateMutability": "nonpayable",
      "type": "function"
    },
    {
      "constant": false,
      "inputs": [
        {
          "name": "_from",
          "type": "address"
        },
        {
          "name": "_value",
          "type": "uint256"
        },
        {
          "name": "_input",
          "type": "bytes"
        },
        {
          "name": "_return",
          "type": "bytes32"
        }
      ],
      "name": "expect",
      "outputs": [],
      "payable": false,
      "stateMutability": "nonpayable",
      "type": "function"
    },
    {
      "constant": true,
      "inputs": [
        {
          "name": "_value",
          "type": "uint256"
        }
      ],
      "name": "convertToBytes32",
      "outputs": [
        {
          "name": "",
          "type": "bytes32"
        }
      ],
      "payable": false,
      "stateMutability": "pure",
      "type": "function"
    },
    {
      "constant": true,
      "inputs": [
        {
          "name": "_arg1",
          "type": "bytes32"
        },
        {
          "name": "_arg2",
          "type": "bytes32"
        }
      ],
      "name": "bitAndBytes32ToBytes32",
      "outputs": [
        {
          "name": "",
          "type": "uint256"
        }
      ],
      "payable": false,
      "stateMutability": "pure",
      "type": "function"
    },
    {
      "constant": true,
      "inputs": [],
      "name": "assertExpectations",
      "outputs": [],
      "payable": false,
      "stateMutability": "view",
      "type": "function"
    },
    {
      "constant": true,
      "inputs": [],
      "name": "expectationsLeft",
      "outputs": [
        {
          "name": "",
          "type": "uint256"
        }
      ],
      "payable": false,
      "stateMutability": "view",
      "type": "function"
    },
    {
      "constant": false,
      "inputs": [],
      "name": "resetCallsCount",
      "outputs": [],
      "payable": false,
      "stateMutability": "nonpayable",
      "type": "function"
    }
  ],
  "bytecode": "0x606060405260018055341561001357600080fd5b610572806100226000396000f3006060604052600436106100b95763ffffffff7c01000000000000000000000000000000000000000000000000000000006000350416630be69fcd8114610218578063294060821461023d5780635c9a4448146102505780636393b4eb14610263578063898a1813146102d9578063968f93eb146102ec578063bc2f6f2614610305578063d09e21ee14610339578063ea0570e01461035e578063eee0b55214610374578063facaeb1a14610387578063fc02c1df146103b5575b60008035600160e060020a031916815260046020526040812054819060ff16156100e857600160005260206000f35b60028054600101905533346000366040516c0100000000000000000000000073ffffffffffffffffffffffffffffffffffffffff86160281526014810184905260348101838380828437820191505094505050505060405190819003902060015460009081526003602052604090205490925082146101ef577fddf231f4294d21c975b0072ff97e84f95eb0d058a8a7aded1e0c185a6f6e227560015433346000368760405186815273ffffffffffffffffffffffffffffffffffffffff86166020820152604081018590526080810182905260a06060820181815290820184905260c08201858580828437820191505097505050505050505060405180910390a1610214565b5060018054808201825560009081526003602090815260408220909201548082529190f35b5050005b341561022357600080fd5b61022b6103c8565b60405190815260200160405180910390f35b341561024857600080fd5b61022b6103ce565b341561025b57600080fd5b61022b6103d4565b341561026e57600080fd5b6102d76004803573ffffffffffffffffffffffffffffffffffffffff169060248035919060649060443590810190830135806020601f8201819004810201604051908101604052818152929190602084018383808284375094965050933593506103da92505050565b005b34156102e457600080fd5b61022b6104ad565b34156102f757600080fd5b61022b6004356024356104b9565b341561031057600080fd5b610325600160e060020a0319600435166104bd565b604051901515815260200160405180910390f35b341561034457600080fd5b6102d7600160e060020a03196004351660243515156104d2565b341561036957600080fd5b61022b6004356104fe565b341561037f57600080fd5b6102d7610501565b341561039257600080fd5b61039d600435610508565b60405191825260208201526040908101905180910390f35b34156103c057600080fd5b6102d7610521565b60025481565b60005481565b60015481565b60408051908101604052808585856040516c0100000000000000000000000073ffffffffffffffffffffffffffffffffffffffff8516028152601481018390526034810182805190602001908083835b602083106104495780518252601f19909201916020918201910161042a565b6001836020036101000a03801982511681845116179092525050509190910194506040935050505051908190039020815260209081018390526000805460010180825581526003909152604090208151815560208201516001909101555050505050565b60018054600054030190565b1690565b60046020526000908152604090205460ff1681565b600160e060020a0319919091166000908152600460205260409020805460ff1916911515919091179055565b90565b6000600255565b6003602052600090815260409020805460019091015482565b6105296104ad565b15158061053a575060005460025414155b1561054457600080fd5b5600a165627a7a72305820c63df43f5ba4f32a3b81793eae4aed66bc56b5fe060612730c33a0e20ef78b730029",
  "source": "/**\n * Copyright 2017–2018, LaborX PTY\n * Licensed under the AGPL Version 3 license.\n */\n\npragma solidity ^0.4.18;\n\ncontract Mock {\n\n    event UnexpectedCall(uint index, address from, uint value, bytes input, bytes32 callHash);\n\n    struct Expect {\n        bytes32 callHash;\n        bytes32 callReturn;\n    }\n\n    uint public expectationsCount;\n    uint public nextExpectation = 1;\n    uint public callsCount;\n    mapping (uint => Expect) public expectations;\n    mapping (bytes4 => bool) public ignores;\n\n    function() public payable {\n        if (ignores[msg.sig]) {\n            assembly {\n                mstore(0, 1)\n                return (0, 32)\n            }\n        }\n        callsCount++;\n        bytes32 callHash = keccak256(msg.sender, msg.value, msg.data);\n        if (expectations[nextExpectation].callHash != callHash) {\n            UnexpectedCall(nextExpectation, msg.sender, msg.value, msg.data, callHash);\n            return;\n        }\n        bytes32 result = expectations[nextExpectation++].callReturn;\n        assembly {\n            mstore(0, result)\n            return (0, 32)\n        }\n    }\n\n    function ignore(bytes4 _sig, bool _enabled) external {\n        ignores[_sig] = _enabled;\n    }\n\n    function expect(address _from, uint _value, bytes _input, bytes32 _return) public {\n        expectations[++expectationsCount] = Expect(keccak256(_from, _value, _input), _return);\n    }\n\n    function convertToBytes32(uint _value) public pure returns (bytes32) {\n        return bytes32(_value);\n    }\n\n    function bitAndBytes32ToBytes32(bytes32 _arg1, bytes32 _arg2) public pure returns (uint) {\n        return uint(_arg1) & uint(_arg2);\n    }\n\n    function assertExpectations() public view {\n        if (expectationsLeft() != 0 || callsCount != expectationsCount) {\n            revert();\n        }\n    }\n\n    function expectationsLeft() public view returns (uint) {\n        return expectationsCount - (nextExpectation - 1);\n    }\n\n    function resetCallsCount() public {\n        callsCount = 0;\n    }\n}\n",
  "sourcePath": "/Users/ahiatsevich/Development/chronobank/LX-SC/contracts/helpers/Mock.sol",
  "compiler": {
    "name": "solc",
    "version": "0.4.19+commit.c4cbbb05.Emscripten.clang"
  },
  "schemaVersion": "2.0.0",
  "updatedAt": "2018-05-24T10:52:05.261Z"
}