{
  "contractName": "MultiEventsHistory",
  "abi": [
    {
      "constant": false,
      "inputs": [
        {
          "name": "_roles2Library",
          "type": "address"
        }
      ],
      "name": "setRoles2Library",
      "outputs": [
        {
          "name": "",
          "type": "uint256"
        }
      ],
      "payable": false,
      "stateMutability": "nonpayable",
      "type": "function"
    },
    {
      "constant": true,
      "inputs": [
        {
          "name": "",
          "type": "address"
        }
      ],
      "name": "isAuthorized",
      "outputs": [
        {
          "name": "",
          "type": "bool"
        }
      ],
      "payable": false,
      "stateMutability": "view",
      "type": "function"
    },
    {
      "inputs": [
        {
          "name": "_roles2Library",
          "type": "address"
        }
      ],
      "payable": false,
      "stateMutability": "nonpayable",
      "type": "constructor"
    },
    {
      "payable": false,
      "stateMutability": "nonpayable",
      "type": "fallback"
    },
    {
      "anonymous": false,
      "inputs": [
        {
          "indexed": false,
          "name": "code",
          "type": "address"
        },
        {
          "indexed": false,
          "name": "sender",
          "type": "address"
        },
        {
          "indexed": false,
          "name": "sig",
          "type": "bytes4"
        }
      ],
      "name": "AuthFailedError",
      "type": "event"
    },
    {
      "constant": false,
      "inputs": [
        {
          "name": "_caller",
          "type": "address"
        }
      ],
      "name": "authorize",
      "outputs": [
        {
          "name": "",
          "type": "bool"
        }
      ],
      "payable": false,
      "stateMutability": "nonpayable",
      "type": "function"
    }
  ],
  "bytecode": "0x6060604052341561000f57600080fd5b60405160208061045a8339810160405280805160008054600160a060020a03909216600160a060020a03199092169190911790555050610406806100546000396000f3006060604052600436106100565763ffffffff7c01000000000000000000000000000000000000000000000000000000006000350416632637cd7d81146100c4578063b6a5d7de146100f5578063fe9fbb8014610128575b341561006157600080fd5b600160a060020a03331660009081526001602052604090205460ff161515610088576100c2565b33600160a060020a031660003660405180838380828437820191505092505050600060405180830381855af491505015156100c257600080fd5b005b34156100cf57600080fd5b6100e3600160a060020a0360043516610147565b60405190815260200160405180910390f35b341561010057600080fd5b610114600160a060020a0360043516610205565b604051901515815260200160405180910390f35b341561013357600080fd5b610114600160a060020a03600435166102e3565b600061015f33600035600160e060020a0319166102f8565b15156101d4577f5133a133185f1023427a2e90f18506b27db994977ce0c0faafd514a7dd109ae03033600035600160e060020a031916604051600160a060020a039384168152919092166020820152600160e060020a03199091166040808301919091526060909101905180910390a1610200565b506000805473ffffffffffffffffffffffffffffffffffffffff1916600160a060020a03831617905560015b919050565b600061021d33600035600160e060020a0319166102f8565b1515610292577f5133a133185f1023427a2e90f18506b27db994977ce0c0faafd514a7dd109ae03033600035600160e060020a031916604051600160a060020a039384168152919092166020820152600160e060020a03199091166040808301919091526060909101905180910390a1610200565b600160a060020a03821660009081526001602052604090205460ff16156102bb57506000610200565b50600160a060020a03166000908152600160208190526040909120805460ff19168217905590565b60016020526000908152604090205460ff1681565b600030600160a060020a031683600160a060020a0316141561031c575060016103d4565b600054600160a060020a03161515610336575060006103d4565b600054600160a060020a031663b70096138430856040517c010000000000000000000000000000000000000000000000000000000063ffffffff8616028152600160a060020a039384166004820152919092166024820152600160e060020a03199091166044820152606401602060405180830381600087803b15156103bb57600080fd5b5af115156103c857600080fd5b50505060405180519150505b929150505600a165627a7a72305820fc58e12f72b41e21ac3f073bf0979901a0c1ec71c8506fb6106c0941cd34a2610029",
  "source": "/**\n * Copyright 2017–2018, LaborX PTY\n * Licensed under the AGPL Version 3 license.\n */\n\npragma solidity ^0.4.18;\n\nimport \"./adapters/Roles2LibraryAdapter.sol\";\n\n\n/**\n * @title Events History universal multi contract.\n *\n * Contract serves as an Events storage for any type of contracts.\n * Events appear on this contract address but their definitions provided by calling contracts.\n *\n * Note: all the non constant functions return false instead of throwing in case if state change\n * didn't happen yet.\n */\ncontract MultiEventsHistory is Roles2LibraryAdapter {\n    // Authorized calling contracts.\n    mapping(address => bool) public isAuthorized;\n\n    function MultiEventsHistory(address _roles2Library) public Roles2LibraryAdapter(_roles2Library) {}\n\n    /**\n     * Authorize new caller contract.\n     *\n     * @param _caller address of the new caller.\n     *\n     * @return success.\n     */\n    function authorize(address _caller) external auth() returns(bool) {\n        if (isAuthorized[_caller]) {\n            return false;\n        }\n        isAuthorized[_caller] = true;\n        return true;\n    }\n\n    /**\n     * Event emitting fallback.\n     *\n     * Can be and only called by authorized caller.\n     * Delegate calls back with provided msg.data to emit an event.\n     *\n     * Throws if call failed.\n     */\n    function () external {\n        if (!isAuthorized[msg.sender]) {\n            return;\n        }\n        // Internal Out Of Gas/Throw: revert this transaction too;\n        // Recursive Call: safe, all changes already made.\n        if (!msg.sender.delegatecall(msg.data)) {\n            revert();\n        }\n    }\n}\n",
  "sourcePath": "/Users/alesanro/Documents/Projects/ChronoBank/LX-SC/contracts/MultiEventsHistory.sol",
  "compiler": {
    "name": "solc",
    "version": "0.4.21+commit.dfe3193c.Emscripten.clang"
  },
  "schemaVersion": "2.0.0",
  "updatedAt": "2018-06-20T11:53:20.551Z"
}