{
  "contractName": "MultiEventsHistoryAdapter",
  "abi": [
    {
      "anonymous": false,
      "inputs": [
        {
          "indexed": true,
          "name": "self",
          "type": "address"
        },
        {
          "indexed": false,
          "name": "msg",
          "type": "bytes32"
        }
      ],
      "name": "Error",
      "type": "event"
    },
    {
      "anonymous": false,
      "inputs": [
        {
          "indexed": true,
          "name": "self",
          "type": "address"
        },
        {
          "indexed": false,
          "name": "errorCode",
          "type": "uint256"
        }
      ],
      "name": "ErrorCode",
      "type": "event"
    },
    {
      "constant": true,
      "inputs": [],
      "name": "getEventsHistory",
      "outputs": [
        {
          "name": "",
          "type": "address"
        }
      ],
      "payable": false,
      "stateMutability": "view",
      "type": "function"
    },
    {
      "constant": false,
      "inputs": [
        {
          "name": "_msg",
          "type": "bytes32"
        }
      ],
      "name": "emitError",
      "outputs": [],
      "payable": false,
      "stateMutability": "nonpayable",
      "type": "function"
    },
    {
      "constant": false,
      "inputs": [
        {
          "name": "_errorCode",
          "type": "uint256"
        }
      ],
      "name": "emitErrorCode",
      "outputs": [],
      "payable": false,
      "stateMutability": "nonpayable",
      "type": "function"
    }
  ],
  "bytecode": "0x6060604052341561000f57600080fd5b6101b98061001e6000396000f3006060604052600436106100565763ffffffff7c01000000000000000000000000000000000000000000000000000000006000350416638834277e811461005b578063e90459f814610073578063fff10aba14610089575b600080fd5b341561006657600080fd5b6100716004356100c5565b005b341561007e57600080fd5b610071600435610119565b341561009457600080fd5b61009c61016d565b60405173ffffffffffffffffffffffffffffffffffffffff909116815260200160405180910390f35b6100cd610189565b73ffffffffffffffffffffffffffffffffffffffff167f09e0713b45664e161c202b19bb4574ee83dfa056f9bfdee56847b3971d9682218260405190815260200160405180910390a250565b610121610189565b73ffffffffffffffffffffffffffffffffffffffff167fbb8f0c1d8804cd86e7873ec11cb00af945c8c0ebd061a68b28617034803464158260405190815260200160405180910390a250565b60005473ffffffffffffffffffffffffffffffffffffffff1690565b33905600a165627a7a723058207203c102a122399cce0d99ba34784fc93c047f0a589f10bde6630e0f1d6dbd030029",
  "source": "/**\n * Copyright 2017–2018, LaborX PTY\n * Licensed under the AGPL Version 3 license.\n */\n\npragma solidity ^0.4.18;\n\n/**\n * @title General MultiEventsHistory user.\n *\n */\ncontract MultiEventsHistoryAdapter {\n    address eventsHistory;\n\n    event Error(address indexed self, bytes32 msg);\n    event ErrorCode(address indexed self, uint errorCode);\n\n    function getEventsHistory() public view returns (address) {\n        return eventsHistory;\n    }\n\n    function _setEventsHistory(address _eventsHistory) internal returns (bool) {\n        eventsHistory = _eventsHistory;\n        return true;\n    }\n\n    // It is address of MultiEventsHistory caller assuming we are inside of delegate call.\n    function _self() view internal returns (address) {\n        return msg.sender;\n    }\n\n    function _emitError(bytes32 _msg) internal {\n        MultiEventsHistoryAdapter(getEventsHistory()).emitError(_msg);\n    }\n\n    function _emitErrorCode(uint _errorCode) internal returns (uint) {\n        MultiEventsHistoryAdapter(getEventsHistory()).emitErrorCode(_errorCode);\n        return _errorCode;\n    }\n\n    function emitError(bytes32 _msg) public {\n        Error(_self(), _msg);\n    }\n\n    function emitErrorCode(uint _errorCode) public {\n        ErrorCode(_self(), _errorCode);\n    }\n}\n",
  "sourcePath": "/Users/ahiatsevich/Development/chronobank/LX-SC/contracts/adapters/MultiEventsHistoryAdapter.sol",
  "compiler": {
    "name": "solc",
    "version": "0.4.19+commit.c4cbbb05.Emscripten.clang"
  },
  "schemaVersion": "2.0.0",
  "updatedAt": "2018-05-24T10:48:46.530Z"
}