{
  "contractName": "Owned",
  "abi": [
    {
      "constant": true,
      "inputs": [],
      "name": "pendingContractOwner",
      "outputs": [
        {
          "name": "",
          "type": "address"
        }
      ],
      "payable": false,
      "stateMutability": "view",
      "type": "function"
    },
    {
      "constant": true,
      "inputs": [],
      "name": "contractOwner",
      "outputs": [
        {
          "name": "",
          "type": "address"
        }
      ],
      "payable": false,
      "stateMutability": "view",
      "type": "function"
    },
    {
      "inputs": [],
      "payable": false,
      "stateMutability": "nonpayable",
      "type": "constructor"
    },
    {
      "constant": false,
      "inputs": [
        {
          "name": "_to",
          "type": "address"
        }
      ],
      "name": "changeContractOwnership",
      "outputs": [
        {
          "name": "",
          "type": "bool"
        }
      ],
      "payable": false,
      "stateMutability": "nonpayable",
      "type": "function"
    },
    {
      "constant": false,
      "inputs": [],
      "name": "claimContractOwnership",
      "outputs": [
        {
          "name": "",
          "type": "bool"
        }
      ],
      "payable": false,
      "stateMutability": "nonpayable",
      "type": "function"
    },
    {
      "constant": false,
      "inputs": [
        {
          "name": "tokens",
          "type": "address[]"
        }
      ],
      "name": "withdrawTokens",
      "outputs": [],
      "payable": false,
      "stateMutability": "nonpayable",
      "type": "function"
    },
    {
      "constant": false,
      "inputs": [],
      "name": "withdrawEther",
      "outputs": [],
      "payable": false,
      "stateMutability": "nonpayable",
      "type": "function"
    }
  ],
  "bytecode": "0x6060604052341561000f57600080fd5b60008054600160a060020a033316600160a060020a03199091161790556103d38061003b6000396000f30060606040526004361061005e5763ffffffff60e060020a6000350416634592cd1d8114610063578063557f4bc91461008a5780635aa77d3c146100a95780635ecb16cd146100d85780637362377b146100f8578063ce606ee01461010b575b600080fd5b341561006e57600080fd5b61007661011e565b604051901515815260200160405180910390f35b341561009557600080fd5b610076600160a060020a0360043516610176565b34156100b457600080fd5b6100bc6101d5565b604051600160a060020a03909116815260200160405180910390f35b34156100e357600080fd5b6100f660048035602481019101356101e4565b005b341561010357600080fd5b6100f661032f565b341561011657600080fd5b6100bc610398565b60015460009033600160a060020a0390811691161461013f57506000610173565b50600180546000805473ffffffffffffffffffffffffffffffffffffffff19908116600160a060020a038416179091551681555b90565b6000805433600160a060020a03908116911614156101d057600160a060020a03821615156101a6575060006101d0565b506001805473ffffffffffffffffffffffffffffffffffffffff1916600160a060020a0383161781555b919050565b600154600160a060020a031681565b600080548190819033600160a060020a039081169116141561032857600092505b838310156103285784848481811061021957fe5b90506020020135600160a060020a0316915081600160a060020a03166370a082313060006040516020015260405160e060020a63ffffffff8416028152600160a060020a039091166004820152602401602060405180830381600087803b151561028257600080fd5b6102c65a03f1151561029357600080fd5b5050506040518051915050801561031d5781600160a060020a031663a9059cbb338360006040516020015260405160e060020a63ffffffff8516028152600160a060020a0390921660048301526024820152604401602060405180830381600087803b151561030157600080fd5b6102c65a03f1151561031257600080fd5b505050604051805150505b600190920191610205565b5050505050565b60005433600160a060020a039081169116141561039657600030600160a060020a03163111156103965733600160a060020a03166108fc30600160a060020a0316319081150290604051600060405180830381858888f19350505050151561039657600080fd5b565b600054600160a060020a0316815600a165627a7a723058207fb52b507cc481838ce067aff1ee93ab63d9f3ecd0fdb6b6a2b41976df410d740029",
  "source": "/**\n * Copyright 2017–2018, LaborX PTY\n * Licensed under the AGPL Version 3 license.\n */\n\npragma solidity ^0.4.18;\n\n\nimport './ERC20Interface.sol';\n\n\n/**\n * @title Owned contract with safe ownership pass.\n *\n * Note: all the non constant functions return false instead of throwing in case if state change\n * didn't happen yet.\n */\ncontract Owned {\n    address public contractOwner;\n    address public pendingContractOwner;\n\n    function Owned() public {\n        contractOwner = msg.sender;\n    }\n\n    modifier onlyContractOwner {\n        if (contractOwner == msg.sender) {\n            _;\n        }\n    }\n\n    /**\n     * Prepares ownership pass.\n     *\n     * Can only be called by current owner.\n     *\n     * @param _to address of the next owner.\n     *\n     * @return success.\n     */\n    function changeContractOwnership(address _to) public onlyContractOwner returns (bool) {\n        if (_to == 0x0) {\n            return false;\n        }\n        pendingContractOwner = _to;\n        return true;\n    }\n\n    /**\n     * Finalize ownership pass.\n     *\n     * Can only be called by pending owner.\n     *\n     * @return success.\n     */\n    function claimContractOwnership() public returns (bool) {\n        if (pendingContractOwner != msg.sender) {\n            return false;\n        }\n\n        contractOwner = pendingContractOwner;\n        delete pendingContractOwner;\n        return true;\n    }\n\n    /**\n    *  Withdraw given tokens from contract to owner.\n    *  This method is only allowed for contact owner.\n    */\n    function withdrawTokens(address[] tokens) external onlyContractOwner {\n        for (uint i = 0; i < tokens.length; i++) {\n            ERC20Interface token = ERC20Interface(tokens[i]);\n            uint balance = token.balanceOf(this);\n            if (balance != 0) {\n                token.transfer(msg.sender, balance);\n            }\n        }\n    }\n\n    /**\n    *  Withdraw ether from contract to owner.\n    *  This method is only allowed for contact owner.\n    */\n    function withdrawEther() external onlyContractOwner {\n        if (this.balance > 0)  {\n            msg.sender.transfer(this.balance);\n        }\n    }\n}\n",
  "sourcePath": "/Users/alesanro/Documents/Projects/ChronoBank/LX-SC/contracts/base/Owned.sol",
  "compiler": {
    "name": "solc",
    "version": "0.4.19+commit.c4cbbb05.Emscripten.clang"
  },
  "schemaVersion": "2.0.0",
  "updatedAt": "2018-06-05T15:05:41.770Z"
}