{
  "contractName": "PaymentProcessor",
  "abi": [
    {
      "constant": false,
      "inputs": [
        {
          "name": "_roles2Library",
          "type": "address"
        }
      ],
      "name": "setRoles2Library",
      "outputs": [
        {
          "name": "",
          "type": "uint256"
        }
      ],
      "payable": false,
      "stateMutability": "nonpayable",
      "type": "function"
    },
    {
      "constant": true,
      "inputs": [],
      "name": "serviceMode",
      "outputs": [
        {
          "name": "",
          "type": "bool"
        }
      ],
      "payable": false,
      "stateMutability": "view",
      "type": "function"
    },
    {
      "constant": false,
      "inputs": [],
      "name": "enableServiceMode",
      "outputs": [
        {
          "name": "",
          "type": "uint256"
        }
      ],
      "payable": false,
      "stateMutability": "nonpayable",
      "type": "function"
    },
    {
      "constant": true,
      "inputs": [
        {
          "name": "",
          "type": "bytes32"
        }
      ],
      "name": "approved",
      "outputs": [
        {
          "name": "",
          "type": "bool"
        }
      ],
      "payable": false,
      "stateMutability": "view",
      "type": "function"
    },
    {
      "constant": false,
      "inputs": [
        {
          "name": "_operationId",
          "type": "bytes32"
        },
        {
          "name": "_from",
          "type": "address"
        },
        {
          "name": "_value",
          "type": "uint256"
        },
        {
          "name": "_contract",
          "type": "address"
        }
      ],
      "name": "lockPayment",
      "outputs": [
        {
          "name": "",
          "type": "uint256"
        }
      ],
      "payable": false,
      "stateMutability": "nonpayable",
      "type": "function"
    },
    {
      "constant": false,
      "inputs": [
        {
          "name": "_operationId",
          "type": "bytes32"
        },
        {
          "name": "_to",
          "type": "address"
        },
        {
          "name": "_value",
          "type": "uint256"
        },
        {
          "name": "_change",
          "type": "address"
        },
        {
          "name": "_feeFromValue",
          "type": "uint256"
        },
        {
          "name": "_additionalFee",
          "type": "uint256"
        },
        {
          "name": "_contract",
          "type": "address"
        }
      ],
      "name": "releasePayment",
      "outputs": [
        {
          "name": "",
          "type": "uint256"
        }
      ],
      "payable": false,
      "stateMutability": "nonpayable",
      "type": "function"
    },
    {
      "constant": false,
      "inputs": [
        {
          "name": "_operationId",
          "type": "uint256"
        }
      ],
      "name": "approve",
      "outputs": [
        {
          "name": "",
          "type": "uint256"
        }
      ],
      "payable": false,
      "stateMutability": "nonpayable",
      "type": "function"
    },
    {
      "constant": true,
      "inputs": [],
      "name": "paymentGateway",
      "outputs": [
        {
          "name": "",
          "type": "address"
        }
      ],
      "payable": false,
      "stateMutability": "view",
      "type": "function"
    },
    {
      "constant": false,
      "inputs": [],
      "name": "disableServiceMode",
      "outputs": [
        {
          "name": "",
          "type": "uint256"
        }
      ],
      "payable": false,
      "stateMutability": "nonpayable",
      "type": "function"
    },
    {
      "constant": false,
      "inputs": [
        {
          "name": "_paymentGateway",
          "type": "address"
        }
      ],
      "name": "setPaymentGateway",
      "outputs": [
        {
          "name": "",
          "type": "bool"
        }
      ],
      "payable": false,
      "stateMutability": "nonpayable",
      "type": "function"
    },
    {
      "inputs": [
        {
          "name": "_roles2Library",
          "type": "address"
        }
      ],
      "payable": false,
      "stateMutability": "nonpayable",
      "type": "constructor"
    },
    {
      "anonymous": false,
      "inputs": [
        {
          "indexed": false,
          "name": "code",
          "type": "address"
        },
        {
          "indexed": false,
          "name": "sender",
          "type": "address"
        },
        {
          "indexed": false,
          "name": "sig",
          "type": "bytes4"
        }
      ],
      "name": "AuthFailedError",
      "type": "event"
    }
  ],
  "bytecode": "0x60606040526001805460a060020a60ff0219169055341561001f57600080fd5b6040516020806109f98339810160405280805160008054600160a060020a03909216600160a060020a03199092169190911790555050610995806100646000396000f30060606040526004361061008a5763ffffffff60e060020a6000350416632637cd7d811461008f5780633651024c146100c057806361066dc3146100e75780637865c3ad146100fa57806386bd4ef714610110578063a18dda191461013c578063b759f95414610176578063ca2169d41461018c578063e305044f146101bb578063fd01a7ee146101ce575b600080fd5b341561009a57600080fd5b6100ae600160a060020a03600435166101ed565b60405190815260200160405180910390f35b34156100cb57600080fd5b6100d3610299565b604051901515815260200160405180910390f35b34156100f257600080fd5b6100ae6102a9565b341561010557600080fd5b6100d360043561034d565b341561011b57600080fd5b6100ae600435600160a060020a036024358116906044359060643516610362565b341561014757600080fd5b6100ae600435600160a060020a03602435811690604435906064358116906084359060a4359060c435166104eb565b341561018157600080fd5b6100ae60043561067d565b341561019757600080fd5b61019f610718565b604051600160a060020a03909116815260200160405180910390f35b34156101c657600080fd5b6100ae610727565b34156101d957600080fd5b6100d3600160a060020a03600435166107c4565b600061020533600035600160e060020a03191661086f565b15156102685760008051602061094a8339815191523033600035600160e060020a031916604051600160a060020a039384168152919092166020820152600160e060020a03199091166040808301919091526060909101905180910390a1610294565b506000805473ffffffffffffffffffffffffffffffffffffffff1916600160a060020a03831617905560015b919050565b60015460a060020a900460ff1681565b60006102c133600035600160e060020a03191661086f565b15156103245760008051602061094a8339815191523033600035600160e060020a031916604051600160a060020a039384168152919092166020820152600160e060020a03199091166040808301919091526060909101905180910390a161034a565b506001805474ff0000000000000000000000000000000000000000191660a060020a1781555b90565b60026020526000908152604090205460ff1681565b600061037a33600035600160e060020a03191661086f565b15156103dd5760008051602061094a8339815191523033600035600160e060020a031916604051600160a060020a039384168152919092166020820152600160e060020a03199091166040808301919091526060909101905180910390a16104e3565b600154859060a060020a900460ff168015610407575060008181526002602052604090205460ff16155b1561041857613e8160005260206000f35b600154600160a060020a03166306cf228086888760008089816040516020015260405160e060020a63ffffffff8916028152600160a060020a039687166004820152948616602486015260448501939093526064840191909152608483015290911660a482015260c401602060405180830381600087803b151561049b57600080fd5b6102c65a03f115156104ac57600080fd5b505050604051805192505060015460ff60a060020a90910416156104e1576000818152600260205260409020805460ff191690555b505b949350505050565b600061050333600035600160e060020a03191661086f565b15156105665760008051602061094a8339815191523033600035600160e060020a031916604051600160a060020a039384168152919092166020820152600160e060020a03199091166040808301919091526060909101905180910390a1610672565b600154889060a060020a900460ff168015610590575060008181526002602052604090205460ff16155b156105a157613e8160005260206000f35b600154600160a060020a031663d97dec198a8a8a8a8a8a8a60006040516020015260405160e060020a63ffffffff8a16028152600160a060020a039788166004820152958716602487015260448601949094529185166064850152608484015260a483015290911660c482015260e401602060405180830381600087803b151561062a57600080fd5b6102c65a03f1151561063b57600080fd5b505050604051805192505060015460ff60a060020a9091041615610670576000818152600260205260409020805460ff191690555b505b979650505050505050565b600061069533600035600160e060020a03191661086f565b15156106f85760008051602061094a8339815191523033600035600160e060020a031916604051600160a060020a039384168152919092166020820152600160e060020a03199091166040808301919091526060909101905180910390a1610294565b506000908152600260205260409020805460ff1916600190811790915590565b600154600160a060020a031681565b600061073f33600035600160e060020a03191661086f565b15156107a25760008051602061094a8339815191523033600035600160e060020a031916604051600160a060020a039384168152919092166020820152600160e060020a03199091166040808301919091526060909101905180910390a161034a565b506001805474ff00000000000000000000000000000000000000001916815590565b60006107dc33600035600160e060020a03191661086f565b151561083f5760008051602061094a8339815191523033600035600160e060020a031916604051600160a060020a039384168152919092166020820152600160e060020a03199091166040808301919091526060909101905180910390a1610294565b5060018054600160a060020a03831673ffffffffffffffffffffffffffffffffffffffff19909116178155919050565b600030600160a060020a031683600160a060020a0316141561089357506001610943565b600054600160a060020a031615156108ad57506000610943565b60008054600160a060020a03169063b7009613908590309086906040516020015260405160e060020a63ffffffff8616028152600160a060020a039384166004820152919092166024820152600160e060020a03199091166044820152606401602060405180830381600087803b151561092657600080fd5b6102c65a03f1151561093757600080fd5b50505060405180519150505b9291505056005133a133185f1023427a2e90f18506b27db994977ce0c0faafd514a7dd109ae0a165627a7a723058206188e65fe3e9c760e95f55107eb5ea537401fad2da1b3f3147b2daa387bb17980029",
  "source": "/**\n * Copyright 2017–2018, LaborX PTY\n * Licensed under the AGPL Version 3 license.\n */\n\npragma solidity ^0.4.18;\n\nimport './adapters/Roles2LibraryAdapter.sol';\n\n\ncontract PaymentGatewayInterface {\n    function transferWithFee(address _from, address _to, uint _value, uint _feeFromValue, uint _additionalFee, address _contract) public returns (uint);\n    function transferAll(address _from, address _to, uint _value, address _change, uint _feeFromValue, uint _additionalFee, address _contract) public returns (uint);\n}\n\n\ncontract PaymentProcessor is Roles2LibraryAdapter {\n\n    uint constant PAYMENT_PROCESSOR_SCOPE = 16000;\n    uint constant PAYMENT_PROCESSOR_OPERATION_IS_NOT_APPROVED = PAYMENT_PROCESSOR_SCOPE + 1;\n\n\n    PaymentGatewayInterface public paymentGateway;\n    bool public serviceMode = false;\n    mapping(bytes32 => bool) public approved;\n\n    modifier onlyApproved(bytes32 _operationId) {\n        if (serviceMode && !approved[_operationId]) {\n            assembly {\n                mstore(0, 16001) // PAYMENT_PROCESSOR_OPERATION_IS_NOT_APPROVED\n                return(0, 32)\n            }\n        }\n\n        _;\n\n        if (serviceMode) {\n            delete approved[_operationId];\n        }\n    }\n\n    function PaymentProcessor(address _roles2Library) public Roles2LibraryAdapter(_roles2Library) {}\n\n\n    // Only contract owner\n    function setPaymentGateway(PaymentGatewayInterface _paymentGateway) auth external returns (bool) {\n        paymentGateway = _paymentGateway;\n        return true;\n    }\n\n    // Only contract owner\n    function enableServiceMode() auth external returns (uint) {\n        serviceMode = true;\n        return OK;\n    }\n\n    // Only contract owner\n    function disableServiceMode() auth external returns (uint) {\n        delete serviceMode;\n        return OK;\n    }\n\n    // Only contract owner\n    function approve(uint _operationId) auth external returns (uint) {\n        approved[bytes32(_operationId)] = true;\n        return OK;\n    }\n\n    function lockPayment(\n        bytes32 _operationId,\n        address _from,\n        uint _value,\n        address _contract\n    )\n    auth  // Only job controller\n    onlyApproved(_operationId)\n    external\n    returns (uint) {\n        return paymentGateway.transferWithFee(_from, address(_operationId), _value, 0, 0, _contract);\n    }\n\n    function releasePayment(\n        bytes32 _operationId,\n        address _to,\n        uint _value,\n        address _change,\n        uint _feeFromValue,\n        uint _additionalFee,\n        address _contract\n    )\n    auth  // Only job controller\n    onlyApproved(_operationId)\n    external\n    returns (uint) {\n        return paymentGateway.transferAll(\n            address(_operationId),\n            _to,\n            _value,\n            _change,\n            _feeFromValue,\n            _additionalFee,\n            _contract\n        );\n    }\n}\n",
  "sourcePath": "/Users/ahiatsevich/Development/chronobank/LX-SC/contracts/PaymentProcessor.sol",
  "compiler": {
    "name": "solc",
    "version": "0.4.19+commit.c4cbbb05.Emscripten.clang"
  },
  "schemaVersion": "2.0.0",
  "updatedAt": "2018-05-10T14:36:15.368Z"
}