{
  "contractName": "PaymentProcessor",
  "abi": [
    {
      "constant": false,
      "inputs": [
        {
          "name": "_roles2Library",
          "type": "address"
        }
      ],
      "name": "setRoles2Library",
      "outputs": [
        {
          "name": "",
          "type": "uint256"
        }
      ],
      "payable": false,
      "stateMutability": "nonpayable",
      "type": "function"
    },
    {
      "constant": true,
      "inputs": [],
      "name": "serviceMode",
      "outputs": [
        {
          "name": "",
          "type": "bool"
        }
      ],
      "payable": false,
      "stateMutability": "view",
      "type": "function"
    },
    {
      "constant": false,
      "inputs": [
        {
          "name": "_operationId",
          "type": "bytes32"
        },
        {
          "name": "_to",
          "type": "address"
        },
        {
          "name": "_value",
          "type": "uint256"
        },
        {
          "name": "_change",
          "type": "address"
        },
        {
          "name": "_feeFromValue",
          "type": "uint256"
        },
        {
          "name": "_additionalFee",
          "type": "uint256"
        }
      ],
      "name": "releasePayment",
      "outputs": [
        {
          "name": "",
          "type": "uint256"
        }
      ],
      "payable": false,
      "stateMutability": "nonpayable",
      "type": "function"
    },
    {
      "constant": false,
      "inputs": [],
      "name": "enableServiceMode",
      "outputs": [
        {
          "name": "",
          "type": "uint256"
        }
      ],
      "payable": false,
      "stateMutability": "nonpayable",
      "type": "function"
    },
    {
      "constant": true,
      "inputs": [
        {
          "name": "",
          "type": "bytes32"
        }
      ],
      "name": "approved",
      "outputs": [
        {
          "name": "",
          "type": "bool"
        }
      ],
      "payable": false,
      "stateMutability": "view",
      "type": "function"
    },
    {
      "constant": false,
      "inputs": [
        {
          "name": "_operationId",
          "type": "uint256"
        }
      ],
      "name": "approve",
      "outputs": [
        {
          "name": "",
          "type": "uint256"
        }
      ],
      "payable": false,
      "stateMutability": "nonpayable",
      "type": "function"
    },
    {
      "constant": true,
      "inputs": [],
      "name": "paymentGateway",
      "outputs": [
        {
          "name": "",
          "type": "address"
        }
      ],
      "payable": false,
      "stateMutability": "view",
      "type": "function"
    },
    {
      "constant": false,
      "inputs": [
        {
          "name": "_operationId",
          "type": "bytes32"
        },
        {
          "name": "_from",
          "type": "address"
        }
      ],
      "name": "lockPayment",
      "outputs": [
        {
          "name": "",
          "type": "uint256"
        }
      ],
      "payable": true,
      "stateMutability": "payable",
      "type": "function"
    },
    {
      "constant": false,
      "inputs": [],
      "name": "disableServiceMode",
      "outputs": [
        {
          "name": "",
          "type": "uint256"
        }
      ],
      "payable": false,
      "stateMutability": "nonpayable",
      "type": "function"
    },
    {
      "constant": false,
      "inputs": [
        {
          "name": "_paymentGateway",
          "type": "address"
        }
      ],
      "name": "setPaymentGateway",
      "outputs": [
        {
          "name": "",
          "type": "bool"
        }
      ],
      "payable": false,
      "stateMutability": "nonpayable",
      "type": "function"
    },
    {
      "inputs": [
        {
          "name": "_roles2Library",
          "type": "address"
        }
      ],
      "payable": false,
      "stateMutability": "nonpayable",
      "type": "constructor"
    },
    {
      "anonymous": false,
      "inputs": [
        {
          "indexed": false,
          "name": "code",
          "type": "address"
        },
        {
          "indexed": false,
          "name": "sender",
          "type": "address"
        },
        {
          "indexed": false,
          "name": "sig",
          "type": "bytes4"
        }
      ],
      "name": "AuthFailedError",
      "type": "event"
    }
  ],
  "bytecode": "0x60606040526001805460a060020a60ff0219169055341561001f57600080fd5b6040516020806109c38339810160405280805160008054600160a060020a03909216600160a060020a0319909216919091179055505061095f806100646000396000f30060606040526004361061008a5763ffffffff60e060020a6000350416632637cd7d811461008f5780633651024c146100c057806355f0b76e146100e757806361066dc3146101195780637865c3ad1461012c578063b759f95414610142578063ca2169d414610158578063decfd51b14610187578063e305044f1461019e578063fd01a7ee146101b1575b600080fd5b341561009a57600080fd5b6100ae600160a060020a03600435166101d0565b60405190815260200160405180910390f35b34156100cb57600080fd5b6100d361027c565b604051901515815260200160405180910390f35b34156100f257600080fd5b6100ae600435600160a060020a03602435811690604435906064351660843560a43561028c565b341561012457600080fd5b6100ae610419565b341561013757600080fd5b6100d36004356104bd565b341561014d57600080fd5b6100ae6004356104d2565b341561016357600080fd5b61016b61056d565b604051600160a060020a03909116815260200160405180910390f35b6100ae600435600160a060020a036024351661057c565b34156101a957600080fd5b6100ae6106f3565b34156101bc57600080fd5b6100d3600160a060020a0360043516610790565b60006101e833600035600160e060020a03191661083b565b151561024b576000805160206109148339815191523033600035600160e060020a031916604051600160a060020a039384168152919092166020820152600160e060020a03199091166040808301919091526060909101905180910390a1610277565b506000805473ffffffffffffffffffffffffffffffffffffffff1916600160a060020a03831617905560015b919050565b60015460a060020a900460ff1681565b60006102a433600035600160e060020a03191661083b565b1515610307576000805160206109148339815191523033600035600160e060020a031916604051600160a060020a039384168152919092166020820152600160e060020a03199091166040808301919091526060909101905180910390a161040f565b600154879060a060020a900460ff168015610331575060008181526002602052604090205460ff16155b1561034257613e8160005260206000f35b600154600160a060020a031663d8b41d7889898989898960006040516020015260405160e060020a63ffffffff8916028152600160a060020a0396871660048201529486166024860152604485019390935293166064830152608482019290925260a481019190915260c401602060405180830381600087803b15156103c757600080fd5b6102c65a03f115156103d857600080fd5b505050604051805192505060015460ff60a060020a909104161561040d576000818152600260205260409020805460ff191690555b505b9695505050505050565b600061043133600035600160e060020a03191661083b565b1515610494576000805160206109148339815191523033600035600160e060020a031916604051600160a060020a039384168152919092166020820152600160e060020a03199091166040808301919091526060909101905180910390a16104ba565b506001805474ff0000000000000000000000000000000000000000191660a060020a1781555b90565b60026020526000908152604090205460ff1681565b60006104ea33600035600160e060020a03191661083b565b151561054d576000805160206109148339815191523033600035600160e060020a031916604051600160a060020a039384168152919092166020820152600160e060020a03199091166040808301919091526060909101905180910390a1610277565b506000908152600260205260409020805460ff1916600190811790915590565b600154600160a060020a031681565b600061059433600035600160e060020a03191661083b565b15156105f7576000805160206109148339815191523033600035600160e060020a031916604051600160a060020a039384168152919092166020820152600160e060020a03199091166040808301919091526060909101905180910390a16106ed565b600154839060a060020a900460ff168015610621575060008181526002602052604090205460ff16155b1561063257613e8160005260206000f35b600154600160a060020a0316637147042a348587600080806040516020015260405160e060020a63ffffffff8816028152600160a060020a039485166004820152929093166024830152604482015260648101919091526084016020604051808303818588803b15156106a457600080fd5b6125ee5a03f115156106b557600080fd5b50505050604051805192505060015460ff60a060020a90910416156106eb576000818152600260205260409020805460ff191690555b505b92915050565b600061070b33600035600160e060020a03191661083b565b151561076e576000805160206109148339815191523033600035600160e060020a031916604051600160a060020a039384168152919092166020820152600160e060020a03199091166040808301919091526060909101905180910390a16104ba565b506001805474ff00000000000000000000000000000000000000001916815590565b60006107a833600035600160e060020a03191661083b565b151561080b576000805160206109148339815191523033600035600160e060020a031916604051600160a060020a039384168152919092166020820152600160e060020a03199091166040808301919091526060909101905180910390a1610277565b5060018054600160a060020a03831673ffffffffffffffffffffffffffffffffffffffff19909116178155919050565b600030600160a060020a031683600160a060020a0316141561085f575060016106ed565b600054600160a060020a03161515610879575060006106ed565b60008054600160a060020a03169063b7009613908590309086906040516020015260405160e060020a63ffffffff8616028152600160a060020a039384166004820152919092166024820152600160e060020a03199091166044820152606401602060405180830381600087803b15156108f257600080fd5b6102c65a03f1151561090357600080fd5b505050604051805194935050505056005133a133185f1023427a2e90f18506b27db994977ce0c0faafd514a7dd109ae0a165627a7a72305820f89db5341cae1777ead8b2986d2dc3aa6c1bc76a0efb4ac65ece93c4d046a4b60029",
  "source": "/**\n * Copyright 2017–2018, LaborX PTY\n * Licensed under the AGPL Version 3 license.\n */\n\npragma solidity ^0.4.18;\n\nimport './adapters/Roles2LibraryAdapter.sol';\n\n\ncontract PaymentGatewayInterface {\n    function transferWithFee(address _from, address _to, uint _feeFromValue, uint _additionalFee) public payable returns (uint);\n    function transferAll(address _from, address _to, uint _value, address _change, uint _feeFromValue, uint _additionalFee) public returns (uint);\n}\n\n\ncontract PaymentProcessor is Roles2LibraryAdapter {\n\n    uint constant PAYMENT_PROCESSOR_SCOPE = 16000;\n    uint constant PAYMENT_PROCESSOR_OPERATION_IS_NOT_APPROVED = PAYMENT_PROCESSOR_SCOPE + 1;\n\n\n    PaymentGatewayInterface public paymentGateway;\n    bool public serviceMode = false;\n    mapping(bytes32 => bool) public approved;\n\n    modifier onlyApproved(bytes32 _operationId) {\n        if (serviceMode && !approved[_operationId]) {\n            assembly {\n                mstore(0, 16001) // PAYMENT_PROCESSOR_OPERATION_IS_NOT_APPROVED\n                return(0, 32)\n            }\n        }\n\n        _;\n\n        if (serviceMode) {\n            delete approved[_operationId];\n        }\n    }\n\n    function PaymentProcessor(address _roles2Library) public Roles2LibraryAdapter(_roles2Library) {}\n\n\n    // Only contract owner\n    function setPaymentGateway(PaymentGatewayInterface _paymentGateway) auth external returns (bool) {\n        paymentGateway = _paymentGateway;\n        return true;\n    }\n\n    // Only contract owner\n    function enableServiceMode() auth external returns (uint) {\n        serviceMode = true;\n        return OK;\n    }\n\n    // Only contract owner\n    function disableServiceMode() auth external returns (uint) {\n        delete serviceMode;\n        return OK;\n    }\n\n    // Only contract owner\n    function approve(uint _operationId) auth external returns (uint) {\n        approved[bytes32(_operationId)] = true;\n        return OK;\n    }\n\n    function lockPayment(\n        bytes32 _operationId,\n        address _from\n    )\n    auth  // Only job controller\n    onlyApproved(_operationId)\n    external\n    payable\n    returns (uint) {\n        return paymentGateway.transferWithFee.value(msg.value)(_from, address(_operationId), 0, 0);\n    }\n\n    function releasePayment(\n        bytes32 _operationId,\n        address _to,\n        uint _value,\n        address _change,\n        uint _feeFromValue,\n        uint _additionalFee\n    )\n    auth  // Only job controller\n    onlyApproved(_operationId)\n    external\n    returns (uint) {\n        return paymentGateway.transferAll(\n                address(_operationId),\n                _to,\n                _value,\n                _change,\n                _feeFromValue,\n                _additionalFee\n            );\n    }\n}\n",
  "sourcePath": "/Users/ahiatsevich/Development/chronobank/LX-SC/contracts/PaymentProcessor.sol",
  "compiler": {
    "name": "solc",
    "version": "0.4.19+commit.c4cbbb05.Emscripten.clang"
  },
  "schemaVersion": "2.0.0",
  "updatedAt": "2018-05-21T17:51:20.435Z"
}