{
  "contractName": "PaymentGateway",
  "abi": [
    {
      "constant": false,
      "inputs": [
        {
          "name": "_value",
          "type": "uint256"
        },
        {
          "name": "_contract",
          "type": "address"
        }
      ],
      "name": "withdraw",
      "outputs": [
        {
          "name": "",
          "type": "uint256"
        }
      ],
      "payable": false,
      "stateMutability": "nonpayable",
      "type": "function"
    },
    {
      "constant": false,
      "inputs": [
        {
          "name": "_eventsHistory",
          "type": "address"
        }
      ],
      "name": "setupEventsHistory",
      "outputs": [
        {
          "name": "",
          "type": "uint256"
        }
      ],
      "payable": false,
      "stateMutability": "nonpayable",
      "type": "function"
    },
    {
      "constant": false,
      "inputs": [
        {
          "name": "_from",
          "type": "address"
        },
        {
          "name": "_to",
          "type": "address"
        },
        {
          "name": "_value",
          "type": "uint256"
        },
        {
          "name": "_feeFromValue",
          "type": "uint256"
        },
        {
          "name": "_additionalFee",
          "type": "uint256"
        },
        {
          "name": "_contract",
          "type": "address"
        }
      ],
      "name": "transferWithFee",
      "outputs": [
        {
          "name": "",
          "type": "uint256"
        }
      ],
      "payable": false,
      "stateMutability": "nonpayable",
      "type": "function"
    },
    {
      "constant": false,
      "inputs": [
        {
          "name": "_roles2Library",
          "type": "address"
        }
      ],
      "name": "setRoles2Library",
      "outputs": [
        {
          "name": "",
          "type": "uint256"
        }
      ],
      "payable": false,
      "stateMutability": "nonpayable",
      "type": "function"
    },
    {
      "constant": false,
      "inputs": [
        {
          "name": "_from",
          "type": "address"
        },
        {
          "name": "_to",
          "type": "address"
        },
        {
          "name": "_value",
          "type": "uint256"
        },
        {
          "name": "_contract",
          "type": "address"
        }
      ],
      "name": "emitTransferred",
      "outputs": [],
      "payable": false,
      "stateMutability": "nonpayable",
      "type": "function"
    },
    {
      "constant": false,
      "inputs": [
        {
          "name": "_feePercent",
          "type": "uint256"
        },
        {
          "name": "_contract",
          "type": "address"
        }
      ],
      "name": "setFeePercent",
      "outputs": [
        {
          "name": "",
          "type": "uint256"
        }
      ],
      "payable": false,
      "stateMutability": "nonpayable",
      "type": "function"
    },
    {
      "constant": true,
      "inputs": [
        {
          "name": "_value",
          "type": "uint256"
        },
        {
          "name": "_contract",
          "type": "address"
        }
      ],
      "name": "calculateFee",
      "outputs": [
        {
          "name": "",
          "type": "uint256"
        }
      ],
      "payable": false,
      "stateMutability": "view",
      "type": "function"
    },
    {
      "constant": false,
      "inputs": [
        {
          "name": "_erc20Library",
          "type": "address"
        }
      ],
      "name": "setERC20Library",
      "outputs": [
        {
          "name": "",
          "type": "uint256"
        }
      ],
      "payable": false,
      "stateMutability": "nonpayable",
      "type": "function"
    },
    {
      "constant": true,
      "inputs": [],
      "name": "getFeeAddress",
      "outputs": [
        {
          "name": "",
          "type": "address"
        }
      ],
      "payable": false,
      "stateMutability": "view",
      "type": "function"
    },
    {
      "constant": true,
      "inputs": [
        {
          "name": "_address",
          "type": "address"
        },
        {
          "name": "_contract",
          "type": "address"
        }
      ],
      "name": "getBalanceOf",
      "outputs": [
        {
          "name": "",
          "type": "uint256"
        }
      ],
      "payable": false,
      "stateMutability": "view",
      "type": "function"
    },
    {
      "constant": false,
      "inputs": [
        {
          "name": "_value",
          "type": "uint256"
        },
        {
          "name": "_contract",
          "type": "address"
        }
      ],
      "name": "forwardFee",
      "outputs": [
        {
          "name": "",
          "type": "uint256"
        }
      ],
      "payable": false,
      "stateMutability": "nonpayable",
      "type": "function"
    },
    {
      "constant": false,
      "inputs": [
        {
          "name": "_by",
          "type": "address"
        },
        {
          "name": "_value",
          "type": "uint256"
        },
        {
          "name": "_contract",
          "type": "address"
        }
      ],
      "name": "emitDeposited",
      "outputs": [],
      "payable": false,
      "stateMutability": "nonpayable",
      "type": "function"
    },
    {
      "constant": false,
      "inputs": [
        {
          "name": "_value",
          "type": "uint256"
        },
        {
          "name": "_contract",
          "type": "address"
        }
      ],
      "name": "deposit",
      "outputs": [
        {
          "name": "",
          "type": "uint256"
        }
      ],
      "payable": false,
      "stateMutability": "nonpayable",
      "type": "function"
    },
    {
      "constant": false,
      "inputs": [
        {
          "name": "_feePercent",
          "type": "uint256"
        },
        {
          "name": "_contract",
          "type": "address"
        }
      ],
      "name": "emitFeeSet",
      "outputs": [],
      "payable": false,
      "stateMutability": "nonpayable",
      "type": "function"
    },
    {
      "constant": false,
      "inputs": [
        {
          "name": "_balanceHolder",
          "type": "address"
        }
      ],
      "name": "setBalanceHolder",
      "outputs": [
        {
          "name": "",
          "type": "uint256"
        }
      ],
      "payable": false,
      "stateMutability": "nonpayable",
      "type": "function"
    },
    {
      "constant": false,
      "inputs": [
        {
          "name": "_feeAddress",
          "type": "address"
        }
      ],
      "name": "setFeeAddress",
      "outputs": [
        {
          "name": "",
          "type": "uint256"
        }
      ],
      "payable": false,
      "stateMutability": "nonpayable",
      "type": "function"
    },
    {
      "constant": false,
      "inputs": [
        {
          "name": "_errorCode",
          "type": "uint256"
        }
      ],
      "name": "emitErrorCode",
      "outputs": [],
      "payable": false,
      "stateMutability": "nonpayable",
      "type": "function"
    },
    {
      "constant": false,
      "inputs": [
        {
          "name": "_from",
          "type": "address"
        },
        {
          "name": "_to",
          "type": "address[]"
        },
        {
          "name": "_value",
          "type": "uint256[]"
        },
        {
          "name": "_feeFromValue",
          "type": "uint256"
        },
        {
          "name": "_additionalFee",
          "type": "uint256"
        },
        {
          "name": "_contract",
          "type": "address"
        }
      ],
      "name": "transferToMany",
      "outputs": [
        {
          "name": "",
          "type": "uint256"
        }
      ],
      "payable": false,
      "stateMutability": "nonpayable",
      "type": "function"
    },
    {
      "constant": false,
      "inputs": [
        {
          "name": "_from",
          "type": "address[]"
        },
        {
          "name": "_to",
          "type": "address"
        },
        {
          "name": "_value",
          "type": "uint256[]"
        },
        {
          "name": "_contract",
          "type": "address"
        }
      ],
      "name": "transferFromMany",
      "outputs": [
        {
          "name": "",
          "type": "uint256"
        }
      ],
      "payable": false,
      "stateMutability": "nonpayable",
      "type": "function"
    },
    {
      "constant": true,
      "inputs": [
        {
          "name": "_contract",
          "type": "address"
        }
      ],
      "name": "getFeePercent",
      "outputs": [
        {
          "name": "",
          "type": "uint256"
        }
      ],
      "payable": false,
      "stateMutability": "view",
      "type": "function"
    },
    {
      "constant": true,
      "inputs": [
        {
          "name": "_address",
          "type": "address"
        },
        {
          "name": "_contract",
          "type": "address"
        }
      ],
      "name": "getBalance",
      "outputs": [
        {
          "name": "",
          "type": "uint256"
        }
      ],
      "payable": false,
      "stateMutability": "view",
      "type": "function"
    },
    {
      "constant": true,
      "inputs": [],
      "name": "getBalanceHolder",
      "outputs": [
        {
          "name": "",
          "type": "address"
        }
      ],
      "payable": false,
      "stateMutability": "view",
      "type": "function"
    },
    {
      "constant": false,
      "inputs": [
        {
          "name": "_from",
          "type": "address"
        },
        {
          "name": "_to",
          "type": "address"
        },
        {
          "name": "_value",
          "type": "uint256"
        },
        {
          "name": "_change",
          "type": "address"
        },
        {
          "name": "_feeFromValue",
          "type": "uint256"
        },
        {
          "name": "_additionalFee",
          "type": "uint256"
        },
        {
          "name": "_contract",
          "type": "address"
        }
      ],
      "name": "transferAll",
      "outputs": [
        {
          "name": "",
          "type": "uint256"
        }
      ],
      "payable": false,
      "stateMutability": "nonpayable",
      "type": "function"
    },
    {
      "constant": false,
      "inputs": [
        {
          "name": "_by",
          "type": "address"
        },
        {
          "name": "_value",
          "type": "uint256"
        },
        {
          "name": "_contract",
          "type": "address"
        }
      ],
      "name": "emitWithdrawn",
      "outputs": [],
      "payable": false,
      "stateMutability": "nonpayable",
      "type": "function"
    },
    {
      "constant": false,
      "inputs": [
        {
          "name": "_msg",
          "type": "bytes32"
        }
      ],
      "name": "emitError",
      "outputs": [],
      "payable": false,
      "stateMutability": "nonpayable",
      "type": "function"
    },
    {
      "constant": false,
      "inputs": [
        {
          "name": "_from",
          "type": "address"
        },
        {
          "name": "_to",
          "type": "address"
        },
        {
          "name": "_value",
          "type": "uint256"
        },
        {
          "name": "_contract",
          "type": "address"
        }
      ],
      "name": "transfer",
      "outputs": [
        {
          "name": "",
          "type": "uint256"
        }
      ],
      "payable": false,
      "stateMutability": "nonpayable",
      "type": "function"
    },
    {
      "constant": true,
      "inputs": [],
      "name": "getEventsHistory",
      "outputs": [
        {
          "name": "",
          "type": "address"
        }
      ],
      "payable": false,
      "stateMutability": "view",
      "type": "function"
    },
    {
      "inputs": [
        {
          "name": "_store",
          "type": "address"
        },
        {
          "name": "_crate",
          "type": "bytes32"
        },
        {
          "name": "_roles2Library",
          "type": "address"
        },
        {
          "name": "_erc20Library",
          "type": "address"
        }
      ],
      "payable": false,
      "stateMutability": "nonpayable",
      "type": "constructor"
    },
    {
      "anonymous": false,
      "inputs": [
        {
          "indexed": true,
          "name": "self",
          "type": "address"
        },
        {
          "indexed": true,
          "name": "contractAddress",
          "type": "address"
        },
        {
          "indexed": false,
          "name": "feePercent",
          "type": "uint256"
        }
      ],
      "name": "FeeSet",
      "type": "event"
    },
    {
      "anonymous": false,
      "inputs": [
        {
          "indexed": true,
          "name": "self",
          "type": "address"
        },
        {
          "indexed": true,
          "name": "contractAddress",
          "type": "address"
        },
        {
          "indexed": true,
          "name": "by",
          "type": "address"
        },
        {
          "indexed": false,
          "name": "value",
          "type": "uint256"
        }
      ],
      "name": "Deposited",
      "type": "event"
    },
    {
      "anonymous": false,
      "inputs": [
        {
          "indexed": true,
          "name": "self",
          "type": "address"
        },
        {
          "indexed": true,
          "name": "contractAddress",
          "type": "address"
        },
        {
          "indexed": true,
          "name": "by",
          "type": "address"
        },
        {
          "indexed": false,
          "name": "value",
          "type": "uint256"
        }
      ],
      "name": "Withdrawn",
      "type": "event"
    },
    {
      "anonymous": false,
      "inputs": [
        {
          "indexed": true,
          "name": "self",
          "type": "address"
        },
        {
          "indexed": true,
          "name": "contractAddress",
          "type": "address"
        },
        {
          "indexed": false,
          "name": "from",
          "type": "address"
        },
        {
          "indexed": true,
          "name": "to",
          "type": "address"
        },
        {
          "indexed": false,
          "name": "value",
          "type": "uint256"
        }
      ],
      "name": "Transferred",
      "type": "event"
    },
    {
      "anonymous": false,
      "inputs": [
        {
          "indexed": false,
          "name": "code",
          "type": "address"
        },
        {
          "indexed": false,
          "name": "sender",
          "type": "address"
        },
        {
          "indexed": false,
          "name": "sig",
          "type": "bytes4"
        }
      ],
      "name": "AuthFailedError",
      "type": "event"
    },
    {
      "anonymous": false,
      "inputs": [
        {
          "indexed": true,
          "name": "self",
          "type": "address"
        },
        {
          "indexed": false,
          "name": "msg",
          "type": "bytes32"
        }
      ],
      "name": "Error",
      "type": "event"
    },
    {
      "anonymous": false,
      "inputs": [
        {
          "indexed": true,
          "name": "self",
          "type": "address"
        },
        {
          "indexed": false,
          "name": "errorCode",
          "type": "uint256"
        }
      ],
      "name": "ErrorCode",
      "type": "event"
    }
  ],
  "bytecode": "0x606060405234156200001057600080fd5b6040516080806200212c833981016040528080519190602001805191906020018051919060200180519150829050818186866200005e6000838364010000000062001e516200018682021704565b505060038054600160a060020a03928316600160a060020a0319918216179091556004805493909216921691909117905550620000cb60057f62616c616e6365486f6c6465720000000000000000000000000000000000000064010000000062001e84620001ac82021704565b6200010660067f62616c616e63657300000000000000000000000000000000000000000000000064010000000062001e94620001cc82021704565b6200014160077f666565416464726573730000000000000000000000000000000000000000000064010000000062001e84620001ac82021704565b6200017c60087f666565730000000000000000000000000000000000000000000000000000000064010000000062001e94620001cc82021704565b5050505062000202565b8254600160a060020a031916600160a060020a0392909216919091178255600190910155565b8154620001c8908264010000000062001eac620001ea82021704565b9055565b620001e6828264010000000062001e84620001ac82021704565b5050565b81151580620001f7575080155b15620001e657600080fd5b611f1a80620002126000396000f3006060604052600436106101445763ffffffff60e060020a600035041662f714ce811461014957806302927d201461017d57806306cf22801461019c5780632637cd7d146101d35780632e502569146101f25780633ad9a92814610223578063400ba0691461024557806345584c90146102675780634e7ceacb1461028657806353290b44146102b55780635e199892146102da5780636be9f7a0146102fc5780636e553f6514610325578063816ed3361461034757806386b7b8f6146103695780638705fcd4146103885780638834277e146103a75780638e3ab913146103bd5780639d87a37314610470578063d2526418146104ad578063d4fac45d146104cc578063d70657ac146104f1578063d97dec1914610504578063e8203e3814610541578063e90459f81461056a578063f9ce781314610580578063fff10aba146105af575b600080fd5b341561015457600080fd5b61016b600435600160a060020a03602435166105c2565b60405190815260200160405180910390f35b341561018857600080fd5b61016b600160a060020a03600435166105e4565b34156101a757600080fd5b61016b600160a060020a0360043581169060243581169060443590606435906084359060a43516610688565b34156101de57600080fd5b61016b600160a060020a0360043516610738565b34156101fd57600080fd5b610221600160a060020a0360043581169060243581169060443590606435166107e5565b005b341561022e57600080fd5b61016b600435600160a060020a0360243516610854565b341561025057600080fd5b61016b600435600160a060020a036024351661098f565b341561027257600080fd5b61016b600160a060020a03600435166109d2565b341561029157600080fd5b610299610a7f565b604051600160a060020a03909116815260200160405180910390f35b34156102c057600080fd5b61016b600160a060020a0360043581169060243516610a97565b34156102e557600080fd5b61016b600435600160a060020a0360243516610b11565b341561030757600080fd5b610221600160a060020a036004358116906024359060443516610b5f565b341561033057600080fd5b61016b600435600160a060020a0360243516610bbc565b341561035257600080fd5b610221600435600160a060020a0360243516610d8f565b341561037457600080fd5b61016b600160a060020a0360043516610de1565b341561039357600080fd5b61016b600160a060020a0360043516610e77565b34156103b257600080fd5b610221600435610f05565b34156103c857600080fd5b61016b60048035600160a060020a031690604460248035908101908301358060208082020160405190810160405280939291908181526020018383602002808284378201915050505050509190803590602001908201803590602001908080602002602001604051908101604052809392919081815260200183836020028082843750949650508435946020810135945060400135600160a060020a03169250610f4c915050565b341561047b57600080fd5b61016b602460048035828101929082013591600160a060020a03823581169260443590810192013590606435166111a8565b34156104b857600080fd5b61016b600160a060020a03600435166113a2565b34156104d757600080fd5b61016b600160a060020a03600435811690602435166113b6565b34156104fc57600080fd5b6102996113cb565b341561050f57600080fd5b61016b600160a060020a03600435811690602435811690604435906064358116906084359060a4359060c435166113de565b341561054c57600080fd5b610221600160a060020a0360043581169060243590604435166115d7565b341561057557600080fd5b610221600435611634565b341561058b57600080fd5b61016b600160a060020a03600435811690602435811690604435906064351661167b565b34156105ba57600080fd5b610299611695565b60008083116105d057600080fd5b6105db3384846116a4565b90505b92915050565b60006105fc33600035600160e060020a0319166117c3565b151561065f57600080516020611ecf8339815191523033600035600160e060020a031916604051600160a060020a039384168152919092166020820152600160e060020a03199091166040808301919091526060909101905180910390a1610683565b600160a060020a038216151561067457600080fd5b61067d82611876565b50600190505b919050565b6000610692611e3f565b61069a611e3f565b60016040518059106106a95750595b9080825280602002602001820160405250915087826000815181106106ca57fe5b600160a060020a0390921660209283029091019091015260016040518059106106f05750595b90808252806020026020018201604052509050868160008151811061071157fe5b60209081029091010152610729898383898989610f4c565b92505b50509695505050505050565b600061075033600035600160e060020a0319166117c3565b15156107b357600080516020611ecf8339815191523033600035600160e060020a031916604051600160a060020a039384168152919092166020820152600160e060020a03199091166040808301919091526060909101905180910390a1610683565b5060038054600160a060020a03831673ffffffffffffffffffffffffffffffffffffffff199091161790556001919050565b82600160a060020a031681600160a060020a03166108016118a7565b600160a060020a03167f57917682a048ff2a8c837ac9816fb15f8de49c5f53f9711e2617367547ab3e9f8786604051600160a060020a03909216825260208201526040908101905180910390a450505050565b600061086c33600035600160e060020a0319166117c3565b15156108cf57600080516020611ecf8339815191523033600035600160e060020a031916604051600160a060020a039384168152919092166020820152600160e060020a03199091166040808301919091526060909101905180910390a16105de565b6004548290600160a060020a0316631aedefda8260006040516020015260405160e060020a63ffffffff8416028152600160a060020a039091166004820152602401602060405180830381600087803b151561092a57600080fd5b6102c65a03f1151561093b57600080fd5b505050604051805190501515610957576136b160005260206000f35b612710841061096557600080fd5b61097960006008858763ffffffff6118ab16565b61098384846118c6565b600191505b5092915050565b6000806109ab61099e846113a2565b859063ffffffff61193a16565b90506127108106156109be5760016109c1565b60005b60ff16612710820401949350505050565b60006109ea33600035600160e060020a0319166117c3565b1515610a4d57600080516020611ecf8339815191523033600035600160e060020a031916604051600160a060020a039384168152919092166020820152600160e060020a03199091166040808301919091526060909101905180910390a1610683565b5060048054600160a060020a03831673ffffffffffffffffffffffffffffffffffffffff199091161790556001919050565b6000610a9281600763ffffffff61196516565b905090565b600081600160a060020a03166370a082318460006040516020015260405160e060020a63ffffffff8416028152600160a060020a039091166004820152602401602060405180830381600087803b1515610af057600080fd5b6102c65a03f11515610b0157600080fd5b5050506040518051949350505050565b600080808411610b2057600080fd5b610b28610a7f565b9050600160a060020a0381161515610b4c57610b45613a9b6119c4565b9150610988565b610b578185856116a4565b949350505050565b82600160a060020a031681600160a060020a0316610b7b6118a7565b600160a060020a03167f4174a9435a04d04d274c76779cad136a41fde6937c56241c09ab9d3c7064a1a98560405190815260200160405180910390a4505050565b6004546000908190819081908590600160a060020a0316631aedefda82846040516020015260405160e060020a63ffffffff8416028152600160a060020a039091166004820152602401602060405180830381600087803b1515610c1f57600080fd5b6102c65a03f11515610c3057600080fd5b505050604051805190501515610c4c576136b160005260206000f35b60008711610c5957600080fd5b86610c643388610a97565b1015610c7c57610c75613a996119c4565b9450610d85565b610c846113cb565b9350610c908487610a97565b925083600160a060020a031663f45346dc33898960006040516020015260405160e060020a63ffffffff8616028152600160a060020a03938416600482015260248101929092529091166044820152606401602060405180830381600087803b1515610cfb57600080fd5b6102c65a03f11515610d0c57600080fd5b505050604051805190501515610d2757610c75613a9a6119c4565b610d4183610d358689610a97565b9063ffffffff611a2d16565b9150610d7560068733610d6486610d58338d6113b6565b9063ffffffff611a3f16565b60009392919063ffffffff611a4e16565b610d80338388611a67565b600194505b5050505092915050565b80600160a060020a0316610da16118a7565b600160a060020a03167f2767e834e8eabee876e92e89beb6d8db3720efeb7747f24228d2d4596b869d0c8460405190815260200160405180910390a35050565b6000610df933600035600160e060020a0319166117c3565b1515610e5c57600080516020611ecf8339815191523033600035600160e060020a031916604051600160a060020a039384168152919092166020820152600160e060020a03199091166040808301919091526060909101905180910390a1610683565b610e6f600060058463ffffffff611ae716565b506001919050565b6000610e8f33600035600160e060020a0319166117c3565b1515610ef257600080516020611ecf8339815191523033600035600160e060020a031916604051600160a060020a039384168152919092166020820152600160e060020a03199091166040808301919091526060909101905180910390a1610683565b610e6f600060078463ffffffff611ae716565b610f0d6118a7565b600160a060020a03167f09e0713b45664e161c202b19bb4574ee83dfa056f9bfdee56847b3971d9682218260405190815260200160405180910390a250565b6000806000806000610f6a33600035600160e060020a0319166117c3565b1515610fcd57600080516020611ecf8339815191523033600035600160e060020a031916604051600160a060020a039384168152919092166020820152600160e060020a03199091166040808301919091526060909101905180910390a161119a565b6004548690600160a060020a0316631aedefda8260006040516020015260405160e060020a63ffffffff8416028152600160a060020a039091166004820152602401602060405180830381600087803b151561102857600080fd5b6102c65a03f1151561103957600080fd5b505050604051805190501515611055576136b160005260206000f35b600160a060020a038c16151561106a57600080fd5b89518b511461107857600080fd5b60009450600093505b8a51841015611128576110bf8b858151811061109957fe5b906020019060200201518b86815181106110af57fe5b9060200190602002015189611b50565b6110f58c8c86815181106110cf57fe5b906020019060200201518c87815181106110e557fe5b906020019060200201518a611b8c565b61111b8a858151811061110457fe5b90602001906020020151869063ffffffff611a3f16565b9450600190930192611081565b61113688610d588b8a61098f565b9250611140610a7f565b915060008311801561115a5750600160a060020a03821615155b156111895761116a828489611b50565b6111768c83858a611b8c565b611186858463ffffffff611a3f16565b94505b6111948c8689611c16565b60019550505b505050509695505050505050565b60008060006111c333600035600160e060020a0319166117c3565b151561122657600080516020611ecf8339815191523033600035600160e060020a031916604051600160a060020a039384168152919092166020820152600160e060020a03199091166040808301919091526060909101905180910390a161072c565b6004548490600160a060020a0316631aedefda8260006040516020015260405160e060020a63ffffffff8416028152600160a060020a039091166004820152602401602060405180830381600087803b151561128157600080fd5b6102c65a03f1151561129257600080fd5b5050506040518051905015156112ae576136b160005260206000f35b600160a060020a03881615156112c357600080fd5b8886146112cf57600080fd5b60009250600091505b888210156113875761131a8a8a848181106112ef57fe5b90506020020135600160a060020a0316888885818110151561130d57fe5b9050602002013587611c16565b6113558a8a8481811061132957fe5b90506020020135600160a060020a031689898986818110151561134857fe5b9050602002013588611b8c565b61137a87878481811061136457fe5b9050602002013584611a3f90919063ffffffff16565b92506001909101906112d8565b611392888487611b50565b5060019998505050505050505050565b60006105de8160088463ffffffff611c4d16565b60006105db816006848663ffffffff611c6316565b6000610a9281600563ffffffff61196516565b60008060008060006113fc33600035600160e060020a0319166117c3565b151561145f57600080516020611ecf8339815191523033600035600160e060020a031916604051600160a060020a039384168152919092166020820152600160e060020a03199091166040808301919091526060909101905180910390a16115c8565b6004548690600160a060020a0316631aedefda8260006040516020015260405160e060020a63ffffffff8416028152600160a060020a039091166004820152602401602060405180830381600087803b15156114ba57600080fd5b6102c65a03f115156114cb57600080fd5b5050506040518051905015156114e7576136b160005260206000f35b600160a060020a038d1615156114fc57600080fd5b6115078c8c89611b50565b6115138d8d8d8a611b8c565b8a945061152488610d588b8a61098f565b935061152e610a7f565b92506000841180156115485750600160a060020a03831615155b1561157757611558838589611b50565b6115648d84868a611b8c565b611574858563ffffffff611a3f16565b94505b61158585610d358f8a6113b6565b915081156115b7576115988a8389611b50565b6115a48d8b848a611b8c565b6115b4858363ffffffff611a3f16565b94505b6115c28d8689611c16565b60019550505b50505050979650505050505050565b82600160a060020a031681600160a060020a03166115f36118a7565b600160a060020a03167fa4195c37c2947bbe89165f03e320b6903116f0b10d8cfdb522330f7ce6f9fa248560405190815260200160405180910390a4505050565b61163c6118a7565b600160a060020a03167fbb8f0c1d8804cd86e7873ec11cb00af945c8c0ebd061a68b28617034803464158260405190815260200160405180910390a250565b600061168c85858586600087610688565b95945050505050565b600254600160a060020a031690565b600080600080856116b588876113b6565b10156116cd576116c6613a996119c4565b93506117b9565b6116d56113cb565b92506116e18386610a97565b915082600160a060020a03166369328dec88888860006040516020015260405160e060020a63ffffffff8616028152600160a060020a03938416600482015260248101929092529091166044820152606401602060405180830381600087803b151561174c57600080fd5b6102c65a03f1151561175d57600080fd5b505050604051805190501515611778576116c6613a9a6119c4565b6117926117858487610a97565b839063ffffffff611a2d16565b90506117a960068689610d6485610d358d8c6113b6565b6117b4878787611c7d565b600193505b5050509392505050565b600030600160a060020a031683600160a060020a031614156117e7575060016105de565b600354600160a060020a03161515611801575060006105de565b600354600160a060020a031663b700961384308560006040516020015260405160e060020a63ffffffff8616028152600160a060020a039384166004820152919092166024820152600160e060020a03199091166044820152606401602060405180830381600087803b1515610af057600080fd5b60028054600160a060020a03831673ffffffffffffffffffffffffffffffffffffffff199091161790556001919050565b3390565b6118c08484600160a060020a03851684611ce4565b50505050565b6118ce611695565b600160a060020a031663816ed336838360405160e060020a63ffffffff85160281526004810192909252600160a060020a03166024820152604401600060405180830381600087803b151561192257600080fd5b6102c65a03f1151561193357600080fd5b5050505050565b6000828202831580611956575082848281151561195357fe5b04145b151561195e57fe5b9392505050565b815460018301548254600092600160a060020a03169163d3a3968691846040516020015260405160e060020a63ffffffff851602815260048101929092526024820152604401602060405180830381600087803b1515610af057600080fd5b60006119ce611695565b600160a060020a0316638834277e8360405160e060020a63ffffffff84160281526004810191909152602401600060405180830381600087803b1515611a1357600080fd5b6102c65a03f11515611a2457600080fd5b50929392505050565b600082821115611a3957fe5b50900390565b60008282018381101561195e57fe5b6119338585600160a060020a0380871690861685611d5c565b611a6f611695565b600160a060020a0316636be9f7a084848460405160e060020a63ffffffff8616028152600160a060020a03938416600482015260248101929092529091166044820152606401600060405180830381600087803b1515611ace57600080fd5b6102c65a03f11515611adf57600080fd5b505050505050565b825460018401548354600160a060020a03909216916379a7cfee91908460405160e060020a63ffffffff861602815260048101939093526024830191909152600160a060020a03166044820152606401600060405180830381600087803b1515611ace57600080fd5b600160a060020a0383161515611b6557600080fd5b60008211611b7257600080fd5b611b8760068285610d6486610d5889886113b6565b505050565b611b94611695565b600160a060020a0316632e5025698585858560405160e060020a63ffffffff8716028152600160a060020a039485166004820152928416602484015260448301919091529091166064820152608401600060405180830381600087803b1515611bfc57600080fd5b6102c65a03f11515611c0d57600080fd5b50505050505050565b600160a060020a0383161515611c2b57600080fd5b60008211611c3857600080fd5b611b8760068285610d6486610d3589886113b6565b6000610b578484600160a060020a038516611d80565b600061168c8585600160a060020a03808716908616611e1a565b611c85611695565b600160a060020a031663e8203e3884848460405160e060020a63ffffffff8616028152600160a060020a03938416600482015260248101929092529091166044820152606401600060405180830381600087803b1515611ace57600080fd5b835460018501548454600160a060020a039092169163a14ff85791908560405191825260208201526040908101905180910390208460405160e060020a63ffffffff8616028152600481019390935260248301919091526044820152606401600060405180830381600087803b1515611bfc57600080fd5b61193385858585604051918252602082015260409081019051809103902084611ce4565b825460018401548354600092600160a060020a0316916337d9d7fc9185604051918252602082015260409081019051809103902060006040516020015260405160e060020a63ffffffff851602815260048101929092526024820152604401602060405180830381600087803b1515611df857600080fd5b6102c65a03f11515611e0957600080fd5b505050604051805195945050505050565b600061168c858585856040519182526020820152604090810190518091039020611d80565b60206040519081016040526000815290565b825473ffffffffffffffffffffffffffffffffffffffff1916600160a060020a0392909216919091178255600190910155565b8154611e909082611eac565b9055565b611e9e8282611e84565b5050565b611e9e8282611e84565b81151580611eb8575080155b15611e9e57600080fd5b8154611e909082611eac56005133a133185f1023427a2e90f18506b27db994977ce0c0faafd514a7dd109ae0a165627a7a72305820b0318139a5ac7b6888aece813344ea5d9d247c660d698bd86b4112f0135fab680029",
  "source": "/**\n * Copyright 20172018, LaborX PTY\n * Licensed under the AGPL Version 3 license.\n */\n\npragma solidity ^0.4.18;\n\nimport './adapters/MultiEventsHistoryAdapter.sol';\nimport './adapters/Roles2LibraryAndERC20LibraryAdapter.sol';\nimport './adapters/StorageAdapter.sol';\nimport './libs/SafeMath.sol';\n\n\ncontract ERC20BalanceInterface {\n    function balanceOf(address _address) public view returns(uint);\n}\n\n\ncontract BalanceHolderInterface {\n    function deposit(address _from, uint _value, address _contract) public returns (bool);\n    function withdraw(address _to, uint _value, address _contract) public returns (bool);\n}\n\ncontract PaymentGateway is StorageAdapter, MultiEventsHistoryAdapter, Roles2LibraryAndERC20LibraryAdapter {\n\n    using SafeMath for uint;\n\n    uint constant PAYMENT_GATEWAY_SCOPE = 15000;\n    uint constant PAYMENT_GATEWAY_INSUFFICIENT_BALANCE = PAYMENT_GATEWAY_SCOPE + 1;\n    uint constant PAYMENT_GATEWAY_TRANSFER_FAILED = PAYMENT_GATEWAY_SCOPE + 2;\n    uint constant PAYMENT_GATEWAY_NO_FEE_ADDRESS_DESTINATION = PAYMENT_GATEWAY_SCOPE + 3;\n\n\n    event FeeSet(address indexed self, address indexed contractAddress, uint feePercent);\n    event Deposited(address indexed self, address indexed contractAddress, address indexed by, uint value);\n    event Withdrawn(address indexed self, address indexed contractAddress, address indexed by, uint value);\n    event Transferred(address indexed self, address indexed contractAddress, address from, address indexed to, uint value);\n\n    StorageInterface.Address balanceHolder;\n    StorageInterface.AddressAddressUIntMapping balances; // contract => user => balance\n    StorageInterface.Address feeAddress;\n    StorageInterface.AddressUIntMapping fees; // 10000 is 100%.\n\n    function PaymentGateway(\n        Storage _store,\n        bytes32 _crate,\n        address _roles2Library,\n        address _erc20Library\n    )\n    StorageAdapter(_store, _crate)\n    Roles2LibraryAndERC20LibraryAdapter(_roles2Library, _erc20Library)\n    public\n    {\n        balanceHolder.init('balanceHolder');\n        balances.init('balances');\n        feeAddress.init('feeAddress');\n        fees.init('fees');\n    }\n\n    function setupEventsHistory(address _eventsHistory) auth external returns (uint) {\n        require(_eventsHistory != 0x0);\n\n        _setEventsHistory(_eventsHistory);\n        return OK;\n    }\n\n    function setBalanceHolder(address _balanceHolder) auth external returns (uint) {  // only owner\n        store.set(balanceHolder, _balanceHolder);\n        return OK;\n    }\n\n    function setFeeAddress(address _feeAddress) auth external returns (uint) {  // only owner\n        store.set(feeAddress, _feeAddress);\n        return OK;\n    }\n\n    function setFeePercent(\n        uint _feePercent,\n        address _contract\n    )\n    auth  // only owner\n    onlySupportedContract(_contract)\n    external\n    returns (uint) {\n        require(_feePercent < 10000);\n\n        store.set(fees, _contract, _feePercent);\n        _emitFeeSet(_feePercent, _contract);\n        return OK;\n    }\n\n    function getFeePercent(address _contract) public view returns (uint) {\n        return store.get(fees, _contract);\n    }\n\n    function deposit(\n        uint _value,\n        address _contract\n    )\n    onlySupportedContract(_contract)\n    public\n    returns (uint)\n    {\n        require(_value > 0);\n\n        if (getBalanceOf(msg.sender, _contract) < _value) {\n            return _emitErrorCode(PAYMENT_GATEWAY_INSUFFICIENT_BALANCE);\n        }\n\n        BalanceHolderInterface _balanceHolder = getBalanceHolder();\n        uint balanceBefore = getBalanceOf(_balanceHolder, _contract);\n        if (!_balanceHolder.deposit(msg.sender, _value, _contract)) {\n            return _emitErrorCode(PAYMENT_GATEWAY_TRANSFER_FAILED);\n        }\n\n        uint depositedAmount = getBalanceOf(_balanceHolder, _contract).sub(balanceBefore);\n        store.set(balances, _contract, msg.sender, getBalance(msg.sender, _contract).add(depositedAmount));\n\n        _emitDeposited(msg.sender, depositedAmount, _contract);\n        return OK;\n    }\n\n    function withdraw(uint _value, address _contract) public returns (uint) {\n        require(_value > 0);\n\n        return _withdraw(msg.sender, _value, _contract);\n    }\n\n    function _withdraw(address _from, uint _value, address _contract) internal returns (uint) {\n        if (getBalance(_from, _contract) < _value) {\n            return _emitErrorCode(PAYMENT_GATEWAY_INSUFFICIENT_BALANCE);\n        }\n\n        BalanceHolderInterface _balanceHolder = getBalanceHolder();\n        uint balanceBefore = getBalanceOf(_balanceHolder, _contract);\n        if (!_balanceHolder.withdraw(_from, _value, _contract)) {\n            return _emitErrorCode(PAYMENT_GATEWAY_TRANSFER_FAILED);\n        }\n\n        uint withdrawnAmount = balanceBefore.sub(getBalanceOf(_balanceHolder, _contract));\n        store.set(balances, _contract, _from, getBalance(_from, _contract).sub(withdrawnAmount));\n\n        _emitWithdrawn(_from, _value, _contract);\n        return OK;\n    }\n\n    // Will be optimized later if used.\n    function transfer(address _from, address _to, uint _value, address _contract) public returns (uint) {\n        return transferWithFee(_from, _to, _value, _value, 0, _contract);\n    }\n\n    function transferWithFee(\n        address _from,\n        address _to,\n        uint _value,\n        uint _feeFromValue,\n        uint _additionalFee,\n        address _contract\n    )\n    public\n    returns (uint)\n    {\n        address[] memory toArray = new address[](1);\n        toArray[0] = _to;\n        uint[] memory valueArray = new uint[](1);\n        valueArray[0] = _value;\n        return transferToMany(_from, toArray, valueArray, _feeFromValue, _additionalFee, _contract);\n    }\n\n    function transferToMany(\n        address _from,\n        address[] _to,\n        uint[] _value,\n        uint _feeFromValue,\n        uint _additionalFee,\n        address _contract\n    )\n    auth  // only payment processor\n    onlySupportedContract(_contract)\n    public\n    returns (uint)\n    {\n        require(_from != 0x0);\n        require(_to.length == _value.length);\n\n        uint _total = 0;\n        for (uint i = 0; i < _to.length; i++) {\n            _addBalance(_to[i], _value[i], _contract);\n            _emitTransferred(_from, _to[i], _value[i], _contract);\n            _total = _total.add(_value[i]);\n        }\n\n        uint _fee = calculateFee(_feeFromValue, _contract).add(_additionalFee);\n        address _feeAddress = getFeeAddress();\n        if (_fee > 0 && _feeAddress != 0x0) {\n            _addBalance(_feeAddress, _fee, _contract);\n            _emitTransferred(_from, _feeAddress, _fee, _contract);\n            _total = _total.add(_fee);\n        }\n\n        _subBalance(_from, _total, _contract);\n\n        return OK;\n    }\n\n    function transferAll(\n        address _from,\n        address _to,\n        uint _value,\n        address _change,\n        uint _feeFromValue,\n        uint _additionalFee,\n        address _contract\n    )\n    auth  // only payment processor\n    onlySupportedContract(_contract)\n    external\n    returns (uint)\n    {\n        require(_from != 0x0);\n\n        _addBalance(_to, _value, _contract);\n        _emitTransferred(_from, _to, _value, _contract);\n\n        uint _total = _value;\n        uint _fee = calculateFee(_feeFromValue, _contract).add(_additionalFee);\n        address _feeAddress = getFeeAddress();\n        if (_fee > 0 && _feeAddress != 0x0) {\n            _addBalance(_feeAddress, _fee, _contract);\n            _emitTransferred(_from, _feeAddress, _fee, _contract);\n            _total = _total.add(_fee);\n        }\n\n        uint _changeAmount = getBalance(_from, _contract).sub(_total);\n        if (_changeAmount != 0) {\n            _addBalance(_change, _changeAmount, _contract);\n            _emitTransferred(_from, _change, _changeAmount, _contract);\n            _total = _total.add(_changeAmount);\n        }\n\n        _subBalance(_from, _total, _contract);\n\n        return OK;\n    }\n\n    function transferFromMany(\n        address[] _from,\n        address _to,\n        uint[] _value,\n        address _contract\n    )\n    auth  // only payment processor\n    onlySupportedContract(_contract)\n    external\n    returns (uint)\n    {\n        require(_to != 0x0);\n        require(_from.length == _value.length);\n\n        uint _total = 0;\n        for (uint i = 0; i < _from.length; i++) {\n            _subBalance(_from[i], _value[i], _contract);\n            _emitTransferred(_from[i], _to, _value[i], _contract);\n            _total = _total.add(_value[i]);\n        }\n\n        _addBalance(_to, _total, _contract);\n\n        return OK;\n    }\n\n    function forwardFee(uint _value, address _contract) public returns (uint) {\n        require(_value > 0);\n\n        address _feeAddress = getFeeAddress();\n        if (_feeAddress == 0x0) {\n            return _emitErrorCode(PAYMENT_GATEWAY_NO_FEE_ADDRESS_DESTINATION);\n        }\n\n        return _withdraw(_feeAddress, _value, _contract);\n    }\n\n    function getBalance(address _address, address _contract) public view returns(uint) {\n        return store.get(balances, _contract, _address);\n    }\n\n    function getBalanceOf(address _address, address _contract) public view returns(uint) {\n        return ERC20BalanceInterface(_contract).balanceOf(_address);\n    }\n\n    function calculateFee(uint _value, address _contract) public view returns(uint) {\n        uint feeRaw = _value.mul(getFeePercent(_contract));\n        return (feeRaw / 10000) + (feeRaw % 10000 == 0 ? 0 : 1);\n    }\n\n    function getFeeAddress() public view returns(address) {\n        return store.get(feeAddress);\n    }\n\n    function getBalanceHolder() public view returns(BalanceHolderInterface) {\n        return BalanceHolderInterface(store.get(balanceHolder));\n    }\n\n\n    // HELPERS\n\n    function _addBalance(address _to, uint _value, address _contract) internal {\n        require(_to != 0x0);\n        require(_value > 0);\n\n        store.set(balances, _contract, _to, getBalance(_to, _contract).add(_value));\n    }\n\n    function _subBalance(address _from, uint _value, address _contract) internal {\n        require(_from != 0x0);\n        require(_value > 0);\n\n        store.set(balances, _contract, _from, getBalance(_from, _contract).sub(_value));\n    }\n\n\n    // EVENTS\n\n    function _emitFeeSet(uint _feePercent, address _contract) internal {\n        PaymentGateway(getEventsHistory()).emitFeeSet(_feePercent, _contract);\n    }\n\n    function _emitDeposited(address _by, uint _value, address _contract) internal {\n        PaymentGateway(getEventsHistory()).emitDeposited(_by, _value, _contract);\n    }\n\n    function _emitWithdrawn(address _by, uint _value, address _contract) internal {\n        PaymentGateway(getEventsHistory()).emitWithdrawn(_by, _value, _contract);\n    }\n\n    function _emitTransferred(address _from, address _to, uint _value, address _contract) internal {\n        PaymentGateway(getEventsHistory()).emitTransferred(_from, _to, _value, _contract);\n    }\n\n    function emitFeeSet(uint _feePercent, address _contract) public {\n        FeeSet(_self(), _contract, _feePercent);\n    }\n\n    function emitDeposited(address _by, uint _value, address _contract) public {\n        Deposited(_self(), _contract, _by, _value);\n    }\n\n    function emitWithdrawn(address _by, uint _value, address _contract) public {\n        Withdrawn(_self(), _contract, _by, _value);\n    }\n\n    function emitTransferred(address _from, address _to, uint _value, address _contract) public {\n        Transferred(_self(), _contract, _from, _to, _value);\n    }\n\n}\n",
  "sourcePath": "/Users/ahiatsevich/Development/chronobank/LX-SC/contracts/PaymentGateway.sol",
  "compiler": {
    "name": "solc",
    "version": "0.4.19+commit.c4cbbb05.Emscripten.clang"
  },
  "schemaVersion": "2.0.0",
  "updatedAt": "2018-05-16T09:14:41.856Z"
}