{
  "contractName": "PaymentGateway",
  "abi": [
    {
      "constant": false,
      "inputs": [
        {
          "name": "_eventsHistory",
          "type": "address"
        }
      ],
      "name": "setupEventsHistory",
      "outputs": [
        {
          "name": "",
          "type": "uint256"
        }
      ],
      "payable": false,
      "stateMutability": "nonpayable",
      "type": "function"
    },
    {
      "constant": false,
      "inputs": [
        {
          "name": "_roles2Library",
          "type": "address"
        }
      ],
      "name": "setRoles2Library",
      "outputs": [
        {
          "name": "",
          "type": "uint256"
        }
      ],
      "payable": false,
      "stateMutability": "nonpayable",
      "type": "function"
    },
    {
      "constant": false,
      "inputs": [
        {
          "name": "_from",
          "type": "address"
        },
        {
          "name": "_to",
          "type": "address[]"
        },
        {
          "name": "_value",
          "type": "uint256[]"
        },
        {
          "name": "_feeFromValue",
          "type": "uint256"
        },
        {
          "name": "_additionalFee",
          "type": "uint256"
        }
      ],
      "name": "transferToMany",
      "outputs": [
        {
          "name": "",
          "type": "uint256"
        }
      ],
      "payable": true,
      "stateMutability": "payable",
      "type": "function"
    },
    {
      "constant": false,
      "inputs": [
        {
          "name": "_value",
          "type": "uint256"
        }
      ],
      "name": "withdraw",
      "outputs": [
        {
          "name": "",
          "type": "uint256"
        }
      ],
      "payable": false,
      "stateMutability": "nonpayable",
      "type": "function"
    },
    {
      "constant": false,
      "inputs": [
        {
          "name": "_by",
          "type": "address"
        },
        {
          "name": "_value",
          "type": "uint256"
        }
      ],
      "name": "emitWithdrawn",
      "outputs": [],
      "payable": false,
      "stateMutability": "nonpayable",
      "type": "function"
    },
    {
      "constant": true,
      "inputs": [],
      "name": "getFeeAddress",
      "outputs": [
        {
          "name": "",
          "type": "address"
        }
      ],
      "payable": false,
      "stateMutability": "view",
      "type": "function"
    },
    {
      "constant": false,
      "inputs": [
        {
          "name": "_from",
          "type": "address"
        },
        {
          "name": "_to",
          "type": "address"
        },
        {
          "name": "_value",
          "type": "uint256"
        }
      ],
      "name": "emitTransferred",
      "outputs": [],
      "payable": false,
      "stateMutability": "nonpayable",
      "type": "function"
    },
    {
      "constant": false,
      "inputs": [
        {
          "name": "_from",
          "type": "address"
        },
        {
          "name": "_to",
          "type": "address"
        },
        {
          "name": "_feeFromValue",
          "type": "uint256"
        },
        {
          "name": "_additionalFee",
          "type": "uint256"
        }
      ],
      "name": "transferWithFee",
      "outputs": [
        {
          "name": "",
          "type": "uint256"
        }
      ],
      "payable": true,
      "stateMutability": "payable",
      "type": "function"
    },
    {
      "constant": false,
      "inputs": [
        {
          "name": "_feePercent",
          "type": "uint256"
        }
      ],
      "name": "setFeePercent",
      "outputs": [
        {
          "name": "",
          "type": "uint256"
        }
      ],
      "payable": false,
      "stateMutability": "nonpayable",
      "type": "function"
    },
    {
      "constant": false,
      "inputs": [
        {
          "name": "_balanceHolder",
          "type": "address"
        }
      ],
      "name": "setBalanceHolder",
      "outputs": [
        {
          "name": "",
          "type": "uint256"
        }
      ],
      "payable": false,
      "stateMutability": "nonpayable",
      "type": "function"
    },
    {
      "constant": false,
      "inputs": [
        {
          "name": "_feeAddress",
          "type": "address"
        }
      ],
      "name": "setFeeAddress",
      "outputs": [
        {
          "name": "",
          "type": "uint256"
        }
      ],
      "payable": false,
      "stateMutability": "nonpayable",
      "type": "function"
    },
    {
      "constant": false,
      "inputs": [
        {
          "name": "_errorCode",
          "type": "uint256"
        }
      ],
      "name": "emitErrorCode",
      "outputs": [],
      "payable": false,
      "stateMutability": "nonpayable",
      "type": "function"
    },
    {
      "constant": true,
      "inputs": [
        {
          "name": "_value",
          "type": "uint256"
        }
      ],
      "name": "calculateFee",
      "outputs": [
        {
          "name": "",
          "type": "uint256"
        }
      ],
      "payable": false,
      "stateMutability": "view",
      "type": "function"
    },
    {
      "constant": true,
      "inputs": [
        {
          "name": "_address",
          "type": "address"
        }
      ],
      "name": "getBalanceOf",
      "outputs": [
        {
          "name": "",
          "type": "uint256"
        }
      ],
      "payable": false,
      "stateMutability": "view",
      "type": "function"
    },
    {
      "constant": false,
      "inputs": [
        {
          "name": "_feePercent",
          "type": "uint256"
        }
      ],
      "name": "emitFeeSet",
      "outputs": [],
      "payable": false,
      "stateMutability": "nonpayable",
      "type": "function"
    },
    {
      "constant": false,
      "inputs": [
        {
          "name": "_by",
          "type": "address"
        },
        {
          "name": "_value",
          "type": "uint256"
        }
      ],
      "name": "emitDeposited",
      "outputs": [],
      "payable": false,
      "stateMutability": "nonpayable",
      "type": "function"
    },
    {
      "constant": true,
      "inputs": [],
      "name": "getFeePercent",
      "outputs": [
        {
          "name": "",
          "type": "uint256"
        }
      ],
      "payable": false,
      "stateMutability": "view",
      "type": "function"
    },
    {
      "constant": true,
      "inputs": [],
      "name": "getBalanceHolder",
      "outputs": [
        {
          "name": "",
          "type": "address"
        }
      ],
      "payable": false,
      "stateMutability": "view",
      "type": "function"
    },
    {
      "constant": false,
      "inputs": [
        {
          "name": "_from",
          "type": "address"
        },
        {
          "name": "_to",
          "type": "address"
        },
        {
          "name": "_value",
          "type": "uint256"
        },
        {
          "name": "_change",
          "type": "address"
        },
        {
          "name": "_feeFromValue",
          "type": "uint256"
        },
        {
          "name": "_additionalFee",
          "type": "uint256"
        }
      ],
      "name": "transferAll",
      "outputs": [
        {
          "name": "",
          "type": "uint256"
        }
      ],
      "payable": false,
      "stateMutability": "nonpayable",
      "type": "function"
    },
    {
      "constant": false,
      "inputs": [
        {
          "name": "_value",
          "type": "uint256"
        }
      ],
      "name": "forwardFee",
      "outputs": [
        {
          "name": "",
          "type": "uint256"
        }
      ],
      "payable": false,
      "stateMutability": "nonpayable",
      "type": "function"
    },
    {
      "constant": false,
      "inputs": [
        {
          "name": "_msg",
          "type": "bytes32"
        }
      ],
      "name": "emitError",
      "outputs": [],
      "payable": false,
      "stateMutability": "nonpayable",
      "type": "function"
    },
    {
      "constant": true,
      "inputs": [
        {
          "name": "_address",
          "type": "address"
        }
      ],
      "name": "getBalance",
      "outputs": [
        {
          "name": "",
          "type": "uint256"
        }
      ],
      "payable": false,
      "stateMutability": "view",
      "type": "function"
    },
    {
      "constant": true,
      "inputs": [],
      "name": "getEventsHistory",
      "outputs": [
        {
          "name": "",
          "type": "address"
        }
      ],
      "payable": false,
      "stateMutability": "view",
      "type": "function"
    },
    {
      "inputs": [
        {
          "name": "_store",
          "type": "address"
        },
        {
          "name": "_crate",
          "type": "bytes32"
        },
        {
          "name": "_roles2Library",
          "type": "address"
        }
      ],
      "payable": false,
      "stateMutability": "nonpayable",
      "type": "constructor"
    },
    {
      "anonymous": false,
      "inputs": [
        {
          "indexed": true,
          "name": "self",
          "type": "address"
        },
        {
          "indexed": false,
          "name": "feePercent",
          "type": "uint256"
        }
      ],
      "name": "FeeSet",
      "type": "event"
    },
    {
      "anonymous": false,
      "inputs": [
        {
          "indexed": true,
          "name": "self",
          "type": "address"
        },
        {
          "indexed": true,
          "name": "by",
          "type": "address"
        },
        {
          "indexed": false,
          "name": "value",
          "type": "uint256"
        }
      ],
      "name": "Deposited",
      "type": "event"
    },
    {
      "anonymous": false,
      "inputs": [
        {
          "indexed": true,
          "name": "self",
          "type": "address"
        },
        {
          "indexed": true,
          "name": "by",
          "type": "address"
        },
        {
          "indexed": false,
          "name": "value",
          "type": "uint256"
        }
      ],
      "name": "Withdrawn",
      "type": "event"
    },
    {
      "anonymous": false,
      "inputs": [
        {
          "indexed": true,
          "name": "self",
          "type": "address"
        },
        {
          "indexed": false,
          "name": "from",
          "type": "address"
        },
        {
          "indexed": true,
          "name": "to",
          "type": "address"
        },
        {
          "indexed": false,
          "name": "value",
          "type": "uint256"
        }
      ],
      "name": "Transferred",
      "type": "event"
    },
    {
      "anonymous": false,
      "inputs": [
        {
          "indexed": false,
          "name": "code",
          "type": "address"
        },
        {
          "indexed": false,
          "name": "sender",
          "type": "address"
        },
        {
          "indexed": false,
          "name": "sig",
          "type": "bytes4"
        }
      ],
      "name": "AuthFailedError",
      "type": "event"
    },
    {
      "anonymous": false,
      "inputs": [
        {
          "indexed": true,
          "name": "self",
          "type": "address"
        },
        {
          "indexed": false,
          "name": "msg",
          "type": "bytes32"
        }
      ],
      "name": "Error",
      "type": "event"
    },
    {
      "anonymous": false,
      "inputs": [
        {
          "indexed": true,
          "name": "self",
          "type": "address"
        },
        {
          "indexed": false,
          "name": "errorCode",
          "type": "uint256"
        }
      ],
      "name": "ErrorCode",
      "type": "event"
    }
  ],
  "bytecode": "0x606060405234156200001057600080fd5b604051606080620018bc833981016040528080519190602001805191906020018051915081905083836200005560008383640100000000620016016200016c82021704565b505060038054600160a060020a031916600160a060020a0392909216919091179055620000b260047f62616c616e6365486f6c64657200000000000000000000000000000000000000640100000000620001928102620016341704565b620000ed60057f62616c616e63657300000000000000000000000000000000000000000000000064010000000062001644620001b282021704565b6200012860067f6665654164647265737300000000000000000000000000000000000000000000640100000000620016346200019282021704565b6200016360077f6665657300000000000000000000000000000000000000000000000000000000640100000000620016346200019282021704565b505050620001e8565b8254600160a060020a031916600160a060020a0392909216919091178255600190910155565b8154620001ae908264010000000062001656620001d082021704565b9055565b620001cc8282640100000000620016346200019282021704565b5050565b81151580620001dd575080155b15620001cc57600080fd5b6116c480620001f86000396000f3006060604052600436106101195763ffffffff60e060020a60003504166302927d20811461011e5780632637cd7d1461014f5780632a289e541461016e5780632e1a7d4d1461020757806341cbec091461021d5780634e7ceacb146102415780635825b75b146102705780637147042a146102985780637ce3489b146102b857806386b7b8f6146102ce5780638705fcd4146102ed5780638834277e1461030c57806399a5d747146103225780639b96eece14610338578063a2dd046414610357578063a5b5b8ef1461036d578063be74264d1461038f578063d70657ac146103a2578063d8b41d78146103b5578063df1016ce146103ea578063e90459f814610400578063f8b2cb4f14610416578063fff10aba14610435575b600080fd5b341561012957600080fd5b61013d600160a060020a0360043516610448565b60405190815260200160405180910390f35b341561015a57600080fd5b61013d600160a060020a03600435166104ec565b61013d60048035600160a060020a0316906044602480359081019083013580602080820201604051908101604052809392919081815260200183836020028082843782019150505050505091908035906020019082018035906020019080806020026020016040519081016040528093929190818152602001838360200280828437509496505084359460200135935061059992505050565b341561021257600080fd5b61013d6004356107b4565b341561022857600080fd5b61023f600160a060020a03600435166024356107d2565b005b341561024c57600080fd5b610254610824565b604051600160a060020a03909116815260200160405180910390f35b341561027b57600080fd5b61023f600160a060020a036004358116906024351660443561083c565b61013d600160a060020a03600435811690602435166044356064356108a0565b34156102c357600080fd5b61013d60043561094b565b34156102d957600080fd5b61013d600160a060020a03600435166109f8565b34156102f857600080fd5b61013d600160a060020a0360043516610a86565b341561031757600080fd5b61023f600435610b14565b341561032d57600080fd5b61013d600435610b5b565b341561034357600080fd5b61013d600160a060020a0360043516610b9e565b341561036257600080fd5b61023f600435610bab565b341561037857600080fd5b61023f600160a060020a0360043516602435610bf2565b341561039a57600080fd5b61013d610c44565b34156103ad57600080fd5b610254610c57565b34156103c057600080fd5b61013d600160a060020a03600435811690602435811690604435906064351660843560a435610c6a565b34156103f557600080fd5b61013d600435610ddc565b341561040b57600080fd5b61023f600435610e28565b341561042157600080fd5b61013d600160a060020a0360043516610e6f565b341561044057600080fd5b610254610e83565b600061046033600035600160e060020a031916610e92565b15156104c3576000805160206116798339815191523033600035600160e060020a031916604051600160a060020a039384168152919092166020820152600160e060020a03199091166040808301919091526060909101905180910390a16104e7565b600160a060020a03821615156104d857600080fd5b6104e182610f66565b50600190505b919050565b600061050433600035600160e060020a031916610e92565b1515610567576000805160206116798339815191523033600035600160e060020a031916604051600160a060020a039384168152919092166020820152600160e060020a03199091166040808301919091526060909101905180910390a16104e7565b5060038054600160a060020a03831673ffffffffffffffffffffffffffffffffffffffff199091161790556001919050565b60008060008060006105b733600035600160e060020a031916610e92565b151561061a576000805160206116798339815191523033600035600160e060020a031916604051600160a060020a039384168152919092166020820152600160e060020a03199091166040808301919091526060909101905180910390a16107a7565b600160a060020a038a16151561062f57600080fd5b875189511461063d57600080fd5b6106478a34610f97565b61064f610c57565b600160a060020a03163480156108fc0290604051600060405180830381858888f19350505050151561068057600080fd5b60009350600092505b885183101561072e576106c68984815181106106a157fe5b906020019060200201518985815181106106b757fe5b90602001906020020151610f97565b6106fb8a8a85815181106106d657fe5b906020019060200201518a86815181106106ec57fe5b90602001906020020151610fe0565b61072188848151811061070a57fe5b90602001906020020151859063ffffffff61106116565b9350600190920191610689565b6107478661073b89610b5b565b9063ffffffff61106116565b9150610751610824565b905060008211801561076b5750600160a060020a03811615155b156107985761077a8183610f97565b6107858a8284610fe0565b610795848363ffffffff61106116565b93505b6107a28a8561107b565b600194505b5050505095945050505050565b60008082116107c257600080fd5b6107cc33836110b0565b92915050565b81600160a060020a03166107e461118f565b600160a060020a03167fd1c19fbcd4551a5edfb66d43d2e337c04837afda3482b42bdf569a8fccdae5fb8360405190815260200160405180910390a35050565b600061083781600663ffffffff61119316565b905090565b81600160a060020a031661084e61118f565b600160a060020a03167f769254a71d2f67d8ac6cb44f2803c0d05cfbcf9effadb6a984f10ff9de3df6c38584604051600160a060020a03909216825260208201526040908101905180910390a3505050565b60006108aa6115ef565b6108b26115ef565b60016040518059106108c15750595b9080825280602002602001820160405250915085826000815181106108e257fe5b600160a060020a0390921660209283029091019091015260016040518059106109085750595b90808252806020026020018201604052509050348160008151811061092957fe5b602090810290910101526109408783838888610599565b979650505050505050565b600061096333600035600160e060020a031916610e92565b15156109c6576000805160206116798339815191523033600035600160e060020a031916604051600160a060020a039384168152919092166020820152600160e060020a03199091166040808301919091526060909101905180910390a16104e7565b61271082106109d457600080fd5b6109e7600060078463ffffffff6111f216565b6109f082611252565b506001919050565b6000610a1033600035600160e060020a031916610e92565b1515610a73576000805160206116798339815191523033600035600160e060020a031916604051600160a060020a039384168152919092166020820152600160e060020a03199091166040808301919091526060909101905180910390a16104e7565b6109f0600060048463ffffffff6112b616565b6000610a9e33600035600160e060020a031916610e92565b1515610b01576000805160206116798339815191523033600035600160e060020a031916604051600160a060020a039384168152919092166020820152600160e060020a03199091166040808301919091526060909101905180910390a16104e7565b6109f0600060068463ffffffff6112b616565b610b1c61118f565b600160a060020a03167f09e0713b45664e161c202b19bb4574ee83dfa056f9bfdee56847b3971d9682218260405190815260200160405180910390a250565b600080610b76610b69610c44565b849063ffffffff61131f16565b9050612710810615610b89576001610b8c565b60005b60ff1661271082040191505b50919050565b600160a060020a03163190565b610bb361118f565b600160a060020a03167f92e6908704698649c7a3742faeecb2d2cdef5264a5bf9bebbaa5e4b06d3673168260405190815260200160405180910390a250565b81600160a060020a0316610c0461118f565b600160a060020a03167f8752a472e571a816aea92eec8dae9baf628e840f4929fbcc2d155e6233ff68a78360405190815260200160405180910390a35050565b600061083781600763ffffffff61134316565b600061083781600463ffffffff61119316565b6000806000806000610c8833600035600160e060020a031916610e92565b1515610ceb576000805160206116798339815191523033600035600160e060020a031916604051600160a060020a039384168152919092166020820152600160e060020a03199091166040808301919091526060909101905180910390a1610dce565b600160a060020a038b161515610d0057600080fd5b610d0a8a8a610f97565b610d158b8b8b610fe0565b889350610d258661073b89610b5b565b9250610d2f610824565b9150600083118015610d495750600160a060020a03821615155b15610d7657610d588284610f97565b610d638b8385610fe0565b610d73848463ffffffff61106116565b93505b610d8f84610d838d610e6f565b9063ffffffff6113a216565b90508015610dbf57610da18882610f97565b610dac8b8983610fe0565b610dbc848263ffffffff61106116565b93505b610dc98b8561107b565b600194505b505050509695505050505050565b600080808311610deb57600080fd5b610df3610824565b9050600160a060020a0381161515610e1757610e10613a9b6113b4565b9150610b98565b610e2181846110b0565b9392505050565b610e3061118f565b600160a060020a03167fbb8f0c1d8804cd86e7873ec11cb00af945c8c0ebd061a68b28617034803464158260405190815260200160405180910390a250565b60006107cc8160058463ffffffff61141d16565b600254600160a060020a031690565b600030600160a060020a031683600160a060020a03161415610eb6575060016107cc565b600354600160a060020a03161515610ed0575060006107cc565b600354600160a060020a031663b700961384308560006040516020015260405160e060020a63ffffffff8616028152600160a060020a039384166004820152919092166024820152600160e060020a03199091166044820152606401602060405180830381600087803b1515610f4557600080fd5b6102c65a03f11515610f5657600080fd5b5050506040518051949350505050565b60028054600160a060020a03831673ffffffffffffffffffffffffffffffffffffffff199091161790556001919050565b600160a060020a0382161515610fac57600080fd5b60008111610fb957600080fd5b610fdc600583610fcc8461073b87610e6f565b600092919063ffffffff61143b16565b5050565b610fe8610e83565b600160a060020a0316635825b75b84848460405160e060020a63ffffffff8616028152600160a060020a0393841660048201529190921660248201526044810191909152606401600060405180830381600087803b151561104857600080fd5b6102c65a03f1151561105957600080fd5b505050505050565b60008282018381101561107057fe5b8091505b5092915050565b600160a060020a038216151561109057600080fd5b6000811161109d57600080fd5b610fdc600583610fcc84610d8387610e6f565b600080826110bd85610e6f565b10156110d5576110ce613a996113b4565b9150611074565b6110dd610c57565b905080600160a060020a0316634782f779858560006040516020015260405160e060020a63ffffffff8516028152600160a060020a0390921660048301526024820152604401602060405180830381600087803b151561113c57600080fd5b6102c65a03f1151561114d57600080fd5b505050604051805190501515611168576110ce613a9a6113b4565b61117b600585610fcc86610d8389610e6f565b6111858484611450565b5060019392505050565b3390565b815460018301548254600092600160a060020a03169163d3a3968691846040516020015260405160e060020a63ffffffff851602815260048101929092526024820152604401602060405180830381600087803b1515610f4557600080fd5b825460018401548354600160a060020a03909216916353e7168b91908460405160e060020a63ffffffff8616028152600481019390935260248301919091526044820152606401600060405180830381600087803b151561104857600080fd5b61125a610e83565b600160a060020a031663a2dd04648260405160e060020a63ffffffff84160281526004810191909152602401600060405180830381600087803b151561129f57600080fd5b6102c65a03f115156112b057600080fd5b50505050565b825460018401548354600160a060020a03909216916379a7cfee91908460405160e060020a63ffffffff861602815260048101939093526024830191909152600160a060020a03166044820152606401600060405180830381600087803b151561104857600080fd5b600082820283158061133b575082848281151561133857fe5b04145b151561107057fe5b815460018301548254600092600160a060020a0316916353aa3f5e91846040516020015260405160e060020a63ffffffff851602815260048101929092526024820152604401602060405180830381600087803b1515610f4557600080fd5b6000828211156113ae57fe5b50900390565b60006113be610e83565b600160a060020a0316638834277e8360405160e060020a63ffffffff84160281526004810191909152602401600060405180830381600087803b151561140357600080fd5b6102c65a03f1151561141457600080fd5b50929392505050565b60006114338484600160a060020a0385166114c3565b949350505050565b6112b08484600160a060020a0385168461155d565b611458610e83565b600160a060020a03166341cbec09838360405160e060020a63ffffffff8516028152600160a060020a0390921660048301526024820152604401600060405180830381600087803b15156114ab57600080fd5b6102c65a03f115156114bc57600080fd5b5050505050565b825460018401548354600092600160a060020a0316916337d9d7fc9185604051918252602082015260409081019051809103902060006040516020015260405160e060020a63ffffffff851602815260048101929092526024820152604401602060405180830381600087803b151561153b57600080fd5b6102c65a03f1151561154c57600080fd5b505050604051805195945050505050565b835460018501548454600160a060020a039092169163a14ff85791908560405191825260208201526040908101905180910390208460405160e060020a63ffffffff8616028152600481019390935260248301919091526044820152606401600060405180830381600087803b15156115d557600080fd5b6102c65a03f115156115e657600080fd5b50505050505050565b60206040519081016040526000815290565b825473ffffffffffffffffffffffffffffffffffffffff1916600160a060020a0392909216919091178255600190910155565b81546116409082611656565b9055565b610fdc8282611634565b815461164090825b81151580611662575080155b15610fdc57600080fd5b8154611640908261165656005133a133185f1023427a2e90f18506b27db994977ce0c0faafd514a7dd109ae0a165627a7a72305820a88c64f45b4397e3f39d10b71704d2832e5f38d8c805facf57e62a87071ee5d90029",
  "source": "/**\n * Copyright 2017–2018, LaborX PTY\n * Licensed under the AGPL Version 3 license.\n */\n\npragma solidity ^0.4.18;\n\nimport './adapters/MultiEventsHistoryAdapter.sol';\nimport './adapters/Roles2LibraryAdapter.sol';\nimport './adapters/StorageAdapter.sol';\nimport './libs/SafeMath.sol';\n\n\ncontract ERC20BalanceInterface {\n    function balanceOf(address _address) public view returns(uint);\n}\n\n\ncontract BalanceHolderInterface {\n    function deposit(address _from, uint _value, address _contract) public returns (bool);\n    function withdraw(address _to, uint _value, address _contract) public returns (bool);\n    function withdrawETH(address _to, uint _amount) external returns (bool);\n}\n\ncontract PaymentGateway is StorageAdapter, MultiEventsHistoryAdapter, Roles2LibraryAdapter {\n\n    using SafeMath for uint;\n\n    uint constant PAYMENT_GATEWAY_SCOPE = 15000;\n    uint constant PAYMENT_GATEWAY_INSUFFICIENT_BALANCE = PAYMENT_GATEWAY_SCOPE + 1;\n    uint constant PAYMENT_GATEWAY_TRANSFER_FAILED = PAYMENT_GATEWAY_SCOPE + 2;\n    uint constant PAYMENT_GATEWAY_NO_FEE_ADDRESS_DESTINATION = PAYMENT_GATEWAY_SCOPE + 3;\n\n\n    event FeeSet(address indexed self, uint feePercent);\n    event Deposited(address indexed self, address indexed by, uint value);\n    event Withdrawn(address indexed self, address indexed by, uint value);\n    event Transferred(address indexed self, address from, address indexed to, uint value);\n\n    StorageInterface.Address balanceHolder;\n    StorageInterface.AddressUIntMapping balances; // contract => user => balance\n    StorageInterface.Address feeAddress;\n    StorageInterface.UInt fees; // 10000 is 100%.\n\n    function PaymentGateway(\n        Storage _store,\n        bytes32 _crate,\n        address _roles2Library\n    )\n    StorageAdapter(_store, _crate)\n    Roles2LibraryAdapter(_roles2Library)\n    public\n    {\n        balanceHolder.init('balanceHolder');\n        balances.init('balances');\n        feeAddress.init('feeAddress');\n        fees.init('fees');\n    }\n\n    function setupEventsHistory(address _eventsHistory) auth external returns (uint) {\n        require(_eventsHistory != 0x0);\n\n        _setEventsHistory(_eventsHistory);\n        return OK;\n    }\n\n    function setBalanceHolder(address _balanceHolder) auth external returns (uint) {  // only owner\n        store.set(balanceHolder, _balanceHolder);\n        return OK;\n    }\n\n    function setFeeAddress(address _feeAddress)\n    external\n    auth\n    returns (uint)\n    {\n        store.set(feeAddress, _feeAddress);\n        return OK;\n    }\n\n    function setFeePercent(uint _feePercent)\n    external\n    auth\n    returns (uint)\n    {\n        require(_feePercent < 10000);\n\n        store.set(fees, _feePercent);\n        _emitFeeSet(_feePercent);\n        return OK;\n    }\n\n    function getFeePercent()\n    public\n    view\n    returns (uint)\n    {\n        return store.get(fees);\n    }\n\n    function withdraw(uint _value) public returns (uint) {\n        require(_value > 0);\n\n        return _withdraw(msg.sender, _value);\n    }\n\n    function _withdraw(address _from, uint _value) internal returns (uint) {\n        if (getBalance(_from) < _value) {\n            return _emitErrorCode(PAYMENT_GATEWAY_INSUFFICIENT_BALANCE);\n        }\n\n        BalanceHolderInterface _balanceHolder = getBalanceHolder();\n        if (!_balanceHolder.withdrawETH(_from, _value)) {\n            return _emitErrorCode(PAYMENT_GATEWAY_TRANSFER_FAILED);\n        }\n\n        store.set(balances, _from, getBalance(_from).sub(_value));\n\n        _emitWithdrawn(_from, _value);\n        return OK;\n    }\n\n    function transferWithFee(\n        address _from,\n        address _to,\n        uint _feeFromValue,\n        uint _additionalFee\n    )\n    public\n    payable\n    returns (uint)\n    {\n        address[] memory toArray = new address[](1);\n        toArray[0] = _to;\n        uint[] memory valueArray = new uint[](1);\n        valueArray[0] = msg.value;\n        return transferToMany(_from, toArray, valueArray, _feeFromValue, _additionalFee);\n    }\n\n    function transferToMany(\n        address _from,\n        address[] _to,\n        uint[] _value,\n        uint _feeFromValue,\n        uint _additionalFee\n    )\n    auth\n    public\n    payable\n    returns (uint)\n    {\n        require(_from != 0x0);\n        require(_to.length == _value.length);\n\n        _addBalance(_from, msg.value);\n        address(getBalanceHolder()).transfer(msg.value);\n\n         uint _total = 0;\n        for (uint i = 0; i < _to.length; i++) {\n            _addBalance(_to[i], _value[i]);\n            _emitTransferred(_from, _to[i], _value[i]);\n            _total = _total.add(_value[i]);\n        }\n\n        uint _fee = calculateFee(_feeFromValue).add(_additionalFee);\n        address _feeAddress = getFeeAddress();\n        if (_fee > 0 && _feeAddress != 0x0) {\n            _addBalance(_feeAddress, _fee);\n            _emitTransferred(_from, _feeAddress, _fee);\n            _total = _total.add(_fee);\n        }\n\n        _subBalance(_from, _total);\n\n        return OK;\n    }\n\n    function transferAll(\n        address _from,\n        address _to,\n        uint _value,\n        address _change,\n        uint _feeFromValue,\n        uint _additionalFee\n    )\n    auth\n    external\n    returns (uint)\n    {\n        require(_from != 0x0);\n\n        _addBalance(_to, _value);\n        _emitTransferred(_from, _to, _value);\n\n        uint _total = _value;\n        uint _fee = calculateFee(_feeFromValue).add(_additionalFee);\n        address _feeAddress = getFeeAddress();\n        if (_fee > 0 && _feeAddress != 0x0) {\n            _addBalance(_feeAddress, _fee);\n            _emitTransferred(_from, _feeAddress, _fee);\n            _total = _total.add(_fee);\n        }\n\n        uint _changeAmount = getBalance(_from).sub(_total);\n        if (_changeAmount != 0) {\n            _addBalance(_change, _changeAmount);\n            _emitTransferred(_from, _change, _changeAmount);\n            _total = _total.add(_changeAmount);\n        }\n\n        _subBalance(_from, _total);\n\n        return OK;\n    }\n\n    /* function transferFromMany(\n        address[] _from,\n        address _to,\n        uint[] _value\n    )\n    auth\n    external\n    returns (uint)\n    {\n        require(_to != 0x0);\n        require(_from.length == _value.length);\n\n        uint _total = 0;\n        for (uint i = 0; i < _from.length; i++) {\n            _subBalance(_from[i], _value[i]);\n            _emitTransferred(_from[i], _to, _value[i]);\n            _total = _total.add(_value[i]);\n        }\n\n        _addBalance(_to, _total);\n\n        return OK;\n    } */\n\n    // TODO\n    function forwardFee(uint _value)\n    public\n    returns (uint)\n    {\n        require(_value > 0);\n\n        address _feeAddress = getFeeAddress();\n        if (_feeAddress == 0x0) {\n            return _emitErrorCode(PAYMENT_GATEWAY_NO_FEE_ADDRESS_DESTINATION);\n        }\n\n        return _withdraw(_feeAddress, _value);\n    }\n\n    function getBalance(address _address)\n    public\n    view\n    returns(uint)\n    {\n        return store.get(balances, _address);\n    }\n\n    function getBalanceOf(address _address)\n    public\n    view\n    returns(uint)\n    {\n        return address(_address).balance;\n    }\n\n    function calculateFee(uint _value)\n    public\n    view\n    returns (uint)\n    {\n        uint feeRaw = _value.mul(getFeePercent());\n        return (feeRaw / 10000) + (feeRaw % 10000 == 0 ? 0 : 1);\n    }\n\n    function getFeeAddress() public view returns(address) {\n        return store.get(feeAddress);\n    }\n\n    function getBalanceHolder() public view returns(BalanceHolderInterface) {\n        return BalanceHolderInterface(store.get(balanceHolder));\n    }\n\n    // HELPERS\n\n    function _addBalance(address _to, uint _value) internal {\n        require(_to != 0x0);\n        require(_value > 0);\n\n        store.set(balances, _to, getBalance(_to).add(_value));\n    }\n\n    function _subBalance(address _from, uint _value) internal {\n        require(_from != 0x0);\n        require(_value > 0);\n\n        store.set(balances, _from, getBalance(_from).sub(_value));\n    }\n\n    // EVENTS\n\n    function _emitFeeSet(uint _feePercent) internal {\n        PaymentGateway(getEventsHistory()).emitFeeSet(_feePercent);\n    }\n\n    function _emitDeposited(address _by, uint _value) internal {\n        PaymentGateway(getEventsHistory()).emitDeposited(_by, _value);\n    }\n\n    function _emitWithdrawn(address _by, uint _value) internal {\n        PaymentGateway(getEventsHistory()).emitWithdrawn(_by, _value);\n    }\n\n    function _emitTransferred(address _from, address _to, uint _value) internal {\n        PaymentGateway(getEventsHistory()).emitTransferred(_from, _to, _value);\n    }\n\n    function emitFeeSet(uint _feePercent) public {\n        FeeSet(_self(), _feePercent);\n    }\n\n    function emitDeposited(address _by, uint _value) public {\n        Deposited(_self(), _by, _value);\n    }\n\n    function emitWithdrawn(address _by, uint _value) public {\n        Withdrawn(_self(), _by, _value);\n    }\n\n    function emitTransferred(address _from, address _to, uint _value) public {\n        Transferred(_self(), _from, _to, _value);\n    }\n\n}\n",
  "sourcePath": "/Users/ahiatsevich/Development/chronobank/LX-SC/contracts/PaymentGateway.sol",
  "compiler": {
    "name": "solc",
    "version": "0.4.19+commit.c4cbbb05.Emscripten.clang"
  },
  "schemaVersion": "2.0.0",
  "updatedAt": "2018-05-22T13:02:26.160Z"
}