{
  "contractName": "RatingsAndReputationLibrary",
  "abi": [
    {
      "constant": false,
      "inputs": [
        {
          "name": "_eventsHistory",
          "type": "address"
        }
      ],
      "name": "setupEventsHistory",
      "outputs": [
        {
          "name": "",
          "type": "uint256"
        }
      ],
      "payable": false,
      "stateMutability": "nonpayable",
      "type": "function"
    },
    {
      "constant": false,
      "inputs": [
        {
          "name": "_rater",
          "type": "address"
        },
        {
          "name": "_to",
          "type": "address"
        },
        {
          "name": "_rating",
          "type": "uint8"
        },
        {
          "name": "_area",
          "type": "uint256"
        },
        {
          "name": "_category",
          "type": "uint256"
        }
      ],
      "name": "emitCategoryEvaluated",
      "outputs": [],
      "payable": false,
      "stateMutability": "nonpayable",
      "type": "function"
    },
    {
      "constant": false,
      "inputs": [
        {
          "name": "_roles2Library",
          "type": "address"
        }
      ],
      "name": "setRoles2Library",
      "outputs": [
        {
          "name": "",
          "type": "uint256"
        }
      ],
      "payable": false,
      "stateMutability": "nonpayable",
      "type": "function"
    },
    {
      "constant": false,
      "inputs": [
        {
          "name": "_boardController",
          "type": "address"
        }
      ],
      "name": "setBoardController",
      "outputs": [
        {
          "name": "",
          "type": "uint256"
        }
      ],
      "payable": false,
      "stateMutability": "nonpayable",
      "type": "function"
    },
    {
      "constant": true,
      "inputs": [
        {
          "name": "_rater",
          "type": "address"
        },
        {
          "name": "_to",
          "type": "address"
        }
      ],
      "name": "getUserRating",
      "outputs": [
        {
          "name": "",
          "type": "uint256"
        }
      ],
      "payable": false,
      "stateMutability": "view",
      "type": "function"
    },
    {
      "constant": false,
      "inputs": [
        {
          "name": "_to",
          "type": "address"
        },
        {
          "name": "_areas",
          "type": "uint256"
        },
        {
          "name": "_categories",
          "type": "uint256[]"
        },
        {
          "name": "_skills",
          "type": "uint256[]"
        },
        {
          "name": "_rating",
          "type": "uint8[]"
        }
      ],
      "name": "evaluateMany",
      "outputs": [
        {
          "name": "",
          "type": "uint256"
        }
      ],
      "payable": false,
      "stateMutability": "nonpayable",
      "type": "function"
    },
    {
      "constant": false,
      "inputs": [
        {
          "name": "_to",
          "type": "address"
        },
        {
          "name": "_rating",
          "type": "uint8"
        },
        {
          "name": "_area",
          "type": "uint256"
        },
        {
          "name": "_category",
          "type": "uint256"
        }
      ],
      "name": "evaluateCategory",
      "outputs": [
        {
          "name": "",
          "type": "uint256"
        }
      ],
      "payable": false,
      "stateMutability": "nonpayable",
      "type": "function"
    },
    {
      "constant": false,
      "inputs": [
        {
          "name": "_rater",
          "type": "address"
        },
        {
          "name": "_to",
          "type": "address"
        },
        {
          "name": "_rating",
          "type": "uint8"
        },
        {
          "name": "_area",
          "type": "uint256"
        },
        {
          "name": "_category",
          "type": "uint256"
        },
        {
          "name": "_skill",
          "type": "uint256"
        },
        {
          "name": "_jobId",
          "type": "uint256"
        }
      ],
      "name": "emitSkillRatingGiven",
      "outputs": [],
      "payable": false,
      "stateMutability": "nonpayable",
      "type": "function"
    },
    {
      "constant": false,
      "inputs": [
        {
          "name": "_to",
          "type": "address"
        },
        {
          "name": "_rating",
          "type": "uint8"
        },
        {
          "name": "_jobId",
          "type": "uint256"
        }
      ],
      "name": "setJobRating",
      "outputs": [
        {
          "name": "",
          "type": "uint256"
        }
      ],
      "payable": false,
      "stateMutability": "nonpayable",
      "type": "function"
    },
    {
      "constant": false,
      "inputs": [
        {
          "name": "_rater",
          "type": "address"
        },
        {
          "name": "_to",
          "type": "uint256"
        },
        {
          "name": "_rating",
          "type": "uint8"
        }
      ],
      "name": "emitBoardRatingGiven",
      "outputs": [],
      "payable": false,
      "stateMutability": "nonpayable",
      "type": "function"
    },
    {
      "constant": false,
      "inputs": [
        {
          "name": "_rater",
          "type": "address"
        },
        {
          "name": "_to",
          "type": "address"
        },
        {
          "name": "_rating",
          "type": "uint8"
        },
        {
          "name": "_area",
          "type": "uint256"
        }
      ],
      "name": "emitAreaEvaluated",
      "outputs": [],
      "payable": false,
      "stateMutability": "nonpayable",
      "type": "function"
    },
    {
      "constant": false,
      "inputs": [
        {
          "name": "_to",
          "type": "address"
        },
        {
          "name": "_rating",
          "type": "uint8"
        }
      ],
      "name": "setUserRating",
      "outputs": [
        {
          "name": "",
          "type": "uint256"
        }
      ],
      "payable": false,
      "stateMutability": "nonpayable",
      "type": "function"
    },
    {
      "constant": false,
      "inputs": [
        {
          "name": "_to",
          "type": "address"
        },
        {
          "name": "_rating",
          "type": "uint8"
        },
        {
          "name": "_area",
          "type": "uint256"
        },
        {
          "name": "_category",
          "type": "uint256"
        },
        {
          "name": "_skill",
          "type": "uint256"
        }
      ],
      "name": "evaluateSkill",
      "outputs": [
        {
          "name": "",
          "type": "uint256"
        }
      ],
      "payable": false,
      "stateMutability": "nonpayable",
      "type": "function"
    },
    {
      "constant": true,
      "inputs": [
        {
          "name": "_to",
          "type": "address"
        },
        {
          "name": "_jobId",
          "type": "uint256"
        }
      ],
      "name": "getJobRating",
      "outputs": [
        {
          "name": "",
          "type": "address"
        },
        {
          "name": "",
          "type": "uint8"
        }
      ],
      "payable": false,
      "stateMutability": "view",
      "type": "function"
    },
    {
      "constant": false,
      "inputs": [
        {
          "name": "_errorCode",
          "type": "uint256"
        }
      ],
      "name": "emitErrorCode",
      "outputs": [],
      "payable": false,
      "stateMutability": "nonpayable",
      "type": "function"
    },
    {
      "constant": false,
      "inputs": [
        {
          "name": "_rater",
          "type": "address"
        },
        {
          "name": "_to",
          "type": "address"
        },
        {
          "name": "_rating",
          "type": "uint256"
        }
      ],
      "name": "emitUserRatingGiven",
      "outputs": [],
      "payable": false,
      "stateMutability": "nonpayable",
      "type": "function"
    },
    {
      "constant": false,
      "inputs": [
        {
          "name": "_jobId",
          "type": "uint256"
        },
        {
          "name": "_to",
          "type": "address"
        },
        {
          "name": "_area",
          "type": "uint256"
        },
        {
          "name": "_category",
          "type": "uint256"
        },
        {
          "name": "_skills",
          "type": "uint256[]"
        },
        {
          "name": "_ratings",
          "type": "uint8[]"
        }
      ],
      "name": "rateWorkerSkills",
      "outputs": [
        {
          "name": "",
          "type": "uint256"
        }
      ],
      "payable": false,
      "stateMutability": "nonpayable",
      "type": "function"
    },
    {
      "constant": false,
      "inputs": [
        {
          "name": "_rater",
          "type": "address"
        },
        {
          "name": "_to",
          "type": "address"
        },
        {
          "name": "_rating",
          "type": "uint8"
        },
        {
          "name": "_area",
          "type": "uint256"
        },
        {
          "name": "_category",
          "type": "uint256"
        },
        {
          "name": "_skill",
          "type": "uint256"
        }
      ],
      "name": "emitSkillEvaluated",
      "outputs": [],
      "payable": false,
      "stateMutability": "nonpayable",
      "type": "function"
    },
    {
      "constant": true,
      "inputs": [
        {
          "name": "_rater",
          "type": "address"
        },
        {
          "name": "_boardId",
          "type": "uint256"
        }
      ],
      "name": "getBoardRating",
      "outputs": [
        {
          "name": "",
          "type": "uint256"
        }
      ],
      "payable": false,
      "stateMutability": "view",
      "type": "function"
    },
    {
      "constant": false,
      "inputs": [
        {
          "name": "_to",
          "type": "uint256"
        },
        {
          "name": "_rating",
          "type": "uint8"
        }
      ],
      "name": "setBoardRating",
      "outputs": [
        {
          "name": "",
          "type": "uint256"
        }
      ],
      "payable": false,
      "stateMutability": "nonpayable",
      "type": "function"
    },
    {
      "constant": false,
      "inputs": [
        {
          "name": "_rater",
          "type": "address"
        },
        {
          "name": "_to",
          "type": "address"
        },
        {
          "name": "_jobId",
          "type": "uint256"
        },
        {
          "name": "_rating",
          "type": "uint8"
        }
      ],
      "name": "emitJobRatingGiven",
      "outputs": [],
      "payable": false,
      "stateMutability": "nonpayable",
      "type": "function"
    },
    {
      "constant": false,
      "inputs": [
        {
          "name": "_to",
          "type": "address"
        },
        {
          "name": "_rating",
          "type": "uint8"
        },
        {
          "name": "_area",
          "type": "uint256"
        }
      ],
      "name": "evaluateArea",
      "outputs": [
        {
          "name": "",
          "type": "uint256"
        }
      ],
      "payable": false,
      "stateMutability": "nonpayable",
      "type": "function"
    },
    {
      "constant": false,
      "inputs": [
        {
          "name": "_jobController",
          "type": "address"
        }
      ],
      "name": "setJobController",
      "outputs": [
        {
          "name": "",
          "type": "uint256"
        }
      ],
      "payable": false,
      "stateMutability": "nonpayable",
      "type": "function"
    },
    {
      "constant": true,
      "inputs": [
        {
          "name": "_to",
          "type": "address"
        },
        {
          "name": "_area",
          "type": "uint256"
        },
        {
          "name": "_category",
          "type": "uint256"
        },
        {
          "name": "_rater",
          "type": "address"
        }
      ],
      "name": "getCategoryEvaluation",
      "outputs": [
        {
          "name": "",
          "type": "uint8"
        }
      ],
      "payable": false,
      "stateMutability": "view",
      "type": "function"
    },
    {
      "constant": true,
      "inputs": [
        {
          "name": "_to",
          "type": "address"
        },
        {
          "name": "_area",
          "type": "uint256"
        },
        {
          "name": "_category",
          "type": "uint256"
        },
        {
          "name": "_skill",
          "type": "uint256"
        },
        {
          "name": "_jobId",
          "type": "uint256"
        }
      ],
      "name": "getSkillRating",
      "outputs": [
        {
          "name": "",
          "type": "address"
        },
        {
          "name": "",
          "type": "uint8"
        }
      ],
      "payable": false,
      "stateMutability": "view",
      "type": "function"
    },
    {
      "constant": true,
      "inputs": [
        {
          "name": "_to",
          "type": "address"
        },
        {
          "name": "_area",
          "type": "uint256"
        },
        {
          "name": "_rater",
          "type": "address"
        }
      ],
      "name": "getAreaEvaluation",
      "outputs": [
        {
          "name": "",
          "type": "uint8"
        }
      ],
      "payable": false,
      "stateMutability": "view",
      "type": "function"
    },
    {
      "constant": false,
      "inputs": [
        {
          "name": "_msg",
          "type": "bytes32"
        }
      ],
      "name": "emitError",
      "outputs": [],
      "payable": false,
      "stateMutability": "nonpayable",
      "type": "function"
    },
    {
      "constant": false,
      "inputs": [
        {
          "name": "_userLibrary",
          "type": "address"
        }
      ],
      "name": "setUserLibrary",
      "outputs": [
        {
          "name": "",
          "type": "uint256"
        }
      ],
      "payable": false,
      "stateMutability": "nonpayable",
      "type": "function"
    },
    {
      "constant": true,
      "inputs": [
        {
          "name": "_to",
          "type": "address"
        },
        {
          "name": "_area",
          "type": "uint256"
        },
        {
          "name": "_category",
          "type": "uint256"
        },
        {
          "name": "_skill",
          "type": "uint256"
        },
        {
          "name": "_rater",
          "type": "address"
        }
      ],
      "name": "getSkillEvaluation",
      "outputs": [
        {
          "name": "",
          "type": "uint8"
        }
      ],
      "payable": false,
      "stateMutability": "view",
      "type": "function"
    },
    {
      "constant": true,
      "inputs": [],
      "name": "getEventsHistory",
      "outputs": [
        {
          "name": "",
          "type": "address"
        }
      ],
      "payable": false,
      "stateMutability": "view",
      "type": "function"
    },
    {
      "inputs": [
        {
          "name": "_store",
          "type": "address"
        },
        {
          "name": "_crate",
          "type": "bytes32"
        },
        {
          "name": "_roles2Library",
          "type": "address"
        }
      ],
      "payable": false,
      "stateMutability": "nonpayable",
      "type": "constructor"
    },
    {
      "anonymous": false,
      "inputs": [
        {
          "indexed": true,
          "name": "self",
          "type": "address"
        },
        {
          "indexed": true,
          "name": "rater",
          "type": "address"
        },
        {
          "indexed": true,
          "name": "to",
          "type": "address"
        },
        {
          "indexed": false,
          "name": "rating",
          "type": "uint256"
        }
      ],
      "name": "UserRatingGiven",
      "type": "event"
    },
    {
      "anonymous": false,
      "inputs": [
        {
          "indexed": true,
          "name": "self",
          "type": "address"
        },
        {
          "indexed": true,
          "name": "rater",
          "type": "address"
        },
        {
          "indexed": true,
          "name": "to",
          "type": "address"
        },
        {
          "indexed": false,
          "name": "rating",
          "type": "uint8"
        },
        {
          "indexed": false,
          "name": "jobId",
          "type": "uint256"
        }
      ],
      "name": "JobRatingGiven",
      "type": "event"
    },
    {
      "anonymous": false,
      "inputs": [
        {
          "indexed": true,
          "name": "self",
          "type": "address"
        },
        {
          "indexed": true,
          "name": "rater",
          "type": "address"
        },
        {
          "indexed": true,
          "name": "to",
          "type": "address"
        },
        {
          "indexed": false,
          "name": "rating",
          "type": "uint8"
        },
        {
          "indexed": false,
          "name": "area",
          "type": "uint256"
        },
        {
          "indexed": false,
          "name": "category",
          "type": "uint256"
        },
        {
          "indexed": false,
          "name": "skill",
          "type": "uint256"
        },
        {
          "indexed": false,
          "name": "jobId",
          "type": "uint256"
        }
      ],
      "name": "SkillRatingGiven",
      "type": "event"
    },
    {
      "anonymous": false,
      "inputs": [
        {
          "indexed": true,
          "name": "self",
          "type": "address"
        },
        {
          "indexed": true,
          "name": "rater",
          "type": "address"
        },
        {
          "indexed": true,
          "name": "to",
          "type": "address"
        },
        {
          "indexed": false,
          "name": "rating",
          "type": "uint8"
        },
        {
          "indexed": false,
          "name": "area",
          "type": "uint256"
        }
      ],
      "name": "AreaEvaluated",
      "type": "event"
    },
    {
      "anonymous": false,
      "inputs": [
        {
          "indexed": true,
          "name": "self",
          "type": "address"
        },
        {
          "indexed": true,
          "name": "rater",
          "type": "address"
        },
        {
          "indexed": true,
          "name": "to",
          "type": "address"
        },
        {
          "indexed": false,
          "name": "rating",
          "type": "uint8"
        },
        {
          "indexed": false,
          "name": "area",
          "type": "uint256"
        },
        {
          "indexed": false,
          "name": "category",
          "type": "uint256"
        }
      ],
      "name": "CategoryEvaluated",
      "type": "event"
    },
    {
      "anonymous": false,
      "inputs": [
        {
          "indexed": true,
          "name": "self",
          "type": "address"
        },
        {
          "indexed": true,
          "name": "rater",
          "type": "address"
        },
        {
          "indexed": true,
          "name": "to",
          "type": "address"
        },
        {
          "indexed": false,
          "name": "rating",
          "type": "uint8"
        },
        {
          "indexed": false,
          "name": "area",
          "type": "uint256"
        },
        {
          "indexed": false,
          "name": "category",
          "type": "uint256"
        },
        {
          "indexed": false,
          "name": "skill",
          "type": "uint256"
        }
      ],
      "name": "SkillEvaluated",
      "type": "event"
    },
    {
      "anonymous": false,
      "inputs": [
        {
          "indexed": true,
          "name": "self",
          "type": "address"
        },
        {
          "indexed": true,
          "name": "rater",
          "type": "address"
        },
        {
          "indexed": true,
          "name": "to",
          "type": "uint256"
        },
        {
          "indexed": false,
          "name": "rating",
          "type": "uint8"
        }
      ],
      "name": "BoardRatingGiven",
      "type": "event"
    },
    {
      "anonymous": false,
      "inputs": [
        {
          "indexed": false,
          "name": "code",
          "type": "address"
        },
        {
          "indexed": false,
          "name": "sender",
          "type": "address"
        },
        {
          "indexed": false,
          "name": "sig",
          "type": "bytes4"
        }
      ],
      "name": "AuthFailedError",
      "type": "event"
    },
    {
      "anonymous": false,
      "inputs": [
        {
          "indexed": true,
          "name": "self",
          "type": "address"
        },
        {
          "indexed": false,
          "name": "msg",
          "type": "bytes32"
        }
      ],
      "name": "Error",
      "type": "event"
    },
    {
      "anonymous": false,
      "inputs": [
        {
          "indexed": true,
          "name": "self",
          "type": "address"
        },
        {
          "indexed": false,
          "name": "errorCode",
          "type": "uint256"
        }
      ],
      "name": "ErrorCode",
      "type": "event"
    }
  ],
  "bytecode": "0x606060405234156200001057600080fd5b60405160608062002dd483398101604052808051919060200180519190602001805191508190508383620000556000838364010000000062002acf620001a782021704565b505060038054600160a060020a031916600160a060020a0392909216919091179055620000b260087f6a6f62526174696e6773476976656e0000000000000000000000000000000000640100000000620001cd810262002af51704565b620000ed60077f75736572526174696e6773476976656e0000000000000000000000000000000064010000000062002af5620001cd82021704565b6200012860097f736b696c6c526174696e6773476976656e00000000000000000000000000000064010000000062002af5620001cd82021704565b62000163600a7f736b696c6c526174696e6753657400000000000000000000000000000000000064010000000062002af5620001cd82021704565b6200019e600e7f626f617264526174696e6700000000000000000000000000000000000000000064010000000062002af5620001cd82021704565b50505062000223565b8254600160a060020a031916600160a060020a0392909216919091178255600190910155565b620001e7828264010000000062002b27620001eb82021704565b5050565b815462000207908264010000000062002b3f6200020b82021704565b9055565b8115158062000218575080155b15620001e757600080fd5b612ba180620002336000396000f3006060604052600436106101665763ffffffff60e060020a60003504166302927d20811461016b57806323dfed971461019c5780632637cd7d146101cf5780632caef765146101ee578063488ede8b1461020d57806348906c27146102325780634b931600146102795780635a0ae8d5146102a45780635d450bab146102db5780635e191293146103035780635f542c941461032b5780636ed55eb5146103595780637328f5311461037e5780638739cacf146103ac5780638834277e146103f35780638eb76eed1461040957806390e8317c14610431578063adf8a01b146104dc578063ba1b44da14610510578063c13862ea14610532578063c2844c601461054e578063c543ae531461057c578063cc494291146105a4578063d503ef95146105c3578063d604d6a814610606578063d8baa90514610631578063e90459f81461065a578063ec2b50bf14610670578063f49727bd1461068f578063fff10aba146106c0575b600080fd5b341561017657600080fd5b61018a600160a060020a03600435166106ef565b60405190815260200160405180910390f35b34156101a757600080fd5b6101cd600160a060020a036004358116906024351660ff60443516606435608435610793565b005b34156101da57600080fd5b61018a600160a060020a036004351661080c565b34156101f957600080fd5b61018a600160a060020a03600435166108ac565b341561021857600080fd5b61018a600160a060020a036004358116906024351661094c565b341561023d57600080fd5b61018a60048035600160a060020a031690602480359160443580830192908201359160643580830192908201359160843591820191013561096d565b341561028457600080fd5b61018a600160a060020a036004351660ff60243516604435606435610c00565b34156102af57600080fd5b6101cd600160a060020a036004358116906024351660ff6044351660643560843560a43560c435610c92565b34156102e657600080fd5b61018a600160a060020a036004351660ff60243516604435610d1a565b341561030e57600080fd5b6101cd600160a060020a036004351660243560ff60443516611095565b341561033657600080fd5b6101cd600160a060020a036004358116906024351660ff604435166064356110ed565b341561036457600080fd5b61018a600160a060020a036004351660ff60243516611156565b341561038957600080fd5b61018a600160a060020a036004351660ff602435166044356064356084356111a0565b34156103b757600080fd5b6103ce600160a060020a0360043516602435611234565b604051600160a060020a03909216825260ff1660208201526040908101905180910390f35b34156103fe57600080fd5b6101cd600435611255565b341561041457600080fd5b6101cd600160a060020a036004358116906024351660443561129c565b341561043c57600080fd5b61018a600480359060248035600160a060020a03169160443591606435919060a4906084359081019083013580602080820201604051908101604052809392919081815260200183836020028082843782019150505050505091908035906020019082018035906020019080806020026020016040519081016040528093929190818152602001838360200280828437509496506112f995505050505050565b34156104e757600080fd5b6101cd600160a060020a036004358116906024351660ff6044351660643560843560a435611608565b341561051b57600080fd5b61018a600160a060020a036004351660243561168a565b341561053d57600080fd5b61018a60043560ff602435166116a6565b341561055957600080fd5b6101cd600160a060020a036004358116906024351660443560ff6064351661177e565b341561058757600080fd5b61018a600160a060020a036004351660ff602435166044356117e7565b34156105af57600080fd5b61018a600160a060020a036004351661186d565b34156105ce57600080fd5b6105f0600160a060020a0360043581169060243590604435906064351661190d565b60405160ff909116815260200160405180910390f35b341561061157600080fd5b6103ce600160a060020a0360043516602435604435606435608435611924565b341561063c57600080fd5b6105f0600160a060020a03600435811690602435906044351661194b565b341561066557600080fd5b6101cd600435611961565b341561067b57600080fd5b61018a600160a060020a03600435166119a8565b341561069a57600080fd5b6105f0600160a060020a0360043581169060243590604435906064359060843516611a48565b34156106cb57600080fd5b6106d3611a60565b604051600160a060020a03909116815260200160405180910390f35b600061070733600035600160e060020a031916611a6f565b151561076a57600080516020612b568339815191523033600035600160e060020a031916604051600160a060020a039384168152919092166020820152600160e060020a03199091166040808301919091526060909101905180910390a161078e565b600160a060020a038216151561077f57600080fd5b61078882611b43565b50600190505b919050565b83600160a060020a031685600160a060020a03166107af611b67565b600160a060020a03167f0a1e6d95c7d27b6e607cacab49cf8b88390c894e73eca23a0394065118b6bb34868686604051808460ff1660ff168152602001838152602001828152602001935050505060405180910390a45050505050565b600061082433600035600160e060020a031916611a6f565b151561088757600080516020612b568339815191523033600035600160e060020a031916604051600160a060020a039384168152919092166020820152600160e060020a03199091166040808301919091526060909101905180910390a161078e565b5060038054600160a060020a038316600160a060020a03199091161790556001919050565b60006108c433600035600160e060020a031916611a6f565b151561092757600080516020612b568339815191523033600035600160e060020a031916604051600160a060020a039384168152919092166020820152600160e060020a03199091166040808301919091526060909101905180910390a161078e565b5060068054600160a060020a038316600160a060020a03199091161790556001919050565b6000610961816007858563ffffffff611b6b16565b60ff1690505b92915050565b60008060008060008061098c33600035600160e060020a031916611a6f565b15156109ef57600080516020612b568339815191523033600035600160e060020a031916604051600160a060020a039384168152919092166020820152600160e060020a03199091166040808301919091526060909101905180910390a1610bef565b600094506000935060009250610a048d611b85565b1515610a1c57610a1561426d611bb2565b9550610bef565b600191505b8115610bea57610a318d83611c1b565b1515610a3c57610bdf565b610a498d60028402611c1b565b15610a8757610a768e8989868060010197508181101515610a6657fe5b9050602002013560ff1684611c21565b600114610a8257600080fd5b610bdf565b610aa28c8c87818110610a9657fe5b90506020020135611b85565b1515610aad57600080fd5b8b8b86818110610ab957fe5b9050602002013560001415610acd57600080fd5b5060015b8015610bd857610af38c8c87818110610ae657fe5b9050602002013582611c1b565b1515610afe57610bd0565b610b218c8c87818110610b0d57fe5b905060200201356001839060020a02611c1b565b15610b6057610b4f8e8989868060010197508181101515610b3e57fe5b9050602002013560ff168484611ce8565b600114610b5b57600080fd5b610bd0565b898985818110610b6c57fe5b9050602002013560001415610b8057600080fd5b610bc48e8989868060010197508181101515610b9857fe5b9050602002013560ff1684848e8e8a806001019b508181101515610bb857fe5b90506020020135611dc5565b600114610bd057600080fd5b600402610ad1565b6001909401935b600490910290610a21565b600195505b505050505098975050505050505050565b6000610c1833600035600160e060020a031916611a6f565b1515610c7b57600080516020612b568339815191523033600035600160e060020a031916604051600160a060020a039384168152919092166020820152600160e060020a03199091166040808301919091526060909101905180910390a1610c8a565b610c8785858585611ce8565b90505b949350505050565b85600160a060020a031687600160a060020a0316610cae611b67565b600160a060020a03167f17354fa937310e5745112a01a3d6120621914be7978d99f716e0773e71c2c972888888888860405160ff909516855260208501939093526040808501929092526060840152608083019190915260a0909101905180910390a450505050505050565b600082610d2681611eab565b1515610d4457610d3761426b611bb2565b5061426b60005260206000f35b826007600454600160a060020a03166353bc1c128360006040516020015260405160e060020a63ffffffff84160281526004810191909152602401602060405180830381600087803b1515610d9857600080fd5b6102c65a03f11515610da957600080fd5b50505060405180519050141515610dd257610dc5614269611bb2565b5061426960005260206000f35b838660008080610deb816008868863ffffffff611ec716565b93505060008360ff161115610e1257610e0561426a611bb2565b5061426a60005260206000f35b600454600160a060020a03166314f608818660006040516020015260405160e060020a63ffffffff84160281526004810191909152602401602060405180830381600087803b1515610e6357600080fd5b6102c65a03f11515610e7457600080fd5b5050506040518051600454909350600160a060020a031690506336dd20a78660006040516020015260405160e060020a63ffffffff84160281526004810191909152602401602060405180830381600087803b1515610ed257600080fd5b6102c65a03f11515610ee357600080fd5b50505060405180519050905033600160a060020a031682600160a060020a0316148015610f21575083600160a060020a031681600160a060020a0316145b80610f59575083600160a060020a031682600160a060020a0316148015610f59575033600160a060020a031681600160a060020a0316145b1515610f6a57610dc5614269611bb2565b600654600160a060020a031663e575df728163b1bf05108c60006040516020015260405160e060020a63ffffffff84160281526004810191909152602401602060405180830381600087803b1515610fc157600080fd5b6102c65a03f11515610fd257600080fd5b505050604051805190503360006040516020015260405160e060020a63ffffffff85160281526004810192909252600160a060020a03166024820152604401602060405180830381600087803b151561102a57600080fd5b6102c65a03f1151561103b57600080fd5b5050506040518051151560011490506110605761105961426c611bb2565b9750611087565b611076600060088d8c338f63ffffffff611f0a16565b611082338c8b8d611f47565b600197505b505050505050509392505050565b8183600160a060020a03166110a8611b67565b600160a060020a03167f4eb70eef4c57ff55a2bbcae67042a7525745a37453dda83a08b3d844c75bc0048460405160ff909116815260200160405180910390a4505050565b82600160a060020a031684600160a060020a0316611109611b67565b600160a060020a03167fe558093f7ccdc05ca735600d7d93ce24b49ca4fc2c47f61f27ec3e7571f7cf0f858560405160ff909216825260208201526040908101905180910390a450505050565b60008161116281611eab565b151561117357610d3761426b611bb2565b6111886000600733878763ffffffff611fd116565b61119633858560ff16611ff4565b5060019392505050565b60006111b833600035600160e060020a031916611a6f565b151561121b57600080516020612b568339815191523033600035600160e060020a031916604051600160a060020a039384168152919092166020820152600160e060020a03199091166040808301919091526060909101905180910390a161122b565b6112288686868686611dc5565b90505b95945050505050565b60008061124a816008868663ffffffff611ec716565b915091509250929050565b61125d611b67565b600160a060020a03167f09e0713b45664e161c202b19bb4574ee83dfa056f9bfdee56847b3971d9682218260405190815260200160405180910390a250565b81600160a060020a031683600160a060020a03166112b8611b67565b600160a060020a03167fff1c228d64e91b399a42c8f76b90f5dc58f36a57b4573dbb2286473cc6ee55f18460405190815260200160405180910390a4505050565b600080856113068161206d565b1580611318575061131681612084565b155b15611322576115fc565b8561132c8161206d565b158061133e575061133c81612084565b155b15611348576115fa565b896007600454600160a060020a03166353bc1c128360006040516020015260405160e060020a63ffffffff84160281526004810191909152602401602060405180830381600087803b151561139c57600080fd5b6102c65a03f115156113ad57600080fd5b505050604051805190501415156113c957610dc5614269611bb2565b6004548b908b90600160a060020a0333811691166314f608818460006040516020015260405160e060020a63ffffffff84160281526004810191909152602401602060405180830381600087803b151561142257600080fd5b6102c65a03f1151561143357600080fd5b50505060405180519050600160a060020a03161415806114ca5750600454600160a060020a0380831691166336dd20a78460006040516020015260405160e060020a63ffffffff84160281526004810191909152602401602060405180830381600087803b15156114a357600080fd5b6102c65a03f115156114b457600080fd5b50505060405180519050600160a060020a031614155b8061153f575060048054600160a060020a031663cb56dd798460006040516020015260405160e060020a63ffffffff84160281526004810191909152602401602060405180830381600087803b151561152257600080fd5b6102c65a03f1151561153357600080fd5b50505060405180519050105b8061155857506115586000600a8463ffffffff6120aa16565b1561156857610dc5614269611bb2565b6115738d8c8c6120bf565b151561158b5761158461426d611bb2565b96506115f6565b600095505b88518610156115dc576115d18d8d8a89815181106115aa57fe5b906020019060200201518e8e8e8c815181106115c257fe5b906020019060200201516121af565b600190950194611590565b6115f16000600a8f600163ffffffff61229516565b600196505b5050505b505b50509695505050505050565b84600160a060020a031686600160a060020a0316611624611b67565b600160a060020a03167f95fd9fa6549f6243e16de78a31a7c9df65178f3674ffc3e7bd944fc3e9a6681387878787604051808560ff1660ff16815260200184815260200183815260200182815260200194505050505060405180910390a4505050505050565b600061169f81600e858563ffffffff6122af16565b9392505050565b6000816116b281611eab565b15156116c357610d3761426b611bb2565b60065484903390600160a060020a031663e575df72838360006040516020015260405160e060020a63ffffffff85160281526004810192909252600160a060020a03166024820152604401602060405180830381600087803b151561172757600080fd5b6102c65a03f1151561173857600080fd5b50505060405180511515600114905061175057611775565b6117656000600e33898963ffffffff6122d216565b6117703387876122eb565b600193505b50505092915050565b82600160a060020a031684600160a060020a031661179a611b67565b600160a060020a03167fb9cb995df645ae33c29e1a4ea2028a803a69503bab3aeee57474e01195a349c2848660405160ff909216825260208201526040908101905180910390a450505050565b60006117ff33600035600160e060020a031916611a6f565b151561186257600080516020612b568339815191523033600035600160e060020a031916604051600160a060020a039384168152919092166020820152600160e060020a03199091166040808301919091526060909101905180910390a161169f565b610c8a848484611c21565b600061188533600035600160e060020a031916611a6f565b15156118e857600080516020612b568339815191523033600035600160e060020a031916604051600160a060020a039384168152919092166020820152600160e060020a03199091166040808301919091526060909101905180910390a161078e565b5060048054600160a060020a038316600160a060020a03199091161790556001919050565b6000610c8781600c8787878763ffffffff61235216565b60008061193d81600989868a8a8a63ffffffff6123a816565b915091509550959350505050565b6000610c8a81600b86868663ffffffff61240616565b611969611b67565b600160a060020a03167fbb8f0c1d8804cd86e7873ec11cb00af945c8c0ebd061a68b28617034803464158260405190815260200160405180910390a250565b60006119c033600035600160e060020a031916611a6f565b1515611a2357600080516020612b568339815191523033600035600160e060020a031916604051600160a060020a039384168152919092166020820152600160e060020a03199091166040808301919091526060909101905180910390a161078e565b5060058054600160a060020a038316600160a060020a03199091161790556001919050565b600061122881600d888888888863ffffffff61244716565b600254600160a060020a031690565b600030600160a060020a031683600160a060020a03161415611a9357506001610967565b600354600160a060020a03161515611aad57506000610967565b600354600160a060020a031663b700961384308560006040516020015260405160e060020a63ffffffff8616028152600160a060020a039384166004820152919092166024820152600160e060020a03199091166044820152606401602060405180830381600087803b1515611b2257600080fd5b6102c65a03f11515611b3357600080fd5b5050506040518051949350505050565b60028054600160a060020a038316600160a060020a03199091161790556001919050565b3390565b6000610c878585600160a060020a038087169086166124a7565b60027faaaaaaaaaaaaaaaaaaaaaaaaaaaaaaaaaaaaaaaaaaaaaaaaaaaaaaaaaaaaaaaa8216049081161490565b6000611bbc611a60565b600160a060020a0316638834277e8360405160e060020a63ffffffff84160281526004810191909152602401600060405180830381600087803b1515611c0157600080fd5b6102c65a03f11515611c1257600080fd5b50929392505050565b16151590565b6000611c2c83611eab565b8015611cae5750600554600160a060020a0316635fce627e858460006040516020015260405160e060020a63ffffffff8516028152600160a060020a0390921660048301526024820152604401602060405180830381600087803b1515611c9257600080fd5b6102c65a03f11515611ca357600080fd5b505050604051805190505b1515611cc657611cbf61426e611bb2565b905061169f565b611cdc6000600b8685338863ffffffff6124cc16565b61119633858585612510565b6000611cf384611eab565b1580611d7f5750600554600160a060020a0316637e44104886858560006040516020015260405160e060020a63ffffffff8616028152600160a060020a03909316600484015260248301919091526044820152606401602060405180830381600087803b1515611d6257600080fd5b6102c65a03f11515611d7357600080fd5b50505060405180519050155b15611d9657611d8f61426e611bb2565b9050610c8a565b611dad6000600c878686338a63ffffffff61258116565b611dba33868686866125cf565b506001949350505050565b6000611dd085611eab565b1580611e625750600554600160a060020a031663cfba02798786868660006040516020015260405160e060020a63ffffffff8716028152600160a060020a039094166004850152602484019290925260448301526064820152608401602060405180830381600087803b1515611e4557600080fd5b6102c65a03f11515611e5657600080fd5b50505060405180519050155b15611e7957611e7261426e611bb2565b905061122b565b611e916000600d88878787338c63ffffffff61266316565b611e9f3387878787876126ba565b50600195945050505050565b6000808260ff16118015610967575050600a60ff909116111590565b600080611efd86868686604051600160a060020a0392909216606060020a02825260148201526034016040518091039020612755565b9150915094509492505050565b611f3f86868686604051600160a060020a0392909216606060020a0282526014820152603401604051809103902085856127fe565b505050505050565b611f4f611a60565b600160a060020a031663c2844c608585858560405160e060020a63ffffffff8716028152600160a060020a039485166004820152929093166024830152604482015260ff9091166064820152608401600060405180830381600087803b1515611fb757600080fd5b6102c65a03f11515611fc857600080fd5b50505050505050565b611fed8585600160a060020a0380871690861660ff8616612888565b5050505050565b611ffc611a60565b600160a060020a0316638eb76eed84848460405160e060020a63ffffffff8616028152600160a060020a0393841660048201529190921660248201526044810191909152606401600060405180830381600087803b151561205c57600080fd5b6102c65a03f11515611f3f57600080fd5b600081158015906109675750506000198101161590565b7faaaaaaaaaaaaaaaaaaaaaaaaaaaaaaaaaaaaaaaaaaaaaaaaaaaaaaaaaaaaaaaa161590565b6000610c8a6120ba8585856128ac565b612946565b6004546000908390600160a060020a0316630e1a9e3f86846040516020015260405160e060020a63ffffffff84160281526004810191909152602401602060405180830381600087803b151561211457600080fd5b6102c65a03f1151561212557600080fd5b50505060405180519050148015610c8a57506004548290600160a060020a0316630d9f28178660006040516020015260405160e060020a63ffffffff84160281526004810191909152602401602060405180830381600087803b151561218a57600080fd5b6102c65a03f1151561219b57600080fd5b505050604051805190501490509392505050565b6121b884611eab565b15156121c357600080fd5b6121cc8161206d565b15156121d757600080fd5b60045461224d90600160a060020a031663dce722dd8860006040516020015260405160e060020a63ffffffff84160281526004810191909152602401602060405180830381600087803b151561222c57600080fd5b6102c65a03f1151561223d57600080fd5b5050506040518051905082611c1b565b151561225857600080fd5b612271600060098789878787338c63ffffffff61294b16565b6122866000600a88600163ffffffff61229516565b611f3f3386868686868c612998565b6122a98484846122a485612a3d565b612a57565b50505050565b60006122c68585600160a060020a038616856124a7565b60ff1695945050505050565b611fed8585600160a060020a0386168560ff8616612888565b6122f3611a60565b600160a060020a0316635e19129384848460405160e060020a63ffffffff8616028152600160a060020a039093166004840152602483019190915260ff166044820152606401600060405180830381600087803b151561205c57600080fd5b600061239d878787878787604051606060020a600160a060020a03958616810282526014820194909452603481019290925290921602605482015260680160405180910390206128ac565b979650505050505050565b6000806123f689898989898989604051600160a060020a0395909516606060020a02855260148501939093526034840191909152605483015260748201526094016040518091039020612755565b9150915097509795505050505050565b60006112288686868686604051606060020a600160a060020a03948516810282526014820193909352921602603482015260480160405180910390206128ac565b600061249b88888888888888604051606060020a600160a060020a039687168102825260148201959095526034810193909352605483019190915290921602607482015260880160405180910390206128ac565b98975050505050505050565b6000610c878585858560405191825260208201526040908101905180910390206128ac565b611f3f8686868686604051606060020a600160a060020a03948516810282526014820193909352921602603482015260480160405190819003902060ff8516612a57565b612518611a60565b600160a060020a0316635f542c948585858560405160e060020a63ffffffff8716028152600160a060020a03948516600482015292909316602483015260ff1660448201526064810191909152608401600060405180830381600087803b1515611fb757600080fd5b611fc8878787878787604051606060020a600160a060020a03958616810282526014820194909452603481019290925290921602605482015260680160405190819003902060ff8516612a57565b6125d7611a60565b600160a060020a03166323dfed97868686868660405160e060020a63ffffffff8816028152600160a060020a03958616600482015293909416602484015260ff90911660448301526064820152608481019190915260a401600060405180830381600087803b151561264857600080fd5b6102c65a03f1151561265957600080fd5b5050505050505050565b61265988888888888888604051606060020a600160a060020a039687168102825260148201959095526034810193909352605483019190915290921602607482015260880160405190819003902060ff8516612a57565b6126c2611a60565b600160a060020a031663adf8a01b87878787878760405160e060020a63ffffffff8916028152600160a060020a03968716600482015294909516602485015260ff90921660448401526064830152608482015260a481019190915260c401600060405180830381600087803b151561273957600080fd5b6102c65a03f1151561274a57600080fd5b505050505050505050565b8254600184015483546000928392600160a060020a039091169163e33e5c5e919086604051918252602082015260409081019051809103902060006040516040015260405160e060020a63ffffffff8516028152600481019290925260248201526044016040805180830381600087803b15156127d157600080fd5b6102c65a03f115156127e257600080fd5b5050506040518051906020018051905091509150935093915050565b845460018601548554600160a060020a0390921691632bc40f9a9190866040519182526020820152604090810190518091039020858560405160e060020a63ffffffff871602815260048101949094526024840192909252600160a060020a0316604483015260ff166064820152608401600060405180830381600087803b151561264857600080fd5b611fed85858585604051918252602082015260409081019051809103902084612a57565b825460018401548354600092600160a060020a0316916337d9d7fc9185604051918252602082015260409081019051809103902060006040516020015260405160e060020a63ffffffff851602815260048101929092526024820152604401602060405180830381600087803b151561292457600080fd5b6102c65a03f1151561293557600080fd5b505050604051805195945050505050565b151590565b61274a89898989898989604051600160a060020a0395909516606060020a0285526014850193909352603484019190915260548301526074820152609401604051809103902085856127fe565b6129a0611a60565b600160a060020a0316635a0ae8d58888888888888860405160e060020a63ffffffff8a16028152600160a060020a03978816600482015295909616602486015260ff90931660448501526064840191909152608483015260a482015260c481019190915260e401600060405180830381600087803b1515612a2057600080fd5b6102c65a03f11515612a3157600080fd5b50505050505050505050565b600081612a4b576000612a4e565b60015b60ff1692915050565b835460018501548454600160a060020a039092169163a14ff85791908560405191825260208201526040908101905180910390208460405160e060020a63ffffffff8616028152600481019390935260248301919091526044820152606401600060405180830381600087803b1515611fb757600080fd5b8254600160a060020a031916600160a060020a0392909216919091178255600190910155565b612aff8282612b27565b5050565b612aff8282612b27565b612aff8282612b27565b612aff8282612b27565b612aff82825b8154612b339082612b3f565b9055565b8154612b3390825b81151580612b4b575080155b15612aff57600080fd005133a133185f1023427a2e90f18506b27db994977ce0c0faafd514a7dd109ae0a165627a7a723058208c11fde0561b60b1caaac0ef227822910e3f2e66bc64f8c0ffaae2f0707e4fcb0029",
  "source": "/**\n * Copyright 20172018, LaborX PTY\n * Licensed under the AGPL Version 3 license.\n */\n\npragma solidity ^0.4.18;\n\n\nimport './adapters/MultiEventsHistoryAdapter.sol';\nimport './adapters/Roles2LibraryAdapter.sol';\nimport './adapters/StorageAdapter.sol';\nimport './base/BitOps.sol';\n\n\ncontract UserLibraryInterface {\n    function hasArea(address _user, uint _area) public returns (bool);\n    function hasCategory(address _user, uint _area, uint _category) public returns (bool);\n    function hasSkill(address _user, uint _area, uint _category, uint _skill) public returns (bool);\n}\n\n\ncontract JobControllerInterface {\n    function getJobState(uint _jobId) public returns (uint);\n    function getJobClient(uint _jobId) public returns (address);\n    function getJobWorker(uint _jobId) public returns (address);\n    function getJobSkillsArea(uint _jobId) public returns (uint);\n    function getJobSkillsCategory(uint _jobId) public returns (uint);\n    function getJobSkills(uint _jobId) public returns (uint);\n    function getFinalState(uint _jobId) public returns (uint);\n}\n\n\ncontract BoardControllerInterface {\n    function getUserStatus(uint _boardId, address _user) public returns (bool);\n    function getJobsBoard(uint _jobId) public returns (uint);\n}\n\n\ncontract RatingsAndReputationLibrary is StorageAdapter, MultiEventsHistoryAdapter, Roles2LibraryAdapter, BitOps {\n\n    uint constant RATING_AND_REPUTATION_SCOPE = 17000;\n    uint constant RATING_AND_REPUTATION_CANNOT_SET_RATING = RATING_AND_REPUTATION_SCOPE + 1;\n    uint constant RATING_AND_REPUTATION_RATING_IS_ALREADY_SET = RATING_AND_REPUTATION_SCOPE + 2;\n    uint constant RATING_AND_REPUTATION_INVALID_RATING = RATING_AND_REPUTATION_SCOPE + 3;\n    uint constant RATING_AND_REPUTATION_WORKER_IS_NOT_ACTIVE = RATING_AND_REPUTATION_SCOPE + 4;\n    uint constant RATING_AND_REPUTATION_INVALID_AREA_OR_CATEGORY = RATING_AND_REPUTATION_SCOPE + 5;\n    uint constant RATING_AND_REPUTATION_INVALID_EVALUATION = RATING_AND_REPUTATION_SCOPE + 6;\n\n    event UserRatingGiven(address indexed self, address indexed rater, address indexed to, uint rating);\n    event JobRatingGiven(address indexed self, address indexed rater, address indexed to, uint8 rating, uint jobId);\n    event SkillRatingGiven(address indexed self, address indexed rater, address indexed to, uint8 rating, uint area, uint category, uint skill, uint jobId);\n    event AreaEvaluated(address indexed self, address indexed rater, address indexed to, uint8 rating, uint area);\n    event CategoryEvaluated(address indexed self, address indexed rater, address indexed to, uint8 rating, uint area, uint category);\n    event SkillEvaluated(address indexed self, address indexed rater, address indexed to, uint8 rating, uint area, uint category, uint skill);\n    event BoardRatingGiven(address indexed self, address indexed rater, uint indexed to, uint8 rating);\n\n    enum JobState { NOT_SET, CREATED, ACCEPTED, PENDING_START, STARTED, PENDING_FINISH, FINISHED, FINALIZED }\n\n    JobControllerInterface jobController;\n    UserLibraryInterface userLibrary;\n    BoardControllerInterface boardController;\n\n    // Just a simple user-user rating, can be set by anyone, can be overwritten\n    StorageInterface.AddressAddressUInt8Mapping userRatingsGiven;  // from => to => rating\n\n    // Job rating, set only after job completion, can be set once both by client and worker\n    // User has to set this rating after job is completed.\n    StorageInterface.AddressUIntStructAddressUInt8Mapping jobRatingsGiven;  // to => jobId => {from, rating}\n\n    // Job rating, set by client to worker. Can be set only once and can't be overwritten.\n    // This rating tells how satisfied is client with worker's skills.\n    // Client can skip setting this ratings if he is lazy.\n    StorageInterface.AddressUIntUIntUIntUIntStructAddressUInt8Mapping skillRatingsGiven;  // to => jobId => area => category => skill => {from, rating}\n    StorageInterface.UIntBoolMapping skillRatingSet;  // jobId => Whether rating was already set\n\n    // Following ratings can be set only by evaluators anytime. Can be overwritten.\n    StorageInterface.AddressUIntAddressUInt8Mapping areasEvaluated;\n    StorageInterface.AddressUIntUIntAddressUInt8Mapping categoriesEvaluated;\n    StorageInterface.AddressUIntUIntUIntAddressUInt8Mapping skillsEvaluated;\n\n    StorageInterface.AddressUIntUInt8Mapping boardRating;\n\n    modifier canSetRating(uint _jobId) {\n         // Ensure job is FINALIZED\n        if (jobController.getJobState(_jobId) != uint(JobState.FINALIZED)) {\n            _emitErrorCode(RATING_AND_REPUTATION_CANNOT_SET_RATING);\n            assembly {\n                mstore(0, 17001) // RATING_AND_REPUTATION_CANNOT_SET_RATING\n                return(0, 32)\n            }\n        }\n        _;\n    }\n\n    modifier canSetJobRating(uint _jobId, address _to) {\n        var (, rating) = store.get(jobRatingsGiven, _to, _jobId);\n        if (rating > 0) {\n            _emitErrorCode(RATING_AND_REPUTATION_RATING_IS_ALREADY_SET);\n            assembly {\n                mstore(0, 17002) // RATING_AND_REPUTATION_RATING_IS_ALREADY_SET\n                return(0, 32)\n            }\n        }\n\n        address client = jobController.getJobClient(_jobId);\n        address worker = jobController.getJobWorker(_jobId);\n        if (\n            ! (  // If it's neither actual client -> worker, nor worker -> client, return\n                (client == msg.sender && worker == _to) ||\n                (client == _to && worker == msg.sender)\n            )\n        ) {\n            _emitErrorCode(RATING_AND_REPUTATION_CANNOT_SET_RATING);\n            assembly {\n                mstore(0, 17001) // RATING_AND_REPUTATION_CANNOT_SET_RATING\n                return(0, 32)\n            }\n        }\n\n        _;\n    }\n\n    modifier canSetSkillRating(uint _jobId, address _to) {\n        if (\n            jobController.getJobClient(_jobId) != msg.sender ||\n            jobController.getJobWorker(_jobId) != _to ||\n            jobController.getFinalState(_jobId) < 4 ||  // Ensure job is at least STARTED\n            store.get(skillRatingSet, _jobId)  // Ensure skill rating wasn't set yet\n        ) {\n            _emitErrorCode(RATING_AND_REPUTATION_CANNOT_SET_RATING);\n            assembly {\n                mstore(0, 17001) // RATING_AND_REPUTATION_CANNOT_SET_RATING\n                return(0, 32)\n            }\n        }\n        _;\n    }\n\n    modifier validRating(uint8 _rating) {\n        if (!_validRating(_rating)) {\n            _emitErrorCode(RATING_AND_REPUTATION_INVALID_RATING);\n            assembly {\n                mstore(0, 17003) // RATING_AND_REPUTATION_INVALID_RATING\n                return(0, 32)\n            }\n        }\n        _;\n    }\n\n    modifier onlyBoardMember(uint _boardId, address _user) {\n      if (boardController.getUserStatus(_boardId, _user) != true) {\n        return;\n      }\n      _;\n    }\n\n    function RatingsAndReputationLibrary(\n\t\tStorage _store, \n\t\tbytes32 _crate, \n\t\taddress _roles2Library\n\t)\n\tStorageAdapter(_store, _crate)\n\tRoles2LibraryAdapter(_roles2Library)\n\tpublic\n    {\n        jobRatingsGiven.init('jobRatingsGiven');\n        userRatingsGiven.init('userRatingsGiven');\n        skillRatingsGiven.init('skillRatingsGiven');\n        skillRatingSet.init('skillRatingSet');\n        boardRating.init('boardRating');\n    }\n\n    function setupEventsHistory(address _eventsHistory) auth external returns (uint) {\n        require(_eventsHistory != 0x0);\n\n        _setEventsHistory(_eventsHistory);\n        return OK;\n    }\n\n    function setJobController(address _jobController) auth external returns (uint) {\n        jobController = JobControllerInterface(_jobController);\n        return OK;\n    }\n\n    function setUserLibrary(address _userLibrary) auth external returns (uint) {\n        userLibrary = UserLibraryInterface(_userLibrary);\n        return OK;\n    }\n\n    function setBoardController(address _boardController) auth external returns (uint) {\n        boardController = BoardControllerInterface(_boardController);\n        return OK;\n    }\n\n    // USER RATING\n\n    function getUserRating(address _rater, address _to) public view returns (uint) {\n        return store.get(userRatingsGiven, _rater, _to);\n    }\n\n    function setUserRating(address _to, uint8 _rating) validRating(_rating) public returns (uint) {\n        store.set(userRatingsGiven, msg.sender, _to, _rating);\n        _emitUserRatingGiven(msg.sender, _to, _rating);\n        return OK;\n    }\n\n    // JOB RATING\n\n    function getJobRating(address _to, uint _jobId) public view returns (address, uint8) {\n        return store.get(jobRatingsGiven, _to, _jobId);\n    }\n\n    function setJobRating(\n\t\taddress _to, \n\t\tuint8 _rating, \n\t\tuint _jobId\n\t)\n\tvalidRating(_rating)\n\tcanSetRating(_jobId)\n\tcanSetJobRating(_jobId, _to)\n\tpublic\n    returns (uint) \n\t{\n        if (boardController.getUserStatus(boardController.getJobsBoard(_jobId), msg.sender) != true) {\n          return _emitErrorCode(RATING_AND_REPUTATION_WORKER_IS_NOT_ACTIVE);\n        } //If use this check in modifier, then will be \"stack to deep\" error\n        \n\t\tstore.set(jobRatingsGiven, _to, _jobId, msg.sender, _rating);\n        \n\t\t_emitJobRatingGiven(msg.sender, _to, _jobId, _rating);\n        return OK;\n    }\n\n\n    // BOARD RATING\n\n    function setBoardRating(\n\t\tuint _to, \n\t\tuint8 _rating\n\t)\n\tvalidRating(_rating)\n\tonlyBoardMember(_to, msg.sender)\n\tpublic\n    returns (uint) \n\t{\n        store.set(boardRating, msg.sender, _to, _rating);\n        _emitBoardRatingGiven(msg.sender, _to, _rating);\n        return OK;\n    }\n\n    function getBoardRating(address _rater, uint _boardId) public view returns (uint) {\n        return store.get(boardRating, _rater, _boardId);\n    }\n\n\n    // SKILL RATING\n\n    function rateWorkerSkills(\n\t\tuint _jobId, \n\t\taddress _to, \n\t\tuint _area, \n\t\tuint _category, \n\t\tuint[] _skills, \n\t\tuint8[] _ratings\n\t)\n\tsingleOddFlag(_area)\n\tsingleOddFlag(_category)\n\tcanSetRating(_jobId)\n\tcanSetSkillRating(_jobId, _to)\n\tpublic\n    returns (uint) \n\t{\n        if (!_checkAreaAndCategory(_jobId, _area, _category)) {\n            return _emitErrorCode(RATING_AND_REPUTATION_INVALID_AREA_OR_CATEGORY);\n        }\n\n        for (uint i = 0; i < _skills.length; i++) {\n            _checkSetSkill(_jobId, _to, _ratings[i], _area, _category, _skills[i]);\n        }\n\n        store.set(skillRatingSet, _jobId, true);\n        return OK;\n    }\n\n    function _checkAreaAndCategory(uint _jobId, uint _area, uint _category) internal returns (bool) {\n        return jobController.getJobSkillsArea(_jobId) == _area &&\n               jobController.getJobSkillsCategory(_jobId) == _category;\n    }\n\n    function _checkSetSkill(\n\t\tuint _jobId, \n\t\taddress _to, \n\t\tuint8 _rating, \n\t\tuint _area, \n\t\tuint _category, \n\t\tuint _skill\n\t)\n    internal\n    {\n        require(_validRating(_rating));\n        require(_isSingleFlag(_skill));  // Ensure skill is repserented correctly, as a single bit flag\n        require(_hasFlag(jobController.getJobSkills(_jobId), _skill));  // Ensure the job has given skill\n\n        store.set(skillRatingsGiven, _to, _jobId, _area, _category, _skill, msg.sender, _rating);\n        store.set(skillRatingSet, _jobId, true);\n        _emitSkillRatingGiven(msg.sender, _to, _rating, _area, _category, _skill, _jobId);\n    }\n\n    function getSkillRating(\n\t\taddress _to, \n\t\tuint _area, \n\t\tuint _category, \n\t\tuint _skill, \n\t\tuint _jobId\n\t)\n\tpublic view\n    returns (address, uint8) \n\t{\n        return store.get(skillRatingsGiven, _to, _jobId, _area, _category, _skill);\n    }\n\n\n    // EVALUATIONS\n\n    function getAreaEvaluation(address _to, uint _area, address _rater) public view returns (uint8) {\n        return store.get(areasEvaluated, _to, _area, _rater);\n    }\n\n    function evaluateArea(address _to, uint8 _rating, uint _area) auth external returns (uint) {\n        return _evaluateArea(_to, _rating, _area);\n    }\n\n    function _evaluateArea(address _to, uint8 _rating, uint _area) internal returns (uint) {\n        if (!(_validRating(_rating) && userLibrary.hasArea(_to, _area))) {\n            return _emitErrorCode(RATING_AND_REPUTATION_INVALID_EVALUATION);\n        }\n\n        store.set(areasEvaluated, _to, _area, msg.sender, _rating);\n\n        _emitAreaEvaluated(msg.sender, _to, _rating, _area);\n        return OK;\n    }\n\n    function getCategoryEvaluation(address _to, uint _area, uint _category, address _rater) public view returns (uint8) {\n        return store.get(categoriesEvaluated, _to, _area, _category, _rater);\n    }\n\n    function evaluateCategory(address _to, uint8 _rating, uint _area, uint _category) auth external returns (uint) {\n        return _evaluateCategory(_to, _rating, _area, _category);\n    }\n\n    function _evaluateCategory(address _to, uint8 _rating, uint _area, uint _category) internal returns (uint) {\n        if (!_validRating(_rating) || !userLibrary.hasCategory(_to, _area, _category)) {\n            return _emitErrorCode(RATING_AND_REPUTATION_INVALID_EVALUATION);\n        }\n\n        store.set(categoriesEvaluated, _to, _area, _category, msg.sender, _rating);\n\n        _emitCategoryEvaluated(msg.sender, _to, _rating, _area, _category);\n        return OK;\n    }\n\n    function getSkillEvaluation(address _to, uint _area, uint _category, uint _skill, address _rater) public view returns (uint8) {\n        return store.get(skillsEvaluated, _to, _area, _category, _skill,  _rater);\n    }\n\n    function evaluateSkill(address _to, uint8 _rating, uint _area, uint _category, uint _skill) auth external returns (uint) {\n        return _evaluateSkill(_to, _rating, _area, _category, _skill);\n    }\n\n    function _evaluateSkill(address _to, uint8 _rating, uint _area, uint _category, uint _skill) internal returns (uint) {\n        if (!_validRating(_rating) || !userLibrary.hasSkill(_to, _area, _category, _skill)) {\n            return _emitErrorCode(RATING_AND_REPUTATION_INVALID_EVALUATION);\n        }\n\n        store.set(skillsEvaluated, _to, _area, _category, _skill, msg.sender, _rating);\n\n        _emitSkillEvaluated(msg.sender, _to, _rating, _area, _category, _skill);\n        return OK;\n    }\n\n    function evaluateMany(address _to, uint _areas, uint[] _categories, uint[] _skills, uint8[] _rating) auth external returns (uint) {\n        uint categoriesCounter = 0;\n        uint skillsCounter = 0;\n        uint ratingCounter = 0;\n        //check that areas have correct format\n        if (!_ifEvenThenOddTooFlags(_areas)) {\n            return _emitErrorCode(RATING_AND_REPUTATION_INVALID_AREA_OR_CATEGORY);\n        }\n        for (uint area = 1; area != 0; area = area << 2) {\n            if (!_hasFlag(_areas, area)) {\n                continue;\n            }\n            //check if area is full\n            if (_hasFlag(_areas, area << 1)) {\n                if (OK != _evaluateArea(_to, _rating[ratingCounter++], area)) {\n\t\t\t\t\trevert();\n\t\t\t\t}\n                //area is full, no need to go further to category checks\n                continue;\n            }\n            //check that category has correct format\n            if (!_ifEvenThenOddTooFlags(_categories[categoriesCounter])) {\n                revert();\n            }\n            //check that category is not empty\n            if (_categories[categoriesCounter] == 0) {\n                revert();\n            }\n            //iterating through category to setup skills\n            for (uint category = 1; category != 0; category = category << 2) {\n                if (!_hasFlag(_categories[categoriesCounter], category)) {\n                    continue;\n                }\n                //check if category is full\n                if (_hasFlag(_categories[categoriesCounter], category << 1)) {\n                    if (OK != _evaluateCategory(_to, _rating[ratingCounter++], area, category)) {\n\t\t\t\t\t\trevert();\n\t\t\t\t\t}\n                    //exit when full category set\n                    continue;\n                }\n                //check that skill is not empty\n                if (_skills[skillsCounter] == 0) {\n                    revert();\n                }\n\n                if (OK != _evaluateSkill(_to, _rating[ratingCounter++], area, category, _skills[skillsCounter++])) {\n\t\t\t\t\trevert();\n\t\t\t\t}\n                // Move to next skill\n            }\n            // Move to next category set\n            categoriesCounter++;\n        }\n        return OK;\n    }\n\n    function emitUserRatingGiven(address _rater, address _to, uint _rating) public {\n        UserRatingGiven(_self(), _rater, _to, _rating);\n    }\n\n    function emitBoardRatingGiven(address _rater, uint _to, uint8 _rating) public {\n        BoardRatingGiven(_self(), _rater, _to, _rating);\n    }\n\n    function emitJobRatingGiven(address _rater, address _to, uint _jobId, uint8 _rating) public {\n        JobRatingGiven(_self(), _rater, _to, _rating, _jobId);\n    }\n\n    function emitSkillRatingGiven(address _rater, address _to, uint8 _rating, uint _area, uint _category, uint _skill, uint _jobId) public {\n        SkillRatingGiven(_self(), _rater, _to, _rating, _area, _category, _skill, _jobId);\n    }\n\n    function emitAreaEvaluated(address _rater, address _to, uint8 _rating, uint _area) public {\n        AreaEvaluated(_self(), _rater, _to, _rating, _area);\n    }\n\n    function emitCategoryEvaluated(address _rater, address _to, uint8 _rating, uint _area, uint _category) public {\n        CategoryEvaluated(_self(), _rater, _to, _rating, _area, _category);\n    }\n\n    function emitSkillEvaluated(address _rater, address _to, uint8 _rating, uint _area, uint _category, uint _skill) public {\n        SkillEvaluated(_self(), _rater, _to, _rating, _area, _category, _skill);\n    }\n\n    function _emitUserRatingGiven(address _rater, address _to, uint _rating) internal {\n        RatingsAndReputationLibrary(getEventsHistory()).emitUserRatingGiven(_rater, _to, _rating);\n    }\n\n    function _emitBoardRatingGiven(address _rater, uint _to, uint8 _rating) internal {\n        RatingsAndReputationLibrary(getEventsHistory()).emitBoardRatingGiven(_rater, _to, _rating);\n    }\n\n    function _emitJobRatingGiven(address _rater, address _to, uint _jobId, uint8 _rating) internal {\n        RatingsAndReputationLibrary(getEventsHistory()).emitJobRatingGiven(_rater, _to, _jobId, _rating);\n    }\n\n    function _emitSkillRatingGiven(address _rater, address _to, uint8 _rating, uint _area, uint _category, uint _skill, uint _jobId) internal {\n        RatingsAndReputationLibrary(getEventsHistory()).emitSkillRatingGiven(_rater, _to, _rating, _area, _category, _skill, _jobId);\n    }\n\n    function _emitAreaEvaluated(address _rater, address _to, uint8 _rating, uint _area) internal {\n        RatingsAndReputationLibrary(getEventsHistory()).emitAreaEvaluated(_rater, _to, _rating, _area);\n    }\n\n    function _emitCategoryEvaluated(address _rater, address _to, uint8 _rating, uint _area, uint _category) internal {\n        RatingsAndReputationLibrary(getEventsHistory()).emitCategoryEvaluated(_rater, _to, _rating, _area, _category);\n    }\n\n    function _emitSkillEvaluated(address _rater, address _to, uint8 _rating, uint _area, uint _category, uint _skill) internal {\n        RatingsAndReputationLibrary(getEventsHistory()).emitSkillEvaluated(_rater, _to, _rating, _area, _category, _skill);\n    }\n\n    // HELPERS\n    \n    function _validRating(uint8 _rating) internal pure returns (bool) {\n        return _rating > 0 && _rating <= 10;\n    }\n}\n",
  "sourcePath": "/Users/ahiatsevich/Development/chronobank/LX-SC/contracts/RatingsAndReputationLibrary.sol",
  "compiler": {
    "name": "solc",
    "version": "0.4.19+commit.c4cbbb05.Emscripten.clang"
  },
  "schemaVersion": "2.0.0",
  "updatedAt": "2018-05-22T13:02:26.195Z"
}