{
  "contractName": "Roles2Library",
  "abi": [
    {
      "constant": false,
      "inputs": [],
      "name": "claimContractOwnership",
      "outputs": [
        {
          "name": "",
          "type": "bool"
        }
      ],
      "payable": false,
      "stateMutability": "nonpayable",
      "type": "function"
    },
    {
      "constant": false,
      "inputs": [
        {
          "name": "_to",
          "type": "address"
        }
      ],
      "name": "changeContractOwnership",
      "outputs": [
        {
          "name": "",
          "type": "bool"
        }
      ],
      "payable": false,
      "stateMutability": "nonpayable",
      "type": "function"
    },
    {
      "constant": true,
      "inputs": [],
      "name": "pendingContractOwner",
      "outputs": [
        {
          "name": "",
          "type": "address"
        }
      ],
      "payable": false,
      "stateMutability": "view",
      "type": "function"
    },
    {
      "constant": false,
      "inputs": [
        {
          "name": "tokens",
          "type": "address[]"
        }
      ],
      "name": "withdrawTokens",
      "outputs": [],
      "payable": false,
      "stateMutability": "nonpayable",
      "type": "function"
    },
    {
      "constant": false,
      "inputs": [],
      "name": "withdrawEther",
      "outputs": [],
      "payable": false,
      "stateMutability": "nonpayable",
      "type": "function"
    },
    {
      "constant": false,
      "inputs": [
        {
          "name": "_errorCode",
          "type": "uint256"
        }
      ],
      "name": "emitErrorCode",
      "outputs": [],
      "payable": false,
      "stateMutability": "nonpayable",
      "type": "function"
    },
    {
      "constant": true,
      "inputs": [],
      "name": "contractOwner",
      "outputs": [
        {
          "name": "",
          "type": "address"
        }
      ],
      "payable": false,
      "stateMutability": "view",
      "type": "function"
    },
    {
      "constant": false,
      "inputs": [
        {
          "name": "_msg",
          "type": "bytes32"
        }
      ],
      "name": "emitError",
      "outputs": [],
      "payable": false,
      "stateMutability": "nonpayable",
      "type": "function"
    },
    {
      "constant": false,
      "inputs": [
        {
          "name": "newOwner",
          "type": "address"
        }
      ],
      "name": "transferOwnership",
      "outputs": [
        {
          "name": "",
          "type": "bool"
        }
      ],
      "payable": false,
      "stateMutability": "nonpayable",
      "type": "function"
    },
    {
      "constant": true,
      "inputs": [],
      "name": "getEventsHistory",
      "outputs": [
        {
          "name": "",
          "type": "address"
        }
      ],
      "payable": false,
      "stateMutability": "view",
      "type": "function"
    },
    {
      "inputs": [
        {
          "name": "_store",
          "type": "address"
        },
        {
          "name": "_crate",
          "type": "bytes32"
        }
      ],
      "payable": false,
      "stateMutability": "nonpayable",
      "type": "constructor"
    },
    {
      "payable": true,
      "stateMutability": "payable",
      "type": "fallback"
    },
    {
      "anonymous": false,
      "inputs": [
        {
          "indexed": true,
          "name": "self",
          "type": "address"
        },
        {
          "indexed": true,
          "name": "user",
          "type": "address"
        },
        {
          "indexed": true,
          "name": "role",
          "type": "uint8"
        }
      ],
      "name": "RoleAdded",
      "type": "event"
    },
    {
      "anonymous": false,
      "inputs": [
        {
          "indexed": true,
          "name": "self",
          "type": "address"
        },
        {
          "indexed": true,
          "name": "user",
          "type": "address"
        },
        {
          "indexed": true,
          "name": "role",
          "type": "uint8"
        }
      ],
      "name": "RoleRemoved",
      "type": "event"
    },
    {
      "anonymous": false,
      "inputs": [
        {
          "indexed": true,
          "name": "self",
          "type": "address"
        },
        {
          "indexed": true,
          "name": "code",
          "type": "address"
        },
        {
          "indexed": false,
          "name": "sig",
          "type": "bytes4"
        },
        {
          "indexed": true,
          "name": "role",
          "type": "uint8"
        }
      ],
      "name": "CapabilityAdded",
      "type": "event"
    },
    {
      "anonymous": false,
      "inputs": [
        {
          "indexed": true,
          "name": "self",
          "type": "address"
        },
        {
          "indexed": true,
          "name": "code",
          "type": "address"
        },
        {
          "indexed": false,
          "name": "sig",
          "type": "bytes4"
        },
        {
          "indexed": true,
          "name": "role",
          "type": "uint8"
        }
      ],
      "name": "CapabilityRemoved",
      "type": "event"
    },
    {
      "anonymous": false,
      "inputs": [
        {
          "indexed": true,
          "name": "self",
          "type": "address"
        },
        {
          "indexed": true,
          "name": "code",
          "type": "address"
        },
        {
          "indexed": false,
          "name": "sig",
          "type": "bytes4"
        }
      ],
      "name": "PublicCapabilityAdded",
      "type": "event"
    },
    {
      "anonymous": false,
      "inputs": [
        {
          "indexed": true,
          "name": "self",
          "type": "address"
        },
        {
          "indexed": true,
          "name": "code",
          "type": "address"
        },
        {
          "indexed": false,
          "name": "sig",
          "type": "bytes4"
        }
      ],
      "name": "PublicCapabilityRemoved",
      "type": "event"
    },
    {
      "anonymous": false,
      "inputs": [
        {
          "indexed": true,
          "name": "previousOwner",
          "type": "address"
        },
        {
          "indexed": true,
          "name": "newOwner",
          "type": "address"
        }
      ],
      "name": "OwnershipTransferred",
      "type": "event"
    },
    {
      "anonymous": false,
      "inputs": [
        {
          "indexed": true,
          "name": "self",
          "type": "address"
        },
        {
          "indexed": false,
          "name": "msg",
          "type": "bytes32"
        }
      ],
      "name": "Error",
      "type": "event"
    },
    {
      "anonymous": false,
      "inputs": [
        {
          "indexed": true,
          "name": "self",
          "type": "address"
        },
        {
          "indexed": false,
          "name": "errorCode",
          "type": "uint256"
        }
      ],
      "name": "ErrorCode",
      "type": "event"
    },
    {
      "constant": false,
      "inputs": [
        {
          "name": "_eventsHistory",
          "type": "address"
        }
      ],
      "name": "setupEventsHistory",
      "outputs": [
        {
          "name": "",
          "type": "uint256"
        }
      ],
      "payable": false,
      "stateMutability": "nonpayable",
      "type": "function"
    },
    {
      "constant": true,
      "inputs": [
        {
          "name": "_user",
          "type": "address"
        }
      ],
      "name": "getUserRoles",
      "outputs": [
        {
          "name": "",
          "type": "bytes32"
        }
      ],
      "payable": false,
      "stateMutability": "view",
      "type": "function"
    },
    {
      "constant": true,
      "inputs": [
        {
          "name": "_code",
          "type": "address"
        },
        {
          "name": "_sig",
          "type": "bytes4"
        }
      ],
      "name": "getCapabilityRoles",
      "outputs": [
        {
          "name": "",
          "type": "bytes32"
        }
      ],
      "payable": false,
      "stateMutability": "view",
      "type": "function"
    },
    {
      "constant": true,
      "inputs": [
        {
          "name": "_user",
          "type": "address"
        },
        {
          "name": "_code",
          "type": "address"
        },
        {
          "name": "_sig",
          "type": "bytes4"
        }
      ],
      "name": "canCall",
      "outputs": [
        {
          "name": "",
          "type": "bool"
        }
      ],
      "payable": false,
      "stateMutability": "view",
      "type": "function"
    },
    {
      "constant": true,
      "inputs": [
        {
          "name": "_input",
          "type": "bytes32"
        }
      ],
      "name": "bitNot",
      "outputs": [
        {
          "name": "",
          "type": "bytes32"
        }
      ],
      "payable": false,
      "stateMutability": "pure",
      "type": "function"
    },
    {
      "constant": false,
      "inputs": [
        {
          "name": "_user",
          "type": "address"
        },
        {
          "name": "_enabled",
          "type": "bool"
        }
      ],
      "name": "setRootUser",
      "outputs": [
        {
          "name": "",
          "type": "uint256"
        }
      ],
      "payable": false,
      "stateMutability": "nonpayable",
      "type": "function"
    },
    {
      "constant": false,
      "inputs": [
        {
          "name": "_user",
          "type": "address"
        },
        {
          "name": "_role",
          "type": "uint8"
        }
      ],
      "name": "addUserRole",
      "outputs": [
        {
          "name": "",
          "type": "uint256"
        }
      ],
      "payable": false,
      "stateMutability": "nonpayable",
      "type": "function"
    },
    {
      "constant": false,
      "inputs": [
        {
          "name": "_user",
          "type": "address"
        },
        {
          "name": "_role",
          "type": "uint8"
        }
      ],
      "name": "removeUserRole",
      "outputs": [
        {
          "name": "",
          "type": "uint256"
        }
      ],
      "payable": false,
      "stateMutability": "nonpayable",
      "type": "function"
    },
    {
      "constant": false,
      "inputs": [
        {
          "name": "_code",
          "type": "address"
        },
        {
          "name": "_sig",
          "type": "bytes4"
        },
        {
          "name": "_enabled",
          "type": "bool"
        }
      ],
      "name": "setPublicCapability",
      "outputs": [
        {
          "name": "",
          "type": "uint256"
        }
      ],
      "payable": false,
      "stateMutability": "nonpayable",
      "type": "function"
    },
    {
      "constant": false,
      "inputs": [
        {
          "name": "_role",
          "type": "uint8"
        },
        {
          "name": "_code",
          "type": "address"
        },
        {
          "name": "_sig",
          "type": "bytes4"
        }
      ],
      "name": "addRoleCapability",
      "outputs": [
        {
          "name": "",
          "type": "uint256"
        }
      ],
      "payable": false,
      "stateMutability": "nonpayable",
      "type": "function"
    },
    {
      "constant": false,
      "inputs": [
        {
          "name": "_role",
          "type": "uint8"
        },
        {
          "name": "_code",
          "type": "address"
        },
        {
          "name": "_sig",
          "type": "bytes4"
        }
      ],
      "name": "removeRoleCapability",
      "outputs": [
        {
          "name": "",
          "type": "uint256"
        }
      ],
      "payable": false,
      "stateMutability": "nonpayable",
      "type": "function"
    },
    {
      "constant": false,
      "inputs": [
        {
          "name": "_role",
          "type": "uint8"
        },
        {
          "name": "_code",
          "type": "address"
        },
        {
          "name": "_sig",
          "type": "bytes4"
        },
        {
          "name": "_enabled",
          "type": "bool"
        }
      ],
      "name": "_setRoleCapability",
      "outputs": [
        {
          "name": "",
          "type": "uint256"
        }
      ],
      "payable": false,
      "stateMutability": "nonpayable",
      "type": "function"
    },
    {
      "constant": true,
      "inputs": [
        {
          "name": "_user",
          "type": "address"
        }
      ],
      "name": "isUserRoot",
      "outputs": [
        {
          "name": "",
          "type": "bool"
        }
      ],
      "payable": false,
      "stateMutability": "view",
      "type": "function"
    },
    {
      "constant": true,
      "inputs": [
        {
          "name": "_code",
          "type": "address"
        },
        {
          "name": "_sig",
          "type": "bytes4"
        }
      ],
      "name": "isCapabilityPublic",
      "outputs": [
        {
          "name": "",
          "type": "bool"
        }
      ],
      "payable": false,
      "stateMutability": "view",
      "type": "function"
    },
    {
      "constant": true,
      "inputs": [
        {
          "name": "_user",
          "type": "address"
        },
        {
          "name": "_role",
          "type": "uint8"
        }
      ],
      "name": "hasUserRole",
      "outputs": [
        {
          "name": "",
          "type": "bool"
        }
      ],
      "payable": false,
      "stateMutability": "view",
      "type": "function"
    },
    {
      "constant": false,
      "inputs": [
        {
          "name": "_user",
          "type": "address"
        },
        {
          "name": "_role",
          "type": "uint8"
        }
      ],
      "name": "emitRoleAdded",
      "outputs": [],
      "payable": false,
      "stateMutability": "nonpayable",
      "type": "function"
    },
    {
      "constant": false,
      "inputs": [
        {
          "name": "_user",
          "type": "address"
        },
        {
          "name": "_role",
          "type": "uint8"
        }
      ],
      "name": "emitRoleRemoved",
      "outputs": [],
      "payable": false,
      "stateMutability": "nonpayable",
      "type": "function"
    },
    {
      "constant": false,
      "inputs": [
        {
          "name": "_code",
          "type": "address"
        },
        {
          "name": "_sig",
          "type": "bytes4"
        },
        {
          "name": "_role",
          "type": "uint8"
        }
      ],
      "name": "emitCapabilityAdded",
      "outputs": [],
      "payable": false,
      "stateMutability": "nonpayable",
      "type": "function"
    },
    {
      "constant": false,
      "inputs": [
        {
          "name": "_code",
          "type": "address"
        },
        {
          "name": "_sig",
          "type": "bytes4"
        },
        {
          "name": "_role",
          "type": "uint8"
        }
      ],
      "name": "emitCapabilityRemoved",
      "outputs": [],
      "payable": false,
      "stateMutability": "nonpayable",
      "type": "function"
    },
    {
      "constant": false,
      "inputs": [
        {
          "name": "_code",
          "type": "address"
        },
        {
          "name": "_sig",
          "type": "bytes4"
        }
      ],
      "name": "emitPublicCapabilityAdded",
      "outputs": [],
      "payable": false,
      "stateMutability": "nonpayable",
      "type": "function"
    },
    {
      "constant": false,
      "inputs": [
        {
          "name": "_code",
          "type": "address"
        },
        {
          "name": "_sig",
          "type": "bytes4"
        }
      ],
      "name": "emitPublicCapabilityRemoved",
      "outputs": [],
      "payable": false,
      "stateMutability": "nonpayable",
      "type": "function"
    }
  ],
  "bytecode": "0x606060405234156200001057600080fd5b6040516040806200186983398101604052808051919060200180519150829050816200004d60008383640100000000620015d26200015e82021704565b505060038054600160a060020a03191633600160a060020a0316179055620000a560057f726f6f7455736572730000000000000000000000000000000000000000000000640100000000620001848102620016051704565b620000e060067f75736572526f6c65730000000000000000000000000000000000000000000000640100000000620016056200018482021704565b6200011b60077f6361706162696c697479526f6c65730000000000000000000000000000000000640100000000620016056200018482021704565b6200015660087f7075626c69634361706162696c69746965730000000000000000000000000000640100000000620016056200018482021704565b5050620001da565b8254600160a060020a031916600160a060020a0392909216919091178255600190910155565b6200019e82826401000000006200162d620001a282021704565b5050565b8154620001be90826401000000006200163d620001c282021704565b9055565b81151580620001cf575080155b156200019e57600080fd5b61167f80620001ea6000396000f3006060604052600436106101705763ffffffff60e060020a600035041662a81ef6811461017557806302927d201461019c57806306a36aee146101cd5780630a7a2fef146101ec57806327538e901461021e5780632f47571f1461024a5780634592cd1d1461028a578063557f4bc91461029d578063588cff4c146102bc5780635aa77d3c146102e85780635ecb16cd146103175780637362377b146103665780637977f708146103795780638834277e146103ab57806395725d8a146103c15780639a75aa06146103e65780639ae0140c14610412578063a078f73714610444578063b24a542514610469578063b44f794f146104a0578063b7009613146104c5578063c6b0263e146104f7578063ce606ee014610528578063d0d9e21d1461053b578063d381ba7c1461056d578063e1e0929914610591578063e90459f8146105b6578063ecdb065b146105cc578063f2fde38b146105e2578063fbf8077314610601578063fff10aba14610620575b600080fd5b341561018057600080fd5b61019a600160a060020a036004351660ff60243516610633565b005b34156101a757600080fd5b6101bb600160a060020a0360043516610682565b60405190815260200160405180910390f35b34156101d857600080fd5b6101bb600160a060020a03600435166106c5565b34156101f757600080fd5b61019a600160a060020a0360043516600160e060020a03196024351660ff604435166106df565b341561022957600080fd5b6101bb600160a060020a0360043516600160e060020a031960243516610741565b341561025557600080fd5b610276600160a060020a0360043516600160e060020a03196024351661075d565b604051901515815260200160405180910390f35b341561029557600080fd5b610276610772565b34156102a857600080fd5b610276600160a060020a036004351661080b565b34156102c757600080fd5b61019a600160a060020a0360043516600160e060020a03196024351661086f565b34156102f357600080fd5b6102fb6108cc565b604051600160a060020a03909116815260200160405180910390f35b341561032257600080fd5b61019a60046024813581810190830135806020818102016040519081016040528093929190818152602001838360200280828437509496506108db95505050505050565b341561037157600080fd5b61019a610a08565b341561038457600080fd5b6101bb60ff60043516600160a060020a0360243516600160e060020a031960443516610a6b565b34156103b657600080fd5b61019a600435610a9a565b34156103cc57600080fd5b61019a600160a060020a036004351660ff60243516610ae1565b34156103f157600080fd5b61019a600160a060020a0360043516600160e060020a031960243516610b30565b341561041d57600080fd5b6101bb60ff60043516600160a060020a0360243516600160e060020a031960443516610b8d565b341561044f57600080fd5b610276600160a060020a036004351660ff60243516610bd6565b341561047457600080fd5b6101bb60ff60043516600160a060020a0360243516600160e060020a0319604435166064351515610bf4565b34156104ab57600080fd5b6101bb600160a060020a036004351660ff60243516610c78565b34156104d057600080fd5b610276600160a060020a0360043581169060243516600160e060020a031960443516610ce6565b341561050257600080fd5b6101bb600160a060020a0360043516600160e060020a0319602435166044351515610d2c565b341561053357600080fd5b6102fb610d84565b341561054657600080fd5b61019a600160a060020a0360043516600160e060020a03196024351660ff60443516610d93565b341561057857600080fd5b6101bb600160a060020a03600435166024351515610df5565b341561059c57600080fd5b6101bb600160a060020a036004351660ff60243516610e2c565b34156105c157600080fd5b61019a600435610e92565b34156105d757600080fd5b6101bb600435610ed9565b34156105ed57600080fd5b610276600160a060020a0360043516610ee0565b341561060c57600080fd5b610276600160a060020a0360043516610f80565b341561062b57600080fd5b6102fb610f94565b8060ff1682600160a060020a0316610649610fa3565b600160a060020a03167f7577662ae5b32920f85a4b61fb99f5f5b9fd3f8e937ac15fe8b8a0a19e90fa0f60405160405180910390a45050565b60035460009033600160a060020a03908116911614156106c057600160a060020a03821615156106b157600080fd5b6106ba82610fa7565b50600190505b919050565b60006106d98160068463ffffffff610fd816565b92915050565b8060ff1683600160a060020a03166106f5610fa3565b600160a060020a03167ff820011dd31265ef4cfb8740f75367415191173d0f08b32fb5401d2a0dc1847b85604051600160e060020a0319909116815260200160405180910390a4505050565b6000610756816007858563ffffffff610fee16565b9392505050565b6000610756816008858563ffffffff61101816565b60045460009033600160a060020a0390811691161461079357506000610808565b600454600354600160a060020a0391821691167f8be0079c531659141344cd1fd0a4f28419497f9722a3daafe3b4186f6b6457e060405160405180910390a350600480546003805473ffffffffffffffffffffffffffffffffffffffff19908116600160a060020a0384161790915516905560015b90565b60035460009033600160a060020a03908116911614156106c057600160a060020a038216151561083d575060006106c0565b5060048054600160a060020a03831673ffffffffffffffffffffffffffffffffffffffff199091161790556001919050565b81600160a060020a0316610881610fa3565b600160a060020a03167fe74cc03efe60f26af9bb6b27883577bbbd981555b1a070b15aace44960d0ef1f83604051600160e060020a0319909116815260200160405180910390a35050565b600454600160a060020a031681565b6003546000908190819033600160a060020a0390811691161415610a0257600092505b8351831015610a025783838151811061091357fe5b90602001906020020151915081600160a060020a03166370a082313060405160e060020a63ffffffff8416028152600160a060020a039091166004820152602401602060405180830381600087803b151561096d57600080fd5b5af1151561097a57600080fd5b505050604051805191505080156109f75781600160a060020a031663a9059cbb338360405160e060020a63ffffffff8516028152600160a060020a0390921660048301526024820152604401602060405180830381600087803b15156109df57600080fd5b5af115156109ec57600080fd5b505050604051805150505b6001909201916108fe565b50505050565b60035460009033600160a060020a0390811691161415610a685750600160a060020a033016316000811115610a6857600160a060020a03331681156108fc0282604051600060405180830381858888f193505050501515610a6857600080fd5b50565b60035460009033600160a060020a039081169116141561075657610a928484846001610bf4565b949350505050565b610aa2610fa3565b600160a060020a03167f09e0713b45664e161c202b19bb4574ee83dfa056f9bfdee56847b3971d9682218260405190815260200160405180910390a250565b8060ff1682600160a060020a0316610af7610fa3565b600160a060020a03167faefc6303247f6e535a84463aeb8ae70719e1d40a8d6800dc8efa455b1e1fb33f60405160405180910390a45050565b81600160a060020a0316610b42610fa3565b600160a060020a03167f67813b7923deedd38ecb1624185361da00646f2a5066850b99e5fddcec1708b483604051600160e060020a0319909116815260200160405180910390a35050565b60035460009033600160a060020a039081169116141561075657610bb18383610741565b1515610bc957610bc2614e23611041565b9050610756565b610a928484846000610bf4565b6000610be1826110a6565b610bea846106c5565b1615159392505050565b6000806000610c038686610741565b9150610c0e876110a6565b90508315610c3d57610c2d60006007888886861763ffffffff6110af16565b610c388686896110d6565b610c6b565b610c6060078787610c4d85610ed9565b600093929190871663ffffffff6110af16565b610c6b86868961115b565b5060019695505050505050565b60035460009033600160a060020a03908116911614801590610cae5750610cac3330600035600160e060020a031916610ce6565b155b15610cb8576106d9565b610cc28383610bd6565b1515610cda57610cd3614e23611041565b90506106d9565b610756838360006111cb565b6000610cf184610f80565b80610d015750610d01838361075d565b15610d0e57506001610756565b610d188383610741565b610d21856106c5565b161515949350505050565b60035460009033600160a060020a039081169116141561075657610d5b6000600886868663ffffffff61124e16565b8115610d7057610d6b8484611276565b610d7a565b610d7a84846112e8565b5060019392505050565b600354600160a060020a031681565b8060ff1683600160a060020a0316610da9610fa3565b600160a060020a03167facf87e9240a04c36449fb09028711a68d4e3a4df32931c5df0dfc54acae5202385604051600160e060020a0319909116815260200160405180910390a4505050565b60035460009033600160a060020a03908116911614156106d957610e2360006005858563ffffffff61134d16565b50600192915050565b60035460009033600160a060020a03908116911614801590610e625750610e603330600035600160e060020a031916610ce6565b155b15610e6c576106d9565b610e768383610bd6565b15610e8657610cd3614e21611041565b610756838360016111cb565b610e9a610fa3565b600160a060020a03167fbb8f0c1d8804cd86e7873ec11cb00af945c8c0ebd061a68b28617034803464158260405190815260200160405180910390a250565b6000191890565b60035460009033600160a060020a03908116911614156106c057600160a060020a0382161515610f12575060006106c0565b600354600160a060020a0380841691167f8be0079c531659141344cd1fd0a4f28419497f9722a3daafe3b4186f6b6457e060405160405180910390a35060038054600160a060020a03831673ffffffffffffffffffffffffffffffffffffffff199091161790556001919050565b60006106d98160058463ffffffff61136a16565b600254600160a060020a031690565b3390565b60028054600160a060020a03831673ffffffffffffffffffffffffffffffffffffffff199091161790556001919050565b6000610a928484600160a060020a03851661137f565b600061100f8585600160a060020a038616600160e060020a0319861661140c565b95945050505050565b600061100f61103c8686600160a060020a038716600160e060020a0319871661140c565b611431565b600061104b610f94565b600160a060020a0316638834277e8360405160e060020a63ffffffff84160281526004810191909152602401600060405180830381600087803b151561109057600080fd5b5af1151561109d57600080fd5b50929392505050565b60ff1660020a90565b6110cf8585600160a060020a038616600160e060020a0319861685611436565b5050505050565b6110de610f94565b600160a060020a031663d0d9e21d84848460405160e060020a63ffffffff8616028152600160a060020a039093166004840152600160e060020a0319909116602483015260ff166044820152606401600060405180830381600087803b151561114657600080fd5b5af1151561115357600080fd5b505050505050565b611163610f94565b600160a060020a0316630a7a2fef84848460405160e060020a63ffffffff8616028152600160a060020a039093166004840152600160e060020a0319909116602483015260ff166044820152606401600060405180830381600087803b151561114657600080fd5b60008060006111d9866106c5565b91506111e4856110a6565b9050831561121557611202600060068885851763ffffffff61145a16565b61120c868661146f565b60019250611245565b61123660068761122484610ed9565b6000929190861663ffffffff61145a16565b61124086866114cd565b600192505b50509392505050565b6110cf8585600160a060020a038616600160e060020a031986166112718661152a565b611436565b61127e610f94565b600160a060020a0316639a75aa06838360405160e060020a63ffffffff8516028152600160a060020a039092166004830152600160e060020a0319166024820152604401600060405180830381600087803b15156112db57600080fd5b5af115156110cf57600080fd5b6112f0610f94565b600160a060020a031663588cff4c838360405160e060020a63ffffffff8516028152600160a060020a039092166004830152600160e060020a0319166024820152604401600060405180830381600087803b15156112db57600080fd5b610a028484600160a060020a0385166113658561152a565b611544565b6000610a9261103c8585600160a060020a0386165b825460018401548354600092600160a060020a0316916337d9d7fc9185604051918252602082015260409081019051809103902060405160e060020a63ffffffff851602815260048101929092526024820152604401602060405180830381600087803b15156113ee57600080fd5b5af115156113fb57600080fd5b505050604051805195945050505050565b600061100f85858585604051918252602082015260409081019051809103902061137f565b151590565b6110cf85858585604051918252602082015260409081019051809103902084611544565b610a028484600160a060020a03851684611544565b611477610f94565b600160a060020a03166395725d8a838360405160e060020a63ffffffff8516028152600160a060020a03909216600483015260ff166024820152604401600060405180830381600087803b15156112db57600080fd5b6114d5610f94565b600160a060020a031662a81ef6838360405160e060020a63ffffffff8516028152600160a060020a03909216600483015260ff166024820152604401600060405180830381600087803b15156112db57600080fd5b60008161153857600061153b565b60015b60ff1692915050565b835460018501548454600160a060020a039092169163a14ff85791908560405191825260208201526040908101905180910390208460405160e060020a63ffffffff8616028152600481019390935260248301919091526044820152606401600060405180830381600087803b15156115bc57600080fd5b5af115156115c957600080fd5b50505050505050565b825473ffffffffffffffffffffffffffffffffffffffff1916600160a060020a0392909216919091178255600190910155565b61160f828261162d565b5050565b61160f828261162d565b61160f828261162d565b61160f82825b8154611639908261163d565b9055565b81151580611649575080155b1561160f57600080fd00a165627a7a723058204010cdf9a415bd7dd12b4c9b06168d6c488511ce06b9a0239894c57352d61eae0029",
  "source": "/**\n * Copyright 20172018, LaborX PTY\n * Licensed under the AGPL Version 3 license.\n */\n\npragma solidity ^0.4.21;\n\n\nimport \"solidity-storage-lib/contracts/StorageAdapter.sol\";\nimport \"solidity-shared-lib/contracts/Owned.sol\";\nimport \"./adapters/MultiEventsHistoryAdapter.sol\";\n\n\ncontract Roles2Library is StorageAdapter, MultiEventsHistoryAdapter, Owned {\n\n    uint constant OK = 1;\n\n    uint constant ROLES_SCOPE = 20000;\n    uint constant ROLES_ALREADY_EXISTS = ROLES_SCOPE + 1;\n    uint constant ROLES_INVALID_INVOCATION = ROLES_SCOPE + 2;\n    uint constant ROLES_NOT_FOUND = ROLES_SCOPE + 3;\n\n    event RoleAdded(address indexed self, address indexed user, uint8 indexed role);\n    event RoleRemoved(address indexed self, address indexed user, uint8 indexed role);\n    event CapabilityAdded(address indexed self, address indexed code, bytes4 sig, uint8 indexed role);\n    event CapabilityRemoved(address indexed self, address indexed code, bytes4 sig, uint8 indexed role);\n    event PublicCapabilityAdded(address indexed self, address indexed code, bytes4 sig);\n    event PublicCapabilityRemoved(address indexed self, address indexed code, bytes4 sig);\n\n    StorageInterface.AddressBoolMapping rootUsers;\n    StorageInterface.AddressBytes32Mapping userRoles;\n    StorageInterface.AddressBytes4Bytes32Mapping capabilityRoles;\n    StorageInterface.AddressBytes4BoolMapping publicCapabilities;\n\n    modifier authorized {\n        if (msg.sender != contractOwner && !canCall(msg.sender, this, msg.sig)) {\n            return;\n        }\n        _;\n    }\n\n    function Roles2Library(Storage _store, bytes32 _crate) StorageAdapter(_store, _crate) public {\n        rootUsers.init('rootUsers');\n        userRoles.init('userRoles');\n        capabilityRoles.init('capabilityRoles');\n        publicCapabilities.init('publicCapabilities');\n    }\n\n    function setupEventsHistory(address _eventsHistory) onlyContractOwner external returns (uint) {\n        require(_eventsHistory != 0x0);\n\n        _setEventsHistory(_eventsHistory);\n        return OK;\n    }\n\n    function getUserRoles(address _user) public view returns (bytes32) {\n        return store.get(userRoles, _user);\n    }\n\n    function getCapabilityRoles(address _code, bytes4 _sig) public view returns (bytes32) {\n        return store.get(capabilityRoles, _code, _sig);\n    }\n\n    function canCall(address _user, address _code, bytes4 _sig) public view returns (bool) {\n        if (isUserRoot(_user) || isCapabilityPublic(_code, _sig)) {\n            return true;\n        }\n        return bytes32(0) != getUserRoles(_user) & getCapabilityRoles(_code, _sig);\n    }\n\n    function bitNot(bytes32 _input) public pure returns (bytes32) {\n        return (_input ^ bytes32(uint(-1)));\n    }\n\n    function setRootUser(address _user, bool _enabled) onlyContractOwner external returns (uint) {\n        store.set(rootUsers, _user, _enabled);\n        return OK;\n    }\n\n    function addUserRole(address _user, uint8 _role) authorized external returns (uint) {\n        if (hasUserRole(_user, _role)) {\n            return _emitErrorCode(ROLES_ALREADY_EXISTS);\n        }\n\n        return _setUserRole(_user, _role, true);\n    }\n\n    function removeUserRole(address _user, uint8 _role) authorized external returns (uint) {\n        if (!hasUserRole(_user, _role)) {\n            return _emitErrorCode(ROLES_NOT_FOUND);\n        }\n\n        return _setUserRole(_user, _role, false);\n    }\n\n    function _setUserRole(address _user, uint8 _role, bool _enabled) internal returns (uint) {\n        bytes32 lastRoles = getUserRoles(_user);\n        bytes32 shifted = _shift(_role);\n        \n        if (_enabled) {\n            store.set(userRoles, _user, lastRoles | shifted);\n            _emitRoleAdded(_user, _role);\n            return OK;\n        }\n    \n        store.set(userRoles, _user, lastRoles & bitNot(shifted));\n        _emitRoleRemoved(_user, _role);\n        return OK;\n    }\n\n    function setPublicCapability(address _code, bytes4 _sig, bool _enabled) onlyContractOwner external returns (uint) {\n        store.set(publicCapabilities, _code, _sig, _enabled);\n        \n        if (_enabled) {\n            _emitPublicCapabilityAdded(_code, _sig);\n        } else {\n            _emitPublicCapabilityRemoved(_code, _sig);\n        }\n        return OK;\n    }\n\n    function addRoleCapability(uint8 _role, address _code, bytes4 _sig) onlyContractOwner public returns (uint) {\n        return _setRoleCapability(_role, _code, _sig, true);\n    }\n\n    function removeRoleCapability(uint8 _role, address _code, bytes4 _sig) onlyContractOwner public returns (uint) {\n        if (getCapabilityRoles(_code, _sig) == 0) {\n            return _emitErrorCode(ROLES_NOT_FOUND);\n        }\n\n        return _setRoleCapability(_role, _code, _sig, false);\n    }\n\n    function _setRoleCapability(uint8 _role, address _code, bytes4 _sig, bool _enabled) public returns (uint) {\n        bytes32 lastRoles = getCapabilityRoles(_code, _sig);\n        bytes32 shifted = _shift(_role);\n\n        if (_enabled) {\n            store.set(capabilityRoles, _code, _sig, lastRoles | shifted);\n            _emitCapabilityAdded(_code, _sig, _role);\n        } else {\n            store.set(capabilityRoles, _code, _sig, lastRoles & bitNot(shifted));\n            _emitCapabilityRemoved(_code, _sig, _role);\n        }\n\n        return OK;\n    }\n\n    function isUserRoot(address _user) public view returns (bool) {\n        return store.get(rootUsers, _user);\n    }\n\n    function isCapabilityPublic(address _code, bytes4 _sig) public view returns (bool) {\n        return store.get(publicCapabilities, _code, _sig);\n    }\n\n    function hasUserRole(address _user, uint8 _role) public view returns (bool) {\n        return bytes32(0) != getUserRoles(_user) & _shift(_role);\n    }\n\n    function _shift(uint8 _role) pure internal returns (bytes32) {\n        return bytes32(uint(uint(2) ** uint(_role)));\n    }\n\n    function _emitRoleAdded(address _user, uint8 _role) internal {\n        Roles2Library(getEventsHistory()).emitRoleAdded(_user, _role);\n    }\n\n    function _emitRoleRemoved(address _user, uint8 _role) internal {\n        Roles2Library(getEventsHistory()).emitRoleRemoved(_user, _role);\n    }\n\n    function _emitCapabilityAdded(address _code, bytes4 _sig, uint8 _role) internal {\n        Roles2Library(getEventsHistory()).emitCapabilityAdded(_code, _sig, _role);\n    }\n\n    function _emitCapabilityRemoved(address _code, bytes4 _sig, uint8 _role) internal {\n        Roles2Library(getEventsHistory()).emitCapabilityRemoved(_code, _sig, _role);\n    }\n\n    function _emitPublicCapabilityAdded(address _code, bytes4 _sig) internal {\n        Roles2Library(getEventsHistory()).emitPublicCapabilityAdded(_code, _sig);\n    }\n\n    function _emitPublicCapabilityRemoved(address _code, bytes4 _sig) internal {\n        Roles2Library(getEventsHistory()).emitPublicCapabilityRemoved(_code, _sig);\n    }\n\n    function emitRoleAdded(address _user, uint8 _role) public {\n        emit RoleAdded(_self(), _user, _role);\n    }\n\n    function emitRoleRemoved(address _user, uint8 _role) public {\n        emit RoleRemoved(_self(), _user, _role);\n    }\n\n    function emitCapabilityAdded(address _code, bytes4 _sig, uint8 _role) public {\n        emit CapabilityAdded(_self(), _code, _sig, _role);\n    }\n\n    function emitCapabilityRemoved(address _code, bytes4 _sig, uint8 _role) public {\n        emit CapabilityRemoved(_self(), _code, _sig, _role);\n    }\n\n    function emitPublicCapabilityAdded(address _code, bytes4 _sig) public {\n        emit PublicCapabilityAdded(_self(), _code, _sig);\n    }\n\n    function emitPublicCapabilityRemoved(address _code, bytes4 _sig) public {\n        emit PublicCapabilityRemoved(_self(), _code, _sig);\n    }\n}\n",
  "sourcePath": "/Users/alesanro/Documents/Projects/ChronoBank/LX-SC/contracts/Roles2Library.sol",
  "compiler": {
    "name": "solc",
    "version": "0.4.21+commit.dfe3193c.Emscripten.clang"
  },
  "schemaVersion": "2.0.0",
  "updatedAt": "2018-06-20T11:53:40.485Z"
}