{
  "contractName": "Roles2LibraryAndERC20LibraryAdapter",
  "abi": [
    {
      "constant": false,
      "inputs": [
        {
          "name": "_roles2Library",
          "type": "address"
        }
      ],
      "name": "setRoles2Library",
      "outputs": [
        {
          "name": "",
          "type": "uint256"
        }
      ],
      "payable": false,
      "stateMutability": "nonpayable",
      "type": "function"
    },
    {
      "constant": false,
      "inputs": [
        {
          "name": "_erc20Library",
          "type": "address"
        }
      ],
      "name": "setERC20Library",
      "outputs": [
        {
          "name": "",
          "type": "uint256"
        }
      ],
      "payable": false,
      "stateMutability": "nonpayable",
      "type": "function"
    },
    {
      "inputs": [
        {
          "name": "_roles2Library",
          "type": "address"
        },
        {
          "name": "_erc20Library",
          "type": "address"
        }
      ],
      "payable": false,
      "stateMutability": "nonpayable",
      "type": "constructor"
    },
    {
      "anonymous": false,
      "inputs": [
        {
          "indexed": false,
          "name": "code",
          "type": "address"
        },
        {
          "indexed": false,
          "name": "sender",
          "type": "address"
        },
        {
          "indexed": false,
          "name": "sig",
          "type": "bytes4"
        }
      ],
      "name": "AuthFailedError",
      "type": "event"
    }
  ],
  "bytecode": "0x6060604052341561000f57600080fd5b6040516040806103a4833981016040528080519190602001805160008054600160a060020a03958616600160a060020a0319918216179091556001805495909216941693909317909255505061033a8061006a6000396000f30060606040526004361061004b5763ffffffff7c01000000000000000000000000000000000000000000000000000000006000350416632637cd7d811461005057806345584c9014610081575b600080fd5b341561005b57600080fd5b61006f600160a060020a03600435166100a0565b60405190815260200160405180910390f35b341561008c57600080fd5b61006f600160a060020a036004351661015e565b60006100b833600035600160e060020a03191661021b565b151561012d577f5133a133185f1023427a2e90f18506b27db994977ce0c0faafd514a7dd109ae03033600035600160e060020a031916604051600160a060020a039384168152919092166020820152600160e060020a03199091166040808301919091526060909101905180910390a1610159565b506000805473ffffffffffffffffffffffffffffffffffffffff1916600160a060020a03831617905560015b919050565b600061017633600035600160e060020a03191661021b565b15156101eb577f5133a133185f1023427a2e90f18506b27db994977ce0c0faafd514a7dd109ae03033600035600160e060020a031916604051600160a060020a039384168152919092166020820152600160e060020a03199091166040808301919091526060909101905180910390a1610159565b5060018054600160a060020a03831673ffffffffffffffffffffffffffffffffffffffff19909116178155919050565b600030600160a060020a031683600160a060020a0316141561023f57506001610308565b600054600160a060020a0316151561025957506000610308565b60008054600160a060020a03169063b700961390859030908690604051602001526040517c010000000000000000000000000000000000000000000000000000000063ffffffff8616028152600160a060020a039384166004820152919092166024820152600160e060020a03199091166044820152606401602060405180830381600087803b15156102eb57600080fd5b6102c65a03f115156102fc57600080fd5b50505060405180519150505b929150505600a165627a7a723058201968e8faf56a776298ea2ddc21e6c80e2b73a604e8a6a8c2f6ed8708df34442b0029",
  "source": "/**\n * Copyright 2017–2018, LaborX PTY\n * Licensed under the AGPL Version 3 license.\n */\n\npragma solidity ^0.4.18;\n\n\nimport './Roles2LibraryAdapter.sol';\n\n\ncontract ERC20LibraryInterface {\n    function includes(address _contract) public view returns(bool);\n}\n\n\ncontract Roles2LibraryAndERC20LibraryAdapter is Roles2LibraryAdapter {\n\n    ERC20LibraryInterface erc20Library;\n\n    uint constant ROLES_2_LIBRARY_AND_ERC20_LIBRARY_ADAPTER_SCOPE = 14000;\n    uint constant ROLES_2_LIBRARY_AND_ERC20_LIBRARY_ADAPTER_UNSUPPORTED_CONTRACT = ROLES_2_LIBRARY_AND_ERC20_LIBRARY_ADAPTER_SCOPE + 1;\n\n    modifier onlySupportedContract(address _contract) {\n        if (!erc20Library.includes(_contract)) {\n            assembly {\n                mstore(0, 14001) // ROLES_2_LIBRARY_AND_ERC20_LIBRARY_ADAPTER_UNSUPPORTED_CONTRACT\n                return(0, 32)\n            }\n        }\n        _;\n    }\n\n    function Roles2LibraryAndERC20LibraryAdapter(\n        address _roles2Library,\n        address _erc20Library\n    )\n    Roles2LibraryAdapter(_roles2Library)\n    public\n    {\n        erc20Library = ERC20LibraryInterface(_erc20Library);\n    }\n\n    function setERC20Library(ERC20LibraryInterface _erc20Library) public auth returns (uint) {\n        erc20Library = _erc20Library;\n        return OK;\n    }\n\n}\n",
  "sourcePath": "/Users/ahiatsevich/Development/chronobank/LX-SC/contracts/adapters/Roles2LibraryAndERC20LibraryAdapter.sol",
  "compiler": {
    "name": "solc",
    "version": "0.4.19+commit.c4cbbb05.Emscripten.clang"
  },
  "schemaVersion": "2.0.0",
  "updatedAt": "2018-05-10T14:25:44.354Z"
}