{
  "contractName": "Roles2Library",
  "abi": [
    {
      "constant": false,
      "inputs": [],
      "name": "claimContractOwnership",
      "outputs": [
        {
          "name": "",
          "type": "bool"
        }
      ],
      "payable": false,
      "stateMutability": "nonpayable",
      "type": "function"
    },
    {
      "constant": false,
      "inputs": [
        {
          "name": "_to",
          "type": "address"
        }
      ],
      "name": "changeContractOwnership",
      "outputs": [
        {
          "name": "",
          "type": "bool"
        }
      ],
      "payable": false,
      "stateMutability": "nonpayable",
      "type": "function"
    },
    {
      "constant": true,
      "inputs": [],
      "name": "pendingContractOwner",
      "outputs": [
        {
          "name": "",
          "type": "address"
        }
      ],
      "payable": false,
      "stateMutability": "view",
      "type": "function"
    },
    {
      "constant": false,
      "inputs": [
        {
          "name": "tokens",
          "type": "address[]"
        }
      ],
      "name": "withdrawTokens",
      "outputs": [],
      "payable": false,
      "stateMutability": "nonpayable",
      "type": "function"
    },
    {
      "constant": false,
      "inputs": [],
      "name": "withdrawEther",
      "outputs": [],
      "payable": false,
      "stateMutability": "nonpayable",
      "type": "function"
    },
    {
      "constant": false,
      "inputs": [
        {
          "name": "_errorCode",
          "type": "uint256"
        }
      ],
      "name": "emitErrorCode",
      "outputs": [],
      "payable": false,
      "stateMutability": "nonpayable",
      "type": "function"
    },
    {
      "constant": true,
      "inputs": [],
      "name": "contractOwner",
      "outputs": [
        {
          "name": "",
          "type": "address"
        }
      ],
      "payable": false,
      "stateMutability": "view",
      "type": "function"
    },
    {
      "constant": false,
      "inputs": [
        {
          "name": "_msg",
          "type": "bytes32"
        }
      ],
      "name": "emitError",
      "outputs": [],
      "payable": false,
      "stateMutability": "nonpayable",
      "type": "function"
    },
    {
      "constant": true,
      "inputs": [],
      "name": "getEventsHistory",
      "outputs": [
        {
          "name": "",
          "type": "address"
        }
      ],
      "payable": false,
      "stateMutability": "view",
      "type": "function"
    },
    {
      "inputs": [
        {
          "name": "_store",
          "type": "address"
        },
        {
          "name": "_crate",
          "type": "bytes32"
        }
      ],
      "payable": false,
      "stateMutability": "nonpayable",
      "type": "constructor"
    },
    {
      "anonymous": false,
      "inputs": [
        {
          "indexed": true,
          "name": "self",
          "type": "address"
        },
        {
          "indexed": true,
          "name": "user",
          "type": "address"
        },
        {
          "indexed": true,
          "name": "role",
          "type": "uint8"
        }
      ],
      "name": "RoleAdded",
      "type": "event"
    },
    {
      "anonymous": false,
      "inputs": [
        {
          "indexed": true,
          "name": "self",
          "type": "address"
        },
        {
          "indexed": true,
          "name": "user",
          "type": "address"
        },
        {
          "indexed": true,
          "name": "role",
          "type": "uint8"
        }
      ],
      "name": "RoleRemoved",
      "type": "event"
    },
    {
      "anonymous": false,
      "inputs": [
        {
          "indexed": true,
          "name": "self",
          "type": "address"
        },
        {
          "indexed": true,
          "name": "code",
          "type": "address"
        },
        {
          "indexed": false,
          "name": "sig",
          "type": "bytes4"
        },
        {
          "indexed": true,
          "name": "role",
          "type": "uint8"
        }
      ],
      "name": "CapabilityAdded",
      "type": "event"
    },
    {
      "anonymous": false,
      "inputs": [
        {
          "indexed": true,
          "name": "self",
          "type": "address"
        },
        {
          "indexed": true,
          "name": "code",
          "type": "address"
        },
        {
          "indexed": false,
          "name": "sig",
          "type": "bytes4"
        },
        {
          "indexed": true,
          "name": "role",
          "type": "uint8"
        }
      ],
      "name": "CapabilityRemoved",
      "type": "event"
    },
    {
      "anonymous": false,
      "inputs": [
        {
          "indexed": true,
          "name": "self",
          "type": "address"
        },
        {
          "indexed": true,
          "name": "code",
          "type": "address"
        },
        {
          "indexed": false,
          "name": "sig",
          "type": "bytes4"
        }
      ],
      "name": "PublicCapabilityAdded",
      "type": "event"
    },
    {
      "anonymous": false,
      "inputs": [
        {
          "indexed": true,
          "name": "self",
          "type": "address"
        },
        {
          "indexed": true,
          "name": "code",
          "type": "address"
        },
        {
          "indexed": false,
          "name": "sig",
          "type": "bytes4"
        }
      ],
      "name": "PublicCapabilityRemoved",
      "type": "event"
    },
    {
      "anonymous": false,
      "inputs": [
        {
          "indexed": true,
          "name": "self",
          "type": "address"
        },
        {
          "indexed": false,
          "name": "msg",
          "type": "bytes32"
        }
      ],
      "name": "Error",
      "type": "event"
    },
    {
      "anonymous": false,
      "inputs": [
        {
          "indexed": true,
          "name": "self",
          "type": "address"
        },
        {
          "indexed": false,
          "name": "errorCode",
          "type": "uint256"
        }
      ],
      "name": "ErrorCode",
      "type": "event"
    },
    {
      "constant": false,
      "inputs": [
        {
          "name": "_eventsHistory",
          "type": "address"
        }
      ],
      "name": "setupEventsHistory",
      "outputs": [
        {
          "name": "",
          "type": "uint256"
        }
      ],
      "payable": false,
      "stateMutability": "nonpayable",
      "type": "function"
    },
    {
      "constant": true,
      "inputs": [
        {
          "name": "_user",
          "type": "address"
        }
      ],
      "name": "getUserRoles",
      "outputs": [
        {
          "name": "",
          "type": "bytes32"
        }
      ],
      "payable": false,
      "stateMutability": "view",
      "type": "function"
    },
    {
      "constant": true,
      "inputs": [
        {
          "name": "_code",
          "type": "address"
        },
        {
          "name": "_sig",
          "type": "bytes4"
        }
      ],
      "name": "getCapabilityRoles",
      "outputs": [
        {
          "name": "",
          "type": "bytes32"
        }
      ],
      "payable": false,
      "stateMutability": "view",
      "type": "function"
    },
    {
      "constant": true,
      "inputs": [
        {
          "name": "_user",
          "type": "address"
        },
        {
          "name": "_code",
          "type": "address"
        },
        {
          "name": "_sig",
          "type": "bytes4"
        }
      ],
      "name": "canCall",
      "outputs": [
        {
          "name": "",
          "type": "bool"
        }
      ],
      "payable": false,
      "stateMutability": "view",
      "type": "function"
    },
    {
      "constant": true,
      "inputs": [
        {
          "name": "_input",
          "type": "bytes32"
        }
      ],
      "name": "bitNot",
      "outputs": [
        {
          "name": "",
          "type": "bytes32"
        }
      ],
      "payable": false,
      "stateMutability": "pure",
      "type": "function"
    },
    {
      "constant": false,
      "inputs": [
        {
          "name": "_user",
          "type": "address"
        },
        {
          "name": "_enabled",
          "type": "bool"
        }
      ],
      "name": "setRootUser",
      "outputs": [
        {
          "name": "",
          "type": "uint256"
        }
      ],
      "payable": false,
      "stateMutability": "nonpayable",
      "type": "function"
    },
    {
      "constant": false,
      "inputs": [
        {
          "name": "_user",
          "type": "address"
        },
        {
          "name": "_role",
          "type": "uint8"
        }
      ],
      "name": "addUserRole",
      "outputs": [
        {
          "name": "",
          "type": "uint256"
        }
      ],
      "payable": false,
      "stateMutability": "nonpayable",
      "type": "function"
    },
    {
      "constant": false,
      "inputs": [
        {
          "name": "_user",
          "type": "address"
        },
        {
          "name": "_role",
          "type": "uint8"
        }
      ],
      "name": "removeUserRole",
      "outputs": [
        {
          "name": "",
          "type": "uint256"
        }
      ],
      "payable": false,
      "stateMutability": "nonpayable",
      "type": "function"
    },
    {
      "constant": false,
      "inputs": [
        {
          "name": "_code",
          "type": "address"
        },
        {
          "name": "_sig",
          "type": "bytes4"
        },
        {
          "name": "_enabled",
          "type": "bool"
        }
      ],
      "name": "setPublicCapability",
      "outputs": [
        {
          "name": "",
          "type": "uint256"
        }
      ],
      "payable": false,
      "stateMutability": "nonpayable",
      "type": "function"
    },
    {
      "constant": false,
      "inputs": [
        {
          "name": "_role",
          "type": "uint8"
        },
        {
          "name": "_code",
          "type": "address"
        },
        {
          "name": "_sig",
          "type": "bytes4"
        }
      ],
      "name": "addRoleCapability",
      "outputs": [
        {
          "name": "",
          "type": "uint256"
        }
      ],
      "payable": false,
      "stateMutability": "nonpayable",
      "type": "function"
    },
    {
      "constant": false,
      "inputs": [
        {
          "name": "_role",
          "type": "uint8"
        },
        {
          "name": "_code",
          "type": "address"
        },
        {
          "name": "_sig",
          "type": "bytes4"
        }
      ],
      "name": "removeRoleCapability",
      "outputs": [
        {
          "name": "",
          "type": "uint256"
        }
      ],
      "payable": false,
      "stateMutability": "nonpayable",
      "type": "function"
    },
    {
      "constant": false,
      "inputs": [
        {
          "name": "_role",
          "type": "uint8"
        },
        {
          "name": "_code",
          "type": "address"
        },
        {
          "name": "_sig",
          "type": "bytes4"
        },
        {
          "name": "_enabled",
          "type": "bool"
        }
      ],
      "name": "_setRoleCapability",
      "outputs": [
        {
          "name": "",
          "type": "uint256"
        }
      ],
      "payable": false,
      "stateMutability": "nonpayable",
      "type": "function"
    },
    {
      "constant": true,
      "inputs": [
        {
          "name": "_user",
          "type": "address"
        }
      ],
      "name": "isUserRoot",
      "outputs": [
        {
          "name": "",
          "type": "bool"
        }
      ],
      "payable": false,
      "stateMutability": "view",
      "type": "function"
    },
    {
      "constant": true,
      "inputs": [
        {
          "name": "_code",
          "type": "address"
        },
        {
          "name": "_sig",
          "type": "bytes4"
        }
      ],
      "name": "isCapabilityPublic",
      "outputs": [
        {
          "name": "",
          "type": "bool"
        }
      ],
      "payable": false,
      "stateMutability": "view",
      "type": "function"
    },
    {
      "constant": true,
      "inputs": [
        {
          "name": "_user",
          "type": "address"
        },
        {
          "name": "_role",
          "type": "uint8"
        }
      ],
      "name": "hasUserRole",
      "outputs": [
        {
          "name": "",
          "type": "bool"
        }
      ],
      "payable": false,
      "stateMutability": "view",
      "type": "function"
    },
    {
      "constant": false,
      "inputs": [
        {
          "name": "_user",
          "type": "address"
        },
        {
          "name": "_role",
          "type": "uint8"
        }
      ],
      "name": "emitRoleAdded",
      "outputs": [],
      "payable": false,
      "stateMutability": "nonpayable",
      "type": "function"
    },
    {
      "constant": false,
      "inputs": [
        {
          "name": "_user",
          "type": "address"
        },
        {
          "name": "_role",
          "type": "uint8"
        }
      ],
      "name": "emitRoleRemoved",
      "outputs": [],
      "payable": false,
      "stateMutability": "nonpayable",
      "type": "function"
    },
    {
      "constant": false,
      "inputs": [
        {
          "name": "_code",
          "type": "address"
        },
        {
          "name": "_sig",
          "type": "bytes4"
        },
        {
          "name": "_role",
          "type": "uint8"
        }
      ],
      "name": "emitCapabilityAdded",
      "outputs": [],
      "payable": false,
      "stateMutability": "nonpayable",
      "type": "function"
    },
    {
      "constant": false,
      "inputs": [
        {
          "name": "_code",
          "type": "address"
        },
        {
          "name": "_sig",
          "type": "bytes4"
        },
        {
          "name": "_role",
          "type": "uint8"
        }
      ],
      "name": "emitCapabilityRemoved",
      "outputs": [],
      "payable": false,
      "stateMutability": "nonpayable",
      "type": "function"
    },
    {
      "constant": false,
      "inputs": [
        {
          "name": "_code",
          "type": "address"
        },
        {
          "name": "_sig",
          "type": "bytes4"
        }
      ],
      "name": "emitPublicCapabilityAdded",
      "outputs": [],
      "payable": false,
      "stateMutability": "nonpayable",
      "type": "function"
    },
    {
      "constant": false,
      "inputs": [
        {
          "name": "_code",
          "type": "address"
        },
        {
          "name": "_sig",
          "type": "bytes4"
        }
      ],
      "name": "emitPublicCapabilityRemoved",
      "outputs": [],
      "payable": false,
      "stateMutability": "nonpayable",
      "type": "function"
    }
  ],
  "bytecode": "0x606060405234156200001057600080fd5b6040516040806200177183398101604052808051919060200180519150829050816200004d60008383640100000000620014da6200015e82021704565b505060038054600160a060020a03191633600160a060020a0316179055620000a560057f726f6f74557365727300000000000000000000000000000000000000000000006401000000006200018481026200150d1704565b620000e060067f75736572526f6c657300000000000000000000000000000000000000000000006401000000006200150d6200018482021704565b6200011b60077f6361706162696c697479526f6c657300000000000000000000000000000000006401000000006200150d6200018482021704565b6200015660087f7075626c69634361706162696c697469657300000000000000000000000000006401000000006200150d6200018482021704565b5050620001da565b8254600160a060020a031916600160a060020a0392909216919091178255600190910155565b6200019e828264010000000062001535620001a282021704565b5050565b8154620001be908264010000000062001545620001c282021704565b9055565b81151580620001cf575080155b156200019e57600080fd5b61158780620001ea6000396000f3006060604052600436106101655763ffffffff60e060020a600035041662a81ef6811461016a57806302927d201461019157806306a36aee146101c25780630a7a2fef146101e157806327538e90146102135780632f47571f1461023f5780634592cd1d1461027f578063557f4bc914610292578063588cff4c146102b15780635aa77d3c146102dd5780635ecb16cd1461030c5780637362377b1461032a5780637977f7081461033d5780638834277e1461036f57806395725d8a146103855780639a75aa06146103aa5780639ae0140c146103d6578063a078f73714610408578063b24a54251461042d578063b44f794f14610464578063b700961314610489578063c6b0263e146104bb578063ce606ee0146104ec578063d0d9e21d146104ff578063d381ba7c14610531578063e1e0929914610555578063e90459f81461057a578063ecdb065b14610590578063fbf80773146105a6578063fff10aba146105c5575b600080fd5b341561017557600080fd5b61018f600160a060020a036004351660ff602435166105d8565b005b341561019c57600080fd5b6101b0600160a060020a0360043516610627565b60405190815260200160405180910390f35b34156101cd57600080fd5b6101b0600160a060020a036004351661066a565b34156101ec57600080fd5b61018f600160a060020a0360043516600160e060020a03196024351660ff60443516610684565b341561021e57600080fd5b6101b0600160a060020a0360043516600160e060020a0319602435166106e6565b341561024a57600080fd5b61026b600160a060020a0360043516600160e060020a031960243516610702565b604051901515815260200160405180910390f35b341561028a57600080fd5b61026b610717565b341561029d57600080fd5b61026b600160a060020a0360043516610771565b34156102bc57600080fd5b61018f600160a060020a0360043516600160e060020a0319602435166107d5565b34156102e857600080fd5b6102f0610832565b604051600160a060020a03909116815260200160405180910390f35b341561031757600080fd5b61018f6004803560248101910135610841565b341561033557600080fd5b61018f61098e565b341561034857600080fd5b6101b060ff60043516600160a060020a0360243516600160e060020a0319604435166109f7565b341561037a57600080fd5b61018f600435610a26565b341561039057600080fd5b61018f600160a060020a036004351660ff60243516610a6d565b34156103b557600080fd5b61018f600160a060020a0360043516600160e060020a031960243516610abc565b34156103e157600080fd5b6101b060ff60043516600160a060020a0360243516600160e060020a031960443516610b19565b341561041357600080fd5b61026b600160a060020a036004351660ff60243516610b62565b341561043857600080fd5b6101b060ff60043516600160a060020a0360243516600160e060020a0319604435166064351515610b80565b341561046f57600080fd5b6101b0600160a060020a036004351660ff60243516610c04565b341561049457600080fd5b61026b600160a060020a0360043581169060243516600160e060020a031960443516610c72565b34156104c657600080fd5b6101b0600160a060020a0360043516600160e060020a0319602435166044351515610cb8565b34156104f757600080fd5b6102f0610d10565b341561050a57600080fd5b61018f600160a060020a0360043516600160e060020a03196024351660ff60443516610d1f565b341561053c57600080fd5b6101b0600160a060020a03600435166024351515610d81565b341561056057600080fd5b6101b0600160a060020a036004351660ff60243516610db8565b341561058557600080fd5b61018f600435610e1e565b341561059b57600080fd5b6101b0600435610e65565b34156105b157600080fd5b61026b600160a060020a0360043516610e6c565b34156105d057600080fd5b6102f0610e80565b8060ff1682600160a060020a03166105ee610e8f565b600160a060020a03167f7577662ae5b32920f85a4b61fb99f5f5b9fd3f8e937ac15fe8b8a0a19e90fa0f60405160405180910390a45050565b60035460009033600160a060020a039081169116141561066557600160a060020a038216151561065657600080fd5b61065f82610e93565b50600190505b919050565b600061067e8160068463ffffffff610ec416565b92915050565b8060ff1683600160a060020a031661069a610e8f565b600160a060020a03167ff820011dd31265ef4cfb8740f75367415191173d0f08b32fb5401d2a0dc1847b85604051600160e060020a0319909116815260200160405180910390a4505050565b60006106fb816007858563ffffffff610eda16565b9392505050565b60006106fb816008858563ffffffff610f0416565b60045460009033600160a060020a039081169116146107385750600061076e565b50600480546003805473ffffffffffffffffffffffffffffffffffffffff19908116600160a060020a0384161790915516905560015b90565b60035460009033600160a060020a039081169116141561066557600160a060020a03821615156107a357506000610665565b5060048054600160a060020a03831673ffffffffffffffffffffffffffffffffffffffff199091161790556001919050565b81600160a060020a03166107e7610e8f565b600160a060020a03167fe74cc03efe60f26af9bb6b27883577bbbd981555b1a070b15aace44960d0ef1f83604051600160e060020a0319909116815260200160405180910390a35050565b600454600160a060020a031681565b6003546000908190819033600160a060020a039081169116141561098757600092505b838310156109875784848481811061087857fe5b90506020020135600160a060020a0316915081600160a060020a03166370a082313060006040516020015260405160e060020a63ffffffff8416028152600160a060020a039091166004820152602401602060405180830381600087803b15156108e157600080fd5b6102c65a03f115156108f257600080fd5b5050506040518051915050801561097c5781600160a060020a031663a9059cbb338360006040516020015260405160e060020a63ffffffff8516028152600160a060020a0390921660048301526024820152604401602060405180830381600087803b151561096057600080fd5b6102c65a03f1151561097157600080fd5b505050604051805150505b600190920191610864565b5050505050565b60035433600160a060020a03908116911614156109f557600030600160a060020a03163111156109f55733600160a060020a03166108fc30600160a060020a0316319081150290604051600060405180830381858888f1935050505015156109f557600080fd5b565b60035460009033600160a060020a03908116911614156106fb57610a1e8484846001610b80565b949350505050565b610a2e610e8f565b600160a060020a03167f09e0713b45664e161c202b19bb4574ee83dfa056f9bfdee56847b3971d9682218260405190815260200160405180910390a250565b8060ff1682600160a060020a0316610a83610e8f565b600160a060020a03167faefc6303247f6e535a84463aeb8ae70719e1d40a8d6800dc8efa455b1e1fb33f60405160405180910390a45050565b81600160a060020a0316610ace610e8f565b600160a060020a03167f67813b7923deedd38ecb1624185361da00646f2a5066850b99e5fddcec1708b483604051600160e060020a0319909116815260200160405180910390a35050565b60035460009033600160a060020a03908116911614156106fb57610b3d83836106e6565b1515610b5557610b4e614e23610f2d565b90506106fb565b610a1e8484846000610b80565b6000610b6d82610f96565b610b768461066a565b1615159392505050565b6000806000610b8f86866106e6565b9150610b9a87610f96565b90508315610bc957610bb960006007888886861763ffffffff610f9f16565b610bc4868689610fbf565b610bf7565b610bec60078787610bd985610e65565b600093929190871663ffffffff610f9f16565b610bf7868689611048565b5060019695505050505050565b60035460009033600160a060020a03908116911614801590610c3a5750610c383330600035600160e060020a031916610c72565b155b15610c445761067e565b610c4e8383610b62565b1515610c6657610c5f614e23610f2d565b905061067e565b6106fb838360006110b8565b6000610c7d84610e6c565b80610c8d5750610c8d8383610702565b15610c9a575060016106fb565b610ca483836106e6565b610cad8561066a565b161515949350505050565b60035460009033600160a060020a03908116911614156106fb57610ce76000600886868663ffffffff61113b16565b8115610cfc57610cf78484611163565b610d06565b610d0684846111d9565b5060019392505050565b600354600160a060020a031681565b8060ff1683600160a060020a0316610d35610e8f565b600160a060020a03167facf87e9240a04c36449fb09028711a68d4e3a4df32931c5df0dfc54acae5202385604051600160e060020a0319909116815260200160405180910390a4505050565b60035460009033600160a060020a039081169116141561067e57610daf60006005858563ffffffff61123e16565b50600192915050565b60035460009033600160a060020a03908116911614801590610dee5750610dec3330600035600160e060020a031916610c72565b155b15610df85761067e565b610e028383610b62565b15610e1257610c5f614e21610f2d565b6106fb838360016110b8565b610e26610e8f565b600160a060020a03167fbb8f0c1d8804cd86e7873ec11cb00af945c8c0ebd061a68b28617034803464158260405190815260200160405180910390a250565b6000191890565b600061067e8160058463ffffffff61126116565b600254600160a060020a031690565b3390565b60028054600160a060020a03831673ffffffffffffffffffffffffffffffffffffffff199091161790556001919050565b6000610a1e8484600160a060020a038516611276565b6000610efb8585600160a060020a038616600160e060020a03198616611310565b95945050505050565b6000610efb610f288686600160a060020a038716600160e060020a03198716611310565b611335565b6000610f37610e80565b600160a060020a0316638834277e8360405160e060020a63ffffffff84160281526004810191909152602401600060405180830381600087803b1515610f7c57600080fd5b6102c65a03f11515610f8d57600080fd5b50929392505050565b60ff1660020a90565b6109878585600160a060020a038616600160e060020a031986168561133a565b610fc7610e80565b600160a060020a031663d0d9e21d84848460405160e060020a63ffffffff8616028152600160a060020a039093166004840152600160e060020a0319909116602483015260ff166044820152606401600060405180830381600087803b151561102f57600080fd5b6102c65a03f1151561104057600080fd5b505050505050565b611050610e80565b600160a060020a0316630a7a2fef84848460405160e060020a63ffffffff8616028152600160a060020a039093166004840152600160e060020a0319909116602483015260ff166044820152606401600060405180830381600087803b151561102f57600080fd5b60008060006110c68661066a565b91506110d185610f96565b90508315611102576110ef600060068885851763ffffffff61135e16565b6110f98686611373565b60019250611132565b61112360068761111184610e65565b6000929190861663ffffffff61135e16565b61112d86866113d1565b600192505b50509392505050565b6109878585600160a060020a038616600160e060020a0319861661115e8661142e565b61133a565b61116b610e80565b600160a060020a0316639a75aa06838360405160e060020a63ffffffff8516028152600160a060020a039092166004830152600160e060020a0319166024820152604401600060405180830381600087803b15156111c857600080fd5b6102c65a03f1151561098757600080fd5b6111e1610e80565b600160a060020a031663588cff4c838360405160e060020a63ffffffff8516028152600160a060020a039092166004830152600160e060020a0319166024820152604401600060405180830381600087803b15156111c857600080fd5b61125b8484600160a060020a0385166112568561142e565b611448565b50505050565b6000610a1e610f288585600160a060020a0386165b825460018401548354600092600160a060020a0316916337d9d7fc9185604051918252602082015260409081019051809103902060006040516020015260405160e060020a63ffffffff851602815260048101929092526024820152604401602060405180830381600087803b15156112ee57600080fd5b6102c65a03f115156112ff57600080fd5b505050604051805195945050505050565b6000610efb858585856040519182526020820152604090810190518091039020611276565b151590565b61098785858585604051918252602082015260409081019051809103902084611448565b61125b8484600160a060020a03851684611448565b61137b610e80565b600160a060020a03166395725d8a838360405160e060020a63ffffffff8516028152600160a060020a03909216600483015260ff166024820152604401600060405180830381600087803b15156111c857600080fd5b6113d9610e80565b600160a060020a031662a81ef6838360405160e060020a63ffffffff8516028152600160a060020a03909216600483015260ff166024820152604401600060405180830381600087803b15156111c857600080fd5b60008161143c57600061143f565b60015b60ff1692915050565b835460018501548454600160a060020a039092169163a14ff85791908560405191825260208201526040908101905180910390208460405160e060020a63ffffffff8616028152600481019390935260248301919091526044820152606401600060405180830381600087803b15156114c057600080fd5b6102c65a03f115156114d157600080fd5b50505050505050565b825473ffffffffffffffffffffffffffffffffffffffff1916600160a060020a0392909216919091178255600190910155565b6115178282611535565b5050565b6115178282611535565b6115178282611535565b61151782825b81546115419082611545565b9055565b81151580611551575080155b1561151757600080fd00a165627a7a723058202d0e82f7b84e48e535ade2a1c1387f707cbe34f15e1c709e653a4472f53878260029",
  "source": "/**\n * Copyright 20172018, LaborX PTY\n * Licensed under the AGPL Version 3 license.\n */\n\npragma solidity ^0.4.18;\n\n\nimport './adapters/MultiEventsHistoryAdapter.sol';\nimport './adapters/StorageAdapter.sol';\nimport './base/Owned.sol';\n\n\ncontract Roles2Library is StorageAdapter, MultiEventsHistoryAdapter, Owned {\n\n    uint constant OK = 1;\n\n    uint constant ROLES_SCOPE = 20000;\n    uint constant ROLES_ALREADY_EXISTS = ROLES_SCOPE + 1;\n    uint constant ROLES_INVALID_INVOCATION = ROLES_SCOPE + 2;\n    uint constant ROLES_NOT_FOUND = ROLES_SCOPE + 3;\n\n    event RoleAdded(address indexed self, address indexed user, uint8 indexed role);\n    event RoleRemoved(address indexed self, address indexed user, uint8 indexed role);\n    event CapabilityAdded(address indexed self, address indexed code, bytes4 sig, uint8 indexed role);\n    event CapabilityRemoved(address indexed self, address indexed code, bytes4 sig, uint8 indexed role);\n    event PublicCapabilityAdded(address indexed self, address indexed code, bytes4 sig);\n    event PublicCapabilityRemoved(address indexed self, address indexed code, bytes4 sig);\n\n    StorageInterface.AddressBoolMapping rootUsers;\n    StorageInterface.AddressBytes32Mapping userRoles;\n    StorageInterface.AddressBytes4Bytes32Mapping capabilityRoles;\n    StorageInterface.AddressBytes4BoolMapping publicCapabilities;\n\n    modifier authorized {\n        if (msg.sender != contractOwner && !canCall(msg.sender, this, msg.sig)) {\n            return;\n        }\n        _;\n    }\n\n    function Roles2Library(Storage _store, bytes32 _crate) StorageAdapter(_store, _crate) public {\n        rootUsers.init('rootUsers');\n        userRoles.init('userRoles');\n        capabilityRoles.init('capabilityRoles');\n        publicCapabilities.init('publicCapabilities');\n    }\n\n    function setupEventsHistory(address _eventsHistory) onlyContractOwner external returns (uint) {\n        require(_eventsHistory != 0x0);\n\n        _setEventsHistory(_eventsHistory);\n        return OK;\n    }\n\n    function getUserRoles(address _user) public view returns (bytes32) {\n        return store.get(userRoles, _user);\n    }\n\n    function getCapabilityRoles(address _code, bytes4 _sig) public view returns (bytes32) {\n        return store.get(capabilityRoles, _code, _sig);\n    }\n\n    function canCall(address _user, address _code, bytes4 _sig) public view returns (bool) {\n        if (isUserRoot(_user) || isCapabilityPublic(_code, _sig)) {\n            return true;\n        }\n        return bytes32(0) != getUserRoles(_user) & getCapabilityRoles(_code, _sig);\n    }\n\n    function bitNot(bytes32 _input) public pure returns (bytes32) {\n        return (_input ^ bytes32(uint(-1)));\n    }\n\n    function setRootUser(address _user, bool _enabled) onlyContractOwner external returns (uint) {\n        store.set(rootUsers, _user, _enabled);\n        return OK;\n    }\n\n    function addUserRole(address _user, uint8 _role) authorized external returns (uint) {\n        if (hasUserRole(_user, _role)) {\n            return _emitErrorCode(ROLES_ALREADY_EXISTS);\n        }\n\n        return _setUserRole(_user, _role, true);\n    }\n\n    function removeUserRole(address _user, uint8 _role) authorized external returns (uint) {\n        if (!hasUserRole(_user, _role)) {\n            return _emitErrorCode(ROLES_NOT_FOUND);\n        }\n\n        return _setUserRole(_user, _role, false);\n    }\n\n    function _setUserRole(address _user, uint8 _role, bool _enabled) internal returns (uint) {\n        bytes32 lastRoles = getUserRoles(_user);\n        bytes32 shifted = _shift(_role);\n        \n        if (_enabled) {\n            store.set(userRoles, _user, lastRoles | shifted);\n            _emitRoleAdded(_user, _role);\n            return OK;\n        }\n    \n        store.set(userRoles, _user, lastRoles & bitNot(shifted));\n        _emitRoleRemoved(_user, _role);\n        return OK;\n    }\n\n    function setPublicCapability(address _code, bytes4 _sig, bool _enabled) onlyContractOwner external returns (uint) {\n        store.set(publicCapabilities, _code, _sig, _enabled);\n        \n        if (_enabled) {\n            _emitPublicCapabilityAdded(_code, _sig);\n        } else {\n            _emitPublicCapabilityRemoved(_code, _sig);\n        }\n        return OK;\n    }\n\n    function addRoleCapability(uint8 _role, address _code, bytes4 _sig) onlyContractOwner public returns (uint) {\n        return _setRoleCapability(_role, _code, _sig, true);\n    }\n\n    function removeRoleCapability(uint8 _role, address _code, bytes4 _sig) onlyContractOwner public returns (uint) {\n        if (getCapabilityRoles(_code, _sig) == 0) {\n            return _emitErrorCode(ROLES_NOT_FOUND);\n        }\n\n        return _setRoleCapability(_role, _code, _sig, false);\n    }\n\n    function _setRoleCapability(uint8 _role, address _code, bytes4 _sig, bool _enabled) public returns (uint) {\n        bytes32 lastRoles = getCapabilityRoles(_code, _sig);\n        bytes32 shifted = _shift(_role);\n\n        if (_enabled) {\n            store.set(capabilityRoles, _code, _sig, lastRoles | shifted);\n            _emitCapabilityAdded(_code, _sig, _role);\n        } else {\n            store.set(capabilityRoles, _code, _sig, lastRoles & bitNot(shifted));\n            _emitCapabilityRemoved(_code, _sig, _role);\n        }\n\n        return OK;\n    }\n\n    function isUserRoot(address _user) public view returns (bool) {\n        return store.get(rootUsers, _user);\n    }\n\n    function isCapabilityPublic(address _code, bytes4 _sig) public view returns (bool) {\n        return store.get(publicCapabilities, _code, _sig);\n    }\n\n    function hasUserRole(address _user, uint8 _role) public view returns (bool) {\n        return bytes32(0) != getUserRoles(_user) & _shift(_role);\n    }\n\n    function _shift(uint8 _role) pure internal returns (bytes32) {\n        return bytes32(uint(uint(2) ** uint(_role)));\n    }\n\n    function _emitRoleAdded(address _user, uint8 _role) internal {\n        Roles2Library(getEventsHistory()).emitRoleAdded(_user, _role);\n    }\n\n    function _emitRoleRemoved(address _user, uint8 _role) internal {\n        Roles2Library(getEventsHistory()).emitRoleRemoved(_user, _role);\n    }\n\n    function _emitCapabilityAdded(address _code, bytes4 _sig, uint8 _role) internal {\n        Roles2Library(getEventsHistory()).emitCapabilityAdded(_code, _sig, _role);\n    }\n\n    function _emitCapabilityRemoved(address _code, bytes4 _sig, uint8 _role) internal {\n        Roles2Library(getEventsHistory()).emitCapabilityRemoved(_code, _sig, _role);\n    }\n\n    function _emitPublicCapabilityAdded(address _code, bytes4 _sig) internal {\n        Roles2Library(getEventsHistory()).emitPublicCapabilityAdded(_code, _sig);\n    }\n\n    function _emitPublicCapabilityRemoved(address _code, bytes4 _sig) internal {\n        Roles2Library(getEventsHistory()).emitPublicCapabilityRemoved(_code, _sig);\n    }\n\n    function emitRoleAdded(address _user, uint8 _role) public {\n        RoleAdded(_self(), _user, _role);\n    }\n\n    function emitRoleRemoved(address _user, uint8 _role) public {\n        RoleRemoved(_self(), _user, _role);\n    }\n\n    function emitCapabilityAdded(address _code, bytes4 _sig, uint8 _role) public {\n        CapabilityAdded(_self(), _code, _sig, _role);\n    }\n\n    function emitCapabilityRemoved(address _code, bytes4 _sig, uint8 _role) public {\n        CapabilityRemoved(_self(), _code, _sig, _role);\n    }\n\n    function emitPublicCapabilityAdded(address _code, bytes4 _sig) public {\n        PublicCapabilityAdded(_self(), _code, _sig);\n    }\n\n    function emitPublicCapabilityRemoved(address _code, bytes4 _sig) public {\n        PublicCapabilityRemoved(_self(), _code, _sig);\n    }\n}\n",
  "sourcePath": "/Users/ahiatsevich/Development/chronobank/LX-SC/contracts/Roles2Library.sol",
  "compiler": {
    "name": "solc",
    "version": "0.4.19+commit.c4cbbb05.Emscripten.clang"
  },
  "schemaVersion": "2.0.0",
  "updatedAt": "2018-05-21T17:51:35.350Z"
}