{
  "contractName": "Roles2LibraryAdapter",
  "abi": [
    {
      "inputs": [
        {
          "name": "_roles2Library",
          "type": "address"
        }
      ],
      "payable": false,
      "stateMutability": "nonpayable",
      "type": "constructor"
    },
    {
      "anonymous": false,
      "inputs": [
        {
          "indexed": false,
          "name": "code",
          "type": "address"
        },
        {
          "indexed": false,
          "name": "sender",
          "type": "address"
        },
        {
          "indexed": false,
          "name": "sig",
          "type": "bytes4"
        }
      ],
      "name": "AuthFailedError",
      "type": "event"
    },
    {
      "constant": false,
      "inputs": [
        {
          "name": "_roles2Library",
          "type": "address"
        }
      ],
      "name": "setRoles2Library",
      "outputs": [
        {
          "name": "",
          "type": "uint256"
        }
      ],
      "payable": false,
      "stateMutability": "nonpayable",
      "type": "function"
    }
  ],
  "bytecode": "0x6060604052341561000f57600080fd5b6040516020806102968339810160405280805160008054600160a060020a03909216600160a060020a03199092169190911790555050610242806100546000396000f3006060604052600436106100405763ffffffff7c01000000000000000000000000000000000000000000000000000000006000350416632637cd7d8114610045575b600080fd5b341561005057600080fd5b610064600160a060020a0360043516610076565b60405190815260200160405180910390f35b600061008e33600035600160e060020a031916610134565b1515610103577f5133a133185f1023427a2e90f18506b27db994977ce0c0faafd514a7dd109ae03033600035600160e060020a031916604051600160a060020a039384168152919092166020820152600160e060020a03199091166040808301919091526060909101905180910390a161012f565b506000805473ffffffffffffffffffffffffffffffffffffffff1916600160a060020a03831617905560015b919050565b600030600160a060020a031683600160a060020a0316141561015857506001610210565b600054600160a060020a0316151561017257506000610210565b600054600160a060020a031663b70096138430856040517c010000000000000000000000000000000000000000000000000000000063ffffffff8616028152600160a060020a039384166004820152919092166024820152600160e060020a03199091166044820152606401602060405180830381600087803b15156101f757600080fd5b5af1151561020457600080fd5b50505060405180519150505b929150505600a165627a7a72305820d7cb2ee774d9f17dd77c1534b5d614339784cc5df15148a536d4086c931be0f50029",
  "source": "/**\n * Copyright 2017–2018, LaborX PTY\n * Licensed under the AGPL Version 3 license.\n */\n\npragma solidity ^0.4.21;\n\n\ncontract Roles2LibraryInterface {\n    function addUserRole(address _user, uint8 _role) public returns (uint);\n    function canCall(address _src, address _code, bytes4 _sig) public view returns (bool);\n}\n\n\ncontract Roles2LibraryAdapter {\n\n    uint constant UNAUTHORIZED = 0;\n    uint constant OK = 1;\n\n    event AuthFailedError(address code, address sender, bytes4 sig);\n\n    Roles2LibraryInterface roles2Library;\n\n    modifier auth {\n        if (!_isAuthorized(msg.sender, msg.sig)) {\n            emit AuthFailedError(this, msg.sender, msg.sig);\n            return;\n        }\n        _;\n    }\n\n    function Roles2LibraryAdapter(address _roles2Library) public {\n        roles2Library = Roles2LibraryInterface(_roles2Library);\n    }\n\n    function setRoles2Library(Roles2LibraryInterface _roles2Library) auth external returns (uint) {\n        roles2Library = _roles2Library;\n        return OK;\n    }\n\n    function _isAuthorized(address _src, bytes4 _sig) internal view returns (bool) {\n        if (_src == address(this)) {\n            return true;\n        }\n        if (address(roles2Library) == 0) {\n            return false;\n        }\n        \n        return roles2Library.canCall(_src, this, _sig);\n    }\n}\n",
  "sourcePath": "/Users/alesanro/Documents/Projects/ChronoBank/LX-SC/contracts/adapters/Roles2LibraryAdapter.sol",
  "compiler": {
    "name": "solc",
    "version": "0.4.21+commit.dfe3193c.Emscripten.clang"
  },
  "schemaVersion": "2.0.0",
  "updatedAt": "2018-06-20T11:43:09.839Z"
}