{
  "contractName": "SkillsLibrary",
  "abi": [
    {
      "constant": false,
      "inputs": [
        {
          "name": "_roles2Library",
          "type": "address"
        }
      ],
      "name": "setRoles2Library",
      "outputs": [
        {
          "name": "",
          "type": "uint256"
        }
      ],
      "payable": false,
      "stateMutability": "nonpayable",
      "type": "function"
    },
    {
      "constant": false,
      "inputs": [
        {
          "name": "_errorCode",
          "type": "uint256"
        }
      ],
      "name": "emitErrorCode",
      "outputs": [],
      "payable": false,
      "stateMutability": "nonpayable",
      "type": "function"
    },
    {
      "constant": false,
      "inputs": [
        {
          "name": "_msg",
          "type": "bytes32"
        }
      ],
      "name": "emitError",
      "outputs": [],
      "payable": false,
      "stateMutability": "nonpayable",
      "type": "function"
    },
    {
      "constant": true,
      "inputs": [],
      "name": "getEventsHistory",
      "outputs": [
        {
          "name": "",
          "type": "address"
        }
      ],
      "payable": false,
      "stateMutability": "view",
      "type": "function"
    },
    {
      "inputs": [
        {
          "name": "_store",
          "type": "address"
        },
        {
          "name": "_crate",
          "type": "bytes32"
        },
        {
          "name": "_roles2Library",
          "type": "address"
        }
      ],
      "payable": false,
      "stateMutability": "nonpayable",
      "type": "constructor"
    },
    {
      "anonymous": false,
      "inputs": [
        {
          "indexed": true,
          "name": "self",
          "type": "address"
        },
        {
          "indexed": false,
          "name": "area",
          "type": "uint256"
        },
        {
          "indexed": false,
          "name": "hash",
          "type": "bytes32"
        }
      ],
      "name": "AreaSet",
      "type": "event"
    },
    {
      "anonymous": false,
      "inputs": [
        {
          "indexed": true,
          "name": "self",
          "type": "address"
        },
        {
          "indexed": false,
          "name": "area",
          "type": "uint256"
        },
        {
          "indexed": false,
          "name": "category",
          "type": "uint256"
        },
        {
          "indexed": false,
          "name": "hash",
          "type": "bytes32"
        }
      ],
      "name": "CategorySet",
      "type": "event"
    },
    {
      "anonymous": false,
      "inputs": [
        {
          "indexed": true,
          "name": "self",
          "type": "address"
        },
        {
          "indexed": false,
          "name": "area",
          "type": "uint256"
        },
        {
          "indexed": false,
          "name": "category",
          "type": "uint256"
        },
        {
          "indexed": false,
          "name": "skill",
          "type": "uint256"
        },
        {
          "indexed": false,
          "name": "hash",
          "type": "bytes32"
        }
      ],
      "name": "SkillSet",
      "type": "event"
    },
    {
      "anonymous": false,
      "inputs": [
        {
          "indexed": false,
          "name": "code",
          "type": "address"
        },
        {
          "indexed": false,
          "name": "sender",
          "type": "address"
        },
        {
          "indexed": false,
          "name": "sig",
          "type": "bytes4"
        }
      ],
      "name": "AuthFailedError",
      "type": "event"
    },
    {
      "anonymous": false,
      "inputs": [
        {
          "indexed": true,
          "name": "self",
          "type": "address"
        },
        {
          "indexed": false,
          "name": "msg",
          "type": "bytes32"
        }
      ],
      "name": "Error",
      "type": "event"
    },
    {
      "anonymous": false,
      "inputs": [
        {
          "indexed": true,
          "name": "self",
          "type": "address"
        },
        {
          "indexed": false,
          "name": "errorCode",
          "type": "uint256"
        }
      ],
      "name": "ErrorCode",
      "type": "event"
    },
    {
      "constant": false,
      "inputs": [
        {
          "name": "_eventsHistory",
          "type": "address"
        }
      ],
      "name": "setupEventsHistory",
      "outputs": [
        {
          "name": "",
          "type": "uint256"
        }
      ],
      "payable": false,
      "stateMutability": "nonpayable",
      "type": "function"
    },
    {
      "constant": true,
      "inputs": [
        {
          "name": "_area",
          "type": "uint256"
        }
      ],
      "name": "getArea",
      "outputs": [
        {
          "name": "",
          "type": "bytes32"
        }
      ],
      "payable": false,
      "stateMutability": "view",
      "type": "function"
    },
    {
      "constant": true,
      "inputs": [
        {
          "name": "_area",
          "type": "uint256"
        },
        {
          "name": "_category",
          "type": "uint256"
        }
      ],
      "name": "getCategory",
      "outputs": [
        {
          "name": "",
          "type": "bytes32"
        }
      ],
      "payable": false,
      "stateMutability": "view",
      "type": "function"
    },
    {
      "constant": true,
      "inputs": [
        {
          "name": "_area",
          "type": "uint256"
        },
        {
          "name": "_category",
          "type": "uint256"
        },
        {
          "name": "_skill",
          "type": "uint256"
        }
      ],
      "name": "getSkill",
      "outputs": [
        {
          "name": "",
          "type": "bytes32"
        }
      ],
      "payable": false,
      "stateMutability": "view",
      "type": "function"
    },
    {
      "constant": false,
      "inputs": [
        {
          "name": "_area",
          "type": "uint256"
        },
        {
          "name": "_hash",
          "type": "bytes32"
        }
      ],
      "name": "setArea",
      "outputs": [
        {
          "name": "",
          "type": "uint256"
        }
      ],
      "payable": false,
      "stateMutability": "nonpayable",
      "type": "function"
    },
    {
      "constant": false,
      "inputs": [
        {
          "name": "_area",
          "type": "uint256"
        },
        {
          "name": "_category",
          "type": "uint256"
        },
        {
          "name": "_hash",
          "type": "bytes32"
        }
      ],
      "name": "setCategory",
      "outputs": [
        {
          "name": "",
          "type": "uint256"
        }
      ],
      "payable": false,
      "stateMutability": "nonpayable",
      "type": "function"
    },
    {
      "constant": false,
      "inputs": [
        {
          "name": "_area",
          "type": "uint256"
        },
        {
          "name": "_category",
          "type": "uint256"
        },
        {
          "name": "_skill",
          "type": "uint256"
        },
        {
          "name": "_hash",
          "type": "bytes32"
        }
      ],
      "name": "setSkill",
      "outputs": [
        {
          "name": "",
          "type": "uint256"
        }
      ],
      "payable": false,
      "stateMutability": "nonpayable",
      "type": "function"
    },
    {
      "constant": false,
      "inputs": [
        {
          "name": "_area",
          "type": "uint256"
        },
        {
          "name": "_hash",
          "type": "bytes32"
        }
      ],
      "name": "emitAreaSet",
      "outputs": [],
      "payable": false,
      "stateMutability": "nonpayable",
      "type": "function"
    },
    {
      "constant": false,
      "inputs": [
        {
          "name": "_area",
          "type": "uint256"
        },
        {
          "name": "_category",
          "type": "uint256"
        },
        {
          "name": "_hash",
          "type": "bytes32"
        }
      ],
      "name": "emitCategorySet",
      "outputs": [],
      "payable": false,
      "stateMutability": "nonpayable",
      "type": "function"
    },
    {
      "constant": false,
      "inputs": [
        {
          "name": "_area",
          "type": "uint256"
        },
        {
          "name": "_category",
          "type": "uint256"
        },
        {
          "name": "_skill",
          "type": "uint256"
        },
        {
          "name": "_hash",
          "type": "bytes32"
        }
      ],
      "name": "emitSkillSet",
      "outputs": [],
      "payable": false,
      "stateMutability": "nonpayable",
      "type": "function"
    }
  ],
  "bytecode": "0x606060405234156200001057600080fd5b6040516060806200101683398101604052808051919060200180519190602001805191508190508383620000556000838364010000000062000d966200013182021704565b505060038054600160a060020a031916600160a060020a0392909216919091179055620000b260047f617265617300000000000000000000000000000000000000000000000000000064010000000062000157810262000dc91704565b620000ed60057f63617465676f726965730000000000000000000000000000000000000000000064010000000062000dc96200015782021704565b6200012860067f736b696c6c73000000000000000000000000000000000000000000000000000064010000000062000dc96200015782021704565b505050620001ad565b8254600160a060020a031916600160a060020a0392909216919091178255600190910155565b62000171828264010000000062000de76200017582021704565b5050565b815462000191908264010000000062000df76200019582021704565b9055565b81151580620001a2575080155b156200017157600080fd5b610e5980620001bd6000396000f3006060604052600436106100b65763ffffffff60e060020a60003504166302927d2081146100bb5780630605d0cd146100ec5780632637cd7d1461010d5780632a16a9ee1461012c5780634594762a146101485780634edbca6e146101645780635f65d6211461017d5780636490c7a81461019c578063658bf147146101b25780637749e693146101cb5780638834277e146101e7578063e788b5eb146101fd578063e90459f814610216578063fff10aba1461022c575b600080fd5b34156100c657600080fd5b6100da600160a060020a036004351661025b565b60405190815260200160405180910390f35b34156100f757600080fd5b61010b6004356024356044356064356102ff565b005b341561011857600080fd5b6100da600160a060020a0360043516610366565b341561013757600080fd5b61010b600435602435604435610413565b341561015357600080fd5b6100da600435602435604435610470565b341561016f57600080fd5b6100da600435602435610490565b341561018857600080fd5b6100da6004356024356044356064356104ae565b34156101a757600080fd5b6100da6004356105ab565b34156101bd57600080fd5b6100da6004356024356105bf565b34156101d657600080fd5b6100da600435602435604435610689565b34156101f257600080fd5b61010b600435610777565b341561020857600080fd5b61010b6004356024356107be565b341561022157600080fd5b61010b60043561080d565b341561023757600080fd5b61023f610854565b604051600160a060020a03909116815260200160405180910390f35b600061027333600035600160e060020a031916610863565b15156102d657600080516020610e0e8339815191523033600035600160e060020a031916604051600160a060020a039384168152919092166020820152600160e060020a03199091166040808301919091526060909101905180910390a16102fa565b600160a060020a03821615156102eb57600080fd5b6102f482610937565b50600190505b919050565b610307610968565b600160a060020a03167f8d6567d268644c7590b30dca31486ea28c286fd5c52a9d7d013e43237ace582a85858585604051938452602084019290925260408084019190915260608301919091526080909101905180910390a250505050565b600061037e33600035600160e060020a031916610863565b15156103e157600080516020610e0e8339815191523033600035600160e060020a031916604051600160a060020a039384168152919092166020820152600160e060020a03199091166040808301919091526060909101905180910390a16102fa565b5060038054600160a060020a03831673ffffffffffffffffffffffffffffffffffffffff199091161790556001919050565b61041b610968565b600160a060020a03167f9eb59e2935f280c5f30d330456d2e82be62e268a556e296d791dc67e29dc365e84848460405192835260208301919091526040808301919091526060909101905180910390a2505050565b600061048681600686868663ffffffff61096c16565b90505b9392505050565b60006104a5816005858563ffffffff61098516565b90505b92915050565b60006104c633600035600160e060020a031916610863565b151561052957600080516020610e0e8339815191523033600035600160e060020a031916604051600160a060020a039384168152919092166020820152600160e060020a03199091166040808301919091526060909101905180910390a16105a3565b826105338161099c565b151561053e576105a1565b610547866105ab565b151561055f576105586155f16109b3565b91506105a1565b6105698686610490565b151561057a576105586155f26109b3565b610590600060068888888863ffffffff610a1c16565b61059c86868686610a32565b600191505b505b949350505050565b60006104a88160048463ffffffff610aae16565b60006105d733600035600160e060020a031916610863565b151561063a57600080516020610e0e8339815191523033600035600160e060020a031916604051600160a060020a039384168152919092166020820152600160e060020a03199091166040808301919091526060909101905180910390a16104a8565b826106448161099c565b8015610654575061065481610abb565b151561065f57610682565b61067360006004868663ffffffff610ae116565b61067d8484610af3565b600191505b5092915050565b60006106a133600035600160e060020a031916610863565b151561070457600080516020610e0e8339815191523033600035600160e060020a031916604051600160a060020a039384168152919092166020820152600160e060020a03199091166040808301919091526060909101905180910390a1610489565b8261070e8161099c565b801561071e575061071e81610abb565b15156107295761076f565b610732856105ab565b151561074a576107436155f16109b3565b915061076f565b61075f6000600587878763ffffffff610b5e16565b61076a858585610b6b565b600191505b509392505050565b61077f610968565b600160a060020a03167f09e0713b45664e161c202b19bb4574ee83dfa056f9bfdee56847b3971d9682218260405190815260200160405180910390a250565b6107c6610968565b600160a060020a03167fce1cc03b6e739f74f7c06a7ac12dbf08574eab3fb1bc508443ee1a4bad33786d838360405191825260208201526040908101905180910390a25050565b610815610968565b600160a060020a03167fbb8f0c1d8804cd86e7873ec11cb00af945c8c0ebd061a68b28617034803464158260405190815260200160405180910390a250565b600254600160a060020a031690565b600030600160a060020a031683600160a060020a03161415610887575060016104a8565b600354600160a060020a031615156108a1575060006104a8565b600354600160a060020a031663b700961384308560006040516020015260405160e060020a63ffffffff8616028152600160a060020a039384166004820152919092166024820152600160e060020a03199091166044820152606401602060405180830381600087803b151561091657600080fd5b6102c65a03f1151561092757600080fd5b5050506040518051949350505050565b60028054600160a060020a03831673ffffffffffffffffffffffffffffffffffffffff199091161790556001919050565b3390565b600061097b8686868686610bd8565b9695505050505050565b600061099385858585610c0a565b95945050505050565b600081158015906104a85750506000198101161590565b60006109bd610854565b600160a060020a0316638834277e8360405160e060020a63ffffffff84160281526004810191909152602401600060405180830381600087803b1515610a0257600080fd5b6102c65a03f11515610a1357600080fd5b50929392505050565b610a2a868686868686610c2f565b505050505050565b610a3a610854565b600160a060020a0316630605d0cd8585858560405160e060020a63ffffffff87160281526004810194909452602484019290925260448301526064820152608401600060405180830381600087803b1515610a9457600080fd5b6102c65a03f11515610aa557600080fd5b50505050505050565b6000610486848484610c60565b7faaaaaaaaaaaaaaaaaaaaaaaaaaaaaaaaaaaaaaaaaaaaaaaaaaaaaaaaaaaaaaaa161590565b610aed84848484610cfa565b50505050565b610afb610854565b600160a060020a031663e788b5eb838360405160e060020a63ffffffff851602815260048101929092526024820152604401600060405180830381600087803b1515610b4657600080fd5b6102c65a03f11515610b5757600080fd5b5050505050565b610b578585858585610d72565b610b73610854565b600160a060020a0316632a16a9ee84848460405160e060020a63ffffffff8616028152600481019390935260248301919091526044820152606401600060405180830381600087803b1515610bc757600080fd5b6102c65a03f11515610a2a57600080fd5b600061097b86868686866040519283526020830191909152604080830191909152606090910190518091039020610c60565b6000610993858585856040519182526020820152604090810190518091039020610c60565b610a2a8686868686604051928352602083019190915260408083019190915260609091019051809103902084610cfa565b825460018401548354600092600160a060020a0316916337d9d7fc9185604051918252602082015260409081019051809103902060006040516020015260405160e060020a63ffffffff851602815260048101929092526024820152604401602060405180830381600087803b1515610cd857600080fd5b6102c65a03f11515610ce957600080fd5b505050604051805195945050505050565b835460018501548454600160a060020a039092169163a14ff85791908560405191825260208201526040908101905180910390208460405160e060020a63ffffffff8616028152600481019390935260248301919091526044820152606401600060405180830381600087803b1515610a9457600080fd5b610b5785858585604051918252602082015260409081019051809103902084610cfa565b825473ffffffffffffffffffffffffffffffffffffffff1916600160a060020a0392909216919091178255600190910155565b610dd38282610de7565b5050565b610dd38282610de7565b610dd382825b8154610df39082610df7565b9055565b81151580610e03575080155b15610dd357600080fd005133a133185f1023427a2e90f18506b27db994977ce0c0faafd514a7dd109ae0a165627a7a72305820f3052f540dd4edb709e653ac14d2f72fe5c315b0a79f9365845815c0f83696d90029",
  "source": "/**\n * Copyright 2017–2018, LaborX PTY\n * Licensed under the AGPL Version 3 license.\n */\n\npragma solidity ^0.4.18;\n\n\nimport './adapters/MultiEventsHistoryAdapter.sol';\nimport './adapters/Roles2LibraryAdapter.sol';\nimport './adapters/StorageAdapter.sol';\n\n\n/**\n * @title LaborX Skills Library.\n *\n * Here we encode 128 different areas of activity, each with 128 different\n * categories, each with 256 different skills, using bit flags.\n * Every entity (area, category, skill) is linked to IPFS file that should\n * have description of the particular entity.\n * Areas and categories is an odd bit flags, starting from the right.\n * 00000001 is the first area or category.\n * 00000100 is the second area or category.\n * 01000000 is the fourth area or category.\n * Even flags are not used for areas and categories.\n * Skill can be repserented with any bit, starting from the right.\n * 00000001 is the first skill.\n * 00000010 is the second skill.\n * 01000000 is the seventh skill.\n *\n * Functions always accept a single flag that represents the entity.\n */\ncontract SkillsLibrary is StorageAdapter, MultiEventsHistoryAdapter, Roles2LibraryAdapter {\n\n    uint constant SKILLS_LIBRARY = 22000;\n    uint constant SKILLS_LIBRARY_AREA_NOT_SET = SKILLS_LIBRARY + 1;\n    uint constant SKILLS_LIBRARY_CATEGORY_NOT_SET = SKILLS_LIBRARY + 2;\n\n    event AreaSet(address indexed self, uint area, bytes32 hash);\n    event CategorySet(address indexed self, uint area, uint category, bytes32 hash);\n    event SkillSet(address indexed self, uint area, uint category, uint skill, bytes32 hash);\n\n    // Mappings of entity to IPFS hash.\n    StorageInterface.UIntBytes32Mapping areas;\n    StorageInterface.UIntUIntBytes32Mapping categories;\n    StorageInterface.UIntUIntUIntBytes32Mapping skills;\n\n    modifier singleFlag(uint _flag) {\n        if (!_isSingleFlag(_flag)) {\n            return;\n        }\n        _;\n    }\n\n    modifier singleOddFlag(uint _flag) {\n        if (!(_isSingleFlag(_flag) && _isOddFlag(_flag))) {\n            return;\n        }\n        _;\n    }\n\n    function _isSingleFlag(uint _flag) pure internal returns (bool) {\n        return _flag != 0 && (_flag & (_flag - 1) == 0);\n    }\n\n    function _isOddFlag(uint _flag) pure internal returns (bool) {\n        return _flag & 0xaaaaaaaaaaaaaaaaaaaaaaaaaaaaaaaaaaaaaaaaaaaaaaaaaaaaaaaaaaaaaaaa == 0;\n    }\n\n    function SkillsLibrary(\n        Storage _store, \n        bytes32 _crate, \n        address _roles2Library\n    )\n    StorageAdapter(_store, _crate)\n    Roles2LibraryAdapter(_roles2Library)\n    public\n    {\n        areas.init('areas');\n        categories.init('categories');\n        skills.init('skills');\n    }\n\n    function setupEventsHistory(address _eventsHistory) auth external returns (uint) {\n        require(_eventsHistory != 0x0);\n\n        _setEventsHistory(_eventsHistory);\n        return OK;\n    }\n\n    function getArea(uint _area) public view returns (bytes32) {\n        return store.get(areas, _area);\n    }\n\n    function getCategory(uint _area, uint _category) public view returns (bytes32) {\n        return store.get(categories, _area, _category);\n    }\n\n    function getSkill(uint _area, uint _category, uint _skill) public view returns (bytes32) {\n        return store.get(skills, _area, _category, _skill);\n    }\n\n    function setArea(\n        uint _area, \n        bytes32 _hash\n    )\n    auth\n    singleOddFlag(_area)\n    public\n    returns (uint) {\n        store.set(areas, _area, _hash);\n\n        _emitAreaSet(_area, _hash);\n        return OK;\n    }\n\n    function setCategory(\n        uint _area, \n        uint _category, \n        bytes32 _hash\n    )\n    auth\n    singleOddFlag(_category)\n    public\n    returns (uint) {\n        if (getArea(_area) == 0) {\n            return _emitErrorCode(SKILLS_LIBRARY_AREA_NOT_SET);\n        }\n        store.set(categories, _area, _category, _hash);\n        _emitCategorySet(_area, _category, _hash);\n\n        return OK;\n    }\n\n    function setSkill(\n        uint _area, \n        uint _category, \n        uint _skill, \n        bytes32 _hash\n    )\n    auth\n    singleFlag(_skill)\n    public\n    returns (uint) {\n        if (getArea(_area) == 0) {\n            return _emitErrorCode(SKILLS_LIBRARY_AREA_NOT_SET);\n        }\n        if (getCategory(_area, _category) == 0) {\n            return _emitErrorCode(SKILLS_LIBRARY_CATEGORY_NOT_SET);\n        }\n        store.set(skills, _area, _category, _skill, _hash);\n\n        _emitSkillSet(_area, _category, _skill, _hash);\n        return OK;\n    }\n\n    function _emitAreaSet(uint _area, bytes32 _hash) internal {\n        SkillsLibrary(getEventsHistory()).emitAreaSet(_area, _hash);\n    }\n\n    function _emitCategorySet(uint _area, uint _category, bytes32 _hash) internal {\n        SkillsLibrary(getEventsHistory()).emitCategorySet(_area, _category, _hash);\n    }\n\n    function _emitSkillSet(uint _area, uint _category, uint _skill, bytes32 _hash) internal {\n        SkillsLibrary(getEventsHistory()).emitSkillSet(_area, _category, _skill, _hash);\n    }\n\n    function emitAreaSet(uint _area, bytes32 _hash) public {\n        AreaSet(_self(), _area, _hash);\n    }\n\n    function emitCategorySet(uint _area, uint _category, bytes32 _hash) public {\n        CategorySet(_self(), _area, _category, _hash);\n    }\n\n    function emitSkillSet(uint _area, uint _category, uint _skill, bytes32 _hash) public {\n        SkillSet(_self(), _area, _category, _skill, _hash);\n    }\n}\n",
  "sourcePath": "/Users/alesanro/Documents/Projects/ChronoBank/LX-SC/contracts/SkillsLibrary.sol",
  "compiler": {
    "name": "solc",
    "version": "0.4.19+commit.c4cbbb05.Emscripten.clang"
  },
  "schemaVersion": "2.0.0",
  "updatedAt": "2018-06-05T15:16:40.433Z"
}