{
  "contractName": "StorageManager",
  "abi": [
    {
      "constant": false,
      "inputs": [
        {
          "name": "_user",
          "type": "address"
        },
        {
          "name": "_role",
          "type": "bytes32"
        }
      ],
      "name": "emitAccessBlocked",
      "outputs": [],
      "payable": false,
      "stateMutability": "nonpayable",
      "type": "function"
    },
    {
      "constant": false,
      "inputs": [
        {
          "name": "_user",
          "type": "address"
        },
        {
          "name": "_role",
          "type": "bytes32"
        }
      ],
      "name": "emitAccessGiven",
      "outputs": [],
      "payable": false,
      "stateMutability": "nonpayable",
      "type": "function"
    },
    {
      "constant": false,
      "inputs": [],
      "name": "claimContractOwnership",
      "outputs": [
        {
          "name": "",
          "type": "bool"
        }
      ],
      "payable": false,
      "stateMutability": "nonpayable",
      "type": "function"
    },
    {
      "constant": false,
      "inputs": [
        {
          "name": "_to",
          "type": "address"
        }
      ],
      "name": "changeContractOwnership",
      "outputs": [
        {
          "name": "",
          "type": "bool"
        }
      ],
      "payable": false,
      "stateMutability": "nonpayable",
      "type": "function"
    },
    {
      "constant": true,
      "inputs": [],
      "name": "pendingContractOwner",
      "outputs": [
        {
          "name": "",
          "type": "address"
        }
      ],
      "payable": false,
      "stateMutability": "view",
      "type": "function"
    },
    {
      "constant": true,
      "inputs": [
        {
          "name": "_actor",
          "type": "address"
        },
        {
          "name": "_role",
          "type": "bytes32"
        }
      ],
      "name": "isAllowed",
      "outputs": [
        {
          "name": "",
          "type": "bool"
        }
      ],
      "payable": false,
      "stateMutability": "view",
      "type": "function"
    },
    {
      "constant": false,
      "inputs": [
        {
          "name": "tokens",
          "type": "address[]"
        }
      ],
      "name": "withdrawTokens",
      "outputs": [],
      "payable": false,
      "stateMutability": "nonpayable",
      "type": "function"
    },
    {
      "constant": false,
      "inputs": [],
      "name": "withdrawEther",
      "outputs": [],
      "payable": false,
      "stateMutability": "nonpayable",
      "type": "function"
    },
    {
      "constant": true,
      "inputs": [
        {
          "name": "",
          "type": "bytes32"
        }
      ],
      "name": "accessRights",
      "outputs": [
        {
          "name": "",
          "type": "bool"
        }
      ],
      "payable": false,
      "stateMutability": "view",
      "type": "function"
    },
    {
      "constant": false,
      "inputs": [
        {
          "name": "_actor",
          "type": "address"
        },
        {
          "name": "_role",
          "type": "bytes32"
        }
      ],
      "name": "giveAccess",
      "outputs": [
        {
          "name": "",
          "type": "uint256"
        }
      ],
      "payable": false,
      "stateMutability": "nonpayable",
      "type": "function"
    },
    {
      "constant": false,
      "inputs": [
        {
          "name": "_errorCode",
          "type": "uint256"
        }
      ],
      "name": "emitErrorCode",
      "outputs": [],
      "payable": false,
      "stateMutability": "nonpayable",
      "type": "function"
    },
    {
      "constant": true,
      "inputs": [
        {
          "name": "_actor",
          "type": "address"
        }
      ],
      "name": "hasAccess",
      "outputs": [
        {
          "name": "",
          "type": "bool"
        }
      ],
      "payable": false,
      "stateMutability": "view",
      "type": "function"
    },
    {
      "constant": false,
      "inputs": [
        {
          "name": "_actor",
          "type": "address"
        },
        {
          "name": "_role",
          "type": "bytes32"
        }
      ],
      "name": "blockAccess",
      "outputs": [
        {
          "name": "",
          "type": "uint256"
        }
      ],
      "payable": false,
      "stateMutability": "nonpayable",
      "type": "function"
    },
    {
      "constant": true,
      "inputs": [],
      "name": "contractOwner",
      "outputs": [
        {
          "name": "",
          "type": "address"
        }
      ],
      "payable": false,
      "stateMutability": "view",
      "type": "function"
    },
    {
      "constant": true,
      "inputs": [
        {
          "name": "",
          "type": "address"
        }
      ],
      "name": "authorised",
      "outputs": [
        {
          "name": "",
          "type": "uint256"
        }
      ],
      "payable": false,
      "stateMutability": "view",
      "type": "function"
    },
    {
      "constant": false,
      "inputs": [
        {
          "name": "_msg",
          "type": "bytes32"
        }
      ],
      "name": "emitError",
      "outputs": [],
      "payable": false,
      "stateMutability": "nonpayable",
      "type": "function"
    },
    {
      "constant": false,
      "inputs": [
        {
          "name": "newOwner",
          "type": "address"
        }
      ],
      "name": "transferOwnership",
      "outputs": [
        {
          "name": "",
          "type": "bool"
        }
      ],
      "payable": false,
      "stateMutability": "nonpayable",
      "type": "function"
    },
    {
      "constant": true,
      "inputs": [],
      "name": "getEventsHistory",
      "outputs": [
        {
          "name": "",
          "type": "address"
        }
      ],
      "payable": false,
      "stateMutability": "view",
      "type": "function"
    },
    {
      "payable": true,
      "stateMutability": "payable",
      "type": "fallback"
    },
    {
      "anonymous": false,
      "inputs": [
        {
          "indexed": true,
          "name": "self",
          "type": "address"
        },
        {
          "indexed": false,
          "name": "msg",
          "type": "bytes32"
        }
      ],
      "name": "Error",
      "type": "event"
    },
    {
      "anonymous": false,
      "inputs": [
        {
          "indexed": true,
          "name": "self",
          "type": "address"
        },
        {
          "indexed": false,
          "name": "errorCode",
          "type": "uint256"
        }
      ],
      "name": "ErrorCode",
      "type": "event"
    },
    {
      "anonymous": false,
      "inputs": [
        {
          "indexed": true,
          "name": "self",
          "type": "address"
        },
        {
          "indexed": false,
          "name": "actor",
          "type": "address"
        },
        {
          "indexed": false,
          "name": "role",
          "type": "bytes32"
        }
      ],
      "name": "AccessGiven",
      "type": "event"
    },
    {
      "anonymous": false,
      "inputs": [
        {
          "indexed": true,
          "name": "self",
          "type": "address"
        },
        {
          "indexed": false,
          "name": "actor",
          "type": "address"
        },
        {
          "indexed": false,
          "name": "role",
          "type": "bytes32"
        }
      ],
      "name": "AccessBlocked",
      "type": "event"
    },
    {
      "anonymous": false,
      "inputs": [
        {
          "indexed": true,
          "name": "previousOwner",
          "type": "address"
        },
        {
          "indexed": true,
          "name": "newOwner",
          "type": "address"
        }
      ],
      "name": "OwnershipTransferred",
      "type": "event"
    },
    {
      "constant": false,
      "inputs": [
        {
          "name": "_eventsHistory",
          "type": "address"
        }
      ],
      "name": "setupEventsHistory",
      "outputs": [
        {
          "name": "",
          "type": "bool"
        }
      ],
      "payable": false,
      "stateMutability": "nonpayable",
      "type": "function"
    }
  ],
  "bytecode": "0x606060405260008054600160a060020a033316600160a060020a0319909116179055610c33806100306000396000f3006060604052600436106100ed5763ffffffff60e060020a60003504166302927d2081146100f2578063157fbd8d146101255780632c19d480146101495780634592cd1d1461016b578063557f4bc91461017e5780635aa77d3c1461019d5780635cb8dd09146101cc5780635ecb16cd146101ee5780637362377b1461023d5780637a7f34531461025057806385c53cf1146102665780638834277e1461029a57806395a078e8146102b0578063bd17a9d8146102cf578063ce606ee0146102f1578063d6eb1bbf14610304578063e90459f814610323578063f2fde38b14610339578063fff10aba14610358575b600080fd5b34156100fd57600080fd5b610111600160a060020a036004351661036b565b604051901515815260200160405180910390f35b341561013057600080fd5b610147600160a060020a03600435166024356103b5565b005b341561015457600080fd5b610147600160a060020a036004351660243561040e565b341561017657600080fd5b610111610467565b341561018957600080fd5b610111600160a060020a03600435166104fe565b34156101a857600080fd5b6101b061055e565b604051600160a060020a03909116815260200160405180910390f35b34156101d757600080fd5b610111600160a060020a036004351660243561056d565b34156101f957600080fd5b61014760046024813581810190830135806020818102016040519081016040528093929190818152602001838360200280828437509496506105df95505050505050565b341561024857600080fd5b61014761070a565b341561025b57600080fd5b61011160043561076b565b341561027157600080fd5b610288600160a060020a0360043516602435610780565b60405190815260200160405180910390f35b34156102a557600080fd5b610147600435610874565b34156102bb57600080fd5b610111600160a060020a03600435166108bb565b34156102da57600080fd5b610288600160a060020a03600435166024356108f0565b34156102fc57600080fd5b6101b06109f3565b341561030f57600080fd5b610288600160a060020a0360043516610a02565b341561032e57600080fd5b610147600435610a14565b341561034457600080fd5b610111600160a060020a0360043516610a5b565b341561036357600080fd5b6101b0610af9565b6000805433600160a060020a03908116911614156103b05761038b610af9565b600160a060020a0316156103a1575060006103b0565b6103aa82610b08565b50600190505b919050565b6103bd610b39565b600160a060020a03167fd21adfcaa3724e99864abea371528f9aa867d0b433e7d29dd972bf8d839ce4678383604051600160a060020a03909216825260208201526040908101905180910390a25050565b610416610b39565b600160a060020a03167fb6798040b2ff718946767eb5764382753f7d49017204678c8905ccbd393f48bc8383604051600160a060020a03909216825260208201526040908101905180910390a25050565b60015460009033600160a060020a03908116911614610488575060006104fb565b600154600054600160a060020a0391821691167f8be0079c531659141344cd1fd0a4f28419497f9722a3daafe3b4186f6b6457e060405160405180910390a350600180546000805473ffffffffffffffffffffffffffffffffffffffff19908116600160a060020a038416179091551681555b90565b6000805433600160a060020a03908116911614156103b057600160a060020a038216151561052e575060006103b0565b5060018054600160a060020a03831673ffffffffffffffffffffffffffffffffffffffff19909116178155919050565b600154600160a060020a031681565b6000600360008484604051600160a060020a03929092166c010000000000000000000000000282526014820152603401604051908190039020815260208101919091526040016000205460ff16806105d6575082600160a060020a031630600160a060020a0316145b90505b92915050565b600080548190819033600160a060020a039081169116141561070457600092505b83518310156107045783838151811061061557fe5b90602001906020020151915081600160a060020a03166370a082313060405160e060020a63ffffffff8416028152600160a060020a039091166004820152602401602060405180830381600087803b151561066f57600080fd5b5af1151561067c57600080fd5b505050604051805191505080156106f95781600160a060020a031663a9059cbb338360405160e060020a63ffffffff8516028152600160a060020a0390921660048301526024820152604401602060405180830381600087803b15156106e157600080fd5b5af115156106ee57600080fd5b505050604051805150505b600190920191610600565b50505050565b6000805433600160a060020a03908116911614156107685750600160a060020a03301631600081111561076857600160a060020a03331681156108fc0282604051600060405180830381858888f19350505050151561076857600080fd5b50565b60036020526000908152604090205460ff1681565b6000805433600160a060020a03908116911614156105d957600360008484604051600160a060020a03929092166c010000000000000000000000000282526014820152603401604051908190039020815260208101919091526040016000205460ff16151561086b576001600360008585604051600160a060020a03929092166c010000000000000000000000000282526014820152603401604051908190039020815260208082019290925260409081016000908120805460ff191694151594909417909355600160a060020a0386168352600290915290208054600101905561086b8383610b3d565b50600192915050565b61087c610b39565b600160a060020a03167f09e0713b45664e161c202b19bb4574ee83dfa056f9bfdee56847b3971d9682218260405190815260200160405180910390a250565b600160a060020a038116600090815260026020526040812054819011806105d957505030600160a060020a0390811691161490565b6000805433600160a060020a03908116911614156105d957600360008484604051600160a060020a03929092166c010000000000000000000000000282526014820152603401604051908190039020815260208101919091526040016000205460ff161561086b57600360008484604051600160a060020a03929092166c010000000000000000000000000282526014820152603401604051908190039020815260208082019290925260409081016000908120805460ff19169055600160a060020a0386168152600290925290208054600019019081905515156109e957600160a060020a0383166000908152600260205260408120555b61086b8383610bac565b600054600160a060020a031681565b60026020526000908152604090205481565b610a1c610b39565b600160a060020a03167fbb8f0c1d8804cd86e7873ec11cb00af945c8c0ebd061a68b28617034803464158260405190815260200160405180910390a250565b6000805433600160a060020a03908116911614156103b057600160a060020a0382161515610a8b575060006103b0565b600054600160a060020a0380841691167f8be0079c531659141344cd1fd0a4f28419497f9722a3daafe3b4186f6b6457e060405160405180910390a35060008054600160a060020a03831673ffffffffffffffffffffffffffffffffffffffff199091161790556001919050565b600454600160a060020a031690565b60048054600160a060020a03831673ffffffffffffffffffffffffffffffffffffffff199091161790556001919050565b3390565b610b45610af9565b600160a060020a0316632c19d480838360405160e060020a63ffffffff8516028152600160a060020a0390921660048301526024820152604401600060405180830381600087803b1515610b9857600080fd5b5af11515610ba557600080fd5b5050505050565b610bb4610af9565b600160a060020a031663157fbd8d838360405160e060020a63ffffffff8516028152600160a060020a0390921660048301526024820152604401600060405180830381600087803b1515610b9857600080fd00a165627a7a72305820f8cd72278c3a8f5dcef7f8c6c826eb46bb3678dd19ee6c7e653e251e1cdd60ba0029",
  "source": "/**\n * Copyright 2017–2018, LaborX PTY\n * Licensed under the AGPL Version 3 license.\n */\n\npragma solidity ^0.4.21;\n\nimport \"solidity-storage-lib/contracts/BaseStorageManager.sol\";\nimport \"./adapters/MultiEventsHistoryAdapter.sol\";\n\n\ncontract StorageManager is BaseStorageManager, MultiEventsHistoryAdapter {\n    \n    function setupEventsHistory(address _eventsHistory) onlyContractOwner external returns (bool) {\n        if (getEventsHistory() != 0x0) {\n            return false;\n        }\n        _setEventsHistory(_eventsHistory);\n        return true;\n    }\n}\n",
  "sourcePath": "/Users/alesanro/Documents/Projects/ChronoBank/LX-SC/contracts/StorageManager.sol",
  "compiler": {
    "name": "solc",
    "version": "0.4.21+commit.dfe3193c.Emscripten.clang"
  },
  "schemaVersion": "2.0.0",
  "updatedAt": "2018-06-20T11:52:00.808Z"
}