{
  "contractName": "Storage",
  "abi": [
    {
      "constant": false,
      "inputs": [
        {
          "name": "_crate",
          "type": "bytes32"
        },
        {
          "name": "_key",
          "type": "bytes32"
        },
        {
          "name": "_value",
          "type": "int256"
        }
      ],
      "name": "setInt",
      "outputs": [],
      "payable": false,
      "stateMutability": "nonpayable",
      "type": "function"
    },
    {
      "constant": false,
      "inputs": [
        {
          "name": "_crate",
          "type": "bytes32"
        },
        {
          "name": "_key",
          "type": "bytes32"
        },
        {
          "name": "_value",
          "type": "uint8"
        }
      ],
      "name": "setUInt8",
      "outputs": [],
      "payable": false,
      "stateMutability": "nonpayable",
      "type": "function"
    },
    {
      "constant": false,
      "inputs": [
        {
          "name": "_crate",
          "type": "bytes32"
        },
        {
          "name": "_key",
          "type": "bytes32"
        },
        {
          "name": "_value",
          "type": "address"
        },
        {
          "name": "_value2",
          "type": "uint8"
        }
      ],
      "name": "setAddressUInt8",
      "outputs": [],
      "payable": false,
      "stateMutability": "nonpayable",
      "type": "function"
    },
    {
      "constant": true,
      "inputs": [
        {
          "name": "_crate",
          "type": "bytes32"
        },
        {
          "name": "_key",
          "type": "bytes32"
        }
      ],
      "name": "getBytes32",
      "outputs": [
        {
          "name": "",
          "type": "bytes32"
        }
      ],
      "payable": false,
      "stateMutability": "view",
      "type": "function"
    },
    {
      "constant": true,
      "inputs": [
        {
          "name": "_crate",
          "type": "bytes32"
        },
        {
          "name": "_key",
          "type": "bytes32"
        }
      ],
      "name": "getUInt8",
      "outputs": [
        {
          "name": "",
          "type": "uint8"
        }
      ],
      "payable": false,
      "stateMutability": "view",
      "type": "function"
    },
    {
      "constant": false,
      "inputs": [],
      "name": "claimContractOwnership",
      "outputs": [
        {
          "name": "",
          "type": "bool"
        }
      ],
      "payable": false,
      "stateMutability": "nonpayable",
      "type": "function"
    },
    {
      "constant": true,
      "inputs": [],
      "name": "manager",
      "outputs": [
        {
          "name": "",
          "type": "address"
        }
      ],
      "payable": false,
      "stateMutability": "view",
      "type": "function"
    },
    {
      "constant": true,
      "inputs": [
        {
          "name": "_crate",
          "type": "bytes32"
        },
        {
          "name": "_key",
          "type": "bytes32"
        }
      ],
      "name": "getUInt",
      "outputs": [
        {
          "name": "",
          "type": "uint256"
        }
      ],
      "payable": false,
      "stateMutability": "view",
      "type": "function"
    },
    {
      "constant": false,
      "inputs": [
        {
          "name": "_crate",
          "type": "bytes32"
        },
        {
          "name": "_key",
          "type": "bytes32"
        },
        {
          "name": "_value",
          "type": "uint256"
        }
      ],
      "name": "setUInt",
      "outputs": [],
      "payable": false,
      "stateMutability": "nonpayable",
      "type": "function"
    },
    {
      "constant": false,
      "inputs": [
        {
          "name": "_to",
          "type": "address"
        }
      ],
      "name": "changeContractOwnership",
      "outputs": [
        {
          "name": "",
          "type": "bool"
        }
      ],
      "payable": false,
      "stateMutability": "nonpayable",
      "type": "function"
    },
    {
      "constant": true,
      "inputs": [],
      "name": "pendingContractOwner",
      "outputs": [
        {
          "name": "",
          "type": "address"
        }
      ],
      "payable": false,
      "stateMutability": "view",
      "type": "function"
    },
    {
      "constant": false,
      "inputs": [
        {
          "name": "tokens",
          "type": "address[]"
        }
      ],
      "name": "withdrawTokens",
      "outputs": [],
      "payable": false,
      "stateMutability": "nonpayable",
      "type": "function"
    },
    {
      "constant": false,
      "inputs": [],
      "name": "withdrawEther",
      "outputs": [],
      "payable": false,
      "stateMutability": "nonpayable",
      "type": "function"
    },
    {
      "constant": false,
      "inputs": [
        {
          "name": "_crate",
          "type": "bytes32"
        },
        {
          "name": "_key",
          "type": "bytes32"
        },
        {
          "name": "_value",
          "type": "address"
        }
      ],
      "name": "setAddress",
      "outputs": [],
      "payable": false,
      "stateMutability": "nonpayable",
      "type": "function"
    },
    {
      "constant": true,
      "inputs": [
        {
          "name": "_crate",
          "type": "bytes32"
        },
        {
          "name": "_key",
          "type": "bytes32"
        }
      ],
      "name": "getBool",
      "outputs": [
        {
          "name": "",
          "type": "bool"
        }
      ],
      "payable": false,
      "stateMutability": "view",
      "type": "function"
    },
    {
      "constant": false,
      "inputs": [
        {
          "name": "_crate",
          "type": "bytes32"
        },
        {
          "name": "_key",
          "type": "bytes32"
        },
        {
          "name": "_value",
          "type": "bytes32"
        }
      ],
      "name": "setBytes32",
      "outputs": [],
      "payable": false,
      "stateMutability": "nonpayable",
      "type": "function"
    },
    {
      "constant": true,
      "inputs": [
        {
          "name": "_crate",
          "type": "bytes32"
        },
        {
          "name": "_key",
          "type": "bytes32"
        }
      ],
      "name": "getInt",
      "outputs": [
        {
          "name": "",
          "type": "int256"
        }
      ],
      "payable": false,
      "stateMutability": "view",
      "type": "function"
    },
    {
      "constant": true,
      "inputs": [],
      "name": "contractOwner",
      "outputs": [
        {
          "name": "",
          "type": "address"
        }
      ],
      "payable": false,
      "stateMutability": "view",
      "type": "function"
    },
    {
      "constant": false,
      "inputs": [
        {
          "name": "_manager",
          "type": "address"
        }
      ],
      "name": "setManager",
      "outputs": [
        {
          "name": "",
          "type": "bool"
        }
      ],
      "payable": false,
      "stateMutability": "nonpayable",
      "type": "function"
    },
    {
      "constant": true,
      "inputs": [
        {
          "name": "_crate",
          "type": "bytes32"
        },
        {
          "name": "_key",
          "type": "bytes32"
        }
      ],
      "name": "getAddress",
      "outputs": [
        {
          "name": "",
          "type": "address"
        }
      ],
      "payable": false,
      "stateMutability": "view",
      "type": "function"
    },
    {
      "constant": true,
      "inputs": [
        {
          "name": "_crate",
          "type": "bytes32"
        },
        {
          "name": "_key",
          "type": "bytes32"
        }
      ],
      "name": "getAddressUInt8",
      "outputs": [
        {
          "name": "",
          "type": "address"
        },
        {
          "name": "",
          "type": "uint8"
        }
      ],
      "payable": false,
      "stateMutability": "view",
      "type": "function"
    },
    {
      "constant": false,
      "inputs": [
        {
          "name": "_crate",
          "type": "bytes32"
        },
        {
          "name": "_key",
          "type": "bytes32"
        },
        {
          "name": "_value",
          "type": "bool"
        }
      ],
      "name": "setBool",
      "outputs": [],
      "payable": false,
      "stateMutability": "nonpayable",
      "type": "function"
    }
  ],
  "bytecode": "0x606060405260008054600160a060020a033316600160a060020a0319909116179055610d6a806100306000396000f30060606040526004361061010e5763ffffffff60e060020a600035041663061c88008114610113578063252edb76146101315780632bc40f9a1461015057806337d9d7fc1461017b578063428e357b146101a65780634592cd1d146101d5578063481c6a75146101fc57806353aa3f5e1461022b57806353e7168b14610244578063557f4bc9146102605780635aa77d3c1461027f5780635ecb16cd146102925780637362377b146102b057806379a7cfee146102c357806398eaf11c146102e8578063a14ff85714610301578063a6fbf3d21461031d578063ce606ee014610336578063d0ebdbe714610349578063d3a3968614610368578063e33e5c5e14610381578063f0f53ee4146103bf575b600080fd5b341561011e57600080fd5b61012f6004356024356044356103dd565b005b341561013c57600080fd5b61012f60043560243560ff60443516610485565b341561015b57600080fd5b61012f600435602435600160a060020a036044351660ff6064351661053d565b341561018657600080fd5b610194600435602435610672565b60405190815260200160405180910390f35b34156101b157600080fd5b6101bf600435602435610693565b60405160ff909116815260200160405180910390f35b34156101e057600080fd5b6101e86106b7565b604051901515815260200160405180910390f35b341561020757600080fd5b61020f61070f565b604051600160a060020a03909116815260200160405180910390f35b341561023657600080fd5b61019460043560243561071e565b341561024f57600080fd5b61012f60043560243560443561073b565b341561026b57600080fd5b6101e8600160a060020a03600435166107df565b341561028a57600080fd5b61020f61083e565b341561029d57600080fd5b61012f600480356024810191013561084d565b34156102bb57600080fd5b61012f610998565b34156102ce57600080fd5b61012f600435602435600160a060020a0360443516610a01565b34156102f357600080fd5b6101e8600435602435610ad2565b341561030c57600080fd5b61012f600435602435604435610af5565b341561032857600080fd5b610194600435602435610b9d565b341561034157600080fd5b61020f610bbe565b341561035457600080fd5b6101e8600160a060020a0360043516610bcd565b341561037357600080fd5b61020f600435602435610c17565b341561038c57600080fd5b61039a600435602435610c41565b604051600160a060020a03909216825260ff1660208201526040908101905180910390f35b34156103ca57600080fd5b61012f6004356024356044351515610c89565b6003548390600160a060020a0316635cb8dd09338360006040516020015260405160e060020a63ffffffff8516028152600160a060020a0390921660048301526024820152604401602060405180830381600087803b151561043e57600080fd5b6102c65a03f1151561044f57600080fd5b50505060405180519050151561046457600080fd5b50600092835260026020908152604080852093855260039093019052912055565b6003548390600160a060020a0316635cb8dd09338360006040516020015260405160e060020a63ffffffff8516028152600160a060020a0390921660048301526024820152604401602060405180830381600087803b15156104e657600080fd5b6102c65a03f115156104f757600080fd5b50505060405180519050151561050c57600080fd5b506000928352600260209081526040808520938552600490930190529120805460ff191660ff909216919091179055565b6003548490600160a060020a0316635cb8dd09338360006040516020015260405160e060020a63ffffffff8516028152600160a060020a0390921660048301526024820152604401602060405180830381600087803b151561059e57600080fd5b6102c65a03f115156105af57600080fd5b5050506040518051905015156105c457600080fd5b604080519081016040908152600160a060020a038516825260ff8416602080840191909152600088815260028252828120888252600601909152208151815473ffffffffffffffffffffffffffffffffffffffff1916600160a060020a03919091161781556020820151815460ff91909116740100000000000000000000000000000000000000000274ff000000000000000000000000000000000000000019909116179055505050505050565b60009182526002602090815260408084209284526005909201905290205490565b60009182526002602090815260408084209284526004909201905290205460ff1690565b60015460009033600160a060020a039081169116146106d85750600061070c565b50600180546000805473ffffffffffffffffffffffffffffffffffffffff19908116600160a060020a038416179091551681555b90565b600354600160a060020a031681565b600091825260026020908152604080842092845291905290205490565b6003548390600160a060020a0316635cb8dd09338360006040516020015260405160e060020a63ffffffff8516028152600160a060020a0390921660048301526024820152604401602060405180830381600087803b151561079c57600080fd5b6102c65a03f115156107ad57600080fd5b5050506040518051905015156107c257600080fd5b506000928352600260209081526040808520938552929052912055565b6000805433600160a060020a039081169116141561083957600160a060020a038216151561080f57506000610839565b506001805473ffffffffffffffffffffffffffffffffffffffff1916600160a060020a0383161781555b919050565b600154600160a060020a031681565b600080548190819033600160a060020a039081169116141561099157600092505b838310156109915784848481811061088257fe5b90506020020135600160a060020a0316915081600160a060020a03166370a082313060006040516020015260405160e060020a63ffffffff8416028152600160a060020a039091166004820152602401602060405180830381600087803b15156108eb57600080fd5b6102c65a03f115156108fc57600080fd5b505050604051805191505080156109865781600160a060020a031663a9059cbb338360006040516020015260405160e060020a63ffffffff8516028152600160a060020a0390921660048301526024820152604401602060405180830381600087803b151561096a57600080fd5b6102c65a03f1151561097b57600080fd5b505050604051805150505b60019092019161086e565b5050505050565b60005433600160a060020a03908116911614156109ff57600030600160a060020a03163111156109ff5733600160a060020a03166108fc30600160a060020a0316319081150290604051600060405180830381858888f1935050505015156109ff57600080fd5b565b6003548390600160a060020a0316635cb8dd09338360006040516020015260405160e060020a63ffffffff8516028152600160a060020a0390921660048301526024820152604401602060405180830381600087803b1515610a6257600080fd5b6102c65a03f11515610a7357600080fd5b505050604051805190501515610a8857600080fd5b506000928352600260209081526040808520938552600190930190529120805473ffffffffffffffffffffffffffffffffffffffff1916600160a060020a03909216919091179055565b600091825260026020818152604080852093855292909101905290205460ff1690565b6003548390600160a060020a0316635cb8dd09338360006040516020015260405160e060020a63ffffffff8516028152600160a060020a0390921660048301526024820152604401602060405180830381600087803b1515610b5657600080fd5b6102c65a03f11515610b6757600080fd5b505050604051805190501515610b7c57600080fd5b50600092835260026020908152604080852093855260059093019052912055565b60009182526002602090815260408084209284526003909201905290205490565b600054600160a060020a031681565b6000805433600160a060020a0390811691161415610839575060038054600160a060020a03831673ffffffffffffffffffffffffffffffffffffffff199091161790556001919050565b600091825260026020908152604080842092845260019092019052902054600160a060020a031690565b600091825260026020908152604080842092845260069092019052902054600160a060020a038116917401000000000000000000000000000000000000000090910460ff1690565b6003548390600160a060020a0316635cb8dd09338360006040516020015260405160e060020a63ffffffff8516028152600160a060020a0390921660048301526024820152604401602060405180830381600087803b1515610cea57600080fd5b6102c65a03f11515610cfb57600080fd5b505050604051805190501515610d1057600080fd5b5060009283526002602081815260408086209486529390910190529120805460ff19169115159190911790555600a165627a7a72305820349484e9d1b364cdd036bf02a0272d0e92403ffd9d4a0fb174b32253f3c1d6000029",
  "source": "/**\n * Copyright 2017–2018, LaborX PTY\n * Licensed under the AGPL Version 3 license.\n */\n\npragma solidity ^0.4.11;\n\nimport './base/Owned.sol';\n\n\ncontract Manager {\n    function isAllowed(address _actor, bytes32 _role) public view returns(bool);\n}\n\ncontract Storage is Owned {\n    struct Crate {\n        mapping(bytes32 => uint) uints;\n        mapping(bytes32 => address) addresses;\n        mapping(bytes32 => bool) bools;\n        mapping(bytes32 => int) ints;\n        mapping(bytes32 => uint8) uint8s;\n        mapping(bytes32 => bytes32) bytes32s;\n        mapping(bytes32 => AddressUInt8) addressUInt8s;\n    }\n\n    struct AddressUInt8 {\n        address _address;\n        uint8 _uint8;\n    }\n\n    mapping(bytes32 => Crate) crates;\n    Manager public manager;\n\n    modifier onlyAllowed(bytes32 _role) {\n        if (!manager.isAllowed(msg.sender, _role)) {\n            revert();\n        }\n        _;\n    }\n\n    function setManager(Manager _manager) external onlyContractOwner() returns(bool) {\n        manager = _manager;\n        return true;\n    }\n\n    function setUInt(bytes32 _crate, bytes32 _key, uint _value) public onlyAllowed(_crate) {\n        crates[_crate].uints[_key] = _value;\n    }\n\n    function getUInt(bytes32 _crate, bytes32 _key) public view returns(uint) {\n        return crates[_crate].uints[_key];\n    }\n\n    function setAddress(bytes32 _crate, bytes32 _key, address _value) public onlyAllowed(_crate) {\n        crates[_crate].addresses[_key] = _value;\n    }\n\n    function getAddress(bytes32 _crate, bytes32 _key) public view returns(address) {\n        return crates[_crate].addresses[_key];\n    }\n\n    function setBool(bytes32 _crate, bytes32 _key, bool _value) public onlyAllowed(_crate) {\n        crates[_crate].bools[_key] = _value;\n    }\n\n    function getBool(bytes32 _crate, bytes32 _key) public view returns(bool) {\n        return crates[_crate].bools[_key];\n    }\n\n    function setInt(bytes32 _crate, bytes32 _key, int _value) public onlyAllowed(_crate) {\n        crates[_crate].ints[_key] = _value;\n    }\n\n    function getInt(bytes32 _crate, bytes32 _key) public view returns(int) {\n        return crates[_crate].ints[_key];\n    }\n\n    function setUInt8(bytes32 _crate, bytes32 _key, uint8 _value) public onlyAllowed(_crate) {\n        crates[_crate].uint8s[_key] = _value;\n    }\n\n    function getUInt8(bytes32 _crate, bytes32 _key) public view returns(uint8) {\n        return crates[_crate].uint8s[_key];\n    }\n\n    function setBytes32(bytes32 _crate, bytes32 _key, bytes32 _value) public onlyAllowed(_crate) {\n        crates[_crate].bytes32s[_key] = _value;\n    }\n\n    function getBytes32(bytes32 _crate, bytes32 _key) public view returns(bytes32) {\n        return crates[_crate].bytes32s[_key];\n    }\n\n    function setAddressUInt8(bytes32 _crate, bytes32 _key, address _value, uint8 _value2) public onlyAllowed(_crate) {\n        crates[_crate].addressUInt8s[_key] = AddressUInt8(_value, _value2);\n    }\n\n    function getAddressUInt8(bytes32 _crate, bytes32 _key) public view returns(address, uint8) {\n        return (crates[_crate].addressUInt8s[_key]._address, crates[_crate].addressUInt8s[_key]._uint8);\n    }\n}\n",
  "sourcePath": "/Users/ahiatsevich/Development/chronobank/LX-SC/contracts/Storage.sol",
  "compiler": {
    "name": "solc",
    "version": "0.4.19+commit.c4cbbb05.Emscripten.clang"
  },
  "schemaVersion": "2.0.0",
  "updatedAt": "2018-05-22T13:02:45.165Z"
}