{
  "contractName": "StorageManager",
  "abi": [
    {
      "constant": false,
      "inputs": [],
      "name": "claimContractOwnership",
      "outputs": [
        {
          "name": "",
          "type": "bool"
        }
      ],
      "payable": false,
      "stateMutability": "nonpayable",
      "type": "function"
    },
    {
      "constant": false,
      "inputs": [
        {
          "name": "_to",
          "type": "address"
        }
      ],
      "name": "changeContractOwnership",
      "outputs": [
        {
          "name": "",
          "type": "bool"
        }
      ],
      "payable": false,
      "stateMutability": "nonpayable",
      "type": "function"
    },
    {
      "constant": true,
      "inputs": [],
      "name": "pendingContractOwner",
      "outputs": [
        {
          "name": "",
          "type": "address"
        }
      ],
      "payable": false,
      "stateMutability": "view",
      "type": "function"
    },
    {
      "constant": false,
      "inputs": [
        {
          "name": "tokens",
          "type": "address[]"
        }
      ],
      "name": "withdrawTokens",
      "outputs": [],
      "payable": false,
      "stateMutability": "nonpayable",
      "type": "function"
    },
    {
      "constant": false,
      "inputs": [],
      "name": "withdrawEther",
      "outputs": [],
      "payable": false,
      "stateMutability": "nonpayable",
      "type": "function"
    },
    {
      "constant": false,
      "inputs": [
        {
          "name": "_errorCode",
          "type": "uint256"
        }
      ],
      "name": "emitErrorCode",
      "outputs": [],
      "payable": false,
      "stateMutability": "nonpayable",
      "type": "function"
    },
    {
      "constant": true,
      "inputs": [],
      "name": "contractOwner",
      "outputs": [
        {
          "name": "",
          "type": "address"
        }
      ],
      "payable": false,
      "stateMutability": "view",
      "type": "function"
    },
    {
      "constant": false,
      "inputs": [
        {
          "name": "_msg",
          "type": "bytes32"
        }
      ],
      "name": "emitError",
      "outputs": [],
      "payable": false,
      "stateMutability": "nonpayable",
      "type": "function"
    },
    {
      "constant": true,
      "inputs": [],
      "name": "getEventsHistory",
      "outputs": [
        {
          "name": "",
          "type": "address"
        }
      ],
      "payable": false,
      "stateMutability": "view",
      "type": "function"
    },
    {
      "anonymous": false,
      "inputs": [
        {
          "indexed": true,
          "name": "self",
          "type": "address"
        },
        {
          "indexed": false,
          "name": "actor",
          "type": "address"
        },
        {
          "indexed": false,
          "name": "role",
          "type": "bytes32"
        }
      ],
      "name": "AccessGiven",
      "type": "event"
    },
    {
      "anonymous": false,
      "inputs": [
        {
          "indexed": true,
          "name": "self",
          "type": "address"
        },
        {
          "indexed": false,
          "name": "actor",
          "type": "address"
        },
        {
          "indexed": false,
          "name": "role",
          "type": "bytes32"
        }
      ],
      "name": "AccessBlocked",
      "type": "event"
    },
    {
      "anonymous": false,
      "inputs": [
        {
          "indexed": true,
          "name": "self",
          "type": "address"
        },
        {
          "indexed": false,
          "name": "msg",
          "type": "bytes32"
        }
      ],
      "name": "Error",
      "type": "event"
    },
    {
      "anonymous": false,
      "inputs": [
        {
          "indexed": true,
          "name": "self",
          "type": "address"
        },
        {
          "indexed": false,
          "name": "errorCode",
          "type": "uint256"
        }
      ],
      "name": "ErrorCode",
      "type": "event"
    },
    {
      "constant": false,
      "inputs": [
        {
          "name": "_eventsHistory",
          "type": "address"
        }
      ],
      "name": "setupEventsHistory",
      "outputs": [
        {
          "name": "",
          "type": "bool"
        }
      ],
      "payable": false,
      "stateMutability": "nonpayable",
      "type": "function"
    },
    {
      "constant": false,
      "inputs": [
        {
          "name": "_actor",
          "type": "address"
        },
        {
          "name": "_role",
          "type": "bytes32"
        }
      ],
      "name": "giveAccess",
      "outputs": [
        {
          "name": "",
          "type": "bool"
        }
      ],
      "payable": false,
      "stateMutability": "nonpayable",
      "type": "function"
    },
    {
      "constant": false,
      "inputs": [
        {
          "name": "_actor",
          "type": "address"
        },
        {
          "name": "_role",
          "type": "bytes32"
        }
      ],
      "name": "blockAccess",
      "outputs": [
        {
          "name": "",
          "type": "bool"
        }
      ],
      "payable": false,
      "stateMutability": "nonpayable",
      "type": "function"
    },
    {
      "constant": true,
      "inputs": [
        {
          "name": "_actor",
          "type": "address"
        },
        {
          "name": "_role",
          "type": "bytes32"
        }
      ],
      "name": "isAllowed",
      "outputs": [
        {
          "name": "",
          "type": "bool"
        }
      ],
      "payable": false,
      "stateMutability": "view",
      "type": "function"
    },
    {
      "constant": false,
      "inputs": [
        {
          "name": "_user",
          "type": "address"
        },
        {
          "name": "_role",
          "type": "bytes32"
        }
      ],
      "name": "emitAccessGiven",
      "outputs": [],
      "payable": false,
      "stateMutability": "nonpayable",
      "type": "function"
    },
    {
      "constant": false,
      "inputs": [
        {
          "name": "_user",
          "type": "address"
        },
        {
          "name": "_role",
          "type": "bytes32"
        }
      ],
      "name": "emitAccessBlocked",
      "outputs": [],
      "payable": false,
      "stateMutability": "nonpayable",
      "type": "function"
    }
  ],
  "bytecode": "0x606060405260018054600160a060020a03191633600160a060020a03161790556108b68061002e6000396000f3006060604052600436106100c15763ffffffff60e060020a60003504166302927d2081146100c6578063157fbd8d146100f95780632c19d4801461011d5780634592cd1d1461013f578063557f4bc9146101525780635aa77d3c146101715780635cb8dd09146101a05780635ecb16cd146101c25780637362377b146101e057806385c53cf1146101f35780638834277e14610215578063bd17a9d81461022b578063ce606ee01461024d578063e90459f814610260578063fff10aba14610276575b600080fd5b34156100d157600080fd5b6100e5600160a060020a0360043516610289565b604051901515815260200160405180910390f35b341561010457600080fd5b61011b600160a060020a03600435166024356102d5565b005b341561012857600080fd5b61011b600160a060020a036004351660243561032e565b341561014a57600080fd5b6100e5610387565b341561015d57600080fd5b6100e5600160a060020a03600435166103e1565b341561017c57600080fd5b610184610445565b604051600160a060020a03909116815260200160405180910390f35b34156101ab57600080fd5b6100e5600160a060020a0360043516602435610454565b34156101cd57600080fd5b61011b6004803560248101910135610482565b34156101eb57600080fd5b61011b6105cf565b34156101fe57600080fd5b6100e5600160a060020a0360043516602435610638565b341561022057600080fd5b61011b600435610693565b341561023657600080fd5b6100e5600160a060020a03600435166024356106da565b341561025857600080fd5b610184610729565b341561026b57600080fd5b61011b600435610738565b341561028157600080fd5b61018461077f565b60015460009033600160a060020a03908116911614156102d0576102ab61077f565b600160a060020a0316156102c1575060006102d0565b6102ca8261078e565b50600190505b919050565b6102dd6107bf565b600160a060020a03167fd21adfcaa3724e99864abea371528f9aa867d0b433e7d29dd972bf8d839ce4678383604051600160a060020a03909216825260208201526040908101905180910390a25050565b6103366107bf565b600160a060020a03167fb6798040b2ff718946767eb5764382753f7d49017204678c8905ccbd393f48bc8383604051600160a060020a03909216825260208201526040908101905180910390a25050565b60025460009033600160a060020a039081169116146103a8575060006103de565b50600280546001805473ffffffffffffffffffffffffffffffffffffffff19908116600160a060020a0384161782559091169091555b90565b60015460009033600160a060020a03908116911614156102d057600160a060020a0382161515610413575060006102d0565b5060028054600160a060020a03831673ffffffffffffffffffffffffffffffffffffffff199091161790556001919050565b600254600160a060020a031681565b600160a060020a038216600090815260036020908152604080832084845290915290205460ff165b92915050565b6001546000908190819033600160a060020a03908116911614156105c857600092505b838310156105c8578484848181106104b957fe5b90506020020135600160a060020a0316915081600160a060020a03166370a082313060006040516020015260405160e060020a63ffffffff8416028152600160a060020a039091166004820152602401602060405180830381600087803b151561052257600080fd5b6102c65a03f1151561053357600080fd5b505050604051805191505080156105bd5781600160a060020a031663a9059cbb338360006040516020015260405160e060020a63ffffffff8516028152600160a060020a0390921660048301526024820152604401602060405180830381600087803b15156105a157600080fd5b6102c65a03f115156105b257600080fd5b505050604051805150505b6001909201916104a5565b5050505050565b60015433600160a060020a039081169116141561063657600030600160a060020a03163111156106365733600160a060020a03166108fc30600160a060020a0316319081150290604051600060405180830381858888f19350505050151561063657600080fd5b565b60015460009033600160a060020a039081169116141561047c57600160a060020a03831660009081526003602090815260408083208584529091529020805460ff1916600117905561068a83836107c3565b50600192915050565b61069b6107bf565b600160a060020a03167f09e0713b45664e161c202b19bb4574ee83dfa056f9bfdee56847b3971d9682218260405190815260200160405180910390a250565b60015460009033600160a060020a039081169116141561047c57600160a060020a03831660009081526003602090815260408083208584529091529020805460ff1916905561068a838361082f565b600154600160a060020a031681565b6107406107bf565b600160a060020a03167fbb8f0c1d8804cd86e7873ec11cb00af945c8c0ebd061a68b28617034803464158260405190815260200160405180910390a250565b600054600160a060020a031690565b60008054600160a060020a03831673ffffffffffffffffffffffffffffffffffffffff199091161790556001919050565b3390565b6107cb61077f565b600160a060020a0316632c19d480838360405160e060020a63ffffffff8516028152600160a060020a0390921660048301526024820152604401600060405180830381600087803b151561081e57600080fd5b6102c65a03f115156105c857600080fd5b61083761077f565b600160a060020a031663157fbd8d838360405160e060020a63ffffffff8516028152600160a060020a0390921660048301526024820152604401600060405180830381600087803b151561081e57600080fd00a165627a7a723058202a1aed3c69d2d77e3f478e90eddb28f635a14ad858b0ad365174815f02c09ff30029",
  "source": "/**\n * Copyright 2017–2018, LaborX PTY\n * Licensed under the AGPL Version 3 license.\n */\n\npragma solidity ^0.4.11;\n\nimport './adapters/MultiEventsHistoryAdapter.sol';\nimport './base/Owned.sol';\n\n\ncontract StorageManager is MultiEventsHistoryAdapter, Owned {\n    mapping(address => mapping(bytes32 => bool)) internal approvedContracts;\n    event AccessGiven(address indexed self, address actor, bytes32 role);\n    event AccessBlocked(address indexed self, address actor, bytes32 role);\n\n    function setupEventsHistory(address _eventsHistory) public onlyContractOwner() returns(bool) {\n        if (getEventsHistory() != 0x0) {\n            return false;\n        }\n        _setEventsHistory(_eventsHistory);\n        return true;\n    }\n\n    function giveAccess(address _actor, bytes32 _role) public onlyContractOwner() returns(bool) {\n        approvedContracts[_actor][_role] = true;\n        _emitAccessGiven(_actor, _role);\n        return true;\n    }\n\n    function blockAccess(address _actor, bytes32 _role) public onlyContractOwner() returns(bool) {\n        approvedContracts[_actor][_role] = false;\n        _emitAccessBlocked(_actor, _role);\n        return true;\n    }\n\n    function isAllowed(address _actor, bytes32 _role) public view returns(bool) {\n        return approvedContracts[_actor][_role];\n    }\n\n    function _emitAccessGiven(address _user, bytes32 _role) internal {\n        StorageManager(getEventsHistory()).emitAccessGiven(_user, _role);\n    }\n\n    function _emitAccessBlocked(address _user, bytes32 _role) internal {\n        StorageManager(getEventsHistory()).emitAccessBlocked(_user, _role);\n    }\n\n    function emitAccessGiven(address _user, bytes32 _role) public {\n        AccessGiven(_self(), _user, _role);\n    }\n\n    function emitAccessBlocked(address _user, bytes32 _role) public {\n        AccessBlocked(_self(), _user, _role);\n    }\n}\n",
  "sourcePath": "/Users/ahiatsevich/Development/chronobank/LX-SC/contracts/StorageManager.sol",
  "compiler": {
    "name": "solc",
    "version": "0.4.19+commit.c4cbbb05.Emscripten.clang"
  },
  "schemaVersion": "2.0.0",
  "updatedAt": "2018-06-01T12:06:55.606Z"
}