{
  "contractName": "StorageInterface",
  "abi": [
    {
      "constant": true,
      "inputs": [
        {
          "name": "self",
          "type": "bytes32"
        }
      ],
      "name": "toBool",
      "outputs": [
        {
          "name": "",
          "type": "bool"
        }
      ],
      "payable": false,
      "stateMutability": "pure",
      "type": "function"
    },
    {
      "constant": true,
      "inputs": [
        {
          "name": "self",
          "type": "bool"
        }
      ],
      "name": "toBytes32",
      "outputs": [
        {
          "name": "",
          "type": "bytes32"
        }
      ],
      "payable": false,
      "stateMutability": "pure",
      "type": "function"
    },
    {
      "constant": true,
      "inputs": [
        {
          "name": "self",
          "type": "bytes32[]"
        }
      ],
      "name": "toAddresses",
      "outputs": [
        {
          "name": "",
          "type": "address[]"
        }
      ],
      "payable": false,
      "stateMutability": "pure",
      "type": "function"
    }
  ],
  "bytecode": "0x6060604052341561000f57600080fd5b6102248061001e6000396000f3006060604052600436106100565763ffffffff7c0100000000000000000000000000000000000000000000000000000000600035041663486a8c62811461005b5780635590e4d2146100f2578063934e03a414610111575b600080fd5b61009f600460248135818101908301358060208181020160405190810160405280939291908181526020018383602002808284375094965061013095505050505050565b60405160208082528190810183818151815260200191508051906020019060200280838360005b838110156100de5780820151838201526020016100c6565b505050509050019250505060405180910390f35b6100ff60043515156101c7565b60405190815260200160405180910390f35b61011c6004356101e1565b604051901515815260200160405180910390f35b6101386101e6565b6101406101e6565b600083516040518059106101515750595b90808252806020026020018201604052509150600090505b83518110156101c05783818151811061017e57fe5b9060200190602002015182828151811061019457fe5b73ffffffffffffffffffffffffffffffffffffffff909216602092830290910190910152600101610169565b5092915050565b6000816101d55760006101d8565b60015b60ff1692915050565b151590565b602060405190810160405260008152905600a165627a7a723058205e761c066b3524efc9c4160a424e221b2d253bc3bf75f0862d27546dd2d543140029",
  "source": "/**\n * Copyright 2017–2018, LaborX PTY\n * Licensed under the AGPL Version 3 license.\n */\n\npragma solidity ^0.4.11;\n\nimport './Storage.sol';\n\nlibrary StorageInterface {\n\n    struct Config {\n        Storage store;\n        bytes32 crate;\n    }\n\n    struct UInt {\n        bytes32 id;\n    }\n\n    struct UInt8 {\n        bytes32 id;\n    }\n\n    struct Int {\n        bytes32 id;\n    }\n\n    struct Address {\n        bytes32 id;\n    }\n\n    struct Bool {\n        bytes32 id;\n    }\n\n    struct Bytes32 {\n        bytes32 id;\n    }\n\n    struct Mapping {\n        bytes32 id;\n    }\n\n    struct AddressBoolMapping {\n        Mapping innerMapping;\n    }\n\n    struct UintAddressBoolMapping {\n        Mapping innerMapping;\n    }\n\n    struct AddressBytes32Mapping {\n        Mapping innerMapping;\n    }\n\n    struct AddressUInt8Mapping {\n        bytes32 id;\n    }\n\n    struct AddressUIntMapping {\n        Mapping innerMapping;\n    }\n\n    struct AddressUIntUInt8Mapping {\n        Mapping innerMapping;\n    }\n\n    struct UIntUIntBoolMapping {\n        Mapping innerMapping;\n    }\n\n    struct AddressBytes4BoolMapping {\n        Mapping innerMapping;\n    }\n\n    struct AddressBytes4Bytes32Mapping {\n        Mapping innerMapping;\n    }\n\n    struct AddressUIntUIntMapping {\n        Mapping innerMapping;\n    }\n\n    struct AddressUIntUIntUIntMapping {\n        Mapping innerMapping;\n    }\n\n    struct AddressAddressUIntMapping {\n        Mapping innerMapping;\n    }\n\n    struct AddressAddressUInt8Mapping {\n        Mapping innerMapping;\n    }\n\n    struct AddressBytes32Bytes32Mapping {\n        Mapping innerMapping;\n    }\n\n    struct UIntAddressMapping {\n        Mapping innerMapping;\n    }\n\n    struct UIntAddressAddressMapping {\n        Mapping innerMapping;\n    }\n\n    struct UIntAddressUIntMapping {\n        Mapping innerMapping;\n    }\n\n    struct UIntBoolMapping {\n        Mapping innerMapping;\n    }\n\n    struct UIntUIntMapping {\n        Mapping innerMapping;\n    }\n\n    struct UIntEnumMapping {\n        Mapping innerMapping;\n    }\n\n    struct AddressUIntStructAddressUInt8Mapping {\n        AddressUInt8Mapping innerMapping;\n    }\n\n    struct AddressUIntUIntStructAddressUInt8Mapping {\n        AddressUInt8Mapping innerMapping;\n    }\n\n    struct AddressUIntUIntUIntStructAddressUInt8Mapping {\n        AddressUInt8Mapping innerMapping;\n    }\n\n    struct AddressUIntUIntUIntUIntStructAddressUInt8Mapping {\n        AddressUInt8Mapping innerMapping;\n    }\n\n    struct AddressUIntAddressUInt8Mapping {\n        Mapping innerMapping;\n    }\n\n    struct AddressUIntUIntAddressUInt8Mapping {\n        Mapping innerMapping;\n    }\n\n    struct AddressUIntUIntUIntAddressUInt8Mapping {\n        Mapping innerMapping;\n    }\n\n    struct UIntBytes32Mapping {\n        Mapping innerMapping;\n    }\n\n    struct UIntUIntBytes32Mapping {\n        Mapping innerMapping;\n    }\n\n    struct UIntUIntUIntBytes32Mapping {\n        Mapping innerMapping;\n    }\n\n    struct Set {\n        UInt count;\n        Mapping indexes;\n        Mapping values;\n    }\n\n    struct AddressesSet {\n        Set innerSet;\n    }\n\n    // Can't use modifier due to a Solidity bug.\n    function sanityCheck(bytes32 _currentId, bytes32 _newId) internal pure {\n        if (_currentId != 0 || _newId == 0) {\n            revert();\n        }\n    }\n\n    function init(Config storage self, Storage _store, bytes32 _crate) internal {\n        self.store = _store;\n        self.crate = _crate;\n    }\n\n    function init(UInt storage self, bytes32 _id) internal {\n        sanityCheck(self.id, _id);\n        self.id = _id;\n    }\n\n\n    function init(UInt8 storage self, bytes32 _id) internal {\n        sanityCheck(self.id, _id);\n        self.id = _id;\n    }\n\n    function init(Int storage self, bytes32 _id) internal {\n        sanityCheck(self.id, _id);\n        self.id = _id;\n    }\n\n    function init(Address storage self, bytes32 _id) internal {\n        sanityCheck(self.id, _id);\n        self.id = _id;\n    }\n\n    function init(Bool storage self, bytes32 _id) internal {\n        sanityCheck(self.id, _id);\n        self.id = _id;\n    }\n\n    function init(Bytes32 storage self, bytes32 _id) internal {\n        sanityCheck(self.id, _id);\n        self.id = _id;\n    }\n\n    function init(Mapping storage self, bytes32 _id) internal {\n        sanityCheck(self.id, _id);\n        self.id = _id;\n    }\n\n    function init(AddressBoolMapping storage self, bytes32 _id) internal {\n        init(self.innerMapping, _id);\n    }\n\n    function init(UintAddressBoolMapping storage self, bytes32 _id) internal {\n        init(self.innerMapping, _id);\n    }\n\n    function init(AddressBytes32Mapping storage self, bytes32 _id) internal {\n        init(self.innerMapping, _id);\n    }\n\n    function init(AddressUInt8Mapping storage self, bytes32 _id) internal {\n        sanityCheck(self.id, _id);\n        self.id = _id;\n    }\n\n    function init(AddressUIntMapping storage self, bytes32 _id) internal {\n        init(self.innerMapping, _id);\n    }\n\n    function init(AddressUIntUInt8Mapping storage self, bytes32 _id) internal {\n        init(self.innerMapping, _id);\n    }\n\n    function init(UIntUIntBoolMapping storage self, bytes32 _id) internal {\n        init(self.innerMapping, _id);\n    }\n\n    function init(AddressBytes4BoolMapping storage self, bytes32 _id) internal {\n        init(self.innerMapping, _id);\n    }\n\n    function init(AddressBytes4Bytes32Mapping storage self, bytes32 _id) internal {\n        init(self.innerMapping, _id);\n    }\n\n    function init(AddressUIntUIntMapping storage self, bytes32 _id) internal {\n        init(self.innerMapping, _id);\n    }\n\n    function init(AddressUIntUIntUIntMapping storage self, bytes32 _id) internal {\n        init(self.innerMapping, _id);\n    }\n\n    function init(AddressAddressUIntMapping storage self, bytes32 _id) internal {\n        init(self.innerMapping, _id);\n    }\n\n    function init(AddressAddressUInt8Mapping storage self, bytes32 _id) internal {\n        init(self.innerMapping, _id);\n    }\n\n    function init(AddressBytes32Bytes32Mapping storage self, bytes32 _id) internal {\n        init(self.innerMapping, _id);\n    }\n\n    function init(UIntBytes32Mapping storage self, bytes32 _id) internal {\n        init(self.innerMapping, _id);\n    }\n\n    function init(UIntAddressMapping storage self, bytes32 _id) internal {\n        init(self.innerMapping, _id);\n    }\n\n    function init(UIntAddressAddressMapping storage self, bytes32 _id) internal {\n        init(self.innerMapping, _id);\n    }\n\n    function init(UIntAddressUIntMapping storage self, bytes32 _id) internal {\n        init(self.innerMapping, _id);\n    }\n\n    function init(UIntBoolMapping storage self, bytes32 _id) internal {\n        init(self.innerMapping, _id);\n    }\n\n    function init(UIntUIntMapping storage self, bytes32 _id) internal {\n        init(self.innerMapping, _id);\n    }\n\n    function init(UIntEnumMapping storage self, bytes32 _id) internal {\n        init(self.innerMapping, _id);\n    }\n\n    function init(AddressUIntStructAddressUInt8Mapping storage self, bytes32 _id) internal {\n        init(self.innerMapping, _id);\n    }\n\n    function init(AddressUIntUIntStructAddressUInt8Mapping storage self, bytes32 _id) internal {\n        init(self.innerMapping, _id);\n    }\n\n    function init(AddressUIntUIntUIntStructAddressUInt8Mapping storage self, bytes32 _id) internal {\n        init(self.innerMapping, _id);\n    }\n\n    function init(AddressUIntUIntUIntUIntStructAddressUInt8Mapping storage self, bytes32 _id) internal {\n        init(self.innerMapping, _id);\n    }\n\n    function init(AddressUIntAddressUInt8Mapping storage self, bytes32 _id) internal {\n        init(self.innerMapping, _id);\n    }\n\n    function init(AddressUIntUIntAddressUInt8Mapping storage self, bytes32 _id) internal {\n        init(self.innerMapping, _id);\n    }\n\n    function init(AddressUIntUIntUIntAddressUInt8Mapping storage self, bytes32 _id) internal {\n        init(self.innerMapping, _id);\n    }\n\n    function init(UIntUIntBytes32Mapping storage self, bytes32 _id) internal {\n        init(self.innerMapping, _id);\n    }\n\n    function init(UIntUIntUIntBytes32Mapping storage self, bytes32 _id) internal {\n        init(self.innerMapping, _id);\n    }\n\n    function init(Set storage self, bytes32 _id) internal {\n        init(self.count, keccak256(_id, 'count'));\n        init(self.indexes, keccak256(_id, 'indexes'));\n        init(self.values, keccak256(_id, 'values'));\n    }\n\n    function init(AddressesSet storage self, bytes32 _id) internal {\n        init(self.innerSet, _id);\n    }\n\n    function set(Config storage self, UInt storage item, uint _value) internal {\n        self.store.setUInt(self.crate, item.id, _value);\n    }\n\n\n    function set(Config storage self, UInt8 storage item, uint8 _value) internal {\n        self.store.setUInt8(self.crate, item.id, _value);\n    }\n\n    function set(Config storage self, Int storage item, int _value) internal {\n        self.store.setInt(self.crate, item.id, _value);\n    }\n\n    function set(Config storage self, Address storage item, address _value) internal {\n        self.store.setAddress(self.crate, item.id, _value);\n    }\n\n    function set(Config storage self, Bool storage item, bool _value) internal {\n        self.store.setBool(self.crate, item.id, _value);\n    }\n\n    function set(Config storage self, Bytes32 storage item, bytes32 _value) internal {\n        self.store.setBytes32(self.crate, item.id, _value);\n    }\n\n    function set(Config storage self, Mapping storage item, bytes32 _key, bytes32 _value) internal {\n        self.store.setBytes32(self.crate, keccak256(item.id, _key), _value);\n    }\n\n    function set(Config storage self, AddressUInt8Mapping storage item, bytes32 _key, address _value1, uint8 _value2) internal {\n        self.store.setAddressUInt8(self.crate, keccak256(item.id, _key), _value1, _value2);\n    }\n\n    function set(Config storage self, Mapping storage item, bytes32 _key, bytes32 _key2, bytes32 _value) internal {\n        set(self, item, keccak256(_key, _key2), _value);\n    }\n\n    function set(Config storage self, Mapping storage item, bytes32 _key, bytes32 _key2, bytes32 _key3, bytes32 _value) internal {\n        set(self, item, keccak256(_key, _key2, _key3), _value);\n    }\n\n    function set(Config storage self, AddressBoolMapping storage item, address _key, bool _value) internal {\n        set(self, item.innerMapping, bytes32(_key), toBytes32(_value));\n    }\n\n    function set(Config storage self, UintAddressBoolMapping storage item, uint _key, address _key2, bool _value) internal {\n        set(self, item.innerMapping, bytes32(_key), bytes32(_key2), toBytes32(_value));\n    }\n\n    function set(Config storage self, AddressBytes32Mapping storage item, address _key, bytes32 _value) internal {\n        set(self, item.innerMapping, bytes32(_key), _value);\n    }\n\n    function set(Config storage self, AddressUIntMapping storage item, address _key, uint _value) internal {\n        set(self, item.innerMapping, bytes32(_key), bytes32(_value));\n    }\n\n    function set(Config storage self, AddressUIntUInt8Mapping storage item, address _key, uint _key2, uint8 _value) internal {\n        set(self, item.innerMapping, bytes32(_key), bytes32(_key2), bytes32(_value));\n    }\n\n    function set(Config storage self, UIntUIntBoolMapping storage item, uint _key, uint _key2, bool _value) internal {\n        set(self, item.innerMapping, bytes32(_key), bytes32(_key2), toBytes32(_value));\n    }\n\n    function set(Config storage self, AddressBytes4BoolMapping storage item, address _key, bytes4 _key2, bool _value) internal {\n        set(self, item.innerMapping, bytes32(_key), bytes32(_key2), toBytes32(_value));\n    }\n\n    function set(Config storage self, AddressBytes4Bytes32Mapping storage item, address _key, bytes4 _key2, bytes32 _value) internal {\n        set(self, item.innerMapping, bytes32(_key), bytes32(_key2), _value);\n    }\n\n    function set(Config storage self, AddressUIntUIntMapping storage item, address _key, uint _key2, uint _value) internal {\n        set(self, item.innerMapping, bytes32(_key), bytes32(_key2), bytes32(_value));\n    }\n\n    function set(Config storage self, AddressUIntUIntUIntMapping storage item, address _key, uint _key2, uint _key3, uint _value) internal {\n        set(self, item.innerMapping, bytes32(_key), bytes32(_key2), bytes32(_key3), bytes32(_value));\n    }\n\n    function set(Config storage self, AddressAddressUIntMapping storage item, address _key, address _key2, uint _value) internal {\n        set(self, item.innerMapping, bytes32(_key), bytes32(_key2), bytes32(_value));\n    }\n\n    function set(Config storage self, AddressAddressUInt8Mapping storage item, address _key, address _key2, uint8 _value) internal {\n        set(self, item.innerMapping, bytes32(_key), bytes32(_key2), bytes32(_value));\n    }\n\n    function set(Config storage self, AddressBytes32Bytes32Mapping storage item, address _key, bytes32 _key2, bytes32 _value) internal {\n        set(self, item.innerMapping, bytes32(_key), _key2, _value);\n    }\n\n    function set(Config storage self, UIntBytes32Mapping storage item, uint _key, bytes32 _value) internal {\n        set(self, item.innerMapping, bytes32(_key), _value);\n    }\n\n    function set(Config storage self, UIntAddressMapping storage item, uint _key, address _value) internal {\n        set(self, item.innerMapping, bytes32(_key), bytes32(_value));\n    }\n\n    function set(Config storage self, UIntBoolMapping storage item, uint _key, bool _value) internal {\n        set(self, item.innerMapping, bytes32(_key), toBytes32(_value));\n    }\n\n    function set(Config storage self, UIntAddressAddressMapping storage item, uint _key, address _key2, address _value) internal {\n        set(self, item.innerMapping, bytes32(_key), bytes32(_key2), bytes32(_value));\n    }\n\n    function set(Config storage self, UIntAddressUIntMapping storage item, uint _key, address _key2, uint _value) internal {\n        set(self, item.innerMapping, bytes32(_key), bytes32(_key2), bytes32(_value));\n    }\n\n    function set(Config storage self, UIntUIntMapping storage item, uint _key, uint _value) internal {\n        set(self, item.innerMapping, bytes32(_key), bytes32(_value));\n    }\n\n    function set(Config storage self, UIntEnumMapping storage item, uint _key, uint8 _value) internal {\n        set(self, item.innerMapping, bytes32(_key), bytes32(_value));\n    }\n\n    function set(Config storage self, AddressUIntStructAddressUInt8Mapping storage item, address _key, uint _key2, address _value, uint8 _value2) internal {\n        set(self, item.innerMapping, keccak256(_key, _key2), _value, _value2);\n    }\n\n    function set(Config storage self, AddressUIntUIntStructAddressUInt8Mapping storage item, address _key, uint _key2, uint _key3, address _value, uint8 _value2) internal {\n        set(self, item.innerMapping, keccak256(_key, _key2, _key3), _value, _value2);\n    }\n\n    function set(Config storage self, AddressUIntUIntUIntStructAddressUInt8Mapping storage item, address _key, uint _key2, uint _key3, uint _key4, address _value, uint8 _value2) internal {\n        set(self, item.innerMapping, keccak256(_key, _key2, _key3, _key4), _value, _value2);\n    }\n\n    function set(Config storage self, AddressUIntUIntUIntUIntStructAddressUInt8Mapping storage item, address _key, uint _key2, uint _key3, uint _key4, uint _key5, address _value, uint8 _value2) internal {\n        set(self, item.innerMapping, keccak256(_key, _key2, _key3, _key4, _key5), _value, _value2);\n    }\n\n    function set(Config storage self, AddressUIntAddressUInt8Mapping storage item, address _key, uint _key2, address _key3, uint8 _value) internal {\n        set(self, item.innerMapping, keccak256(_key, _key2, _key3), bytes32(_value));\n    }\n\n    function set(Config storage self, AddressUIntUIntAddressUInt8Mapping storage item, address _key, uint _key2, uint _key3, address _key4, uint8 _value) internal {\n        set(self, item.innerMapping, keccak256(_key, _key2, _key3, _key4), bytes32(_value));\n    }\n\n    function set(Config storage self, AddressUIntUIntUIntAddressUInt8Mapping storage item, address _key, uint _key2, uint _key3, uint _key4, address _key5, uint8 _value) internal {\n        set(self, item.innerMapping, keccak256(_key, _key2, _key3, _key4, _key5), bytes32(_value));\n    }\n\n    function set(Config storage self, UIntUIntBytes32Mapping storage item, uint _key, uint _key2, bytes32 _value) internal {\n        set(self, item.innerMapping, bytes32(_key), bytes32(_key2), _value);\n    }\n\n    function set(Config storage self, UIntUIntUIntBytes32Mapping storage item, uint _key, uint _key2, uint _key3, bytes32 _value) internal {\n        set(self, item.innerMapping, bytes32(_key), bytes32(_key2), bytes32(_key3), _value);\n    }\n\n    function add(Config storage self, Set storage item, bytes32 _value) internal {\n        if (includes(self, item, _value)) {\n            return;\n        }\n        uint newCount = count(self, item) + 1;\n        set(self, item.values, bytes32(newCount), _value);\n        set(self, item.indexes, _value, bytes32(newCount));\n        set(self, item.count, newCount);\n    }\n\n    function add(Config storage self, AddressesSet storage item, address _value) internal {\n        add(self, item.innerSet, bytes32(_value));\n    }\n\n    function remove(Config storage self, Set storage item, bytes32 _value) internal {\n        if (!includes(self, item, _value)) {\n            return;\n        }\n        uint lastIndex = count(self, item);\n        bytes32 lastValue = get(self, item.values, bytes32(lastIndex));\n        uint index = uint(get(self, item.indexes, _value));\n        if (index < lastIndex) {\n            set(self, item.indexes, lastValue, bytes32(index));\n            set(self, item.values, bytes32(index), lastValue);\n        }\n        set(self, item.indexes, _value, bytes32(0));\n        set(self, item.values, bytes32(lastIndex), bytes32(0));\n        set(self, item.count, lastIndex - 1);\n    }\n\n    function remove(Config storage self, AddressesSet storage item, address _value) internal {\n        remove(self, item.innerSet, bytes32(_value));\n    }\n\n    function get(Config storage self, UInt storage item) internal view returns (uint) {\n        return self.store.getUInt(self.crate, item.id);\n    }\n\n    function get(Config storage self, UInt8 storage item) internal view returns (uint8) {\n        return self.store.getUInt8(self.crate, item.id);\n    }\n\n    function get(Config storage self, Int storage item) internal view returns (int) {\n        return self.store.getInt(self.crate, item.id);\n    }\n\n    function get(Config storage self, Address storage item) internal view returns (address) {\n        return self.store.getAddress(self.crate, item.id);\n    }\n\n    function get(Config storage self, Bool storage item) internal view returns (bool) {\n        return self.store.getBool(self.crate, item.id);\n    }\n\n    function get(Config storage self, Bytes32 storage item) internal view returns (bytes32) {\n        return self.store.getBytes32(self.crate, item.id);\n    }\n\n    function get(Config storage self, Mapping storage item, bytes32 _key) internal view returns (bytes32) {\n        return self.store.getBytes32(self.crate, keccak256(item.id, _key));\n    }\n\n    function get(Config storage self, AddressUInt8Mapping storage item, bytes32 _key) internal view returns (address, uint8) {\n        return self.store.getAddressUInt8(self.crate, keccak256(item.id, _key));\n    }\n\n    function get(Config storage self, Mapping storage item, bytes32 _key, bytes32 _key2) internal view returns (bytes32) {\n        return get(self, item, keccak256(_key, _key2));\n    }\n\n    function get(Config storage self, Mapping storage item, bytes32 _key, bytes32 _key2, bytes32 _key3) internal view returns (bytes32) {\n        return get(self, item, keccak256(_key, _key2, _key3));\n    }\n\n    function get(Config storage self, AddressBoolMapping storage item, address _key) internal view returns (bool) {\n        return toBool(get(self, item.innerMapping, bytes32(_key)));\n    }\n\n    function get(Config storage self, UintAddressBoolMapping storage item, uint _key, address _key2) internal view returns (bool) {\n        return toBool(get(self, item.innerMapping, bytes32(_key), bytes32(_key2)));\n    }\n\n    function get(Config storage self, AddressBytes32Mapping storage item, address _key) internal view returns (bytes32) {\n        return get(self, item.innerMapping, bytes32(_key));\n    }\n\n    function get(Config storage self, AddressUIntMapping storage item, address _key) internal view returns (uint) {\n        return uint(get(self, item.innerMapping, bytes32(_key)));\n    }\n\n    function get(Config storage self, AddressUIntUInt8Mapping storage item, address _key, uint _key2) internal view returns (uint) {\n        return uint8(get(self, item.innerMapping, bytes32(_key), bytes32(_key2)));\n    }\n\n    function get(Config storage self, UIntUIntBoolMapping storage item, uint _key, uint _key2) internal view returns (bool) {\n        return toBool(get(self, item.innerMapping, bytes32(_key), bytes32(_key2)));\n    }\n\n    function get(Config storage self, AddressBytes4BoolMapping storage item, address _key, bytes4 _key2) internal view returns (bool) {\n        return toBool(get(self, item.innerMapping, bytes32(_key), bytes32(_key2)));\n    }\n\n    function get(Config storage self, AddressBytes4Bytes32Mapping storage item, address _key, bytes4 _key2) internal view returns (bytes32) {\n        return get(self, item.innerMapping, bytes32(_key), bytes32(_key2));\n    }\n\n    function get(Config storage self, AddressUIntUIntMapping storage item, address _key, uint _key2) internal view returns (uint) {\n        return uint(get(self, item.innerMapping, bytes32(_key), bytes32(_key2)));\n    }\n\n    function get(Config storage self, AddressUIntUIntUIntMapping storage item, address _key, uint _key2, uint _key3) internal view returns (uint) {\n        return uint(get(self, item.innerMapping, bytes32(_key), bytes32(_key2), bytes32(_key3)));\n    }\n\n    function get(Config storage self, AddressAddressUIntMapping storage item, address _key, address _key2) internal view returns (uint) {\n        return uint(get(self, item.innerMapping, bytes32(_key), bytes32(_key2)));\n    }\n\n    function get(Config storage self, AddressAddressUInt8Mapping storage item, address _key, address _key2) internal view returns (uint8) {\n        return uint8(get(self, item.innerMapping, bytes32(_key), bytes32(_key2)));\n    }\n\n    function get(Config storage self, AddressBytes32Bytes32Mapping storage item, address _key, bytes32 _key2) internal view returns (bytes32) {\n        return get(self, item.innerMapping, bytes32(_key), _key2);\n    }\n\n    function get(Config storage self, UIntBytes32Mapping storage item, uint _key) internal view returns (bytes32) {\n        return get(self, item.innerMapping, bytes32(_key));\n    }\n\n    function get(Config storage self, UIntAddressMapping storage item, uint _key) internal view returns (address) {\n        return address(get(self, item.innerMapping, bytes32(_key)));\n    }\n\n    function get(Config storage self, UIntBoolMapping storage item, uint _key) internal view returns (bool) {\n        return toBool(get(self, item.innerMapping, bytes32(_key)));\n    }\n\n    function get(Config storage self, UIntAddressAddressMapping storage item, uint _key, address _key2) internal view returns (address) {\n        return address(get(self, item.innerMapping, bytes32(_key), bytes32(_key2)));\n    }\n\n    function get(Config storage self, UIntAddressUIntMapping storage item, uint _key, address _key2) internal view returns (uint) {\n        return uint(get(self, item.innerMapping, bytes32(_key), bytes32(_key2)));\n    }\n\n    function get(Config storage self, UIntUIntMapping storage item, uint _key) internal view returns (uint) {\n        return uint(get(self, item.innerMapping, bytes32(_key)));\n    }\n\n    function get(Config storage self, UIntEnumMapping storage item, uint _key) internal view returns (uint8) {\n        return uint8(get(self, item.innerMapping, bytes32(_key)));\n    }\n\n    function get(Config storage self, AddressUIntStructAddressUInt8Mapping storage item, address _key, uint _key2) internal view returns (address, uint8) {\n        return get(self, item.innerMapping, keccak256(_key, _key2));\n    }\n\n    function get(Config storage self, AddressUIntUIntStructAddressUInt8Mapping storage item, address _key, uint _key2, uint _key3) internal view returns (address, uint8) {\n        return get(self, item.innerMapping, keccak256(_key, _key2, _key3));\n    }\n\n    function get(Config storage self, AddressUIntUIntUIntStructAddressUInt8Mapping storage item, address _key, uint _key2, uint _key3, uint _key4) internal view returns (address, uint8) {\n        return get(self, item.innerMapping, keccak256(_key, _key2, _key3, _key4));\n    }\n\n    function get(Config storage self, AddressUIntUIntUIntUIntStructAddressUInt8Mapping storage item, address _key, uint _key2, uint _key3, uint _key4, uint _key5) internal view returns (address, uint8) {\n        return get(self, item.innerMapping, keccak256(_key, _key2, _key3, _key4, _key5));\n    }\n\n    function get(Config storage self, AddressUIntAddressUInt8Mapping storage item, address _key, uint _key2, address _key3) internal view returns (uint8) {\n        return uint8(get(self, item.innerMapping, keccak256(_key, _key2, _key3)));\n    }\n\n    function get(Config storage self, AddressUIntUIntAddressUInt8Mapping storage item, address _key, uint _key2, uint _key3, address _key4) internal view returns (uint8) {\n        return uint8(get(self, item.innerMapping, keccak256(_key, _key2, _key3, _key4)));\n    }\n\n    function get(Config storage self, AddressUIntUIntUIntAddressUInt8Mapping storage item, address _key, uint _key2, uint _key3, uint _key4, address _key5) internal view returns (uint8) {\n        return uint8(get(self, item.innerMapping, keccak256(_key, _key2, _key3, _key4, _key5)));\n    }\n\n    function get(Config storage self, UIntUIntBytes32Mapping storage item, uint _key, uint _key2) internal view returns (bytes32) {\n        return get(self, item.innerMapping, bytes32(_key), bytes32(_key2));\n    }\n\n    function get(Config storage self, UIntUIntUIntBytes32Mapping storage item, uint _key, uint _key2, uint _key3) internal view returns (bytes32) {\n        return get(self, item.innerMapping, bytes32(_key), bytes32(_key2), bytes32(_key3));\n    }\n\n    function includes(Config storage self, Set storage item, bytes32 _value) internal view returns (bool) {\n        return get(self, item.indexes, _value) != 0;\n    }\n\n    function includes(Config storage self, AddressesSet storage item, address _value) internal view returns (bool) {\n        return includes(self, item.innerSet, bytes32(_value));\n    }\n\n    function count(Config storage self, Set storage item) internal view returns (uint) {\n        return get(self, item.count);\n    }\n\n    function count(Config storage self, AddressesSet storage item) internal view returns (uint) {\n        return count(self, item.innerSet);\n    }\n\n    function get(Config storage self, Set storage item) internal view returns (bytes32[]) {\n        uint valuesCount = count(self, item);\n        bytes32[] memory result = new bytes32[](valuesCount);\n        for (uint i = 0; i < valuesCount; i++) {\n            result[i] = get(self, item, i);\n        }\n        return result;\n    }\n\n    function get(Config storage self, AddressesSet storage item) internal view returns (address[]) {\n        return toAddresses(get(self, item.innerSet));\n    }\n\n    function get(Config storage self, Set storage item, uint _index) internal view returns (bytes32) {\n        return get(self, item.values, bytes32(_index + 1));\n    }\n\n    function get(Config storage self, AddressesSet storage item, uint _index) internal view returns (address) {\n        return address(get(self, item.innerSet, _index));\n    }\n\n    function toBool(bytes32 self) public pure returns (bool) {\n        return self != bytes32(0);\n    }\n\n    function toBytes32(bool self) public pure returns (bytes32) {\n        return bytes32(self ? 1 : 0);\n    }\n\n    function toAddresses(bytes32[] memory self) public pure returns (address[]) {\n        address[] memory result = new address[](self.length);\n        for (uint i = 0; i < self.length; i++) {\n            result[i] = address(self[i]);\n        }\n        return result;\n    }\n}\n",
  "sourcePath": "/Users/ahiatsevich/Development/chronobank/LX-SC/contracts/StorageInterface.sol",
  "compiler": {
    "name": "solc",
    "version": "0.4.19+commit.c4cbbb05.Emscripten.clang"
  },
  "schemaVersion": "2.0.0",
  "updatedAt": "2018-05-08T10:25:30.297Z"
}