{
  "contractName": "StorageTester",
  "abi": [
    {
      "inputs": [
        {
          "name": "_store",
          "type": "address"
        },
        {
          "name": "_crate",
          "type": "bytes32"
        }
      ],
      "payable": false,
      "stateMutability": "nonpayable",
      "type": "constructor"
    },
    {
      "constant": false,
      "inputs": [],
      "name": "reinit",
      "outputs": [],
      "payable": false,
      "stateMutability": "nonpayable",
      "type": "function"
    },
    {
      "constant": false,
      "inputs": [
        {
          "name": "_value",
          "type": "uint256"
        }
      ],
      "name": "setUInt",
      "outputs": [],
      "payable": false,
      "stateMutability": "nonpayable",
      "type": "function"
    },
    {
      "constant": true,
      "inputs": [],
      "name": "getUInt",
      "outputs": [
        {
          "name": "",
          "type": "uint256"
        }
      ],
      "payable": false,
      "stateMutability": "view",
      "type": "function"
    },
    {
      "constant": false,
      "inputs": [
        {
          "name": "_value",
          "type": "int256"
        }
      ],
      "name": "setInt",
      "outputs": [],
      "payable": false,
      "stateMutability": "nonpayable",
      "type": "function"
    },
    {
      "constant": true,
      "inputs": [],
      "name": "getInt",
      "outputs": [
        {
          "name": "",
          "type": "int256"
        }
      ],
      "payable": false,
      "stateMutability": "view",
      "type": "function"
    },
    {
      "constant": false,
      "inputs": [
        {
          "name": "_value",
          "type": "address"
        }
      ],
      "name": "setAddress",
      "outputs": [],
      "payable": false,
      "stateMutability": "nonpayable",
      "type": "function"
    },
    {
      "constant": true,
      "inputs": [],
      "name": "getAddress",
      "outputs": [
        {
          "name": "",
          "type": "address"
        }
      ],
      "payable": false,
      "stateMutability": "view",
      "type": "function"
    },
    {
      "constant": false,
      "inputs": [
        {
          "name": "_value",
          "type": "bool"
        }
      ],
      "name": "setBool",
      "outputs": [],
      "payable": false,
      "stateMutability": "nonpayable",
      "type": "function"
    },
    {
      "constant": true,
      "inputs": [],
      "name": "getBool",
      "outputs": [
        {
          "name": "",
          "type": "bool"
        }
      ],
      "payable": false,
      "stateMutability": "view",
      "type": "function"
    },
    {
      "constant": false,
      "inputs": [
        {
          "name": "_value",
          "type": "bytes32"
        }
      ],
      "name": "setBytes32",
      "outputs": [],
      "payable": false,
      "stateMutability": "nonpayable",
      "type": "function"
    },
    {
      "constant": true,
      "inputs": [],
      "name": "getBytes32",
      "outputs": [
        {
          "name": "",
          "type": "bytes32"
        }
      ],
      "payable": false,
      "stateMutability": "view",
      "type": "function"
    },
    {
      "constant": false,
      "inputs": [
        {
          "name": "_key",
          "type": "bytes32"
        },
        {
          "name": "_value",
          "type": "bytes32"
        }
      ],
      "name": "setMapping",
      "outputs": [],
      "payable": false,
      "stateMutability": "nonpayable",
      "type": "function"
    },
    {
      "constant": true,
      "inputs": [
        {
          "name": "_key",
          "type": "bytes32"
        }
      ],
      "name": "getMapping",
      "outputs": [
        {
          "name": "",
          "type": "bytes32"
        }
      ],
      "payable": false,
      "stateMutability": "view",
      "type": "function"
    },
    {
      "constant": false,
      "inputs": [
        {
          "name": "_key",
          "type": "address"
        },
        {
          "name": "_value",
          "type": "uint256"
        }
      ],
      "name": "setAddressUIntMapping",
      "outputs": [],
      "payable": false,
      "stateMutability": "nonpayable",
      "type": "function"
    },
    {
      "constant": true,
      "inputs": [
        {
          "name": "_key",
          "type": "address"
        }
      ],
      "name": "getAddressUIntMapping",
      "outputs": [
        {
          "name": "",
          "type": "uint256"
        }
      ],
      "payable": false,
      "stateMutability": "view",
      "type": "function"
    },
    {
      "constant": false,
      "inputs": [
        {
          "name": "_value",
          "type": "bytes32"
        }
      ],
      "name": "addSet",
      "outputs": [],
      "payable": false,
      "stateMutability": "nonpayable",
      "type": "function"
    },
    {
      "constant": false,
      "inputs": [
        {
          "name": "_value",
          "type": "bytes32"
        }
      ],
      "name": "removeSet",
      "outputs": [],
      "payable": false,
      "stateMutability": "nonpayable",
      "type": "function"
    },
    {
      "constant": true,
      "inputs": [
        {
          "name": "_value",
          "type": "bytes32"
        }
      ],
      "name": "includesSet",
      "outputs": [
        {
          "name": "",
          "type": "bool"
        }
      ],
      "payable": false,
      "stateMutability": "view",
      "type": "function"
    },
    {
      "constant": true,
      "inputs": [],
      "name": "countSet",
      "outputs": [
        {
          "name": "",
          "type": "uint256"
        }
      ],
      "payable": false,
      "stateMutability": "view",
      "type": "function"
    },
    {
      "constant": true,
      "inputs": [],
      "name": "getSet",
      "outputs": [
        {
          "name": "",
          "type": "bytes32[]"
        }
      ],
      "payable": false,
      "stateMutability": "view",
      "type": "function"
    },
    {
      "constant": false,
      "inputs": [
        {
          "name": "_value",
          "type": "address"
        }
      ],
      "name": "addAddressesSet",
      "outputs": [],
      "payable": false,
      "stateMutability": "nonpayable",
      "type": "function"
    },
    {
      "constant": false,
      "inputs": [
        {
          "name": "_value",
          "type": "address"
        }
      ],
      "name": "removeAddressesSet",
      "outputs": [],
      "payable": false,
      "stateMutability": "nonpayable",
      "type": "function"
    },
    {
      "constant": true,
      "inputs": [
        {
          "name": "_value",
          "type": "address"
        }
      ],
      "name": "includesAddressesSet",
      "outputs": [
        {
          "name": "",
          "type": "bool"
        }
      ],
      "payable": false,
      "stateMutability": "view",
      "type": "function"
    },
    {
      "constant": true,
      "inputs": [],
      "name": "countAddressesSet",
      "outputs": [
        {
          "name": "",
          "type": "uint256"
        }
      ],
      "payable": false,
      "stateMutability": "view",
      "type": "function"
    },
    {
      "constant": true,
      "inputs": [],
      "name": "getAddressesSet",
      "outputs": [
        {
          "name": "",
          "type": "address[]"
        }
      ],
      "payable": false,
      "stateMutability": "view",
      "type": "function"
    }
  ],
  "bytecode": "0x606060405234156200001057600080fd5b604051604080620015a883398101604052808051919060200180519150829050816200004d600083836401000000006200110e6200007582021704565b50506200006d6200009b64010000000002620005b1176401000000009004565b50506200042b565b8254600160a060020a031916600160a060020a0392909216919091178255600190910155565b620000d660027f75696e745661720000000000000000000000000000000000000000000000000064010000000062000dfc620002b082021704565b6200011160037f696e74566172000000000000000000000000000000000000000000000000000064010000000062000dfc620002b082021704565b6200014c60047f616464726573735661720000000000000000000000000000000000000000000064010000000062000dfc620002b082021704565b6200018760057f626f6f6c5661720000000000000000000000000000000000000000000000000064010000000062000dfc620002b082021704565b620001c260067f627974657333325661720000000000000000000000000000000000000000000064010000000062000dfc620002b082021704565b620001fd60077f6d617070696e675661720000000000000000000000000000000000000000000064010000000062000dfc620002b082021704565b6200023860087f6164647265737355496e744d617070696e67566172000000000000000000000064010000000062000e48620002d082021704565b6200027360097f736574566172000000000000000000000000000000000000000000000000000064010000000062000e52620002ee82021704565b620002ae600c7f616464726573736573536574566172000000000000000000000000000000000064010000000062000f1b620003f982021704565b565b8154620002cc9082640100000000620010e66200041382021704565b9055565b620002ea828264010000000062000dfc620002b082021704565b5050565b6200034582826040519081527f636f756e7400000000000000000000000000000000000000000000000000000060208201526025016040518091039020620002b06401000000000262000dfc176401000000009004565b6200039f82600101826040519081527f696e64657865730000000000000000000000000000000000000000000000000060208201526027016040518091039020620002b06401000000000262000dfc176401000000009004565b620002ea82600201826040519081527f76616c756573000000000000000000000000000000000000000000000000000060208201526026016040518091039020620002b06401000000000262000dfc176401000000009004565b620002ea828264010000000062000e52620002ee82021704565b8115158062000420575080155b15620002ea57600080fd5b61116d806200043b6000396000f30060606040526004361061012f5763ffffffff60e060020a60003504166301d97f08811461013457806312a7b9141461014f5780631e26fd33146101765780631f9030371461018e57806331f070d9146101b35780633618c2a21461021957806338cc4831146102385780633f7525bf14610267578063494cf3331461027a5780634a7160a2146102995780634ea05686146102af578063616f7bc9146102c257806362738998146102e1578063747586b8146102f457806392e1ab171461030a5780639378a9e214610329578063aec9c4801461033f578063b670093014610355578063b6e456bb1461036b578063c2b12a731461037e578063c482ceaf14610394578063d27399b5146103a7578063e1281280146103ba578063e2c14bdd146103dc578063e30081a0146103f2575b600080fd5b341561013f57600080fd5b61014d600435602435610411565b005b341561015a57600080fd5b610162610429565b604051901515815260200160405180910390f35b341561018157600080fd5b61014d6004351515610441565b341561019957600080fd5b6101a1610457565b60405190815260200160405180910390f35b34156101be57600080fd5b6101c661046a565b60405160208082528190810183818151815260200191508051906020019060200280838360005b838110156102055780820151838201526020016101ed565b505050509050019250505060405180910390f35b341561022457600080fd5b61014d600160a060020a0360043516610484565b341561024357600080fd5b61024b610497565b604051600160a060020a03909116815260200160405180910390f35b341561027257600080fd5b6101c66104aa565b341561028557600080fd5b6101a1600160a060020a03600435166104c4565b34156102a457600080fd5b61014d6004356104de565b34156102ba57600080fd5b6101a16104f1565b34156102cd57600080fd5b61014d600160a060020a0360043516610504565b34156102ec57600080fd5b6101a1610517565b34156102ff57600080fd5b61014d60043561052a565b341561031557600080fd5b610162600160a060020a036004351661053d565b341561033457600080fd5b61014d600435610551565b341561034a57600080fd5b610162600435610564565b341561036057600080fd5b61014d600435610578565b341561037657600080fd5b6101a161058b565b341561038957600080fd5b61014d60043561059e565b341561039f57600080fd5b61014d6105b1565b34156103b257600080fd5b6101a161076c565b34156103c557600080fd5b61014d600160a060020a036004351660243561077f565b34156103e757600080fd5b6101a1600435610793565b34156103fd57600080fd5b61014d600160a060020a03600435166107a7565b61042560006007848463ffffffff6107ba16565b5050565b600061043c81600563ffffffff61084c16565b905090565b610454600060058363ffffffff6108cc16565b50565b600061043c81600663ffffffff61094716565b6104726110fc565b61043c6000600963ffffffff6109a616565b6104546000600c8363ffffffff610a2616565b600061043c81600463ffffffff610a3f16565b6104b26110fc565b61043c6000600c63ffffffff610a9e16565b60006104d88160088463ffffffff610abf16565b92915050565b610454600060098363ffffffff610add16565b600061043c81600963ffffffff610b3216565b6104546000600c8363ffffffff610b3e16565b600061043c81600363ffffffff610b5216565b610454600060038363ffffffff610bb116565b60006104d881600c8463ffffffff610c1116565b610454600060028363ffffffff610c2716565b60006104d88160098463ffffffff610c8716565b610454600060098363ffffffff610ca116565b600061043c81600263ffffffff610d3d16565b610454600060068363ffffffff610d9c16565b6105e260027f75696e745661720000000000000000000000000000000000000000000000000063ffffffff610dfc16565b61061360037f696e74566172000000000000000000000000000000000000000000000000000063ffffffff610dfc16565b61064460047f616464726573735661720000000000000000000000000000000000000000000063ffffffff610dfc16565b61067560057f626f6f6c5661720000000000000000000000000000000000000000000000000063ffffffff610dfc16565b6106a660067f627974657333325661720000000000000000000000000000000000000000000063ffffffff610dfc16565b6106d760077f6d617070696e675661720000000000000000000000000000000000000000000063ffffffff610dfc16565b61070860087f6164647265737355496e744d617070696e67566172000000000000000000000063ffffffff610e4816565b61073960097f736574566172000000000000000000000000000000000000000000000000000063ffffffff610e5216565b61076a600c7f616464726573736573536574566172000000000000000000000000000000000063ffffffff610f1b16565b565b600061043c81600c63ffffffff610f2516565b61042560006008848463ffffffff610f3116565b60006104d88160078463ffffffff610f4616565b610454600060048363ffffffff610fe016565b835460018501548454600160a060020a039092169163a14ff85791908560405191825260208201526040908101905180910390208460405160e060020a63ffffffff8616028152600481019390935260248301919091526044820152606401600060405180830381600087803b151561083257600080fd5b6102c65a03f1151561084357600080fd5b50505050505050565b815460018301548254600092600160a060020a0316916398eaf11c91846040516020015260405160e060020a63ffffffff851602815260048101929092526024820152604401602060405180830381600087803b15156108ab57600080fd5b6102c65a03f115156108bc57600080fd5b5050506040518051949350505050565b825460018401548354600160a060020a039092169163f0f53ee491908460405160e060020a63ffffffff86160281526004810193909352602483019190915215156044820152606401600060405180830381600087803b151561092e57600080fd5b6102c65a03f1151561093f57600080fd5b505050505050565b815460018301548254600092600160a060020a0316916337d9d7fc91846040516020015260405160e060020a63ffffffff851602815260048101929092526024820152604401602060405180830381600087803b15156108ab57600080fd5b6109ae6110fc565b60006109b86110fc565b60006109c48686610b32565b9250826040518059106109d45750595b90808252806020026020018201604052509150600090505b82811015610a1d576109ff868683611049565b828281518110610a0b57fe5b602090810290910101526001016109ec565b50949350505050565b610a3a8383600160a060020a038416610ca1565b505050565b815460018301548254600092600160a060020a03169163d3a3968691846040516020015260405160e060020a63ffffffff851602815260048101929092526024820152604401602060405180830381600087803b15156108ab57600080fd5b610aa66110fc565b610ab8610ab384846109a6565b61105c565b9392505050565b6000610ad58484600160a060020a038516610f46565b949350505050565b6000610aea848484610c87565b15610af457610b2c565b610afe8484610b32565b6001019050610b12846002850183856107ba565b610b21846001850184846107ba565b610b2c848483610c27565b50505050565b6000610ab88383610d3d565b610a3a8383600160a060020a038416610add565b815460018301548254600092600160a060020a03169163a6fbf3d291846040516020015260405160e060020a63ffffffff851602815260048101929092526024820152604401602060405180830381600087803b15156108ab57600080fd5b825460018401548354600160a060020a039092169163061c880091908460405160e060020a63ffffffff8616028152600481019390935260248301919091526044820152606401600060405180830381600087803b151561092e57600080fd5b6000610ad58484600160a060020a038516610c87565b825460018401548354600160a060020a03909216916353e7168b91908460405160e060020a63ffffffff8616028152600481019390935260248301919091526044820152606401600060405180830381600087803b151561092e57600080fd5b6000610c97848460010184610f46565b1515949350505050565b6000806000610cb1868686610c87565b1515610cbc5761093f565b610cc68686610b32565b9250610cd6866002870185610f46565b9150610ce6868660010186610f46565b905082811015610d0e57610cff866001870184846107ba565b610d0e866002870183856107ba565b610d1e86600187018660006107ba565b610d2e86600287018560006107ba565b61093f86866000198601610c27565b815460018301548254600092600160a060020a0316916353aa3f5e91846040516020015260405160e060020a63ffffffff851602815260048101929092526024820152604401602060405180830381600087803b15156108ab57600080fd5b825460018401548354600160a060020a039092169163a14ff85791908460405160e060020a63ffffffff8616028152600481019390935260248301919091526044820152606401600060405180830381600087803b151561092e57600080fd5b8154610e0890826110e6565b9055565b8154610e0890826110e6565b8154610e0890826110e6565b8154610e0890826110e6565b8154610e0890826110e6565b8154610e0890826110e6565b6104258282610dfc565b610e9382826040519081527f636f756e7400000000000000000000000000000000000000000000000000000060208201526025016040518091039020610dfc565b610ed782600101826040519081527f696e64657865730000000000000000000000000000000000000000000000000060208201526027016040518091039020610dfc565b61042582600201826040519081527f76616c756573000000000000000000000000000000000000000000000000000060208201526026016040518091039020610dfc565b6104258282610e52565b6000610ab88383610b32565b610b2c8484600160a060020a038516846107ba565b825460018401548354600092600160a060020a0316916337d9d7fc9185604051918252602082015260409081019051809103902060006040516020015260405160e060020a63ffffffff851602815260048101929092526024820152604401602060405180830381600087803b1515610fbe57600080fd5b6102c65a03f11515610fcf57600080fd5b505050604051805195945050505050565b825460018401548354600160a060020a03909216916379a7cfee91908460405160e060020a63ffffffff861602815260048101939093526024830191909152600160a060020a03166044820152606401600060405180830381600087803b151561092e57600080fd5b6000610ad5846002850160018501610f46565b6110646110fc565b61106c6110fc565b6000835160405180591061107d5750595b90808252806020026020018201604052509150600090505b83518110156110df578381815181106110aa57fe5b906020019060200201518282815181106110c057fe5b600160a060020a03909216602092830290910190910152600101611095565b5092915050565b811515806110f2575080155b1561042557600080fd5b60206040519081016040526000815290565b825473ffffffffffffffffffffffffffffffffffffffff1916600160a060020a03929092169190911782556001909101555600a165627a7a7230582044acf9d611d7d5b1198fdd0742d6bcb53f80dbe96092d970c75e70e468e17bff0029",
  "source": "/**\n * Copyright 2017–2018, LaborX PTY\n * Licensed under the AGPL Version 3 license.\n */\n\npragma solidity ^0.4.18;\n\nimport '../adapters/StorageAdapter.sol';\n\ncontract StorageTester is StorageAdapter {\n\n    StorageInterface.UInt uintVar;\n    StorageInterface.Int intVar;\n    StorageInterface.Address addressVar;\n    StorageInterface.Bool boolVar;\n    StorageInterface.Bytes32 bytes32Var;\n    StorageInterface.Mapping mappingVar;\n    StorageInterface.AddressUIntMapping addressUIntMappingVar;\n    StorageInterface.Set setVar;\n    StorageInterface.AddressesSet addressesSetVar;\n\n    function StorageTester(Storage _store, bytes32 _crate) StorageAdapter(_store, _crate) public {\n        reinit();\n    }\n\n    function reinit() public {\n        uintVar.init('uintVar');\n        intVar.init('intVar');\n        addressVar.init('addressVar');\n        boolVar.init('boolVar');\n        bytes32Var.init('bytes32Var');\n        mappingVar.init('mappingVar');\n        addressUIntMappingVar.init('addressUIntMappingVar');\n        setVar.init('setVar');\n        addressesSetVar.init('addressesSetVar');\n    }\n\n    function setUInt(uint _value) external {\n        store.set(uintVar, _value);\n    }\n\n    function getUInt() public view returns (uint) {\n        return store.get(uintVar);\n    }\n\n    function setInt(int _value) external {\n        store.set(intVar, _value);\n    }\n\n    function getInt() public view returns (int) {\n        return store.get(intVar);\n    }\n\n    function setAddress(address _value) external {\n        store.set(addressVar, _value);\n    }\n\n    function getAddress() public view returns (address) {\n        return store.get(addressVar);\n    }\n\n    function setBool(bool _value) external {\n        store.set(boolVar, _value);\n    }\n\n    function getBool() public view returns (bool) {\n        return store.get(boolVar);\n    }\n\n    function setBytes32(bytes32 _value) external {\n        store.set(bytes32Var, _value);\n    }\n\n    function getBytes32() public view returns (bytes32) {\n        return store.get(bytes32Var);\n    }\n\n    function setMapping(bytes32 _key, bytes32 _value) external {\n        store.set(mappingVar, _key, _value);\n    }\n\n    function getMapping(bytes32 _key) external view returns (bytes32) {\n        return store.get(mappingVar, _key);\n    }\n\n    function setAddressUIntMapping(address _key, uint _value) external {\n        store.set(addressUIntMappingVar, _key, _value);\n    }\n\n    function getAddressUIntMapping(address _key) external view returns (uint) {\n        return store.get(addressUIntMappingVar, _key);\n    }\n\n    function addSet(bytes32 _value) external {\n        store.add(setVar, _value);\n    }\n\n    function removeSet(bytes32 _value) external {\n        store.remove(setVar, _value);\n    }\n\n    function includesSet(bytes32 _value) external view returns (bool) {\n        return store.includes(setVar, _value);\n    }\n\n    function countSet() public view returns (uint) {\n        return store.count(setVar);\n    }\n\n    function getSet() public view returns (bytes32[]) {\n        return store.get(setVar);\n    }\n\n    function addAddressesSet(address _value) external {\n        store.add(addressesSetVar, _value);\n    }\n\n    function removeAddressesSet(address _value) external {\n        store.remove(addressesSetVar, _value);\n    }\n\n    function includesAddressesSet(address _value) external view returns (bool) {\n        return store.includes(addressesSetVar, _value);\n    }\n\n    function countAddressesSet() public view returns (uint) {\n        return store.count(addressesSetVar);\n    }\n\n    function getAddressesSet() public view returns (address[]) {\n        return store.get(addressesSetVar);\n    }\n}\n",
  "sourcePath": "/Users/ahiatsevich/Development/chronobank/LX-SC/contracts/helpers/StorageTester.sol",
  "compiler": {
    "name": "solc",
    "version": "0.4.19+commit.c4cbbb05.Emscripten.clang"
  },
  "schemaVersion": "2.0.0",
  "updatedAt": "2018-05-21T17:51:41.079Z"
}