{
  "contractName": "StorageTester",
  "abi": [
    {
      "inputs": [
        {
          "name": "_store",
          "type": "address"
        },
        {
          "name": "_crate",
          "type": "bytes32"
        }
      ],
      "payable": false,
      "stateMutability": "nonpayable",
      "type": "constructor"
    },
    {
      "constant": false,
      "inputs": [],
      "name": "reinit",
      "outputs": [],
      "payable": false,
      "stateMutability": "nonpayable",
      "type": "function"
    },
    {
      "constant": false,
      "inputs": [
        {
          "name": "_value",
          "type": "uint256"
        }
      ],
      "name": "setUInt",
      "outputs": [],
      "payable": false,
      "stateMutability": "nonpayable",
      "type": "function"
    },
    {
      "constant": true,
      "inputs": [],
      "name": "getUInt",
      "outputs": [
        {
          "name": "",
          "type": "uint256"
        }
      ],
      "payable": false,
      "stateMutability": "view",
      "type": "function"
    },
    {
      "constant": false,
      "inputs": [
        {
          "name": "_value",
          "type": "int256"
        }
      ],
      "name": "setInt",
      "outputs": [],
      "payable": false,
      "stateMutability": "nonpayable",
      "type": "function"
    },
    {
      "constant": true,
      "inputs": [],
      "name": "getInt",
      "outputs": [
        {
          "name": "",
          "type": "int256"
        }
      ],
      "payable": false,
      "stateMutability": "view",
      "type": "function"
    },
    {
      "constant": false,
      "inputs": [
        {
          "name": "_value",
          "type": "address"
        }
      ],
      "name": "setAddress",
      "outputs": [],
      "payable": false,
      "stateMutability": "nonpayable",
      "type": "function"
    },
    {
      "constant": true,
      "inputs": [],
      "name": "getAddress",
      "outputs": [
        {
          "name": "",
          "type": "address"
        }
      ],
      "payable": false,
      "stateMutability": "view",
      "type": "function"
    },
    {
      "constant": false,
      "inputs": [
        {
          "name": "_value",
          "type": "bool"
        }
      ],
      "name": "setBool",
      "outputs": [],
      "payable": false,
      "stateMutability": "nonpayable",
      "type": "function"
    },
    {
      "constant": true,
      "inputs": [],
      "name": "getBool",
      "outputs": [
        {
          "name": "",
          "type": "bool"
        }
      ],
      "payable": false,
      "stateMutability": "view",
      "type": "function"
    },
    {
      "constant": false,
      "inputs": [
        {
          "name": "_value",
          "type": "bytes32"
        }
      ],
      "name": "setBytes32",
      "outputs": [],
      "payable": false,
      "stateMutability": "nonpayable",
      "type": "function"
    },
    {
      "constant": true,
      "inputs": [],
      "name": "getBytes32",
      "outputs": [
        {
          "name": "",
          "type": "bytes32"
        }
      ],
      "payable": false,
      "stateMutability": "view",
      "type": "function"
    },
    {
      "constant": false,
      "inputs": [
        {
          "name": "_key",
          "type": "bytes32"
        },
        {
          "name": "_value",
          "type": "bytes32"
        }
      ],
      "name": "setMapping",
      "outputs": [],
      "payable": false,
      "stateMutability": "nonpayable",
      "type": "function"
    },
    {
      "constant": true,
      "inputs": [
        {
          "name": "_key",
          "type": "bytes32"
        }
      ],
      "name": "getMapping",
      "outputs": [
        {
          "name": "",
          "type": "bytes32"
        }
      ],
      "payable": false,
      "stateMutability": "view",
      "type": "function"
    },
    {
      "constant": false,
      "inputs": [
        {
          "name": "_key",
          "type": "address"
        },
        {
          "name": "_value",
          "type": "uint256"
        }
      ],
      "name": "setAddressUIntMapping",
      "outputs": [],
      "payable": false,
      "stateMutability": "nonpayable",
      "type": "function"
    },
    {
      "constant": true,
      "inputs": [
        {
          "name": "_key",
          "type": "address"
        }
      ],
      "name": "getAddressUIntMapping",
      "outputs": [
        {
          "name": "",
          "type": "uint256"
        }
      ],
      "payable": false,
      "stateMutability": "view",
      "type": "function"
    },
    {
      "constant": false,
      "inputs": [
        {
          "name": "_value",
          "type": "bytes32"
        }
      ],
      "name": "addSet",
      "outputs": [],
      "payable": false,
      "stateMutability": "nonpayable",
      "type": "function"
    },
    {
      "constant": false,
      "inputs": [
        {
          "name": "_value",
          "type": "bytes32"
        }
      ],
      "name": "removeSet",
      "outputs": [],
      "payable": false,
      "stateMutability": "nonpayable",
      "type": "function"
    },
    {
      "constant": true,
      "inputs": [
        {
          "name": "_value",
          "type": "bytes32"
        }
      ],
      "name": "includesSet",
      "outputs": [
        {
          "name": "",
          "type": "bool"
        }
      ],
      "payable": false,
      "stateMutability": "view",
      "type": "function"
    },
    {
      "constant": true,
      "inputs": [],
      "name": "countSet",
      "outputs": [
        {
          "name": "",
          "type": "uint256"
        }
      ],
      "payable": false,
      "stateMutability": "view",
      "type": "function"
    },
    {
      "constant": true,
      "inputs": [],
      "name": "getSet",
      "outputs": [
        {
          "name": "",
          "type": "bytes32[]"
        }
      ],
      "payable": false,
      "stateMutability": "view",
      "type": "function"
    },
    {
      "constant": false,
      "inputs": [
        {
          "name": "_value",
          "type": "address"
        }
      ],
      "name": "addAddressesSet",
      "outputs": [],
      "payable": false,
      "stateMutability": "nonpayable",
      "type": "function"
    },
    {
      "constant": false,
      "inputs": [
        {
          "name": "_value",
          "type": "address"
        }
      ],
      "name": "removeAddressesSet",
      "outputs": [],
      "payable": false,
      "stateMutability": "nonpayable",
      "type": "function"
    },
    {
      "constant": true,
      "inputs": [
        {
          "name": "_value",
          "type": "address"
        }
      ],
      "name": "includesAddressesSet",
      "outputs": [
        {
          "name": "",
          "type": "bool"
        }
      ],
      "payable": false,
      "stateMutability": "view",
      "type": "function"
    },
    {
      "constant": true,
      "inputs": [],
      "name": "countAddressesSet",
      "outputs": [
        {
          "name": "",
          "type": "uint256"
        }
      ],
      "payable": false,
      "stateMutability": "view",
      "type": "function"
    },
    {
      "constant": true,
      "inputs": [],
      "name": "getAddressesSet",
      "outputs": [
        {
          "name": "",
          "type": "address[]"
        }
      ],
      "payable": false,
      "stateMutability": "view",
      "type": "function"
    }
  ],
  "bytecode": "0x606060405234156200001057600080fd5b6040516040806200176f83398101604052808051919060200180519150829050816200004d60008383640100000000620012d56200007582021704565b50506200006d6200009b64010000000002620005b1176401000000009004565b50506200042b565b8254600160a060020a031916600160a060020a0392909216919091178255600190910155565b620000d660027f75696e745661720000000000000000000000000000000000000000000000000064010000000062000cd8620002b082021704565b6200011160037f696e74566172000000000000000000000000000000000000000000000000000064010000000062000cd8620002b082021704565b6200014c60047f616464726573735661720000000000000000000000000000000000000000000064010000000062000cd8620002b082021704565b6200018760057f626f6f6c5661720000000000000000000000000000000000000000000000000064010000000062000cd8620002b082021704565b620001c260067f627974657333325661720000000000000000000000000000000000000000000064010000000062000cd8620002b082021704565b620001fd60077f6d617070696e675661720000000000000000000000000000000000000000000064010000000062000cd8620002b082021704565b6200023860087f6164647265737355496e744d617070696e67566172000000000000000000000064010000000062000d24620002d082021704565b6200027360097f736574566172000000000000000000000000000000000000000000000000000064010000000062000d2e620002ee82021704565b620002ae600c7f616464726573736573536574566172000000000000000000000000000000000064010000000062000df7620003f982021704565b565b8154620002cc9082640100000000620011576200041382021704565b9055565b620002ea828264010000000062000cd8620002b082021704565b5050565b6200034582826040519081527f636f756e7400000000000000000000000000000000000000000000000000000060208201526025016040518091039020620002b06401000000000262000cd8176401000000009004565b6200039f82600101826040519081527f696e64657865730000000000000000000000000000000000000000000000000060208201526027016040518091039020620002b06401000000000262000cd8176401000000009004565b620002ea82600201826040519081527f76616c756573000000000000000000000000000000000000000000000000000060208201526026016040518091039020620002b06401000000000262000cd8176401000000009004565b620002ea828264010000000062000d2e620002ee82021704565b8115158062000420575080155b15620002ea57600080fd5b611334806200043b6000396000f30060606040526004361061012f5763ffffffff60e060020a60003504166301d97f08811461013457806312a7b9141461014f5780631e26fd33146101765780631f9030371461018e57806331f070d9146101b35780633618c2a21461021957806338cc4831146102385780633f7525bf14610267578063494cf3331461027a5780634a7160a2146102995780634ea05686146102af578063616f7bc9146102c257806362738998146102e1578063747586b8146102f457806392e1ab171461030a5780639378a9e214610329578063aec9c4801461033f578063b670093014610355578063b6e456bb1461036b578063c2b12a731461037e578063c482ceaf14610394578063d27399b5146103a7578063e1281280146103ba578063e2c14bdd146103dc578063e30081a0146103f2575b600080fd5b341561013f57600080fd5b61014d600435602435610411565b005b341561015a57600080fd5b610162610429565b604051901515815260200160405180910390f35b341561018157600080fd5b61014d6004351515610441565b341561019957600080fd5b6101a1610457565b60405190815260200160405180910390f35b34156101be57600080fd5b6101c661046a565b60405160208082528190810183818151815260200191508051906020019060200280838360005b838110156102055780820151838201526020016101ed565b505050509050019250505060405180910390f35b341561022457600080fd5b61014d600160a060020a0360043516610484565b341561024357600080fd5b61024b610497565b604051600160a060020a03909116815260200160405180910390f35b341561027257600080fd5b6101c66104aa565b341561028557600080fd5b6101a1600160a060020a03600435166104c4565b34156102a457600080fd5b61014d6004356104de565b34156102ba57600080fd5b6101a16104f1565b34156102cd57600080fd5b61014d600160a060020a0360043516610504565b34156102ec57600080fd5b6101a1610517565b34156102ff57600080fd5b61014d60043561052a565b341561031557600080fd5b610162600160a060020a036004351661053d565b341561033457600080fd5b61014d600435610551565b341561034a57600080fd5b610162600435610564565b341561036057600080fd5b61014d600435610578565b341561037657600080fd5b6101a161058b565b341561038957600080fd5b61014d60043561059e565b341561039f57600080fd5b61014d6105b1565b34156103b257600080fd5b6101a161076c565b34156103c557600080fd5b61014d600160a060020a036004351660243561077f565b34156103e757600080fd5b6101a1600435610793565b34156103fd57600080fd5b61014d600160a060020a03600435166107a7565b61042560006007848463ffffffff6107ba16565b5050565b600061043c81600563ffffffff61084c16565b905090565b610454600060058363ffffffff6108cc16565b50565b600061043c81600663ffffffff61094716565b6104726112c3565b61043c6000600963ffffffff6109a616565b6104546000600c8363ffffffff6109c916565b600061043c81600463ffffffff6109e216565b6104b26112c3565b61043c6000600c63ffffffff610a4116565b60006104d88160088463ffffffff610a5b16565b92915050565b610454600060098363ffffffff610a7916565b600061043c81600963ffffffff610a8e16565b6104546000600c8363ffffffff610aa416565b600061043c81600363ffffffff610ab816565b610454600060038363ffffffff610b1716565b60006104d881600c8463ffffffff610b7716565b610454600060028363ffffffff610b8d16565b60006104d88160098463ffffffff610bed16565b610454600060098363ffffffff610c0416565b600061043c81600263ffffffff610c1916565b610454600060068363ffffffff610c7816565b6105e260027f75696e745661720000000000000000000000000000000000000000000000000063ffffffff610cd816565b61061360037f696e74566172000000000000000000000000000000000000000000000000000063ffffffff610cd816565b61064460047f616464726573735661720000000000000000000000000000000000000000000063ffffffff610cd816565b61067560057f626f6f6c5661720000000000000000000000000000000000000000000000000063ffffffff610cd816565b6106a660067f627974657333325661720000000000000000000000000000000000000000000063ffffffff610cd816565b6106d760077f6d617070696e675661720000000000000000000000000000000000000000000063ffffffff610cd816565b61070860087f6164647265737355496e744d617070696e67566172000000000000000000000063ffffffff610d2416565b61073960097f736574566172000000000000000000000000000000000000000000000000000063ffffffff610d2e16565b61076a600c7f616464726573736573536574566172000000000000000000000000000000000063ffffffff610df716565b565b600061043c81600c63ffffffff610e0116565b61042560006008848463ffffffff610e0d16565b60006104d88160078463ffffffff610e2816565b610454600060048363ffffffff610ec216565b835460018501548454600160a060020a039092169163a14ff85791908560405191825260208201526040908101905180910390208460405160e060020a63ffffffff8616028152600481019390935260248301919091526044820152606401600060405180830381600087803b151561083257600080fd5b6102c65a03f1151561084357600080fd5b50505050505050565b815460018301548254600092600160a060020a0316916398eaf11c91846040516020015260405160e060020a63ffffffff851602815260048101929092526024820152604401602060405180830381600087803b15156108ab57600080fd5b6102c65a03f115156108bc57600080fd5b5050506040518051949350505050565b825460018401548354600160a060020a039092169163f0f53ee491908460405160e060020a63ffffffff86160281526004810193909352602483019190915215156044820152606401600060405180830381600087803b151561092e57600080fd5b6102c65a03f1151561093f57600080fd5b505050505050565b815460018301548254600092600160a060020a0316916337d9d7fc91846040516020015260405160e060020a63ffffffff851602815260048101929092526024820152604401602060405180830381600087803b15156108ab57600080fd5b6109ae6112c3565b6109c2838360ea60020a621cd95d02610f2b565b9392505050565b6109dd8383600160a060020a038416610c04565b505050565b815460018301548254600092600160a060020a03169163d3a3968691846040516020015260405160e060020a63ffffffff851602815260048101929092526024820152604401602060405180830381600087803b15156108ab57600080fd5b610a496112c3565b6109c2610a5684846109a6565b610fa4565b6000610a718484600160a060020a038516610e28565b949350505050565b6109dd838360ea60020a621cd95d028461102e565b60006109c2838360ea60020a621cd95d02611089565b6109dd8383600160a060020a038416610a79565b815460018301548254600092600160a060020a03169163a6fbf3d291846040516020015260405160e060020a63ffffffff851602815260048101929092526024820152604401602060405180830381600087803b15156108ab57600080fd5b825460018401548354600160a060020a039092169163061c880091908460405160e060020a63ffffffff8616028152600481019390935260248301919091526044820152606401600060405180830381600087803b151561092e57600080fd5b6000610a718484600160a060020a038516610bed565b825460018401548354600160a060020a03909216916353e7168b91908460405160e060020a63ffffffff8616028152600481019390935260248301919091526044820152606401600060405180830381600087803b151561092e57600080fd5b6000610a71848460ea60020a621cd95d0285611096565b6109dd838360ea60020a621cd95d02846110b2565b815460018301548254600092600160a060020a0316916353aa3f5e91846040516020015260405160e060020a63ffffffff851602815260048101929092526024820152604401602060405180830381600087803b15156108ab57600080fd5b825460018401548354600160a060020a039092169163a14ff85791908460405160e060020a63ffffffff8616028152600481019390935260248301919091526044820152606401600060405180830381600087803b151561092e57600080fd5b8154610ce49082611157565b9055565b8154610ce49082611157565b8154610ce49082611157565b8154610ce49082611157565b8154610ce49082611157565b8154610ce49082611157565b6104258282610cd8565b610d6f82826040519081527f636f756e7400000000000000000000000000000000000000000000000000000060208201526025016040518091039020610cd8565b610db382600101826040519081527f696e64657865730000000000000000000000000000000000000000000000000060208201526027016040518091039020610cd8565b61042582600201826040519081527f76616c756573000000000000000000000000000000000000000000000000000060208201526026016040518091039020610cd8565b6104258282610d2e565b60006109c28383610a8e565b610e228484600160a060020a038516846107ba565b50505050565b825460018401548354600092600160a060020a0316916337d9d7fc9185604051918252602082015260409081019051809103902060006040516020015260405160e060020a63ffffffff851602815260048101929092526024820152604401602060405180830381600087803b1515610ea057600080fd5b6102c65a03f11515610eb157600080fd5b505050604051805195945050505050565b825460018401548354600160a060020a03909216916379a7cfee91908460405160e060020a63ffffffff861602815260048101939093526024830191909152600160a060020a03166044820152606401600060405180830381600087803b151561092e57600080fd5b610f336112c3565b600080610f41868686611089565b915081604051805910610f515750595b90808252806020026020018201604052509250600090505b81811015610f9b57610f7d8686868461116d565b838281518110610f8957fe5b60209081029091010152600101610f69565b50509392505050565b610fac6112c3565b610fb46112c3565b60008351604051805910610fc55750595b90808252806020026020018201604052509150600090505b835181101561102757838181518110610ff257fe5b9060200190602002015182828151811061100857fe5b600160a060020a03909216602092830290910190910152600101610fdd565b5092915050565b600061103c85858585611096565b1561104657611082565b611051858585611089565b6001019050611066856002860185848661118a565b611076856001860185858561118a565b611082858585846111ae565b5050505050565b6000610a71848484611226565b60006110a78585600101858561129e565b151595945050505050565b60008060006110c387878787611096565b15156110ce57610843565b6110d9878787611089565b92506110ea8760028801878661129e565b91506110fb8787600101878761129e565b90508281101561112557611115876001880187858561118a565b611125876002880187848661118a565b61113687600188018787600061118a565b61114787600288018786600061118a565b61084387878760001987016111ae565b81151580611163575080155b1561042557600080fd5b60006111818560028601856001860161129e565b95945050505050565b611082858585856040519182526020820152604090810190518091039020846107ba565b835460018501548454600160a060020a03909216916353e7168b91908560405191825260208201526040908101905180910390208460405160e060020a63ffffffff8616028152600481019390935260248301919091526044820152606401600060405180830381600087803b151561083257600080fd5b825460018401548354600092600160a060020a0316916353aa3f5e9185604051918252602082015260409081019051809103902060006040516020015260405160e060020a63ffffffff851602815260048101929092526024820152604401602060405180830381600087803b1515610ea057600080fd5b6000611181858585856040519182526020820152604090810190518091039020610e28565b60206040519081016040526000815290565b825473ffffffffffffffffffffffffffffffffffffffff1916600160a060020a03929092169190911782556001909101555600a165627a7a723058204a3878f6a4c4291cd7c7b14daf216bdced9e1d3ee9ba17ff43fc6a8ce58dc57b0029",
  "source": "/**\n * Copyright 2017–2018, LaborX PTY\n * Licensed under the AGPL Version 3 license.\n */\n\npragma solidity ^0.4.18;\n\nimport '../adapters/StorageAdapter.sol';\n\ncontract StorageTester is StorageAdapter {\n\n    StorageInterface.UInt uintVar;\n    StorageInterface.Int intVar;\n    StorageInterface.Address addressVar;\n    StorageInterface.Bool boolVar;\n    StorageInterface.Bytes32 bytes32Var;\n    StorageInterface.Mapping mappingVar;\n    StorageInterface.AddressUIntMapping addressUIntMappingVar;\n    StorageInterface.Set setVar;\n    StorageInterface.AddressesSet addressesSetVar;\n\n    function StorageTester(Storage _store, bytes32 _crate) StorageAdapter(_store, _crate) public {\n        reinit();\n    }\n\n    function reinit() public {\n        uintVar.init('uintVar');\n        intVar.init('intVar');\n        addressVar.init('addressVar');\n        boolVar.init('boolVar');\n        bytes32Var.init('bytes32Var');\n        mappingVar.init('mappingVar');\n        addressUIntMappingVar.init('addressUIntMappingVar');\n        setVar.init('setVar');\n        addressesSetVar.init('addressesSetVar');\n    }\n\n    function setUInt(uint _value) external {\n        store.set(uintVar, _value);\n    }\n\n    function getUInt() public view returns (uint) {\n        return store.get(uintVar);\n    }\n\n    function setInt(int _value) external {\n        store.set(intVar, _value);\n    }\n\n    function getInt() public view returns (int) {\n        return store.get(intVar);\n    }\n\n    function setAddress(address _value) external {\n        store.set(addressVar, _value);\n    }\n\n    function getAddress() public view returns (address) {\n        return store.get(addressVar);\n    }\n\n    function setBool(bool _value) external {\n        store.set(boolVar, _value);\n    }\n\n    function getBool() public view returns (bool) {\n        return store.get(boolVar);\n    }\n\n    function setBytes32(bytes32 _value) external {\n        store.set(bytes32Var, _value);\n    }\n\n    function getBytes32() public view returns (bytes32) {\n        return store.get(bytes32Var);\n    }\n\n    function setMapping(bytes32 _key, bytes32 _value) external {\n        store.set(mappingVar, _key, _value);\n    }\n\n    function getMapping(bytes32 _key) external view returns (bytes32) {\n        return store.get(mappingVar, _key);\n    }\n\n    function setAddressUIntMapping(address _key, uint _value) external {\n        store.set(addressUIntMappingVar, _key, _value);\n    }\n\n    function getAddressUIntMapping(address _key) external view returns (uint) {\n        return store.get(addressUIntMappingVar, _key);\n    }\n\n    function addSet(bytes32 _value) external {\n        store.add(setVar, _value);\n    }\n\n    function removeSet(bytes32 _value) external {\n        store.remove(setVar, _value);\n    }\n\n    function includesSet(bytes32 _value) external view returns (bool) {\n        return store.includes(setVar, _value);\n    }\n\n    function countSet() public view returns (uint) {\n        return store.count(setVar);\n    }\n\n    function getSet() public view returns (bytes32[]) {\n        return store.get(setVar);\n    }\n\n    function addAddressesSet(address _value) external {\n        store.add(addressesSetVar, _value);\n    }\n\n    function removeAddressesSet(address _value) external {\n        store.remove(addressesSetVar, _value);\n    }\n\n    function includesAddressesSet(address _value) external view returns (bool) {\n        return store.includes(addressesSetVar, _value);\n    }\n\n    function countAddressesSet() public view returns (uint) {\n        return store.count(addressesSetVar);\n    }\n\n    function getAddressesSet() public view returns (address[]) {\n        return store.get(addressesSetVar);\n    }\n}\n",
  "sourcePath": "/Users/alesanro/Documents/Projects/ChronoBank/LX-SC/contracts/helpers/StorageTester.sol",
  "compiler": {
    "name": "solc",
    "version": "0.4.19+commit.c4cbbb05.Emscripten.clang"
  },
  "schemaVersion": "2.0.0",
  "updatedAt": "2018-06-05T12:59:05.522Z"
}