{
  "contractName": "UserProxyTester",
  "abi": [
    {
      "constant": true,
      "inputs": [
        {
          "name": "_someInputValue",
          "type": "bytes32"
        }
      ],
      "name": "functionReturningValue",
      "outputs": [
        {
          "name": "",
          "type": "bytes32"
        }
      ],
      "payable": false,
      "stateMutability": "pure",
      "type": "function"
    },
    {
      "constant": true,
      "inputs": [
        {
          "name": "",
          "type": "bytes32"
        }
      ],
      "name": "unsuccessfullFunction",
      "outputs": [
        {
          "name": "",
          "type": "bytes32"
        }
      ],
      "payable": false,
      "stateMutability": "pure",
      "type": "function"
    },
    {
      "constant": true,
      "inputs": [
        {
          "name": "",
          "type": "address"
        },
        {
          "name": "",
          "type": "bytes"
        },
        {
          "name": "",
          "type": "uint256"
        },
        {
          "name": "",
          "type": "bool"
        }
      ],
      "name": "forward",
      "outputs": [
        {
          "name": "",
          "type": "bytes32"
        }
      ],
      "payable": false,
      "stateMutability": "pure",
      "type": "function"
    }
  ],
  "bytecode": "0x6060604052341561000f57600080fd5b61016d8061001e6000396000f3006060604052600436106100565763ffffffff7c0100000000000000000000000000000000000000000000000000000000600035041663c8c24320811461005b578063dd63f7d014610083578063dffdc75d14610099575b600080fd5b341561006657600080fd5b61007160043561010e565b60405190815260200160405180910390f35b341561008e57600080fd5b610071600435610115565b34156100a457600080fd5b6100716004803573ffffffffffffffffffffffffffffffffffffffff169060446024803590810190830135806020601f8201819004810201604051908101604052818152929190602084018383808284375094965050843594602001351515935061011892505050565b6000806000fd5b90565b7f34320000000000000000000000000000000000000000000000000000000000009493505050505600a165627a7a723058200b2561eb7d622d118f0bc9ec94d455bef42db026c720d4d28c399fd924b65c230029",
  "source": "/**\n * Copyright 2017–2018, LaborX PTY\n * Licensed under the AGPL Version 3 license.\n */\n\npragma solidity ^0.4.18;\n\ncontract UserProxyTester {\n\n    function functionReturningValue(bytes32 _someInputValue) public pure returns (bytes32) {\n        return _someInputValue;\n    }\n\n    function unsuccessfullFunction(bytes32) public pure returns (bytes32) {\n        revert();\n    }\n\n    function forward(address, bytes, uint, bool) public pure returns (bytes32) {\n        return 0x3432000000000000000000000000000000000000000000000000000000000000;\n    }\n}\n",
  "sourcePath": "/Users/ahiatsevich/Development/chronobank/LX-SC/contracts/helpers/UserProxyTester.sol",
  "compiler": {
    "name": "solc",
    "version": "0.4.19+commit.c4cbbb05.Emscripten.clang"
  },
  "schemaVersion": "2.0.0",
  "updatedAt": "2018-05-22T13:02:45.142Z"
}