{
  "contractName": "UserLibrary",
  "abi": [
    {
      "constant": false,
      "inputs": [
        {
          "name": "_roles2Library",
          "type": "address"
        }
      ],
      "name": "setRoles2Library",
      "outputs": [
        {
          "name": "",
          "type": "uint256"
        }
      ],
      "payable": false,
      "stateMutability": "nonpayable",
      "type": "function"
    },
    {
      "constant": false,
      "inputs": [
        {
          "name": "_errorCode",
          "type": "uint256"
        }
      ],
      "name": "emitErrorCode",
      "outputs": [],
      "payable": false,
      "stateMutability": "nonpayable",
      "type": "function"
    },
    {
      "constant": false,
      "inputs": [
        {
          "name": "_msg",
          "type": "bytes32"
        }
      ],
      "name": "emitError",
      "outputs": [],
      "payable": false,
      "stateMutability": "nonpayable",
      "type": "function"
    },
    {
      "constant": true,
      "inputs": [],
      "name": "getEventsHistory",
      "outputs": [
        {
          "name": "",
          "type": "address"
        }
      ],
      "payable": false,
      "stateMutability": "view",
      "type": "function"
    },
    {
      "inputs": [
        {
          "name": "_store",
          "type": "address"
        },
        {
          "name": "_crate",
          "type": "bytes32"
        },
        {
          "name": "_roles2Library",
          "type": "address"
        }
      ],
      "payable": false,
      "stateMutability": "nonpayable",
      "type": "constructor"
    },
    {
      "anonymous": false,
      "inputs": [
        {
          "indexed": true,
          "name": "self",
          "type": "address"
        },
        {
          "indexed": true,
          "name": "user",
          "type": "address"
        },
        {
          "indexed": false,
          "name": "areas",
          "type": "uint256"
        }
      ],
      "name": "SkillAreasSet",
      "type": "event"
    },
    {
      "anonymous": false,
      "inputs": [
        {
          "indexed": true,
          "name": "self",
          "type": "address"
        },
        {
          "indexed": true,
          "name": "user",
          "type": "address"
        },
        {
          "indexed": false,
          "name": "area",
          "type": "uint256"
        },
        {
          "indexed": false,
          "name": "categories",
          "type": "uint256"
        }
      ],
      "name": "SkillCategoriesSet",
      "type": "event"
    },
    {
      "anonymous": false,
      "inputs": [
        {
          "indexed": true,
          "name": "self",
          "type": "address"
        },
        {
          "indexed": true,
          "name": "user",
          "type": "address"
        },
        {
          "indexed": false,
          "name": "area",
          "type": "uint256"
        },
        {
          "indexed": false,
          "name": "category",
          "type": "uint256"
        },
        {
          "indexed": false,
          "name": "skills",
          "type": "uint256"
        }
      ],
      "name": "SkillsSet",
      "type": "event"
    },
    {
      "anonymous": false,
      "inputs": [
        {
          "indexed": false,
          "name": "code",
          "type": "address"
        },
        {
          "indexed": false,
          "name": "sender",
          "type": "address"
        },
        {
          "indexed": false,
          "name": "sig",
          "type": "bytes4"
        }
      ],
      "name": "AuthFailedError",
      "type": "event"
    },
    {
      "anonymous": false,
      "inputs": [
        {
          "indexed": true,
          "name": "self",
          "type": "address"
        },
        {
          "indexed": false,
          "name": "msg",
          "type": "bytes32"
        }
      ],
      "name": "Error",
      "type": "event"
    },
    {
      "anonymous": false,
      "inputs": [
        {
          "indexed": true,
          "name": "self",
          "type": "address"
        },
        {
          "indexed": false,
          "name": "errorCode",
          "type": "uint256"
        }
      ],
      "name": "ErrorCode",
      "type": "event"
    },
    {
      "constant": false,
      "inputs": [
        {
          "name": "_eventsHistory",
          "type": "address"
        }
      ],
      "name": "setupEventsHistory",
      "outputs": [
        {
          "name": "",
          "type": "uint256"
        }
      ],
      "payable": false,
      "stateMutability": "nonpayable",
      "type": "function"
    },
    {
      "constant": true,
      "inputs": [
        {
          "name": "_user",
          "type": "address"
        },
        {
          "name": "_area",
          "type": "uint256"
        }
      ],
      "name": "getAreaInfo",
      "outputs": [
        {
          "name": "partialArea",
          "type": "bool"
        },
        {
          "name": "fullArea",
          "type": "bool"
        }
      ],
      "payable": false,
      "stateMutability": "view",
      "type": "function"
    },
    {
      "constant": true,
      "inputs": [
        {
          "name": "_user",
          "type": "address"
        },
        {
          "name": "_area",
          "type": "uint256"
        }
      ],
      "name": "hasArea",
      "outputs": [
        {
          "name": "_partial",
          "type": "bool"
        }
      ],
      "payable": false,
      "stateMutability": "view",
      "type": "function"
    },
    {
      "constant": true,
      "inputs": [
        {
          "name": "_user",
          "type": "address"
        },
        {
          "name": "_area",
          "type": "uint256"
        },
        {
          "name": "_category",
          "type": "uint256"
        }
      ],
      "name": "getCategoryInfo",
      "outputs": [
        {
          "name": "partialCategory",
          "type": "bool"
        },
        {
          "name": "fullCategory",
          "type": "bool"
        }
      ],
      "payable": false,
      "stateMutability": "view",
      "type": "function"
    },
    {
      "constant": true,
      "inputs": [
        {
          "name": "_user",
          "type": "address"
        },
        {
          "name": "_area",
          "type": "uint256"
        },
        {
          "name": "_category",
          "type": "uint256"
        }
      ],
      "name": "hasCategory",
      "outputs": [
        {
          "name": "_partial",
          "type": "bool"
        }
      ],
      "payable": false,
      "stateMutability": "view",
      "type": "function"
    },
    {
      "constant": true,
      "inputs": [
        {
          "name": "_user",
          "type": "address"
        },
        {
          "name": "_area",
          "type": "uint256"
        },
        {
          "name": "_category",
          "type": "uint256"
        },
        {
          "name": "_skill",
          "type": "uint256"
        }
      ],
      "name": "hasSkill",
      "outputs": [
        {
          "name": "",
          "type": "bool"
        }
      ],
      "payable": false,
      "stateMutability": "view",
      "type": "function"
    },
    {
      "constant": true,
      "inputs": [
        {
          "name": "_user",
          "type": "address"
        },
        {
          "name": "_area",
          "type": "uint256"
        },
        {
          "name": "_category",
          "type": "uint256"
        },
        {
          "name": "_skills",
          "type": "uint256"
        }
      ],
      "name": "hasSkills",
      "outputs": [
        {
          "name": "",
          "type": "bool"
        }
      ],
      "payable": false,
      "stateMutability": "view",
      "type": "function"
    },
    {
      "constant": true,
      "inputs": [
        {
          "name": "_user",
          "type": "address"
        }
      ],
      "name": "getUserSkills",
      "outputs": [
        {
          "name": "areas",
          "type": "uint256"
        },
        {
          "name": "_categories",
          "type": "uint256[]"
        },
        {
          "name": "_skills",
          "type": "uint256[]"
        }
      ],
      "payable": false,
      "stateMutability": "view",
      "type": "function"
    },
    {
      "constant": true,
      "inputs": [],
      "name": "getUsersCount",
      "outputs": [
        {
          "name": "",
          "type": "uint256"
        }
      ],
      "payable": false,
      "stateMutability": "view",
      "type": "function"
    },
    {
      "constant": true,
      "inputs": [
        {
          "name": "_area",
          "type": "uint256"
        },
        {
          "name": "_categories",
          "type": "uint256[]"
        },
        {
          "name": "_skills",
          "type": "uint256[]"
        },
        {
          "name": "_fromIdx",
          "type": "uint256"
        },
        {
          "name": "_maxLen",
          "type": "uint256"
        }
      ],
      "name": "getStrictUsersByAreaCount",
      "outputs": [
        {
          "name": "_count",
          "type": "uint256"
        },
        {
          "name": "_userIdx",
          "type": "uint256"
        }
      ],
      "payable": false,
      "stateMutability": "view",
      "type": "function"
    },
    {
      "constant": true,
      "inputs": [
        {
          "name": "_area",
          "type": "uint256"
        },
        {
          "name": "_categories",
          "type": "uint256[]"
        },
        {
          "name": "_skills",
          "type": "uint256[]"
        },
        {
          "name": "_fromIdx",
          "type": "uint256"
        },
        {
          "name": "_maxLen",
          "type": "uint256"
        }
      ],
      "name": "getUsersByAreaCount",
      "outputs": [
        {
          "name": "_count",
          "type": "uint256"
        },
        {
          "name": "_userIdx",
          "type": "uint256"
        }
      ],
      "payable": false,
      "stateMutability": "view",
      "type": "function"
    },
    {
      "constant": false,
      "inputs": [
        {
          "name": "_user",
          "type": "address"
        },
        {
          "name": "_areas",
          "type": "uint256"
        }
      ],
      "name": "setAreas",
      "outputs": [
        {
          "name": "",
          "type": "uint256"
        }
      ],
      "payable": false,
      "stateMutability": "nonpayable",
      "type": "function"
    },
    {
      "constant": false,
      "inputs": [
        {
          "name": "_user",
          "type": "address"
        },
        {
          "name": "_area",
          "type": "uint256"
        },
        {
          "name": "_categories",
          "type": "uint256"
        }
      ],
      "name": "setCategories",
      "outputs": [
        {
          "name": "",
          "type": "uint256"
        }
      ],
      "payable": false,
      "stateMutability": "nonpayable",
      "type": "function"
    },
    {
      "constant": false,
      "inputs": [
        {
          "name": "_user",
          "type": "address"
        },
        {
          "name": "_area",
          "type": "uint256"
        },
        {
          "name": "_category",
          "type": "uint256"
        },
        {
          "name": "_skills",
          "type": "uint256"
        }
      ],
      "name": "setSkills",
      "outputs": [
        {
          "name": "",
          "type": "uint256"
        }
      ],
      "payable": false,
      "stateMutability": "nonpayable",
      "type": "function"
    },
    {
      "constant": false,
      "inputs": [
        {
          "name": "_user",
          "type": "address"
        },
        {
          "name": "_areas",
          "type": "uint256"
        },
        {
          "name": "_categories",
          "type": "uint256[]"
        },
        {
          "name": "_skills",
          "type": "uint256[]"
        }
      ],
      "name": "addMany",
      "outputs": [
        {
          "name": "",
          "type": "uint256"
        }
      ],
      "payable": false,
      "stateMutability": "nonpayable",
      "type": "function"
    },
    {
      "constant": false,
      "inputs": [
        {
          "name": "_user",
          "type": "address"
        },
        {
          "name": "_areas",
          "type": "uint256"
        },
        {
          "name": "_categories",
          "type": "uint256[]"
        },
        {
          "name": "_skills",
          "type": "uint256[]"
        }
      ],
      "name": "setMany",
      "outputs": [
        {
          "name": "",
          "type": "uint256"
        }
      ],
      "payable": false,
      "stateMutability": "nonpayable",
      "type": "function"
    },
    {
      "constant": false,
      "inputs": [
        {
          "name": "_user",
          "type": "address"
        },
        {
          "name": "_areas",
          "type": "uint256"
        }
      ],
      "name": "emitSkillAreasSet",
      "outputs": [],
      "payable": false,
      "stateMutability": "nonpayable",
      "type": "function"
    },
    {
      "constant": false,
      "inputs": [
        {
          "name": "_user",
          "type": "address"
        },
        {
          "name": "_area",
          "type": "uint256"
        },
        {
          "name": "_categories",
          "type": "uint256"
        }
      ],
      "name": "emitSkillCategoriesSet",
      "outputs": [],
      "payable": false,
      "stateMutability": "nonpayable",
      "type": "function"
    },
    {
      "constant": false,
      "inputs": [
        {
          "name": "_user",
          "type": "address"
        },
        {
          "name": "_area",
          "type": "uint256"
        },
        {
          "name": "_category",
          "type": "uint256"
        },
        {
          "name": "_skills",
          "type": "uint256"
        }
      ],
      "name": "emitSkillsSet",
      "outputs": [],
      "payable": false,
      "stateMutability": "nonpayable",
      "type": "function"
    }
  ],
  "bytecode": "0x606060405234156200001057600080fd5b6040516060806200246a83398101604052808051919060200180519190602001805191508190508383620000556000838364010000000062001fab6200016c82021704565b505060038054600160a060020a031916600160a060020a0392909216919091179055620000b260047f736b696c6c41726561730000000000000000000000000000000000000000000064010000000062000192810262001fde1704565b620000ed60057f736b696c6c43617465676f72696573000000000000000000000000000000000064010000000062001fde6200019282021704565b6200012860067f736b696c6c73000000000000000000000000000000000000000000000000000064010000000062001fde6200019282021704565b6200016360077f757365727300000000000000000000000000000000000000000000000000000064010000000062001ffc620001b082021704565b5050506200030d565b8254600160a060020a031916600160a060020a0392909216919091178255600190910155565b620001ac828264010000000062002006620001ca82021704565b5050565b620001ac828264010000000062002016620001ea82021704565b8154620001e69082640100000000620020df620002f582021704565b9055565b6200024182826040519081527f636f756e7400000000000000000000000000000000000000000000000000000060208201526025016040518091039020620001ca6401000000000262002006176401000000009004565b6200029b82600101826040519081527f696e64657865730000000000000000000000000000000000000000000000000060208201526027016040518091039020620001ca6401000000000262002006176401000000009004565b620001ac82600201826040519081527f76616c756573000000000000000000000000000000000000000000000000000060208201526026016040518091039020620001ca6401000000000262002006176401000000009004565b8115158062000302575080155b15620001ac57600080fd5b61214d806200031d6000396000f3006060604052600436106101195763ffffffff60e060020a60003504166302927d20811461011e578063177d8ee41461014f5780631e0b8c87146101795780632637cd7d146101b55780632984bc4d146101d45780632cf2b3f21461021257806352782648146102c557806356538c91146102e75780635d15b46a146103825780635d201596146103a75780635fce627e146103cc5780637e441048146103ee5780638834277e146104135780638d5fa05c14610429578063a3922eac1461044b578063a4a1e26314610470578063bffee60914610483578063cfba0279146104ab578063d2886ebc146104d3578063d5a18e4c14610592578063d5f72b2e14610635578063e90459f8146106d8578063fff10aba146106ee575b600080fd5b341561012957600080fd5b61013d600160a060020a036004351661071d565b60405190815260200160405180910390f35b341561015a57600080fd5b610177600160a060020a03600435166024356044356064356107c1565b005b341561018457600080fd5b6101a1600160a060020a0360043516602435604435606435610829565b604051901515815260200160405180910390f35b34156101c057600080fd5b61013d600160a060020a036004351661088d565b34156101df57600080fd5b6101f6600160a060020a036004351660243561093a565b6040519115158252151560208201526040908101905180910390f35b341561021d57600080fd5b6102ad60048035906044602480359081019083013580602081810201604051908101604052809392919081815260200183836020028082843782019150505050505091908035906020019082018035906020019080806020026020016040519081016040528093929190818152602001838360200280828437509496505084359460200135935061099f92505050565b60405191825260208201526040908101905180910390f35b34156102d057600080fd5b610177600160a060020a03600435166024356109c0565b34156102f257600080fd5b6102ad600480359060446024803590810190830135806020818102016040519081016040528093929190818152602001838360200280828437820191505050505050919080359060200190820180359060200190808060200260200160405190810160405280939291908181526020018383602002808284375094965050843594602001359350610a1292505050565b341561038d57600080fd5b610177600160a060020a0360043516602435604435610a25565b34156103b257600080fd5b6101f6600160a060020a0360043516602435604435610a7f565b34156103d757600080fd5b6101a1600160a060020a0360043516602435610b1f565b34156103f957600080fd5b6101a1600160a060020a0360043516602435604435610b33565b341561041e57600080fd5b610177600435610b49565b341561043457600080fd5b61013d600160a060020a0360043516602435610b90565b341561045657600080fd5b61013d600160a060020a0360043516602435604435610c8f565b341561047b57600080fd5b61013d610dd1565b341561048e57600080fd5b61013d600160a060020a0360043516602435604435606435610de9565b34156104b657600080fd5b6101a1600160a060020a0360043516602435604435606435610eef565b34156104de57600080fd5b6104f2600160a060020a0360043516610f1c565b604051808481526020018060200180602001838103835285818151815260200191508051906020019060200280838360005b8381101561053c578082015183820152602001610524565b50505050905001838103825284818151815260200191508051906020019060200280838360005b8381101561057b578082015183820152602001610563565b505050509050019550505050505060405180910390f35b341561059d57600080fd5b61013d60048035600160a060020a03169060248035919060649060443590810190830135806020808202016040519081016040528093929190818152602001838360200280828437820191505050505050919080359060200190820180359060200190808060200260200160405190810160405280939291908181526020018383602002808284375094965061106995505050505050565b341561064057600080fd5b61013d60048035600160a060020a0316906024803591906064906044359081019083013580602080820201604051908101604052809392919081815260200183836020028082843782019150505050505091908035906020019082018035906020019080806020026020016040519081016040528093929190818152602001838360200280828437509496506110fb95505050505050565b34156106e357600080fd5b610177600435611184565b34156106f957600080fd5b6107016111cb565b604051600160a060020a03909116815260200160405180910390f35b600061073533600035600160e060020a0319166111da565b1515610798576000805160206121028339815191523033600035600160e060020a031916604051600160a060020a039384168152919092166020820152600160e060020a03199091166040808301919091526060909101905180910390a16107bc565b600160a060020a03821615156107ad57600080fd5b6107b6826112a3565b50600190505b919050565b83600160a060020a03166107d36112d4565b600160a060020a03167f62a9bbdf1ffb3a1f0c2b91bd41b4a8aae08756e1db8528adb7ca9cdca58e8bd585858560405180848152602001838152602001828152602001935050505060405180910390a350505050565b60008060008061083a888888610a7f565b909350915082151561084f5760009350610882565b811561085e5760019350610882565b610873600060068a8a8a63ffffffff6112d816565b905061087f81866112f0565b93505b505050949350505050565b60006108a533600035600160e060020a0319166111da565b1515610908576000805160206121028339815191523033600035600160e060020a031916604051600160a060020a039384168152919092166020820152600160e060020a03199091166040808301919091526060909101905180910390a16107bc565b5060038054600160a060020a03831673ffffffffffffffffffffffffffffffffffffffff199091161790556001919050565b600080600083610949816112f7565b158061095b57506109598161130e565b155b1561096557610996565b610978600060048863ffffffff61133416565b9150610984828661134a565b610991836002880261134a565b935093505b50509250929050565b6000806109b2878787878761135061143d565b915091509550959350505050565b81600160a060020a03166109d26112d4565b600160a060020a03167f47580e361e39c7552c5d1dfe41faf492bf326a9bdbc08095b79cde9418c083718360405190815260200160405180910390a35050565b6000806109b2878787878761155b61143d565b82600160a060020a0316610a376112d4565b600160a060020a03167ff5bc4555dd344fe149ad54c8a3e1822c64a81f6943c4ca71b8eb64ff9fa58207848460405191825260208201526040908101905180910390a3505050565b600080600080600085610a91816112f7565b1580610aa35750610aa18161130e565b155b15610aad57610b13565b610ab7898961093a565b9094509250831515610acf5760008095509550610b13565b8215610ae15760018095509550610b13565b610af5600060058b8b63ffffffff61163516565b9150610b01828861134a565b610b0e8360028a0261134a565b955095505b50505050935093915050565b6000610b2b838361093a565b509392505050565b6000610b40848484610a7f565b50949350505050565b610b516112d4565b600160a060020a03167f09e0713b45664e161c202b19bb4574ee83dfa056f9bfdee56847b3971d9682218260405190815260200160405180910390a250565b600080610ba933600035600160e060020a0319166111da565b1515610c0c576000805160206121028339815191523033600035600160e060020a031916604051600160a060020a039384168152919092166020820152600160e060020a03199091166040808301919091526060909101905180910390a1610c88565b82610c168161164c565b1515610c2157610c86565b600191505b8115610c7757610c368483611679565b15610c4057610c6c565b610c5460006005878563ffffffff61163516565b1515610c6c57610c656152096116a0565b9250610c86565b600490910290610c26565b610c818585611705565b600192505b505b5092915050565b600080610ca833600035600160e060020a0319166111da565b1515610d0b576000805160206121028339815191523033600035600160e060020a031916604051600160a060020a039384168152919092166020820152600160e060020a03199091166040808301919091526060909101905180910390a1610b2b565b83610d15816112f7565b1580610d275750610d258161130e565b155b15610d3157610dc8565b83610d3b8161164c565b1515610d4657610dc6565b84801515610d5357610dc4565b610d5d888861173a565b600193505b8315610db457610d728685611679565b15610d7c57610da9565b610d91600060068a8a8863ffffffff6112d816565b1515610da957610da261520a6116a0565b9450610dc4565b600490930292610d62565b610dbf88888861176c565b600194505b505b505b50509392505050565b6000610de481600763ffffffff6117a416565b905090565b6000610e0133600035600160e060020a0319166111da565b1515610e64576000805160206121028339815191523033600035600160e060020a031916604051600160a060020a039384168152919092166020820152600160e060020a03199091166040808301919091526060909101905180910390a1610ee7565b83610e6e816112f7565b1580610e805750610e7e8161130e565b155b15610e8a57610b40565b83610e94816112f7565b1580610ea65750610ea48161130e565b155b15610eb057610ee4565b83801515610ebd57610882565b610ec7888861173a565b610ed28888886117b0565b610ede888888886117e5565b60019350505b50505b949350505050565b600081610efb816112f7565b1515610f0657610b40565b610f1286868686610829565b9695505050505050565b6000610f26611f99565b610f2e611f99565b60008060008060006080604051805910610f455750595b90808252806020026020018201604052509650601e604051805910610f675750595b9080825280602002602001820160405250955060009450849350610f938460048b63ffffffff61133416565b9750600192505b821561105d57610faa8884611679565b15610fb457611052565b849150610fcb600060058b8663ffffffff61163516565b6001860195889081518110610fdc57fe5b602090810290910101525060015b80156110525761100f878381518110610fff57fe5b9060200190602002015182611679565b156110195761104a565b61102e600060068b868563ffffffff6112d816565b600185019487908151811061103f57fe5b602090810290910101525b600402610fea565b600490920291610f9a565b50505050509193909250565b600061108133600035600160e060020a0319166111da565b15156110e4576000805160206121028339815191523033600035600160e060020a031916604051600160a060020a039384168152919092166020820152600160e060020a03199091166040808301919091526060909101905180910390a1610ee7565b6110f2858585856001611820565b95945050505050565b600061111333600035600160e060020a0319166111da565b1515611176576000805160206121028339815191523033600035600160e060020a031916604051600160a060020a039384168152919092166020820152600160e060020a03199091166040808301919091526060909101905180910390a1610ee7565b6110f2858585856000611820565b61118c6112d4565b600160a060020a03167fbb8f0c1d8804cd86e7873ec11cb00af945c8c0ebd061a68b28617034803464158260405190815260200160405180910390a250565b600254600160a060020a031690565b600030600160a060020a031683600160a060020a031614156111fe5750600161129d565b600354600160a060020a031615156112185750600061129d565b600354600160a060020a031663b700961384308560405160e060020a63ffffffff8616028152600160a060020a039384166004820152919092166024820152600160e060020a03199091166044820152606401602060405180830381600087803b151561128457600080fd5b5af1151561129157600080fd5b50505060405180519150505b92915050565b60028054600160a060020a03831673ffffffffffffffffffffffffffffffffffffffff199091161790556001919050565b3390565b6000610f128686600160a060020a03871686866119cd565b9081161490565b6000811580159061129d5750506000198101161590565b7faaaaaaaaaaaaaaaaaaaaaaaaaaaaaaaaaaaaaaaaaaaaaaaaaaaaaaaaaaaaaaaa161590565b6000610ee78484600160a060020a0385166119fb565b16151590565b6000808080806113698160058b8b63ffffffff61163516565b9350600092505b865183101561142c5786838151811061138557fe5b90602001906020020151915061139a82611a88565b15156113a557600080fd5b6113ae82611abf565b841690506113bc81836112f0565b15156113cb5760009450611431565b6113d4816112f7565b15156113df57611421565b6114128684815181106113ee57fe5b9060200190602002015161140d600060068d8d8863ffffffff6112d816565b6112f0565b15156114215760009450611431565b826001019250611370565b600194505b50505050949350505050565b60008060008060008a61144f81611a88565b15156114615761520960005260206000f35b89518b511461146f57600080fd5b611477610dd1565b935083891061148557600080fd5b83888a01111561149757888403611499565b875b97508894505b87890185101561154c57620186a05a10156114b95761154c565b6114cc600060078763ffffffff611add16565b92506114e1600060048563ffffffff61133416565b91506114ec8c611abf565b821691506114fa828d6112f0565b151561150557611541565b61150e826112f7565b151561151f57600186019550611541565b61152f83838d8d8b63ffffffff16565b151561153a57611541565b6001860195505b60019094019361149f565b50505050965096945050505050565b6000806000806000865115156115745760019450611431565b611588600060058b8b63ffffffff61163516565b9350600092505b8651831015611626578683815181106115a457fe5b9060200190602002015191506115b982611a88565b15156115c457600080fd5b6115cd82611abf565b841690506115db81836112f0565b15156115e65761161b565b6115ef816112f7565b15156115fe5760019450611431565b61160d8684815181106113ee57fe5b1561161b5760019450611431565b82600101925061158f565b50600098975050505050505050565b60006110f28585600160a060020a03861685611aea565b60027faaaaaaaaaaaaaaaaaaaaaaaaaaaaaaaaaaaaaaaaaaaaaaaaaaaaaaaaaaaaaaaa8216049081161490565b6000611685838361134a565b15806116995750611699836002840261134a565b9392505050565b60006116aa6111cb565b600160a060020a0316638834277e8360405160e060020a63ffffffff84160281526004810191909152602401600060405180830381600087803b15156116ef57600080fd5b5af115156116fc57600080fd5b50929392505050565b611718600060078463ffffffff611b0f16565b61172c60006004848463ffffffff611b2316565b6117368282611b38565b5050565b6117448282610b1f565b1561174e57611736565b6117368282611766600060048463ffffffff61133416565b17611705565b61177f600060078563ffffffff611b0f16565b6117946000600585858563ffffffff611ba716565b61179f838383611bbd565b505050565b60006116998383611c36565b6117bb838383610b33565b156117c55761179f565b61179f8383836117df60006005858563ffffffff61163516565b1761176c565b6117f8600060078663ffffffff611b0f16565b61180e600060068686868663ffffffff611c6316565b61181a84848484611c7a565b50505050565b60008080808061182f8961164c565b1515611847576118406152096116a0565b94506119c0565b6118718a8761186a578a611864600060048f63ffffffff61133416565b1761186c565b8a5b611705565b600191505b81156119bb576118868983611679565b15611890576119b0565b6118ae88858151811061189f57fe5b9060200190602002015161164c565b15156118b957600080fd5b8784815181106118c557fe5b9060200190602002015115156118da57600080fd5b6119358a8388611919578a87815181106118f057fe5b9060200190602002015161191360058f886000611635909392919063ffffffff16565b17611930565b8a878151811061192557fe5b906020019060200201515b61176c565b5060015b80156119a95761194e888581518110610fff57fe5b15611958576119a1565b86838151811061196457fe5b90602001906020020151151561197957600080fd5b61199a8a83838a878151811061198b57fe5b906020019060200201516117e5565b6001830192505b600402611939565b6001840193505b600490910290611876565b600194505b5050505095945050505050565b6000610f12868686868660405192835260208301919091526040808301919091526060909101905180910390205b825460018401548354600092600160a060020a0316916337d9d7fc9185604051918252602082015260409081019051809103902060405160e060020a63ffffffff851602815260048101929092526024820152604401602060405180830381600087803b1515611a6a57600080fd5b5af11515611a7757600080fd5b505050604051805195945050505050565b6000611a93826112f7565b8015611aa35750611aa38261130e565b80611ab25750611ab28261164c565b156107bc575060016107bc565b6000611aca826112f7565b611ad4578161129d565b50600281021790565b6000610ee7848484611cfa565b60006110f28585858560405191825260208201526040908101905180910390206119fb565b61179f8383600160a060020a038416611d28565b61181a8484600160a060020a03851684611d54565b611b406111cb565b600160a060020a03166352782648838360405160e060020a63ffffffff8516028152600160a060020a0390921660048301526024820152604401600060405180830381600087803b1515611b9357600080fd5b5af11515611ba057600080fd5b5050505050565b611ba08585600160a060020a0386168585611dcc565b611bc56111cb565b600160a060020a0316635d15b46a84848460405160e060020a63ffffffff8616028152600160a060020a03909316600484015260248301919091526044820152606401600060405180830381600087803b1515611c2157600080fd5b5af11515611c2e57600080fd5b505050505050565b600061169983837f7365740000000000000000000000000000000000000000000000000000000000611df0565b611c2e8686600160a060020a038716868686611dfd565b611c826111cb565b600160a060020a031663177d8ee48585858560405160e060020a63ffffffff8716028152600160a060020a039094166004850152602484019290925260448301526064820152608401600060405180830381600087803b1515611ce457600080fd5b5af11515611cf157600080fd5b50505050505050565b6000610ee784847f736574000000000000000000000000000000000000000000000000000000000085611e2e565b61179f83837f736574000000000000000000000000000000000000000000000000000000000084611e42565b835460018501548454600160a060020a039092169163a14ff85791908560405191825260208201526040908101905180910390208460405160e060020a63ffffffff8616028152600481019390935260248301919091526044820152606401600060405180830381600087803b1515611ce457600080fd5b611ba085858585604051918252602082015260409081019051809103902084611d54565b6000610ee7848484611e96565b611c2e8686868686604051928352602083019190915260408083019190915260609091019051809103902084611d54565b60006110f285600286018560018601611aea565b6000611e5085858585611f05565b15611e5a57611ba0565b611e65858585611df0565b6001019050611e7a8560028601858486611dcc565b611e8a8560018601858585611dcc565b611ba085858584611f21565b825460018401548354600092600160a060020a0316916353aa3f5e9185604051918252602082015260409081019051809103902060405160e060020a63ffffffff851602815260048101929092526024820152604401602060405180830381600087803b1515611a6a57600080fd5b6000611f1685856001018585611aea565b151595945050505050565b835460018501548454600160a060020a03909216916353e7168b91908560405191825260208201526040908101905180910390208460405160e060020a63ffffffff8616028152600481019390935260248301919091526044820152606401600060405180830381600087803b1515611ce457600080fd5b60206040519081016040526000815290565b825473ffffffffffffffffffffffffffffffffffffffff1916600160a060020a0392909216919091178255600190910155565b6117368282612006565b6117368282612006565b6117368282612006565b6117368282612016565b815461201290826120df565b9055565b61205782826040519081527f636f756e7400000000000000000000000000000000000000000000000000000060208201526025016040518091039020612006565b61209b82600101826040519081527f696e64657865730000000000000000000000000000000000000000000000000060208201526027016040518091039020612006565b61173682600201826040519081527f76616c756573000000000000000000000000000000000000000000000000000060208201526026016040518091039020612006565b811515806120eb575080155b1561173657600080fd5b815461201290826120df56005133a133185f1023427a2e90f18506b27db994977ce0c0faafd514a7dd109ae0a165627a7a72305820e9a5d20fe05d8450f41764b190cb351a5d098653359d038a4c785a101d8cceb30029",
  "source": "/**\n * Copyright 20172018, LaborX PTY\n * Licensed under the AGPL Version 3 license.\n */\n\npragma solidity ^0.4.21;\n\n\nimport \"solidity-storage-lib/contracts/StorageAdapter.sol\";\nimport \"./adapters/MultiEventsHistoryAdapter.sol\";\nimport \"./adapters/Roles2LibraryAdapter.sol\";\nimport \"./base/BitOps.sol\";\n\n\n/**\n * @title LaborX User Library.\n *\n * Skills:\n * Here we encode 128 different areas, each with 128 different categories\n * each with 256 different skills, using bit flags starting from the right,\n * for every user.\n * Areas and categories use odd bit flags to indicate that entity is\n * partially filled (area has categories, or category has skills).\n * Areas and categories use even bit flags to indicate that entity is\n * fully filled (area has all categories and skills, or category has all skills).\n * Skill can be repserented with any bit.\n * It results in following:\n *   all the areas for the user are defined using single uint256.\n *     all the categories of a single area of user are defined using single uint256.\n *       all the skills of a single category of user are defined using single uint256.\n *\n * 00000001 is the first partial area.\n * 00000100 is the second partial area.\n * 00000101 is the first and second partial areas.\n * 00001101 is the first partial and second full areas.\n * 00000010 is invalid, because in order to be full area also should be partial.\n * Same encoding is used for categories.\n *\n * For skills:\n * 00000001 is the first skill.\n * 00000010 is the second skill.\n * 01000011 is the first, second and seventh skill.\n *\n * Example skills structure for some user:\n * 00110001 - Partial first area, and full third area.\n *   01001101 - First area: partial first and fourth category, full second category.\n *     11100000 - First category: sixth, senventh and eighth skills.\n *     10001001 - Fourth category: first, fourth and eighth skills.\n */\ncontract UserLibrary is StorageAdapter, MultiEventsHistoryAdapter, Roles2LibraryAdapter, BitOps {\n\n    uint constant USER_LIBRARY_SCOPE = 21000;\n    uint constant USER_LIBRARY_INVALID_AREA = USER_LIBRARY_SCOPE + 1;\n    uint constant USER_LIBRARY_INVALID_CATEGORY = USER_LIBRARY_SCOPE + 2;\n\n    event SkillAreasSet(address indexed self, address indexed user, uint areas);\n    event SkillCategoriesSet(address indexed self, address indexed user, uint area, uint categories);\n    event SkillsSet(address indexed self, address indexed user, uint area, uint category, uint skills);\n\n    StorageInterface.AddressUIntMapping skillAreas;\n    StorageInterface.AddressUIntUIntMapping skillCategories;\n    StorageInterface.AddressUIntUIntUIntMapping skills;\n    StorageInterface.AddressesSet users;\n\n    modifier onlyValidArea(uint _value) {\n        if (!_isValidAreaOrCategory(_value)) {\n            assembly {\n                mstore(0, 21001) // USER_LIBRARY_INVALID_AREA\n                return(0, 32)\n            }\n        }\n        _;\n    }\n\n    modifier onlyValidCategory(uint _value) {\n        if (!_isValidAreaOrCategory(_value)) {\n            assembly {\n                mstore(0, 21002) // USER_LIBRARY_INVALID_CATEGORY\n                return(0, 32)\n            }\n        }\n        _;\n    }\n\n    function UserLibrary(\n        Storage _store, \n        bytes32 _crate, \n        address _roles2Library\n    )\n    StorageAdapter(_store, _crate)\n    Roles2LibraryAdapter(_roles2Library)\n    public\n    {\n        skillAreas.init(\"skillAreas\");\n        skillCategories.init(\"skillCategories\");\n        skills.init(\"skills\");\n        users.init(\"users\");\n    }\n\n    function setupEventsHistory(address _eventsHistory) auth external returns (uint) {\n        require(_eventsHistory != 0x0);\n\n        _setEventsHistory(_eventsHistory);\n        return OK;\n    }\n\n    function getAreaInfo(\n        address _user, \n        uint _area\n    )\n    singleOddFlag(_area)\n    public view\n    returns (bool partialArea, bool fullArea) \n    {\n        uint areas = store.get(skillAreas, _user);\n        return (_hasFlag(areas, _area), _hasFlag(areas, _area << 1));\n    }\n\n    function hasArea(address _user, uint _area) public view returns (bool _partial) {\n        (_partial, ) = getAreaInfo(_user, _area);\n    }\n\n    function getCategoryInfo(address _user, uint _area, uint _category)\n    singleOddFlag(_category)\n    public view\n    returns (bool partialCategory, bool fullCategory) \n    {\n        bool partialArea;\n        bool fullArea;\n        (partialArea, fullArea) = getAreaInfo(_user, _area);\n        if (!partialArea) {\n            return (false, false);\n        }\n        if (fullArea) {\n            return (true, true);\n        }\n\n        uint categories = store.get(skillCategories, _user, _area);\n        return (_hasFlag(categories, _category), _hasFlag(categories, _category << 1));\n    }\n\n    function hasCategory(address _user, uint _area, uint _category) public view returns (bool _partial) {\n        (_partial,) = getCategoryInfo(_user, _area, _category);\n    }\n\n    function hasSkill(\n        address _user, \n        uint _area, \n        uint _category, \n        uint _skill\n    ) \n    singleFlag(_skill) \n    public view \n    returns (bool) \n    {\n        return hasSkills(_user, _area, _category, _skill);\n    }\n\n    function hasSkills(\n        address _user, \n        uint _area, \n        uint _category, \n        uint _skills\n    ) \n    public view \n    returns (bool) \n    {\n        bool partialCategory;\n        bool fullCategory;\n        (partialCategory, fullCategory) = getCategoryInfo(_user, _area, _category);\n        if (!partialCategory) {\n            return false;\n        }\n        if (fullCategory) {\n            return true;\n        }\n        \n        uint userSkills = store.get(skills, _user, _area, _category);\n        return _hasFlags(userSkills, _skills);\n    }\n\n    // If some area of category is full, then we are not looking into it cause observer can safely\n    // assume that everything inside is filled.\n    function getUserSkills(address _user) \n    public view \n    returns (\n        uint areas, \n        uint[] _categories, \n        uint[] _skills\n    ) {\n        _categories = new uint[](2**7);\n        _skills = new uint[](2*15);\n        uint categoriesPointer = 0;\n        uint skillsPointer = 0;\n\n        areas = store.get(skillAreas, _user);\n        for (uint area = 1; area != 0; area = area << 2) {\n            if (_isFullOrNull(areas, area)) {\n                continue;\n            }\n\n            uint _categoriesPointer = categoriesPointer;\n            _categories[categoriesPointer++] = store.get(skillCategories, _user, area);\n            for (uint category = 1; category != 0; category = category << 2) {\n                if (_isFullOrNull(_categories[_categoriesPointer], category)) {\n                    continue;\n                }\n                _skills[skillsPointer++] = store.get(skills, _user, area, category);\n            }\n        }\n    }\n\n    function getUsersCount() public view returns (uint) {\n        return store.count(users);\n    }\n\n    /// @notice Gets a number of users that fulfill all requirements: area, all categories and masked skills.\n    /// (similar to AND search)\n    /// @param _area single area to query\n    /// @param _categories list of categories that should be included in provided area\n    /// @param _skills list of skills for each provided categories\n    /// @param _fromIdx pagination param; should be 0 at the beginning, then the latest userIdx that comes from return\n    /// @param _maxLen pagination param; could be getUsersCount() number\n    /// @return {\n    ///     \"_count\": \"amount of found users by provided criterias\",\n    ///     \"_userIdx\": user index where query has stopped, pass to the next query\n    /// }\n    function getStrictUsersByAreaCount(\n        uint _area, \n        uint[] _categories,\n        uint[] _skills,\n        uint _fromIdx,\n        uint _maxLen\n    ) \n    public \n    view \n    returns (uint _count, uint _userIdx) \n    {\n        return _getUsersByAreaCount(\n            _area,\n            _categories,\n            _skills,\n            _fromIdx,\n            _maxLen,\n            _hasStrictSubsequenceOfSkillsInArea\n        );\n    }\n\n    /// @notice Gets a number of users that fulfill any requirements: area, any category and masked skills.\n    /// (similar to OR search)\n    /// @param _area single area to query\n    /// @param _categories list of categories that could be included in provided area\n    /// @param _skills list of skills for each provided categories\n    /// @param _fromIdx pagination param; should be 0 at the beginning, then the latest userIdx that comes from return\n    /// @param _maxLen pagination param; could be getUsersCount() number\n    /// @return {\n    ///     \"_count\": \"amount of found users by provided criterias\",\n    ///     \"_userIdx\": user index where query has stopped, pass to the next query\n    /// }\n    function getUsersByAreaCount(\n        uint _area, \n        uint[] _categories,\n        uint[] _skills,\n        uint _fromIdx,\n        uint _maxLen\n    )\n    public \n    view \n    returns (uint _count, uint _userIdx) \n    {\n        return _getUsersByAreaCount(\n            _area,\n            _categories,\n            _skills,\n            _fromIdx,\n            _maxLen,\n            _hasAnySubsequenceOfSkillsInArea\n        );\n    }\n\n    function _getUsersByAreaCount(\n        uint _area, \n        uint[] _categories,\n        uint[] _skills,\n        uint _fromIdx,\n        uint _maxLen,\n        function(address, uint, uint[] memory, uint[] memory) internal view returns (bool) _hasSubsequeceOfSkills\n    )\n    onlyValidArea(_area)\n    private\n    view \n    returns (uint _count, uint _userIdx)\n    {\n        require(_categories.length == _skills.length);\n\n        uint _usersCount = getUsersCount();\n        require(_fromIdx < _usersCount);\n\n        _maxLen = (_fromIdx + _maxLen <= _usersCount) ? _maxLen : (_usersCount - _fromIdx);\n\n        for (_userIdx = _fromIdx; _userIdx < _fromIdx + _maxLen; _userIdx++) {\n            if (gasleft() < 100000) {\n                return (_count, _userIdx);\n            }\n\n            address _user = store.get(users, _userIdx);\n            \n            uint _userAreas = store.get(skillAreas, _user);\n            _userAreas = _userAreas & _getAreaOrCategoryBits(_area);\n\n            // NOTE: user has less covered areas than input (10 - user, 11 - input)\n            if (!_hasFlags(_userAreas, _area)) { \n                continue;\n            }\n\n            // NOTE: user has all categories for this area and we can count '+1'\n            if (!_isSingleFlag(_userAreas)) { \n                _count += 1;\n                continue;\n            }\n\n            // NOTE: all skills and categories should fit, otherwise skip this user\n            if (!_hasSubsequeceOfSkills(_user, _userAreas, _categories, _skills)) {\n                continue;\n            }\n\n            _count += 1;\n        }\n    }\n\n    function _hasStrictSubsequenceOfSkillsInArea(\n        address _user, \n        uint _area, \n        uint[] _categories, \n        uint[] _skills\n    ) \n    internal \n    view \n    returns (bool) \n    {\n        uint _userCategories = store.get(skillCategories, _user, _area);\n        for (uint _categoryIdx = 0; _categoryIdx < _categories.length; ++_categoryIdx) {\n            uint _category = _categories[_categoryIdx];\n            require(_isValidAreaOrCategory(_category));\n            \n            uint _userCategory = _userCategories & _getAreaOrCategoryBits(_category);\n\n            // NOTE: user has less covered categories than input (10 - user, 11 - input)\n            if (!_hasFlags(_userCategory, _category)) { \n                return false;\n            }\n\n            // NOTE: user has all skills in this category and we can count '+1'\n            if (!_isSingleFlag(_userCategory)) { \n                continue;\n            }\n            \n            // NOTE: skills could be passed as 111111 mask to get categories with any skills\n            if (!_hasFlags(_skills[_categoryIdx], store.get(skills, _user, _area, _category))) { \n                return false;\n            }\n        }\n\n        return true;\n    }\n\n    function _hasAnySubsequenceOfSkillsInArea(\n        address _user, \n        uint _area, \n        uint[] _categories, \n        uint[] _skills\n    ) \n    internal \n    view \n    returns (bool) \n    {\n        if (_categories.length == 0) {\n            return true;\n        }\n\n        uint _userCategories = store.get(skillCategories, _user, _area);\n        for (uint _categoryIdx = 0; _categoryIdx < _categories.length; ++_categoryIdx) {\n            uint _category = _categories[_categoryIdx];\n            require(_isValidAreaOrCategory(_category));\n            \n            uint _userCategory = _userCategories & _getAreaOrCategoryBits(_category);\n\n            // NOTE: allow to have another check if a category doesn't fit\n            if (!_hasFlags(_userCategory, _category)) { \n                continue;\n            }\n\n            // NOTE: user has all skills in this category and we can count '+1'\n            if (!_isSingleFlag(_userCategory)) { \n                return true;\n            }\n            \n            // NOTE: skills could pass at least one check to be successfull\n            if (_hasFlags(_skills[_categoryIdx], store.get(skills, _user, _area, _category))) { \n                return true;\n            }\n        }\n\n        return false;\n    }\n\n    function setAreas(\n        address _user, \n        uint _areas\n    )\n    auth\n    ifEvenThenOddTooFlags(_areas)\n    public\n    returns (uint) \n    {\n        for (uint area = 1; area != 0; area = area << 2) {\n            if (_isFullOrNull(_areas, area)) {\n                continue;\n            }\n            if (store.get(skillCategories, _user, area) == 0) {\n                return _emitErrorCode(USER_LIBRARY_INVALID_AREA);\n            }\n        }\n\n        _setAreas(_user, _areas);\n\n        return OK;\n    }\n\n    function setCategories(\n        address _user, \n        uint _area, \n        uint _categories\n    )\n    auth\n    singleOddFlag(_area)\n    ifEvenThenOddTooFlags(_categories)\n    hasFlags(_categories)\n    public\n    returns (uint) \n    {\n        _addArea(_user, _area);\n        \n        for (uint category = 1; category != 0; category = category << 2) {\n            if (_isFullOrNull(_categories, category)) {\n                continue;\n            }\n            if (store.get(skills, _user, _area, category) == 0) {\n                return _emitErrorCode(USER_LIBRARY_INVALID_CATEGORY);\n            }\n        }\n\n        _setCategories(_user, _area, _categories);\n\n        return OK;\n    }\n\n    function setSkills(\n        address _user, \n        uint _area, \n        uint _category, \n        uint _skills\n    )\n    auth\n    singleOddFlag(_area)\n    singleOddFlag(_category)\n    hasFlags(_skills)\n    public\n    returns (uint)\n     {\n        _addArea(_user, _area);\n        _addCategory(_user, _area, _category);\n        _setSkills(_user, _area, _category, _skills);\n        return OK;\n    }\n\n    function addMany(address _user, uint _areas, uint[] _categories, uint[] _skills) auth public returns (uint) {\n        return _setMany(_user, _areas, _categories, _skills, false);\n    }\n\n    function setMany(address _user, uint _areas, uint[] _categories, uint[] _skills) auth public returns (uint) {\n        return _setMany(_user, _areas, _categories, _skills, true);\n    }\n\n    function _setMany(\n        address _user, \n        uint _areas, \n        uint[] _categories, \n        uint[] _skills, \n        bool _overwrite\n    )\n    internal\n    returns (uint) \n    {\n        uint categoriesCounter = 0;\n        uint skillsCounter = 0;\n        if (!_ifEvenThenOddTooFlags(_areas)) {\n            return _emitErrorCode(USER_LIBRARY_INVALID_AREA);\n        }\n        \n        _setAreas(_user, _overwrite ? _areas : (store.get(skillAreas, _user) | _areas));\n        \n        for (uint area = 1; area != 0; area = area << 2) {\n            if (_isFullOrNull(_areas, area)) {\n                // Nothing should be put inside full or empty area.\n                continue;\n            }\n\n            require(_ifEvenThenOddTooFlags(_categories[categoriesCounter]));\n            require(_categories[categoriesCounter] != 0);\n\n            // Set categories for current partial area.\n            _setCategories(_user, area, _overwrite ? _categories[categoriesCounter] : (store.get(skillCategories, _user, area) | _categories[categoriesCounter]));\n            \n            for (uint category = 1; category != 0; category = category << 2) {\n                if (_isFullOrNull(_categories[categoriesCounter], category)) {\n                    // Nothing should be put inside full or empty category.\n                    continue;\n                }\n                require(_skills[skillsCounter] != 0);\n                // Set skills for current partial category.\n                _setSkills(_user, area, category, _skills[skillsCounter]);\n                // Move to next skills.\n                skillsCounter += 1;\n            }\n            // Move to next categories.\n            categoriesCounter += 1;\n        }\n        return OK;\n    }\n\n\n    function _addArea(address _user, uint _area) internal {\n        if (hasArea(_user, _area)) {\n            return;\n        }\n\n        _setAreas(_user, store.get(skillAreas, _user) | _area);\n    }\n\n    function _addCategory(address _user, uint _area, uint _category) internal {\n        if (hasCategory(_user, _area, _category)) {\n            return;\n        }\n        _setCategories(_user, _area, store.get(skillCategories, _user, _area) | _category);\n    }\n\n    function _setAreas(address _user, uint _areas) internal {\n        store.add(users, _user);\n        store.set(skillAreas, _user, _areas);\n        _emitSkillAreasSet(_user, _areas);\n    }\n\n    function _setCategories(address _user, uint _area, uint _categories) internal {\n        store.add(users, _user);\n        store.set(skillCategories, _user, _area, _categories);\n        _emitSkillCategoriesSet(_user, _area, _categories);\n    }\n\n    function _setSkills(address _user, uint _area, uint _category, uint _skills) internal {\n        store.add(users, _user);\n        store.set(skills, _user, _area, _category, _skills);\n        _emitSkillsSet(_user, _area, _category, _skills);\n    }\n\n    function _isValidAreaOrCategory(uint _value) private pure returns (bool) {\n        if ((_isSingleFlag(_value) && _isOddFlag(_value)) ||\n            (_ifEvenThenOddTooFlags(_value))\n        ) {\n            return true;\n        }\n    }\n\n    function _getAreaOrCategoryBits(uint _value) private pure returns (uint) {\n        return _isSingleFlag(_value) ? (_value | (_value << 1)) : _value; \n    }\n\n    function _emitSkillAreasSet(address _user, uint _areas) internal {\n        UserLibrary(getEventsHistory()).emitSkillAreasSet(_user, _areas);\n    }\n\n    function _emitSkillCategoriesSet(address _user, uint _area, uint _categories) internal {\n        UserLibrary(getEventsHistory()).emitSkillCategoriesSet(_user, _area, _categories);\n    }\n\n    function _emitSkillsSet(address _user, uint _area, uint _category, uint _skills) internal {\n        UserLibrary(getEventsHistory()).emitSkillsSet(_user, _area, _category, _skills);\n    }\n\n    function emitSkillAreasSet(address _user, uint _areas) public {\n        emit SkillAreasSet(_self(), _user, _areas);\n    }\n\n    function emitSkillCategoriesSet(address _user, uint _area, uint _categories) public {\n        emit SkillCategoriesSet(_self(), _user, _area, _categories);\n    }\n\n    function emitSkillsSet(address _user, uint _area, uint _category, uint _skills) public {\n        emit SkillsSet(_self(), _user, _area, _category, _skills);\n    }\n\n}\n",
  "sourcePath": "/Users/alesanro/Documents/Projects/ChronoBank/LX-SC/contracts/UserLibrary.sol",
  "compiler": {
    "name": "solc",
    "version": "0.4.21+commit.dfe3193c.Emscripten.clang"
  },
  "schemaVersion": "2.0.0",
  "updatedAt": "2018-06-20T11:53:20.691Z"
}