{
  "contractName": "User",
  "abi": [
    {
      "constant": false,
      "inputs": [],
      "name": "claimContractOwnership",
      "outputs": [
        {
          "name": "",
          "type": "bool"
        }
      ],
      "payable": false,
      "stateMutability": "nonpayable",
      "type": "function"
    },
    {
      "constant": false,
      "inputs": [
        {
          "name": "_to",
          "type": "address"
        }
      ],
      "name": "changeContractOwnership",
      "outputs": [
        {
          "name": "",
          "type": "bool"
        }
      ],
      "payable": false,
      "stateMutability": "nonpayable",
      "type": "function"
    },
    {
      "constant": true,
      "inputs": [],
      "name": "pendingContractOwner",
      "outputs": [
        {
          "name": "",
          "type": "address"
        }
      ],
      "payable": false,
      "stateMutability": "view",
      "type": "function"
    },
    {
      "constant": false,
      "inputs": [
        {
          "name": "tokens",
          "type": "address[]"
        }
      ],
      "name": "withdrawTokens",
      "outputs": [],
      "payable": false,
      "stateMutability": "nonpayable",
      "type": "function"
    },
    {
      "constant": false,
      "inputs": [],
      "name": "withdrawEther",
      "outputs": [],
      "payable": false,
      "stateMutability": "nonpayable",
      "type": "function"
    },
    {
      "constant": true,
      "inputs": [],
      "name": "contractOwner",
      "outputs": [
        {
          "name": "",
          "type": "address"
        }
      ],
      "payable": false,
      "stateMutability": "view",
      "type": "function"
    },
    {
      "constant": false,
      "inputs": [
        {
          "name": "newOwner",
          "type": "address"
        }
      ],
      "name": "transferOwnership",
      "outputs": [
        {
          "name": "",
          "type": "bool"
        }
      ],
      "payable": false,
      "stateMutability": "nonpayable",
      "type": "function"
    },
    {
      "inputs": [
        {
          "name": "_owner",
          "type": "address"
        },
        {
          "name": "_recoveryContract",
          "type": "address"
        }
      ],
      "payable": false,
      "stateMutability": "nonpayable",
      "type": "constructor"
    },
    {
      "payable": true,
      "stateMutability": "payable",
      "type": "fallback"
    },
    {
      "anonymous": false,
      "inputs": [
        {
          "indexed": true,
          "name": "previousOwner",
          "type": "address"
        },
        {
          "indexed": true,
          "name": "newOwner",
          "type": "address"
        }
      ],
      "name": "OwnershipTransferred",
      "type": "event"
    },
    {
      "constant": false,
      "inputs": [
        {
          "name": "_userProxy",
          "type": "address"
        }
      ],
      "name": "setUserProxy",
      "outputs": [
        {
          "name": "",
          "type": "uint256"
        }
      ],
      "payable": false,
      "stateMutability": "nonpayable",
      "type": "function"
    },
    {
      "constant": true,
      "inputs": [],
      "name": "getUserProxy",
      "outputs": [
        {
          "name": "",
          "type": "address"
        }
      ],
      "payable": false,
      "stateMutability": "view",
      "type": "function"
    },
    {
      "constant": false,
      "inputs": [
        {
          "name": "_recoveryContract",
          "type": "address"
        }
      ],
      "name": "setRecoveryContract",
      "outputs": [
        {
          "name": "",
          "type": "uint256"
        }
      ],
      "payable": false,
      "stateMutability": "nonpayable",
      "type": "function"
    },
    {
      "constant": false,
      "inputs": [
        {
          "name": "_destination",
          "type": "address"
        },
        {
          "name": "_data",
          "type": "bytes"
        },
        {
          "name": "_value",
          "type": "uint256"
        },
        {
          "name": "_throwOnFailedCall",
          "type": "bool"
        }
      ],
      "name": "forward",
      "outputs": [
        {
          "name": "",
          "type": "bytes32"
        }
      ],
      "payable": false,
      "stateMutability": "nonpayable",
      "type": "function"
    },
    {
      "constant": false,
      "inputs": [
        {
          "name": "newAddress",
          "type": "address"
        }
      ],
      "name": "recoverUser",
      "outputs": [
        {
          "name": "",
          "type": "uint256"
        }
      ],
      "payable": false,
      "stateMutability": "nonpayable",
      "type": "function"
    }
  ],
  "bytecode": "0x6060604052341561000f57600080fd5b604051604080610f97833981016040528080519190602001805160008054600160a060020a03191633600160a060020a0316179055915061005090506100a9565b604051809103906000f080151561006657600080fd5b60028054600160a060020a0319908116600160a060020a0393841617909155600380548216938316939093179092556000805490921692169190911790556100b9565b6040516106d0806108c783390190565b6107ff806100c86000396000f3006060604052600436106100a05763ffffffff60e060020a60003504166335f2507f81146100a55780634592cd1d146100d6578063557f4bc9146100fd5780635aa77d3c1461011c5780635ecb16cd1461014b5780636029d66f1461019c5780637362377b146101bb57806389f4fd57146101ce578063ce606ee0146101e1578063dffdc75d146101f4578063eb8a5cd61461025c578063f2fde38b1461027b575b600080fd5b34156100b057600080fd5b6100c4600160a060020a036004351661029a565b60405190815260200160405180910390f35b34156100e157600080fd5b6100e96102e5565b604051901515815260200160405180910390f35b341561010857600080fd5b6100e9600160a060020a036004351661037c565b341561012757600080fd5b61012f6103dc565b604051600160a060020a03909116815260200160405180910390f35b341561015657600080fd5b61019a60046024813581810190830135806020818102016040519081016040528093929190818152602001838360200280828437509496506103eb95505050505050565b005b34156101a757600080fd5b6100c4600160a060020a0360043516610516565b34156101c657600080fd5b61019a610560565b34156101d957600080fd5b61012f6105c1565b34156101ec57600080fd5b61012f6105d0565b34156101ff57600080fd5b6100c460048035600160a060020a03169060446024803590810190830135806020601f820181900481020160405190810160405281815292919060208401838380828437509496505084359460200135151593506105df92505050565b341561026757600080fd5b6100c4600160a060020a03600435166106eb565b341561028657600080fd5b6100e9600160a060020a0360043516610735565b60035460009033600160a060020a03908116911614156102e057506000805473ffffffffffffffffffffffffffffffffffffffff1916600160a060020a03831617905560015b919050565b60015460009033600160a060020a0390811691161461030657506000610379565b600154600054600160a060020a0391821691167f8be0079c531659141344cd1fd0a4f28419497f9722a3daafe3b4186f6b6457e060405160405180910390a350600180546000805473ffffffffffffffffffffffffffffffffffffffff19908116600160a060020a038416179091551681555b90565b6000805433600160a060020a03908116911614156102e057600160a060020a03821615156103ac575060006102e0565b5060018054600160a060020a03831673ffffffffffffffffffffffffffffffffffffffff19909116178155919050565b600154600160a060020a031681565b600080548190819033600160a060020a039081169116141561051057600092505b83518310156105105783838151811061042157fe5b90602001906020020151915081600160a060020a03166370a082313060405160e060020a63ffffffff8416028152600160a060020a039091166004820152602401602060405180830381600087803b151561047b57600080fd5b5af1151561048857600080fd5b505050604051805191505080156105055781600160a060020a031663a9059cbb338360405160e060020a63ffffffff8516028152600160a060020a0390921660048301526024820152604401602060405180830381600087803b15156104ed57600080fd5b5af115156104fa57600080fd5b505050604051805150505b60019092019161040c565b50505050565b6000805433600160a060020a03908116911614156102e0575060038054600160a060020a03831673ffffffffffffffffffffffffffffffffffffffff199091161790556001919050565b6000805433600160a060020a03908116911614156105be5750600160a060020a0330163160008111156105be57600160a060020a03331681156108fc0282604051600060405180830381858888f1935050505015156105be57600080fd5b50565b600254600160a060020a031690565b600054600160a060020a031681565b6000805433600160a060020a03908116911614156106e357600254600160a060020a031663dffdc75d8686868660405160e060020a63ffffffff8716028152600160a060020a03851660048201908152604482018490528215156064830152608060248301908152909160840185818151815260200191508051906020019080838360005b8381101561067c578082015183820152602001610664565b50505050905090810190601f1680156106a95780820380516001836020036101000a031916815260200191505b5095505050505050602060405180830381600087803b15156106ca57600080fd5b5af115156106d757600080fd5b50505060405180519150505b949350505050565b6000805433600160a060020a03908116911614156102e0575060028054600160a060020a03831673ffffffffffffffffffffffffffffffffffffffff199091161790556001919050565b6000805433600160a060020a03908116911614156102e057600160a060020a0382161515610765575060006102e0565b600054600160a060020a0380841691167f8be0079c531659141344cd1fd0a4f28419497f9722a3daafe3b4186f6b6457e060405160405180910390a35060008054600160a060020a03831673ffffffffffffffffffffffffffffffffffffffff1990911617905560019190505600a165627a7a723058206cd461092a1a9af42354a4e494be69238dc6aef6c7288e8a67176b25edf9246c0029606060405260008054600160a060020a033316600160a060020a03199091161790556106a0806100306000396000f3006060604052600436106100745763ffffffff60e060020a6000350416634592cd1d81146100b3578063557f4bc9146100da5780635aa77d3c146100f95780635ecb16cd146101285780637362377b14610179578063ce606ee01461018c578063dffdc75d1461019f578063f2fde38b14610219575b33600160a060020a03167f88a5966d370b9919b20f3e2c13ff65706f196a4e32cc2c12bf57088f885258743460405190815260200160405180910390a2005b34156100be57600080fd5b6100c6610238565b604051901515815260200160405180910390f35b34156100e557600080fd5b6100c6600160a060020a03600435166102cf565b341561010457600080fd5b61010c61032e565b604051600160a060020a03909116815260200160405180910390f35b341561013357600080fd5b610177600460248135818101908301358060208181020160405190810160405280939291908181526020018383602002808284375094965061033d95505050505050565b005b341561018457600080fd5b610177610468565b341561019757600080fd5b61010c6104c9565b34156101aa57600080fd5b61020760048035600160a060020a03169060446024803590810190830135806020601f820181900481020160405190810160405281815292919060208401838380828437509496505084359460200135151593506104d892505050565b60405190815260200160405180910390f35b341561022457600080fd5b6100c6600160a060020a03600435166105d6565b60015460009033600160a060020a03908116911614610259575060006102cc565b600154600054600160a060020a0391821691167f8be0079c531659141344cd1fd0a4f28419497f9722a3daafe3b4186f6b6457e060405160405180910390a350600180546000805473ffffffffffffffffffffffffffffffffffffffff19908116600160a060020a038416179091551681555b90565b6000805433600160a060020a039081169116141561032957600160a060020a03821615156102ff57506000610329565b506001805473ffffffffffffffffffffffffffffffffffffffff1916600160a060020a0383161781555b919050565b600154600160a060020a031681565b600080548190819033600160a060020a039081169116141561046257600092505b83518310156104625783838151811061037357fe5b90602001906020020151915081600160a060020a03166370a082313060405160e060020a63ffffffff8416028152600160a060020a039091166004820152602401602060405180830381600087803b15156103cd57600080fd5b5af115156103da57600080fd5b505050604051805191505080156104575781600160a060020a031663a9059cbb338360405160e060020a63ffffffff8516028152600160a060020a0390921660048301526024820152604401602060405180830381600087803b151561043f57600080fd5b5af1151561044c57600080fd5b505050604051805150505b60019092019161035e565b50505050565b6000805433600160a060020a03908116911614156104c65750600160a060020a0330163160008111156104c657600160a060020a03331681156108fc0282604051600060405180830381858888f1935050505015156104c657600080fd5b50565b600054600160a060020a031681565b60008054819033600160a060020a03908116911614156105cd5760206000865160208801878a6040603f5a0204f1905060005191508080610517575082155b151561052257600080fd5b85600160a060020a03167fc1de93dfa06362c6a616cde73ec17d116c0d588dd1df70f27f91b500de207c41858760405182815260406020820181815290820183818151815260200191508051906020019080838360005b83811015610591578082015183820152602001610579565b50505050905090810190601f1680156105be5780820380516001836020036101000a031916815260200191505b50935050505060405180910390a25b50949350505050565b6000805433600160a060020a039081169116141561032957600160a060020a038216151561060657506000610329565b600054600160a060020a0380841691167f8be0079c531659141344cd1fd0a4f28419497f9722a3daafe3b4186f6b6457e060405160405180910390a35060008054600160a060020a03831673ffffffffffffffffffffffffffffffffffffffff1990911617905560019190505600a165627a7a723058209b0b55b60ada10dadfc5c3f62ca070b8c625c7294a0619e8dc9b682dccb9e2a80029",
  "source": "/**\n * Copyright 2017–2018, LaborX PTY\n * Licensed under the AGPL Version 3 license.\n */\n\npragma solidity ^0.4.21;\n\n\nimport \"solidity-shared-lib/contracts/Owned.sol\";\nimport \"./User.sol\";\nimport \"./UserProxy.sol\";\n\n\ncontract User is Owned {\n\n    uint constant OK = 1;\n\n    UserProxy userProxy;\n    address recoveryContract;\n\n    modifier onlyRecoveryContract() {\n        if (recoveryContract == msg.sender) {\n            _;\n        }\n    }\n\n    function User(address _owner, address _recoveryContract) public {\n        userProxy = new UserProxy();\n        recoveryContract = _recoveryContract;\n        contractOwner = _owner;\n    }\n\n    function setUserProxy(UserProxy _userProxy) onlyContractOwner public returns (uint) {\n        userProxy = _userProxy;\n        return OK;\n    }\n\n    function getUserProxy() public view returns(address) {\n        return userProxy;\n    }\n\n    function setRecoveryContract(address _recoveryContract) onlyContractOwner public returns (uint) {\n        recoveryContract = _recoveryContract;\n        return OK;\n    }\n\n    function forward(\n        address _destination,\n        bytes _data,\n        uint _value,\n        bool _throwOnFailedCall\n    )\n    onlyContractOwner\n    public\n    returns (bytes32) \n    {\n        return userProxy.forward(_destination, _data, _value, _throwOnFailedCall);\n    }\n\n    function recoverUser(address newAddress) onlyRecoveryContract public returns (uint) {\n        contractOwner = newAddress;\n        return OK;\n    }\n\n}\n",
  "sourcePath": "/Users/alesanro/Documents/Projects/ChronoBank/LX-SC/contracts/User.sol",
  "compiler": {
    "name": "solc",
    "version": "0.4.21+commit.dfe3193c.Emscripten.clang"
  },
  "schemaVersion": "2.0.0",
  "updatedAt": "2018-06-20T11:43:09.777Z"
}