{
  "contractName": "User",
  "abi": [
    {
      "constant": false,
      "inputs": [],
      "name": "claimContractOwnership",
      "outputs": [
        {
          "name": "",
          "type": "bool"
        }
      ],
      "payable": false,
      "stateMutability": "nonpayable",
      "type": "function"
    },
    {
      "constant": false,
      "inputs": [
        {
          "name": "_to",
          "type": "address"
        }
      ],
      "name": "changeContractOwnership",
      "outputs": [
        {
          "name": "",
          "type": "bool"
        }
      ],
      "payable": false,
      "stateMutability": "nonpayable",
      "type": "function"
    },
    {
      "constant": true,
      "inputs": [],
      "name": "pendingContractOwner",
      "outputs": [
        {
          "name": "",
          "type": "address"
        }
      ],
      "payable": false,
      "stateMutability": "view",
      "type": "function"
    },
    {
      "constant": false,
      "inputs": [
        {
          "name": "tokens",
          "type": "address[]"
        }
      ],
      "name": "withdrawTokens",
      "outputs": [],
      "payable": false,
      "stateMutability": "nonpayable",
      "type": "function"
    },
    {
      "constant": false,
      "inputs": [],
      "name": "withdrawEther",
      "outputs": [],
      "payable": false,
      "stateMutability": "nonpayable",
      "type": "function"
    },
    {
      "constant": true,
      "inputs": [],
      "name": "contractOwner",
      "outputs": [
        {
          "name": "",
          "type": "address"
        }
      ],
      "payable": false,
      "stateMutability": "view",
      "type": "function"
    },
    {
      "inputs": [
        {
          "name": "_owner",
          "type": "address"
        },
        {
          "name": "_recoveryContract",
          "type": "address"
        }
      ],
      "payable": false,
      "stateMutability": "nonpayable",
      "type": "constructor"
    },
    {
      "constant": false,
      "inputs": [
        {
          "name": "_userProxy",
          "type": "address"
        }
      ],
      "name": "setUserProxy",
      "outputs": [
        {
          "name": "",
          "type": "uint256"
        }
      ],
      "payable": false,
      "stateMutability": "nonpayable",
      "type": "function"
    },
    {
      "constant": true,
      "inputs": [],
      "name": "getUserProxy",
      "outputs": [
        {
          "name": "",
          "type": "address"
        }
      ],
      "payable": false,
      "stateMutability": "view",
      "type": "function"
    },
    {
      "constant": false,
      "inputs": [
        {
          "name": "_recoveryContract",
          "type": "address"
        }
      ],
      "name": "setRecoveryContract",
      "outputs": [
        {
          "name": "",
          "type": "uint256"
        }
      ],
      "payable": false,
      "stateMutability": "nonpayable",
      "type": "function"
    },
    {
      "constant": false,
      "inputs": [
        {
          "name": "_destination",
          "type": "address"
        },
        {
          "name": "_data",
          "type": "bytes"
        },
        {
          "name": "_value",
          "type": "uint256"
        },
        {
          "name": "_throwOnFailedCall",
          "type": "bool"
        }
      ],
      "name": "forward",
      "outputs": [
        {
          "name": "",
          "type": "bytes32"
        }
      ],
      "payable": false,
      "stateMutability": "nonpayable",
      "type": "function"
    },
    {
      "constant": false,
      "inputs": [
        {
          "name": "newAddress",
          "type": "address"
        }
      ],
      "name": "recoverUser",
      "outputs": [
        {
          "name": "",
          "type": "uint256"
        }
      ],
      "payable": false,
      "stateMutability": "nonpayable",
      "type": "function"
    }
  ],
  "bytecode": "0x6060604052341561000f57600080fd5b604051604080610d84833981016040528080519190602001805160008054600160a060020a03191633600160a060020a0316179055915061005090506100a9565b604051809103906000f080151561006657600080fd5b60028054600160a060020a0319908116600160a060020a0393841617909155600380548216938316939093179092556000805490921692169190911790556100b9565b6040516105c0806107c483390190565b6106fc806100c86000396000f3006060604052600436106100955763ffffffff60e060020a60003504166335f2507f811461009a5780634592cd1d146100cb578063557f4bc9146100f25780635aa77d3c146101115780635ecb16cd146101405780636029d66f146101605780637362377b1461017f57806389f4fd5714610192578063ce606ee0146101a5578063dffdc75d146101b8578063eb8a5cd614610220575b600080fd5b34156100a557600080fd5b6100b9600160a060020a036004351661023f565b60405190815260200160405180910390f35b34156100d657600080fd5b6100de61028a565b604051901515815260200160405180910390f35b34156100fd57600080fd5b6100de600160a060020a03600435166102e2565b341561011c57600080fd5b610124610342565b604051600160a060020a03909116815260200160405180910390f35b341561014b57600080fd5b61015e6004803560248101910135610351565b005b341561016b57600080fd5b6100b9600160a060020a036004351661049c565b341561018a57600080fd5b61015e6104e6565b341561019d57600080fd5b61012461054f565b34156101b057600080fd5b61012461055e565b34156101c357600080fd5b6100b960048035600160a060020a03169060446024803590810190830135806020601f8201819004810201604051908101604052818152929190602084018383808284375094965050843594602001351515935061056d92505050565b341561022b57600080fd5b6100b9600160a060020a0360043516610686565b60035460009033600160a060020a039081169116141561028557506000805473ffffffffffffffffffffffffffffffffffffffff1916600160a060020a03831617905560015b919050565b60015460009033600160a060020a039081169116146102ab575060006102df565b50600180546000805473ffffffffffffffffffffffffffffffffffffffff19908116600160a060020a038416179091551681555b90565b6000805433600160a060020a039081169116141561028557600160a060020a038216151561031257506000610285565b5060018054600160a060020a03831673ffffffffffffffffffffffffffffffffffffffff19909116178155919050565b600154600160a060020a031681565b600080548190819033600160a060020a039081169116141561049557600092505b838310156104955784848481811061038657fe5b90506020020135600160a060020a0316915081600160a060020a03166370a082313060006040516020015260405160e060020a63ffffffff8416028152600160a060020a039091166004820152602401602060405180830381600087803b15156103ef57600080fd5b6102c65a03f1151561040057600080fd5b5050506040518051915050801561048a5781600160a060020a031663a9059cbb338360006040516020015260405160e060020a63ffffffff8516028152600160a060020a0390921660048301526024820152604401602060405180830381600087803b151561046e57600080fd5b6102c65a03f1151561047f57600080fd5b505050604051805150505b600190920191610372565b5050505050565b6000805433600160a060020a0390811691161415610285575060038054600160a060020a03831673ffffffffffffffffffffffffffffffffffffffff199091161790556001919050565b60005433600160a060020a039081169116141561054d57600030600160a060020a031631111561054d5733600160a060020a03166108fc30600160a060020a0316319081150290604051600060405180830381858888f19350505050151561054d57600080fd5b565b600254600160a060020a031690565b600054600160a060020a031681565b6000805433600160a060020a039081169116141561067e57600254600160a060020a031663dffdc75d8686868660006040516020015260405160e060020a63ffffffff8716028152600160a060020a03851660048201908152604482018490528215156064830152608060248301908152909160840185818151815260200191508051906020019080838360005b838110156106135780820151838201526020016105fb565b50505050905090810190601f1680156106405780820380516001836020036101000a031916815260200191505b5095505050505050602060405180830381600087803b151561066157600080fd5b6102c65a03f1151561067257600080fd5b50505060405180519150505b949350505050565b6000805433600160a060020a0390811691161415610285575060028054600160a060020a03831673ffffffffffffffffffffffffffffffffffffffff1990911617905560019190505600a165627a7a72305820e349352ce5b0c81e8d8851bed7a2507e33e868f710ca25aa71b24248174872e90029606060405260008054600160a060020a033316600160a060020a0319909116179055610590806100306000396000f3006060604052600436106100695763ffffffff60e060020a6000350416634592cd1d81146100a8578063557f4bc9146100cf5780635aa77d3c146100ee5780635ecb16cd1461011d5780637362377b1461013d578063ce606ee014610150578063dffdc75d14610163575b33600160a060020a03167f88a5966d370b9919b20f3e2c13ff65706f196a4e32cc2c12bf57088f885258743460405190815260200160405180910390a2005b34156100b357600080fd5b6100bb6101dd565b604051901515815260200160405180910390f35b34156100da57600080fd5b6100bb600160a060020a0360043516610235565b34156100f957600080fd5b610101610294565b604051600160a060020a03909116815260200160405180910390f35b341561012857600080fd5b61013b60048035602481019101356102a3565b005b341561014857600080fd5b61013b6103ee565b341561015b57600080fd5b610101610457565b341561016e57600080fd5b6101cb60048035600160a060020a03169060446024803590810190830135806020601f8201819004810201604051908101604052818152929190602084018383808284375094965050843594602001351515935061046692505050565b60405190815260200160405180910390f35b60015460009033600160a060020a039081169116146101fe57506000610232565b50600180546000805473ffffffffffffffffffffffffffffffffffffffff19908116600160a060020a038416179091551681555b90565b6000805433600160a060020a039081169116141561028f57600160a060020a03821615156102655750600061028f565b506001805473ffffffffffffffffffffffffffffffffffffffff1916600160a060020a0383161781555b919050565b600154600160a060020a031681565b600080548190819033600160a060020a03908116911614156103e757600092505b838310156103e7578484848181106102d857fe5b90506020020135600160a060020a0316915081600160a060020a03166370a082313060006040516020015260405160e060020a63ffffffff8416028152600160a060020a039091166004820152602401602060405180830381600087803b151561034157600080fd5b6102c65a03f1151561035257600080fd5b505050604051805191505080156103dc5781600160a060020a031663a9059cbb338360006040516020015260405160e060020a63ffffffff8516028152600160a060020a0390921660048301526024820152604401602060405180830381600087803b15156103c057600080fd5b6102c65a03f115156103d157600080fd5b505050604051805150505b6001909201916102c4565b5050505050565b60005433600160a060020a039081169116141561045557600030600160a060020a03163111156104555733600160a060020a03166108fc30600160a060020a0316319081150290604051600060405180830381858888f19350505050151561045557600080fd5b565b600054600160a060020a031681565b60008054819033600160a060020a039081169116141561055b5760206000865160208801878a6040603f5a0204f19050600051915080806104a5575082155b15156104b057600080fd5b85600160a060020a03167fc1de93dfa06362c6a616cde73ec17d116c0d588dd1df70f27f91b500de207c41858760405182815260406020820181815290820183818151815260200191508051906020019080838360005b8381101561051f578082015183820152602001610507565b50505050905090810190601f16801561054c5780820380516001836020036101000a031916815260200191505b50935050505060405180910390a25b509493505050505600a165627a7a723058206325d3e2485d8e98213e3cb0f8d29f256e8e431b1edb5a80e94a223d04432c2f0029",
  "source": "/**\n * Copyright 2017–2018, LaborX PTY\n * Licensed under the AGPL Version 3 license.\n */\n\npragma solidity ^0.4.18;\n\n\nimport './User.sol';\nimport './UserProxy.sol';\nimport './base/Owned.sol';\n\n\ncontract User is Owned {\n\n    uint constant OK = 1;\n\n    UserProxy userProxy;\n    address recoveryContract;\n\n    modifier onlyRecoveryContract() {\n        if (recoveryContract == msg.sender) {\n            _;\n        }\n    }\n\n    function User(address _owner, address _recoveryContract) public {\n        userProxy = new UserProxy();\n        recoveryContract = _recoveryContract;\n        contractOwner = _owner;\n    }\n\n    function setUserProxy(UserProxy _userProxy) onlyContractOwner public returns (uint) {\n        userProxy = _userProxy;\n        return OK;\n    }\n\n    function getUserProxy() public view returns(address) {\n        return userProxy;\n    }\n\n    function setRecoveryContract(address _recoveryContract) onlyContractOwner public returns (uint) {\n        recoveryContract = _recoveryContract;\n        return OK;\n    }\n\n    function forward(\n        address _destination,\n        bytes _data,\n        uint _value,\n        bool _throwOnFailedCall\n    )\n    onlyContractOwner\n    public\n    returns (bytes32) \n    {\n        return userProxy.forward(_destination, _data, _value, _throwOnFailedCall);\n    }\n\n    function recoverUser(address newAddress) onlyRecoveryContract public returns (uint) {\n        contractOwner = newAddress;\n        return OK;\n    }\n\n}\n",
  "sourcePath": "/Users/ahiatsevich/Development/chronobank/LX-SC/contracts/User.sol",
  "compiler": {
    "name": "solc",
    "version": "0.4.19+commit.c4cbbb05.Emscripten.clang"
  },
  "schemaVersion": "2.0.0",
  "updatedAt": "2018-05-24T10:48:46.520Z"
}