{
  "contractName": "UserFactory",
  "abi": [
    {
      "constant": false,
      "inputs": [
        {
          "name": "_eventsHistory",
          "type": "address"
        }
      ],
      "name": "setupEventsHistory",
      "outputs": [
        {
          "name": "",
          "type": "uint256"
        }
      ],
      "payable": false,
      "stateMutability": "nonpayable",
      "type": "function"
    },
    {
      "constant": true,
      "inputs": [],
      "name": "getUserLibrary",
      "outputs": [
        {
          "name": "",
          "type": "address"
        }
      ],
      "payable": false,
      "stateMutability": "view",
      "type": "function"
    },
    {
      "constant": false,
      "inputs": [
        {
          "name": "_roles2Library",
          "type": "address"
        }
      ],
      "name": "setRoles2Library",
      "outputs": [
        {
          "name": "",
          "type": "uint256"
        }
      ],
      "payable": false,
      "stateMutability": "nonpayable",
      "type": "function"
    },
    {
      "constant": false,
      "inputs": [
        {
          "name": "_owner",
          "type": "address"
        },
        {
          "name": "_recoveryContract",
          "type": "address"
        },
        {
          "name": "_roles",
          "type": "uint8[]"
        },
        {
          "name": "_areas",
          "type": "uint256"
        },
        {
          "name": "_categories",
          "type": "uint256[]"
        },
        {
          "name": "_skills",
          "type": "uint256[]"
        }
      ],
      "name": "createUserWithProxyAndRecovery",
      "outputs": [
        {
          "name": "",
          "type": "uint256"
        }
      ],
      "payable": false,
      "stateMutability": "nonpayable",
      "type": "function"
    },
    {
      "constant": false,
      "inputs": [
        {
          "name": "_user",
          "type": "address"
        },
        {
          "name": "_proxy",
          "type": "address"
        },
        {
          "name": "_recoveryContract",
          "type": "address"
        },
        {
          "name": "_owner",
          "type": "address"
        },
        {
          "name": "_roles",
          "type": "uint8[]"
        },
        {
          "name": "_areas",
          "type": "uint256"
        },
        {
          "name": "_categories",
          "type": "uint256[]"
        },
        {
          "name": "_skills",
          "type": "uint256[]"
        }
      ],
      "name": "emitUserCreated",
      "outputs": [],
      "payable": false,
      "stateMutability": "nonpayable",
      "type": "function"
    },
    {
      "constant": false,
      "inputs": [
        {
          "name": "_errorCode",
          "type": "uint256"
        }
      ],
      "name": "emitErrorCode",
      "outputs": [],
      "payable": false,
      "stateMutability": "nonpayable",
      "type": "function"
    },
    {
      "constant": false,
      "inputs": [
        {
          "name": "_msg",
          "type": "bytes32"
        }
      ],
      "name": "emitError",
      "outputs": [],
      "payable": false,
      "stateMutability": "nonpayable",
      "type": "function"
    },
    {
      "constant": false,
      "inputs": [
        {
          "name": "_userLibrary",
          "type": "address"
        }
      ],
      "name": "setUserLibrary",
      "outputs": [
        {
          "name": "",
          "type": "uint256"
        }
      ],
      "payable": false,
      "stateMutability": "nonpayable",
      "type": "function"
    },
    {
      "constant": true,
      "inputs": [],
      "name": "getEventsHistory",
      "outputs": [
        {
          "name": "",
          "type": "address"
        }
      ],
      "payable": false,
      "stateMutability": "view",
      "type": "function"
    },
    {
      "inputs": [
        {
          "name": "_roles2Library",
          "type": "address"
        }
      ],
      "payable": false,
      "stateMutability": "nonpayable",
      "type": "constructor"
    },
    {
      "anonymous": false,
      "inputs": [
        {
          "indexed": true,
          "name": "self",
          "type": "address"
        },
        {
          "indexed": true,
          "name": "user",
          "type": "address"
        },
        {
          "indexed": false,
          "name": "proxy",
          "type": "address"
        },
        {
          "indexed": false,
          "name": "recoveryContract",
          "type": "address"
        },
        {
          "indexed": false,
          "name": "owner",
          "type": "address"
        },
        {
          "indexed": false,
          "name": "roles",
          "type": "uint8[]"
        },
        {
          "indexed": false,
          "name": "areas",
          "type": "uint256"
        },
        {
          "indexed": false,
          "name": "categories",
          "type": "uint256[]"
        },
        {
          "indexed": false,
          "name": "skills",
          "type": "uint256[]"
        }
      ],
      "name": "UserCreated",
      "type": "event"
    },
    {
      "anonymous": false,
      "inputs": [
        {
          "indexed": false,
          "name": "line",
          "type": "uint256"
        },
        {
          "indexed": false,
          "name": "desc",
          "type": "bytes32"
        }
      ],
      "name": "DebugEvent1",
      "type": "event"
    },
    {
      "anonymous": false,
      "inputs": [
        {
          "indexed": false,
          "name": "line",
          "type": "uint256"
        },
        {
          "indexed": false,
          "name": "desc",
          "type": "uint256"
        }
      ],
      "name": "DebugEvent2",
      "type": "event"
    },
    {
      "anonymous": false,
      "inputs": [
        {
          "indexed": false,
          "name": "line",
          "type": "uint256"
        },
        {
          "indexed": false,
          "name": "desc",
          "type": "address"
        }
      ],
      "name": "DebugEvent3",
      "type": "event"
    },
    {
      "anonymous": false,
      "inputs": [
        {
          "indexed": false,
          "name": "code",
          "type": "address"
        },
        {
          "indexed": false,
          "name": "sender",
          "type": "address"
        },
        {
          "indexed": false,
          "name": "sig",
          "type": "bytes4"
        }
      ],
      "name": "AuthFailedError",
      "type": "event"
    },
    {
      "anonymous": false,
      "inputs": [
        {
          "indexed": true,
          "name": "self",
          "type": "address"
        },
        {
          "indexed": false,
          "name": "msg",
          "type": "bytes32"
        }
      ],
      "name": "Error",
      "type": "event"
    },
    {
      "anonymous": false,
      "inputs": [
        {
          "indexed": true,
          "name": "self",
          "type": "address"
        },
        {
          "indexed": false,
          "name": "errorCode",
          "type": "uint256"
        }
      ],
      "name": "ErrorCode",
      "type": "event"
    }
  ],
  "bytecode": "0x6060604052341561000f57600080fd5b604051602080611c7d8339810160405280805160018054600160a060020a03909216600160a060020a03199092169190911790555050611c29806100546000396000f30060606040526004361061007f5763ffffffff60e060020a60003504166302927d208114610084578063127c3d45146100b55780632637cd7d146100e45780635be62401146101035780635c0796fd146101f35780638834277e146102ee578063e90459f814610304578063ec2b50bf1461031a578063fff10aba14610339575b600080fd5b341561008f57600080fd5b6100a3600160a060020a036004351661034c565b60405190815260200160405180910390f35b34156100c057600080fd5b6100c86103f0565b604051600160a060020a03909116815260200160405180910390f35b34156100ef57600080fd5b6100a3600160a060020a03600435166103ff565b341561010e57600080fd5b6100a3600160a060020a0360048035821691602480359091169190606490604435908101908301358060208181020160405190810160405280939291908181526020018383602002808284378201915050505050509190803590602001909190803590602001908201803590602001908080602002602001604051908101604052809392919081815260200183836020028082843782019150505050505091908035906020019082018035906020019080806020026020016040519081016040528093929190818152602001838360200280828437509496506104aa95505050505050565b34156101fe57600080fd5b6102ec600160a060020a036004803582169160248035821692604435831692606435169160a4906084359081019083013580602081810201604051908101604052809392919081815260200183836020028082843782019150505050505091908035906020019091908035906020019082018035906020019080806020026020016040519081016040528093929190818152602001838360200280828437820191505050505050919080359060200190820180359060200190808060200260200160405190810160405280939291908181526020018383602002808284375094965061061195505050505050565b005b34156102f957600080fd5b6102ec600435610766565b341561030f57600080fd5b6102ec6004356107ad565b341561032557600080fd5b6100a3600160a060020a03600435166107f4565b341561034457600080fd5b6100c86108a1565b600061036433600035600160e060020a0319166108b0565b15156103c757600080516020611bde8339815191523033600035600160e060020a031916604051600160a060020a039384168152919092166020820152600160e060020a03199091166040808301919091526060909101905180910390a16103eb565b600160a060020a03821615156103dc57600080fd5b6103e582610986565b50600190505b919050565b600254600160a060020a031690565b600061041733600035600160e060020a0319166108b0565b151561047a57600080516020611bde8339815191523033600035600160e060020a031916604051600160a060020a039384168152919092166020820152600160e060020a03199091166040808301919091526060909101905180910390a16103eb565b5060018054600160a060020a03831673ffffffffffffffffffffffffffffffffffffffff19909116178155919050565b60008060006104c533600035600160e060020a0319166108b0565b151561052857600080516020611bde8339815191523033600035600160e060020a031916604051600160a060020a039384168152919092166020820152600160e060020a03199091166040808301919091526060909101905180910390a1610605565b600160a060020a038916151561053d57600080fd5b8888610547610e49565b600160a060020a0392831681529116602082015260409081019051809103906000f080151561057557600080fd5b915081600160a060020a03166389f4fd576000604051602001526040518163ffffffff1660e060020a028152600401602060405180830381600087803b15156105bd57600080fd5b6102c65a03f115156105ce57600080fd5b5050506040518051905090506105e481886109b7565b6105f081878787610a6e565b61060082828a8c8b8b8b8b610c65565b600192505b50509695505050505050565b87600160a060020a0316610623610ddc565b600160a060020a03167f19b61e517db0f8c27cdebbc3af018e6353980e5b05666f9676cb976d6422c3f789898989898989604051600160a060020a0380891682528781166020830152861660408201526080810184905260e0606082018181529060a083019060c0840190840188818151815260200191508051906020019060200280838360005b838110156106c35780820151838201526020016106ab565b50505050905001848103835286818151815260200191508051906020019060200280838360005b838110156107025780820151838201526020016106ea565b50505050905001848103825285818151815260200191508051906020019060200280838360005b83811015610741578082015183820152602001610729565b505050509050019a505050505050505050505060405180910390a35050505050505050565b61076e610ddc565b600160a060020a03167f09e0713b45664e161c202b19bb4574ee83dfa056f9bfdee56847b3971d9682218260405190815260200160405180910390a250565b6107b5610ddc565b600160a060020a03167fbb8f0c1d8804cd86e7873ec11cb00af945c8c0ebd061a68b28617034803464158260405190815260200160405180910390a250565b600061080c33600035600160e060020a0319166108b0565b151561086f57600080516020611bde8339815191523033600035600160e060020a031916604051600160a060020a039384168152919092166020820152600160e060020a03199091166040808301919091526060909101905180910390a16103eb565b5060028054600160a060020a03831673ffffffffffffffffffffffffffffffffffffffff199091161790556001919050565b600054600160a060020a031690565b600030600160a060020a031683600160a060020a031614156108d457506001610980565b600154600160a060020a031615156108ee57506000610980565b600154600160a060020a031663b700961384308560006040516020015260405160e060020a63ffffffff8616028152600160a060020a039384166004820152919092166024820152600160e060020a03199091166044820152606401602060405180830381600087803b151561096357600080fd5b6102c65a03f1151561097457600080fd5b50505060405180519150505b92915050565b60008054600160a060020a03831673ffffffffffffffffffffffffffffffffffffffff199091161790556001919050565b60005b8151811015610a6957600154600160a060020a031663e1e09299848484815181106109e157fe5b9060200190602002015160006040516020015260405160e060020a63ffffffff8516028152600160a060020a03909216600483015260ff166024820152604401602060405180830381600087803b1515610a3a57600080fd5b6102c65a03f11515610a4b57600080fd5b50505060405180516001149050610a6157600080fd5b6001016109ba565b505050565b6000831515610a7c57610c5e565b600254600160a060020a031663d5a18e4c868686866000604051602001526040518563ffffffff1660e060020a0281526004018085600160a060020a0316600160a060020a031681526020018481526020018060200180602001838103835285818151815260200191508051906020019060200280838360005b83811015610b0e578082015183820152602001610af6565b50505050905001838103825284818151815260200191508051906020019060200280838360005b83811015610b4d578082015183820152602001610b35565b505050509050019650505050505050602060405180830381600087803b1515610b7557600080fd5b6102c65a03f11515610b8657600080fd5b505050604051805191505060018114610c5e577f3364c04ad1690884be6730c71150efcb178162f8f2110ea9892fa1c885423ad4605c8260405191825260208201526040908101905180910390a17f833433f95d4dc6978e8613b9453944645c9cf4d32272183bc6af4aa2bd74c1bb605d8260405191825260208201526040908101905180910390a17fadd7d4fb5066a4858ea4313c3f01c836e31f0b5a8ce58642ce285ea0f9a680a1605e82604051918252600160a060020a031660208201526040908101905180910390a1610c5c81610de0565b505b5050505050565b610c6d6108a1565b600160a060020a0316635c0796fd898989898989898960405160e060020a63ffffffff8b16028152600160a060020a03808a166004830190815289821660248401528882166044840152908716606483015260a4820185905261010060848301908152909160c481019060e48101906101040188818151815260200191508051906020019060200280838360005b83811015610d13578082015183820152602001610cfb565b50505050905001848103835286818151815260200191508051906020019060200280838360005b83811015610d52578082015183820152602001610d3a565b50505050905001848103825285818151815260200191508051906020019060200280838360005b83811015610d91578082015183820152602001610d79565b505050509050019b505050505050505050505050600060405180830381600087803b1515610dbe57600080fd5b6102c65a03f11515610dcf57600080fd5b5050505050505050505050565b3390565b6000610dea6108a1565b600160a060020a0316638834277e8360405160e060020a63ffffffff84160281526004810191909152602401600060405180830381600087803b1515610e2f57600080fd5b6102c65a03f11515610e4057600080fd5b50929392505050565b604051610d8480610e5a8339019056006060604052341561000f57600080fd5b604051604080610d84833981016040528080519190602001805160008054600160a060020a03191633600160a060020a0316179055915061005090506100a9565b604051809103906000f080151561006657600080fd5b60028054600160a060020a0319908116600160a060020a0393841617909155600380548216938316939093179092556000805490921692169190911790556100b9565b6040516105c0806107c483390190565b6106fc806100c86000396000f3006060604052600436106100955763ffffffff60e060020a60003504166335f2507f811461009a5780634592cd1d146100cb578063557f4bc9146100f25780635aa77d3c146101115780635ecb16cd146101405780636029d66f146101605780637362377b1461017f57806389f4fd5714610192578063ce606ee0146101a5578063dffdc75d146101b8578063eb8a5cd614610220575b600080fd5b34156100a557600080fd5b6100b9600160a060020a036004351661023f565b60405190815260200160405180910390f35b34156100d657600080fd5b6100de61028a565b604051901515815260200160405180910390f35b34156100fd57600080fd5b6100de600160a060020a03600435166102e2565b341561011c57600080fd5b610124610342565b604051600160a060020a03909116815260200160405180910390f35b341561014b57600080fd5b61015e6004803560248101910135610351565b005b341561016b57600080fd5b6100b9600160a060020a036004351661049c565b341561018a57600080fd5b61015e6104e6565b341561019d57600080fd5b61012461054f565b34156101b057600080fd5b61012461055e565b34156101c357600080fd5b6100b960048035600160a060020a03169060446024803590810190830135806020601f8201819004810201604051908101604052818152929190602084018383808284375094965050843594602001351515935061056d92505050565b341561022b57600080fd5b6100b9600160a060020a0360043516610686565b60035460009033600160a060020a039081169116141561028557506000805473ffffffffffffffffffffffffffffffffffffffff1916600160a060020a03831617905560015b919050565b60015460009033600160a060020a039081169116146102ab575060006102df565b50600180546000805473ffffffffffffffffffffffffffffffffffffffff19908116600160a060020a038416179091551681555b90565b6000805433600160a060020a039081169116141561028557600160a060020a038216151561031257506000610285565b5060018054600160a060020a03831673ffffffffffffffffffffffffffffffffffffffff19909116178155919050565b600154600160a060020a031681565b600080548190819033600160a060020a039081169116141561049557600092505b838310156104955784848481811061038657fe5b90506020020135600160a060020a0316915081600160a060020a03166370a082313060006040516020015260405160e060020a63ffffffff8416028152600160a060020a039091166004820152602401602060405180830381600087803b15156103ef57600080fd5b6102c65a03f1151561040057600080fd5b5050506040518051915050801561048a5781600160a060020a031663a9059cbb338360006040516020015260405160e060020a63ffffffff8516028152600160a060020a0390921660048301526024820152604401602060405180830381600087803b151561046e57600080fd5b6102c65a03f1151561047f57600080fd5b505050604051805150505b600190920191610372565b5050505050565b6000805433600160a060020a0390811691161415610285575060038054600160a060020a03831673ffffffffffffffffffffffffffffffffffffffff199091161790556001919050565b60005433600160a060020a039081169116141561054d57600030600160a060020a031631111561054d5733600160a060020a03166108fc30600160a060020a0316319081150290604051600060405180830381858888f19350505050151561054d57600080fd5b565b600254600160a060020a031690565b600054600160a060020a031681565b6000805433600160a060020a039081169116141561067e57600254600160a060020a031663dffdc75d8686868660006040516020015260405160e060020a63ffffffff8716028152600160a060020a03851660048201908152604482018490528215156064830152608060248301908152909160840185818151815260200191508051906020019080838360005b838110156106135780820151838201526020016105fb565b50505050905090810190601f1680156106405780820380516001836020036101000a031916815260200191505b5095505050505050602060405180830381600087803b151561066157600080fd5b6102c65a03f1151561067257600080fd5b50505060405180519150505b949350505050565b6000805433600160a060020a0390811691161415610285575060028054600160a060020a03831673ffffffffffffffffffffffffffffffffffffffff1990911617905560019190505600a165627a7a72305820f16ad58ab2a9be64e1b1ba14a46214c32efc79398504edd1a47023ff92feb3280029606060405260008054600160a060020a033316600160a060020a0319909116179055610590806100306000396000f3006060604052600436106100695763ffffffff60e060020a6000350416634592cd1d81146100a8578063557f4bc9146100cf5780635aa77d3c146100ee5780635ecb16cd1461011d5780637362377b1461013d578063ce606ee014610150578063dffdc75d14610163575b33600160a060020a03167f88a5966d370b9919b20f3e2c13ff65706f196a4e32cc2c12bf57088f885258743460405190815260200160405180910390a2005b34156100b357600080fd5b6100bb6101dd565b604051901515815260200160405180910390f35b34156100da57600080fd5b6100bb600160a060020a0360043516610235565b34156100f957600080fd5b610101610294565b604051600160a060020a03909116815260200160405180910390f35b341561012857600080fd5b61013b60048035602481019101356102a3565b005b341561014857600080fd5b61013b6103ee565b341561015b57600080fd5b610101610457565b341561016e57600080fd5b6101cb60048035600160a060020a03169060446024803590810190830135806020601f8201819004810201604051908101604052818152929190602084018383808284375094965050843594602001351515935061046692505050565b60405190815260200160405180910390f35b60015460009033600160a060020a039081169116146101fe57506000610232565b50600180546000805473ffffffffffffffffffffffffffffffffffffffff19908116600160a060020a038416179091551681555b90565b6000805433600160a060020a039081169116141561028f57600160a060020a03821615156102655750600061028f565b506001805473ffffffffffffffffffffffffffffffffffffffff1916600160a060020a0383161781555b919050565b600154600160a060020a031681565b600080548190819033600160a060020a03908116911614156103e757600092505b838310156103e7578484848181106102d857fe5b90506020020135600160a060020a0316915081600160a060020a03166370a082313060006040516020015260405160e060020a63ffffffff8416028152600160a060020a039091166004820152602401602060405180830381600087803b151561034157600080fd5b6102c65a03f1151561035257600080fd5b505050604051805191505080156103dc5781600160a060020a031663a9059cbb338360006040516020015260405160e060020a63ffffffff8516028152600160a060020a0390921660048301526024820152604401602060405180830381600087803b15156103c057600080fd5b6102c65a03f115156103d157600080fd5b505050604051805150505b6001909201916102c4565b5050505050565b60005433600160a060020a039081169116141561045557600030600160a060020a03163111156104555733600160a060020a03166108fc30600160a060020a0316319081150290604051600060405180830381858888f19350505050151561045557600080fd5b565b600054600160a060020a031681565b60008054819033600160a060020a039081169116141561055b5760206000865160208801878a6040603f5a0204f19050600051915080806104a5575082155b15156104b057600080fd5b85600160a060020a03167fc1de93dfa06362c6a616cde73ec17d116c0d588dd1df70f27f91b500de207c41858760405182815260406020820181815290820183818151815260200191508051906020019080838360005b8381101561051f578082015183820152602001610507565b50505050905090810190601f16801561054c5780820380516001836020036101000a031916815260200191505b50935050505060405180910390a25b509493505050505600a165627a7a72305820238cf90fe09feb9ee8adaa4dee688afd375111ec7e929f29610b30c46e92232800295133a133185f1023427a2e90f18506b27db994977ce0c0faafd514a7dd109ae0a165627a7a723058209a97470df7f24cbb967808028523a3c397eb92dfd3bbce8da2a2ceb91c45939c0029",
  "source": "/**\n * Copyright 2017–2018, LaborX PTY\n * Licensed under the AGPL Version 3 license.\n */\n\npragma solidity ^0.4.18;\n\n\nimport './User.sol';\nimport './UserLibrary.sol';\nimport './UserProxy.sol';\nimport './adapters/MultiEventsHistoryAdapter.sol';\nimport './adapters/Roles2LibraryAdapter.sol';\n\n\ncontract UserLibraryInterface {\n    function setMany(address _user, uint _areas, uint[] _categories, uint[] _skills) public returns (uint);\n}\n\n\ncontract UserFactory is MultiEventsHistoryAdapter, Roles2LibraryAdapter {\n\n    event UserCreated(\n        address indexed self,\n        address indexed user,\n        address proxy,\n        address recoveryContract,\n        address owner,\n        uint8[] roles,\n        uint areas,\n        uint[] categories,\n        uint[] skills\n    );\n\n    UserLibraryInterface userLibrary;\n\n    function UserFactory(address _roles2Library) Roles2LibraryAdapter(_roles2Library) public {}\n\n    function setupEventsHistory(address _eventsHistory) auth external returns (uint) {\n        require(_eventsHistory != 0x0);\n\n        _setEventsHistory(_eventsHistory);\n        return OK;\n    }\n\n    function setUserLibrary(UserLibraryInterface _userLibrary) auth external returns (uint) {\n        userLibrary = _userLibrary;\n        return OK;\n    }\n\n    function getUserLibrary() public view returns (address) {\n        return userLibrary;\n    }\n\n    function createUserWithProxyAndRecovery(\n        address _owner,\n        address _recoveryContract,\n        uint8[] _roles,\n        uint _areas,\n        uint[] _categories,\n        uint[] _skills\n    )\n    auth\n    public\n    returns (uint) \n    {\n        require(_owner != 0x0);\n\n        User user = new User(_owner, _recoveryContract);\n        UserProxy proxy = UserProxy(user.getUserProxy());\n        _setRoles(proxy, _roles);\n        _setSkills(proxy, _areas, _categories, _skills);\n\n        _emitUserCreated(user, proxy, _recoveryContract, _owner, _roles, _areas, _categories, _skills);\n        return OK;\n    }\n\n    function _setRoles(address _user, uint8[] _roles) internal {\n        for (uint i = 0; i < _roles.length; i++) {\n            if (OK != roles2Library.addUserRole(_user, _roles[i])) {\n                revert();\n            }\n        }\n    }\n\n    event DebugEvent1(uint line, bytes32 desc);\n    event DebugEvent2(uint line, uint desc);\n    event DebugEvent3(uint line, address desc);\n    function _setSkills(address _user, uint _areas, uint[] _categories, uint[] _skills) internal {\n        if (_areas == 0) {\n            return;\n        }\n    \n        uint resultCode = userLibrary.setMany(_user, _areas, _categories, _skills);\n        if (OK != resultCode) {\n            // revert();\n            DebugEvent1(92, bytes32(resultCode));\n            DebugEvent2(93, resultCode);\n            DebugEvent3(94, address(resultCode));\n            _emitErrorCode(resultCode);\n\n        }\n    }\n\n    function _emitUserCreated(\n        address _user,\n        address _proxy,\n        address _recoveryContract,\n        address _owner,\n        uint8[] _roles,\n        uint _areas,\n        uint[] _categories,\n        uint[] _skills\n    ) \n    internal \n    {\n        UserFactory(getEventsHistory()).emitUserCreated(\n            _user,\n            _proxy,\n            _recoveryContract,\n            _owner,\n            _roles,\n            _areas,\n            _categories,\n            _skills\n        );\n    }\n\n    function emitUserCreated(\n        address _user,\n        address _proxy,\n        address _recoveryContract,\n        address _owner,\n        uint8[] _roles,\n        uint _areas,\n        uint[] _categories,\n        uint[] _skills\n    ) \n    public \n    {\n        UserCreated(\n            _self(),\n            _user,\n            _proxy,\n            _recoveryContract,\n            _owner,\n            _roles,\n            _areas,\n            _categories,\n            _skills\n        );\n    }\n}\n",
  "sourcePath": "/Users/ahiatsevich/Development/chronobank/LX-SC/contracts/UserFactory.sol",
  "compiler": {
    "name": "solc",
    "version": "0.4.19+commit.c4cbbb05.Emscripten.clang"
  },
  "schemaVersion": "2.0.0",
  "updatedAt": "2018-05-10T14:36:15.335Z"
}