{
  "contractName": "UserLibraryMock",
  "abi": [
    {
      "constant": true,
      "inputs": [],
      "name": "getCalls",
      "outputs": [
        {
          "name": "",
          "type": "uint256"
        },
        {
          "name": "",
          "type": "uint256"
        }
      ],
      "payable": false,
      "stateMutability": "view",
      "type": "function"
    },
    {
      "constant": false,
      "inputs": [
        {
          "name": "",
          "type": "address"
        },
        {
          "name": "",
          "type": "bytes32"
        }
      ],
      "name": "addRole",
      "outputs": [
        {
          "name": "",
          "type": "uint256"
        }
      ],
      "payable": false,
      "stateMutability": "nonpayable",
      "type": "function"
    },
    {
      "constant": false,
      "inputs": [
        {
          "name": "",
          "type": "address"
        },
        {
          "name": "",
          "type": "uint256"
        },
        {
          "name": "",
          "type": "uint256[]"
        },
        {
          "name": "",
          "type": "uint256[]"
        }
      ],
      "name": "setMany",
      "outputs": [
        {
          "name": "",
          "type": "uint256"
        }
      ],
      "payable": false,
      "stateMutability": "nonpayable",
      "type": "function"
    }
  ],
  "bytecode": "0x6060604052600080556000600155341561001857600080fd5b6101ce806100276000396000f3006060604052600436106100565763ffffffff7c010000000000000000000000000000000000000000000000000000000060003504166350f2fb7f811461005b578063a73f7f8a14610086578063d5a18e4c146100c7575b600080fd5b341561006657600080fd5b61006e610177565b60405191825260208201526040908101905180910390f35b341561009157600080fd5b6100b573ffffffffffffffffffffffffffffffffffffffff60043516602435610181565b60405190815260200160405180910390f35b34156100d257600080fd5b6100b56004803573ffffffffffffffffffffffffffffffffffffffff169060248035919060649060443590810190830135806020808202016040519081016040528093929190818152602001838360200280828437820191505050505050919080359060200190820180359060200190808060200260200160405190810160405280939291908181526020018383602002808284375094965061019295505050505050565b6000546001549091565b505060008054600190810190915590565b60018054810181559493505050505600a165627a7a72305820078452980cf9743d8148461eaeee3a7c4385f8f1e04927b0b873ad2edee202970029",
  "source": "/**\n * Copyright 2017–2018, LaborX PTY\n * Licensed under the AGPL Version 3 license.\n */\n\npragma solidity ^0.4.18;\n\n\ncontract UserLibraryMock {\n\n    uint constant OK = 1;\n\n    uint addRoleCalls = 0;\n    uint setManyCalls = 0;\n\n    function getCalls() public view returns (uint, uint){\n        return (addRoleCalls, setManyCalls);\n    }\n\n    function addRole(address, bytes32) public returns (uint) {\n        addRoleCalls++;\n        return OK;\n    }\n\n    function setMany(address, uint, uint[], uint[]) public returns (uint) {\n        setManyCalls++;\n        return OK;\n    }\n}\n",
  "sourcePath": "/Users/ahiatsevich/Development/chronobank/LX-SC/contracts/helpers/UserLibraryMock.sol",
  "compiler": {
    "name": "solc",
    "version": "0.4.19+commit.c4cbbb05.Emscripten.clang"
  },
  "schemaVersion": "2.0.0",
  "updatedAt": "2018-05-08T10:34:46.074Z"
}