{
  "contractName": "UserLibrary",
  "abi": [
    {
      "constant": false,
      "inputs": [
        {
          "name": "_roles2Library",
          "type": "address"
        }
      ],
      "name": "setRoles2Library",
      "outputs": [
        {
          "name": "",
          "type": "uint256"
        }
      ],
      "payable": false,
      "stateMutability": "nonpayable",
      "type": "function"
    },
    {
      "constant": false,
      "inputs": [
        {
          "name": "_errorCode",
          "type": "uint256"
        }
      ],
      "name": "emitErrorCode",
      "outputs": [],
      "payable": false,
      "stateMutability": "nonpayable",
      "type": "function"
    },
    {
      "constant": false,
      "inputs": [
        {
          "name": "_msg",
          "type": "bytes32"
        }
      ],
      "name": "emitError",
      "outputs": [],
      "payable": false,
      "stateMutability": "nonpayable",
      "type": "function"
    },
    {
      "constant": true,
      "inputs": [],
      "name": "getEventsHistory",
      "outputs": [
        {
          "name": "",
          "type": "address"
        }
      ],
      "payable": false,
      "stateMutability": "view",
      "type": "function"
    },
    {
      "inputs": [
        {
          "name": "_store",
          "type": "address"
        },
        {
          "name": "_crate",
          "type": "bytes32"
        },
        {
          "name": "_roles2Library",
          "type": "address"
        }
      ],
      "payable": false,
      "stateMutability": "nonpayable",
      "type": "constructor"
    },
    {
      "anonymous": false,
      "inputs": [
        {
          "indexed": true,
          "name": "self",
          "type": "address"
        },
        {
          "indexed": true,
          "name": "user",
          "type": "address"
        },
        {
          "indexed": false,
          "name": "areas",
          "type": "uint256"
        }
      ],
      "name": "SkillAreasSet",
      "type": "event"
    },
    {
      "anonymous": false,
      "inputs": [
        {
          "indexed": true,
          "name": "self",
          "type": "address"
        },
        {
          "indexed": true,
          "name": "user",
          "type": "address"
        },
        {
          "indexed": false,
          "name": "area",
          "type": "uint256"
        },
        {
          "indexed": false,
          "name": "categories",
          "type": "uint256"
        }
      ],
      "name": "SkillCategoriesSet",
      "type": "event"
    },
    {
      "anonymous": false,
      "inputs": [
        {
          "indexed": true,
          "name": "self",
          "type": "address"
        },
        {
          "indexed": true,
          "name": "user",
          "type": "address"
        },
        {
          "indexed": false,
          "name": "area",
          "type": "uint256"
        },
        {
          "indexed": false,
          "name": "category",
          "type": "uint256"
        },
        {
          "indexed": false,
          "name": "skills",
          "type": "uint256"
        }
      ],
      "name": "SkillsSet",
      "type": "event"
    },
    {
      "anonymous": false,
      "inputs": [
        {
          "indexed": false,
          "name": "code",
          "type": "address"
        },
        {
          "indexed": false,
          "name": "sender",
          "type": "address"
        },
        {
          "indexed": false,
          "name": "sig",
          "type": "bytes4"
        }
      ],
      "name": "AuthFailedError",
      "type": "event"
    },
    {
      "anonymous": false,
      "inputs": [
        {
          "indexed": true,
          "name": "self",
          "type": "address"
        },
        {
          "indexed": false,
          "name": "msg",
          "type": "bytes32"
        }
      ],
      "name": "Error",
      "type": "event"
    },
    {
      "anonymous": false,
      "inputs": [
        {
          "indexed": true,
          "name": "self",
          "type": "address"
        },
        {
          "indexed": false,
          "name": "errorCode",
          "type": "uint256"
        }
      ],
      "name": "ErrorCode",
      "type": "event"
    },
    {
      "constant": false,
      "inputs": [
        {
          "name": "_eventsHistory",
          "type": "address"
        }
      ],
      "name": "setupEventsHistory",
      "outputs": [
        {
          "name": "",
          "type": "uint256"
        }
      ],
      "payable": false,
      "stateMutability": "nonpayable",
      "type": "function"
    },
    {
      "constant": true,
      "inputs": [
        {
          "name": "_user",
          "type": "address"
        },
        {
          "name": "_area",
          "type": "uint256"
        }
      ],
      "name": "getAreaInfo",
      "outputs": [
        {
          "name": "partialArea",
          "type": "bool"
        },
        {
          "name": "fullArea",
          "type": "bool"
        }
      ],
      "payable": false,
      "stateMutability": "view",
      "type": "function"
    },
    {
      "constant": true,
      "inputs": [
        {
          "name": "_user",
          "type": "address"
        },
        {
          "name": "_area",
          "type": "uint256"
        }
      ],
      "name": "hasArea",
      "outputs": [
        {
          "name": "_partial",
          "type": "bool"
        }
      ],
      "payable": false,
      "stateMutability": "view",
      "type": "function"
    },
    {
      "constant": true,
      "inputs": [
        {
          "name": "_user",
          "type": "address"
        },
        {
          "name": "_area",
          "type": "uint256"
        },
        {
          "name": "_category",
          "type": "uint256"
        }
      ],
      "name": "getCategoryInfo",
      "outputs": [
        {
          "name": "partialCategory",
          "type": "bool"
        },
        {
          "name": "fullCategory",
          "type": "bool"
        }
      ],
      "payable": false,
      "stateMutability": "view",
      "type": "function"
    },
    {
      "constant": true,
      "inputs": [
        {
          "name": "_user",
          "type": "address"
        },
        {
          "name": "_area",
          "type": "uint256"
        },
        {
          "name": "_category",
          "type": "uint256"
        }
      ],
      "name": "hasCategory",
      "outputs": [
        {
          "name": "_partial",
          "type": "bool"
        }
      ],
      "payable": false,
      "stateMutability": "view",
      "type": "function"
    },
    {
      "constant": true,
      "inputs": [
        {
          "name": "_user",
          "type": "address"
        },
        {
          "name": "_area",
          "type": "uint256"
        },
        {
          "name": "_category",
          "type": "uint256"
        },
        {
          "name": "_skill",
          "type": "uint256"
        }
      ],
      "name": "hasSkill",
      "outputs": [
        {
          "name": "",
          "type": "bool"
        }
      ],
      "payable": false,
      "stateMutability": "view",
      "type": "function"
    },
    {
      "constant": true,
      "inputs": [
        {
          "name": "_user",
          "type": "address"
        },
        {
          "name": "_area",
          "type": "uint256"
        },
        {
          "name": "_category",
          "type": "uint256"
        },
        {
          "name": "_skills",
          "type": "uint256"
        }
      ],
      "name": "hasSkills",
      "outputs": [
        {
          "name": "",
          "type": "bool"
        }
      ],
      "payable": false,
      "stateMutability": "view",
      "type": "function"
    },
    {
      "constant": true,
      "inputs": [
        {
          "name": "_user",
          "type": "address"
        }
      ],
      "name": "getUserSkills",
      "outputs": [
        {
          "name": "areas",
          "type": "uint256"
        },
        {
          "name": "_categories",
          "type": "uint256[]"
        },
        {
          "name": "_skills",
          "type": "uint256[]"
        }
      ],
      "payable": false,
      "stateMutability": "view",
      "type": "function"
    },
    {
      "constant": false,
      "inputs": [
        {
          "name": "_user",
          "type": "address"
        },
        {
          "name": "_areas",
          "type": "uint256"
        }
      ],
      "name": "setAreas",
      "outputs": [
        {
          "name": "",
          "type": "uint256"
        }
      ],
      "payable": false,
      "stateMutability": "nonpayable",
      "type": "function"
    },
    {
      "constant": false,
      "inputs": [
        {
          "name": "_user",
          "type": "address"
        },
        {
          "name": "_area",
          "type": "uint256"
        },
        {
          "name": "_categories",
          "type": "uint256"
        }
      ],
      "name": "setCategories",
      "outputs": [
        {
          "name": "",
          "type": "uint256"
        }
      ],
      "payable": false,
      "stateMutability": "nonpayable",
      "type": "function"
    },
    {
      "constant": false,
      "inputs": [
        {
          "name": "_user",
          "type": "address"
        },
        {
          "name": "_area",
          "type": "uint256"
        },
        {
          "name": "_category",
          "type": "uint256"
        },
        {
          "name": "_skills",
          "type": "uint256"
        }
      ],
      "name": "setSkills",
      "outputs": [
        {
          "name": "",
          "type": "uint256"
        }
      ],
      "payable": false,
      "stateMutability": "nonpayable",
      "type": "function"
    },
    {
      "constant": false,
      "inputs": [
        {
          "name": "_user",
          "type": "address"
        },
        {
          "name": "_areas",
          "type": "uint256"
        },
        {
          "name": "_categories",
          "type": "uint256[]"
        },
        {
          "name": "_skills",
          "type": "uint256[]"
        }
      ],
      "name": "addMany",
      "outputs": [
        {
          "name": "",
          "type": "uint256"
        }
      ],
      "payable": false,
      "stateMutability": "nonpayable",
      "type": "function"
    },
    {
      "constant": false,
      "inputs": [
        {
          "name": "_user",
          "type": "address"
        },
        {
          "name": "_areas",
          "type": "uint256"
        },
        {
          "name": "_categories",
          "type": "uint256[]"
        },
        {
          "name": "_skills",
          "type": "uint256[]"
        }
      ],
      "name": "setMany",
      "outputs": [
        {
          "name": "",
          "type": "uint256"
        }
      ],
      "payable": false,
      "stateMutability": "nonpayable",
      "type": "function"
    },
    {
      "constant": false,
      "inputs": [
        {
          "name": "_user",
          "type": "address"
        },
        {
          "name": "_areas",
          "type": "uint256"
        }
      ],
      "name": "emitSkillAreasSet",
      "outputs": [],
      "payable": false,
      "stateMutability": "nonpayable",
      "type": "function"
    },
    {
      "constant": false,
      "inputs": [
        {
          "name": "_user",
          "type": "address"
        },
        {
          "name": "_area",
          "type": "uint256"
        },
        {
          "name": "_categories",
          "type": "uint256"
        }
      ],
      "name": "emitSkillCategoriesSet",
      "outputs": [],
      "payable": false,
      "stateMutability": "nonpayable",
      "type": "function"
    },
    {
      "constant": false,
      "inputs": [
        {
          "name": "_user",
          "type": "address"
        },
        {
          "name": "_area",
          "type": "uint256"
        },
        {
          "name": "_category",
          "type": "uint256"
        },
        {
          "name": "_skills",
          "type": "uint256"
        }
      ],
      "name": "emitSkillsSet",
      "outputs": [],
      "payable": false,
      "stateMutability": "nonpayable",
      "type": "function"
    }
  ],
  "bytecode": "0x606060405234156200001057600080fd5b60405160608062001ae2833981016040528080519190602001805191906020018051915081905083836200005560008383640100000000620018666200013182021704565b505060038054600160a060020a031916600160a060020a0392909216919091179055620000b260047f736b696c6c417265617300000000000000000000000000000000000000000000640100000000620001578102620018991704565b620000ed60057f736b696c6c43617465676f726965730000000000000000000000000000000000640100000000620018996200015782021704565b6200012860067f736b696c6c730000000000000000000000000000000000000000000000000000640100000000620018996200015782021704565b505050620001ad565b8254600160a060020a031916600160a060020a0392909216919091178255600190910155565b620001718282640100000000620018b36200017582021704565b5050565b8154620001919082640100000000620018c36200019582021704565b9055565b81151580620001a2575080155b156200017157600080fd5b61192580620001bd6000396000f3006060604052600436106100f85763ffffffff60e060020a60003504166302927d2081146100fd578063177d8ee41461012e5780631e0b8c87146101585780632637cd7d146101945780632984bc4d146101b357806352782648146101f15780635d15b46a146102135780635d201596146102385780635fce627e1461025d5780637e4410481461027f5780638834277e146102a45780638d5fa05c146102ba578063a3922eac146102dc578063bffee60914610301578063cfba027914610329578063d2886ebc14610351578063d5a18e4c14610410578063d5f72b2e146104b3578063e90459f814610556578063fff10aba1461056c575b600080fd5b341561010857600080fd5b61011c600160a060020a036004351661059b565b60405190815260200160405180910390f35b341561013957600080fd5b610156600160a060020a036004351660243560443560643561063f565b005b341561016357600080fd5b610180600160a060020a03600435166024356044356064356106a7565b604051901515815260200160405180910390f35b341561019f57600080fd5b61011c600160a060020a036004351661070a565b34156101be57600080fd5b6101d5600160a060020a03600435166024356107b7565b6040519115158252151560208201526040908101905180910390f35b34156101fc57600080fd5b610156600160a060020a036004351660243561081c565b341561021e57600080fd5b610156600160a060020a036004351660243560443561086e565b341561024357600080fd5b6101d5600160a060020a03600435166024356044356108c8565b341561026857600080fd5b610180600160a060020a0360043516602435610967565b341561028a57600080fd5b610180600160a060020a036004351660243560443561097b565b34156102af57600080fd5b610156600435610991565b34156102c557600080fd5b61011c600160a060020a03600435166024356109d8565b34156102e757600080fd5b61011c600160a060020a0360043516602435604435610ad7565b341561030c57600080fd5b61011c600160a060020a0360043516602435604435606435610c19565b341561033457600080fd5b610180600160a060020a0360043516602435604435606435610d1f565b341561035c57600080fd5b610370600160a060020a0360043516610d4c565b604051808481526020018060200180602001838103835285818151815260200191508051906020019060200280838360005b838110156103ba5780820151838201526020016103a2565b50505050905001838103825284818151815260200191508051906020019060200280838360005b838110156103f95780820151838201526020016103e1565b505050509050019550505050505060405180910390f35b341561041b57600080fd5b61011c60048035600160a060020a031690602480359190606490604435908101908301358060208082020160405190810160405280939291908181526020018383602002808284378201915050505050509190803590602001908201803590602001908080602002602001604051908101604052809392919081815260200183836020028082843750949650610e9995505050505050565b34156104be57600080fd5b61011c60048035600160a060020a031690602480359190606490604435908101908301358060208082020160405190810160405280939291908181526020018383602002808284378201915050505050509190803590602001908201803590602001908080602002602001604051908101604052809392919081815260200183836020028082843750949650610f2b95505050505050565b341561056157600080fd5b610156600435610fb4565b341561057757600080fd5b61057f610ffb565b604051600160a060020a03909116815260200160405180910390f35b60006105b333600035600160e060020a03191661100a565b1515610616576000805160206118da8339815191523033600035600160e060020a031916604051600160a060020a039384168152919092166020820152600160e060020a03199091166040808301919091526060909101905180910390a161063a565b600160a060020a038216151561062b57600080fd5b610634826110e0565b50600190505b919050565b83600160a060020a0316610651611111565b600160a060020a03167f62a9bbdf1ffb3a1f0c2b91bd41b4a8aae08756e1db8528adb7ca9cdca58e8bd585858560405180848152602001838152602001828152602001935050505060405180910390a350505050565b6000806000806106b88888886108c8565b925092508215156106cc57600093506106ff565b81156106db57600193506106ff565b6106f0600060068a8a8a63ffffffff61111516565b90506106fc818661112d565b93505b505050949350505050565b600061072233600035600160e060020a03191661100a565b1515610785576000805160206118da8339815191523033600035600160e060020a031916604051600160a060020a039384168152919092166020820152600160e060020a03199091166040808301919091526060909101905180910390a161063a565b5060038054600160a060020a03831673ffffffffffffffffffffffffffffffffffffffff199091161790556001919050565b6000806000836107c681611134565b15806107d857506107d68161114b565b155b156107e257610813565b6107f5600060048863ffffffff61117116565b91506108018286611187565b61080e8360028802611187565b935093505b50509250929050565b81600160a060020a031661082e611111565b600160a060020a03167f47580e361e39c7552c5d1dfe41faf492bf326a9bdbc08095b79cde9418c083718360405190815260200160405180910390a35050565b82600160a060020a0316610880611111565b600160a060020a03167ff5bc4555dd344fe149ad54c8a3e1822c64a81f6943c4ca71b8eb64ff9fa58207848460405191825260208201526040908101905180910390a3505050565b6000806000806000856108da81611134565b15806108ec57506108ea8161114b565b155b156108f65761095b565b61090089896107b7565b93509350831515610917576000809550955061095b565b8215610929576001809550955061095b565b61093d600060058b8b63ffffffff61118d16565b91506109498288611187565b6109568360028a02611187565b955095505b50505050935093915050565b600061097383836107b7565b509392505050565b60006109888484846108c8565b50949350505050565b610999611111565b600160a060020a03167f09e0713b45664e161c202b19bb4574ee83dfa056f9bfdee56847b3971d9682218260405190815260200160405180910390a250565b6000806109f133600035600160e060020a03191661100a565b1515610a54576000805160206118da8339815191523033600035600160e060020a031916604051600160a060020a039384168152919092166020820152600160e060020a03199091166040808301919091526060909101905180910390a1610ad0565b82610a5e816111a4565b1515610a6957610ace565b600191505b8115610abf57610a7e84836111d1565b15610a8857610ab4565b610a9c60006005878563ffffffff61118d16565b1515610ab457610aad6152096111f8565b9250610ace565b600490910290610a6e565b610ac98585611261565b600192505b505b5092915050565b600080610af033600035600160e060020a03191661100a565b1515610b53576000805160206118da8339815191523033600035600160e060020a031916604051600160a060020a039384168152919092166020820152600160e060020a03199091166040808301919091526060909101905180910390a1610973565b83610b5d81611134565b1580610b6f5750610b6d8161114b565b155b15610b7957610c10565b83610b83816111a4565b1515610b8e57610c0e565b84801515610b9b57610c0c565b610ba58888611283565b600193505b8315610bfc57610bba86856111d1565b15610bc457610bf1565b610bd9600060068a8a8863ffffffff61111516565b1515610bf157610bea61520a6111f8565b9450610c0c565b600490930292610baa565b610c078888886112b5565b600194505b505b505b50509392505050565b6000610c3133600035600160e060020a03191661100a565b1515610c94576000805160206118da8339815191523033600035600160e060020a031916604051600160a060020a039384168152919092166020820152600160e060020a03199091166040808301919091526060909101905180910390a1610d17565b83610c9e81611134565b1580610cb05750610cae8161114b565b155b15610cba57610988565b83610cc481611134565b1580610cd65750610cd48161114b565b155b15610ce057610d14565b83801515610ced576106ff565b610cf78888611283565b610d028888886112da565b610d0e8888888861130f565b60019350505b50505b949350505050565b600081610d2b81611134565b1515610d3657610988565b610d42868686866106a7565b9695505050505050565b6000610d56611854565b610d5e611854565b60008060008060006080604051805910610d755750595b90808252806020026020018201604052509650601e604051805910610d975750595b9080825280602002602001820160405250955060009450849350610dc38460048b63ffffffff61117116565b9750600192505b8215610e8d57610dda88846111d1565b15610de457610e82565b849150610dfb600060058b8663ffffffff61118d16565b6001860195889081518110610e0c57fe5b602090810290910101525060015b8015610e8257610e3f878381518110610e2f57fe5b90602001906020020151826111d1565b15610e4957610e7a565b610e5e600060068b868563ffffffff61111516565b6001850194879081518110610e6f57fe5b602090810290910101525b600402610e1a565b600490920291610dca565b50505050509193909250565b6000610eb133600035600160e060020a03191661100a565b1515610f14576000805160206118da8339815191523033600035600160e060020a031916604051600160a060020a039384168152919092166020820152600160e060020a03199091166040808301919091526060909101905180910390a1610d17565b610f22858585856001611337565b95945050505050565b6000610f4333600035600160e060020a03191661100a565b1515610fa6576000805160206118da8339815191523033600035600160e060020a031916604051600160a060020a039384168152919092166020820152600160e060020a03199091166040808301919091526060909101905180910390a1610d17565b610f22858585856000611337565b610fbc611111565b600160a060020a03167fbb8f0c1d8804cd86e7873ec11cb00af945c8c0ebd061a68b28617034803464158260405190815260200160405180910390a250565b600254600160a060020a031690565b600030600160a060020a031683600160a060020a0316141561102e575060016110da565b600354600160a060020a03161515611048575060006110da565b600354600160a060020a031663b700961384308560006040516020015260405160e060020a63ffffffff8616028152600160a060020a039384166004820152919092166024820152600160e060020a03199091166044820152606401602060405180830381600087803b15156110bd57600080fd5b6102c65a03f115156110ce57600080fd5b50505060405180519150505b92915050565b60028054600160a060020a03831673ffffffffffffffffffffffffffffffffffffffff199091161790556001919050565b3390565b6000610d428686600160a060020a03871686866114e4565b9081161490565b600081158015906110da5750506000198101161590565b7faaaaaaaaaaaaaaaaaaaaaaaaaaaaaaaaaaaaaaaaaaaaaaaaaaaaaaaaaaaaaaaa161590565b6000610d178484600160a060020a038516611512565b16151590565b6000610f228585600160a060020a038616856115ac565b60027faaaaaaaaaaaaaaaaaaaaaaaaaaaaaaaaaaaaaaaaaaaaaaaaaaaaaaaaaaaaaaaa8216049081161490565b60006111dd8383611187565b15806111f157506111f18360028402611187565b9392505050565b6000611202610ffb565b600160a060020a0316638834277e8360405160e060020a63ffffffff84160281526004810191909152602401600060405180830381600087803b151561124757600080fd5b6102c65a03f1151561125857600080fd5b50929392505050565b61127560006004848463ffffffff6115d116565b61127f82826115e6565b5050565b61128d8282610967565b156112975761127f565b61127f82826112af600060048463ffffffff61117116565b17611261565b6112ca6000600585858563ffffffff61165916565b6112d583838361166f565b505050565b6112e583838361097b565b156112ef576112d5565b6112d583838361130960006005858563ffffffff61118d16565b176112b5565b611325600060068686868663ffffffff6116ec16565b61133184848484611703565b50505050565b600080808080611346896111a4565b151561135e576113576152096111f8565b94506114d7565b6113888a87611381578a61137b600060048f63ffffffff61117116565b17611383565b8a5b611261565b600191505b81156114d25761139d89836111d1565b156113a7576114c7565b6113c58885815181106113b657fe5b906020019060200201516111a4565b15156113d057600080fd5b8784815181106113dc57fe5b9060200190602002015115156113f157600080fd5b61144c8a8388611430578a878151811061140757fe5b9060200190602002015161142a60058f88600061118d909392919063ffffffff16565b17611447565b8a878151811061143c57fe5b906020019060200201515b6112b5565b5060015b80156114c057611465888581518110610e2f57fe5b1561146f576114b8565b86838151811061147b57fe5b90602001906020020151151561149057600080fd5b6114b18a83838a87815181106114a257fe5b9060200190602002015161130f565b6001830192505b600402611450565b6001840193505b60049091029061138d565b600194505b5050505095945050505050565b6000610d42868686868660405192835260208301919091526040808301919091526060909101905180910390205b825460018401548354600092600160a060020a0316916337d9d7fc9185604051918252602082015260409081019051809103902060006040516020015260405160e060020a63ffffffff851602815260048101929092526024820152604401602060405180830381600087803b151561158a57600080fd5b6102c65a03f1151561159b57600080fd5b505050604051805195945050505050565b6000610f22858585856040519182526020820152604090810190518091039020611512565b6113318484600160a060020a03851684611787565b6115ee610ffb565b600160a060020a03166352782648838360405160e060020a63ffffffff8516028152600160a060020a0390921660048301526024820152604401600060405180830381600087803b151561164157600080fd5b6102c65a03f1151561165257600080fd5b5050505050565b6116528585600160a060020a03861685856117ff565b611677610ffb565b600160a060020a0316635d15b46a84848460405160e060020a63ffffffff8616028152600160a060020a03909316600484015260248301919091526044820152606401600060405180830381600087803b15156116d357600080fd5b6102c65a03f115156116e457600080fd5b505050505050565b6116e48686600160a060020a038716868686611823565b61170b610ffb565b600160a060020a031663177d8ee48585858560405160e060020a63ffffffff8716028152600160a060020a039094166004850152602484019290925260448301526064820152608401600060405180830381600087803b151561176d57600080fd5b6102c65a03f1151561177e57600080fd5b50505050505050565b835460018501548454600160a060020a039092169163a14ff85791908560405191825260208201526040908101905180910390208460405160e060020a63ffffffff8616028152600481019390935260248301919091526044820152606401600060405180830381600087803b151561176d57600080fd5b61165285858585604051918252602082015260409081019051809103902084611787565b6116e48686868686604051928352602083019190915260408083019190915260609091019051809103902084611787565b60206040519081016040526000815290565b825473ffffffffffffffffffffffffffffffffffffffff1916600160a060020a0392909216919091178255600190910155565b61127f82826118b3565b61127f82826118b3565b61127f82825b81546118bf90826118c3565b9055565b811515806118cf575080155b1561127f57600080fd005133a133185f1023427a2e90f18506b27db994977ce0c0faafd514a7dd109ae0a165627a7a7230582012ed7223f911b6d6899b58b885ab33cb4edee5f73a82445937e098da85c198750029",
  "source": "/**\n * Copyright 20172018, LaborX PTY\n * Licensed under the AGPL Version 3 license.\n */\n\npragma solidity ^0.4.18;\n\n\nimport './adapters/MultiEventsHistoryAdapter.sol';\nimport './adapters/Roles2LibraryAdapter.sol';\nimport './adapters/StorageAdapter.sol';\nimport './base/BitOps.sol';\n\n\n/**\n * @title LaborX User Library.\n *\n * Skills:\n * Here we encode 128 different areas, each with 128 different categories\n * each with 256 different skills, using bit flags starting from the right,\n * for every user.\n * Areas and categories use odd bit flags to indicate that entity is\n * partially filled (area has categories, or category has skills).\n * Areas and categories use even bit flags to indicate that entity is\n * fully filled (area has all categories and skills, or category has all skills).\n * Skill can be repserented with any bit.\n * It results in following:\n *   all the areas for the user are defined using single uint256.\n *     all the categories of a single area of user are defined using single uint256.\n *       all the skills of a single category of user are defined using single uint256.\n *\n * 00000001 is the first partial area.\n * 00000100 is the second partial area.\n * 00000101 is the first and second partial areas.\n * 00001101 is the first partial and second full areas.\n * 00000010 is invalid, because in order to be full area also should be partial.\n * Same encoding is used for categories.\n *\n * For skills:\n * 00000001 is the first skill.\n * 00000010 is the second skill.\n * 01000011 is the first, second and seventh skill.\n *\n * Example skills structure for some user:\n * 00110001 - Partial first area, and full third area.\n *   01001101 - First area: partial first and fourth category, full second category.\n *     11100000 - First category: sixth, senventh and eighth skills.\n *     10001001 - Fourth category: first, fourth and eighth skills.\n */\ncontract UserLibrary is StorageAdapter, MultiEventsHistoryAdapter, Roles2LibraryAdapter, BitOps {\n\n    uint constant USER_LIBRARY_SCOPE = 21000;\n    uint constant USER_LIBRARY_INVALID_AREA = USER_LIBRARY_SCOPE + 1;\n    uint constant USER_LIBRARY_INVALID_CATEGORY = USER_LIBRARY_SCOPE + 2;\n\n    event SkillAreasSet(address indexed self, address indexed user, uint areas);\n    event SkillCategoriesSet(address indexed self, address indexed user, uint area, uint categories);\n    event SkillsSet(address indexed self, address indexed user, uint area, uint category, uint skills);\n\n    StorageInterface.AddressUIntMapping skillAreas;\n    StorageInterface.AddressUIntUIntMapping skillCategories;\n    StorageInterface.AddressUIntUIntUIntMapping skills;\n\n    function UserLibrary(\n        Storage _store, \n        bytes32 _crate, \n        address _roles2Library\n    )\n    StorageAdapter(_store, _crate)\n    Roles2LibraryAdapter(_roles2Library)\n    public\n    {\n        skillAreas.init('skillAreas');\n        skillCategories.init('skillCategories');\n        skills.init('skills');\n    }\n\n    function setupEventsHistory(address _eventsHistory) auth external returns (uint) {\n        require(_eventsHistory != 0x0);\n\n        _setEventsHistory(_eventsHistory);\n        return OK;\n    }\n\n    function getAreaInfo(\n        address _user, \n        uint _area\n    )\n    singleOddFlag(_area)\n    public view\n    returns (bool partialArea, bool fullArea) \n    {\n        uint areas = store.get(skillAreas, _user);\n        return (_hasFlag(areas, _area), _hasFlag(areas, _area << 1));\n    }\n\n    function hasArea(address _user, uint _area) public view returns (bool _partial) {\n        (_partial, ) = getAreaInfo(_user, _area);\n    }\n\n    function getCategoryInfo(address _user, uint _area, uint _category)\n    singleOddFlag(_category)\n    public view\n    returns (bool partialCategory, bool fullCategory) \n    {\n        var (partialArea, fullArea) = getAreaInfo(_user, _area);\n        if (!partialArea) {\n            return (false, false);\n        }\n        if (fullArea) {\n            return (true, true);\n        }\n\n        uint categories = store.get(skillCategories, _user, _area);\n        return (_hasFlag(categories, _category), _hasFlag(categories, _category << 1));\n    }\n\n    function hasCategory(address _user, uint _area, uint _category) public view returns (bool _partial) {\n        (_partial,) = getCategoryInfo(_user, _area, _category);\n    }\n\n    function hasSkill(\n        address _user, \n        uint _area, \n        uint _category, \n        uint _skill\n    ) \n    singleFlag(_skill) \n    public view \n    returns (bool) \n    {\n        return hasSkills(_user, _area, _category, _skill);\n    }\n\n    function hasSkills(\n        address _user, \n        uint _area, \n        uint _category, \n        uint _skills\n    ) \n    public view \n    returns (bool) \n    {\n        var (partialCategory, fullCategory) = getCategoryInfo(_user, _area, _category);\n        if (!partialCategory) {\n            return false;\n        }\n        if (fullCategory) {\n            return true;\n        }\n        \n        uint userSkills = store.get(skills, _user, _area, _category);\n        return _hasFlags(userSkills, _skills);\n    }\n\n    // If some area of category is full, then we are not looking into it cause observer can safely\n    // assume that everything inside is filled.\n    function getUserSkills(address _user) \n    public view \n    returns (\n        uint areas, \n        uint[] _categories, \n        uint[] _skills\n    ) {\n        _categories = new uint[](2**7);\n        _skills = new uint[](2*15);\n        uint categoriesPointer = 0;\n        uint skillsPointer = 0;\n\n        areas = store.get(skillAreas, _user);\n        for (uint area = 1; area != 0; area = area << 2) {\n            if (_isFullOrNull(areas, area)) {\n                continue;\n            }\n\n            uint _categoriesPointer = categoriesPointer;\n            _categories[categoriesPointer++] = store.get(skillCategories, _user, area);\n            for (uint category = 1; category != 0; category = category << 2) {\n                if (_isFullOrNull(_categories[_categoriesPointer], category)) {\n                    continue;\n                }\n                _skills[skillsPointer++] = store.get(skills, _user, area, category);\n            }\n        }\n    }\n\n    function setAreas(\n        address _user, \n        uint _areas\n    )\n    auth\n    ifEvenThenOddTooFlags(_areas)\n    public\n    returns (uint) \n    {\n        for (uint area = 1; area != 0; area = area << 2) {\n            if (_isFullOrNull(_areas, area)) {\n                continue;\n            }\n            if (store.get(skillCategories, _user, area) == 0) {\n                return _emitErrorCode(USER_LIBRARY_INVALID_AREA);\n            }\n        }\n\n        _setAreas(_user, _areas);\n\n        return OK;\n    }\n\n    function setCategories(\n        address _user, \n        uint _area, \n        uint _categories\n    )\n    auth\n    singleOddFlag(_area)\n    ifEvenThenOddTooFlags(_categories)\n    hasFlags(_categories)\n    public\n    returns (uint) \n    {\n        _addArea(_user, _area);\n        \n        for (uint category = 1; category != 0; category = category << 2) {\n            if (_isFullOrNull(_categories, category)) {\n                continue;\n            }\n            if (store.get(skills, _user, _area, category) == 0) {\n                return _emitErrorCode(USER_LIBRARY_INVALID_CATEGORY);\n            }\n        }\n\n        _setCategories(_user, _area, _categories);\n\n        return OK;\n    }\n\n    function setSkills(\n        address _user, \n        uint _area, \n        uint _category, \n        uint _skills\n    )\n    auth\n    singleOddFlag(_area)\n    singleOddFlag(_category)\n    hasFlags(_skills)\n    public\n    returns (uint)\n     {\n        _addArea(_user, _area);\n        _addCategory(_user, _area, _category);\n        _setSkills(_user, _area, _category, _skills);\n        return OK;\n    }\n\n    function addMany(address _user, uint _areas, uint[] _categories, uint[] _skills) auth public returns (uint) {\n        return _setMany(_user, _areas, _categories, _skills, false);\n    }\n\n    function setMany(address _user, uint _areas, uint[] _categories, uint[] _skills) auth public returns (uint) {\n        return _setMany(_user, _areas, _categories, _skills, true);\n    }\n\n    function _setMany(\n        address _user, \n        uint _areas, \n        uint[] _categories, \n        uint[] _skills, \n        bool _overwrite\n    )\n    internal\n    returns (uint) \n    {\n        uint categoriesCounter = 0;\n        uint skillsCounter = 0;\n        if (!_ifEvenThenOddTooFlags(_areas)) {\n            return _emitErrorCode(USER_LIBRARY_INVALID_AREA);\n        }\n        \n        _setAreas(_user, _overwrite ? _areas : (store.get(skillAreas, _user) | _areas));\n        \n        for (uint area = 1; area != 0; area = area << 2) {\n            if (_isFullOrNull(_areas, area)) {\n                // Nothing should be put inside full or empty area.\n                continue;\n            }\n\n            require(_ifEvenThenOddTooFlags(_categories[categoriesCounter]));\n            require(_categories[categoriesCounter] != 0);\n\n            // Set categories for current partial area.\n            _setCategories(_user, area, _overwrite ? _categories[categoriesCounter] : (store.get(skillCategories, _user, area) | _categories[categoriesCounter]));\n            \n            for (uint category = 1; category != 0; category = category << 2) {\n                if (_isFullOrNull(_categories[categoriesCounter], category)) {\n                    // Nothing should be put inside full or empty category.\n                    continue;\n                }\n                require(_skills[skillsCounter] != 0);\n                // Set skills for current partial category.\n                _setSkills(_user, area, category, _skills[skillsCounter]);\n                // Move to next skills.\n                skillsCounter += 1;\n            }\n            // Move to next categories.\n            categoriesCounter += 1;\n        }\n        return OK;\n    }\n\n\n    function _addArea(address _user, uint _area) internal {\n        if (hasArea(_user, _area)) {\n            return;\n        }\n        _setAreas(_user, store.get(skillAreas, _user) | _area);\n    }\n\n    function _addCategory(address _user, uint _area, uint _category) internal {\n        if (hasCategory(_user, _area, _category)) {\n            return;\n        }\n        _setCategories(_user, _area, store.get(skillCategories, _user, _area) | _category);\n    }\n\n    function _setAreas(address _user, uint _areas) internal {\n        store.set(skillAreas, _user, _areas);\n        _emitSkillAreasSet(_user, _areas);\n    }\n\n    function _setCategories(address _user, uint _area, uint _categories) internal {\n        store.set(skillCategories, _user, _area, _categories);\n        _emitSkillCategoriesSet(_user, _area, _categories);\n    }\n\n    function _setSkills(address _user, uint _area, uint _category, uint _skills) internal {\n        store.set(skills, _user, _area, _category, _skills);\n        _emitSkillsSet(_user, _area, _category, _skills);\n    }\n\n    function _emitSkillAreasSet(address _user, uint _areas) internal {\n        UserLibrary(getEventsHistory()).emitSkillAreasSet(_user, _areas);\n    }\n\n    function _emitSkillCategoriesSet(address _user, uint _area, uint _categories) internal {\n        UserLibrary(getEventsHistory()).emitSkillCategoriesSet(_user, _area, _categories);\n    }\n\n    function _emitSkillsSet(address _user, uint _area, uint _category, uint _skills) internal {\n        UserLibrary(getEventsHistory()).emitSkillsSet(_user, _area, _category, _skills);\n    }\n\n    function emitSkillAreasSet(address _user, uint _areas) public {\n        SkillAreasSet(_self(), _user, _areas);\n    }\n\n    function emitSkillCategoriesSet(address _user, uint _area, uint _categories) public {\n        SkillCategoriesSet(_self(), _user, _area, _categories);\n    }\n\n    function emitSkillsSet(address _user, uint _area, uint _category, uint _skills) public {\n        SkillsSet(_self(), _user, _area, _category, _skills);\n    }\n\n}\n",
  "sourcePath": "/Users/alesanro/Documents/Projects/ChronoBank/LX-SC/contracts/UserLibrary.sol",
  "compiler": {
    "name": "solc",
    "version": "0.4.19+commit.c4cbbb05.Emscripten.clang"
  },
  "schemaVersion": "2.0.0",
  "updatedAt": "2018-06-05T15:16:40.465Z"
}