{
  "contractName": "UserMock",
  "abi": [
    {
      "constant": true,
      "inputs": [],
      "name": "contractOwner",
      "outputs": [
        {
          "name": "",
          "type": "address"
        }
      ],
      "payable": false,
      "stateMutability": "view",
      "type": "function"
    },
    {
      "constant": true,
      "inputs": [],
      "name": "recoverUserCalls",
      "outputs": [
        {
          "name": "",
          "type": "uint256"
        }
      ],
      "payable": false,
      "stateMutability": "view",
      "type": "function"
    },
    {
      "constant": false,
      "inputs": [
        {
          "name": "_newAddress",
          "type": "address"
        }
      ],
      "name": "recoverUser",
      "outputs": [
        {
          "name": "",
          "type": "bool"
        }
      ],
      "payable": false,
      "stateMutability": "nonpayable",
      "type": "function"
    },
    {
      "constant": false,
      "inputs": [
        {
          "name": "_newOwner",
          "type": "address"
        }
      ],
      "name": "setContractOwner",
      "outputs": [
        {
          "name": "",
          "type": "bool"
        }
      ],
      "payable": false,
      "stateMutability": "nonpayable",
      "type": "function"
    }
  ],
  "bytecode": "0x6060604052341561000f57600080fd5b6101b58061001e6000396000f3006060604052600436106100615763ffffffff7c010000000000000000000000000000000000000000000000000000000060003504166335f2507f8114610066578063a34d42b814610099578063ce606ee0146100b8578063e70d88ca146100e7575b600080fd5b341561007157600080fd5b610085600160a060020a036004351661010c565b604051901515815260200160405180910390f35b34156100a457600080fd5b610085600160a060020a0360043516610143565b34156100c357600080fd5b6100cb610174565b604051600160a060020a03909116815260200160405180910390f35b34156100f257600080fd5b6100fa610183565b60405190815260200160405180910390f35b60008054600160a060020a03831673ffffffffffffffffffffffffffffffffffffffff199091161790556001805481018155919050565b60008054600160a060020a03831673ffffffffffffffffffffffffffffffffffffffff199091161790556001919050565b600054600160a060020a031681565b600154815600a165627a7a72305820ced7fa35647d14f6d22203620ae55f19360e247be5cd15b3f67fb0aac1cdf0990029",
  "source": "/**\n * Copyright 2017–2018, LaborX PTY\n * Licensed under the AGPL Version 3 license.\n */\n\npragma solidity ^0.4.18;\n\ncontract UserMock {\n\n    address public contractOwner;\n    uint public recoverUserCalls;\n\n    function recoverUser(address _newAddress) external returns (bool) {\n        contractOwner = _newAddress;\n        recoverUserCalls++;\n        return true;\n    }\n\n    function setContractOwner(address _newOwner) external returns (bool){\n        contractOwner = _newOwner;\n        return true;\n    }\n\n}\n",
  "sourcePath": "/Users/alesanro/Documents/Projects/ChronoBank/LX-SC/contracts/helpers/UserMock.sol",
  "compiler": {
    "name": "solc",
    "version": "0.4.19+commit.c4cbbb05.Emscripten.clang"
  },
  "schemaVersion": "2.0.0",
  "updatedAt": "2018-06-20T11:53:50.581Z"
}