{
  "contractName": "UserProxy",
  "abi": [
    {
      "constant": false,
      "inputs": [],
      "name": "claimContractOwnership",
      "outputs": [
        {
          "name": "",
          "type": "bool"
        }
      ],
      "payable": false,
      "stateMutability": "nonpayable",
      "type": "function"
    },
    {
      "constant": false,
      "inputs": [
        {
          "name": "_to",
          "type": "address"
        }
      ],
      "name": "changeContractOwnership",
      "outputs": [
        {
          "name": "",
          "type": "bool"
        }
      ],
      "payable": false,
      "stateMutability": "nonpayable",
      "type": "function"
    },
    {
      "constant": true,
      "inputs": [],
      "name": "pendingContractOwner",
      "outputs": [
        {
          "name": "",
          "type": "address"
        }
      ],
      "payable": false,
      "stateMutability": "view",
      "type": "function"
    },
    {
      "constant": false,
      "inputs": [
        {
          "name": "tokens",
          "type": "address[]"
        }
      ],
      "name": "withdrawTokens",
      "outputs": [],
      "payable": false,
      "stateMutability": "nonpayable",
      "type": "function"
    },
    {
      "constant": false,
      "inputs": [],
      "name": "withdrawEther",
      "outputs": [],
      "payable": false,
      "stateMutability": "nonpayable",
      "type": "function"
    },
    {
      "constant": true,
      "inputs": [],
      "name": "contractOwner",
      "outputs": [
        {
          "name": "",
          "type": "address"
        }
      ],
      "payable": false,
      "stateMutability": "view",
      "type": "function"
    },
    {
      "payable": true,
      "stateMutability": "payable",
      "type": "fallback"
    },
    {
      "anonymous": false,
      "inputs": [
        {
          "indexed": true,
          "name": "destination",
          "type": "address"
        },
        {
          "indexed": false,
          "name": "value",
          "type": "uint256"
        },
        {
          "indexed": false,
          "name": "data",
          "type": "bytes"
        }
      ],
      "name": "Forwarded",
      "type": "event"
    },
    {
      "anonymous": false,
      "inputs": [
        {
          "indexed": true,
          "name": "sender",
          "type": "address"
        },
        {
          "indexed": false,
          "name": "value",
          "type": "uint256"
        }
      ],
      "name": "Received",
      "type": "event"
    },
    {
      "constant": false,
      "inputs": [
        {
          "name": "_destination",
          "type": "address"
        },
        {
          "name": "_data",
          "type": "bytes"
        },
        {
          "name": "_value",
          "type": "uint256"
        },
        {
          "name": "_throwOnFailedCall",
          "type": "bool"
        }
      ],
      "name": "forward",
      "outputs": [
        {
          "name": "result",
          "type": "bytes32"
        }
      ],
      "payable": false,
      "stateMutability": "nonpayable",
      "type": "function"
    }
  ],
  "bytecode": "0x606060405260008054600160a060020a033316600160a060020a0319909116179055610590806100306000396000f3006060604052600436106100695763ffffffff60e060020a6000350416634592cd1d81146100a8578063557f4bc9146100cf5780635aa77d3c146100ee5780635ecb16cd1461011d5780637362377b1461013d578063ce606ee014610150578063dffdc75d14610163575b33600160a060020a03167f88a5966d370b9919b20f3e2c13ff65706f196a4e32cc2c12bf57088f885258743460405190815260200160405180910390a2005b34156100b357600080fd5b6100bb6101dd565b604051901515815260200160405180910390f35b34156100da57600080fd5b6100bb600160a060020a0360043516610235565b34156100f957600080fd5b610101610294565b604051600160a060020a03909116815260200160405180910390f35b341561012857600080fd5b61013b60048035602481019101356102a3565b005b341561014857600080fd5b61013b6103ee565b341561015b57600080fd5b610101610457565b341561016e57600080fd5b6101cb60048035600160a060020a03169060446024803590810190830135806020601f8201819004810201604051908101604052818152929190602084018383808284375094965050843594602001351515935061046692505050565b60405190815260200160405180910390f35b60015460009033600160a060020a039081169116146101fe57506000610232565b50600180546000805473ffffffffffffffffffffffffffffffffffffffff19908116600160a060020a038416179091551681555b90565b6000805433600160a060020a039081169116141561028f57600160a060020a03821615156102655750600061028f565b506001805473ffffffffffffffffffffffffffffffffffffffff1916600160a060020a0383161781555b919050565b600154600160a060020a031681565b600080548190819033600160a060020a03908116911614156103e757600092505b838310156103e7578484848181106102d857fe5b90506020020135600160a060020a0316915081600160a060020a03166370a082313060006040516020015260405160e060020a63ffffffff8416028152600160a060020a039091166004820152602401602060405180830381600087803b151561034157600080fd5b6102c65a03f1151561035257600080fd5b505050604051805191505080156103dc5781600160a060020a031663a9059cbb338360006040516020015260405160e060020a63ffffffff8516028152600160a060020a0390921660048301526024820152604401602060405180830381600087803b15156103c057600080fd5b6102c65a03f115156103d157600080fd5b505050604051805150505b6001909201916102c4565b5050505050565b60005433600160a060020a039081169116141561045557600030600160a060020a03163111156104555733600160a060020a03166108fc30600160a060020a0316319081150290604051600060405180830381858888f19350505050151561045557600080fd5b565b600054600160a060020a031681565b60008054819033600160a060020a039081169116141561055b5760206000865160208801878a6040603f5a0204f19050600051915080806104a5575082155b15156104b057600080fd5b85600160a060020a03167fc1de93dfa06362c6a616cde73ec17d116c0d588dd1df70f27f91b500de207c41858760405182815260406020820181815290820183818151815260200191508051906020019080838360005b8381101561051f578082015183820152602001610507565b50505050905090810190601f16801561054c5780820380516001836020036101000a031916815260200191505b50935050505060405180910390a25b509493505050505600a165627a7a72305820649f27576c80eeabbc580a722f38deba3c5bd8c5ce50d252d464e25e1a95c3660029",
  "source": "/**\n * Copyright 2017–2018, LaborX PTY\n * Licensed under the AGPL Version 3 license.\n */\n\npragma solidity ^0.4.18;\n\nimport './base/Owned.sol';\n\n\ncontract UserProxy is Owned {\n\n    event Forwarded (\n        address indexed destination,\n        uint value,\n        bytes data\n    );\n    event Received (\n        address indexed sender,\n        uint value\n    );\n\n    function () external payable {\n        Received(msg.sender, msg.value);\n    }\n\n    function forward(\n        address _destination,\n        bytes _data,\n        uint _value,\n        bool _throwOnFailedCall\n    )  \n    onlyContractOwner\n    public\n    returns (bytes32 result) \n    {\n        bool success;\n        assembly {\n            success := call(div(mul(gas, 63), 64), _destination, _value, add(_data, 32), mload(_data), 0, 32)\n            result := mload(0)\n        }\n        require(success || !_throwOnFailedCall);\n\n        Forwarded(_destination, _value, _data);\n    }\n}\n",
  "sourcePath": "/Users/alesanro/Documents/Projects/ChronoBank/LX-SC/contracts/UserProxy.sol",
  "compiler": {
    "name": "solc",
    "version": "0.4.19+commit.c4cbbb05.Emscripten.clang"
  },
  "schemaVersion": "2.0.0",
  "updatedAt": "2018-06-05T12:42:47.460Z"
}