{
  "contractName": "UserFactory",
  "abi": [
    {
      "constant": false,
      "inputs": [
        {
          "name": "_roles2Library",
          "type": "address"
        }
      ],
      "name": "setRoles2Library",
      "outputs": [
        {
          "name": "",
          "type": "uint256"
        }
      ],
      "payable": false,
      "stateMutability": "nonpayable",
      "type": "function"
    },
    {
      "constant": false,
      "inputs": [
        {
          "name": "_errorCode",
          "type": "uint256"
        }
      ],
      "name": "emitErrorCode",
      "outputs": [],
      "payable": false,
      "stateMutability": "nonpayable",
      "type": "function"
    },
    {
      "constant": true,
      "inputs": [
        {
          "name": "",
          "type": "uint8"
        }
      ],
      "name": "allowedRoles",
      "outputs": [
        {
          "name": "",
          "type": "bool"
        }
      ],
      "payable": false,
      "stateMutability": "view",
      "type": "function"
    },
    {
      "constant": false,
      "inputs": [
        {
          "name": "_msg",
          "type": "bytes32"
        }
      ],
      "name": "emitError",
      "outputs": [],
      "payable": false,
      "stateMutability": "nonpayable",
      "type": "function"
    },
    {
      "constant": true,
      "inputs": [],
      "name": "getEventsHistory",
      "outputs": [
        {
          "name": "",
          "type": "address"
        }
      ],
      "payable": false,
      "stateMutability": "view",
      "type": "function"
    },
    {
      "inputs": [
        {
          "name": "_roles2Library",
          "type": "address"
        }
      ],
      "payable": false,
      "stateMutability": "nonpayable",
      "type": "constructor"
    },
    {
      "anonymous": false,
      "inputs": [
        {
          "indexed": true,
          "name": "self",
          "type": "address"
        },
        {
          "indexed": true,
          "name": "user",
          "type": "address"
        },
        {
          "indexed": false,
          "name": "proxy",
          "type": "address"
        },
        {
          "indexed": false,
          "name": "recoveryContract",
          "type": "address"
        },
        {
          "indexed": false,
          "name": "owner",
          "type": "address"
        },
        {
          "indexed": false,
          "name": "roles",
          "type": "uint8[]"
        }
      ],
      "name": "UserCreated",
      "type": "event"
    },
    {
      "anonymous": false,
      "inputs": [
        {
          "indexed": false,
          "name": "code",
          "type": "address"
        },
        {
          "indexed": false,
          "name": "sender",
          "type": "address"
        },
        {
          "indexed": false,
          "name": "sig",
          "type": "bytes4"
        }
      ],
      "name": "AuthFailedError",
      "type": "event"
    },
    {
      "anonymous": false,
      "inputs": [
        {
          "indexed": true,
          "name": "self",
          "type": "address"
        },
        {
          "indexed": false,
          "name": "msg",
          "type": "bytes32"
        }
      ],
      "name": "Error",
      "type": "event"
    },
    {
      "anonymous": false,
      "inputs": [
        {
          "indexed": true,
          "name": "self",
          "type": "address"
        },
        {
          "indexed": false,
          "name": "errorCode",
          "type": "uint256"
        }
      ],
      "name": "ErrorCode",
      "type": "event"
    },
    {
      "constant": false,
      "inputs": [
        {
          "name": "_eventsHistory",
          "type": "address"
        }
      ],
      "name": "setupEventsHistory",
      "outputs": [
        {
          "name": "",
          "type": "uint256"
        }
      ],
      "payable": false,
      "stateMutability": "nonpayable",
      "type": "function"
    },
    {
      "constant": false,
      "inputs": [
        {
          "name": "_addedRoles",
          "type": "uint8[]"
        }
      ],
      "name": "addAllowedRoles",
      "outputs": [
        {
          "name": "",
          "type": "uint256"
        }
      ],
      "payable": false,
      "stateMutability": "nonpayable",
      "type": "function"
    },
    {
      "constant": false,
      "inputs": [
        {
          "name": "_removedRoles",
          "type": "uint8[]"
        }
      ],
      "name": "removeAllowedRoles",
      "outputs": [
        {
          "name": "",
          "type": "uint256"
        }
      ],
      "payable": false,
      "stateMutability": "nonpayable",
      "type": "function"
    },
    {
      "constant": true,
      "inputs": [],
      "name": "getAllowedRoles",
      "outputs": [
        {
          "name": "_roles",
          "type": "uint8[]"
        }
      ],
      "payable": false,
      "stateMutability": "view",
      "type": "function"
    },
    {
      "constant": false,
      "inputs": [
        {
          "name": "_owner",
          "type": "address"
        },
        {
          "name": "_recoveryContract",
          "type": "address"
        },
        {
          "name": "_roles",
          "type": "uint8[]"
        }
      ],
      "name": "createUserWithProxyAndRecovery",
      "outputs": [
        {
          "name": "",
          "type": "uint256"
        }
      ],
      "payable": false,
      "stateMutability": "nonpayable",
      "type": "function"
    },
    {
      "constant": false,
      "inputs": [
        {
          "name": "_user",
          "type": "address"
        },
        {
          "name": "_proxy",
          "type": "address"
        },
        {
          "name": "_recoveryContract",
          "type": "address"
        },
        {
          "name": "_owner",
          "type": "address"
        },
        {
          "name": "_roles",
          "type": "uint8[]"
        }
      ],
      "name": "emitUserCreated",
      "outputs": [],
      "payable": false,
      "stateMutability": "nonpayable",
      "type": "function"
    }
  ],
  "bytecode": "0x6060604052341561000f57600080fd5b604051602080611cc88339810160405280805160018054600160a060020a03909216600160a060020a03199092169190911790555050611c74806100546000396000f3006060604052600436106100955763ffffffff60e060020a60003504166302927d20811461009a5780632637cd7d146100cb5780633bb2c8de146100ea5780633f7937ba146101085780634103a616146101265780638834277e14610165578063921b62c81461017b578063aa75b229146101e2578063b20cc59014610248578063e90459f814610275578063fff10aba1461028b575b600080fd5b34156100a557600080fd5b6100b9600160a060020a03600435166102ba565b60405190815260200160405180910390f35b34156100d657600080fd5b6100b9600160a060020a036004351661035e565b34156100f557600080fd5b6100b96004803560248101910135610409565b341561011357600080fd5b6100b96004803560248101910135610583565b341561013157600080fd5b610163600160a060020a03600480358216916024803582169260443583169260643516916084359081019101356106b8565b005b341561017057600080fd5b610163600435610757565b341561018657600080fd5b6100b9600160a060020a0360048035821691602480359091169190606490604435908101908301358060208181020160405190810160405280939291908181526020018383602002808284375094965061079e95505050505050565b34156101ed57600080fd5b6101f5610984565b60405160208082528190810183818151815260200191508051906020019060200280838360005b8381101561023457808201518382015260200161021c565b505050509050019250505060405180910390f35b341561025357600080fd5b61026160ff60043516610a0b565b604051901515815260200160405180910390f35b341561028057600080fd5b610163600435610a20565b341561029657600080fd5b61029e610a67565b604051600160a060020a03909116815260200160405180910390f35b60006102d233600035600160e060020a031916610a76565b151561033557600080516020611c298339815191523033600035600160e060020a031916604051600160a060020a039384168152919092166020820152600160e060020a03199091166040808301919091526060909101905180910390a1610359565b600160a060020a038216151561034a57600080fd5b61035382610b3f565b50600190505b919050565b600061037633600035600160e060020a031916610a76565b15156103d957600080516020611c298339815191523033600035600160e060020a031916604051600160a060020a039384168152919092166020820152600160e060020a03199091166040808301919091526060909101905180910390a1610359565b5060018054600160a060020a03831673ffffffffffffffffffffffffffffffffffffffff19909116178155919050565b600080600080600061042733600035600160e060020a031916610a76565b151561048a57600080516020611c298339815191523033600035600160e060020a031916604051600160a060020a039384168152919092166020820152600160e060020a03199091166040808301919091526060909101905180910390a1610579565b60045460ff169350600092505b85831015610565578686848181106104ab57fe5b60ff60209182029390930135831660008181526002909252604090912054909450909116151590506104dc5761055a565b6104e582610b70565b905060ff8481169082161461051e5760ff8085166000908152600360205260408082205484841683529120805460ff1916919092161790555b60ff8085166000908152600360209081526040808320805460ff1990811690915593861683526002909152902080549091169055600019909301925b826001019250610497565b6004805460ff191660ff8616179055600194505b5050505092915050565b60008060008061059f33600035600160e060020a031916610a76565b151561060257600080516020611c298339815191523033600035600160e060020a031916604051600160a060020a039384168152919092166020820152600160e060020a03199091166040808301919091526060909101905180910390a16106af565b60045460ff169250600091505b8482101561069b5785858381811061062357fe5b60ff6020918202939093013583166000818152600290925260409091205490935090911615905061065357610690565b60ff81811660008181526002602090815260408083208054600160ff19918216811790925598019485168352600390915290208054909516179093555b81600101915061060f565b6004805460ff191660ff8516179055600193505b50505092915050565b85600160a060020a03166106ca610bc1565b600160a060020a03167f4dd26d089fbf1567cacdeb0c5027bdd9071a9bcb00cdb27c1b7e3c5fc9b7d5ce8787878787604051600160a060020a03808716825285811660208084019190915290851660408301526080606083018181529083018490529060a083019085908502808284378201915050965050505050505060405180910390a3505050505050565b61075f610bc1565b600160a060020a03167f09e0713b45664e161c202b19bb4574ee83dfa056f9bfdee56847b3971d9682218260405190815260200160405180910390a250565b6000808080600160a060020a03871615156107b857600080fd5b600092505b845183101561080d57600260008685815181106107d657fe5b9060200190602002015160ff908116825260208201929092526040016000205416151561080257600080fd5b8260010192506107bd565b8686610817610c6f565b600160a060020a0392831681529116602082015260409081019051809103906000f080151561084557600080fd5b915081600160a060020a03166389f4fd576040518163ffffffff1660e060020a028152600401602060405180830381600087803b151561088457600080fd5b5af1151561089157600080fd5b5050506040518051905090506108a78186610bc5565b6108af610a67565b600160a060020a0316634103a6168383898b8a60405160e060020a63ffffffff8816028152600160a060020a038087166004830190815286821660248401528582166044840152908416606483015260a060848301908152909160a40183818151815260200191508051906020019060200280838360005b8381101561093f578082015183820152602001610927565b505050509050019650505050505050600060405180830381600087803b151561096757600080fd5b5af1151561097457600080fd5b5060019998505050505050505050565b61098c610c7f565b60045460009060ff166040518059106109a25750595b90808252806020026020018201604052509150600090505b81518160ff161015610a075760ff60018201811660009081526003602052604090205481169083908316815181106109ee57fe5b60ff9092166020928302909101909101526001016109ba565b5090565b60026020526000908152604090205460ff1681565b610a28610bc1565b600160a060020a03167fbb8f0c1d8804cd86e7873ec11cb00af945c8c0ebd061a68b28617034803464158260405190815260200160405180910390a250565b600054600160a060020a031690565b600030600160a060020a031683600160a060020a03161415610a9a57506001610b39565b600154600160a060020a03161515610ab457506000610b39565b600154600160a060020a031663b700961384308560405160e060020a63ffffffff8616028152600160a060020a039384166004820152919092166024820152600160e060020a03199091166044820152606401602060405180830381600087803b1515610b2057600080fd5b5af11515610b2d57600080fd5b50505060405180519150505b92915050565b60008054600160a060020a03831673ffffffffffffffffffffffffffffffffffffffff199091161790556001919050565b60045460009060ff16815b8160ff168160ff161015610bb85760ff81811660009081526003602052604090205481169085161415610bb057809250610bba565b600101610b7b565bfe5b5050919050565b3390565b60005b8151811015610c6a57600154600160a060020a031663e1e0929984848481518110610bef57fe5b9060200190602002015160405160e060020a63ffffffff8516028152600160a060020a03909216600483015260ff166024820152604401602060405180830381600087803b1515610c3f57600080fd5b5af11515610c4c57600080fd5b50505060405180516001149050610c6257600080fd5b600101610bc8565b505050565b604051610f9780610c9283390190565b6020604051908101604052600081529056006060604052341561000f57600080fd5b604051604080610f97833981016040528080519190602001805160008054600160a060020a03191633600160a060020a0316179055915061005090506100a9565b604051809103906000f080151561006657600080fd5b60028054600160a060020a0319908116600160a060020a0393841617909155600380548216938316939093179092556000805490921692169190911790556100b9565b6040516106d0806108c783390190565b6107ff806100c86000396000f3006060604052600436106100a05763ffffffff60e060020a60003504166335f2507f81146100a55780634592cd1d146100d6578063557f4bc9146100fd5780635aa77d3c1461011c5780635ecb16cd1461014b5780636029d66f1461019c5780637362377b146101bb57806389f4fd57146101ce578063ce606ee0146101e1578063dffdc75d146101f4578063eb8a5cd61461025c578063f2fde38b1461027b575b600080fd5b34156100b057600080fd5b6100c4600160a060020a036004351661029a565b60405190815260200160405180910390f35b34156100e157600080fd5b6100e96102e5565b604051901515815260200160405180910390f35b341561010857600080fd5b6100e9600160a060020a036004351661037c565b341561012757600080fd5b61012f6103dc565b604051600160a060020a03909116815260200160405180910390f35b341561015657600080fd5b61019a60046024813581810190830135806020818102016040519081016040528093929190818152602001838360200280828437509496506103eb95505050505050565b005b34156101a757600080fd5b6100c4600160a060020a0360043516610516565b34156101c657600080fd5b61019a610560565b34156101d957600080fd5b61012f6105c1565b34156101ec57600080fd5b61012f6105d0565b34156101ff57600080fd5b6100c460048035600160a060020a03169060446024803590810190830135806020601f820181900481020160405190810160405281815292919060208401838380828437509496505084359460200135151593506105df92505050565b341561026757600080fd5b6100c4600160a060020a03600435166106eb565b341561028657600080fd5b6100e9600160a060020a0360043516610735565b60035460009033600160a060020a03908116911614156102e057506000805473ffffffffffffffffffffffffffffffffffffffff1916600160a060020a03831617905560015b919050565b60015460009033600160a060020a0390811691161461030657506000610379565b600154600054600160a060020a0391821691167f8be0079c531659141344cd1fd0a4f28419497f9722a3daafe3b4186f6b6457e060405160405180910390a350600180546000805473ffffffffffffffffffffffffffffffffffffffff19908116600160a060020a038416179091551681555b90565b6000805433600160a060020a03908116911614156102e057600160a060020a03821615156103ac575060006102e0565b5060018054600160a060020a03831673ffffffffffffffffffffffffffffffffffffffff19909116178155919050565b600154600160a060020a031681565b600080548190819033600160a060020a039081169116141561051057600092505b83518310156105105783838151811061042157fe5b90602001906020020151915081600160a060020a03166370a082313060405160e060020a63ffffffff8416028152600160a060020a039091166004820152602401602060405180830381600087803b151561047b57600080fd5b5af1151561048857600080fd5b505050604051805191505080156105055781600160a060020a031663a9059cbb338360405160e060020a63ffffffff8516028152600160a060020a0390921660048301526024820152604401602060405180830381600087803b15156104ed57600080fd5b5af115156104fa57600080fd5b505050604051805150505b60019092019161040c565b50505050565b6000805433600160a060020a03908116911614156102e0575060038054600160a060020a03831673ffffffffffffffffffffffffffffffffffffffff199091161790556001919050565b6000805433600160a060020a03908116911614156105be5750600160a060020a0330163160008111156105be57600160a060020a03331681156108fc0282604051600060405180830381858888f1935050505015156105be57600080fd5b50565b600254600160a060020a031690565b600054600160a060020a031681565b6000805433600160a060020a03908116911614156106e357600254600160a060020a031663dffdc75d8686868660405160e060020a63ffffffff8716028152600160a060020a03851660048201908152604482018490528215156064830152608060248301908152909160840185818151815260200191508051906020019080838360005b8381101561067c578082015183820152602001610664565b50505050905090810190601f1680156106a95780820380516001836020036101000a031916815260200191505b5095505050505050602060405180830381600087803b15156106ca57600080fd5b5af115156106d757600080fd5b50505060405180519150505b949350505050565b6000805433600160a060020a03908116911614156102e0575060028054600160a060020a03831673ffffffffffffffffffffffffffffffffffffffff199091161790556001919050565b6000805433600160a060020a03908116911614156102e057600160a060020a0382161515610765575060006102e0565b600054600160a060020a0380841691167f8be0079c531659141344cd1fd0a4f28419497f9722a3daafe3b4186f6b6457e060405160405180910390a35060008054600160a060020a03831673ffffffffffffffffffffffffffffffffffffffff1990911617905560019190505600a165627a7a723058206cd461092a1a9af42354a4e494be69238dc6aef6c7288e8a67176b25edf9246c0029606060405260008054600160a060020a033316600160a060020a03199091161790556106a0806100306000396000f3006060604052600436106100745763ffffffff60e060020a6000350416634592cd1d81146100b3578063557f4bc9146100da5780635aa77d3c146100f95780635ecb16cd146101285780637362377b14610179578063ce606ee01461018c578063dffdc75d1461019f578063f2fde38b14610219575b33600160a060020a03167f88a5966d370b9919b20f3e2c13ff65706f196a4e32cc2c12bf57088f885258743460405190815260200160405180910390a2005b34156100be57600080fd5b6100c6610238565b604051901515815260200160405180910390f35b34156100e557600080fd5b6100c6600160a060020a03600435166102cf565b341561010457600080fd5b61010c61032e565b604051600160a060020a03909116815260200160405180910390f35b341561013357600080fd5b610177600460248135818101908301358060208181020160405190810160405280939291908181526020018383602002808284375094965061033d95505050505050565b005b341561018457600080fd5b610177610468565b341561019757600080fd5b61010c6104c9565b34156101aa57600080fd5b61020760048035600160a060020a03169060446024803590810190830135806020601f820181900481020160405190810160405281815292919060208401838380828437509496505084359460200135151593506104d892505050565b60405190815260200160405180910390f35b341561022457600080fd5b6100c6600160a060020a03600435166105d6565b60015460009033600160a060020a03908116911614610259575060006102cc565b600154600054600160a060020a0391821691167f8be0079c531659141344cd1fd0a4f28419497f9722a3daafe3b4186f6b6457e060405160405180910390a350600180546000805473ffffffffffffffffffffffffffffffffffffffff19908116600160a060020a038416179091551681555b90565b6000805433600160a060020a039081169116141561032957600160a060020a03821615156102ff57506000610329565b506001805473ffffffffffffffffffffffffffffffffffffffff1916600160a060020a0383161781555b919050565b600154600160a060020a031681565b600080548190819033600160a060020a039081169116141561046257600092505b83518310156104625783838151811061037357fe5b90602001906020020151915081600160a060020a03166370a082313060405160e060020a63ffffffff8416028152600160a060020a039091166004820152602401602060405180830381600087803b15156103cd57600080fd5b5af115156103da57600080fd5b505050604051805191505080156104575781600160a060020a031663a9059cbb338360405160e060020a63ffffffff8516028152600160a060020a0390921660048301526024820152604401602060405180830381600087803b151561043f57600080fd5b5af1151561044c57600080fd5b505050604051805150505b60019092019161035e565b50505050565b6000805433600160a060020a03908116911614156104c65750600160a060020a0330163160008111156104c657600160a060020a03331681156108fc0282604051600060405180830381858888f1935050505015156104c657600080fd5b50565b600054600160a060020a031681565b60008054819033600160a060020a03908116911614156105cd5760206000865160208801878a6040603f5a0204f1905060005191508080610517575082155b151561052257600080fd5b85600160a060020a03167fc1de93dfa06362c6a616cde73ec17d116c0d588dd1df70f27f91b500de207c41858760405182815260406020820181815290820183818151815260200191508051906020019080838360005b83811015610591578082015183820152602001610579565b50505050905090810190601f1680156105be5780820380516001836020036101000a031916815260200191505b50935050505060405180910390a25b50949350505050565b6000805433600160a060020a039081169116141561032957600160a060020a038216151561060657506000610329565b600054600160a060020a0380841691167f8be0079c531659141344cd1fd0a4f28419497f9722a3daafe3b4186f6b6457e060405160405180910390a35060008054600160a060020a03831673ffffffffffffffffffffffffffffffffffffffff1990911617905560019190505600a165627a7a723058209b0b55b60ada10dadfc5c3f62ca070b8c625c7294a0619e8dc9b682dccb9e2a800295133a133185f1023427a2e90f18506b27db994977ce0c0faafd514a7dd109ae0a165627a7a7230582017e20c55899c40aa4361687b8af83e092f9fcb4ce9cc0b7fd7a437abf47779a50029",
  "source": "/**\n * Copyright 2017–2018, LaborX PTY\n * Licensed under the AGPL Version 3 license.\n */\n\npragma solidity ^0.4.21;\n\n\nimport \"./User.sol\";\nimport \"./UserProxy.sol\";\nimport \"./adapters/MultiEventsHistoryAdapter.sol\";\nimport \"./adapters/Roles2LibraryAdapter.sol\";\n\n\ncontract UserFactory is MultiEventsHistoryAdapter, Roles2LibraryAdapter {\n\n    uint constant USER_FACTORY_SCOPE = 21000;\n    uint constant USER_FACTORY_ROLE_IS_NOT_ALLOWED = 21000;\n\n    event UserCreated(\n        address indexed self,\n        address indexed user,\n        address proxy,\n        address recoveryContract,\n        address owner,\n        uint8[] roles\n    );\n\n    /// @dev mapping(role => is allowed)\n    mapping(uint8 => bool) public allowedRoles;\n    mapping(uint8 => uint8) internal indexToRoles;\n    uint8 internal allowedRolesCount;\n\n    function UserFactory(address _roles2Library) Roles2LibraryAdapter(_roles2Library) public {}\n\n    function setupEventsHistory(address _eventsHistory) auth external returns (uint) {\n        require(_eventsHistory != 0x0);\n\n        _setEventsHistory(_eventsHistory);\n        return OK;\n    }\n\n    function addAllowedRoles(uint8[] _addedRoles) auth external returns (uint) {\n        uint8 _allowedRolesCount = allowedRolesCount;\n        for (uint _roleIdx = 0; _roleIdx < _addedRoles.length; ++_roleIdx) {\n            uint8 _role = _addedRoles[_roleIdx];\n            if (allowedRoles[_role]) {\n                continue;\n            }\n\n            allowedRoles[_role] = true;\n            _allowedRolesCount += 1;\n            indexToRoles[_allowedRolesCount] = _role;\n        }\n        \n        allowedRolesCount = _allowedRolesCount;\n\n        return OK;\n    }\n\n    function removeAllowedRoles(uint8[] _removedRoles) auth external returns (uint) {\n        uint8 _allowedRolesCount = allowedRolesCount;\n        for (uint _roleIdx = 0; _roleIdx < _removedRoles.length; ++_roleIdx) {\n            uint8 _role = _removedRoles[_roleIdx];\n            if (!allowedRoles[_role]) {\n                continue;\n            }\n\n            uint8 _allowedRoleIdx = _getRoleIndex(_role);\n            if (_allowedRolesCount != _allowedRoleIdx) {\n                indexToRoles[_allowedRoleIdx] = indexToRoles[_allowedRolesCount];\n            }\n\n            delete indexToRoles[_allowedRolesCount];\n            delete allowedRoles[_role];\n            _allowedRolesCount -= 1;\n        }\n        \n        allowedRolesCount = _allowedRolesCount;\n\n        return OK;\n    }\n\n    function getAllowedRoles() public view returns (uint8[] _roles) {\n        _roles = new uint8[](allowedRolesCount);\n        for (uint8 _roleIdx = 0; _roleIdx < _roles.length; ++_roleIdx) {\n            _roles[_roleIdx] = indexToRoles[_roleIdx + 1];\n        }\n    }\n\n    function createUserWithProxyAndRecovery(\n        address _owner,\n        address _recoveryContract,\n        uint8[] _roles\n    )\n    public\n    returns (uint) \n    {\n        require(_owner != 0x0);\n\n        for (uint _roleIdx = 0; _roleIdx < _roles.length; ++_roleIdx) {\n            require(allowedRoles[_roles[_roleIdx]]);\n        }\n\n        User user = new User(_owner, _recoveryContract);\n        UserProxy proxy = UserProxy(user.getUserProxy());\n        _setRoles(proxy, _roles);\n\n        UserFactory(getEventsHistory()).emitUserCreated(\n            user,\n            proxy,\n            _recoveryContract,\n            _owner,\n            _roles\n        );\n        return OK;\n    }\n\n    function emitUserCreated(\n        address _user,\n        address _proxy,\n        address _recoveryContract,\n        address _owner,\n        uint8[] _roles\n    ) \n    external \n    {\n        emit UserCreated(\n            _self(),\n            _user,\n            _proxy,\n            _recoveryContract,\n            _owner,\n            _roles\n        );\n    }\n\n    /* INTERNAL */\n\n    function _setRoles(address _user, uint8[] _roles) internal {\n        for (uint i = 0; i < _roles.length; i++) {\n            if (OK != roles2Library.addUserRole(_user, _roles[i])) {\n                revert();\n            }\n        }\n    }\n\n    function _getRoleIndex(uint8 _role) private view returns (uint8) {\n        uint8 _allowedRolesCount = allowedRolesCount;\n        for (uint8 _roleIdx = 0; _roleIdx < _allowedRolesCount; ++_roleIdx) {\n            if (indexToRoles[_roleIdx] == _role) {\n                return _roleIdx;\n            }\n        }\n        // NOTE: Should provide only existed role\n        assert(false);\n    }\n}\n",
  "sourcePath": "/Users/alesanro/Documents/Projects/ChronoBank/LX-SC/contracts/UserFactory.sol",
  "compiler": {
    "name": "solc",
    "version": "0.4.21+commit.dfe3193c.Emscripten.clang"
  },
  "schemaVersion": "2.0.0",
  "updatedAt": "2018-06-20T11:53:20.572Z"
}